{
  "contractName": "Assets",
  "abi": [
    {
      "anonymous": false,
      "inputs": [
        {
          "indexed": false,
          "internalType": "address",
          "name": "creatorAddr",
          "type": "address"
        }
      ],
      "name": "AssetsInit",
      "type": "event"
    },
    {
      "anonymous": false,
      "inputs": [
        {
          "indexed": false,
          "internalType": "uint8",
          "name": "timezone",
          "type": "uint8"
        },
        {
          "indexed": false,
          "internalType": "uint256",
          "name": "countryIdxInTZ",
          "type": "uint256"
        },
        {
          "indexed": false,
          "internalType": "uint256",
          "name": "divisionIdxInCountry",
          "type": "uint256"
        }
      ],
      "name": "DivisionCreation",
      "type": "event"
    },
    {
      "anonymous": false,
      "inputs": [
        {
          "indexed": false,
          "internalType": "uint8",
          "name": "timezone",
          "type": "uint8"
        },
        {
          "indexed": false,
          "internalType": "uint256",
          "name": "countryIdxInTZ",
          "type": "uint256"
        }
      ],
      "name": "DivisionCreationFailed",
      "type": "event"
    },
    {
      "anonymous": false,
      "inputs": [
        {
          "indexed": false,
          "internalType": "uint256",
          "name": "teamId",
          "type": "uint256"
        },
        {
          "indexed": false,
          "internalType": "address",
          "name": "to",
          "type": "address"
        }
      ],
      "name": "TeamTransfer",
      "type": "event"
    },
    {
      "inputs": [],
      "name": "COO",
      "outputs": [
        {
          "internalType": "address",
          "name": "",
          "type": "address"
        }
      ],
      "stateMutability": "view",
      "type": "function",
      "constant": true
    },
    {
      "inputs": [],
      "name": "_stakers",
      "outputs": [
        {
          "internalType": "contract Stakers",
          "name": "",
          "type": "address"
        }
      ],
      "stateMutability": "view",
      "type": "function",
      "constant": true
    },
    {
      "inputs": [
        {
          "internalType": "uint256",
          "name": "teamId",
          "type": "uint256"
        },
        {
          "internalType": "uint256",
          "name": "playerCreationDay",
          "type": "uint256"
        },
        {
          "internalType": "uint8",
          "name": "shirtNum",
          "type": "uint8"
        }
      ],
      "name": "computeBirthDayAndPotential",
      "outputs": [
        {
          "internalType": "uint16",
          "name": "dayOfBirth",
          "type": "uint16"
        },
        {
          "internalType": "uint8",
          "name": "potential",
          "type": "uint8"
        }
      ],
      "stateMutability": "pure",
      "type": "function",
      "constant": true
    },
    {
      "inputs": [
        {
          "internalType": "uint256",
          "name": "teamId",
          "type": "uint256"
        },
        {
          "internalType": "uint8",
          "name": "shirtNum",
          "type": "uint8"
        },
        {
          "internalType": "uint8",
          "name": "potential",
          "type": "uint8"
        }
      ],
      "name": "computeSkills",
      "outputs": [
        {
          "internalType": "uint32[5]",
          "name": "",
          "type": "uint32[5]"
        },
        {
          "internalType": "uint8[4]",
          "name": "",
          "type": "uint8[4]"
        },
        {
          "internalType": "uint32",
          "name": "",
          "type": "uint32"
        }
      ],
      "stateMutability": "pure",
      "type": "function",
      "constant": true
    },
    {
      "inputs": [
        {
          "internalType": "uint8",
          "name": "tz",
          "type": "uint8"
        }
      ],
      "name": "countCountries",
      "outputs": [
        {
          "internalType": "uint256",
          "name": "",
          "type": "uint256"
        }
      ],
      "stateMutability": "view",
      "type": "function",
      "constant": true
    },
    {
      "inputs": [
        {
          "internalType": "uint8",
          "name": "timeZone",
          "type": "uint8"
        },
        {
          "internalType": "uint256",
          "name": "countryIdxInTZ",
          "type": "uint256"
        }
      ],
      "name": "countryInTZExists",
      "outputs": [
        {
          "internalType": "bool",
          "name": "",
          "type": "bool"
        }
      ],
      "stateMutability": "view",
      "type": "function",
      "constant": true
    },
    {
      "inputs": [],
      "name": "cryptoMktAddr",
      "outputs": [
        {
          "internalType": "address",
          "name": "",
          "type": "address"
        }
      ],
      "stateMutability": "view",
      "type": "function",
      "constant": true
    },
    {
      "inputs": [
        {
          "internalType": "uint256",
          "name": "dayz",
          "type": "uint256"
        }
      ],
      "name": "daysToSecs",
      "outputs": [
        {
          "internalType": "uint256",
          "name": "",
          "type": "uint256"
        }
      ],
      "stateMutability": "pure",
      "type": "function",
      "constant": true
    },
    {
      "inputs": [
        {
          "internalType": "uint256",
          "name": "encoded",
          "type": "uint256"
        }
      ],
      "name": "decodeTZCountryAndVal",
      "outputs": [
        {
          "internalType": "uint8",
          "name": "",
          "type": "uint8"
        },
        {
          "internalType": "uint256",
          "name": "",
          "type": "uint256"
        },
        {
          "internalType": "uint256",
          "name": "",
          "type": "uint256"
        }
      ],
      "stateMutability": "pure",
      "type": "function",
      "constant": true
    },
    {
      "inputs": [
        {
          "internalType": "uint256",
          "name": "divisionId",
          "type": "uint256"
        }
      ],
      "name": "divisionIdToRound",
      "outputs": [
        {
          "internalType": "uint256",
          "name": "",
          "type": "uint256"
        }
      ],
      "stateMutability": "view",
      "type": "function",
      "constant": true
    },
    {
      "inputs": [
        {
          "internalType": "uint32[5]",
          "name": "skills",
          "type": "uint32[5]"
        },
        {
          "internalType": "uint256",
          "name": "dayOfBirth",
          "type": "uint256"
        },
        {
          "internalType": "uint8",
          "name": "generation",
          "type": "uint8"
        },
        {
          "internalType": "uint256",
          "name": "playerId",
          "type": "uint256"
        },
        {
          "internalType": "uint8[4]",
          "name": "birthTraits",
          "type": "uint8[4]"
        },
        {
          "internalType": "bool",
          "name": "alignedEndOfLastHalf",
          "type": "bool"
        },
        {
          "internalType": "bool",
          "name": "redCardLastGame",
          "type": "bool"
        },
        {
          "internalType": "uint8",
          "name": "gamesNonStopping",
          "type": "uint8"
        },
        {
          "internalType": "uint8",
          "name": "injuryWeeksLeft",
          "type": "uint8"
        },
        {
          "internalType": "bool",
          "name": "substitutedFirstHalf",
          "type": "bool"
        },
        {
          "internalType": "uint32",
          "name": "sumSkills",
          "type": "uint32"
        }
      ],
      "name": "encodePlayerSkills",
      "outputs": [
        {
          "internalType": "uint256",
          "name": "encoded",
          "type": "uint256"
        }
      ],
      "stateMutability": "pure",
      "type": "function",
      "constant": true
    },
    {
      "inputs": [
        {
          "internalType": "uint256",
          "name": "currentTeamId",
          "type": "uint256"
        },
        {
          "internalType": "uint8",
          "name": "currentShirtNum",
          "type": "uint8"
        },
        {
          "internalType": "uint256",
          "name": "prevPlayerTeamId",
          "type": "uint256"
        },
        {
          "internalType": "uint256",
          "name": "lastSaleBlock",
          "type": "uint256"
        }
      ],
      "name": "encodePlayerState",
      "outputs": [
        {
          "internalType": "uint256",
          "name": "",
          "type": "uint256"
        }
      ],
      "stateMutability": "pure",
      "type": "function",
      "constant": true
    },
    {
      "inputs": [
        {
          "internalType": "uint8",
          "name": "timeZone",
          "type": "uint8"
        },
        {
          "internalType": "uint256",
          "name": "countryIdxInTZ",
          "type": "uint256"
        },
        {
          "internalType": "uint256",
          "name": "val",
          "type": "uint256"
        }
      ],
      "name": "encodeTZCountryAndVal",
      "outputs": [
        {
          "internalType": "uint256",
          "name": "",
          "type": "uint256"
        }
      ],
      "stateMutability": "pure",
      "type": "function",
      "constant": true
    },
    {
      "inputs": [],
      "name": "gameDeployDay",
      "outputs": [
        {
          "internalType": "uint256",
          "name": "",
          "type": "uint256"
        }
      ],
      "stateMutability": "view",
      "type": "function",
      "constant": true
    },
    {
      "inputs": [
        {
          "internalType": "uint256",
          "name": "encodedSkills",
          "type": "uint256"
        }
      ],
      "name": "getAggressiveness",
      "outputs": [
        {
          "internalType": "uint256",
          "name": "",
          "type": "uint256"
        }
      ],
      "stateMutability": "pure",
      "type": "function",
      "constant": true
    },
    {
      "inputs": [
        {
          "internalType": "uint256",
          "name": "encodedSkills",
          "type": "uint256"
        }
      ],
      "name": "getAlignedEndOfFirstHalf",
      "outputs": [
        {
          "internalType": "bool",
          "name": "",
          "type": "bool"
        }
      ],
      "stateMutability": "pure",
      "type": "function",
      "constant": true
    },
    {
      "inputs": [
        {
          "internalType": "uint256",
          "name": "encodedSkills",
          "type": "uint256"
        }
      ],
      "name": "getBirthDay",
      "outputs": [
        {
          "internalType": "uint256",
          "name": "",
          "type": "uint256"
        }
      ],
      "stateMutability": "pure",
      "type": "function",
      "constant": true
    },
    {
      "inputs": [
        {
          "internalType": "uint8",
          "name": "tz",
          "type": "uint8"
        }
      ],
      "name": "getCurrentRound",
      "outputs": [
        {
          "internalType": "uint256",
          "name": "",
          "type": "uint256"
        }
      ],
      "stateMutability": "view",
      "type": "function",
      "constant": true
    },
    {
      "inputs": [
        {
          "internalType": "uint8",
          "name": "tz",
          "type": "uint8"
        },
        {
          "internalType": "uint8",
          "name": "tz1",
          "type": "uint8"
        },
        {
          "internalType": "uint256",
          "name": "verse",
          "type": "uint256"
        }
      ],
      "name": "getCurrentRoundPure",
      "outputs": [
        {
          "internalType": "uint256",
          "name": "",
          "type": "uint256"
        }
      ],
      "stateMutability": "pure",
      "type": "function",
      "constant": true
    },
    {
      "inputs": [
        {
          "internalType": "uint256",
          "name": "playerState",
          "type": "uint256"
        }
      ],
      "name": "getCurrentShirtNum",
      "outputs": [
        {
          "internalType": "uint256",
          "name": "",
          "type": "uint256"
        }
      ],
      "stateMutability": "pure",
      "type": "function",
      "constant": true
    },
    {
      "inputs": [
        {
          "internalType": "uint256",
          "name": "playerState",
          "type": "uint256"
        }
      ],
      "name": "getCurrentTeamIdFromPlayerState",
      "outputs": [
        {
          "internalType": "uint256",
          "name": "",
          "type": "uint256"
        }
      ],
      "stateMutability": "pure",
      "type": "function",
      "constant": true
    },
    {
      "inputs": [
        {
          "internalType": "uint256",
          "name": "encodedSkills",
          "type": "uint256"
        }
      ],
      "name": "getForwardness",
      "outputs": [
        {
          "internalType": "uint256",
          "name": "",
          "type": "uint256"
        }
      ],
      "stateMutability": "pure",
      "type": "function",
      "constant": true
    },
    {
      "inputs": [
        {
          "internalType": "uint256",
          "name": "encodedSkills",
          "type": "uint256"
        }
      ],
      "name": "getGamesNonStopping",
      "outputs": [
        {
          "internalType": "uint8",
          "name": "",
          "type": "uint8"
        }
      ],
      "stateMutability": "pure",
      "type": "function",
      "constant": true
    },
    {
      "inputs": [
        {
          "internalType": "uint256",
          "name": "encodedSkills",
          "type": "uint256"
        }
      ],
      "name": "getGeneration",
      "outputs": [
        {
          "internalType": "uint256",
          "name": "",
          "type": "uint256"
        }
      ],
      "stateMutability": "pure",
      "type": "function",
      "constant": true
    },
    {
      "inputs": [
        {
          "internalType": "uint256",
          "name": "encodedSkills",
          "type": "uint256"
        }
      ],
      "name": "getInjuryWeeksLeft",
      "outputs": [
        {
          "internalType": "uint8",
          "name": "",
          "type": "uint8"
        }
      ],
      "stateMutability": "pure",
      "type": "function",
      "constant": true
    },
    {
      "inputs": [
        {
          "internalType": "uint256",
          "name": "encodedSkills",
          "type": "uint256"
        }
      ],
      "name": "getInternalPlayerId",
      "outputs": [
        {
          "internalType": "uint256",
          "name": "",
          "type": "uint256"
        }
      ],
      "stateMutability": "pure",
      "type": "function",
      "constant": true
    },
    {
      "inputs": [
        {
          "internalType": "uint256",
          "name": "state",
          "type": "uint256"
        }
      ],
      "name": "getIsInTransitFromState",
      "outputs": [
        {
          "internalType": "bool",
          "name": "",
          "type": "bool"
        }
      ],
      "stateMutability": "pure",
      "type": "function",
      "constant": true
    },
    {
      "inputs": [
        {
          "internalType": "uint256",
          "name": "encodedSkills",
          "type": "uint256"
        }
      ],
      "name": "getIsSpecial",
      "outputs": [
        {
          "internalType": "bool",
          "name": "",
          "type": "bool"
        }
      ],
      "stateMutability": "pure",
      "type": "function",
      "constant": true
    },
    {
      "inputs": [
        {
          "internalType": "uint256",
          "name": "playerState",
          "type": "uint256"
        }
      ],
      "name": "getLastSaleBlock",
      "outputs": [
        {
          "internalType": "uint256",
          "name": "",
          "type": "uint256"
        }
      ],
      "stateMutability": "pure",
      "type": "function",
      "constant": true
    },
    {
      "inputs": [
        {
          "internalType": "uint256",
          "name": "encodedSkills",
          "type": "uint256"
        }
      ],
      "name": "getLeftishness",
      "outputs": [
        {
          "internalType": "uint256",
          "name": "",
          "type": "uint256"
        }
      ],
      "stateMutability": "pure",
      "type": "function",
      "constant": true
    },
    {
      "inputs": [
        {
          "internalType": "uint8",
          "name": "timeZone",
          "type": "uint8"
        },
        {
          "internalType": "uint256",
          "name": "countryIdxInTZ",
          "type": "uint256"
        }
      ],
      "name": "getNDivisionsInCountry",
      "outputs": [
        {
          "internalType": "uint256",
          "name": "",
          "type": "uint256"
        }
      ],
      "stateMutability": "view",
      "type": "function",
      "constant": true
    },
    {
      "inputs": [
        {
          "internalType": "uint8",
          "name": "timeZone",
          "type": "uint8"
        },
        {
          "internalType": "uint256",
          "name": "countryIdxInTZ",
          "type": "uint256"
        }
      ],
      "name": "getNHumansInCountry",
      "outputs": [
        {
          "internalType": "uint256",
          "name": "",
          "type": "uint256"
        }
      ],
      "stateMutability": "view",
      "type": "function",
      "constant": true
    },
    {
      "inputs": [
        {
          "internalType": "uint8",
          "name": "timeZone",
          "type": "uint8"
        },
        {
          "internalType": "uint256",
          "name": "countryIdxInTZ",
          "type": "uint256"
        }
      ],
      "name": "getNLeaguesInCountry",
      "outputs": [
        {
          "internalType": "uint256",
          "name": "",
          "type": "uint256"
        }
      ],
      "stateMutability": "view",
      "type": "function",
      "constant": true
    },
    {
      "inputs": [
        {
          "internalType": "uint8",
          "name": "timeZone",
          "type": "uint8"
        },
        {
          "internalType": "uint256",
          "name": "countryIdxInTZ",
          "type": "uint256"
        }
      ],
      "name": "getNTeamsInCountry",
      "outputs": [
        {
          "internalType": "uint256",
          "name": "",
          "type": "uint256"
        }
      ],
      "stateMutability": "view",
      "type": "function",
      "constant": true
    },
    {
      "inputs": [
        {
          "internalType": "uint256",
          "name": "encodedSkills",
          "type": "uint256"
        }
      ],
      "name": "getOutOfGameFirstHalf",
      "outputs": [
        {
          "internalType": "bool",
          "name": "",
          "type": "bool"
        }
      ],
      "stateMutability": "pure",
      "type": "function",
      "constant": true
    },
    {
      "inputs": [
        {
          "internalType": "uint8",
          "name": "timeZone",
          "type": "uint8"
        },
        {
          "internalType": "uint256",
          "name": "countryIdxInTZ",
          "type": "uint256"
        },
        {
          "internalType": "uint256",
          "name": "teamIdxInCountry",
          "type": "uint256"
        }
      ],
      "name": "getOwnerTeamInCountry",
      "outputs": [
        {
          "internalType": "address",
          "name": "",
          "type": "address"
        }
      ],
      "stateMutability": "view",
      "type": "function",
      "constant": true
    },
    {
      "inputs": [
        {
          "internalType": "uint256",
          "name": "playerId",
          "type": "uint256"
        }
      ],
      "name": "getPlayerAgeInDays",
      "outputs": [
        {
          "internalType": "uint256",
          "name": "",
          "type": "uint256"
        }
      ],
      "stateMutability": "view",
      "type": "function",
      "constant": true
    },
    {
      "inputs": [
        {
          "internalType": "uint256",
          "name": "encodedSkills",
          "type": "uint256"
        }
      ],
      "name": "getPlayerIdFromSkills",
      "outputs": [
        {
          "internalType": "uint256",
          "name": "",
          "type": "uint256"
        }
      ],
      "stateMutability": "pure",
      "type": "function",
      "constant": true
    },
    {
      "inputs": [
        {
          "internalType": "uint256",
          "name": "playerId",
          "type": "uint256"
        }
      ],
      "name": "getPlayerSkillsAtBirth",
      "outputs": [
        {
          "internalType": "uint256",
          "name": "",
          "type": "uint256"
        }
      ],
      "stateMutability": "view",
      "type": "function",
      "constant": true
    },
    {
      "inputs": [
        {
          "internalType": "uint256",
          "name": "encodedSkills",
          "type": "uint256"
        }
      ],
      "name": "getPotential",
      "outputs": [
        {
          "internalType": "uint256",
          "name": "",
          "type": "uint256"
        }
      ],
      "stateMutability": "pure",
      "type": "function",
      "constant": true
    },
    {
      "inputs": [
        {
          "internalType": "uint256",
          "name": "playerState",
          "type": "uint256"
        }
      ],
      "name": "getPrevPlayerTeamId",
      "outputs": [
        {
          "internalType": "uint256",
          "name": "",
          "type": "uint256"
        }
      ],
      "stateMutability": "pure",
      "type": "function",
      "constant": true
    },
    {
      "inputs": [
        {
          "internalType": "uint256",
          "name": "encodedSkills",
          "type": "uint256"
        }
      ],
      "name": "getRedCardLastGame",
      "outputs": [
        {
          "internalType": "bool",
          "name": "",
          "type": "bool"
        }
      ],
      "stateMutability": "pure",
      "type": "function",
      "constant": true
    },
    {
      "inputs": [
        {
          "internalType": "uint256",
          "name": "encodedSkills",
          "type": "uint256"
        },
        {
          "internalType": "uint8",
          "name": "skillIdx",
          "type": "uint8"
        }
      ],
      "name": "getSkill",
      "outputs": [
        {
          "internalType": "uint256",
          "name": "",
          "type": "uint256"
        }
      ],
      "stateMutability": "pure",
      "type": "function",
      "constant": true
    },
    {
      "inputs": [
        {
          "internalType": "uint256",
          "name": "encodedSkills",
          "type": "uint256"
        }
      ],
      "name": "getSubstitutedFirstHalf",
      "outputs": [
        {
          "internalType": "bool",
          "name": "",
          "type": "bool"
        }
      ],
      "stateMutability": "pure",
      "type": "function",
      "constant": true
    },
    {
      "inputs": [
        {
          "internalType": "uint256",
          "name": "encodedSkills",
          "type": "uint256"
        }
      ],
      "name": "getSumOfSkills",
      "outputs": [
        {
          "internalType": "uint256",
          "name": "",
          "type": "uint256"
        }
      ],
      "stateMutability": "pure",
      "type": "function",
      "constant": true
    },
    {
      "inputs": [
        {
          "internalType": "uint256",
          "name": "playerId",
          "type": "uint256"
        }
      ],
      "name": "getTeamIdCreationDayAndShirtNum",
      "outputs": [
        {
          "internalType": "uint256",
          "name": "teamId",
          "type": "uint256"
        },
        {
          "internalType": "uint256",
          "name": "creationDay",
          "type": "uint256"
        },
        {
          "internalType": "uint8",
          "name": "shirtNum",
          "type": "uint8"
        }
      ],
      "stateMutability": "view",
      "type": "function",
      "constant": true
    },
    {
      "inputs": [
        {
          "internalType": "uint256",
          "name": "encodedSkills",
          "type": "uint256"
        }
      ],
      "name": "getYellowCardFirstHalf",
      "outputs": [
        {
          "internalType": "bool",
          "name": "",
          "type": "bool"
        }
      ],
      "stateMutability": "pure",
      "type": "function",
      "constant": true
    },
    {
      "inputs": [
        {
          "internalType": "uint256",
          "name": "teamId",
          "type": "uint256"
        }
      ],
      "name": "isBotTeam",
      "outputs": [
        {
          "internalType": "bool",
          "name": "",
          "type": "bool"
        }
      ],
      "stateMutability": "view",
      "type": "function",
      "constant": true
    },
    {
      "inputs": [
        {
          "internalType": "uint8",
          "name": "timeZone",
          "type": "uint8"
        },
        {
          "internalType": "uint256",
          "name": "countryIdxInTZ",
          "type": "uint256"
        },
        {
          "internalType": "uint256",
          "name": "teamIdxInCountry",
          "type": "uint256"
        }
      ],
      "name": "isBotTeamInCountry",
      "outputs": [
        {
          "internalType": "bool",
          "name": "",
          "type": "bool"
        }
      ],
      "stateMutability": "view",
      "type": "function",
      "constant": true
    },
    {
      "inputs": [],
      "name": "market",
      "outputs": [
        {
          "internalType": "address",
          "name": "",
          "type": "address"
        }
      ],
      "stateMutability": "view",
      "type": "function",
      "constant": true
    },
    {
      "inputs": [],
      "name": "nextTimeZoneToUpdate",
      "outputs": [
        {
          "internalType": "uint8",
          "name": "tz",
          "type": "uint8"
        },
        {
          "internalType": "uint8",
          "name": "day",
          "type": "uint8"
        },
        {
          "internalType": "uint8",
          "name": "turnInDay",
          "type": "uint8"
        }
      ],
      "stateMutability": "view",
      "type": "function",
      "constant": true
    },
    {
      "inputs": [
        {
          "internalType": "uint256",
          "name": "tz",
          "type": "uint256"
        }
      ],
      "name": "normalizeTZ",
      "outputs": [
        {
          "internalType": "uint8",
          "name": "",
          "type": "uint8"
        }
      ],
      "stateMutability": "pure",
      "type": "function",
      "constant": true
    },
    {
      "inputs": [],
      "name": "prevTimeZoneToUpdate",
      "outputs": [
        {
          "internalType": "uint8",
          "name": "tz",
          "type": "uint8"
        },
        {
          "internalType": "uint8",
          "name": "day",
          "type": "uint8"
        },
        {
          "internalType": "uint8",
          "name": "turnInDay",
          "type": "uint8"
        }
      ],
      "stateMutability": "view",
      "type": "function",
      "constant": true
    },
    {
      "inputs": [],
      "name": "relay",
      "outputs": [
        {
          "internalType": "address",
          "name": "",
          "type": "address"
        }
      ],
      "stateMutability": "view",
      "type": "function",
      "constant": true
    },
    {
      "inputs": [
        {
          "internalType": "uint256",
          "name": "secs",
          "type": "uint256"
        }
      ],
      "name": "secsToDays",
      "outputs": [
        {
          "internalType": "uint256",
          "name": "",
          "type": "uint256"
        }
      ],
      "stateMutability": "pure",
      "type": "function",
      "constant": true
    },
    {
      "inputs": [
        {
          "internalType": "uint256",
          "name": "state",
          "type": "uint256"
        },
        {
          "internalType": "uint8",
          "name": "currentShirtNum",
          "type": "uint8"
        }
      ],
      "name": "setCurrentShirtNum",
      "outputs": [
        {
          "internalType": "uint256",
          "name": "",
          "type": "uint256"
        }
      ],
      "stateMutability": "pure",
      "type": "function",
      "constant": true
    },
    {
      "inputs": [
        {
          "internalType": "uint256",
          "name": "playerState",
          "type": "uint256"
        },
        {
          "internalType": "uint256",
          "name": "teamId",
          "type": "uint256"
        }
      ],
      "name": "setCurrentTeamId",
      "outputs": [
        {
          "internalType": "uint256",
          "name": "",
          "type": "uint256"
        }
      ],
      "stateMutability": "pure",
      "type": "function",
      "constant": true
    },
    {
      "inputs": [
        {
          "internalType": "uint256",
          "name": "state",
          "type": "uint256"
        },
        {
          "internalType": "uint256",
          "name": "lastSaleBlock",
          "type": "uint256"
        }
      ],
      "name": "setLastSaleBlock",
      "outputs": [
        {
          "internalType": "uint256",
          "name": "",
          "type": "uint256"
        }
      ],
      "stateMutability": "pure",
      "type": "function",
      "constant": true
    },
    {
      "inputs": [
        {
          "internalType": "uint256",
          "name": "state",
          "type": "uint256"
        },
        {
          "internalType": "uint256",
          "name": "value",
          "type": "uint256"
        }
      ],
      "name": "setPrevPlayerTeamId",
      "outputs": [
        {
          "internalType": "uint256",
          "name": "",
          "type": "uint256"
        }
      ],
      "stateMutability": "pure",
      "type": "function",
      "constant": true
    },
    {
      "inputs": [
        {
          "internalType": "uint8",
          "name": "timeZone",
          "type": "uint8"
        },
        {
          "internalType": "uint256",
          "name": "countryIdxInTZ",
          "type": "uint256"
        },
        {
          "internalType": "uint256",
          "name": "teamIdxInCountry",
          "type": "uint256"
        }
      ],
      "name": "teamExistsInCountry",
      "outputs": [
        {
          "internalType": "bool",
          "name": "",
          "type": "bool"
        }
      ],
      "stateMutability": "view",
      "type": "function",
      "constant": true
    },
    {
      "inputs": [
        {
          "internalType": "uint256",
          "name": "verse",
          "type": "uint256"
        },
        {
          "internalType": "uint8",
          "name": "TZForRound1",
          "type": "uint8"
        }
      ],
      "name": "timeZoneToUpdatePure",
      "outputs": [
        {
          "internalType": "uint8",
          "name": "timezone",
          "type": "uint8"
        },
        {
          "internalType": "uint8",
          "name": "day",
          "type": "uint8"
        },
        {
          "internalType": "uint8",
          "name": "turnInDay",
          "type": "uint8"
        }
      ],
      "stateMutability": "pure",
      "type": "function",
      "constant": true
    },
    {
      "inputs": [
        {
          "internalType": "uint8",
          "name": "timeZone",
          "type": "uint8"
        }
      ],
      "name": "tzExists",
      "outputs": [
        {
          "internalType": "bool",
          "name": "",
          "type": "bool"
        }
      ],
      "stateMutability": "pure",
      "type": "function",
      "constant": true
    },
    {
      "inputs": [
        {
          "internalType": "uint8",
          "name": "timeZone",
          "type": "uint8"
        },
        {
          "internalType": "uint256",
          "name": "countryIdxInTZ",
          "type": "uint256"
        },
        {
          "internalType": "uint256",
          "name": "playerIdxInCountry",
          "type": "uint256"
        }
      ],
      "name": "wasPlayerCreatedInCountry",
      "outputs": [
        {
          "internalType": "bool",
          "name": "",
          "type": "bool"
        }
      ],
      "stateMutability": "view",
      "type": "function",
      "constant": true
    },
    {
      "inputs": [
        {
          "internalType": "uint256",
          "name": "playerId",
          "type": "uint256"
        }
      ],
      "name": "wasPlayerCreatedVirtually",
      "outputs": [
        {
          "internalType": "bool",
          "name": "",
          "type": "bool"
        }
      ],
      "stateMutability": "view",
      "type": "function",
      "constant": true
    },
    {
      "inputs": [
        {
          "internalType": "uint256",
          "name": "teamId",
          "type": "uint256"
        }
      ],
      "name": "wasTeamCreatedVirtually",
      "outputs": [
        {
          "internalType": "bool",
          "name": "",
          "type": "bool"
        }
      ],
      "stateMutability": "view",
      "type": "function",
      "constant": true
    },
    {
      "inputs": [
        {
          "internalType": "address",
          "name": "addr",
          "type": "address"
        }
      ],
      "name": "setCOO",
      "outputs": [],
      "stateMutability": "nonpayable",
      "type": "function"
    },
    {
      "inputs": [
        {
          "internalType": "address",
          "name": "addr",
          "type": "address"
        }
      ],
      "name": "setMarket",
      "outputs": [],
      "stateMutability": "nonpayable",
      "type": "function"
    },
    {
      "inputs": [
        {
          "internalType": "address",
          "name": "addr",
          "type": "address"
        }
      ],
      "name": "setRelay",
      "outputs": [],
      "stateMutability": "nonpayable",
      "type": "function"
    },
    {
      "inputs": [
        {
          "internalType": "uint256",
          "name": "deployTimeInUnixEpochSecs",
          "type": "uint256"
        }
      ],
      "name": "initTZs",
      "outputs": [],
      "stateMutability": "nonpayable",
      "type": "function"
    },
    {
      "inputs": [
        {
          "internalType": "uint8",
          "name": "tz",
          "type": "uint8"
        },
        {
          "internalType": "uint256",
          "name": "deployTimeInUnixEpochSecs",
          "type": "uint256"
        }
      ],
      "name": "initSingleTZ",
      "outputs": [],
      "stateMutability": "nonpayable",
      "type": "function"
    },
    {
      "inputs": [
        {
          "internalType": "uint8",
          "name": "tz",
          "type": "uint8"
        },
        {
          "internalType": "uint256",
          "name": "countryIdxInTZ",
          "type": "uint256"
        }
      ],
      "name": "addDivisionManually",
      "outputs": [],
      "stateMutability": "nonpayable",
      "type": "function"
    },
    {
      "inputs": [
        {
          "internalType": "uint8",
          "name": "tz",
          "type": "uint8"
        }
      ],
      "name": "addCountryManually",
      "outputs": [],
      "stateMutability": "nonpayable",
      "type": "function"
    },
    {
      "inputs": [
        {
          "internalType": "uint8",
          "name": "tz",
          "type": "uint8"
        },
        {
          "internalType": "uint256",
          "name": "countryIdxInTZ",
          "type": "uint256"
        },
        {
          "internalType": "address",
          "name": "addr",
          "type": "address"
        }
      ],
      "name": "transferFirstBotToAddr",
      "outputs": [],
      "stateMutability": "nonpayable",
      "type": "function"
    },
    {
      "inputs": [
        {
          "internalType": "uint8[]",
          "name": "tz",
          "type": "uint8[]"
        },
        {
          "internalType": "uint256[]",
          "name": "countryIdxInTZ",
          "type": "uint256[]"
        },
        {
          "internalType": "address[]",
          "name": "addr",
          "type": "address[]"
        }
      ],
      "name": "transferFirstBotsToAddresses",
      "outputs": [],
      "stateMutability": "nonpayable",
      "type": "function"
    }
  ],
  "bytecode": "0x608060405234801561001057600080fd5b50612cb8806100206000396000f3fe608060405234801561001057600080fd5b506004361061043d5760003560e01c806380c794ce11610236578063cc7d473b1161013b578063e1b27e6b116100c3578063f2c3576411610087578063f2c3576414610f82578063f2dc657f14610f9f578063f9d0723d14610fbc578063fba1eaed14610fe2578063fcf9b3be146110085761043d565b8063e1b27e6b14610e0f578063e37528bb14610e17578063e3a21a2014610e34578063e804e51914610f48578063eb78b7b714610f655761043d565b8063d1b3d8fd1161010a578063d1b3d8fd14610d90578063d2f7967d14610dad578063d403fabd14610dca578063d8f73c3c14610dea578063dcadab5c14610df25761043d565b8063cc7d473b14610d28578063ce506ec514610d45578063cebc43a614610d6b578063d02254a514610d735761043d565b8063bbb11780116101be578063c395d7a81161018d578063c395d7a814610ca0578063c566b5bc14610ca8578063c57283fa14610cc5578063c73f808d14610ce5578063c805f68b14610d025761043d565b8063bbb1178014610c0a578063c04f6d5314610c3a578063c2bc41cd14610c60578063c37b1c2514610c7d5761043d565b80638a89148c116102055780638a89148c14610b9d5780638cc9a8d514610ba5578063a21ef9fa14610bc2578063af76cd0114610bdf578063b59589d114610c025761043d565b806380c794ce14610b0557806380f5560514610b255780638608ff4314610b2d5780638828a76114610b5f5761043d565b80633c2eb36011610347578063595ef25b116102cf57806376c2d9601161029357806376c2d96014610a405780637933e88314610a6c57806379e7659714610a895780637ffa3a2e14610abc57806380bac70914610ad95761043d565b8063595ef25b146109695780635adb40f5146109b15780636a6cb69f146109d75780636dcea85f146109fd5780636f6c2ae014610a235761043d565b806347524b601161031657806347524b60146108bb5780634bea2a69146108ec5780634db989fd1461090957806356e3df971461092f5780635940a77f1461094c5761043d565b80633c2eb360146107d2578063434807ad1461080757806343af15ee14610824578063471d6e80146108705761043d565b806329d0dcfb116103ca5780633260840b116103995780633260840b1461072e578063332b8ea31461076d5780633518dd1d1461077557806337a86302146107925780633be83c0a146107b55761043d565b806329d0dcfb146105f55780632ba73c151461061b5780632c161208146106415780632ead0553146106675761043d565b80631060c9c2116104115780631060c9c2146104cd578063111cfab3146104ea578063127f05e0146105075780631fc7768f146105ac57806320748ae8146105c95761043d565b80620edf9b14610442578063022da63a1461047157806309fcf8a61461048e5780630abcd3e5146104ad575b600080fd5b61045f6004803603602081101561045857600080fd5b5035611034565b60408051918252519081900360200190f35b61045f6004803603602081101561048757600080fd5b5035611040565b6104ab600480360360208110156104a457600080fd5b503561104b565b005b61045f600480360360208110156104c357600080fd5b503560ff1661116b565b61045f600480360360208110156104e357600080fd5b5035611181565b61045f6004803603602081101561050057600080fd5b503561118c565b6105356004803603606081101561051d57600080fd5b5080359060ff6020820135811691604001351661119f565b604051808460a080838360005b8381101561055a578181015183820152602001610542565b5050505090500183600460200280838360005b8381101561058557818101518382015260200161056d565b505050509050018263ffffffff1663ffffffff168152602001935050505060405180910390f35b61045f600480360360208110156105c257600080fd5b503561144e565b61045f600480360360608110156105df57600080fd5b5060ff8135169060208101359060400135611457565b61045f6004803603604081101561060b57600080fd5b508035906020013560ff16611575565b6104ab6004803603602081101561063157600080fd5b50356001600160a01b031661158b565b6104ab6004803603604081101561065757600080fd5b5060ff813516906020013561160d565b61045f600480360361024081101561067e57600080fd5b810190808060a001906005806020026040519081016040528092919082600560200280828437600092019190915250506040805160808181018352939685359660ff6020880135169693840135959194509260e081019291606090910190600490839083908082843760009201919091525091945050508035151591506020810135151590604081013560ff90811691606081013590911690608081013515159060a0013563ffffffff166116c6565b61074b6004803603602081101561074457600080fd5b5035611aa3565b6040805160ff9094168452602084019290925282820152519081900360600190f35b61045f611abf565b61045f6004803603602081101561078b57600080fd5b5035611ac6565b61045f600480360360408110156107a857600080fd5b5080359060200135611acf565b61045f600480360360208110156107cb57600080fd5b5035611b46565b6104ab600480360360608110156107e857600080fd5b50803560ff1690602081013590604001356001600160a01b0316611b4f565b61045f6004803603602081101561081d57600080fd5b5035611dd8565b6108506004803603606081101561083a57600080fd5b508035906020810135906040013560ff16611de1565b6040805161ffff909316835260ff90911660208301528051918290030190f35b6108966004803603604081101561088657600080fd5b508035906020013560ff16611eae565b6040805160ff9485168152928416602084015292168183015290519081900360600190f35b6108d8600480360360208110156108d157600080fd5b5035611f78565b604080519115158252519081900360200190f35b61045f6004803603602081101561090257600080fd5b5035611f84565b61045f6004803603604081101561091f57600080fd5b508035906020013560ff16611f92565b61045f6004803603602081101561094557600080fd5b503561200d565b61045f6004803603602081101561096257600080fd5b5035612016565b6109956004803603606081101561097f57600080fd5b5060ff813516906020810135906040013561203e565b604080516001600160a01b039092168252519081900360200190f35b61045f600480360360408110156109c757600080fd5b5060ff813516906020013561209b565b61045f600480360360408110156109ed57600080fd5b5060ff81351690602001356120ee565b6104ab60048036036020811015610a1357600080fd5b50356001600160a01b0316612101565b61045f60048036036020811015610a3957600080fd5b5035612239565b6108d860048036036060811015610a5657600080fd5b5060ff813516906020810135906040013561225a565b6108d860048036036020811015610a8257600080fd5b5035612270565b610aa660048036036020811015610a9f57600080fd5b5035612284565b6040805160ff9092168252519081900360200190f35b6108d860048036036020811015610ad257600080fd5b503561228d565b6108d860048036036060811015610aef57600080fd5b5060ff8135169060208101359060400135612299565b61045f60048036036020811015610b1b57600080fd5b503560ff166122b9565b6109956122d3565b61045f60048036036080811015610b4357600080fd5b5080359060ff60208201351690604081013590606001356122e3565b610b7c60048036036020811015610b7557600080fd5b503561231f565b60408051938452602084019290925260ff1682820152519081900360600190f35b61089661238a565b6108d860048036036020811015610bbb57600080fd5b50356123b1565b6108d860048036036020811015610bd857600080fd5b50356123e2565b61045f60048036036040811015610bf557600080fd5b508035906020013561240b565b61099561247d565b61045f60048036036060811015610c2057600080fd5b5060ff81358116916020810135909116906040013561248d565b61045f60048036036040811015610c5057600080fd5b5060ff81351690602001356124ef565b61045f60048036036020811015610c7657600080fd5b5035612505565b61045f60048036036040811015610c9357600080fd5b508035906020013561250e565b61089661257c565b61045f60048036036020811015610cbe57600080fd5b50356125b4565b6104ab60048036036020811015610cdb57600080fd5b503560ff166125c1565b61045f60048036036020811015610cfb57600080fd5b5035612624565b6104ab60048036036020811015610d1857600080fd5b50356001600160a01b03166126c2565b6108d860048036036020811015610d3e57600080fd5b5035612744565b6108d860048036036040811015610d5b57600080fd5b5060ff8135169060200135612750565b61099561276a565b6108d860048036036020811015610d8957600080fd5b503561277a565b6108d860048036036020811015610da657600080fd5b503561279a565b61045f60048036036020811015610dc357600080fd5b50356127a6565b6108d860048036036020811015610de057600080fd5b503560ff166127b4565b6109956127cf565b610aa660048036036020811015610e0857600080fd5b50356127df565b6109956127f2565b6108d860048036036020811015610e2d57600080fd5b5035612802565b6104ab60048036036060811015610e4a57600080fd5b810190602081018135640100000000811115610e6557600080fd5b820183602082011115610e7757600080fd5b80359060200191846020830284011164010000000083111715610e9957600080fd5b919390929091602081019035640100000000811115610eb757600080fd5b820183602082011115610ec957600080fd5b80359060200191846020830284011164010000000083111715610eeb57600080fd5b919390929091602081019035640100000000811115610f0957600080fd5b820183602082011115610f1b57600080fd5b80359060200191846020830284011164010000000083111715610f3d57600080fd5b50909250905061280e565b610aa660048036036020811015610f5e57600080fd5b50356128d7565b61045f60048036036020811015610f7b57600080fd5b50356128e0565b6108d860048036036020811015610f9857600080fd5b50356128e9565b61045f60048036036020811015610fb557600080fd5b50356128f5565b61045f60048036036040811015610fd257600080fd5b5060ff81351690602001356128ff565b6104ab60048036036040811015610ff857600080fd5b5060ff813516906020013561290d565b6108d86004803603606081101561101e57600080fd5b5060ff8135169060208101359060400135612a15565b6201518081025b919050565b6507ffffffffff1690565b611006546001600160a01b031633146110a5576040805162461bcd60e51b815260206004820152601760248201527627b7363c9021a7a79034b99030baba3437b934bd32b21760491b604482015290519081900360640190fd5b61100954156110f5576040805162461bcd60e51b815260206004820152601760248201527663616e6e6f7420696e697469616c697a6520747769636560481b604482015290519081900360640190fd5b6110fe81611b46565b6110095560015b60198160ff1610156111225761111a81612a2e565b600101611105565b50611005546001600160a01b0316611168576040805133815290517fd897a53ea824a5415477b26429b871a884f46b6e8bf65a9978d9ac85c7eb871d9181900360200190a15b50565b60ff166000908152611017602052604090205490565b60b51c6207ffff1690565b6000908152611014602052604090205490565b6111a7612bba565b6111af612bd8565b60006111b9612bba565b6111c1612bba565b6040805160208082018b905260ff8a1682840181905283518084038501815260609093019093528151910120600281811c926000928392600390911691101561121b57600e855260066040860152600092508291506112e3565b60078b60ff161015611245576004855260106060860152600192506007845b0660010191506112e3565b600a8b60ff16101561126457601060408601526002925060078461123a565b600c8b60ff16101561128657600d60408601526007808652600493508461123a565b600e8b60ff1610156112ac57600d6040860152600760608601819052600593508461123a565b60108b60ff1610156112d057601085526005606086015260039250600691506112e3565b6010855260056060860152600392508291505b60039390931c926000805b600560ff821610156113af57868160ff166005811061130957fe5b602002015161133f57610320860661ffff16888260ff166005811061132a57fe5b63ffffffff9092166020929092020152611387565b600a878260ff166005811061135057fe5b60200201516103208806028161136257fe5b0461ffff16888260ff166005811061137657fe5b63ffffffff90921660209290920201525b878160ff166005811061139657fe5b6020020151600a9690961c9591909101906001016112ee565b50600561138882900363ffffffff160460005b600560ff8216101561140b5781898260ff16600581106113de57fe5b602002015101898260ff16600581106113f357fe5b63ffffffff90921660209290920201526001016113c2565b506040805160808101825260ff9d8e168152958d166020870152938c169385019390935299166060830152939a9099506005909302909601965090945050505050565b607e1c60071690565b600060208460ff16106114a9576040805162461bcd60e51b81526020600482015260156024820152741d1a5b595e9bdb99481bdd5d081bd988189bdd5b99605a1b604482015290519081900360640190fd5b61040083106114ff576040805162461bcd60e51b815260206004820152601b60248201527f636f756e747279496478496e545a206f7574206f6620626f756e640000000000604482015290519081900360640190fd5b63100000008210611557576040805162461bcd60e51b815260206004820152601a60248201527f76616c20746f20656e636f6465206f7574206f6620626f756e64000000000000604482015290519081900360640190fd5b50601c82901b653fc000000000602685901b161781175b9392505050565b620fffff601460ff83160283901c165b92915050565b6003546001600160a01b031633146115ea576040805162461bcd60e51b815260206004820152601d60248201527f4f6e6c792073757065727573657220697320617574686f72697a65642e000000604482015290519081900360640190fd5b61100680546001600160a01b0319166001600160a01b0392909216919091179055565b611006546001600160a01b03163314611667576040805162461bcd60e51b815260206004820152601760248201527627b7363c9021a7a79034b99030baba3437b934bd32b21760491b604482015290519081900360640190fd5b6116718282612a4b565b6116c2576040805162461bcd60e51b815260206004820152601f60248201527f6d616e75616c206469766973696f6e206372656174696f6e206661696c656400604482015290519081900360640190fd5b5050565b8651600090600a60ff9091161061171d576040805162461bcd60e51b81526020600482015260166024820152751c1bdd195b9d1a585b081bdd5d081bd988189bdd5b9960521b604482015290519081900360640190fd5b6006886001602002015160ff161061177c576040805162461bcd60e51b815260206004820152601860248201527f666f72776172646e657373206f7574206f6620626f756e640000000000000000604482015290519081900360640190fd5b6008886002602002015160ff16106117db576040805162461bcd60e51b815260206004820152601860248201527f6c6566697473686e657373206f7574206f6620626f756e640000000000000000604482015290519081900360640190fd5b6008886003602002015160ff161061183a576040805162461bcd60e51b815260206004820152601b60248201527f616767726573736976656e657373206f7574206f6620626f756e640000000000604482015290519081900360640190fd5b604088015160ff1661188a57602088015160ff161561188a5760405162461bcd60e51b815260040180806020018281038252602b815260200180612bf7602b913960400191505060405180910390fd5b60088560ff16106118e2576040805162461bcd60e51b815260206004820152601d60248201527f67616d65734e6f6e53746f7070696e67206f7574206f6620626f756e64000000604482015290519081900360640190fd5b620100008b106119235760405162461bcd60e51b8152600401808060200182810382526021815260200180612c626021913960400191505060405180910390fd5b60008911801561193857506508000000000089105b611981576040805162461bcd60e51b81526020600482015260156024820152741c1b185e595c9259081bdd5d081bd988189bdd5b99605a1b604482015290519081900360640190fd5b60005b600561ffff821610156119c3578060140261ffff168d8261ffff16600581106119a957fe5b602002015163ffffffff16901b9190911790600101611984565b5060648b901b176074886000602002015160ff16901b176078886001602002015160ff16901b17607b886002602002015160ff16901b17607e886003602002015160ff16901b81179050608189901b8117905060ac87611a24576000611a27565b60015b60ff16901b1760ad86611a3b576000611a3e565b60015b60ff16901b8117905060ae8560ff16901b8117905060b18460ff16901b8117905060b483611a6d576000611a70565b60015b60ff16901b8117905060b58263ffffffff16901b8117905060cd8a60ff16901b811790509b9a5050505050505050505050565b602681901c601f1691601c82901c6103ff1691630fffffff1690565b6110095481565b607b1c60071690565b60006507ffffffffff821115611b2c576040805162461bcd60e51b815260206004820152601a60248201527f707265764c6561677565496478206f7574206f6620626f756e64000000000000604482015290519081900360640190fd5b5060301b6b07ffffffffff00000000000019919091161790565b62015180900490565b611007546001600160a01b03163314611baf576040805162461bcd60e51b815260206004820152601f60248201527f4f6e6c792052656c6179206f776e657220697320617574686f72697a65642e00604482015290519081900360640190fd5b60ff8316600090815261101760205260409020548210611c16576040805162461bcd60e51b815260206004820152601c60248201527f436f756e74727920646f6573206e6f7420657869737420696e20545a00000000604482015290519081900360640190fd5b6000611c2484846000611457565b60008181526110136020526040812054919250611c42868684611457565b9050611c4d816123b1565b611c9e576040805162461bcd60e51b815260206004820152601e60248201527f63616e6e6f74207472616e736665722061206e6f6e2d626f74207465616d0000604482015290519081900360640190fd5b6001600160a01b038416611ceb576040805162461bcd60e51b815260206004820152600f60248201526e696e76616c6964206164647265737360881b604482015290519081900360640190fd5b6000611cf7878761209b565b608002905060108103831115611d5657611d118787612a4b565b611d5657600181038310611d565760405162461bcd60e51b8152600401808060200182810382526040815260200180612c226040913960400191505060405180910390fd5b60008281526110166020908152604080832080546001600160a01b0319166001600160a01b038a1690811790915587845261101383529281902060018701905580518581529182019290925281517f77b66eb1e6d2bc131b79be4213ae7f08f29351c01060e10bcc0302278067bf38929181900390910190a150505050505050565b60741c600f1690565b604080516020808201869052600260ff8581169190910416828401528251808303840181526060909201909252805191012060009081906001841615611e2d5760088106600703611e32565b600881065b9150600260ff85160660010160ff1681901c905060078260ff16108015611e5b57506004810615155b15611e67576001820191505b600c81901c90611c8490066116d001600560ff8416118015611e8a5750612c3381115b15611e9d576102da820681019003612c33015b600e90049094039590945092505050565b60008080600385166024828060028410801590611eca57508289105b15611ee3575060009550859450849350611f7192505050565b6002841015611f205760046060858b0306048860ff16019150606060ff16848960ff1684036004028b030360020281611f1857fe5b049050611f59565b60046060848b0306048860ff16019150606060ff16838960ff1684036004028b030360020281611f4c57fe5b0460010190506002840393505b839450611f65826127df565b9650600e900694505050505b9250925092565b60cc1c60019081161490565b60301c6507ffffffffff1690565b6000601f8260ff161115611fed576040805162461bcd60e51b815260206004820152601c60248201527f63757272656e7453686972744e756d206f7574206f6620626f756e6400000000604482015290519081900360640190fd5b5065f800000000001991909116602b9190911b6607f80000000000161790565b60cd1c60ff1690565b600061158561203461202f61202a85612624565b6128f5565b611034565b4203600e02611b46565b6000612049846127b4565b158061205c575061205a8484612750565b155b156120695750600061156e565b6110166000612079868686611457565b81526020810191909152604001600020546001600160a01b0316949350505050565b60006120a6836127b4565b15806120b957506120b78383612750565b155b156120c657506000611585565b61101260006120d785856000611457565b815260200190815260200160002054905092915050565b600061101360006120d785856000611457565b6003546001600160a01b03163314612160576040805162461bcd60e51b815260206004820152601d60248201527f4f6e6c792073757065727573657220697320617574686f72697a65642e000000604482015290519081900360640190fd5b61100580546001600160a01b0383166001600160a01b0319918216811790925560016000526110166020527ffa7a96b4d6ac95044a0032db0542d73aff131935b42c5cad2a651430089c735980549091169091179055611009546121f2576040805133815290517fd897a53ea824a5415477b26429b871a884f46b6e8bf65a9978d9ac85c7eb871d9181900360200190a15b60408051600181526001600160a01b038316602082015281517f77b66eb1e6d2bc131b79be4213ae7f08f29351c01060e10bcc0302278067bf38929181900390910190a150565b600061224482611f78565b61225657612251826127a6565b611585565b5090565b600061226684846124ef565b9091109392505050565b6000601a61227d836128e0565b1492915050565b60b11c60071690565b60d61c60019081161490565b6000806122a785858561203e565b6001600160a01b031614949350505050565b61101e5461101f5460009161158591849160ff169061248d565b611005546001600160a01b031690565b6000806122f160008761250e565b90506122fd8186611f92565b90506123098185611acf565b9050612315818461240b565b9695505050505050565b60008060008060008061233187611aa3565b919450925090506012810460808104600061234d868684611457565b905061235a868685611457565b6000828152611014602052604090205461100954919a506007020197506012840696505050505050509193909250565b61101f5461101e54600091829182916123a59160ff16611eae565b9250925092505b909192565b600060018214156123c45750600061103b565b50600090815261101660205260409020546001600160a01b03161590565b6000806000806123f185611aa3565b92509250925061240283838361225a565b95945050505050565b60006407ffffffff821115612467576040805162461bcd60e51b815260206004820152601a60248201527f6c61737453616c65426c6f636b206f7574206f6620626f756e64000000000000604482015290519081900360640190fd5b50605b1b6407ffffffff605b1b19919091161790565b611007546001600160a01b031690565b60006102a08210156124a15750600061156e565b6102a08204600060ff80861690871610156124c1578486601801036124c5565b8486035b60ff169050600481026102a08302018410156124e7575060001901905061156e565b50905061156e565b600060086124fd84846128ff565b029392505050565b60781c60071690565b60006507ffffffffff82111561256b576040805162461bcd60e51b815260206004820152601b60248201527f63757272656e745465616d496478206f7574206f6620626f756e640000000000604482015290519081900360640190fd5b506507ffffffffff19919091161790565b600080600061101f546000141561259b575060009150819050806123ac565b61101f5461101e546123a591600019019060ff16611eae565b605b1c6407ffffffff1690565b611006546001600160a01b0316331461261b576040805162461bcd60e51b815260206004820152601760248201527627b7363c9021a7a79034b99030baba3437b934bd32b21760491b604482015290519081900360640190fd5b61116881612b78565b600061262f82611f78565b1561263b57508061103b565b6126448261277a565b6126505750600061103b565b600080600061265e8561231f565b925092509250600080612672858585611de1565b915061ffff169150612682612bba565b61268a612bd8565b600061269788878661119f565b9250925092506126b4838660008d8660008060008060008b6116c6565b9a9950505050505050505050565b6003546001600160a01b03163314612721576040805162461bcd60e51b815260206004820152601d60248201527f4f6e6c792073757065727573657220697320617574686f72697a65642e000000604482015290519081900360640190fd5b61100780546001600160a01b0319166001600160a01b0392909216919091179055565b60ad1c60019081161490565b60ff91909116600090815261101760205260409020541190565b611008546001600160a01b031690565b60008060008061278985611aa3565b925092509250612402838383612a15565b60d51c60019081161490565b60811c6507ffffffffff1690565b600060ff821615801590611585575050601960ff9091161090565b61102f546001600160a01b031681565b6000601860178301066001019050919050565b611006546001600160a01b031690565b60b41c60019081161490565b611007546001600160a01b0316331461286e576040805162461bcd60e51b815260206004820152601f60248201527f4f6e6c792052656c6179206f776e657220697320617574686f72697a65642e00604482015290519081900360640190fd5b60005b858110156128ce576128c687878381811061288857fe5b9050602002013560ff1686868481811061289e57fe5b905060200201358585858181106128b157fe5b905060200201356001600160a01b0316611b4f565b600101612871565b50505050505050565b60ae1c60071690565b602b1c601f1690565b60ac1c60019081161490565b60641c61ffff1690565b600060106124fd848461209b565b611006546001600160a01b03163314612967576040805162461bcd60e51b815260206004820152601760248201527627b7363c9021a7a79034b99030baba3437b934bd32b21760491b604482015290519081900360640190fd5b61100954156129b7576040805162461bcd60e51b815260206004820152601760248201527663616e6e6f7420696e697469616c697a6520747769636560481b604482015290519081900360640190fd5b6129c081611b46565b611009556129cd82612a2e565b611005546001600160a01b03166116c2576040805133815290517fd897a53ea824a5415477b26429b871a884f46b6e8bf65a9978d9ac85c7eb871d9181900360200190a15050565b60006012612a2385856124ef565b029091109392505050565b60ff81166000908152611027602052604081205561116881612b78565b6000806000612a5861238a565b92505091508160ff168560ff16148015612a7557508060ff166001145b15612ac3576040805160ff871681526020810186905281517ff1f3e0c27394c92d62c194bc05a923c6f81e4bd4976f3aae70c03e7dcf33c361929181900390910190a1600092505050611585565b6000612ad186866000611457565b60008181526110126020526040812054919250612aef888884611457565b6000848152611012602052604090206001840190559050612b0f886122b9565b60008281526110146020908152604091829020600193909301909255805160ff8b168152918201899052818101849052517fc5d195855a200aa90e2052bcc795cedbc84c2a26556b1d5113b5a30c96003a0b9181900360600190a1506001979650505050505050565b60ff8116600090815261101760205260408120805460018101909155905b60018160ff161015612bb557612bac8383612a4b565b50600101612b96565b505050565b6040518060a001604052806005906020820280368337509192915050565b6040518060800160405280600490602082028036833750919291505056fe6c6566746973686e65732063616e206f6e6c79206265207a65726f20666f7220676f616c6b6565706572736469766973696f6e206372656174696f6e20776173206e656365737361727920746f2061737369676e206e657720626f742c20627574206974206661696c65646461794f664269727468496e556e697854696d65206f7574206f6620626f756e64a2646970667358221220eea92293ad6e7493a5b11e967f09a75222559cbda234078d2c207aa4f974bba764736f6c63430006030033",
  "source": "pragma solidity >= 0.6.3;\n\nimport \"../storage/AssetsView.sol\";\n\n/**\n @title Creation of all \"default\" game assets via creation of timezones, countries and divisions\n @author Freeverse.io, www.freeverse.io\n @dev Only other way of creating assets is via BuyNow pattern, in the Market contract.\n @dev All functions in this file modify storage. All view/pure funcions are inherited from AssetsView.\n @dev Timezones range from 1 to 24, with timeZone = 0 being null.\n @dev All storage is govenrned by Proxy, via the Storage contract.\n*/\n\n/// Warning: This contract must ALWAYS inherit AssetsView first, so that it ends up inheriting Storage before any other contract.\ncontract Assets is AssetsView {\n\n    event AssetsInit(address creatorAddr);\n    event DivisionCreation(uint8 timezone, uint256 countryIdxInTZ, uint256 divisionIdxInCountry);\n    event DivisionCreationFailed(uint8 timezone, uint256 countryIdxInTZ);\n    \n    //// Setter for main roles: COO, Market owner, Relay owner\n    function setCOO(address addr) external onlySuperUser { _COO = addr; }\n    \n    function setMarket(address addr) external onlySuperUser {\n        _market = addr;\n        _teamIdToOwner[ACADEMY_TEAM] = addr;\n        if (gameDeployDay == 0) { emit AssetsInit(msg.sender); }\n        emit TeamTransfer(ACADEMY_TEAM, addr);        \n    }\n    \n    function setRelay(address addr) external onlySuperUser { _relay = addr; }\n   \n\n    /// External Functions\n\n    /// Inits all 24 timezones, each with one country, each with one division\n    function initTZs(uint256 deployTimeInUnixEpochSecs) external onlyCOO {\n        require(gameDeployDay == 0, \"cannot initialize twice\");\n        gameDeployDay = secsToDays(deployTimeInUnixEpochSecs);\n        for (uint8 tz = 1; tz < 25; tz++) {\n            _initTimeZone(tz);\n        }\n        if (_market == NULL_ADDR) { emit AssetsInit(msg.sender); }\n    }\n\n    /// Next function is only used for testing: it inits only one timezone\n    function initSingleTZ(uint8 tz, uint256 deployTimeInUnixEpochSecs) external onlyCOO {\n        require(gameDeployDay == 0, \"cannot initialize twice\");\n        gameDeployDay = secsToDays(deployTimeInUnixEpochSecs);\n        _initTimeZone(tz);\n        if (_market == NULL_ADDR) { emit AssetsInit(msg.sender); }\n    }\n\n    function addDivisionManually(uint8 tz, uint256 countryIdxInTZ) external onlyCOO { \n        require(_addDivision(tz, countryIdxInTZ), \"manual division creation failed\"); \n    }\n\n    function addCountryManually(uint8 tz) external onlyCOO { _addCountry(tz); }\n\n    /// Entry point for new users: acquiring a bot team\n    function transferFirstBotToAddr(uint8 tz, uint256 countryIdxInTZ, address addr) public onlyRelay {\n        require(_tzToNCountries[tz] > countryIdxInTZ, \"Country does not exist in TZ\");\n        uint256 countryId = encodeTZCountryAndVal(tz, countryIdxInTZ, 0); \n        uint256 firstFreeBotIdx = _countryIdToNHumanTeams[countryId];\n        uint256 teamId = encodeTZCountryAndVal(tz, countryIdxInTZ, firstFreeBotIdx);\n        require(isBotTeam(teamId), \"cannot transfer a non-bot team\");\n        require(addr != NULL_ADDR, \"invalid address\");\n        // when we arrive to all teams created (minus 16), we start trying to create a new division.\n        // such creation will fail during the 15 minutes of half time of this timezone.\n        // Even in such case, we allow new assignments, until we reach the limit (no more bots available)\n        // For example, bot = 127 requires a new division to be created.\n        uint256 teamsInCountry = getNDivisionsInCountry(tz, countryIdxInTZ) * 128; // 128 = LEAGUES_PER_DIV * TEAMS_PER_LEAGUE\n        if (firstFreeBotIdx > (teamsInCountry - 16)) { \n            if (!_addDivision(tz, countryIdxInTZ)) {\n                require(firstFreeBotIdx < teamsInCountry - 1,  \"division creation was necessary to assign new bot, but it failed\");\n           }\n        }\n        _teamIdToOwner[teamId] = addr;\n        _countryIdToNHumanTeams[countryId] = firstFreeBotIdx + 1;\n        emit TeamTransfer(teamId, addr);\n    }\n    \n    /// Speeds up assignment to new users. \n    /// This function will crash if it cannot handle all transfers in one single TX\n    /// It is the responsibility of the caller to ensure that the arrays length match correctly\n    function transferFirstBotsToAddresses(uint8[] calldata tz, uint256[] calldata countryIdxInTZ, address[] calldata addr) external onlyRelay {\n        for (uint256 i = 0; i < tz.length; i++) {\n            transferFirstBotToAddr(tz[i], countryIdxInTZ[i], addr[i]); \n        }            \n    }\n    \n\n    // Private Functions\n\n    function _initTimeZone(uint8 tz) private {\n        _orgMapRoot[tz][0] = INIT_ORGMAP_HASH;\n        _addCountry(tz);\n    }\n    \n    function _addCountry(uint8 tz) private {\n        uint256 countryIdxInTZ = _tzToNCountries[tz];\n        _tzToNCountries[tz] = countryIdxInTZ + 1;\n        for (uint8 division = 0 ; division < DIVS_PER_LEAGUE_AT_START; division++){\n            _addDivision(tz, countryIdxInTZ); \n        }\n    }\n\n    function _addDivision(uint8 tz, uint256 countryIdxInTZ) private returns(bool) {\n        (uint8 tzToUpdate, , uint8 turnInDay) = nextTimeZoneToUpdate();\n        if((tz == tzToUpdate) && (turnInDay == 1)) {\n            // cannot create a division during half time of matches in that division\n            emit DivisionCreationFailed(tz, countryIdxInTZ);    \n            return false;\n        } \n        uint256 countryId = encodeTZCountryAndVal(tz, countryIdxInTZ, 0);\n        uint256 nDivs = _countryIdToNDivisions[countryId];\n        uint256 divisionId = encodeTZCountryAndVal(tz, countryIdxInTZ, nDivs);\n        _countryIdToNDivisions[countryId] = nDivs + 1;\n        _divisionIdToRound[divisionId] = getCurrentRound(tz) + 1;\n        emit DivisionCreation(tz, countryIdxInTZ, nDivs);\n        return true;\n    }\n}\n",
  "sourcePath": "/Users/jurgenkudla/proyects/laos/laos-goal-revolution/truffle-core/contracts/storage/Assets.sol",
  "compiler": {
    "name": "solc",
    "version": "0.6.3+commit.8dda9521.Emscripten.clang"
  },
  "schemaVersion": "3.0.23",
  "updatedAt": "2024-10-16T08:58:34.364Z",
  "networkType": "ethereum",
  "devdoc": {
    "methods": {
      "computeBirthDayAndPotential(uint256,uint256,uint8)": {
        "params": {
          "playerCreationDay": "- days since unix epoch where the player was created as part of teams of a division"
        },
        "returns": {
          "dayOfBirth": "- days since unix epoch"
        }
      },
      "encodeTZCountryAndVal(uint8,uint256,uint256)": {
        "details": "PlayerId and TeamId both serialize a total of 43 bits:     timeZone        = 5 bits     countryIdxInTZ  = 10 bits     val             = 28 bits (either  (playerIdxInCountry or teamIdxInCountry)*"
      }
    }
  },
  "userdoc": {
    "methods": {
      "computeBirthDayAndPotential(uint256,uint256,uint8)": {
        "notice": "/ Compute a random age between 16 and 35.999, with random potential in [0,...7]"
      },
      "computeSkills(uint256,uint8,uint8)": {
        "notice": "/ Compute the pseudorandom skills, sum of the skills is 5K (1K each skill on average) / skills have currently, 16bits each, and there are 5 of them / potential is a number between 0 and 9 => takes 4 bit / 0: 000, 1: 001, 2: 010, 3: 011, 4: 100, 5: 101, 6: 110, 7: 111"
      },
      "daysToSecs(uint256)": {
        "notice": "TODO: remove from this contract, expose as interface for users"
      },
      "getOwnerTeamInCountry(uint8,uint256,uint256)": {
        "notice": "returns NULL_ADDR if team is bot"
      },
      "initSingleTZ(uint8,uint256)": {
        "notice": "Next function is only used for testing: it inits only one timezone"
      },
      "initTZs(uint256)": {
        "notice": "External Functions Inits all 24 timezones, each with one country, each with one division"
      },
      "isBotTeamInCountry(uint8,uint256,uint256)": {
        "notice": "Rest of view/pure functions "
      },
      "nextTimeZoneToUpdate()": {
        "notice": "each day has 24 hours, each with 4 verses => 96 verses per day. day = 0,..13 turnInDay = 0, 1, 2, 3 so for each TZ, we go from (day, turn) = (0, 0) ... (13,3) => a total of 14*4 = 56 turns per tz from these, all map easily to timeZones"
      },
      "setCOO(address)": {
        "notice": "/ Setter for main roles: COO, Market owner, Relay owner"
      },
      "timeZoneToUpdatePure(uint256,uint8)": {
        "notice": "tz0  : v = 0, V_DAY, 2 * V_DAY... tzN  : v = 4N + V_DAY * day,  day = 0,...6 tzN  : v = 4N + V_DAY * day,  day = 0,...6  => tzN - tz0 = (v - V_DAY*day)  => 4 tzN = 4 tz0 + v % VERSES_PER_DAY last : v = V_DAY + DELTA + V_DAY * 6  Imagine 2 tzs: 0:00 - tz0; 0:30 - NUL; 1:00 - tz1; 1:30 - tz0; 0:00 - tz0; 0:30 - tz1; So the last"
      },
      "transferFirstBotToAddr(uint8,uint256,address)": {
        "notice": "Entry point for new users: acquiring a bot team"
      },
      "transferFirstBotsToAddresses(uint8[],uint256[],address[])": {
        "notice": "Speeds up assignment to new users.  This function will crash if it cannot handle all transfers in one single TX It is the responsibility of the caller to ensure that the arrays length match correctly"
      }
    },
    "notice": "Warning: This contract must ALWAYS inherit AssetsView first, so that it ends up inheriting Storage before any other contract."
  }
}