{
  "contractName": "Assets",
  "abi": [
    {
      "anonymous": false,
      "inputs": [
        {
          "indexed": false,
          "internalType": "address",
          "name": "creatorAddr",
          "type": "address"
        }
      ],
      "name": "AssetsInit",
      "type": "event"
    },
    {
      "anonymous": false,
      "inputs": [
        {
          "indexed": false,
          "internalType": "uint8",
          "name": "timezone",
          "type": "uint8"
        },
        {
          "indexed": false,
          "internalType": "uint256",
          "name": "countryIdxInTZ",
          "type": "uint256"
        },
        {
          "indexed": false,
          "internalType": "uint256",
          "name": "divisionIdxInCountry",
          "type": "uint256"
        }
      ],
      "name": "DivisionCreation",
      "type": "event"
    },
    {
      "anonymous": false,
      "inputs": [
        {
          "indexed": false,
          "internalType": "uint8",
          "name": "timezone",
          "type": "uint8"
        },
        {
          "indexed": false,
          "internalType": "uint256",
          "name": "countryIdxInTZ",
          "type": "uint256"
        }
      ],
      "name": "DivisionCreationFailed",
      "type": "event"
    },
    {
      "anonymous": false,
      "inputs": [
        {
          "indexed": false,
          "internalType": "uint256",
          "name": "teamId",
          "type": "uint256"
        },
        {
          "indexed": false,
          "internalType": "address",
          "name": "to",
          "type": "address"
        }
      ],
      "name": "TeamTransfer",
      "type": "event"
    },
    {
      "inputs": [],
      "name": "COO",
      "outputs": [
        {
          "internalType": "address",
          "name": "",
          "type": "address"
        }
      ],
      "stateMutability": "view",
      "type": "function",
      "constant": true
    },
    {
      "inputs": [],
      "name": "_stakers",
      "outputs": [
        {
          "internalType": "contract Stakers",
          "name": "",
          "type": "address"
        }
      ],
      "stateMutability": "view",
      "type": "function",
      "constant": true
    },
    {
      "inputs": [
        {
          "internalType": "uint256",
          "name": "teamId",
          "type": "uint256"
        },
        {
          "internalType": "uint256",
          "name": "playerCreationDay",
          "type": "uint256"
        },
        {
          "internalType": "uint8",
          "name": "shirtNum",
          "type": "uint8"
        }
      ],
      "name": "computeBirthDayAndPotential",
      "outputs": [
        {
          "internalType": "uint16",
          "name": "dayOfBirth",
          "type": "uint16"
        },
        {
          "internalType": "uint8",
          "name": "potential",
          "type": "uint8"
        }
      ],
      "stateMutability": "pure",
      "type": "function",
      "constant": true
    },
    {
      "inputs": [
        {
          "internalType": "uint256",
          "name": "teamId",
          "type": "uint256"
        },
        {
          "internalType": "uint8",
          "name": "shirtNum",
          "type": "uint8"
        },
        {
          "internalType": "uint8",
          "name": "potential",
          "type": "uint8"
        }
      ],
      "name": "computeSkills",
      "outputs": [
        {
          "internalType": "uint32[5]",
          "name": "",
          "type": "uint32[5]"
        },
        {
          "internalType": "uint8[4]",
          "name": "",
          "type": "uint8[4]"
        },
        {
          "internalType": "uint32",
          "name": "",
          "type": "uint32"
        }
      ],
      "stateMutability": "pure",
      "type": "function",
      "constant": true
    },
    {
      "inputs": [
        {
          "internalType": "uint8",
          "name": "tz",
          "type": "uint8"
        }
      ],
      "name": "countCountries",
      "outputs": [
        {
          "internalType": "uint256",
          "name": "",
          "type": "uint256"
        }
      ],
      "stateMutability": "view",
      "type": "function",
      "constant": true
    },
    {
      "inputs": [
        {
          "internalType": "uint8",
          "name": "timeZone",
          "type": "uint8"
        },
        {
          "internalType": "uint256",
          "name": "countryIdxInTZ",
          "type": "uint256"
        }
      ],
      "name": "countryInTZExists",
      "outputs": [
        {
          "internalType": "bool",
          "name": "",
          "type": "bool"
        }
      ],
      "stateMutability": "view",
      "type": "function",
      "constant": true
    },
    {
      "inputs": [],
      "name": "cryptoMktAddr",
      "outputs": [
        {
          "internalType": "address",
          "name": "",
          "type": "address"
        }
      ],
      "stateMutability": "view",
      "type": "function",
      "constant": true
    },
    {
      "inputs": [
        {
          "internalType": "uint256",
          "name": "dayz",
          "type": "uint256"
        }
      ],
      "name": "daysToSecs",
      "outputs": [
        {
          "internalType": "uint256",
          "name": "",
          "type": "uint256"
        }
      ],
      "stateMutability": "pure",
      "type": "function",
      "constant": true
    },
    {
      "inputs": [
        {
          "internalType": "uint256",
          "name": "encoded",
          "type": "uint256"
        }
      ],
      "name": "decodeTZCountryAndVal",
      "outputs": [
        {
          "internalType": "uint8",
          "name": "",
          "type": "uint8"
        },
        {
          "internalType": "uint256",
          "name": "",
          "type": "uint256"
        },
        {
          "internalType": "uint256",
          "name": "",
          "type": "uint256"
        }
      ],
      "stateMutability": "pure",
      "type": "function",
      "constant": true
    },
    {
      "inputs": [
        {
          "internalType": "uint256",
          "name": "divisionId",
          "type": "uint256"
        }
      ],
      "name": "divisionIdToRound",
      "outputs": [
        {
          "internalType": "uint256",
          "name": "",
          "type": "uint256"
        }
      ],
      "stateMutability": "view",
      "type": "function",
      "constant": true
    },
    {
      "inputs": [
        {
          "internalType": "uint32[5]",
          "name": "skills",
          "type": "uint32[5]"
        },
        {
          "internalType": "uint256",
          "name": "dayOfBirth",
          "type": "uint256"
        },
        {
          "internalType": "uint8",
          "name": "generation",
          "type": "uint8"
        },
        {
          "internalType": "uint256",
          "name": "playerId",
          "type": "uint256"
        },
        {
          "internalType": "uint8[4]",
          "name": "birthTraits",
          "type": "uint8[4]"
        },
        {
          "internalType": "bool",
          "name": "alignedEndOfLastHalf",
          "type": "bool"
        },
        {
          "internalType": "bool",
          "name": "redCardLastGame",
          "type": "bool"
        },
        {
          "internalType": "uint8",
          "name": "gamesNonStopping",
          "type": "uint8"
        },
        {
          "internalType": "uint8",
          "name": "injuryWeeksLeft",
          "type": "uint8"
        },
        {
          "internalType": "bool",
          "name": "substitutedFirstHalf",
          "type": "bool"
        },
        {
          "internalType": "uint32",
          "name": "sumSkills",
          "type": "uint32"
        }
      ],
      "name": "encodePlayerSkills",
      "outputs": [
        {
          "internalType": "uint256",
          "name": "encoded",
          "type": "uint256"
        }
      ],
      "stateMutability": "pure",
      "type": "function",
      "constant": true
    },
    {
      "inputs": [
        {
          "internalType": "uint256",
          "name": "currentTeamId",
          "type": "uint256"
        },
        {
          "internalType": "uint8",
          "name": "currentShirtNum",
          "type": "uint8"
        },
        {
          "internalType": "uint256",
          "name": "prevPlayerTeamId",
          "type": "uint256"
        },
        {
          "internalType": "uint256",
          "name": "lastSaleBlock",
          "type": "uint256"
        }
      ],
      "name": "encodePlayerState",
      "outputs": [
        {
          "internalType": "uint256",
          "name": "",
          "type": "uint256"
        }
      ],
      "stateMutability": "pure",
      "type": "function",
      "constant": true
    },
    {
      "inputs": [
        {
          "internalType": "uint8",
          "name": "timeZone",
          "type": "uint8"
        },
        {
          "internalType": "uint256",
          "name": "countryIdxInTZ",
          "type": "uint256"
        },
        {
          "internalType": "uint256",
          "name": "val",
          "type": "uint256"
        }
      ],
      "name": "encodeTZCountryAndVal",
      "outputs": [
        {
          "internalType": "uint256",
          "name": "",
          "type": "uint256"
        }
      ],
      "stateMutability": "pure",
      "type": "function",
      "constant": true
    },
    {
      "inputs": [],
      "name": "gameDeployDay",
      "outputs": [
        {
          "internalType": "uint256",
          "name": "",
          "type": "uint256"
        }
      ],
      "stateMutability": "view",
      "type": "function",
      "constant": true
    },
    {
      "inputs": [
        {
          "internalType": "uint256",
          "name": "encodedSkills",
          "type": "uint256"
        }
      ],
      "name": "getAggressiveness",
      "outputs": [
        {
          "internalType": "uint256",
          "name": "",
          "type": "uint256"
        }
      ],
      "stateMutability": "pure",
      "type": "function",
      "constant": true
    },
    {
      "inputs": [
        {
          "internalType": "uint256",
          "name": "encodedSkills",
          "type": "uint256"
        }
      ],
      "name": "getAlignedEndOfFirstHalf",
      "outputs": [
        {
          "internalType": "bool",
          "name": "",
          "type": "bool"
        }
      ],
      "stateMutability": "pure",
      "type": "function",
      "constant": true
    },
    {
      "inputs": [
        {
          "internalType": "uint256",
          "name": "encodedSkills",
          "type": "uint256"
        }
      ],
      "name": "getBirthDay",
      "outputs": [
        {
          "internalType": "uint256",
          "name": "",
          "type": "uint256"
        }
      ],
      "stateMutability": "pure",
      "type": "function",
      "constant": true
    },
    {
      "inputs": [
        {
          "internalType": "uint8",
          "name": "tz",
          "type": "uint8"
        }
      ],
      "name": "getCurrentRound",
      "outputs": [
        {
          "internalType": "uint256",
          "name": "",
          "type": "uint256"
        }
      ],
      "stateMutability": "view",
      "type": "function",
      "constant": true
    },
    {
      "inputs": [
        {
          "internalType": "uint8",
          "name": "tz",
          "type": "uint8"
        },
        {
          "internalType": "uint8",
          "name": "tz1",
          "type": "uint8"
        },
        {
          "internalType": "uint256",
          "name": "verse",
          "type": "uint256"
        }
      ],
      "name": "getCurrentRoundPure",
      "outputs": [
        {
          "internalType": "uint256",
          "name": "",
          "type": "uint256"
        }
      ],
      "stateMutability": "pure",
      "type": "function",
      "constant": true
    },
    {
      "inputs": [
        {
          "internalType": "uint256",
          "name": "playerState",
          "type": "uint256"
        }
      ],
      "name": "getCurrentShirtNum",
      "outputs": [
        {
          "internalType": "uint256",
          "name": "",
          "type": "uint256"
        }
      ],
      "stateMutability": "pure",
      "type": "function",
      "constant": true
    },
    {
      "inputs": [
        {
          "internalType": "uint256",
          "name": "playerState",
          "type": "uint256"
        }
      ],
      "name": "getCurrentTeamIdFromPlayerState",
      "outputs": [
        {
          "internalType": "uint256",
          "name": "",
          "type": "uint256"
        }
      ],
      "stateMutability": "pure",
      "type": "function",
      "constant": true
    },
    {
      "inputs": [
        {
          "internalType": "uint256",
          "name": "encodedSkills",
          "type": "uint256"
        }
      ],
      "name": "getForwardness",
      "outputs": [
        {
          "internalType": "uint256",
          "name": "",
          "type": "uint256"
        }
      ],
      "stateMutability": "pure",
      "type": "function",
      "constant": true
    },
    {
      "inputs": [
        {
          "internalType": "uint256",
          "name": "encodedSkills",
          "type": "uint256"
        }
      ],
      "name": "getGamesNonStopping",
      "outputs": [
        {
          "internalType": "uint8",
          "name": "",
          "type": "uint8"
        }
      ],
      "stateMutability": "pure",
      "type": "function",
      "constant": true
    },
    {
      "inputs": [
        {
          "internalType": "uint256",
          "name": "encodedSkills",
          "type": "uint256"
        }
      ],
      "name": "getGeneration",
      "outputs": [
        {
          "internalType": "uint256",
          "name": "",
          "type": "uint256"
        }
      ],
      "stateMutability": "pure",
      "type": "function",
      "constant": true
    },
    {
      "inputs": [
        {
          "internalType": "uint256",
          "name": "encodedSkills",
          "type": "uint256"
        }
      ],
      "name": "getInjuryWeeksLeft",
      "outputs": [
        {
          "internalType": "uint8",
          "name": "",
          "type": "uint8"
        }
      ],
      "stateMutability": "pure",
      "type": "function",
      "constant": true
    },
    {
      "inputs": [
        {
          "internalType": "uint256",
          "name": "encodedSkills",
          "type": "uint256"
        }
      ],
      "name": "getInternalPlayerId",
      "outputs": [
        {
          "internalType": "uint256",
          "name": "",
          "type": "uint256"
        }
      ],
      "stateMutability": "pure",
      "type": "function",
      "constant": true
    },
    {
      "inputs": [
        {
          "internalType": "uint256",
          "name": "state",
          "type": "uint256"
        }
      ],
      "name": "getIsInTransitFromState",
      "outputs": [
        {
          "internalType": "bool",
          "name": "",
          "type": "bool"
        }
      ],
      "stateMutability": "pure",
      "type": "function",
      "constant": true
    },
    {
      "inputs": [
        {
          "internalType": "uint256",
          "name": "encodedSkills",
          "type": "uint256"
        }
      ],
      "name": "getIsSpecial",
      "outputs": [
        {
          "internalType": "bool",
          "name": "",
          "type": "bool"
        }
      ],
      "stateMutability": "pure",
      "type": "function",
      "constant": true
    },
    {
      "inputs": [
        {
          "internalType": "uint256",
          "name": "playerState",
          "type": "uint256"
        }
      ],
      "name": "getLastSaleBlock",
      "outputs": [
        {
          "internalType": "uint256",
          "name": "",
          "type": "uint256"
        }
      ],
      "stateMutability": "pure",
      "type": "function",
      "constant": true
    },
    {
      "inputs": [
        {
          "internalType": "uint256",
          "name": "encodedSkills",
          "type": "uint256"
        }
      ],
      "name": "getLeftishness",
      "outputs": [
        {
          "internalType": "uint256",
          "name": "",
          "type": "uint256"
        }
      ],
      "stateMutability": "pure",
      "type": "function",
      "constant": true
    },
    {
      "inputs": [
        {
          "internalType": "uint8",
          "name": "timeZone",
          "type": "uint8"
        },
        {
          "internalType": "uint256",
          "name": "countryIdxInTZ",
          "type": "uint256"
        }
      ],
      "name": "getNDivisionsInCountry",
      "outputs": [
        {
          "internalType": "uint256",
          "name": "",
          "type": "uint256"
        }
      ],
      "stateMutability": "view",
      "type": "function",
      "constant": true
    },
    {
      "inputs": [
        {
          "internalType": "uint8",
          "name": "timeZone",
          "type": "uint8"
        },
        {
          "internalType": "uint256",
          "name": "countryIdxInTZ",
          "type": "uint256"
        }
      ],
      "name": "getNHumansInCountry",
      "outputs": [
        {
          "internalType": "uint256",
          "name": "",
          "type": "uint256"
        }
      ],
      "stateMutability": "view",
      "type": "function",
      "constant": true
    },
    {
      "inputs": [
        {
          "internalType": "uint8",
          "name": "timeZone",
          "type": "uint8"
        },
        {
          "internalType": "uint256",
          "name": "countryIdxInTZ",
          "type": "uint256"
        }
      ],
      "name": "getNLeaguesInCountry",
      "outputs": [
        {
          "internalType": "uint256",
          "name": "",
          "type": "uint256"
        }
      ],
      "stateMutability": "view",
      "type": "function",
      "constant": true
    },
    {
      "inputs": [
        {
          "internalType": "uint8",
          "name": "timeZone",
          "type": "uint8"
        },
        {
          "internalType": "uint256",
          "name": "countryIdxInTZ",
          "type": "uint256"
        }
      ],
      "name": "getNTeamsInCountry",
      "outputs": [
        {
          "internalType": "uint256",
          "name": "",
          "type": "uint256"
        }
      ],
      "stateMutability": "view",
      "type": "function",
      "constant": true
    },
    {
      "inputs": [
        {
          "internalType": "uint256",
          "name": "encodedSkills",
          "type": "uint256"
        }
      ],
      "name": "getOutOfGameFirstHalf",
      "outputs": [
        {
          "internalType": "bool",
          "name": "",
          "type": "bool"
        }
      ],
      "stateMutability": "pure",
      "type": "function",
      "constant": true
    },
    {
      "inputs": [
        {
          "internalType": "uint8",
          "name": "timeZone",
          "type": "uint8"
        },
        {
          "internalType": "uint256",
          "name": "countryIdxInTZ",
          "type": "uint256"
        },
        {
          "internalType": "uint256",
          "name": "teamIdxInCountry",
          "type": "uint256"
        }
      ],
      "name": "getOwnerTeamInCountry",
      "outputs": [
        {
          "internalType": "address",
          "name": "",
          "type": "address"
        }
      ],
      "stateMutability": "view",
      "type": "function",
      "constant": true
    },
    {
      "inputs": [
        {
          "internalType": "uint256",
          "name": "playerId",
          "type": "uint256"
        }
      ],
      "name": "getPlayerAgeInDays",
      "outputs": [
        {
          "internalType": "uint256",
          "name": "",
          "type": "uint256"
        }
      ],
      "stateMutability": "view",
      "type": "function",
      "constant": true
    },
    {
      "inputs": [
        {
          "internalType": "uint256",
          "name": "encodedSkills",
          "type": "uint256"
        }
      ],
      "name": "getPlayerIdFromSkills",
      "outputs": [
        {
          "internalType": "uint256",
          "name": "",
          "type": "uint256"
        }
      ],
      "stateMutability": "pure",
      "type": "function",
      "constant": true
    },
    {
      "inputs": [
        {
          "internalType": "uint256",
          "name": "playerId",
          "type": "uint256"
        }
      ],
      "name": "getPlayerSkillsAtBirth",
      "outputs": [
        {
          "internalType": "uint256",
          "name": "",
          "type": "uint256"
        }
      ],
      "stateMutability": "view",
      "type": "function",
      "constant": true
    },
    {
      "inputs": [
        {
          "internalType": "uint256",
          "name": "playerId",
          "type": "uint256"
        },
        {
          "internalType": "uint256",
          "name": "_gameDeployDay",
          "type": "uint256"
        },
        {
          "internalType": "uint256",
          "name": "_divisionCreationRound",
          "type": "uint256"
        }
      ],
      "name": "getPlayerSkillsAtBirthPure",
      "outputs": [
        {
          "internalType": "uint256",
          "name": "",
          "type": "uint256"
        }
      ],
      "stateMutability": "pure",
      "type": "function",
      "constant": true
    },
    {
      "inputs": [
        {
          "internalType": "uint256",
          "name": "encodedSkills",
          "type": "uint256"
        }
      ],
      "name": "getPotential",
      "outputs": [
        {
          "internalType": "uint256",
          "name": "",
          "type": "uint256"
        }
      ],
      "stateMutability": "pure",
      "type": "function",
      "constant": true
    },
    {
      "inputs": [
        {
          "internalType": "uint256",
          "name": "playerState",
          "type": "uint256"
        }
      ],
      "name": "getPrevPlayerTeamId",
      "outputs": [
        {
          "internalType": "uint256",
          "name": "",
          "type": "uint256"
        }
      ],
      "stateMutability": "pure",
      "type": "function",
      "constant": true
    },
    {
      "inputs": [
        {
          "internalType": "uint256",
          "name": "encodedSkills",
          "type": "uint256"
        }
      ],
      "name": "getRedCardLastGame",
      "outputs": [
        {
          "internalType": "bool",
          "name": "",
          "type": "bool"
        }
      ],
      "stateMutability": "pure",
      "type": "function",
      "constant": true
    },
    {
      "inputs": [
        {
          "internalType": "uint256",
          "name": "encodedSkills",
          "type": "uint256"
        },
        {
          "internalType": "uint8",
          "name": "skillIdx",
          "type": "uint8"
        }
      ],
      "name": "getSkill",
      "outputs": [
        {
          "internalType": "uint256",
          "name": "",
          "type": "uint256"
        }
      ],
      "stateMutability": "pure",
      "type": "function",
      "constant": true
    },
    {
      "inputs": [
        {
          "internalType": "uint256",
          "name": "encodedSkills",
          "type": "uint256"
        }
      ],
      "name": "getSubstitutedFirstHalf",
      "outputs": [
        {
          "internalType": "bool",
          "name": "",
          "type": "bool"
        }
      ],
      "stateMutability": "pure",
      "type": "function",
      "constant": true
    },
    {
      "inputs": [
        {
          "internalType": "uint256",
          "name": "encodedSkills",
          "type": "uint256"
        }
      ],
      "name": "getSumOfSkills",
      "outputs": [
        {
          "internalType": "uint256",
          "name": "",
          "type": "uint256"
        }
      ],
      "stateMutability": "pure",
      "type": "function",
      "constant": true
    },
    {
      "inputs": [
        {
          "internalType": "uint256",
          "name": "playerId",
          "type": "uint256"
        }
      ],
      "name": "getTeamIdCreationDayAndShirtNum",
      "outputs": [
        {
          "internalType": "uint256",
          "name": "teamId",
          "type": "uint256"
        },
        {
          "internalType": "uint256",
          "name": "creationDay",
          "type": "uint256"
        },
        {
          "internalType": "uint8",
          "name": "shirtNum",
          "type": "uint8"
        }
      ],
      "stateMutability": "view",
      "type": "function",
      "constant": true
    },
    {
      "inputs": [
        {
          "internalType": "uint256",
          "name": "playerId",
          "type": "uint256"
        },
        {
          "internalType": "uint256",
          "name": "creationDay",
          "type": "uint256"
        }
      ],
      "name": "getTeamIdCreationDayAndShirtNumPure",
      "outputs": [
        {
          "internalType": "uint256",
          "name": "teamId",
          "type": "uint256"
        },
        {
          "internalType": "uint256",
          "name": "",
          "type": "uint256"
        },
        {
          "internalType": "uint8",
          "name": "shirtNum",
          "type": "uint8"
        }
      ],
      "stateMutability": "pure",
      "type": "function",
      "constant": true
    },
    {
      "inputs": [
        {
          "internalType": "uint256",
          "name": "encodedSkills",
          "type": "uint256"
        }
      ],
      "name": "getYellowCardFirstHalf",
      "outputs": [
        {
          "internalType": "bool",
          "name": "",
          "type": "bool"
        }
      ],
      "stateMutability": "pure",
      "type": "function",
      "constant": true
    },
    {
      "inputs": [
        {
          "internalType": "uint256",
          "name": "teamId",
          "type": "uint256"
        }
      ],
      "name": "isBotTeam",
      "outputs": [
        {
          "internalType": "bool",
          "name": "",
          "type": "bool"
        }
      ],
      "stateMutability": "view",
      "type": "function",
      "constant": true
    },
    {
      "inputs": [
        {
          "internalType": "uint8",
          "name": "timeZone",
          "type": "uint8"
        },
        {
          "internalType": "uint256",
          "name": "countryIdxInTZ",
          "type": "uint256"
        },
        {
          "internalType": "uint256",
          "name": "teamIdxInCountry",
          "type": "uint256"
        }
      ],
      "name": "isBotTeamInCountry",
      "outputs": [
        {
          "internalType": "bool",
          "name": "",
          "type": "bool"
        }
      ],
      "stateMutability": "view",
      "type": "function",
      "constant": true
    },
    {
      "inputs": [],
      "name": "market",
      "outputs": [
        {
          "internalType": "address",
          "name": "",
          "type": "address"
        }
      ],
      "stateMutability": "view",
      "type": "function",
      "constant": true
    },
    {
      "inputs": [],
      "name": "nextTimeZoneToUpdate",
      "outputs": [
        {
          "internalType": "uint8",
          "name": "tz",
          "type": "uint8"
        },
        {
          "internalType": "uint8",
          "name": "day",
          "type": "uint8"
        },
        {
          "internalType": "uint8",
          "name": "turnInDay",
          "type": "uint8"
        }
      ],
      "stateMutability": "view",
      "type": "function",
      "constant": true
    },
    {
      "inputs": [
        {
          "internalType": "uint256",
          "name": "tz",
          "type": "uint256"
        }
      ],
      "name": "normalizeTZ",
      "outputs": [
        {
          "internalType": "uint8",
          "name": "",
          "type": "uint8"
        }
      ],
      "stateMutability": "pure",
      "type": "function",
      "constant": true
    },
    {
      "inputs": [],
      "name": "prevTimeZoneToUpdate",
      "outputs": [
        {
          "internalType": "uint8",
          "name": "tz",
          "type": "uint8"
        },
        {
          "internalType": "uint8",
          "name": "day",
          "type": "uint8"
        },
        {
          "internalType": "uint8",
          "name": "turnInDay",
          "type": "uint8"
        }
      ],
      "stateMutability": "view",
      "type": "function",
      "constant": true
    },
    {
      "inputs": [],
      "name": "relay",
      "outputs": [
        {
          "internalType": "address",
          "name": "",
          "type": "address"
        }
      ],
      "stateMutability": "view",
      "type": "function",
      "constant": true
    },
    {
      "inputs": [
        {
          "internalType": "uint256",
          "name": "secs",
          "type": "uint256"
        }
      ],
      "name": "secsToDays",
      "outputs": [
        {
          "internalType": "uint256",
          "name": "",
          "type": "uint256"
        }
      ],
      "stateMutability": "pure",
      "type": "function",
      "constant": true
    },
    {
      "inputs": [
        {
          "internalType": "uint256",
          "name": "state",
          "type": "uint256"
        },
        {
          "internalType": "uint8",
          "name": "currentShirtNum",
          "type": "uint8"
        }
      ],
      "name": "setCurrentShirtNum",
      "outputs": [
        {
          "internalType": "uint256",
          "name": "",
          "type": "uint256"
        }
      ],
      "stateMutability": "pure",
      "type": "function",
      "constant": true
    },
    {
      "inputs": [
        {
          "internalType": "uint256",
          "name": "playerState",
          "type": "uint256"
        },
        {
          "internalType": "uint256",
          "name": "teamId",
          "type": "uint256"
        }
      ],
      "name": "setCurrentTeamId",
      "outputs": [
        {
          "internalType": "uint256",
          "name": "",
          "type": "uint256"
        }
      ],
      "stateMutability": "pure",
      "type": "function",
      "constant": true
    },
    {
      "inputs": [
        {
          "internalType": "uint256",
          "name": "state",
          "type": "uint256"
        },
        {
          "internalType": "uint256",
          "name": "lastSaleBlock",
          "type": "uint256"
        }
      ],
      "name": "setLastSaleBlock",
      "outputs": [
        {
          "internalType": "uint256",
          "name": "",
          "type": "uint256"
        }
      ],
      "stateMutability": "pure",
      "type": "function",
      "constant": true
    },
    {
      "inputs": [
        {
          "internalType": "uint256",
          "name": "state",
          "type": "uint256"
        },
        {
          "internalType": "uint256",
          "name": "value",
          "type": "uint256"
        }
      ],
      "name": "setPrevPlayerTeamId",
      "outputs": [
        {
          "internalType": "uint256",
          "name": "",
          "type": "uint256"
        }
      ],
      "stateMutability": "pure",
      "type": "function",
      "constant": true
    },
    {
      "inputs": [
        {
          "internalType": "uint8",
          "name": "timeZone",
          "type": "uint8"
        },
        {
          "internalType": "uint256",
          "name": "countryIdxInTZ",
          "type": "uint256"
        },
        {
          "internalType": "uint256",
          "name": "teamIdxInCountry",
          "type": "uint256"
        }
      ],
      "name": "teamExistsInCountry",
      "outputs": [
        {
          "internalType": "bool",
          "name": "",
          "type": "bool"
        }
      ],
      "stateMutability": "view",
      "type": "function",
      "constant": true
    },
    {
      "inputs": [
        {
          "internalType": "uint256",
          "name": "verse",
          "type": "uint256"
        },
        {
          "internalType": "uint8",
          "name": "TZForRound1",
          "type": "uint8"
        }
      ],
      "name": "timeZoneToUpdatePure",
      "outputs": [
        {
          "internalType": "uint8",
          "name": "timezone",
          "type": "uint8"
        },
        {
          "internalType": "uint8",
          "name": "day",
          "type": "uint8"
        },
        {
          "internalType": "uint8",
          "name": "turnInDay",
          "type": "uint8"
        }
      ],
      "stateMutability": "pure",
      "type": "function",
      "constant": true
    },
    {
      "inputs": [
        {
          "internalType": "uint8",
          "name": "timeZone",
          "type": "uint8"
        }
      ],
      "name": "tzExists",
      "outputs": [
        {
          "internalType": "bool",
          "name": "",
          "type": "bool"
        }
      ],
      "stateMutability": "pure",
      "type": "function",
      "constant": true
    },
    {
      "inputs": [
        {
          "internalType": "uint8",
          "name": "timeZone",
          "type": "uint8"
        },
        {
          "internalType": "uint256",
          "name": "countryIdxInTZ",
          "type": "uint256"
        },
        {
          "internalType": "uint256",
          "name": "playerIdxInCountry",
          "type": "uint256"
        }
      ],
      "name": "wasPlayerCreatedInCountry",
      "outputs": [
        {
          "internalType": "bool",
          "name": "",
          "type": "bool"
        }
      ],
      "stateMutability": "view",
      "type": "function",
      "constant": true
    },
    {
      "inputs": [
        {
          "internalType": "uint256",
          "name": "playerId",
          "type": "uint256"
        }
      ],
      "name": "wasPlayerCreatedVirtually",
      "outputs": [
        {
          "internalType": "bool",
          "name": "",
          "type": "bool"
        }
      ],
      "stateMutability": "view",
      "type": "function",
      "constant": true
    },
    {
      "inputs": [
        {
          "internalType": "uint256",
          "name": "teamId",
          "type": "uint256"
        }
      ],
      "name": "wasTeamCreatedVirtually",
      "outputs": [
        {
          "internalType": "bool",
          "name": "",
          "type": "bool"
        }
      ],
      "stateMutability": "view",
      "type": "function",
      "constant": true
    },
    {
      "inputs": [
        {
          "internalType": "address",
          "name": "addr",
          "type": "address"
        }
      ],
      "name": "setCOO",
      "outputs": [],
      "stateMutability": "nonpayable",
      "type": "function"
    },
    {
      "inputs": [
        {
          "internalType": "address",
          "name": "addr",
          "type": "address"
        }
      ],
      "name": "setMarket",
      "outputs": [],
      "stateMutability": "nonpayable",
      "type": "function"
    },
    {
      "inputs": [
        {
          "internalType": "address",
          "name": "addr",
          "type": "address"
        }
      ],
      "name": "setRelay",
      "outputs": [],
      "stateMutability": "nonpayable",
      "type": "function"
    },
    {
      "inputs": [
        {
          "internalType": "uint256",
          "name": "deployTimeInUnixEpochSecs",
          "type": "uint256"
        }
      ],
      "name": "initTZs",
      "outputs": [],
      "stateMutability": "nonpayable",
      "type": "function"
    },
    {
      "inputs": [
        {
          "internalType": "uint8",
          "name": "tz",
          "type": "uint8"
        },
        {
          "internalType": "uint256",
          "name": "deployTimeInUnixEpochSecs",
          "type": "uint256"
        }
      ],
      "name": "initSingleTZ",
      "outputs": [],
      "stateMutability": "nonpayable",
      "type": "function"
    },
    {
      "inputs": [
        {
          "internalType": "uint8",
          "name": "tz",
          "type": "uint8"
        },
        {
          "internalType": "uint256",
          "name": "countryIdxInTZ",
          "type": "uint256"
        }
      ],
      "name": "addDivisionManually",
      "outputs": [],
      "stateMutability": "nonpayable",
      "type": "function"
    },
    {
      "inputs": [
        {
          "internalType": "uint8",
          "name": "tz",
          "type": "uint8"
        }
      ],
      "name": "addCountryManually",
      "outputs": [],
      "stateMutability": "nonpayable",
      "type": "function"
    },
    {
      "inputs": [
        {
          "internalType": "uint8",
          "name": "tz",
          "type": "uint8"
        },
        {
          "internalType": "uint256",
          "name": "countryIdxInTZ",
          "type": "uint256"
        },
        {
          "internalType": "address",
          "name": "addr",
          "type": "address"
        }
      ],
      "name": "transferFirstBotToAddr",
      "outputs": [],
      "stateMutability": "nonpayable",
      "type": "function"
    },
    {
      "inputs": [
        {
          "internalType": "uint8[]",
          "name": "tz",
          "type": "uint8[]"
        },
        {
          "internalType": "uint256[]",
          "name": "countryIdxInTZ",
          "type": "uint256[]"
        },
        {
          "internalType": "address[]",
          "name": "addr",
          "type": "address[]"
        }
      ],
      "name": "transferFirstBotsToAddresses",
      "outputs": [],
      "stateMutability": "nonpayable",
      "type": "function"
    }
  ],
  "bytecode": "0x608060405234801561001057600080fd5b50612dcb806100206000396000f3fe608060405234801561001057600080fd5b50600436106104535760003560e01c806380c794ce11610241578063ce506ec51161013b578063e37528bb116100c3578063f2c3576411610087578063f2c3576414610fe4578063f2dc657f14611001578063f9d0723d1461101e578063fba1eaed14611044578063fcf9b3be1461106a57610453565b8063e37528bb14610e56578063e3a21a2014610e73578063e804e51914610f87578063eb78b7b714610fa4578063f1d6521214610fc157610453565b8063d2f7967d1161010a578063d2f7967d14610dec578063d403fabd14610e09578063d8f73c3c14610e29578063dcadab5c14610e31578063e1b27e6b14610e4e57610453565b8063ce506ec514610d84578063cebc43a614610daa578063d02254a514610db2578063d1b3d8fd14610dcf57610453565b8063bbb11780116101c9578063c566b5bc1161018d578063c566b5bc14610ce7578063c57283fa14610d04578063c73f808d14610d24578063c805f68b14610d41578063cc7d473b14610d6757610453565b8063bbb1178014610c49578063c04f6d5314610c79578063c2bc41cd14610c9f578063c37b1c2514610cbc578063c395d7a814610cdf57610453565b80638a89148c116102105780638a89148c14610bdc5780638cc9a8d514610be4578063a21ef9fa14610c01578063af76cd0114610c1e578063b59589d114610c4157610453565b806380c794ce14610b4457806380f5560514610b645780638608ff4314610b6c5780638828a76114610b9e57610453565b80633c2eb36011610352578063595ef25b116102da57806376c2d9601161029e57806376c2d96014610a7f5780637933e88314610aab57806379e7659714610ac85780637ffa3a2e14610afb57806380bac70914610b1857610453565b8063595ef25b146109a85780635adb40f5146109f05780636a6cb69f14610a165780636dcea85f14610a3c5780636f6c2ae014610a6257610453565b806347524b601161032157806347524b60146108fa5780634bea2a691461092b5780634db989fd1461094857806356e3df971461096e5780635940a77f1461098b57610453565b80633c2eb36014610811578063434807ad1461084657806343af15ee14610863578063471d6e80146108af57610453565b806329d0dcfb116103e0578063332b8ea3116103a4578063332b8ea31461078357806334ff47351461078b5780633518dd1d146107b457806337a86302146107d15780633be83c0a146107f457610453565b806329d0dcfb1461060b5780632ba73c15146106315780632c161208146106575780632ead05531461067d5780633260840b1461074457610453565b80631060c9c2116104275780631060c9c2146104e3578063111cfab314610500578063127f05e01461051d5780631fc7768f146105c257806320748ae8146105df57610453565b80620edf9b14610458578063022da63a1461048757806309fcf8a6146104a45780630abcd3e5146104c3575b600080fd5b6104756004803603602081101561046e57600080fd5b5035611096565b60408051918252519081900360200190f35b6104756004803603602081101561049d57600080fd5b50356110a2565b6104c1600480360360208110156104ba57600080fd5b50356110ad565b005b610475600480360360208110156104d957600080fd5b503560ff166111cd565b610475600480360360208110156104f957600080fd5b50356111e3565b6104756004803603602081101561051657600080fd5b50356111ee565b61054b6004803603606081101561053357600080fd5b5080359060ff60208201358116916040013516611201565b604051808460a080838360005b83811015610570578181015183820152602001610558565b5050505090500183600460200280838360005b8381101561059b578181015183820152602001610583565b505050509050018263ffffffff1663ffffffff168152602001935050505060405180910390f35b610475600480360360208110156105d857600080fd5b50356114b0565b610475600480360360608110156105f557600080fd5b5060ff81351690602081013590604001356114b9565b6104756004803603604081101561062157600080fd5b508035906020013560ff166115d7565b6104c16004803603602081101561064757600080fd5b50356001600160a01b03166115ed565b6104c16004803603604081101561066d57600080fd5b5060ff813516906020013561166f565b610475600480360361024081101561069457600080fd5b810190808060a001906005806020026040519081016040528092919082600560200280828437600092019190915250506040805160808181018352939685359660ff6020880135169693840135959194509260e081019291606090910190600490839083908082843760009201919091525091945050508035151591506020810135151590604081013560ff90811691606081013590911690608081013515159060a0013563ffffffff16611728565b6107616004803603602081101561075a57600080fd5b5035611b05565b6040805160ff9094168452602084019290925282820152519081900360600190f35b610475611b21565b610475600480360360608110156107a157600080fd5b5080359060208101359060400135611b28565b610475600480360360208110156107ca57600080fd5b5035611bb7565b610475600480360360408110156107e757600080fd5b5080359060200135611bc0565b6104756004803603602081101561080a57600080fd5b5035611c37565b6104c16004803603606081101561082757600080fd5b50803560ff1690602081013590604001356001600160a01b0316611c40565b6104756004803603602081101561085c57600080fd5b5035611ec9565b61088f6004803603606081101561087957600080fd5b508035906020810135906040013560ff16611ed2565b6040805161ffff909316835260ff90911660208301528051918290030190f35b6108d5600480360360408110156108c557600080fd5b508035906020013560ff16611f9f565b6040805160ff9485168152928416602084015292168183015290519081900360600190f35b6109176004803603602081101561091057600080fd5b5035612069565b604080519115158252519081900360200190f35b6104756004803603602081101561094157600080fd5b5035612075565b6104756004803603604081101561095e57600080fd5b508035906020013560ff16612083565b6104756004803603602081101561098457600080fd5b50356120fe565b610475600480360360208110156109a157600080fd5b5035612107565b6109d4600480360360608110156109be57600080fd5b5060ff813516906020810135906040013561212f565b604080516001600160a01b039092168252519081900360200190f35b61047560048036036040811015610a0657600080fd5b5060ff813516906020013561218c565b61047560048036036040811015610a2c57600080fd5b5060ff81351690602001356121df565b6104c160048036036020811015610a5257600080fd5b50356001600160a01b03166121f2565b61047560048036036020811015610a7857600080fd5b503561232a565b61091760048036036060811015610a9557600080fd5b5060ff813516906020810135906040013561234b565b61091760048036036020811015610ac157600080fd5b5035612361565b610ae560048036036020811015610ade57600080fd5b5035612375565b6040805160ff9092168252519081900360200190f35b61091760048036036020811015610b1157600080fd5b503561237e565b61091760048036036060811015610b2e57600080fd5b5060ff813516906020810135906040013561238a565b61047560048036036020811015610b5a57600080fd5b503560ff166123aa565b6109d46123c4565b61047560048036036080811015610b8257600080fd5b5080359060ff60208201351690604081013590606001356123d4565b610bbb60048036036020811015610bb457600080fd5b5035612410565b60408051938452602084019290925260ff1682820152519081900360600190f35b6108d561247b565b61091760048036036020811015610bfa57600080fd5b50356124a2565b61091760048036036020811015610c1757600080fd5b50356124d3565b61047560048036036040811015610c3457600080fd5b50803590602001356124fc565b6109d461256e565b61047560048036036060811015610c5f57600080fd5b5060ff81358116916020810135909116906040013561257e565b61047560048036036040811015610c8f57600080fd5b5060ff81351690602001356125e0565b61047560048036036020811015610cb557600080fd5b50356125f6565b61047560048036036040811015610cd257600080fd5b50803590602001356125ff565b6108d561266d565b61047560048036036020811015610cfd57600080fd5b50356126a5565b6104c160048036036020811015610d1a57600080fd5b503560ff166126b2565b61047560048036036020811015610d3a57600080fd5b5035612715565b6104c160048036036020811015610d5757600080fd5b50356001600160a01b031661279b565b61091760048036036020811015610d7d57600080fd5b503561281d565b61091760048036036040811015610d9a57600080fd5b5060ff8135169060200135612829565b6109d4612843565b61091760048036036020811015610dc857600080fd5b5035612853565b61091760048036036020811015610de557600080fd5b5035612873565b61047560048036036020811015610e0257600080fd5b503561287f565b61091760048036036020811015610e1f57600080fd5b503560ff1661288d565b6109d46128a8565b610ae560048036036020811015610e4757600080fd5b50356128b8565b6109d46128cb565b61091760048036036020811015610e6c57600080fd5b50356128db565b6104c160048036036060811015610e8957600080fd5b810190602081018135640100000000811115610ea457600080fd5b820183602082011115610eb657600080fd5b80359060200191846020830284011164010000000083111715610ed857600080fd5b919390929091602081019035640100000000811115610ef657600080fd5b820183602082011115610f0857600080fd5b80359060200191846020830284011164010000000083111715610f2a57600080fd5b919390929091602081019035640100000000811115610f4857600080fd5b820183602082011115610f5a57600080fd5b80359060200191846020830284011164010000000083111715610f7c57600080fd5b5090925090506128e7565b610ae560048036036020811015610f9d57600080fd5b50356129b0565b61047560048036036020811015610fba57600080fd5b50356129b9565b610bbb60048036036040811015610fd757600080fd5b50803590602001356129c2565b61091760048036036020811015610ffa57600080fd5b50356129fc565b6104756004803603602081101561101757600080fd5b5035612a08565b6104756004803603604081101561103457600080fd5b5060ff8135169060200135612a12565b6104c16004803603604081101561105a57600080fd5b5060ff8135169060200135612a20565b6109176004803603606081101561108057600080fd5b5060ff8135169060208101359060400135612b28565b6201518081025b919050565b6507ffffffffff1690565b611006546001600160a01b03163314611107576040805162461bcd60e51b815260206004820152601760248201527627b7363c9021a7a79034b99030baba3437b934bd32b21760491b604482015290519081900360640190fd5b6110095415611157576040805162461bcd60e51b815260206004820152601760248201527663616e6e6f7420696e697469616c697a6520747769636560481b604482015290519081900360640190fd5b61116081611c37565b6110095560015b60198160ff1610156111845761117c81612b41565b600101611167565b50611005546001600160a01b03166111ca576040805133815290517fd897a53ea824a5415477b26429b871a884f46b6e8bf65a9978d9ac85c7eb871d9181900360200190a15b50565b60ff166000908152611017602052604090205490565b60b51c6207ffff1690565b6000908152611014602052604090205490565b611209612ccd565b611211612ceb565b600061121b612ccd565b611223612ccd565b6040805160208082018b905260ff8a1682840181905283518084038501815260609093019093528151910120600281811c926000928392600390911691101561127d57600e85526006604086015260009250829150611345565b60078b60ff1610156112a7576004855260106060860152600192506007845b066001019150611345565b600a8b60ff1610156112c657601060408601526002925060078461129c565b600c8b60ff1610156112e857600d60408601526007808652600493508461129c565b600e8b60ff16101561130e57600d6040860152600760608601819052600593508461129c565b60108b60ff1610156113325760108552600560608601526003925060069150611345565b6010855260056060860152600392508291505b60039390931c926000805b600560ff8216101561141157868160ff166005811061136b57fe5b60200201516113a157610320860661ffff16888260ff166005811061138c57fe5b63ffffffff90921660209290920201526113e9565b600a878260ff16600581106113b257fe5b6020020151610320880602816113c457fe5b0461ffff16888260ff16600581106113d857fe5b63ffffffff90921660209290920201525b878160ff16600581106113f857fe5b6020020151600a9690961c959190910190600101611350565b50600561138882900363ffffffff160460005b600560ff8216101561146d5781898260ff166005811061144057fe5b602002015101898260ff166005811061145557fe5b63ffffffff9092166020929092020152600101611424565b506040805160808101825260ff9d8e168152958d166020870152938c169385019390935299166060830152939a9099506005909302909601965090945050505050565b607e1c60071690565b600060208460ff161061150b576040805162461bcd60e51b81526020600482015260156024820152741d1a5b595e9bdb99481bdd5d081bd988189bdd5b99605a1b604482015290519081900360640190fd5b6104008310611561576040805162461bcd60e51b815260206004820152601b60248201527f636f756e747279496478496e545a206f7574206f6620626f756e640000000000604482015290519081900360640190fd5b631000000082106115b9576040805162461bcd60e51b815260206004820152601a60248201527f76616c20746f20656e636f6465206f7574206f6620626f756e64000000000000604482015290519081900360640190fd5b50601c82901b653fc000000000602685901b161781175b9392505050565b620fffff601460ff83160283901c165b92915050565b6003546001600160a01b0316331461164c576040805162461bcd60e51b815260206004820152601d60248201527f4f6e6c792073757065727573657220697320617574686f72697a65642e000000604482015290519081900360640190fd5b61100680546001600160a01b0319166001600160a01b0392909216919091179055565b611006546001600160a01b031633146116c9576040805162461bcd60e51b815260206004820152601760248201527627b7363c9021a7a79034b99030baba3437b934bd32b21760491b604482015290519081900360640190fd5b6116d38282612b5e565b611724576040805162461bcd60e51b815260206004820152601f60248201527f6d616e75616c206469766973696f6e206372656174696f6e206661696c656400604482015290519081900360640190fd5b5050565b8651600090600a60ff9091161061177f576040805162461bcd60e51b81526020600482015260166024820152751c1bdd195b9d1a585b081bdd5d081bd988189bdd5b9960521b604482015290519081900360640190fd5b6006886001602002015160ff16106117de576040805162461bcd60e51b815260206004820152601860248201527f666f72776172646e657373206f7574206f6620626f756e640000000000000000604482015290519081900360640190fd5b6008886002602002015160ff161061183d576040805162461bcd60e51b815260206004820152601860248201527f6c6566697473686e657373206f7574206f6620626f756e640000000000000000604482015290519081900360640190fd5b6008886003602002015160ff161061189c576040805162461bcd60e51b815260206004820152601b60248201527f616767726573736976656e657373206f7574206f6620626f756e640000000000604482015290519081900360640190fd5b604088015160ff166118ec57602088015160ff16156118ec5760405162461bcd60e51b815260040180806020018281038252602b815260200180612d0a602b913960400191505060405180910390fd5b60088560ff1610611944576040805162461bcd60e51b815260206004820152601d60248201527f67616d65734e6f6e53746f7070696e67206f7574206f6620626f756e64000000604482015290519081900360640190fd5b620100008b106119855760405162461bcd60e51b8152600401808060200182810382526021815260200180612d756021913960400191505060405180910390fd5b60008911801561199a57506508000000000089105b6119e3576040805162461bcd60e51b81526020600482015260156024820152741c1b185e595c9259081bdd5d081bd988189bdd5b99605a1b604482015290519081900360640190fd5b60005b600561ffff82161015611a25578060140261ffff168d8261ffff1660058110611a0b57fe5b602002015163ffffffff16901b91909117906001016119e6565b5060648b901b176074886000602002015160ff16901b176078886001602002015160ff16901b17607b886002602002015160ff16901b17607e886003602002015160ff16901b81179050608189901b8117905060ac87611a86576000611a89565b60015b60ff16901b1760ad86611a9d576000611aa0565b60015b60ff16901b8117905060ae8560ff16901b8117905060b18460ff16901b8117905060b483611acf576000611ad2565b60015b60ff16901b8117905060b58263ffffffff16901b8117905060cd8a60ff16901b811790509b9a5050505050505050505050565b602681901c601f1691601c82901c6103ff1691630fffffff1690565b6110095481565b6000611b3384612069565b15611b3f5750826115d0565b600782028301600080611b5287846129c2565b9250509150600080611b65848685611ed2565b915061ffff169150611b75612ccd565b611b7d612ceb565b6000611b8a878786611201565b925092509250611ba7838660008f8660008060008060008b611728565b9c9b505050505050505050505050565b607b1c60071690565b60006507ffffffffff821115611c1d576040805162461bcd60e51b815260206004820152601a60248201527f707265764c6561677565496478206f7574206f6620626f756e64000000000000604482015290519081900360640190fd5b5060301b6b07ffffffffff00000000000019919091161790565b62015180900490565b611007546001600160a01b03163314611ca0576040805162461bcd60e51b815260206004820152601f60248201527f4f6e6c792052656c6179206f776e657220697320617574686f72697a65642e00604482015290519081900360640190fd5b60ff8316600090815261101760205260409020548210611d07576040805162461bcd60e51b815260206004820152601c60248201527f436f756e74727920646f6573206e6f7420657869737420696e20545a00000000604482015290519081900360640190fd5b6000611d15848460006114b9565b60008181526110136020526040812054919250611d338686846114b9565b9050611d3e816124a2565b611d8f576040805162461bcd60e51b815260206004820152601e60248201527f63616e6e6f74207472616e736665722061206e6f6e2d626f74207465616d0000604482015290519081900360640190fd5b6001600160a01b038416611ddc576040805162461bcd60e51b815260206004820152600f60248201526e696e76616c6964206164647265737360881b604482015290519081900360640190fd5b6000611de8878761218c565b608002905060108103831115611e4757611e028787612b5e565b611e4757600181038310611e475760405162461bcd60e51b8152600401808060200182810382526040815260200180612d356040913960400191505060405180910390fd5b60008281526110166020908152604080832080546001600160a01b0319166001600160a01b038a1690811790915587845261101383529281902060018701905580518581529182019290925281517f77b66eb1e6d2bc131b79be4213ae7f08f29351c01060e10bcc0302278067bf38929181900390910190a150505050505050565b60741c600f1690565b604080516020808201869052600260ff8581169190910416828401528251808303840181526060909201909252805191012060009081906001841615611f1e5760088106600703611f23565b600881065b9150600260ff85160660010160ff1681901c905060078260ff16108015611f4c57506004810615155b15611f58576001820191505b600c81901c90611c8490066116d001600560ff8416118015611f7b5750612c3381115b15611f8e576102da820681019003612c33015b600e90049094039590945092505050565b60008080600385166024828060028410801590611fbb57508289105b15611fd457506000955085945084935061206292505050565b60028410156120115760046060858b0306048860ff16019150606060ff16848960ff1684036004028b03036002028161200957fe5b04905061204a565b60046060848b0306048860ff16019150606060ff16838960ff1684036004028b03036002028161203d57fe5b0460010190506002840393505b839450612056826128b8565b9650600e900694505050505b9250925092565b60cc1c60019081161490565b60301c6507ffffffffff1690565b6000601f8260ff1611156120de576040805162461bcd60e51b815260206004820152601c60248201527f63757272656e7453686972744e756d206f7574206f6620626f756e6400000000604482015290519081900360640190fd5b5065f800000000001991909116602b9190911b6607f80000000000161790565b60cd1c60ff1690565b60006115e761212561212061211b85612715565b612a08565b611096565b4203600e02611c37565b600061213a8461288d565b158061214d575061214b8484612829565b155b1561215a575060006115d0565b611016600061216a8686866114b9565b81526020810191909152604001600020546001600160a01b0316949350505050565b60006121978361288d565b15806121aa57506121a88383612829565b155b156121b7575060006115e7565b61101260006121c8858560006114b9565b815260200190815260200160002054905092915050565b600061101360006121c8858560006114b9565b6003546001600160a01b03163314612251576040805162461bcd60e51b815260206004820152601d60248201527f4f6e6c792073757065727573657220697320617574686f72697a65642e000000604482015290519081900360640190fd5b61100580546001600160a01b0383166001600160a01b0319918216811790925560016000526110166020527ffa7a96b4d6ac95044a0032db0542d73aff131935b42c5cad2a651430089c735980549091169091179055611009546122e3576040805133815290517fd897a53ea824a5415477b26429b871a884f46b6e8bf65a9978d9ac85c7eb871d9181900360200190a15b60408051600181526001600160a01b038316602082015281517f77b66eb1e6d2bc131b79be4213ae7f08f29351c01060e10bcc0302278067bf38929181900390910190a150565b600061233582612069565b612347576123428261287f565b6115e7565b5090565b600061235784846125e0565b9091109392505050565b6000601a61236e836129b9565b1492915050565b60b11c60071690565b60d61c60019081161490565b60008061239885858561212f565b6001600160a01b031614949350505050565b61101e5461101f546000916115e791849160ff169061257e565b611005546001600160a01b031690565b6000806123e26000876125ff565b90506123ee8186612083565b90506123fa8185611bc0565b905061240681846124fc565b9695505050505050565b60008060008060008061242287611b05565b919450925090506012810460808104600061243e8686846114b9565b905061244b8686856114b9565b6000828152611014602052604090205461100954919a506007020197506012840696505050505050509193909250565b61101f5461101e54600091829182916124969160ff16611f9f565b9250925092505b909192565b600060018214156124b55750600061109d565b50600090815261101660205260409020546001600160a01b03161590565b6000806000806124e285611b05565b9250925092506124f383838361234b565b95945050505050565b60006407ffffffff821115612558576040805162461bcd60e51b815260206004820152601a60248201527f6c61737453616c65426c6f636b206f7574206f6620626f756e64000000000000604482015290519081900360640190fd5b50605b1b6407ffffffff605b1b19919091161790565b611007546001600160a01b031690565b60006102a0821015612592575060006115d0565b6102a08204600060ff80861690871610156125b2578486601801036125b6565b8486035b60ff169050600481026102a08302018410156125d857506000190190506115d0565b5090506115d0565b600060086125ee8484612a12565b029392505050565b60781c60071690565b60006507ffffffffff82111561265c576040805162461bcd60e51b815260206004820152601b60248201527f63757272656e745465616d496478206f7574206f6620626f756e640000000000604482015290519081900360640190fd5b506507ffffffffff19919091161790565b600080600061101f546000141561268c5750600091508190508061249d565b61101f5461101e5461249691600019019060ff16611f9f565b605b1c6407ffffffff1690565b611006546001600160a01b0316331461270c576040805162461bcd60e51b815260206004820152601760248201527627b7363c9021a7a79034b99030baba3437b934bd32b21760491b604482015290519081900360640190fd5b6111ca81612c8b565b600061272082612069565b1561272c57508061109d565b61273582612853565b6127415750600061109d565b600080600061274f85611b05565b919450925090506012810460808104600061276b8686846114b9565b905061278f8861100954611014600085815260200190815260200160002054611b28565b98975050505050505050565b6003546001600160a01b031633146127fa576040805162461bcd60e51b815260206004820152601d60248201527f4f6e6c792073757065727573657220697320617574686f72697a65642e000000604482015290519081900360640190fd5b61100780546001600160a01b0319166001600160a01b0392909216919091179055565b60ad1c60019081161490565b60ff91909116600090815261101760205260409020541190565b611008546001600160a01b031690565b60008060008061286285611b05565b9250925092506124f3838383612b28565b60d51c60019081161490565b60811c6507ffffffffff1690565b600060ff8216158015906115e7575050601960ff9091161090565b61102f546001600160a01b031681565b6000601860178301066001019050919050565b611006546001600160a01b031690565b60b41c60019081161490565b611007546001600160a01b03163314612947576040805162461bcd60e51b815260206004820152601f60248201527f4f6e6c792052656c6179206f776e657220697320617574686f72697a65642e00604482015290519081900360640190fd5b60005b858110156129a75761299f87878381811061296157fe5b9050602002013560ff1686868481811061297757fe5b9050602002013585858581811061298a57fe5b905060200201356001600160a01b0316611c40565b60010161294a565b50505050505050565b60ae1c60071690565b602b1c601f1690565b6000806000806000806129d488611b05565b91945092509050601281046129ea8484836114b9565b99979850506012900695945050505050565b60ac1c60019081161490565b60641c61ffff1690565b600060106125ee848461218c565b611006546001600160a01b03163314612a7a576040805162461bcd60e51b815260206004820152601760248201527627b7363c9021a7a79034b99030baba3437b934bd32b21760491b604482015290519081900360640190fd5b6110095415612aca576040805162461bcd60e51b815260206004820152601760248201527663616e6e6f7420696e697469616c697a6520747769636560481b604482015290519081900360640190fd5b612ad381611c37565b61100955612ae082612b41565b611005546001600160a01b0316611724576040805133815290517fd897a53ea824a5415477b26429b871a884f46b6e8bf65a9978d9ac85c7eb871d9181900360200190a15050565b60006012612b3685856125e0565b029091109392505050565b60ff8116600090815261102760205260408120556111ca81612c8b565b6000806000612b6b61247b565b92505091508160ff168560ff16148015612b8857508060ff166001145b15612bd6576040805160ff871681526020810186905281517ff1f3e0c27394c92d62c194bc05a923c6f81e4bd4976f3aae70c03e7dcf33c361929181900390910190a16000925050506115e7565b6000612be4868660006114b9565b60008181526110126020526040812054919250612c028888846114b9565b6000848152611012602052604090206001840190559050612c22886123aa565b60008281526110146020908152604091829020600193909301909255805160ff8b168152918201899052818101849052517fc5d195855a200aa90e2052bcc795cedbc84c2a26556b1d5113b5a30c96003a0b9181900360600190a1506001979650505050505050565b60ff8116600090815261101760205260408120805460018101909155905b60018160ff161015612cc857612cbf8383612b5e565b50600101612ca9565b505050565b6040518060a001604052806005906020820280368337509192915050565b6040518060800160405280600490602082028036833750919291505056fe6c6566746973686e65732063616e206f6e6c79206265207a65726f20666f7220676f616c6b6565706572736469766973696f6e206372656174696f6e20776173206e656365737361727920746f2061737369676e206e657720626f742c20627574206974206661696c65646461794f664269727468496e556e697854696d65206f7574206f6620626f756e64a2646970667358221220225915148469cbee99d1c1065b67e3cc0bfe1959c5a7ce721fb848f96b3c454e64736f6c63430006030033",
  "source": "pragma solidity >= 0.6.3;\n\nimport \"../storage/AssetsView.sol\";\n\n/**\n @title Creation of all \"default\" game assets via creation of timezones, countries and divisions\n @author Freeverse.io, www.freeverse.io\n @dev Only other way of creating assets is via BuyNow pattern, in the Market contract.\n @dev All functions in this file modify storage. All view/pure funcions are inherited from AssetsView.\n @dev Timezones range from 1 to 24, with timeZone = 0 being null.\n @dev All storage is govenrned by Proxy, via the Storage contract.\n*/\n\n/// Warning: This contract must ALWAYS inherit AssetsView first, so that it ends up inheriting Storage before any other contract.\ncontract Assets is AssetsView {\n\n    event AssetsInit(address creatorAddr);\n    event DivisionCreation(uint8 timezone, uint256 countryIdxInTZ, uint256 divisionIdxInCountry);\n    event DivisionCreationFailed(uint8 timezone, uint256 countryIdxInTZ);\n    \n    //// Setter for main roles: COO, Market owner, Relay owner\n    function setCOO(address addr) external onlySuperUser { _COO = addr; }\n    \n    function setMarket(address addr) external onlySuperUser {\n        _market = addr;\n        _teamIdToOwner[ACADEMY_TEAM] = addr;\n        if (gameDeployDay == 0) { emit AssetsInit(msg.sender); }\n        emit TeamTransfer(ACADEMY_TEAM, addr);        \n    }\n    \n    function setRelay(address addr) external onlySuperUser { _relay = addr; }\n   \n\n    /// External Functions\n\n    /// Inits all 24 timezones, each with one country, each with one division\n    function initTZs(uint256 deployTimeInUnixEpochSecs) external onlyCOO {\n        require(gameDeployDay == 0, \"cannot initialize twice\");\n        gameDeployDay = secsToDays(deployTimeInUnixEpochSecs);\n        for (uint8 tz = 1; tz < 25; tz++) {\n            _initTimeZone(tz);\n        }\n        if (_market == NULL_ADDR) { emit AssetsInit(msg.sender); }\n    }\n\n    /// Next function is only used for testing: it inits only one timezone\n    function initSingleTZ(uint8 tz, uint256 deployTimeInUnixEpochSecs) external onlyCOO {\n        require(gameDeployDay == 0, \"cannot initialize twice\");\n        gameDeployDay = secsToDays(deployTimeInUnixEpochSecs);\n        _initTimeZone(tz);\n        if (_market == NULL_ADDR) { emit AssetsInit(msg.sender); }\n    }\n\n    function addDivisionManually(uint8 tz, uint256 countryIdxInTZ) external onlyCOO { \n        require(_addDivision(tz, countryIdxInTZ), \"manual division creation failed\"); \n    }\n\n    function addCountryManually(uint8 tz) external onlyCOO { _addCountry(tz); }\n\n    /// Entry point for new users: acquiring a bot team\n    function transferFirstBotToAddr(uint8 tz, uint256 countryIdxInTZ, address addr) public onlyRelay {\n        require(_tzToNCountries[tz] > countryIdxInTZ, \"Country does not exist in TZ\");\n        uint256 countryId = encodeTZCountryAndVal(tz, countryIdxInTZ, 0); \n        uint256 firstFreeBotIdx = _countryIdToNHumanTeams[countryId];\n        uint256 teamId = encodeTZCountryAndVal(tz, countryIdxInTZ, firstFreeBotIdx);\n        require(isBotTeam(teamId), \"cannot transfer a non-bot team\");\n        require(addr != NULL_ADDR, \"invalid address\");\n        // when we arrive to all teams created (minus 16), we start trying to create a new division.\n        // such creation will fail during the 15 minutes of half time of this timezone.\n        // Even in such case, we allow new assignments, until we reach the limit (no more bots available)\n        // For example, bot = 127 requires a new division to be created.\n        uint256 teamsInCountry = getNDivisionsInCountry(tz, countryIdxInTZ) * 128; // 128 = LEAGUES_PER_DIV * TEAMS_PER_LEAGUE\n        if (firstFreeBotIdx > (teamsInCountry - 16)) { \n            if (!_addDivision(tz, countryIdxInTZ)) {\n                require(firstFreeBotIdx < teamsInCountry - 1,  \"division creation was necessary to assign new bot, but it failed\");\n           }\n        }\n        _teamIdToOwner[teamId] = addr;\n        _countryIdToNHumanTeams[countryId] = firstFreeBotIdx + 1;\n        emit TeamTransfer(teamId, addr);\n    }\n    \n    /// Speeds up assignment to new users. \n    /// This function will crash if it cannot handle all transfers in one single TX\n    /// It is the responsibility of the caller to ensure that the arrays length match correctly\n    function transferFirstBotsToAddresses(uint8[] calldata tz, uint256[] calldata countryIdxInTZ, address[] calldata addr) external onlyRelay {\n        for (uint256 i = 0; i < tz.length; i++) {\n            transferFirstBotToAddr(tz[i], countryIdxInTZ[i], addr[i]); \n        }            \n    }\n    \n\n    // Private Functions\n\n    function _initTimeZone(uint8 tz) private {\n        _orgMapRoot[tz][0] = INIT_ORGMAP_HASH;\n        _addCountry(tz);\n    }\n    \n    function _addCountry(uint8 tz) private {\n        uint256 countryIdxInTZ = _tzToNCountries[tz];\n        _tzToNCountries[tz] = countryIdxInTZ + 1;\n        for (uint8 division = 0 ; division < DIVS_PER_LEAGUE_AT_START; division++){\n            _addDivision(tz, countryIdxInTZ); \n        }\n    }\n\n    function _addDivision(uint8 tz, uint256 countryIdxInTZ) private returns(bool) {\n        (uint8 tzToUpdate, , uint8 turnInDay) = nextTimeZoneToUpdate();\n        if((tz == tzToUpdate) && (turnInDay == 1)) {\n            // cannot create a division during half time of matches in that division\n            emit DivisionCreationFailed(tz, countryIdxInTZ);    \n            return false;\n        } \n        uint256 countryId = encodeTZCountryAndVal(tz, countryIdxInTZ, 0);\n        uint256 nDivs = _countryIdToNDivisions[countryId];\n        uint256 divisionId = encodeTZCountryAndVal(tz, countryIdxInTZ, nDivs);\n        _countryIdToNDivisions[countryId] = nDivs + 1;\n        _divisionIdToRound[divisionId] = getCurrentRound(tz) + 1;\n        emit DivisionCreation(tz, countryIdxInTZ, nDivs);\n        return true;\n    }\n}\n",
  "sourcePath": "/Users/jurgenkudla/proyects/laos/laos-goal-revolution/goalrev-ganache/contracts/storage/Assets.sol",
  "compiler": {
    "name": "solc",
    "version": "0.6.3+commit.8dda9521.Emscripten.clang"
  },
  "schemaVersion": "3.0.23",
  "updatedAt": "2024-10-18T06:45:39.817Z",
  "networkType": "ethereum",
  "devdoc": {
    "methods": {
      "computeBirthDayAndPotential(uint256,uint256,uint8)": {
        "params": {
          "playerCreationDay": "- days since unix epoch where the player was created as part of teams of a division"
        },
        "returns": {
          "dayOfBirth": "- days since unix epoch"
        }
      },
      "encodeTZCountryAndVal(uint8,uint256,uint256)": {
        "details": "PlayerId and TeamId both serialize a total of 43 bits:     timeZone        = 5 bits     countryIdxInTZ  = 10 bits     val             = 28 bits (either  (playerIdxInCountry or teamIdxInCountry)*"
      }
    }
  },
  "userdoc": {
    "methods": {
      "computeBirthDayAndPotential(uint256,uint256,uint8)": {
        "notice": "/ Compute a random age between 16 and 35.999, with random potential in [0,...7]"
      },
      "computeSkills(uint256,uint8,uint8)": {
        "notice": "/ Compute the pseudorandom skills, sum of the skills is 5K (1K each skill on average) / skills have currently, 16bits each, and there are 5 of them / potential is a number between 0 and 9 => takes 4 bit / 0: 000, 1: 001, 2: 010, 3: 011, 4: 100, 5: 101, 6: 110, 7: 111"
      },
      "daysToSecs(uint256)": {
        "notice": "TODO: remove from this contract, expose as interface for users"
      },
      "getOwnerTeamInCountry(uint8,uint256,uint256)": {
        "notice": "returns NULL_ADDR if team is bot"
      },
      "initSingleTZ(uint8,uint256)": {
        "notice": "Next function is only used for testing: it inits only one timezone"
      },
      "initTZs(uint256)": {
        "notice": "External Functions Inits all 24 timezones, each with one country, each with one division"
      },
      "isBotTeamInCountry(uint8,uint256,uint256)": {
        "notice": "Rest of view/pure functions "
      },
      "nextTimeZoneToUpdate()": {
        "notice": "each day has 24 hours, each with 4 verses => 96 verses per day. day = 0,..13 turnInDay = 0, 1, 2, 3 so for each TZ, we go from (day, turn) = (0, 0) ... (13,3) => a total of 14*4 = 56 turns per tz from these, all map easily to timeZones"
      },
      "setCOO(address)": {
        "notice": "/ Setter for main roles: COO, Market owner, Relay owner"
      },
      "timeZoneToUpdatePure(uint256,uint8)": {
        "notice": "tz0  : v = 0, V_DAY, 2 * V_DAY... tzN  : v = 4N + V_DAY * day,  day = 0,...6 tzN  : v = 4N + V_DAY * day,  day = 0,...6  => tzN - tz0 = (v - V_DAY*day)  => 4 tzN = 4 tz0 + v % VERSES_PER_DAY last : v = V_DAY + DELTA + V_DAY * 6  Imagine 2 tzs: 0:00 - tz0; 0:30 - NUL; 1:00 - tz1; 1:30 - tz0; 0:00 - tz0; 0:30 - tz1; So the last"
      },
      "transferFirstBotToAddr(uint8,uint256,address)": {
        "notice": "Entry point for new users: acquiring a bot team"
      },
      "transferFirstBotsToAddresses(uint8[],uint256[],address[])": {
        "notice": "Speeds up assignment to new users.  This function will crash if it cannot handle all transfers in one single TX It is the responsibility of the caller to ensure that the arrays length match correctly"
      }
    },
    "notice": "Warning: This contract must ALWAYS inherit AssetsView first, so that it ends up inheriting Storage before any other contract."
  }
}