{
  "contractName": "AssetsView",
  "abi": [
    {
      "anonymous": false,
      "inputs": [
        {
          "indexed": false,
          "internalType": "uint256",
          "name": "teamId",
          "type": "uint256"
        },
        {
          "indexed": false,
          "internalType": "address",
          "name": "to",
          "type": "address"
        }
      ],
      "name": "TeamTransfer",
      "type": "event"
    },
    {
      "inputs": [],
      "name": "COO",
      "outputs": [
        {
          "internalType": "address",
          "name": "",
          "type": "address"
        }
      ],
      "stateMutability": "view",
      "type": "function"
    },
    {
      "inputs": [],
      "name": "_stakers",
      "outputs": [
        {
          "internalType": "contract Stakers",
          "name": "",
          "type": "address"
        }
      ],
      "stateMutability": "view",
      "type": "function"
    },
    {
      "inputs": [
        {
          "internalType": "uint256",
          "name": "teamId",
          "type": "uint256"
        },
        {
          "internalType": "uint8",
          "name": "shirtNum",
          "type": "uint8"
        },
        {
          "internalType": "uint8",
          "name": "potential",
          "type": "uint8"
        }
      ],
      "name": "computeSkills",
      "outputs": [
        {
          "internalType": "uint32[5]",
          "name": "",
          "type": "uint32[5]"
        },
        {
          "internalType": "uint8[4]",
          "name": "",
          "type": "uint8[4]"
        },
        {
          "internalType": "uint32",
          "name": "",
          "type": "uint32"
        }
      ],
      "stateMutability": "pure",
      "type": "function"
    },
    {
      "inputs": [
        {
          "internalType": "uint8",
          "name": "timeZone",
          "type": "uint8"
        },
        {
          "internalType": "uint256",
          "name": "countryIdxInTZ",
          "type": "uint256"
        }
      ],
      "name": "countryInTZExists",
      "outputs": [
        {
          "internalType": "bool",
          "name": "",
          "type": "bool"
        }
      ],
      "stateMutability": "view",
      "type": "function"
    },
    {
      "inputs": [],
      "name": "cryptoMktAddr",
      "outputs": [
        {
          "internalType": "address",
          "name": "",
          "type": "address"
        }
      ],
      "stateMutability": "view",
      "type": "function"
    },
    {
      "inputs": [
        {
          "internalType": "uint256",
          "name": "encoded",
          "type": "uint256"
        }
      ],
      "name": "decodeTZCountryAndVal",
      "outputs": [
        {
          "internalType": "uint8",
          "name": "",
          "type": "uint8"
        },
        {
          "internalType": "uint256",
          "name": "",
          "type": "uint256"
        },
        {
          "internalType": "uint256",
          "name": "",
          "type": "uint256"
        }
      ],
      "stateMutability": "pure",
      "type": "function"
    },
    {
      "inputs": [
        {
          "internalType": "uint32[5]",
          "name": "skills",
          "type": "uint32[5]"
        },
        {
          "internalType": "uint256",
          "name": "dayOfBirth",
          "type": "uint256"
        },
        {
          "internalType": "uint8",
          "name": "generation",
          "type": "uint8"
        },
        {
          "internalType": "uint256",
          "name": "playerId",
          "type": "uint256"
        },
        {
          "internalType": "uint8[4]",
          "name": "birthTraits",
          "type": "uint8[4]"
        },
        {
          "internalType": "bool",
          "name": "alignedEndOfLastHalf",
          "type": "bool"
        },
        {
          "internalType": "bool",
          "name": "redCardLastGame",
          "type": "bool"
        },
        {
          "internalType": "uint8",
          "name": "gamesNonStopping",
          "type": "uint8"
        },
        {
          "internalType": "uint8",
          "name": "injuryWeeksLeft",
          "type": "uint8"
        },
        {
          "internalType": "bool",
          "name": "substitutedFirstHalf",
          "type": "bool"
        },
        {
          "internalType": "uint32",
          "name": "sumSkills",
          "type": "uint32"
        }
      ],
      "name": "encodePlayerSkills",
      "outputs": [
        {
          "internalType": "uint256",
          "name": "encoded",
          "type": "uint256"
        }
      ],
      "stateMutability": "pure",
      "type": "function"
    },
    {
      "inputs": [
        {
          "internalType": "uint256",
          "name": "currentTeamId",
          "type": "uint256"
        },
        {
          "internalType": "uint8",
          "name": "currentShirtNum",
          "type": "uint8"
        },
        {
          "internalType": "uint256",
          "name": "prevPlayerTeamId",
          "type": "uint256"
        },
        {
          "internalType": "uint256",
          "name": "lastSaleBlock",
          "type": "uint256"
        }
      ],
      "name": "encodePlayerState",
      "outputs": [
        {
          "internalType": "uint256",
          "name": "",
          "type": "uint256"
        }
      ],
      "stateMutability": "pure",
      "type": "function"
    },
    {
      "inputs": [
        {
          "internalType": "uint8",
          "name": "timeZone",
          "type": "uint8"
        },
        {
          "internalType": "uint256",
          "name": "countryIdxInTZ",
          "type": "uint256"
        },
        {
          "internalType": "uint256",
          "name": "val",
          "type": "uint256"
        }
      ],
      "name": "encodeTZCountryAndVal",
      "outputs": [
        {
          "internalType": "uint256",
          "name": "",
          "type": "uint256"
        }
      ],
      "stateMutability": "pure",
      "type": "function"
    },
    {
      "inputs": [],
      "name": "gameDeployDay",
      "outputs": [
        {
          "internalType": "uint256",
          "name": "",
          "type": "uint256"
        }
      ],
      "stateMutability": "view",
      "type": "function"
    },
    {
      "inputs": [
        {
          "internalType": "uint256",
          "name": "encodedSkills",
          "type": "uint256"
        }
      ],
      "name": "getAggressiveness",
      "outputs": [
        {
          "internalType": "uint256",
          "name": "",
          "type": "uint256"
        }
      ],
      "stateMutability": "pure",
      "type": "function"
    },
    {
      "inputs": [
        {
          "internalType": "uint256",
          "name": "encodedSkills",
          "type": "uint256"
        }
      ],
      "name": "getAlignedEndOfFirstHalf",
      "outputs": [
        {
          "internalType": "bool",
          "name": "",
          "type": "bool"
        }
      ],
      "stateMutability": "pure",
      "type": "function"
    },
    {
      "inputs": [
        {
          "internalType": "uint256",
          "name": "encodedSkills",
          "type": "uint256"
        }
      ],
      "name": "getBirthDay",
      "outputs": [
        {
          "internalType": "uint256",
          "name": "",
          "type": "uint256"
        }
      ],
      "stateMutability": "pure",
      "type": "function"
    },
    {
      "inputs": [
        {
          "internalType": "uint8",
          "name": "tz",
          "type": "uint8"
        }
      ],
      "name": "getCurrentRound",
      "outputs": [
        {
          "internalType": "uint256",
          "name": "",
          "type": "uint256"
        }
      ],
      "stateMutability": "view",
      "type": "function"
    },
    {
      "inputs": [
        {
          "internalType": "uint8",
          "name": "tz",
          "type": "uint8"
        },
        {
          "internalType": "uint8",
          "name": "tz1",
          "type": "uint8"
        },
        {
          "internalType": "uint256",
          "name": "verse",
          "type": "uint256"
        }
      ],
      "name": "getCurrentRoundPure",
      "outputs": [
        {
          "internalType": "uint256",
          "name": "",
          "type": "uint256"
        }
      ],
      "stateMutability": "pure",
      "type": "function"
    },
    {
      "inputs": [
        {
          "internalType": "uint256",
          "name": "playerState",
          "type": "uint256"
        }
      ],
      "name": "getCurrentShirtNum",
      "outputs": [
        {
          "internalType": "uint256",
          "name": "",
          "type": "uint256"
        }
      ],
      "stateMutability": "pure",
      "type": "function"
    },
    {
      "inputs": [
        {
          "internalType": "uint256",
          "name": "playerState",
          "type": "uint256"
        }
      ],
      "name": "getCurrentTeamIdFromPlayerState",
      "outputs": [
        {
          "internalType": "uint256",
          "name": "",
          "type": "uint256"
        }
      ],
      "stateMutability": "pure",
      "type": "function"
    },
    {
      "inputs": [
        {
          "internalType": "uint256",
          "name": "encodedSkills",
          "type": "uint256"
        }
      ],
      "name": "getForwardness",
      "outputs": [
        {
          "internalType": "uint256",
          "name": "",
          "type": "uint256"
        }
      ],
      "stateMutability": "pure",
      "type": "function"
    },
    {
      "inputs": [
        {
          "internalType": "uint256",
          "name": "encodedSkills",
          "type": "uint256"
        }
      ],
      "name": "getGamesNonStopping",
      "outputs": [
        {
          "internalType": "uint8",
          "name": "",
          "type": "uint8"
        }
      ],
      "stateMutability": "pure",
      "type": "function"
    },
    {
      "inputs": [
        {
          "internalType": "uint256",
          "name": "encodedSkills",
          "type": "uint256"
        }
      ],
      "name": "getGeneration",
      "outputs": [
        {
          "internalType": "uint256",
          "name": "",
          "type": "uint256"
        }
      ],
      "stateMutability": "pure",
      "type": "function"
    },
    {
      "inputs": [
        {
          "internalType": "uint256",
          "name": "encodedSkills",
          "type": "uint256"
        }
      ],
      "name": "getInjuryWeeksLeft",
      "outputs": [
        {
          "internalType": "uint8",
          "name": "",
          "type": "uint8"
        }
      ],
      "stateMutability": "pure",
      "type": "function"
    },
    {
      "inputs": [
        {
          "internalType": "uint256",
          "name": "encodedSkills",
          "type": "uint256"
        }
      ],
      "name": "getInternalPlayerId",
      "outputs": [
        {
          "internalType": "uint256",
          "name": "",
          "type": "uint256"
        }
      ],
      "stateMutability": "pure",
      "type": "function"
    },
    {
      "inputs": [
        {
          "internalType": "uint256",
          "name": "state",
          "type": "uint256"
        }
      ],
      "name": "getIsInTransitFromState",
      "outputs": [
        {
          "internalType": "bool",
          "name": "",
          "type": "bool"
        }
      ],
      "stateMutability": "pure",
      "type": "function"
    },
    {
      "inputs": [
        {
          "internalType": "uint256",
          "name": "encodedSkills",
          "type": "uint256"
        }
      ],
      "name": "getIsSpecial",
      "outputs": [
        {
          "internalType": "bool",
          "name": "",
          "type": "bool"
        }
      ],
      "stateMutability": "pure",
      "type": "function"
    },
    {
      "inputs": [
        {
          "internalType": "uint256",
          "name": "playerState",
          "type": "uint256"
        }
      ],
      "name": "getLastSaleBlock",
      "outputs": [
        {
          "internalType": "uint256",
          "name": "",
          "type": "uint256"
        }
      ],
      "stateMutability": "pure",
      "type": "function"
    },
    {
      "inputs": [
        {
          "internalType": "uint256",
          "name": "encodedSkills",
          "type": "uint256"
        }
      ],
      "name": "getLeftishness",
      "outputs": [
        {
          "internalType": "uint256",
          "name": "",
          "type": "uint256"
        }
      ],
      "stateMutability": "pure",
      "type": "function"
    },
    {
      "inputs": [
        {
          "internalType": "uint8",
          "name": "timeZone",
          "type": "uint8"
        },
        {
          "internalType": "uint256",
          "name": "countryIdxInTZ",
          "type": "uint256"
        }
      ],
      "name": "getNDivisionsInCountry",
      "outputs": [
        {
          "internalType": "uint256",
          "name": "",
          "type": "uint256"
        }
      ],
      "stateMutability": "view",
      "type": "function"
    },
    {
      "inputs": [
        {
          "internalType": "uint8",
          "name": "timeZone",
          "type": "uint8"
        },
        {
          "internalType": "uint256",
          "name": "countryIdxInTZ",
          "type": "uint256"
        }
      ],
      "name": "getNHumansInCountry",
      "outputs": [
        {
          "internalType": "uint256",
          "name": "",
          "type": "uint256"
        }
      ],
      "stateMutability": "view",
      "type": "function"
    },
    {
      "inputs": [
        {
          "internalType": "uint8",
          "name": "timeZone",
          "type": "uint8"
        },
        {
          "internalType": "uint256",
          "name": "countryIdxInTZ",
          "type": "uint256"
        }
      ],
      "name": "getNLeaguesInCountry",
      "outputs": [
        {
          "internalType": "uint256",
          "name": "",
          "type": "uint256"
        }
      ],
      "stateMutability": "view",
      "type": "function"
    },
    {
      "inputs": [
        {
          "internalType": "uint8",
          "name": "timeZone",
          "type": "uint8"
        },
        {
          "internalType": "uint256",
          "name": "countryIdxInTZ",
          "type": "uint256"
        }
      ],
      "name": "getNTeamsInCountry",
      "outputs": [
        {
          "internalType": "uint256",
          "name": "",
          "type": "uint256"
        }
      ],
      "stateMutability": "view",
      "type": "function"
    },
    {
      "inputs": [
        {
          "internalType": "uint256",
          "name": "encodedSkills",
          "type": "uint256"
        }
      ],
      "name": "getOutOfGameFirstHalf",
      "outputs": [
        {
          "internalType": "bool",
          "name": "",
          "type": "bool"
        }
      ],
      "stateMutability": "pure",
      "type": "function"
    },
    {
      "inputs": [
        {
          "internalType": "uint8",
          "name": "timeZone",
          "type": "uint8"
        },
        {
          "internalType": "uint256",
          "name": "countryIdxInTZ",
          "type": "uint256"
        },
        {
          "internalType": "uint256",
          "name": "teamIdxInCountry",
          "type": "uint256"
        }
      ],
      "name": "getOwnerTeamInCountry",
      "outputs": [
        {
          "internalType": "address",
          "name": "",
          "type": "address"
        }
      ],
      "stateMutability": "view",
      "type": "function"
    },
    {
      "inputs": [
        {
          "internalType": "uint256",
          "name": "encodedSkills",
          "type": "uint256"
        }
      ],
      "name": "getPlayerIdFromSkills",
      "outputs": [
        {
          "internalType": "uint256",
          "name": "",
          "type": "uint256"
        }
      ],
      "stateMutability": "pure",
      "type": "function"
    },
    {
      "inputs": [
        {
          "internalType": "uint256",
          "name": "encodedSkills",
          "type": "uint256"
        }
      ],
      "name": "getPotential",
      "outputs": [
        {
          "internalType": "uint256",
          "name": "",
          "type": "uint256"
        }
      ],
      "stateMutability": "pure",
      "type": "function"
    },
    {
      "inputs": [
        {
          "internalType": "uint256",
          "name": "playerState",
          "type": "uint256"
        }
      ],
      "name": "getPrevPlayerTeamId",
      "outputs": [
        {
          "internalType": "uint256",
          "name": "",
          "type": "uint256"
        }
      ],
      "stateMutability": "pure",
      "type": "function"
    },
    {
      "inputs": [
        {
          "internalType": "uint256",
          "name": "encodedSkills",
          "type": "uint256"
        }
      ],
      "name": "getRedCardLastGame",
      "outputs": [
        {
          "internalType": "bool",
          "name": "",
          "type": "bool"
        }
      ],
      "stateMutability": "pure",
      "type": "function"
    },
    {
      "inputs": [
        {
          "internalType": "uint256",
          "name": "encodedSkills",
          "type": "uint256"
        },
        {
          "internalType": "uint8",
          "name": "skillIdx",
          "type": "uint8"
        }
      ],
      "name": "getSkill",
      "outputs": [
        {
          "internalType": "uint256",
          "name": "",
          "type": "uint256"
        }
      ],
      "stateMutability": "pure",
      "type": "function"
    },
    {
      "inputs": [
        {
          "internalType": "uint256",
          "name": "encodedSkills",
          "type": "uint256"
        }
      ],
      "name": "getSubstitutedFirstHalf",
      "outputs": [
        {
          "internalType": "bool",
          "name": "",
          "type": "bool"
        }
      ],
      "stateMutability": "pure",
      "type": "function"
    },
    {
      "inputs": [
        {
          "internalType": "uint256",
          "name": "encodedSkills",
          "type": "uint256"
        }
      ],
      "name": "getSumOfSkills",
      "outputs": [
        {
          "internalType": "uint256",
          "name": "",
          "type": "uint256"
        }
      ],
      "stateMutability": "pure",
      "type": "function"
    },
    {
      "inputs": [
        {
          "internalType": "uint256",
          "name": "encodedSkills",
          "type": "uint256"
        }
      ],
      "name": "getYellowCardFirstHalf",
      "outputs": [
        {
          "internalType": "bool",
          "name": "",
          "type": "bool"
        }
      ],
      "stateMutability": "pure",
      "type": "function"
    },
    {
      "inputs": [
        {
          "internalType": "uint256",
          "name": "teamId",
          "type": "uint256"
        }
      ],
      "name": "isBotTeam",
      "outputs": [
        {
          "internalType": "bool",
          "name": "",
          "type": "bool"
        }
      ],
      "stateMutability": "view",
      "type": "function"
    },
    {
      "inputs": [
        {
          "internalType": "uint8",
          "name": "timeZone",
          "type": "uint8"
        },
        {
          "internalType": "uint256",
          "name": "countryIdxInTZ",
          "type": "uint256"
        },
        {
          "internalType": "uint256",
          "name": "teamIdxInCountry",
          "type": "uint256"
        }
      ],
      "name": "isBotTeamInCountry",
      "outputs": [
        {
          "internalType": "bool",
          "name": "",
          "type": "bool"
        }
      ],
      "stateMutability": "view",
      "type": "function"
    },
    {
      "inputs": [],
      "name": "market",
      "outputs": [
        {
          "internalType": "address",
          "name": "",
          "type": "address"
        }
      ],
      "stateMutability": "view",
      "type": "function"
    },
    {
      "inputs": [],
      "name": "nextTimeZoneToUpdate",
      "outputs": [
        {
          "internalType": "uint8",
          "name": "tz",
          "type": "uint8"
        },
        {
          "internalType": "uint8",
          "name": "day",
          "type": "uint8"
        },
        {
          "internalType": "uint8",
          "name": "turnInDay",
          "type": "uint8"
        }
      ],
      "stateMutability": "view",
      "type": "function"
    },
    {
      "inputs": [
        {
          "internalType": "uint256",
          "name": "tz",
          "type": "uint256"
        }
      ],
      "name": "normalizeTZ",
      "outputs": [
        {
          "internalType": "uint8",
          "name": "",
          "type": "uint8"
        }
      ],
      "stateMutability": "pure",
      "type": "function"
    },
    {
      "inputs": [],
      "name": "prevTimeZoneToUpdate",
      "outputs": [
        {
          "internalType": "uint8",
          "name": "tz",
          "type": "uint8"
        },
        {
          "internalType": "uint8",
          "name": "day",
          "type": "uint8"
        },
        {
          "internalType": "uint8",
          "name": "turnInDay",
          "type": "uint8"
        }
      ],
      "stateMutability": "view",
      "type": "function"
    },
    {
      "inputs": [],
      "name": "relay",
      "outputs": [
        {
          "internalType": "address",
          "name": "",
          "type": "address"
        }
      ],
      "stateMutability": "view",
      "type": "function"
    },
    {
      "inputs": [
        {
          "internalType": "uint256",
          "name": "state",
          "type": "uint256"
        },
        {
          "internalType": "uint8",
          "name": "currentShirtNum",
          "type": "uint8"
        }
      ],
      "name": "setCurrentShirtNum",
      "outputs": [
        {
          "internalType": "uint256",
          "name": "",
          "type": "uint256"
        }
      ],
      "stateMutability": "pure",
      "type": "function"
    },
    {
      "inputs": [
        {
          "internalType": "uint256",
          "name": "playerState",
          "type": "uint256"
        },
        {
          "internalType": "uint256",
          "name": "teamId",
          "type": "uint256"
        }
      ],
      "name": "setCurrentTeamId",
      "outputs": [
        {
          "internalType": "uint256",
          "name": "",
          "type": "uint256"
        }
      ],
      "stateMutability": "pure",
      "type": "function"
    },
    {
      "inputs": [
        {
          "internalType": "uint256",
          "name": "state",
          "type": "uint256"
        },
        {
          "internalType": "uint256",
          "name": "lastSaleBlock",
          "type": "uint256"
        }
      ],
      "name": "setLastSaleBlock",
      "outputs": [
        {
          "internalType": "uint256",
          "name": "",
          "type": "uint256"
        }
      ],
      "stateMutability": "pure",
      "type": "function"
    },
    {
      "inputs": [
        {
          "internalType": "uint256",
          "name": "state",
          "type": "uint256"
        },
        {
          "internalType": "uint256",
          "name": "value",
          "type": "uint256"
        }
      ],
      "name": "setPrevPlayerTeamId",
      "outputs": [
        {
          "internalType": "uint256",
          "name": "",
          "type": "uint256"
        }
      ],
      "stateMutability": "pure",
      "type": "function"
    },
    {
      "inputs": [
        {
          "internalType": "uint8",
          "name": "timeZone",
          "type": "uint8"
        },
        {
          "internalType": "uint256",
          "name": "countryIdxInTZ",
          "type": "uint256"
        },
        {
          "internalType": "uint256",
          "name": "teamIdxInCountry",
          "type": "uint256"
        }
      ],
      "name": "teamExistsInCountry",
      "outputs": [
        {
          "internalType": "bool",
          "name": "",
          "type": "bool"
        }
      ],
      "stateMutability": "view",
      "type": "function"
    },
    {
      "inputs": [
        {
          "internalType": "uint256",
          "name": "verse",
          "type": "uint256"
        },
        {
          "internalType": "uint8",
          "name": "TZForRound1",
          "type": "uint8"
        }
      ],
      "name": "timeZoneToUpdatePure",
      "outputs": [
        {
          "internalType": "uint8",
          "name": "timezone",
          "type": "uint8"
        },
        {
          "internalType": "uint8",
          "name": "day",
          "type": "uint8"
        },
        {
          "internalType": "uint8",
          "name": "turnInDay",
          "type": "uint8"
        }
      ],
      "stateMutability": "pure",
      "type": "function"
    },
    {
      "inputs": [
        {
          "internalType": "uint8",
          "name": "timeZone",
          "type": "uint8"
        }
      ],
      "name": "tzExists",
      "outputs": [
        {
          "internalType": "bool",
          "name": "",
          "type": "bool"
        }
      ],
      "stateMutability": "pure",
      "type": "function"
    },
    {
      "inputs": [
        {
          "internalType": "uint8",
          "name": "timeZone",
          "type": "uint8"
        },
        {
          "internalType": "uint256",
          "name": "countryIdxInTZ",
          "type": "uint256"
        },
        {
          "internalType": "uint256",
          "name": "playerIdxInCountry",
          "type": "uint256"
        }
      ],
      "name": "wasPlayerCreatedInCountry",
      "outputs": [
        {
          "internalType": "bool",
          "name": "",
          "type": "bool"
        }
      ],
      "stateMutability": "view",
      "type": "function"
    },
    {
      "inputs": [
        {
          "internalType": "uint256",
          "name": "playerId",
          "type": "uint256"
        }
      ],
      "name": "wasPlayerCreatedVirtually",
      "outputs": [
        {
          "internalType": "bool",
          "name": "",
          "type": "bool"
        }
      ],
      "stateMutability": "view",
      "type": "function"
    },
    {
      "inputs": [
        {
          "internalType": "uint256",
          "name": "teamId",
          "type": "uint256"
        }
      ],
      "name": "wasTeamCreatedVirtually",
      "outputs": [
        {
          "internalType": "bool",
          "name": "",
          "type": "bool"
        }
      ],
      "stateMutability": "view",
      "type": "function"
    },
    {
      "inputs": [
        {
          "internalType": "uint256",
          "name": "playerId",
          "type": "uint256"
        }
      ],
      "name": "getPlayerSkillsAtBirth",
      "outputs": [
        {
          "internalType": "uint256",
          "name": "",
          "type": "uint256"
        }
      ],
      "stateMutability": "view",
      "type": "function"
    },
    {
      "inputs": [
        {
          "internalType": "uint256",
          "name": "playerId",
          "type": "uint256"
        },
        {
          "internalType": "uint256",
          "name": "_gameDeployDay",
          "type": "uint256"
        },
        {
          "internalType": "uint256",
          "name": "_divisionCreationRound",
          "type": "uint256"
        }
      ],
      "name": "getPlayerSkillsAtBirthPure",
      "outputs": [
        {
          "internalType": "uint256",
          "name": "",
          "type": "uint256"
        }
      ],
      "stateMutability": "pure",
      "type": "function"
    },
    {
      "inputs": [
        {
          "internalType": "uint256",
          "name": "playerId",
          "type": "uint256"
        }
      ],
      "name": "getTeamIdCreationDayAndShirtNum",
      "outputs": [
        {
          "internalType": "uint256",
          "name": "teamId",
          "type": "uint256"
        },
        {
          "internalType": "uint256",
          "name": "creationDay",
          "type": "uint256"
        },
        {
          "internalType": "uint8",
          "name": "shirtNum",
          "type": "uint8"
        }
      ],
      "stateMutability": "view",
      "type": "function"
    },
    {
      "inputs": [
        {
          "internalType": "uint256",
          "name": "playerId",
          "type": "uint256"
        },
        {
          "internalType": "uint256",
          "name": "creationDay",
          "type": "uint256"
        }
      ],
      "name": "getTeamIdCreationDayAndShirtNumPure",
      "outputs": [
        {
          "internalType": "uint256",
          "name": "teamId",
          "type": "uint256"
        },
        {
          "internalType": "uint256",
          "name": "",
          "type": "uint256"
        },
        {
          "internalType": "uint8",
          "name": "shirtNum",
          "type": "uint8"
        }
      ],
      "stateMutability": "pure",
      "type": "function"
    },
    {
      "inputs": [
        {
          "internalType": "uint256",
          "name": "teamId",
          "type": "uint256"
        },
        {
          "internalType": "uint256",
          "name": "playerCreationDay",
          "type": "uint256"
        },
        {
          "internalType": "uint8",
          "name": "shirtNum",
          "type": "uint8"
        }
      ],
      "name": "computeBirthDayAndPotential",
      "outputs": [
        {
          "internalType": "uint16",
          "name": "dayOfBirth",
          "type": "uint16"
        },
        {
          "internalType": "uint8",
          "name": "potential",
          "type": "uint8"
        }
      ],
      "stateMutability": "pure",
      "type": "function"
    },
    {
      "inputs": [
        {
          "internalType": "uint256",
          "name": "secs",
          "type": "uint256"
        }
      ],
      "name": "secsToDays",
      "outputs": [
        {
          "internalType": "uint256",
          "name": "",
          "type": "uint256"
        }
      ],
      "stateMutability": "pure",
      "type": "function"
    },
    {
      "inputs": [
        {
          "internalType": "uint8",
          "name": "tz",
          "type": "uint8"
        }
      ],
      "name": "countCountries",
      "outputs": [
        {
          "internalType": "uint256",
          "name": "",
          "type": "uint256"
        }
      ],
      "stateMutability": "view",
      "type": "function"
    },
    {
      "inputs": [
        {
          "internalType": "uint256",
          "name": "dayz",
          "type": "uint256"
        }
      ],
      "name": "daysToSecs",
      "outputs": [
        {
          "internalType": "uint256",
          "name": "",
          "type": "uint256"
        }
      ],
      "stateMutability": "pure",
      "type": "function"
    },
    {
      "inputs": [
        {
          "internalType": "uint256",
          "name": "playerId",
          "type": "uint256"
        }
      ],
      "name": "getPlayerAgeInDays",
      "outputs": [
        {
          "internalType": "uint256",
          "name": "",
          "type": "uint256"
        }
      ],
      "stateMutability": "view",
      "type": "function"
    },
    {
      "inputs": [
        {
          "internalType": "uint256",
          "name": "divisionId",
          "type": "uint256"
        }
      ],
      "name": "divisionIdToRound",
      "outputs": [
        {
          "internalType": "uint256",
          "name": "",
          "type": "uint256"
        }
      ],
      "stateMutability": "view",
      "type": "function"
    }
  ],
  "bytecode": "0x608060405234801561001057600080fd5b50612084806100206000396000f3fe608060405234801561001057600080fd5b50600436106103f05760003560e01c806380c794ce11610215578063ce506ec511610125578063e1b27e6b116100b8578063f1d6521211610087578063f1d6521214610d3e578063f2c3576414610d61578063f2dc657f14610d7e578063f9d0723d14610d9b578063fcf9b3be14610dc1576103f0565b8063e1b27e6b14610cdf578063e37528bb14610ce7578063e804e51914610d04578063eb78b7b714610d21576103f0565b8063d2f7967d116100f4578063d2f7967d14610c7d578063d403fabd14610c9a578063d8f73c3c14610cba578063dcadab5c14610cc2576103f0565b8063ce506ec514610c15578063cebc43a614610c3b578063d02254a514610c43578063d1b3d8fd14610c60576103f0565b8063b59589d1116101a8578063c37b1c2511610177578063c37b1c2514610b93578063c395d7a814610bb6578063c566b5bc14610bbe578063c73f808d14610bdb578063cc7d473b14610bf8576103f0565b8063b59589d114610b18578063bbb1178014610b20578063c04f6d5314610b50578063c2bc41cd14610b76576103f0565b80638a89148c116101e45780638a89148c14610ab35780638cc9a8d514610abb578063a21ef9fa14610ad8578063af76cd0114610af5576103f0565b806380c794ce14610a1b57806380f5560514610a3b5780638608ff4314610a435780638828a76114610a75576103f0565b8063434807ad11610310578063595ef25b116102a357806376c2d9601161027257806376c2d960146109565780637933e8831461098257806379e765971461099f5780637ffa3a2e146109d257806380bac709146109ef576103f0565b8063595ef25b146108a55780635adb40f5146108ed5780636a6cb69f146109135780636f6c2ae014610939576103f0565b80634bea2a69116102df5780634bea2a69146108285780634db989fd1461084557806356e3df971461086b5780635940a77f14610888576103f0565b8063434807ad1461074357806343af15ee14610760578063471d6e80146107ac57806347524b60146107f7576103f0565b806329d0dcfb1161038857806334ff47351161035757806334ff4735146106bd5780633518dd1d146106e657806337a86302146107035780633be83c0a14610726576103f0565b806329d0dcfb146105895780632ead0553146105af5780633260840b14610676578063332b8ea3146106b5576103f0565b8063111cfab3116103c4578063111cfab31461047e578063127f05e01461049b5780631fc7768f1461054057806320748ae81461055d576103f0565b80620edf9b146103f5578063022da63a146104245780630abcd3e5146104415780631060c9c214610461575b600080fd5b6104126004803603602081101561040b57600080fd5b5035610ded565b60408051918252519081900360200190f35b6104126004803603602081101561043a57600080fd5b5035610df9565b6104126004803603602081101561045757600080fd5b503560ff16610e04565b6104126004803603602081101561047757600080fd5b5035610e1a565b6104126004803603602081101561049457600080fd5b5035610e25565b6104c9600480360360608110156104b157600080fd5b5080359060ff60208201358116916040013516610e38565b604051808460a080838360005b838110156104ee5781810151838201526020016104d6565b5050505090500183600460200280838360005b83811015610519578181015183820152602001610501565b505050509050018263ffffffff1663ffffffff168152602001935050505060405180910390f35b6104126004803603602081101561055657600080fd5b50356110e7565b6104126004803603606081101561057357600080fd5b5060ff81351690602081013590604001356110f0565b6104126004803603604081101561059f57600080fd5b508035906020013560ff1661120e565b61041260048036036102408110156105c657600080fd5b810190808060a001906005806020026040519081016040528092919082600560200280828437600092019190915250506040805160808181018352939685359660ff6020880135169693840135959194509260e081019291606090910190600490839083908082843760009201919091525091945050508035151591506020810135151590604081013560ff90811691606081013590911690608081013515159060a0013563ffffffff16611224565b6106936004803603602081101561068c57600080fd5b5035611601565b6040805160ff9094168452602084019290925282820152519081900360600190f35b61041261161d565b610412600480360360608110156106d357600080fd5b5080359060208101359060400135611624565b610412600480360360208110156106fc57600080fd5b50356116b3565b6104126004803603604081101561071957600080fd5b50803590602001356116bc565b6104126004803603602081101561073c57600080fd5b5035611733565b6104126004803603602081101561075957600080fd5b503561173c565b61078c6004803603606081101561077657600080fd5b508035906020810135906040013560ff16611745565b6040805161ffff909316835260ff90911660208301528051918290030190f35b6107d2600480360360408110156107c257600080fd5b508035906020013560ff16611812565b6040805160ff9485168152928416602084015292168183015290519081900360600190f35b6108146004803603602081101561080d57600080fd5b50356118dc565b604080519115158252519081900360200190f35b6104126004803603602081101561083e57600080fd5b50356118e8565b6104126004803603604081101561085b57600080fd5b508035906020013560ff166118f6565b6104126004803603602081101561088157600080fd5b5035611971565b6104126004803603602081101561089e57600080fd5b503561197a565b6108d1600480360360608110156108bb57600080fd5b5060ff81351690602081013590604001356119a2565b604080516001600160a01b039092168252519081900360200190f35b6104126004803603604081101561090357600080fd5b5060ff81351690602001356119ff565b6104126004803603604081101561092957600080fd5b5060ff8135169060200135611a52565b6104126004803603602081101561094f57600080fd5b5035611a65565b6108146004803603606081101561096c57600080fd5b5060ff8135169060208101359060400135611a86565b6108146004803603602081101561099857600080fd5b5035611a9c565b6109bc600480360360208110156109b557600080fd5b5035611ab0565b6040805160ff9092168252519081900360200190f35b610814600480360360208110156109e857600080fd5b5035611ab9565b61081460048036036060811015610a0557600080fd5b5060ff8135169060208101359060400135611ac5565b61041260048036036020811015610a3157600080fd5b503560ff16611ae5565b6108d1611aff565b61041260048036036080811015610a5957600080fd5b5080359060ff6020820135169060408101359060600135611b0f565b610a9260048036036020811015610a8b57600080fd5b5035611b4b565b60408051938452602084019290925260ff1682820152519081900360600190f35b6107d2611bb6565b61081460048036036020811015610ad157600080fd5b5035611bdd565b61081460048036036020811015610aee57600080fd5b5035611c0e565b61041260048036036040811015610b0b57600080fd5b5080359060200135611c37565b6108d1611ca9565b61041260048036036060811015610b3657600080fd5b5060ff813581169160208101359091169060400135611cb9565b61041260048036036040811015610b6657600080fd5b5060ff8135169060200135611d1b565b61041260048036036020811015610b8c57600080fd5b5035611d31565b61041260048036036040811015610ba957600080fd5b5080359060200135611d3a565b6107d2611da8565b61041260048036036020811015610bd457600080fd5b5035611de0565b61041260048036036020811015610bf157600080fd5b5035611ded565b61081460048036036020811015610c0e57600080fd5b5035611e73565b61081460048036036040811015610c2b57600080fd5b5060ff8135169060200135611e7f565b6108d1611e99565b61081460048036036020811015610c5957600080fd5b5035611ea9565b61081460048036036020811015610c7657600080fd5b5035611ec9565b61041260048036036020811015610c9357600080fd5b5035611ed5565b61081460048036036020811015610cb057600080fd5b503560ff16611ee3565b6108d1611efe565b6109bc60048036036020811015610cd857600080fd5b5035611f0e565b6108d1611f21565b61081460048036036020811015610cfd57600080fd5b5035611f31565b6109bc60048036036020811015610d1a57600080fd5b5035611f3d565b61041260048036036020811015610d3757600080fd5b5035611f46565b610a9260048036036040811015610d5457600080fd5b5080359060200135611f4f565b61081460048036036020811015610d7757600080fd5b5035611f89565b61041260048036036020811015610d9457600080fd5b5035611f95565b61041260048036036040811015610db157600080fd5b5060ff8135169060200135611f9f565b61081460048036036060811015610dd757600080fd5b5060ff8135169060208101359060400135611fad565b6201518081025b919050565b6507ffffffffff1690565b60ff166000908152611017602052604090205490565b60b51c6207ffff1690565b6000908152611014602052604090205490565b610e40611fc6565b610e48611fe4565b6000610e52611fc6565b610e5a611fc6565b6040805160208082018b905260ff8a1682840181905283518084038501815260609093019093528151910120600281811c9260009283926003909116911015610eb457600e85526006604086015260009250829150610f7c565b60078b60ff161015610ede576004855260106060860152600192506007845b066001019150610f7c565b600a8b60ff161015610efd576010604086015260029250600784610ed3565b600c8b60ff161015610f1f57600d604086015260078086526004935084610ed3565b600e8b60ff161015610f4557600d60408601526007606086018190526005935084610ed3565b60108b60ff161015610f695760108552600560608601526003925060069150610f7c565b6010855260056060860152600392508291505b60039390931c926000805b600560ff8216101561104857868160ff1660058110610fa257fe5b6020020151610fd857610320860661ffff16888260ff1660058110610fc357fe5b63ffffffff9092166020929092020152611020565b600a878260ff1660058110610fe957fe5b602002015161032088060281610ffb57fe5b0461ffff16888260ff166005811061100f57fe5b63ffffffff90921660209290920201525b878160ff166005811061102f57fe5b6020020151600a9690961c959190910190600101610f87565b50600561138882900363ffffffff160460005b600560ff821610156110a45781898260ff166005811061107757fe5b602002015101898260ff166005811061108c57fe5b63ffffffff909216602092909202015260010161105b565b506040805160808101825260ff9d8e168152958d166020870152938c169385019390935299166060830152939a9099506005909302909601965090945050505050565b607e1c60071690565b600060208460ff1610611142576040805162461bcd60e51b81526020600482015260156024820152741d1a5b595e9bdb99481bdd5d081bd988189bdd5b99605a1b604482015290519081900360640190fd5b6104008310611198576040805162461bcd60e51b815260206004820152601b60248201527f636f756e747279496478496e545a206f7574206f6620626f756e640000000000604482015290519081900360640190fd5b631000000082106111f0576040805162461bcd60e51b815260206004820152601a60248201527f76616c20746f20656e636f6465206f7574206f6620626f756e64000000000000604482015290519081900360640190fd5b50601c82901b653fc000000000602685901b161781175b9392505050565b620fffff601460ff83160283901c165b92915050565b8651600090600a60ff9091161061127b576040805162461bcd60e51b81526020600482015260166024820152751c1bdd195b9d1a585b081bdd5d081bd988189bdd5b9960521b604482015290519081900360640190fd5b6006886001602002015160ff16106112da576040805162461bcd60e51b815260206004820152601860248201527f666f72776172646e657373206f7574206f6620626f756e640000000000000000604482015290519081900360640190fd5b6008886002602002015160ff1610611339576040805162461bcd60e51b815260206004820152601860248201527f6c6566697473686e657373206f7574206f6620626f756e640000000000000000604482015290519081900360640190fd5b6008886003602002015160ff1610611398576040805162461bcd60e51b815260206004820152601b60248201527f616767726573736976656e657373206f7574206f6620626f756e640000000000604482015290519081900360640190fd5b604088015160ff166113e857602088015160ff16156113e85760405162461bcd60e51b815260040180806020018281038252602b815260200180612003602b913960400191505060405180910390fd5b60088560ff1610611440576040805162461bcd60e51b815260206004820152601d60248201527f67616d65734e6f6e53746f7070696e67206f7574206f6620626f756e64000000604482015290519081900360640190fd5b620100008b106114815760405162461bcd60e51b815260040180806020018281038252602181526020018061202e6021913960400191505060405180910390fd5b60008911801561149657506508000000000089105b6114df576040805162461bcd60e51b81526020600482015260156024820152741c1b185e595c9259081bdd5d081bd988189bdd5b99605a1b604482015290519081900360640190fd5b60005b600561ffff82161015611521578060140261ffff168d8261ffff166005811061150757fe5b602002015163ffffffff16901b91909117906001016114e2565b5060648b901b176074886000602002015160ff16901b176078886001602002015160ff16901b17607b886002602002015160ff16901b17607e886003602002015160ff16901b81179050608189901b8117905060ac87611582576000611585565b60015b60ff16901b1760ad8661159957600061159c565b60015b60ff16901b8117905060ae8560ff16901b8117905060b18460ff16901b8117905060b4836115cb5760006115ce565b60015b60ff16901b8117905060b58263ffffffff16901b8117905060cd8a60ff16901b811790509b9a5050505050505050505050565b602681901c601f1691601c82901c6103ff1691630fffffff1690565b6110095481565b600061162f846118dc565b1561163b575082611207565b60078202830160008061164e8784611f4f565b9250509150600080611661848685611745565b915061ffff169150611671611fc6565b611679611fe4565b6000611686878786610e38565b9250925092506116a3838660008f8660008060008060008b611224565b9c9b505050505050505050505050565b607b1c60071690565b60006507ffffffffff821115611719576040805162461bcd60e51b815260206004820152601a60248201527f707265764c6561677565496478206f7574206f6620626f756e64000000000000604482015290519081900360640190fd5b5060301b6b07ffffffffff00000000000019919091161790565b62015180900490565b60741c600f1690565b604080516020808201869052600260ff85811691909104168284015282518083038401815260609092019092528051910120600090819060018416156117915760088106600703611796565b600881065b9150600260ff85160660010160ff1681901c905060078260ff161080156117bf57506004810615155b156117cb576001820191505b600c81901c90611c8490066116d001600560ff84161180156117ee5750612c3381115b15611801576102da820681019003612c33015b600e90049094039590945092505050565b6000808060038516602482806002841080159061182e57508289105b156118475750600095508594508493506118d592505050565b60028410156118845760046060858b0306048860ff16019150606060ff16848960ff1684036004028b03036002028161187c57fe5b0490506118bd565b60046060848b0306048860ff16019150606060ff16838960ff1684036004028b0303600202816118b057fe5b0460010190506002840393505b8394506118c982611f0e565b9650600e900694505050505b9250925092565b60cc1c60019081161490565b60301c6507ffffffffff1690565b6000601f8260ff161115611951576040805162461bcd60e51b815260206004820152601c60248201527f63757272656e7453686972744e756d206f7574206f6620626f756e6400000000604482015290519081900360640190fd5b5065f800000000001991909116602b9190911b6607f80000000000161790565b60cd1c60ff1690565b600061121e61199861199361198e85611ded565b611f95565b610ded565b4203600e02611733565b60006119ad84611ee3565b15806119c057506119be8484611e7f565b155b156119cd57506000611207565b61101660006119dd8686866110f0565b81526020810191909152604001600020546001600160a01b0316949350505050565b6000611a0a83611ee3565b1580611a1d5750611a1b8383611e7f565b155b15611a2a5750600061121e565b6110126000611a3b858560006110f0565b815260200190815260200160002054905092915050565b60006110136000611a3b858560006110f0565b6000611a70826118dc565b611a8257611a7d82611ed5565b61121e565b5090565b6000611a928484611d1b565b9091109392505050565b6000601a611aa983611f46565b1492915050565b60b11c60071690565b60d61c60019081161490565b600080611ad38585856119a2565b6001600160a01b031614949350505050565b61101e5461101f5460009161121e91849160ff1690611cb9565b611005546001600160a01b031690565b600080611b1d600087611d3a565b9050611b2981866118f6565b9050611b3581856116bc565b9050611b418184611c37565b9695505050505050565b600080600080600080611b5d87611601565b9194509250905060128104608081046000611b798686846110f0565b9050611b868686856110f0565b6000828152611014602052604090205461100954919a506007020197506012840696505050505050509193909250565b61101f5461101e5460009182918291611bd19160ff16611812565b9250925092505b909192565b60006001821415611bf057506000610df4565b50600090815261101660205260409020546001600160a01b03161590565b600080600080611c1d85611601565b925092509250611c2e838383611a86565b95945050505050565b60006407ffffffff821115611c93576040805162461bcd60e51b815260206004820152601a60248201527f6c61737453616c65426c6f636b206f7574206f6620626f756e64000000000000604482015290519081900360640190fd5b50605b1b6407ffffffff605b1b19919091161790565b611007546001600160a01b031690565b60006102a0821015611ccd57506000611207565b6102a08204600060ff8086169087161015611ced57848660180103611cf1565b8486035b60ff169050600481026102a0830201841015611d135750600019019050611207565b509050611207565b60006008611d298484611f9f565b029392505050565b60781c60071690565b60006507ffffffffff821115611d97576040805162461bcd60e51b815260206004820152601b60248201527f63757272656e745465616d496478206f7574206f6620626f756e640000000000604482015290519081900360640190fd5b506507ffffffffff19919091161790565b600080600061101f5460001415611dc757506000915081905080611bd8565b61101f5461101e54611bd191600019019060ff16611812565b605b1c6407ffffffff1690565b6000611df8826118dc565b15611e04575080610df4565b611e0d82611ea9565b611e1957506000610df4565b6000806000611e2785611601565b9194509250905060128104608081046000611e438686846110f0565b9050611e678861100954611014600085815260200190815260200160002054611624565b98975050505050505050565b60ad1c60019081161490565b60ff91909116600090815261101760205260409020541190565b611008546001600160a01b031690565b600080600080611eb885611601565b925092509250611c2e838383611fad565b60d51c60019081161490565b60811c6507ffffffffff1690565b600060ff82161580159061121e575050601960ff9091161090565b61102f546001600160a01b031681565b6000601860178301066001019050919050565b611006546001600160a01b031690565b60b41c60019081161490565b60ae1c60071690565b602b1c601f1690565b600080600080600080611f6188611601565b9194509250905060128104611f778484836110f0565b99979850506012900695945050505050565b60ac1c60019081161490565b60641c61ffff1690565b60006010611d2984846119ff565b60006012611fbb8585611d1b565b029091109392505050565b6040518060a001604052806005906020820280368337509192915050565b6040518060800160405280600490602082028036833750919291505056fe6c6566746973686e65732063616e206f6e6c79206265207a65726f20666f7220676f616c6b6565706572736461794f664269727468496e556e697854696d65206f7574206f6620626f756e64a264697066735822122004df43774841ede34981c5b02302e55f63ce6f8835597c12d2b6f8c22ed4d16d64736f6c63430006030033",
  "source": "pragma solidity >= 0.6.3;\n\nimport \"./UniverseInfo.sol\";\nimport \"../encoders/EncodingSkills.sol\";\nimport \"../encoders/EncodingState.sol\";\nimport \"./ComputeSkills.sol\";\n\n/**\n @title Library of View/Pure functions to needed by game assets\n @author Freeverse.io, www.freeverse.io\n*/\n\n/// Warning: This contract must ALWAYS inherit UniverseInfo first, so that it ends up inheriting Storage before any other contract.\ncontract AssetsView is UniverseInfo, EncodingSkills, EncodingState, ComputeSkills {\n    \n    // function getPlayerSkillsAtBirth(uint256 playerId) public view returns (uint256) {\n    //     if (getIsSpecial(playerId)) return playerId;\n    //     if (!wasPlayerCreatedVirtually(playerId)) return 0;\n    //     (uint256 teamId, uint256 playerCreationDay, uint8 shirtNum) = getTeamIdCreationDayAndShirtNum(playerId);\n    //     (uint256 dayOfBirth, uint8 potential) = computeBirthDayAndPotential(teamId, playerCreationDay, shirtNum);\n    //     (uint32[N_SKILLS] memory skills, uint8[4] memory birthTraits, uint32 sumSkills) = computeSkills(teamId, shirtNum, potential);\n    //     return encodePlayerSkills(skills, dayOfBirth, 0, playerId, birthTraits, false, false, 0, 0, false, sumSkills);\n    // }\n\n    function getPlayerSkillsAtBirth(uint256 playerId) public view returns (uint256) {\n        if (getIsSpecial(playerId)) return playerId;\n        if (!wasPlayerCreatedVirtually(playerId)) return 0;\n        (uint8 tz, uint256 countryIdxInTZ, uint256 playerIdxInCountry) = decodeTZCountryAndVal(playerId);\n        uint256 teamIdxInCountry = playerIdxInCountry / PLAYERS_PER_TEAM_INIT;\n        uint256 divisionIdx = teamIdxInCountry / TEAMS_PER_DIVISION;\n        uint256 divisionId = encodeTZCountryAndVal(tz, countryIdxInTZ, divisionIdx);\n        return getPlayerSkillsAtBirthPure(playerId, gameDeployDay, _divisionIdToRound[divisionId]);\n    }\n\n    function getPlayerSkillsAtBirthPure(uint256 playerId, uint256 _gameDeployDay, uint256 _divisionCreationRound) public pure returns (uint256) {\n        if (getIsSpecial(playerId)) return playerId;\n        // if (!wasPlayerCreatedVirtually(playerId)) return 0;\n        uint256 divisionCreationDay = _gameDeployDay + _divisionCreationRound * DAYS_PER_ROUND;\n        (uint256 teamId, , uint8 shirtNum) = getTeamIdCreationDayAndShirtNumPure(playerId, divisionCreationDay);\n        (uint256 dayOfBirth, uint8 potential) = computeBirthDayAndPotential(teamId, divisionCreationDay, shirtNum);\n        (uint32[N_SKILLS] memory skills, uint8[4] memory birthTraits, uint32 sumSkills) = computeSkills(teamId, shirtNum, potential);\n        return encodePlayerSkills(skills, dayOfBirth, 0, playerId, birthTraits, false, false, 0, 0, false, sumSkills);\n    }\n\n    function getTeamIdCreationDayAndShirtNum(uint256 playerId) public view returns(uint256 teamId, uint256 creationDay, uint8 shirtNum) {\n        (uint8 tz, uint256 countryIdxInTZ, uint256 playerIdxInCountry) = decodeTZCountryAndVal(playerId);\n        uint256 teamIdxInCountry = playerIdxInCountry / PLAYERS_PER_TEAM_INIT;\n        uint256 divisionIdx = teamIdxInCountry / TEAMS_PER_DIVISION;\n        uint256 divisionId = encodeTZCountryAndVal(tz, countryIdxInTZ, divisionIdx);\n        teamId = encodeTZCountryAndVal(tz, countryIdxInTZ, teamIdxInCountry);\n        creationDay = gameDeployDay + _divisionIdToRound[divisionId] * DAYS_PER_ROUND;\n        shirtNum = uint8(playerIdxInCountry % PLAYERS_PER_TEAM_INIT);\n    }\n\n    function getTeamIdCreationDayAndShirtNumPure(uint256 playerId, uint256 creationDay) public pure returns(uint256 teamId, uint256, uint8 shirtNum) {\n        (uint8 tz, uint256 countryIdxInTZ, uint256 playerIdxInCountry) = decodeTZCountryAndVal(playerId);\n        uint256 teamIdxInCountry = playerIdxInCountry / PLAYERS_PER_TEAM_INIT;\n        teamId = encodeTZCountryAndVal(tz, countryIdxInTZ, teamIdxInCountry);\n        shirtNum = uint8(playerIdxInCountry % PLAYERS_PER_TEAM_INIT);\n        return(teamId, creationDay, shirtNum);\n    }\n\n    //// Compute a random age between 16 and 35.999, with random potential in [0,...7]\n    //// @param playerCreationDay - days since unix epoch where the player was created as part of teams of a division\n    //// @return dayOfBirth - days since unix epoch\n    function computeBirthDayAndPotential(uint256 teamId, uint256 playerCreationDay, uint8 shirtNum) public pure returns (uint16 dayOfBirth, uint8 potential) {\n        /// generate a DNA that is unique to pairs of players in the universe.\n        /// each team has different DNAs, but within a same team, shirts = 0,1 have the same, shirts = 2,3 have the same...etc\n        uint256 dna = uint256(keccak256(abi.encode(teamId, shirtNum/2)));\n        /// Generate pairs of potentials such that each is in [0,...,7] and the sum is 7, so average is 3.5\n        potential = (shirtNum % 2 == 0) ? uint8(dna % (MAX_POTENTIAL_AT_BIRTH+1)) : MAX_POTENTIAL_AT_BIRTH - uint8(dna % (MAX_POTENTIAL_AT_BIRTH+1));\n        /// generate a different dna for each member of the pair by bit-shifting dna differently\n        dna >>= (1 +(shirtNum % 2));\n        /// Increase potential average to 4.25 = 3.5 + 0.75 \n        if ((potential < 7) && (dna % 4) != 0) potential += 1;\n        /// Compute days in range [16,36]\n        uint256 ageInDays = 5840 + (dna % 7300);  /// 5840 = 16y, 7300 = 20y\n        /// ensure that good potential players are not above 31,\n        /// by subtracting what is left to reach 31, plus a random between 0 and 2 years\n        dna >>= 12;\n        if (potential > 5 && ageInDays > 11315) ageInDays -= (ageInDays - 11315) + (dna % 730); /// 11315 = 31y, 730 = 2y.\n        dayOfBirth = uint16(playerCreationDay - ageInDays / INGAMETIME_VS_REALTIME); \n    }\n    \n\n\n    function secsToDays(uint256 secs) public pure returns (uint256) {\n        return secs / 86400;  /// 86400 = 3600 * 24\n    }\n\n    function countCountries(uint8 tz) public view returns (uint256){\n        return _tzToNCountries[tz];\n    }\n    \n    /// TODO: remove from this contract, expose as interface for users\n    function daysToSecs(uint256 dayz) public pure returns (uint256) {\n        return dayz * 86400; /// 86400 = 3600 * 24 * 365\n    }\n\n    function getPlayerAgeInDays(uint256 playerId) public view returns (uint256) {\n        return secsToDays(INGAMETIME_VS_REALTIME * (now - daysToSecs(getBirthDay(getPlayerSkillsAtBirth(playerId)))));\n    }\n    \n    function divisionIdToRound(uint256 divisionId) public view returns(uint256) { return _divisionIdToRound[divisionId]; }\n    \n}\n",
  "sourcePath": "/Users/jurgenkudla/proyects/laos/laos-goal-revolution/goalrev-ganache/contracts/storage/AssetsView.sol",
  "compiler": {
    "name": "solc",
    "version": "0.6.3+commit.8dda9521.Emscripten.clang"
  },
  "schemaVersion": "3.0.23",
  "updatedAt": "2024-10-18T06:09:35.454Z",
  "devdoc": {
    "methods": {
      "computeBirthDayAndPotential(uint256,uint256,uint8)": {
        "params": {
          "playerCreationDay": "- days since unix epoch where the player was created as part of teams of a division"
        },
        "returns": {
          "dayOfBirth": "- days since unix epoch"
        }
      },
      "encodeTZCountryAndVal(uint8,uint256,uint256)": {
        "details": "PlayerId and TeamId both serialize a total of 43 bits:     timeZone        = 5 bits     countryIdxInTZ  = 10 bits     val             = 28 bits (either  (playerIdxInCountry or teamIdxInCountry)*"
      }
    }
  },
  "userdoc": {
    "methods": {
      "computeBirthDayAndPotential(uint256,uint256,uint8)": {
        "notice": "/ Compute a random age between 16 and 35.999, with random potential in [0,...7]"
      },
      "computeSkills(uint256,uint8,uint8)": {
        "notice": "/ Compute the pseudorandom skills, sum of the skills is 5K (1K each skill on average) / skills have currently, 16bits each, and there are 5 of them / potential is a number between 0 and 9 => takes 4 bit / 0: 000, 1: 001, 2: 010, 3: 011, 4: 100, 5: 101, 6: 110, 7: 111"
      },
      "daysToSecs(uint256)": {
        "notice": "TODO: remove from this contract, expose as interface for users"
      },
      "getOwnerTeamInCountry(uint8,uint256,uint256)": {
        "notice": "returns NULL_ADDR if team is bot"
      },
      "isBotTeamInCountry(uint8,uint256,uint256)": {
        "notice": "Rest of view/pure functions "
      },
      "nextTimeZoneToUpdate()": {
        "notice": "each day has 24 hours, each with 4 verses => 96 verses per day. day = 0,..13 turnInDay = 0, 1, 2, 3 so for each TZ, we go from (day, turn) = (0, 0) ... (13,3) => a total of 14*4 = 56 turns per tz from these, all map easily to timeZones"
      },
      "timeZoneToUpdatePure(uint256,uint8)": {
        "notice": "tz0  : v = 0, V_DAY, 2 * V_DAY... tzN  : v = 4N + V_DAY * day,  day = 0,...6 tzN  : v = 4N + V_DAY * day,  day = 0,...6  => tzN - tz0 = (v - V_DAY*day)  => 4 tzN = 4 tz0 + v % VERSES_PER_DAY last : v = V_DAY + DELTA + V_DAY * 6  Imagine 2 tzs: 0:00 - tz0; 0:30 - NUL; 1:00 - tz1; 1:30 - tz0; 0:00 - tz0; 0:30 - tz1; So the last"
      }
    },
    "notice": "Warning: This contract must ALWAYS inherit UniverseInfo first, so that it ends up inheriting Storage before any other contract."
  }
}