{
  "contractName": "AssetsView",
  "abi": [
    {
      "anonymous": false,
      "inputs": [
        {
          "indexed": false,
          "internalType": "uint256",
          "name": "teamId",
          "type": "uint256"
        },
        {
          "indexed": false,
          "internalType": "address",
          "name": "to",
          "type": "address"
        }
      ],
      "name": "TeamTransfer",
      "type": "event"
    },
    {
      "inputs": [],
      "name": "COO",
      "outputs": [
        {
          "internalType": "address",
          "name": "",
          "type": "address"
        }
      ],
      "stateMutability": "view",
      "type": "function"
    },
    {
      "inputs": [],
      "name": "_stakers",
      "outputs": [
        {
          "internalType": "contract Stakers",
          "name": "",
          "type": "address"
        }
      ],
      "stateMutability": "view",
      "type": "function"
    },
    {
      "inputs": [
        {
          "internalType": "uint256",
          "name": "teamId",
          "type": "uint256"
        },
        {
          "internalType": "uint8",
          "name": "shirtNum",
          "type": "uint8"
        },
        {
          "internalType": "uint8",
          "name": "potential",
          "type": "uint8"
        }
      ],
      "name": "computeSkills",
      "outputs": [
        {
          "internalType": "uint32[5]",
          "name": "",
          "type": "uint32[5]"
        },
        {
          "internalType": "uint8[4]",
          "name": "",
          "type": "uint8[4]"
        },
        {
          "internalType": "uint32",
          "name": "",
          "type": "uint32"
        }
      ],
      "stateMutability": "pure",
      "type": "function"
    },
    {
      "inputs": [
        {
          "internalType": "uint8",
          "name": "timeZone",
          "type": "uint8"
        },
        {
          "internalType": "uint256",
          "name": "countryIdxInTZ",
          "type": "uint256"
        }
      ],
      "name": "countryInTZExists",
      "outputs": [
        {
          "internalType": "bool",
          "name": "",
          "type": "bool"
        }
      ],
      "stateMutability": "view",
      "type": "function"
    },
    {
      "inputs": [],
      "name": "cryptoMktAddr",
      "outputs": [
        {
          "internalType": "address",
          "name": "",
          "type": "address"
        }
      ],
      "stateMutability": "view",
      "type": "function"
    },
    {
      "inputs": [
        {
          "internalType": "uint256",
          "name": "encoded",
          "type": "uint256"
        }
      ],
      "name": "decodeTZCountryAndVal",
      "outputs": [
        {
          "internalType": "uint8",
          "name": "",
          "type": "uint8"
        },
        {
          "internalType": "uint256",
          "name": "",
          "type": "uint256"
        },
        {
          "internalType": "uint256",
          "name": "",
          "type": "uint256"
        }
      ],
      "stateMutability": "pure",
      "type": "function"
    },
    {
      "inputs": [
        {
          "internalType": "uint32[5]",
          "name": "skills",
          "type": "uint32[5]"
        },
        {
          "internalType": "uint256",
          "name": "dayOfBirth",
          "type": "uint256"
        },
        {
          "internalType": "uint8",
          "name": "generation",
          "type": "uint8"
        },
        {
          "internalType": "uint256",
          "name": "playerId",
          "type": "uint256"
        },
        {
          "internalType": "uint8[4]",
          "name": "birthTraits",
          "type": "uint8[4]"
        },
        {
          "internalType": "bool",
          "name": "alignedEndOfLastHalf",
          "type": "bool"
        },
        {
          "internalType": "bool",
          "name": "redCardLastGame",
          "type": "bool"
        },
        {
          "internalType": "uint8",
          "name": "gamesNonStopping",
          "type": "uint8"
        },
        {
          "internalType": "uint8",
          "name": "injuryWeeksLeft",
          "type": "uint8"
        },
        {
          "internalType": "bool",
          "name": "substitutedFirstHalf",
          "type": "bool"
        },
        {
          "internalType": "uint32",
          "name": "sumSkills",
          "type": "uint32"
        }
      ],
      "name": "encodePlayerSkills",
      "outputs": [
        {
          "internalType": "uint256",
          "name": "encoded",
          "type": "uint256"
        }
      ],
      "stateMutability": "pure",
      "type": "function"
    },
    {
      "inputs": [
        {
          "internalType": "uint256",
          "name": "currentTeamId",
          "type": "uint256"
        },
        {
          "internalType": "uint8",
          "name": "currentShirtNum",
          "type": "uint8"
        },
        {
          "internalType": "uint256",
          "name": "prevPlayerTeamId",
          "type": "uint256"
        },
        {
          "internalType": "uint256",
          "name": "lastSaleBlock",
          "type": "uint256"
        }
      ],
      "name": "encodePlayerState",
      "outputs": [
        {
          "internalType": "uint256",
          "name": "",
          "type": "uint256"
        }
      ],
      "stateMutability": "pure",
      "type": "function"
    },
    {
      "inputs": [
        {
          "internalType": "uint8",
          "name": "timeZone",
          "type": "uint8"
        },
        {
          "internalType": "uint256",
          "name": "countryIdxInTZ",
          "type": "uint256"
        },
        {
          "internalType": "uint256",
          "name": "val",
          "type": "uint256"
        }
      ],
      "name": "encodeTZCountryAndVal",
      "outputs": [
        {
          "internalType": "uint256",
          "name": "",
          "type": "uint256"
        }
      ],
      "stateMutability": "pure",
      "type": "function"
    },
    {
      "inputs": [],
      "name": "gameDeployDay",
      "outputs": [
        {
          "internalType": "uint256",
          "name": "",
          "type": "uint256"
        }
      ],
      "stateMutability": "view",
      "type": "function"
    },
    {
      "inputs": [
        {
          "internalType": "uint256",
          "name": "encodedSkills",
          "type": "uint256"
        }
      ],
      "name": "getAggressiveness",
      "outputs": [
        {
          "internalType": "uint256",
          "name": "",
          "type": "uint256"
        }
      ],
      "stateMutability": "pure",
      "type": "function"
    },
    {
      "inputs": [
        {
          "internalType": "uint256",
          "name": "encodedSkills",
          "type": "uint256"
        }
      ],
      "name": "getAlignedEndOfFirstHalf",
      "outputs": [
        {
          "internalType": "bool",
          "name": "",
          "type": "bool"
        }
      ],
      "stateMutability": "pure",
      "type": "function"
    },
    {
      "inputs": [
        {
          "internalType": "uint256",
          "name": "encodedSkills",
          "type": "uint256"
        }
      ],
      "name": "getBirthDay",
      "outputs": [
        {
          "internalType": "uint256",
          "name": "",
          "type": "uint256"
        }
      ],
      "stateMutability": "pure",
      "type": "function"
    },
    {
      "inputs": [
        {
          "internalType": "uint8",
          "name": "tz",
          "type": "uint8"
        }
      ],
      "name": "getCurrentRound",
      "outputs": [
        {
          "internalType": "uint256",
          "name": "",
          "type": "uint256"
        }
      ],
      "stateMutability": "view",
      "type": "function"
    },
    {
      "inputs": [
        {
          "internalType": "uint8",
          "name": "tz",
          "type": "uint8"
        },
        {
          "internalType": "uint8",
          "name": "tz1",
          "type": "uint8"
        },
        {
          "internalType": "uint256",
          "name": "verse",
          "type": "uint256"
        }
      ],
      "name": "getCurrentRoundPure",
      "outputs": [
        {
          "internalType": "uint256",
          "name": "",
          "type": "uint256"
        }
      ],
      "stateMutability": "pure",
      "type": "function"
    },
    {
      "inputs": [
        {
          "internalType": "uint256",
          "name": "playerState",
          "type": "uint256"
        }
      ],
      "name": "getCurrentShirtNum",
      "outputs": [
        {
          "internalType": "uint256",
          "name": "",
          "type": "uint256"
        }
      ],
      "stateMutability": "pure",
      "type": "function"
    },
    {
      "inputs": [
        {
          "internalType": "uint256",
          "name": "playerState",
          "type": "uint256"
        }
      ],
      "name": "getCurrentTeamIdFromPlayerState",
      "outputs": [
        {
          "internalType": "uint256",
          "name": "",
          "type": "uint256"
        }
      ],
      "stateMutability": "pure",
      "type": "function"
    },
    {
      "inputs": [
        {
          "internalType": "uint256",
          "name": "encodedSkills",
          "type": "uint256"
        }
      ],
      "name": "getForwardness",
      "outputs": [
        {
          "internalType": "uint256",
          "name": "",
          "type": "uint256"
        }
      ],
      "stateMutability": "pure",
      "type": "function"
    },
    {
      "inputs": [
        {
          "internalType": "uint256",
          "name": "encodedSkills",
          "type": "uint256"
        }
      ],
      "name": "getGamesNonStopping",
      "outputs": [
        {
          "internalType": "uint8",
          "name": "",
          "type": "uint8"
        }
      ],
      "stateMutability": "pure",
      "type": "function"
    },
    {
      "inputs": [
        {
          "internalType": "uint256",
          "name": "encodedSkills",
          "type": "uint256"
        }
      ],
      "name": "getGeneration",
      "outputs": [
        {
          "internalType": "uint256",
          "name": "",
          "type": "uint256"
        }
      ],
      "stateMutability": "pure",
      "type": "function"
    },
    {
      "inputs": [
        {
          "internalType": "uint256",
          "name": "encodedSkills",
          "type": "uint256"
        }
      ],
      "name": "getInjuryWeeksLeft",
      "outputs": [
        {
          "internalType": "uint8",
          "name": "",
          "type": "uint8"
        }
      ],
      "stateMutability": "pure",
      "type": "function"
    },
    {
      "inputs": [
        {
          "internalType": "uint256",
          "name": "encodedSkills",
          "type": "uint256"
        }
      ],
      "name": "getInternalPlayerId",
      "outputs": [
        {
          "internalType": "uint256",
          "name": "",
          "type": "uint256"
        }
      ],
      "stateMutability": "pure",
      "type": "function"
    },
    {
      "inputs": [
        {
          "internalType": "uint256",
          "name": "state",
          "type": "uint256"
        }
      ],
      "name": "getIsInTransitFromState",
      "outputs": [
        {
          "internalType": "bool",
          "name": "",
          "type": "bool"
        }
      ],
      "stateMutability": "pure",
      "type": "function"
    },
    {
      "inputs": [
        {
          "internalType": "uint256",
          "name": "encodedSkills",
          "type": "uint256"
        }
      ],
      "name": "getIsSpecial",
      "outputs": [
        {
          "internalType": "bool",
          "name": "",
          "type": "bool"
        }
      ],
      "stateMutability": "pure",
      "type": "function"
    },
    {
      "inputs": [
        {
          "internalType": "uint256",
          "name": "playerState",
          "type": "uint256"
        }
      ],
      "name": "getLastSaleBlock",
      "outputs": [
        {
          "internalType": "uint256",
          "name": "",
          "type": "uint256"
        }
      ],
      "stateMutability": "pure",
      "type": "function"
    },
    {
      "inputs": [
        {
          "internalType": "uint256",
          "name": "encodedSkills",
          "type": "uint256"
        }
      ],
      "name": "getLeftishness",
      "outputs": [
        {
          "internalType": "uint256",
          "name": "",
          "type": "uint256"
        }
      ],
      "stateMutability": "pure",
      "type": "function"
    },
    {
      "inputs": [
        {
          "internalType": "uint8",
          "name": "timeZone",
          "type": "uint8"
        },
        {
          "internalType": "uint256",
          "name": "countryIdxInTZ",
          "type": "uint256"
        }
      ],
      "name": "getNDivisionsInCountry",
      "outputs": [
        {
          "internalType": "uint256",
          "name": "",
          "type": "uint256"
        }
      ],
      "stateMutability": "view",
      "type": "function"
    },
    {
      "inputs": [
        {
          "internalType": "uint8",
          "name": "timeZone",
          "type": "uint8"
        },
        {
          "internalType": "uint256",
          "name": "countryIdxInTZ",
          "type": "uint256"
        }
      ],
      "name": "getNHumansInCountry",
      "outputs": [
        {
          "internalType": "uint256",
          "name": "",
          "type": "uint256"
        }
      ],
      "stateMutability": "view",
      "type": "function"
    },
    {
      "inputs": [
        {
          "internalType": "uint8",
          "name": "timeZone",
          "type": "uint8"
        },
        {
          "internalType": "uint256",
          "name": "countryIdxInTZ",
          "type": "uint256"
        }
      ],
      "name": "getNLeaguesInCountry",
      "outputs": [
        {
          "internalType": "uint256",
          "name": "",
          "type": "uint256"
        }
      ],
      "stateMutability": "view",
      "type": "function"
    },
    {
      "inputs": [
        {
          "internalType": "uint8",
          "name": "timeZone",
          "type": "uint8"
        },
        {
          "internalType": "uint256",
          "name": "countryIdxInTZ",
          "type": "uint256"
        }
      ],
      "name": "getNTeamsInCountry",
      "outputs": [
        {
          "internalType": "uint256",
          "name": "",
          "type": "uint256"
        }
      ],
      "stateMutability": "view",
      "type": "function"
    },
    {
      "inputs": [
        {
          "internalType": "uint256",
          "name": "encodedSkills",
          "type": "uint256"
        }
      ],
      "name": "getOutOfGameFirstHalf",
      "outputs": [
        {
          "internalType": "bool",
          "name": "",
          "type": "bool"
        }
      ],
      "stateMutability": "pure",
      "type": "function"
    },
    {
      "inputs": [
        {
          "internalType": "uint8",
          "name": "timeZone",
          "type": "uint8"
        },
        {
          "internalType": "uint256",
          "name": "countryIdxInTZ",
          "type": "uint256"
        },
        {
          "internalType": "uint256",
          "name": "teamIdxInCountry",
          "type": "uint256"
        }
      ],
      "name": "getOwnerTeamInCountry",
      "outputs": [
        {
          "internalType": "address",
          "name": "",
          "type": "address"
        }
      ],
      "stateMutability": "view",
      "type": "function"
    },
    {
      "inputs": [
        {
          "internalType": "uint256",
          "name": "encodedSkills",
          "type": "uint256"
        }
      ],
      "name": "getPlayerIdFromSkills",
      "outputs": [
        {
          "internalType": "uint256",
          "name": "",
          "type": "uint256"
        }
      ],
      "stateMutability": "pure",
      "type": "function"
    },
    {
      "inputs": [
        {
          "internalType": "uint256",
          "name": "encodedSkills",
          "type": "uint256"
        }
      ],
      "name": "getPotential",
      "outputs": [
        {
          "internalType": "uint256",
          "name": "",
          "type": "uint256"
        }
      ],
      "stateMutability": "pure",
      "type": "function"
    },
    {
      "inputs": [
        {
          "internalType": "uint256",
          "name": "playerState",
          "type": "uint256"
        }
      ],
      "name": "getPrevPlayerTeamId",
      "outputs": [
        {
          "internalType": "uint256",
          "name": "",
          "type": "uint256"
        }
      ],
      "stateMutability": "pure",
      "type": "function"
    },
    {
      "inputs": [
        {
          "internalType": "uint256",
          "name": "encodedSkills",
          "type": "uint256"
        }
      ],
      "name": "getRedCardLastGame",
      "outputs": [
        {
          "internalType": "bool",
          "name": "",
          "type": "bool"
        }
      ],
      "stateMutability": "pure",
      "type": "function"
    },
    {
      "inputs": [
        {
          "internalType": "uint256",
          "name": "encodedSkills",
          "type": "uint256"
        },
        {
          "internalType": "uint8",
          "name": "skillIdx",
          "type": "uint8"
        }
      ],
      "name": "getSkill",
      "outputs": [
        {
          "internalType": "uint256",
          "name": "",
          "type": "uint256"
        }
      ],
      "stateMutability": "pure",
      "type": "function"
    },
    {
      "inputs": [
        {
          "internalType": "uint256",
          "name": "encodedSkills",
          "type": "uint256"
        }
      ],
      "name": "getSubstitutedFirstHalf",
      "outputs": [
        {
          "internalType": "bool",
          "name": "",
          "type": "bool"
        }
      ],
      "stateMutability": "pure",
      "type": "function"
    },
    {
      "inputs": [
        {
          "internalType": "uint256",
          "name": "encodedSkills",
          "type": "uint256"
        }
      ],
      "name": "getSumOfSkills",
      "outputs": [
        {
          "internalType": "uint256",
          "name": "",
          "type": "uint256"
        }
      ],
      "stateMutability": "pure",
      "type": "function"
    },
    {
      "inputs": [
        {
          "internalType": "uint256",
          "name": "encodedSkills",
          "type": "uint256"
        }
      ],
      "name": "getYellowCardFirstHalf",
      "outputs": [
        {
          "internalType": "bool",
          "name": "",
          "type": "bool"
        }
      ],
      "stateMutability": "pure",
      "type": "function"
    },
    {
      "inputs": [
        {
          "internalType": "uint256",
          "name": "teamId",
          "type": "uint256"
        }
      ],
      "name": "isBotTeam",
      "outputs": [
        {
          "internalType": "bool",
          "name": "",
          "type": "bool"
        }
      ],
      "stateMutability": "view",
      "type": "function"
    },
    {
      "inputs": [
        {
          "internalType": "uint8",
          "name": "timeZone",
          "type": "uint8"
        },
        {
          "internalType": "uint256",
          "name": "countryIdxInTZ",
          "type": "uint256"
        },
        {
          "internalType": "uint256",
          "name": "teamIdxInCountry",
          "type": "uint256"
        }
      ],
      "name": "isBotTeamInCountry",
      "outputs": [
        {
          "internalType": "bool",
          "name": "",
          "type": "bool"
        }
      ],
      "stateMutability": "view",
      "type": "function"
    },
    {
      "inputs": [],
      "name": "market",
      "outputs": [
        {
          "internalType": "address",
          "name": "",
          "type": "address"
        }
      ],
      "stateMutability": "view",
      "type": "function"
    },
    {
      "inputs": [],
      "name": "nextTimeZoneToUpdate",
      "outputs": [
        {
          "internalType": "uint8",
          "name": "tz",
          "type": "uint8"
        },
        {
          "internalType": "uint8",
          "name": "day",
          "type": "uint8"
        },
        {
          "internalType": "uint8",
          "name": "turnInDay",
          "type": "uint8"
        }
      ],
      "stateMutability": "view",
      "type": "function"
    },
    {
      "inputs": [
        {
          "internalType": "uint256",
          "name": "tz",
          "type": "uint256"
        }
      ],
      "name": "normalizeTZ",
      "outputs": [
        {
          "internalType": "uint8",
          "name": "",
          "type": "uint8"
        }
      ],
      "stateMutability": "pure",
      "type": "function"
    },
    {
      "inputs": [],
      "name": "prevTimeZoneToUpdate",
      "outputs": [
        {
          "internalType": "uint8",
          "name": "tz",
          "type": "uint8"
        },
        {
          "internalType": "uint8",
          "name": "day",
          "type": "uint8"
        },
        {
          "internalType": "uint8",
          "name": "turnInDay",
          "type": "uint8"
        }
      ],
      "stateMutability": "view",
      "type": "function"
    },
    {
      "inputs": [],
      "name": "relay",
      "outputs": [
        {
          "internalType": "address",
          "name": "",
          "type": "address"
        }
      ],
      "stateMutability": "view",
      "type": "function"
    },
    {
      "inputs": [
        {
          "internalType": "uint256",
          "name": "state",
          "type": "uint256"
        },
        {
          "internalType": "uint8",
          "name": "currentShirtNum",
          "type": "uint8"
        }
      ],
      "name": "setCurrentShirtNum",
      "outputs": [
        {
          "internalType": "uint256",
          "name": "",
          "type": "uint256"
        }
      ],
      "stateMutability": "pure",
      "type": "function"
    },
    {
      "inputs": [
        {
          "internalType": "uint256",
          "name": "playerState",
          "type": "uint256"
        },
        {
          "internalType": "uint256",
          "name": "teamId",
          "type": "uint256"
        }
      ],
      "name": "setCurrentTeamId",
      "outputs": [
        {
          "internalType": "uint256",
          "name": "",
          "type": "uint256"
        }
      ],
      "stateMutability": "pure",
      "type": "function"
    },
    {
      "inputs": [
        {
          "internalType": "uint256",
          "name": "state",
          "type": "uint256"
        },
        {
          "internalType": "uint256",
          "name": "lastSaleBlock",
          "type": "uint256"
        }
      ],
      "name": "setLastSaleBlock",
      "outputs": [
        {
          "internalType": "uint256",
          "name": "",
          "type": "uint256"
        }
      ],
      "stateMutability": "pure",
      "type": "function"
    },
    {
      "inputs": [
        {
          "internalType": "uint256",
          "name": "state",
          "type": "uint256"
        },
        {
          "internalType": "uint256",
          "name": "value",
          "type": "uint256"
        }
      ],
      "name": "setPrevPlayerTeamId",
      "outputs": [
        {
          "internalType": "uint256",
          "name": "",
          "type": "uint256"
        }
      ],
      "stateMutability": "pure",
      "type": "function"
    },
    {
      "inputs": [
        {
          "internalType": "uint8",
          "name": "timeZone",
          "type": "uint8"
        },
        {
          "internalType": "uint256",
          "name": "countryIdxInTZ",
          "type": "uint256"
        },
        {
          "internalType": "uint256",
          "name": "teamIdxInCountry",
          "type": "uint256"
        }
      ],
      "name": "teamExistsInCountry",
      "outputs": [
        {
          "internalType": "bool",
          "name": "",
          "type": "bool"
        }
      ],
      "stateMutability": "view",
      "type": "function"
    },
    {
      "inputs": [
        {
          "internalType": "uint256",
          "name": "verse",
          "type": "uint256"
        },
        {
          "internalType": "uint8",
          "name": "TZForRound1",
          "type": "uint8"
        }
      ],
      "name": "timeZoneToUpdatePure",
      "outputs": [
        {
          "internalType": "uint8",
          "name": "timezone",
          "type": "uint8"
        },
        {
          "internalType": "uint8",
          "name": "day",
          "type": "uint8"
        },
        {
          "internalType": "uint8",
          "name": "turnInDay",
          "type": "uint8"
        }
      ],
      "stateMutability": "pure",
      "type": "function"
    },
    {
      "inputs": [
        {
          "internalType": "uint8",
          "name": "timeZone",
          "type": "uint8"
        }
      ],
      "name": "tzExists",
      "outputs": [
        {
          "internalType": "bool",
          "name": "",
          "type": "bool"
        }
      ],
      "stateMutability": "pure",
      "type": "function"
    },
    {
      "inputs": [
        {
          "internalType": "uint8",
          "name": "timeZone",
          "type": "uint8"
        },
        {
          "internalType": "uint256",
          "name": "countryIdxInTZ",
          "type": "uint256"
        },
        {
          "internalType": "uint256",
          "name": "playerIdxInCountry",
          "type": "uint256"
        }
      ],
      "name": "wasPlayerCreatedInCountry",
      "outputs": [
        {
          "internalType": "bool",
          "name": "",
          "type": "bool"
        }
      ],
      "stateMutability": "view",
      "type": "function"
    },
    {
      "inputs": [
        {
          "internalType": "uint256",
          "name": "playerId",
          "type": "uint256"
        }
      ],
      "name": "wasPlayerCreatedVirtually",
      "outputs": [
        {
          "internalType": "bool",
          "name": "",
          "type": "bool"
        }
      ],
      "stateMutability": "view",
      "type": "function"
    },
    {
      "inputs": [
        {
          "internalType": "uint256",
          "name": "teamId",
          "type": "uint256"
        }
      ],
      "name": "wasTeamCreatedVirtually",
      "outputs": [
        {
          "internalType": "bool",
          "name": "",
          "type": "bool"
        }
      ],
      "stateMutability": "view",
      "type": "function"
    },
    {
      "inputs": [
        {
          "internalType": "uint256",
          "name": "playerId",
          "type": "uint256"
        }
      ],
      "name": "getPlayerSkillsAtBirth",
      "outputs": [
        {
          "internalType": "uint256",
          "name": "",
          "type": "uint256"
        }
      ],
      "stateMutability": "view",
      "type": "function"
    },
    {
      "inputs": [
        {
          "internalType": "uint256",
          "name": "playerId",
          "type": "uint256"
        }
      ],
      "name": "getTeamIdCreationDayAndShirtNum",
      "outputs": [
        {
          "internalType": "uint256",
          "name": "teamId",
          "type": "uint256"
        },
        {
          "internalType": "uint256",
          "name": "creationDay",
          "type": "uint256"
        },
        {
          "internalType": "uint8",
          "name": "shirtNum",
          "type": "uint8"
        }
      ],
      "stateMutability": "view",
      "type": "function"
    },
    {
      "inputs": [
        {
          "internalType": "uint256",
          "name": "teamId",
          "type": "uint256"
        },
        {
          "internalType": "uint256",
          "name": "playerCreationDay",
          "type": "uint256"
        },
        {
          "internalType": "uint8",
          "name": "shirtNum",
          "type": "uint8"
        }
      ],
      "name": "computeBirthDayAndPotential",
      "outputs": [
        {
          "internalType": "uint16",
          "name": "dayOfBirth",
          "type": "uint16"
        },
        {
          "internalType": "uint8",
          "name": "potential",
          "type": "uint8"
        }
      ],
      "stateMutability": "pure",
      "type": "function"
    },
    {
      "inputs": [
        {
          "internalType": "uint256",
          "name": "secs",
          "type": "uint256"
        }
      ],
      "name": "secsToDays",
      "outputs": [
        {
          "internalType": "uint256",
          "name": "",
          "type": "uint256"
        }
      ],
      "stateMutability": "pure",
      "type": "function"
    },
    {
      "inputs": [
        {
          "internalType": "uint8",
          "name": "tz",
          "type": "uint8"
        }
      ],
      "name": "countCountries",
      "outputs": [
        {
          "internalType": "uint256",
          "name": "",
          "type": "uint256"
        }
      ],
      "stateMutability": "view",
      "type": "function"
    },
    {
      "inputs": [
        {
          "internalType": "uint256",
          "name": "dayz",
          "type": "uint256"
        }
      ],
      "name": "daysToSecs",
      "outputs": [
        {
          "internalType": "uint256",
          "name": "",
          "type": "uint256"
        }
      ],
      "stateMutability": "pure",
      "type": "function"
    },
    {
      "inputs": [
        {
          "internalType": "uint256",
          "name": "playerId",
          "type": "uint256"
        }
      ],
      "name": "getPlayerAgeInDays",
      "outputs": [
        {
          "internalType": "uint256",
          "name": "",
          "type": "uint256"
        }
      ],
      "stateMutability": "view",
      "type": "function"
    },
    {
      "inputs": [
        {
          "internalType": "uint256",
          "name": "divisionId",
          "type": "uint256"
        }
      ],
      "name": "divisionIdToRound",
      "outputs": [
        {
          "internalType": "uint256",
          "name": "",
          "type": "uint256"
        }
      ],
      "stateMutability": "view",
      "type": "function"
    }
  ],
  "bytecode": "0x608060405234801561001057600080fd5b50611f71806100206000396000f3fe608060405234801561001057600080fd5b50600436106103da5760003560e01c806380c794ce1161020a578063cc7d473b11610125578063dcadab5c116100b8578063eb78b7b711610087578063eb78b7b714610ce2578063f2c3576414610cff578063f2dc657f14610d1c578063f9d0723d14610d39578063fcf9b3be14610d5f576103da565b8063dcadab5c14610c83578063e1b27e6b14610ca0578063e37528bb14610ca8578063e804e51914610cc5576103da565b8063d1b3d8fd116100f4578063d1b3d8fd14610c21578063d2f7967d14610c3e578063d403fabd14610c5b578063d8f73c3c14610c7b576103da565b8063cc7d473b14610bb9578063ce506ec514610bd6578063cebc43a614610bfc578063d02254a514610c04576103da565b8063b59589d11161019d578063c37b1c251161016c578063c37b1c2514610b54578063c395d7a814610b77578063c566b5bc14610b7f578063c73f808d14610b9c576103da565b8063b59589d114610ad9578063bbb1178014610ae1578063c04f6d5314610b11578063c2bc41cd14610b37576103da565b80638a89148c116101d95780638a89148c14610a745780638cc9a8d514610a7c578063a21ef9fa14610a99578063af76cd0114610ab6576103da565b806380c794ce146109dc57806380f55605146109fc5780638608ff4314610a045780638828a76114610a36576103da565b806343af15ee116102fa5780635adb40f51161028d5780637933e8831161025c5780637933e8831461094357806379e76597146109605780637ffa3a2e1461099357806380bac709146109b0576103da565b80635adb40f5146108ae5780636a6cb69f146108d45780636f6c2ae0146108fa57806376c2d96014610917576103da565b80634db989fd116102c95780634db989fd1461080657806356e3df971461082c5780635940a77f14610849578063595ef25b14610866576103da565b806343af15ee14610721578063471d6e801461076d57806347524b60146107b85780634bea2a69146107e9576103da565b806329d0dcfb116103725780633518dd1d116103415780633518dd1d146106a757806337a86302146106c45780633be83c0a146106e7578063434807ad14610704576103da565b806329d0dcfb146105735780632ead0553146105995780633260840b14610660578063332b8ea31461069f576103da565b8063111cfab3116103ae578063111cfab314610468578063127f05e0146104855780631fc7768f1461052a57806320748ae814610547576103da565b80620edf9b146103df578063022da63a1461040e5780630abcd3e51461042b5780631060c9c21461044b575b600080fd5b6103fc600480360360208110156103f557600080fd5b5035610d8b565b60408051918252519081900360200190f35b6103fc6004803603602081101561042457600080fd5b5035610d97565b6103fc6004803603602081101561044157600080fd5b503560ff16610da2565b6103fc6004803603602081101561046157600080fd5b5035610db8565b6103fc6004803603602081101561047e57600080fd5b5035610dc3565b6104b36004803603606081101561049b57600080fd5b5080359060ff60208201358116916040013516610dd6565b604051808460a080838360005b838110156104d85781810151838201526020016104c0565b5050505090500183600460200280838360005b838110156105035781810151838201526020016104eb565b505050509050018263ffffffff1663ffffffff168152602001935050505060405180910390f35b6103fc6004803603602081101561054057600080fd5b5035611085565b6103fc6004803603606081101561055d57600080fd5b5060ff813516906020810135906040013561108e565b6103fc6004803603604081101561058957600080fd5b508035906020013560ff166111ac565b6103fc60048036036102408110156105b057600080fd5b810190808060a001906005806020026040519081016040528092919082600560200280828437600092019190915250506040805160808181018352939685359660ff6020880135169693840135959194509260e081019291606090910190600490839083908082843760009201919091525091945050508035151591506020810135151590604081013560ff90811691606081013590911690608081013515159060a0013563ffffffff166111c2565b61067d6004803603602081101561067657600080fd5b503561159f565b6040805160ff9094168452602084019290925282820152519081900360600190f35b6103fc6115bb565b6103fc600480360360208110156106bd57600080fd5b50356115c2565b6103fc600480360360408110156106da57600080fd5b50803590602001356115cb565b6103fc600480360360208110156106fd57600080fd5b5035611642565b6103fc6004803603602081101561071a57600080fd5b503561164b565b61074d6004803603606081101561073757600080fd5b508035906020810135906040013560ff16611654565b6040805161ffff909316835260ff90911660208301528051918290030190f35b6107936004803603604081101561078357600080fd5b508035906020013560ff16611721565b6040805160ff9485168152928416602084015292168183015290519081900360600190f35b6107d5600480360360208110156107ce57600080fd5b50356117eb565b604080519115158252519081900360200190f35b6103fc600480360360208110156107ff57600080fd5b50356117f7565b6103fc6004803603604081101561081c57600080fd5b508035906020013560ff16611805565b6103fc6004803603602081101561084257600080fd5b5035611880565b6103fc6004803603602081101561085f57600080fd5b5035611889565b6108926004803603606081101561087c57600080fd5b5060ff81351690602081013590604001356118b1565b604080516001600160a01b039092168252519081900360200190f35b6103fc600480360360408110156108c457600080fd5b5060ff813516906020013561190e565b6103fc600480360360408110156108ea57600080fd5b5060ff8135169060200135611961565b6103fc6004803603602081101561091057600080fd5b5035611974565b6107d56004803603606081101561092d57600080fd5b5060ff8135169060208101359060400135611995565b6107d56004803603602081101561095957600080fd5b50356119ab565b61097d6004803603602081101561097657600080fd5b50356119bf565b6040805160ff9092168252519081900360200190f35b6107d5600480360360208110156109a957600080fd5b50356119c8565b6107d5600480360360608110156109c657600080fd5b5060ff81351690602081013590604001356119d4565b6103fc600480360360208110156109f257600080fd5b503560ff166119f4565b610892611a0e565b6103fc60048036036080811015610a1a57600080fd5b5080359060ff6020820135169060408101359060600135611a1e565b610a5360048036036020811015610a4c57600080fd5b5035611a5a565b60408051938452602084019290925260ff1682820152519081900360600190f35b610793611ac5565b6107d560048036036020811015610a9257600080fd5b5035611aec565b6107d560048036036020811015610aaf57600080fd5b5035611b1d565b6103fc60048036036040811015610acc57600080fd5b5080359060200135611b46565b610892611bb8565b6103fc60048036036060811015610af757600080fd5b5060ff813581169160208101359091169060400135611bc8565b6103fc60048036036040811015610b2757600080fd5b5060ff8135169060200135611c2a565b6103fc60048036036020811015610b4d57600080fd5b5035611c40565b6103fc60048036036040811015610b6a57600080fd5b5080359060200135611c49565b610793611cb7565b6103fc60048036036020811015610b9557600080fd5b5035611cef565b6103fc60048036036020811015610bb257600080fd5b5035611cfc565b6107d560048036036020811015610bcf57600080fd5b5035611d9a565b6107d560048036036040811015610bec57600080fd5b5060ff8135169060200135611da6565b610892611dc0565b6107d560048036036020811015610c1a57600080fd5b5035611dd0565b6107d560048036036020811015610c3757600080fd5b5035611df0565b6103fc60048036036020811015610c5457600080fd5b5035611dfc565b6107d560048036036020811015610c7157600080fd5b503560ff16611e0a565b610892611e25565b61097d60048036036020811015610c9957600080fd5b5035611e35565b610892611e48565b6107d560048036036020811015610cbe57600080fd5b5035611e58565b61097d60048036036020811015610cdb57600080fd5b5035611e64565b6103fc60048036036020811015610cf857600080fd5b5035611e6d565b6107d560048036036020811015610d1557600080fd5b5035611e76565b6103fc60048036036020811015610d3257600080fd5b5035611e82565b6103fc60048036036040811015610d4f57600080fd5b5060ff8135169060200135611e8c565b6107d560048036036060811015610d7557600080fd5b5060ff8135169060208101359060400135611e9a565b6201518081025b919050565b6507ffffffffff1690565b60ff166000908152611017602052604090205490565b60b51c6207ffff1690565b6000908152611014602052604090205490565b610dde611eb3565b610de6611ed1565b6000610df0611eb3565b610df8611eb3565b6040805160208082018b905260ff8a1682840181905283518084038501815260609093019093528151910120600281811c9260009283926003909116911015610e5257600e85526006604086015260009250829150610f1a565b60078b60ff161015610e7c576004855260106060860152600192506007845b066001019150610f1a565b600a8b60ff161015610e9b576010604086015260029250600784610e71565b600c8b60ff161015610ebd57600d604086015260078086526004935084610e71565b600e8b60ff161015610ee357600d60408601526007606086018190526005935084610e71565b60108b60ff161015610f075760108552600560608601526003925060069150610f1a565b6010855260056060860152600392508291505b60039390931c926000805b600560ff82161015610fe657868160ff1660058110610f4057fe5b6020020151610f7657610320860661ffff16888260ff1660058110610f6157fe5b63ffffffff9092166020929092020152610fbe565b600a878260ff1660058110610f8757fe5b602002015161032088060281610f9957fe5b0461ffff16888260ff1660058110610fad57fe5b63ffffffff90921660209290920201525b878160ff1660058110610fcd57fe5b6020020151600a9690961c959190910190600101610f25565b50600561138882900363ffffffff160460005b600560ff821610156110425781898260ff166005811061101557fe5b602002015101898260ff166005811061102a57fe5b63ffffffff9092166020929092020152600101610ff9565b506040805160808101825260ff9d8e168152958d166020870152938c169385019390935299166060830152939a9099506005909302909601965090945050505050565b607e1c60071690565b600060208460ff16106110e0576040805162461bcd60e51b81526020600482015260156024820152741d1a5b595e9bdb99481bdd5d081bd988189bdd5b99605a1b604482015290519081900360640190fd5b6104008310611136576040805162461bcd60e51b815260206004820152601b60248201527f636f756e747279496478496e545a206f7574206f6620626f756e640000000000604482015290519081900360640190fd5b6310000000821061118e576040805162461bcd60e51b815260206004820152601a60248201527f76616c20746f20656e636f6465206f7574206f6620626f756e64000000000000604482015290519081900360640190fd5b50601c82901b653fc000000000602685901b161781175b9392505050565b620fffff601460ff83160283901c165b92915050565b8651600090600a60ff90911610611219576040805162461bcd60e51b81526020600482015260166024820152751c1bdd195b9d1a585b081bdd5d081bd988189bdd5b9960521b604482015290519081900360640190fd5b6006886001602002015160ff1610611278576040805162461bcd60e51b815260206004820152601860248201527f666f72776172646e657373206f7574206f6620626f756e640000000000000000604482015290519081900360640190fd5b6008886002602002015160ff16106112d7576040805162461bcd60e51b815260206004820152601860248201527f6c6566697473686e657373206f7574206f6620626f756e640000000000000000604482015290519081900360640190fd5b6008886003602002015160ff1610611336576040805162461bcd60e51b815260206004820152601b60248201527f616767726573736976656e657373206f7574206f6620626f756e640000000000604482015290519081900360640190fd5b604088015160ff1661138657602088015160ff16156113865760405162461bcd60e51b815260040180806020018281038252602b815260200180611ef0602b913960400191505060405180910390fd5b60088560ff16106113de576040805162461bcd60e51b815260206004820152601d60248201527f67616d65734e6f6e53746f7070696e67206f7574206f6620626f756e64000000604482015290519081900360640190fd5b620100008b1061141f5760405162461bcd60e51b8152600401808060200182810382526021815260200180611f1b6021913960400191505060405180910390fd5b60008911801561143457506508000000000089105b61147d576040805162461bcd60e51b81526020600482015260156024820152741c1b185e595c9259081bdd5d081bd988189bdd5b99605a1b604482015290519081900360640190fd5b60005b600561ffff821610156114bf578060140261ffff168d8261ffff16600581106114a557fe5b602002015163ffffffff16901b9190911790600101611480565b5060648b901b176074886000602002015160ff16901b176078886001602002015160ff16901b17607b886002602002015160ff16901b17607e886003602002015160ff16901b81179050608189901b8117905060ac87611520576000611523565b60015b60ff16901b1760ad8661153757600061153a565b60015b60ff16901b8117905060ae8560ff16901b8117905060b18460ff16901b8117905060b48361156957600061156c565b60015b60ff16901b8117905060b58263ffffffff16901b8117905060cd8a60ff16901b811790509b9a5050505050505050505050565b602681901c601f1691601c82901c6103ff1691630fffffff1690565b6110095481565b607b1c60071690565b60006507ffffffffff821115611628576040805162461bcd60e51b815260206004820152601a60248201527f707265764c6561677565496478206f7574206f6620626f756e64000000000000604482015290519081900360640190fd5b5060301b6b07ffffffffff00000000000019919091161790565b62015180900490565b60741c600f1690565b604080516020808201869052600260ff85811691909104168284015282518083038401815260609092019092528051910120600090819060018416156116a057600881066007036116a5565b600881065b9150600260ff85160660010160ff1681901c905060078260ff161080156116ce57506004810615155b156116da576001820191505b600c81901c90611c8490066116d001600560ff84161180156116fd5750612c3381115b15611710576102da820681019003612c33015b600e90049094039590945092505050565b6000808060038516602482806002841080159061173d57508289105b156117565750600095508594508493506117e492505050565b60028410156117935760046060858b0306048860ff16019150606060ff16848960ff1684036004028b03036002028161178b57fe5b0490506117cc565b60046060848b0306048860ff16019150606060ff16838960ff1684036004028b0303600202816117bf57fe5b0460010190506002840393505b8394506117d882611e35565b9650600e900694505050505b9250925092565b60cc1c60019081161490565b60301c6507ffffffffff1690565b6000601f8260ff161115611860576040805162461bcd60e51b815260206004820152601c60248201527f63757272656e7453686972744e756d206f7574206f6620626f756e6400000000604482015290519081900360640190fd5b5065f800000000001991909116602b9190911b6607f80000000000161790565b60cd1c60ff1690565b60006111bc6118a76118a261189d85611cfc565b611e82565b610d8b565b4203600e02611642565b60006118bc84611e0a565b15806118cf57506118cd8484611da6565b155b156118dc575060006111a5565b61101660006118ec86868661108e565b81526020810191909152604001600020546001600160a01b0316949350505050565b600061191983611e0a565b158061192c575061192a8383611da6565b155b15611939575060006111bc565b611012600061194a8585600061108e565b815260200190815260200160002054905092915050565b6000611013600061194a8585600061108e565b600061197f826117eb565b6119915761198c82611dfc565b6111bc565b5090565b60006119a18484611c2a565b9091109392505050565b6000601a6119b883611e6d565b1492915050565b60b11c60071690565b60d61c60019081161490565b6000806119e28585856118b1565b6001600160a01b031614949350505050565b61101e5461101f546000916111bc91849160ff1690611bc8565b611005546001600160a01b031690565b600080611a2c600087611c49565b9050611a388186611805565b9050611a4481856115cb565b9050611a508184611b46565b9695505050505050565b600080600080600080611a6c8761159f565b9194509250905060128104608081046000611a8886868461108e565b9050611a9586868561108e565b6000828152611014602052604090205461100954919a506007020197506012840696505050505050509193909250565b61101f5461101e5460009182918291611ae09160ff16611721565b9250925092505b909192565b60006001821415611aff57506000610d92565b50600090815261101660205260409020546001600160a01b03161590565b600080600080611b2c8561159f565b925092509250611b3d838383611995565b95945050505050565b60006407ffffffff821115611ba2576040805162461bcd60e51b815260206004820152601a60248201527f6c61737453616c65426c6f636b206f7574206f6620626f756e64000000000000604482015290519081900360640190fd5b50605b1b6407ffffffff605b1b19919091161790565b611007546001600160a01b031690565b60006102a0821015611bdc575060006111a5565b6102a08204600060ff8086169087161015611bfc57848660180103611c00565b8486035b60ff169050600481026102a0830201841015611c2257506000190190506111a5565b5090506111a5565b60006008611c388484611e8c565b029392505050565b60781c60071690565b60006507ffffffffff821115611ca6576040805162461bcd60e51b815260206004820152601b60248201527f63757272656e745465616d496478206f7574206f6620626f756e640000000000604482015290519081900360640190fd5b506507ffffffffff19919091161790565b600080600061101f5460001415611cd657506000915081905080611ae7565b61101f5461101e54611ae091600019019060ff16611721565b605b1c6407ffffffff1690565b6000611d07826117eb565b15611d13575080610d92565b611d1c82611dd0565b611d2857506000610d92565b6000806000611d3685611a5a565b925092509250600080611d4a858585611654565b915061ffff169150611d5a611eb3565b611d62611ed1565b6000611d6f888786610dd6565b925092509250611d8c838660008d8660008060008060008b6111c2565b9a9950505050505050505050565b60ad1c60019081161490565b60ff91909116600090815261101760205260409020541190565b611008546001600160a01b031690565b600080600080611ddf8561159f565b925092509250611b3d838383611e9a565b60d51c60019081161490565b60811c6507ffffffffff1690565b600060ff8216158015906111bc575050601960ff9091161090565b61102f546001600160a01b031681565b6000601860178301066001019050919050565b611006546001600160a01b031690565b60b41c60019081161490565b60ae1c60071690565b602b1c601f1690565b60ac1c60019081161490565b60641c61ffff1690565b60006010611c38848461190e565b60006012611ea88585611c2a565b029091109392505050565b6040518060a001604052806005906020820280368337509192915050565b6040518060800160405280600490602082028036833750919291505056fe6c6566746973686e65732063616e206f6e6c79206265207a65726f20666f7220676f616c6b6565706572736461794f664269727468496e556e697854696d65206f7574206f6620626f756e64a2646970667358221220a64e6ac16cedaa77ce53fb77baf1e0a270a799fc808603b6fcd4976f3964d29d64736f6c63430006030033",
  "source": "pragma solidity >= 0.6.3;\n\nimport \"./UniverseInfo.sol\";\nimport \"../encoders/EncodingSkills.sol\";\nimport \"../encoders/EncodingState.sol\";\nimport \"./ComputeSkills.sol\";\n\n/**\n @title Library of View/Pure functions to needed by game assets\n @author Freeverse.io, www.freeverse.io\n*/\n\n/// Warning: This contract must ALWAYS inherit UniverseInfo first, so that it ends up inheriting Storage before any other contract.\ncontract AssetsView is UniverseInfo, EncodingSkills, EncodingState, ComputeSkills {\n    \n    function getPlayerSkillsAtBirth(uint256 playerId) public view returns (uint256) {\n        if (getIsSpecial(playerId)) return playerId;\n        if (!wasPlayerCreatedVirtually(playerId)) return 0;\n        (uint256 teamId, uint256 playerCreationDay, uint8 shirtNum) = getTeamIdCreationDayAndShirtNum(playerId);\n        (uint256 dayOfBirth, uint8 potential) = computeBirthDayAndPotential(teamId, playerCreationDay, shirtNum);\n        (uint32[N_SKILLS] memory skills, uint8[4] memory birthTraits, uint32 sumSkills) = computeSkills(teamId, shirtNum, potential);\n        return encodePlayerSkills(skills, dayOfBirth, 0, playerId, birthTraits, false, false, 0, 0, false, sumSkills);\n    }\n\n    function getTeamIdCreationDayAndShirtNum(uint256 playerId) public view returns(uint256 teamId, uint256 creationDay, uint8 shirtNum) {\n        (uint8 tz, uint256 countryIdxInTZ, uint256 playerIdxInCountry) = decodeTZCountryAndVal(playerId);\n        uint256 teamIdxInCountry = playerIdxInCountry / PLAYERS_PER_TEAM_INIT;\n        uint256 divisionIdx = teamIdxInCountry / TEAMS_PER_DIVISION;\n        uint256 divisionId = encodeTZCountryAndVal(tz, countryIdxInTZ, divisionIdx);\n        teamId = encodeTZCountryAndVal(tz, countryIdxInTZ, teamIdxInCountry);\n        creationDay = gameDeployDay + _divisionIdToRound[divisionId] * DAYS_PER_ROUND;\n        shirtNum = uint8(playerIdxInCountry % PLAYERS_PER_TEAM_INIT);\n    }\n\n    //// Compute a random age between 16 and 35.999, with random potential in [0,...7]\n    //// @param playerCreationDay - days since unix epoch where the player was created as part of teams of a division\n    //// @return dayOfBirth - days since unix epoch\n    function computeBirthDayAndPotential(uint256 teamId, uint256 playerCreationDay, uint8 shirtNum) public pure returns (uint16 dayOfBirth, uint8 potential) {\n        /// generate a DNA that is unique to pairs of players in the universe.\n        /// each team has different DNAs, but within a same team, shirts = 0,1 have the same, shirts = 2,3 have the same...etc\n        uint256 dna = uint256(keccak256(abi.encode(teamId, shirtNum/2)));\n        /// Generate pairs of potentials such that each is in [0,...,7] and the sum is 7, so average is 3.5\n        potential = (shirtNum % 2 == 0) ? uint8(dna % (MAX_POTENTIAL_AT_BIRTH+1)) : MAX_POTENTIAL_AT_BIRTH - uint8(dna % (MAX_POTENTIAL_AT_BIRTH+1));\n        /// generate a different dna for each member of the pair by bit-shifting dna differently\n        dna >>= (1 +(shirtNum % 2));\n        /// Increase potential average to 4.25 = 3.5 + 0.75 \n        if ((potential < 7) && (dna % 4) != 0) potential += 1;\n        /// Compute days in range [16,36]\n        uint256 ageInDays = 5840 + (dna % 7300);  /// 5840 = 16y, 7300 = 20y\n        /// ensure that good potential players are not above 31,\n        /// by subtracting what is left to reach 31, plus a random between 0 and 2 years\n        dna >>= 12;\n        if (potential > 5 && ageInDays > 11315) ageInDays -= (ageInDays - 11315) + (dna % 730); /// 11315 = 31y, 730 = 2y.\n        dayOfBirth = uint16(playerCreationDay - ageInDays / INGAMETIME_VS_REALTIME); \n    }\n    \n\n\n    function secsToDays(uint256 secs) public pure returns (uint256) {\n        return secs / 86400;  /// 86400 = 3600 * 24\n    }\n\n    function countCountries(uint8 tz) public view returns (uint256){\n        return _tzToNCountries[tz];\n    }\n    \n    /// TODO: remove from this contract, expose as interface for users\n    function daysToSecs(uint256 dayz) public pure returns (uint256) {\n        return dayz * 86400; /// 86400 = 3600 * 24 * 365\n    }\n\n    function getPlayerAgeInDays(uint256 playerId) public view returns (uint256) {\n        return secsToDays(INGAMETIME_VS_REALTIME * (now - daysToSecs(getBirthDay(getPlayerSkillsAtBirth(playerId)))));\n    }\n    \n    function divisionIdToRound(uint256 divisionId) public view returns(uint256) { return _divisionIdToRound[divisionId]; }\n    \n}\n",
  "sourcePath": "/Users/jurgenkudla/proyects/laos/laos-goal-revolution/truffle-core/contracts/storage/AssetsView.sol",
  "compiler": {
    "name": "solc",
    "version": "0.6.3+commit.8dda9521.Emscripten.clang"
  },
  "schemaVersion": "3.0.23",
  "updatedAt": "2024-10-16T06:02:47.979Z",
  "devdoc": {
    "methods": {
      "computeBirthDayAndPotential(uint256,uint256,uint8)": {
        "params": {
          "playerCreationDay": "- days since unix epoch where the player was created as part of teams of a division"
        },
        "returns": {
          "dayOfBirth": "- days since unix epoch"
        }
      },
      "encodeTZCountryAndVal(uint8,uint256,uint256)": {
        "details": "PlayerId and TeamId both serialize a total of 43 bits:     timeZone        = 5 bits     countryIdxInTZ  = 10 bits     val             = 28 bits (either  (playerIdxInCountry or teamIdxInCountry)*"
      }
    }
  },
  "userdoc": {
    "methods": {
      "computeBirthDayAndPotential(uint256,uint256,uint8)": {
        "notice": "/ Compute a random age between 16 and 35.999, with random potential in [0,...7]"
      },
      "computeSkills(uint256,uint8,uint8)": {
        "notice": "/ Compute the pseudorandom skills, sum of the skills is 5K (1K each skill on average) / skills have currently, 16bits each, and there are 5 of them / potential is a number between 0 and 9 => takes 4 bit / 0: 000, 1: 001, 2: 010, 3: 011, 4: 100, 5: 101, 6: 110, 7: 111"
      },
      "daysToSecs(uint256)": {
        "notice": "TODO: remove from this contract, expose as interface for users"
      },
      "getOwnerTeamInCountry(uint8,uint256,uint256)": {
        "notice": "returns NULL_ADDR if team is bot"
      },
      "isBotTeamInCountry(uint8,uint256,uint256)": {
        "notice": "Rest of view/pure functions "
      },
      "nextTimeZoneToUpdate()": {
        "notice": "each day has 24 hours, each with 4 verses => 96 verses per day. day = 0,..13 turnInDay = 0, 1, 2, 3 so for each TZ, we go from (day, turn) = (0, 0) ... (13,3) => a total of 14*4 = 56 turns per tz from these, all map easily to timeZones"
      },
      "timeZoneToUpdatePure(uint256,uint8)": {
        "notice": "tz0  : v = 0, V_DAY, 2 * V_DAY... tzN  : v = 4N + V_DAY * day,  day = 0,...6 tzN  : v = 4N + V_DAY * day,  day = 0,...6  => tzN - tz0 = (v - V_DAY*day)  => 4 tzN = 4 tz0 + v % VERSES_PER_DAY last : v = V_DAY + DELTA + V_DAY * 6  Imagine 2 tzs: 0:00 - tz0; 0:30 - NUL; 1:00 - tz1; 1:30 - tz0; 0:00 - tz0; 0:30 - tz1; So the last"
      }
    },
    "notice": "Warning: This contract must ALWAYS inherit UniverseInfo first, so that it ends up inheriting Storage before any other contract."
  }
}