{
  "contractName": "Challenges",
  "abi": [
    {
      "anonymous": false,
      "inputs": [
        {
          "indexed": false,
          "internalType": "uint8",
          "name": "tz",
          "type": "uint8"
        },
        {
          "indexed": false,
          "internalType": "uint8",
          "name": "resolvedLevel",
          "type": "uint8"
        },
        {
          "indexed": false,
          "internalType": "bool",
          "name": "isSuccessful",
          "type": "bool"
        }
      ],
      "name": "ChallengeResolved",
      "type": "event"
    },
    {
      "anonymous": false,
      "inputs": [
        {
          "indexed": false,
          "internalType": "uint256",
          "name": "teamId",
          "type": "uint256"
        },
        {
          "indexed": false,
          "internalType": "address",
          "name": "to",
          "type": "address"
        }
      ],
      "name": "TeamTransfer",
      "type": "event"
    },
    {
      "inputs": [],
      "name": "COO",
      "outputs": [
        {
          "internalType": "address",
          "name": "",
          "type": "address"
        }
      ],
      "stateMutability": "view",
      "type": "function",
      "constant": true
    },
    {
      "inputs": [],
      "name": "_stakers",
      "outputs": [
        {
          "internalType": "contract Stakers",
          "name": "",
          "type": "address"
        }
      ],
      "stateMutability": "view",
      "type": "function",
      "constant": true
    },
    {
      "inputs": [
        {
          "internalType": "uint256",
          "name": "leafPos",
          "type": "uint256"
        },
        {
          "internalType": "bytes32[]",
          "name": "leafs",
          "type": "bytes32[]"
        },
        {
          "internalType": "uint256",
          "name": "nLevels",
          "type": "uint256"
        }
      ],
      "name": "buildProof",
      "outputs": [
        {
          "internalType": "bytes32[]",
          "name": "proof",
          "type": "bytes32[]"
        }
      ],
      "stateMutability": "pure",
      "type": "function",
      "constant": true
    },
    {
      "inputs": [
        {
          "internalType": "uint8",
          "name": "timeZone",
          "type": "uint8"
        },
        {
          "internalType": "uint256",
          "name": "countryIdxInTZ",
          "type": "uint256"
        }
      ],
      "name": "countryInTZExists",
      "outputs": [
        {
          "internalType": "bool",
          "name": "",
          "type": "bool"
        }
      ],
      "stateMutability": "view",
      "type": "function",
      "constant": true
    },
    {
      "inputs": [],
      "name": "cryptoMktAddr",
      "outputs": [
        {
          "internalType": "address",
          "name": "",
          "type": "address"
        }
      ],
      "stateMutability": "view",
      "type": "function",
      "constant": true
    },
    {
      "inputs": [
        {
          "internalType": "uint256",
          "name": "encoded",
          "type": "uint256"
        }
      ],
      "name": "decodeTZCountryAndVal",
      "outputs": [
        {
          "internalType": "uint8",
          "name": "",
          "type": "uint8"
        },
        {
          "internalType": "uint256",
          "name": "",
          "type": "uint256"
        },
        {
          "internalType": "uint256",
          "name": "",
          "type": "uint256"
        }
      ],
      "stateMutability": "pure",
      "type": "function",
      "constant": true
    },
    {
      "inputs": [
        {
          "internalType": "uint8",
          "name": "timeZone",
          "type": "uint8"
        },
        {
          "internalType": "uint256",
          "name": "countryIdxInTZ",
          "type": "uint256"
        },
        {
          "internalType": "uint256",
          "name": "val",
          "type": "uint256"
        }
      ],
      "name": "encodeTZCountryAndVal",
      "outputs": [
        {
          "internalType": "uint256",
          "name": "",
          "type": "uint256"
        }
      ],
      "stateMutability": "pure",
      "type": "function",
      "constant": true
    },
    {
      "inputs": [],
      "name": "gameDeployDay",
      "outputs": [
        {
          "internalType": "uint256",
          "name": "",
          "type": "uint256"
        }
      ],
      "stateMutability": "view",
      "type": "function",
      "constant": true
    },
    {
      "inputs": [
        {
          "internalType": "uint256",
          "name": "encodedSkills",
          "type": "uint256"
        }
      ],
      "name": "getAggressiveness",
      "outputs": [
        {
          "internalType": "uint256",
          "name": "",
          "type": "uint256"
        }
      ],
      "stateMutability": "pure",
      "type": "function",
      "constant": true
    },
    {
      "inputs": [
        {
          "internalType": "uint256",
          "name": "encodedSkills",
          "type": "uint256"
        }
      ],
      "name": "getAlignedEndOfFirstHalf",
      "outputs": [
        {
          "internalType": "bool",
          "name": "",
          "type": "bool"
        }
      ],
      "stateMutability": "pure",
      "type": "function",
      "constant": true
    },
    {
      "inputs": [
        {
          "internalType": "uint8",
          "name": "tz",
          "type": "uint8"
        }
      ],
      "name": "getAllMatchdaysUTCInCurrentRound",
      "outputs": [
        {
          "internalType": "uint256[14]",
          "name": "timesUTC",
          "type": "uint256[14]"
        }
      ],
      "stateMutability": "view",
      "type": "function",
      "constant": true
    },
    {
      "inputs": [
        {
          "internalType": "uint8",
          "name": "tz",
          "type": "uint8"
        },
        {
          "internalType": "uint256",
          "name": "round",
          "type": "uint256"
        }
      ],
      "name": "getAllMatchdaysUTCInRound",
      "outputs": [
        {
          "internalType": "uint256[14]",
          "name": "timesUTC",
          "type": "uint256[14]"
        }
      ],
      "stateMutability": "view",
      "type": "function",
      "constant": true
    },
    {
      "inputs": [
        {
          "internalType": "uint256",
          "name": "encodedSkills",
          "type": "uint256"
        }
      ],
      "name": "getBirthDay",
      "outputs": [
        {
          "internalType": "uint256",
          "name": "",
          "type": "uint256"
        }
      ],
      "stateMutability": "pure",
      "type": "function",
      "constant": true
    },
    {
      "inputs": [
        {
          "internalType": "uint8",
          "name": "tz",
          "type": "uint8"
        },
        {
          "internalType": "bool",
          "name": "current",
          "type": "bool"
        }
      ],
      "name": "getChallengeData",
      "outputs": [
        {
          "internalType": "uint8",
          "name": "",
          "type": "uint8"
        },
        {
          "internalType": "uint8",
          "name": "",
          "type": "uint8"
        },
        {
          "internalType": "uint8",
          "name": "",
          "type": "uint8"
        }
      ],
      "stateMutability": "view",
      "type": "function",
      "constant": true
    },
    {
      "inputs": [],
      "name": "getChallengeTime",
      "outputs": [
        {
          "internalType": "uint256",
          "name": "",
          "type": "uint256"
        }
      ],
      "stateMutability": "view",
      "type": "function",
      "constant": true
    },
    {
      "inputs": [
        {
          "internalType": "uint8",
          "name": "tz",
          "type": "uint8"
        }
      ],
      "name": "getCurrentRound",
      "outputs": [
        {
          "internalType": "uint256",
          "name": "",
          "type": "uint256"
        }
      ],
      "stateMutability": "view",
      "type": "function",
      "constant": true
    },
    {
      "inputs": [
        {
          "internalType": "uint8",
          "name": "tz",
          "type": "uint8"
        },
        {
          "internalType": "uint8",
          "name": "tz1",
          "type": "uint8"
        },
        {
          "internalType": "uint256",
          "name": "verse",
          "type": "uint256"
        }
      ],
      "name": "getCurrentRoundPure",
      "outputs": [
        {
          "internalType": "uint256",
          "name": "",
          "type": "uint256"
        }
      ],
      "stateMutability": "pure",
      "type": "function",
      "constant": true
    },
    {
      "inputs": [],
      "name": "getCurrentVerse",
      "outputs": [
        {
          "internalType": "uint256",
          "name": "",
          "type": "uint256"
        }
      ],
      "stateMutability": "view",
      "type": "function",
      "constant": true
    },
    {
      "inputs": [],
      "name": "getCurrentVerseSeed",
      "outputs": [
        {
          "internalType": "bytes32",
          "name": "",
          "type": "bytes32"
        }
      ],
      "stateMutability": "view",
      "type": "function",
      "constant": true
    },
    {
      "inputs": [
        {
          "internalType": "uint256",
          "name": "encodedSkills",
          "type": "uint256"
        }
      ],
      "name": "getForwardness",
      "outputs": [
        {
          "internalType": "uint256",
          "name": "",
          "type": "uint256"
        }
      ],
      "stateMutability": "pure",
      "type": "function",
      "constant": true
    },
    {
      "inputs": [
        {
          "internalType": "uint256",
          "name": "encodedSkills",
          "type": "uint256"
        }
      ],
      "name": "getGamesNonStopping",
      "outputs": [
        {
          "internalType": "uint8",
          "name": "",
          "type": "uint8"
        }
      ],
      "stateMutability": "pure",
      "type": "function",
      "constant": true
    },
    {
      "inputs": [
        {
          "internalType": "uint256",
          "name": "encodedSkills",
          "type": "uint256"
        }
      ],
      "name": "getGeneration",
      "outputs": [
        {
          "internalType": "uint256",
          "name": "",
          "type": "uint256"
        }
      ],
      "stateMutability": "pure",
      "type": "function",
      "constant": true
    },
    {
      "inputs": [
        {
          "internalType": "uint256",
          "name": "encodedSkills",
          "type": "uint256"
        }
      ],
      "name": "getInjuryWeeksLeft",
      "outputs": [
        {
          "internalType": "uint8",
          "name": "",
          "type": "uint8"
        }
      ],
      "stateMutability": "pure",
      "type": "function",
      "constant": true
    },
    {
      "inputs": [
        {
          "internalType": "uint256",
          "name": "encodedSkills",
          "type": "uint256"
        }
      ],
      "name": "getInternalPlayerId",
      "outputs": [
        {
          "internalType": "uint256",
          "name": "",
          "type": "uint256"
        }
      ],
      "stateMutability": "pure",
      "type": "function",
      "constant": true
    },
    {
      "inputs": [
        {
          "internalType": "uint256",
          "name": "encodedSkills",
          "type": "uint256"
        }
      ],
      "name": "getIsSpecial",
      "outputs": [
        {
          "internalType": "bool",
          "name": "",
          "type": "bool"
        }
      ],
      "stateMutability": "pure",
      "type": "function",
      "constant": true
    },
    {
      "inputs": [
        {
          "internalType": "uint8",
          "name": "tz",
          "type": "uint8"
        }
      ],
      "name": "getLastActionsSubmissionTime",
      "outputs": [
        {
          "internalType": "uint256",
          "name": "",
          "type": "uint256"
        }
      ],
      "stateMutability": "view",
      "type": "function",
      "constant": true
    },
    {
      "inputs": [
        {
          "internalType": "uint8",
          "name": "tz",
          "type": "uint8"
        }
      ],
      "name": "getLastUpdateTime",
      "outputs": [
        {
          "internalType": "uint256",
          "name": "",
          "type": "uint256"
        }
      ],
      "stateMutability": "view",
      "type": "function",
      "constant": true
    },
    {
      "inputs": [
        {
          "internalType": "uint256",
          "name": "encodedSkills",
          "type": "uint256"
        }
      ],
      "name": "getLeftishness",
      "outputs": [
        {
          "internalType": "uint256",
          "name": "",
          "type": "uint256"
        }
      ],
      "stateMutability": "pure",
      "type": "function",
      "constant": true
    },
    {
      "inputs": [
        {
          "internalType": "uint8",
          "name": "tz",
          "type": "uint8"
        },
        {
          "internalType": "uint256",
          "name": "round",
          "type": "uint256"
        },
        {
          "internalType": "uint256",
          "name": "matchDay",
          "type": "uint256"
        }
      ],
      "name": "getMatchUTC",
      "outputs": [
        {
          "internalType": "uint256",
          "name": "timeUTC",
          "type": "uint256"
        }
      ],
      "stateMutability": "view",
      "type": "function",
      "constant": true
    },
    {
      "inputs": [
        {
          "internalType": "uint8",
          "name": "tz",
          "type": "uint8"
        },
        {
          "internalType": "uint256",
          "name": "matchDay",
          "type": "uint256"
        }
      ],
      "name": "getMatchUTCInCurrentRound",
      "outputs": [
        {
          "internalType": "uint256",
          "name": "timeUTC",
          "type": "uint256"
        }
      ],
      "stateMutability": "view",
      "type": "function",
      "constant": true
    },
    {
      "inputs": [
        {
          "internalType": "uint8",
          "name": "timeZone",
          "type": "uint8"
        },
        {
          "internalType": "uint256",
          "name": "countryIdxInTZ",
          "type": "uint256"
        }
      ],
      "name": "getNDivisionsInCountry",
      "outputs": [
        {
          "internalType": "uint256",
          "name": "",
          "type": "uint256"
        }
      ],
      "stateMutability": "view",
      "type": "function",
      "constant": true
    },
    {
      "inputs": [
        {
          "internalType": "uint8",
          "name": "timeZone",
          "type": "uint8"
        },
        {
          "internalType": "uint256",
          "name": "countryIdxInTZ",
          "type": "uint256"
        }
      ],
      "name": "getNHumansInCountry",
      "outputs": [
        {
          "internalType": "uint256",
          "name": "",
          "type": "uint256"
        }
      ],
      "stateMutability": "view",
      "type": "function",
      "constant": true
    },
    {
      "inputs": [
        {
          "internalType": "uint8",
          "name": "timeZone",
          "type": "uint8"
        },
        {
          "internalType": "uint256",
          "name": "countryIdxInTZ",
          "type": "uint256"
        }
      ],
      "name": "getNLeaguesInCountry",
      "outputs": [
        {
          "internalType": "uint256",
          "name": "",
          "type": "uint256"
        }
      ],
      "stateMutability": "view",
      "type": "function",
      "constant": true
    },
    {
      "inputs": [
        {
          "internalType": "uint8",
          "name": "timeZone",
          "type": "uint8"
        },
        {
          "internalType": "uint256",
          "name": "countryIdxInTZ",
          "type": "uint256"
        }
      ],
      "name": "getNTeamsInCountry",
      "outputs": [
        {
          "internalType": "uint256",
          "name": "",
          "type": "uint256"
        }
      ],
      "stateMutability": "view",
      "type": "function",
      "constant": true
    },
    {
      "inputs": [],
      "name": "getNextVerseTimestamp",
      "outputs": [
        {
          "internalType": "uint256",
          "name": "",
          "type": "uint256"
        }
      ],
      "stateMutability": "view",
      "type": "function",
      "constant": true
    },
    {
      "inputs": [
        {
          "internalType": "uint256",
          "name": "encodedSkills",
          "type": "uint256"
        }
      ],
      "name": "getOutOfGameFirstHalf",
      "outputs": [
        {
          "internalType": "bool",
          "name": "",
          "type": "bool"
        }
      ],
      "stateMutability": "pure",
      "type": "function",
      "constant": true
    },
    {
      "inputs": [
        {
          "internalType": "uint8",
          "name": "timeZone",
          "type": "uint8"
        },
        {
          "internalType": "uint256",
          "name": "countryIdxInTZ",
          "type": "uint256"
        },
        {
          "internalType": "uint256",
          "name": "teamIdxInCountry",
          "type": "uint256"
        }
      ],
      "name": "getOwnerTeamInCountry",
      "outputs": [
        {
          "internalType": "address",
          "name": "",
          "type": "address"
        }
      ],
      "stateMutability": "view",
      "type": "function",
      "constant": true
    },
    {
      "inputs": [
        {
          "internalType": "uint256",
          "name": "encodedSkills",
          "type": "uint256"
        }
      ],
      "name": "getPlayerIdFromSkills",
      "outputs": [
        {
          "internalType": "uint256",
          "name": "",
          "type": "uint256"
        }
      ],
      "stateMutability": "pure",
      "type": "function",
      "constant": true
    },
    {
      "inputs": [
        {
          "internalType": "uint256",
          "name": "encodedSkills",
          "type": "uint256"
        }
      ],
      "name": "getPotential",
      "outputs": [
        {
          "internalType": "uint256",
          "name": "",
          "type": "uint256"
        }
      ],
      "stateMutability": "pure",
      "type": "function",
      "constant": true
    },
    {
      "inputs": [
        {
          "internalType": "uint256",
          "name": "encodedSkills",
          "type": "uint256"
        }
      ],
      "name": "getRedCardLastGame",
      "outputs": [
        {
          "internalType": "bool",
          "name": "",
          "type": "bool"
        }
      ],
      "stateMutability": "pure",
      "type": "function",
      "constant": true
    },
    {
      "inputs": [
        {
          "internalType": "uint8",
          "name": "tz",
          "type": "uint8"
        },
        {
          "internalType": "uint8",
          "name": "level",
          "type": "uint8"
        },
        {
          "internalType": "bool",
          "name": "current",
          "type": "bool"
        }
      ],
      "name": "getRoot",
      "outputs": [
        {
          "internalType": "bytes32",
          "name": "",
          "type": "bytes32"
        }
      ],
      "stateMutability": "view",
      "type": "function",
      "constant": true
    },
    {
      "inputs": [
        {
          "internalType": "uint256",
          "name": "encodedSkills",
          "type": "uint256"
        },
        {
          "internalType": "uint8",
          "name": "skillIdx",
          "type": "uint8"
        }
      ],
      "name": "getSkill",
      "outputs": [
        {
          "internalType": "uint256",
          "name": "",
          "type": "uint256"
        }
      ],
      "stateMutability": "pure",
      "type": "function",
      "constant": true
    },
    {
      "inputs": [
        {
          "internalType": "uint8",
          "name": "tz",
          "type": "uint8"
        },
        {
          "internalType": "bool",
          "name": "current",
          "type": "bool"
        }
      ],
      "name": "getStatus",
      "outputs": [
        {
          "internalType": "uint8",
          "name": "",
          "type": "uint8"
        },
        {
          "internalType": "uint8",
          "name": "",
          "type": "uint8"
        },
        {
          "internalType": "bool",
          "name": "",
          "type": "bool"
        }
      ],
      "stateMutability": "view",
      "type": "function",
      "constant": true
    },
    {
      "inputs": [
        {
          "internalType": "uint256",
          "name": "nowTime",
          "type": "uint256"
        },
        {
          "internalType": "uint256",
          "name": "lastUpdate",
          "type": "uint256"
        },
        {
          "internalType": "uint256",
          "name": "challengeTime",
          "type": "uint256"
        },
        {
          "internalType": "uint8",
          "name": "writtenLevel",
          "type": "uint8"
        }
      ],
      "name": "getStatusPure",
      "outputs": [
        {
          "internalType": "uint8",
          "name": "finalLevel",
          "type": "uint8"
        },
        {
          "internalType": "uint8",
          "name": "nJumps",
          "type": "uint8"
        },
        {
          "internalType": "bool",
          "name": "isSettled",
          "type": "bool"
        }
      ],
      "stateMutability": "pure",
      "type": "function",
      "constant": true
    },
    {
      "inputs": [
        {
          "internalType": "uint256",
          "name": "encodedSkills",
          "type": "uint256"
        }
      ],
      "name": "getSubstitutedFirstHalf",
      "outputs": [
        {
          "internalType": "bool",
          "name": "",
          "type": "bool"
        }
      ],
      "stateMutability": "pure",
      "type": "function",
      "constant": true
    },
    {
      "inputs": [
        {
          "internalType": "uint256",
          "name": "encodedSkills",
          "type": "uint256"
        }
      ],
      "name": "getSumOfSkills",
      "outputs": [
        {
          "internalType": "uint256",
          "name": "",
          "type": "uint256"
        }
      ],
      "stateMutability": "pure",
      "type": "function",
      "constant": true
    },
    {
      "inputs": [],
      "name": "getTimeZoneForRound1",
      "outputs": [
        {
          "internalType": "uint8",
          "name": "",
          "type": "uint8"
        }
      ],
      "stateMutability": "view",
      "type": "function",
      "constant": true
    },
    {
      "inputs": [
        {
          "internalType": "uint256",
          "name": "encodedSkills",
          "type": "uint256"
        }
      ],
      "name": "getYellowCardFirstHalf",
      "outputs": [
        {
          "internalType": "bool",
          "name": "",
          "type": "bool"
        }
      ],
      "stateMutability": "pure",
      "type": "function",
      "constant": true
    },
    {
      "inputs": [
        {
          "internalType": "bytes32",
          "name": "left",
          "type": "bytes32"
        },
        {
          "internalType": "bytes32",
          "name": "right",
          "type": "bytes32"
        }
      ],
      "name": "hash_node",
      "outputs": [
        {
          "internalType": "bytes32",
          "name": "hash",
          "type": "bytes32"
        }
      ],
      "stateMutability": "pure",
      "type": "function",
      "constant": true
    },
    {
      "inputs": [
        {
          "internalType": "uint256",
          "name": "teamId",
          "type": "uint256"
        }
      ],
      "name": "isBotTeam",
      "outputs": [
        {
          "internalType": "bool",
          "name": "",
          "type": "bool"
        }
      ],
      "stateMutability": "view",
      "type": "function",
      "constant": true
    },
    {
      "inputs": [
        {
          "internalType": "uint8",
          "name": "timeZone",
          "type": "uint8"
        },
        {
          "internalType": "uint256",
          "name": "countryIdxInTZ",
          "type": "uint256"
        },
        {
          "internalType": "uint256",
          "name": "teamIdxInCountry",
          "type": "uint256"
        }
      ],
      "name": "isBotTeamInCountry",
      "outputs": [
        {
          "internalType": "bool",
          "name": "",
          "type": "bool"
        }
      ],
      "stateMutability": "view",
      "type": "function",
      "constant": true
    },
    {
      "inputs": [
        {
          "internalType": "uint256",
          "name": "verse",
          "type": "uint256"
        }
      ],
      "name": "isTimeToUpdate",
      "outputs": [
        {
          "internalType": "bool",
          "name": "",
          "type": "bool"
        }
      ],
      "stateMutability": "view",
      "type": "function",
      "constant": true
    },
    {
      "inputs": [],
      "name": "market",
      "outputs": [
        {
          "internalType": "address",
          "name": "",
          "type": "address"
        }
      ],
      "stateMutability": "view",
      "type": "function",
      "constant": true
    },
    {
      "inputs": [
        {
          "internalType": "bytes32[]",
          "name": "leafs",
          "type": "bytes32[]"
        },
        {
          "internalType": "uint256",
          "name": "nLevels",
          "type": "uint256"
        }
      ],
      "name": "merkleRoot",
      "outputs": [
        {
          "internalType": "bytes32",
          "name": "",
          "type": "bytes32"
        }
      ],
      "stateMutability": "pure",
      "type": "function",
      "constant": true
    },
    {
      "inputs": [],
      "name": "nextTimeZoneToUpdate",
      "outputs": [
        {
          "internalType": "uint8",
          "name": "tz",
          "type": "uint8"
        },
        {
          "internalType": "uint8",
          "name": "day",
          "type": "uint8"
        },
        {
          "internalType": "uint8",
          "name": "turnInDay",
          "type": "uint8"
        }
      ],
      "stateMutability": "view",
      "type": "function",
      "constant": true
    },
    {
      "inputs": [
        {
          "internalType": "uint256",
          "name": "tz",
          "type": "uint256"
        }
      ],
      "name": "normalizeTZ",
      "outputs": [
        {
          "internalType": "uint8",
          "name": "",
          "type": "uint8"
        }
      ],
      "stateMutability": "pure",
      "type": "function",
      "constant": true
    },
    {
      "inputs": [],
      "name": "prevTimeZoneToUpdate",
      "outputs": [
        {
          "internalType": "uint8",
          "name": "tz",
          "type": "uint8"
        },
        {
          "internalType": "uint8",
          "name": "day",
          "type": "uint8"
        },
        {
          "internalType": "uint8",
          "name": "turnInDay",
          "type": "uint8"
        }
      ],
      "stateMutability": "view",
      "type": "function",
      "constant": true
    },
    {
      "inputs": [],
      "name": "relay",
      "outputs": [
        {
          "internalType": "address",
          "name": "",
          "type": "address"
        }
      ],
      "stateMutability": "view",
      "type": "function",
      "constant": true
    },
    {
      "inputs": [
        {
          "internalType": "uint8",
          "name": "timeZone",
          "type": "uint8"
        },
        {
          "internalType": "uint256",
          "name": "countryIdxInTZ",
          "type": "uint256"
        },
        {
          "internalType": "uint256",
          "name": "teamIdxInCountry",
          "type": "uint256"
        }
      ],
      "name": "teamExistsInCountry",
      "outputs": [
        {
          "internalType": "bool",
          "name": "",
          "type": "bool"
        }
      ],
      "stateMutability": "view",
      "type": "function",
      "constant": true
    },
    {
      "inputs": [
        {
          "internalType": "uint256",
          "name": "verse",
          "type": "uint256"
        },
        {
          "internalType": "uint8",
          "name": "TZForRound1",
          "type": "uint8"
        }
      ],
      "name": "timeZoneToUpdatePure",
      "outputs": [
        {
          "internalType": "uint8",
          "name": "timezone",
          "type": "uint8"
        },
        {
          "internalType": "uint8",
          "name": "day",
          "type": "uint8"
        },
        {
          "internalType": "uint8",
          "name": "turnInDay",
          "type": "uint8"
        }
      ],
      "stateMutability": "pure",
      "type": "function",
      "constant": true
    },
    {
      "inputs": [
        {
          "internalType": "uint8",
          "name": "timeZone",
          "type": "uint8"
        }
      ],
      "name": "tzExists",
      "outputs": [
        {
          "internalType": "bool",
          "name": "",
          "type": "bool"
        }
      ],
      "stateMutability": "pure",
      "type": "function",
      "constant": true
    },
    {
      "inputs": [
        {
          "internalType": "bytes32",
          "name": "root",
          "type": "bytes32"
        },
        {
          "internalType": "bytes32[]",
          "name": "proof",
          "type": "bytes32[]"
        },
        {
          "internalType": "bytes32",
          "name": "leafHash",
          "type": "bytes32"
        },
        {
          "internalType": "uint256",
          "name": "leafPos",
          "type": "uint256"
        }
      ],
      "name": "verify",
      "outputs": [
        {
          "internalType": "bool",
          "name": "",
          "type": "bool"
        }
      ],
      "stateMutability": "pure",
      "type": "function",
      "constant": true
    },
    {
      "inputs": [
        {
          "internalType": "uint8",
          "name": "timeZone",
          "type": "uint8"
        },
        {
          "internalType": "uint256",
          "name": "countryIdxInTZ",
          "type": "uint256"
        },
        {
          "internalType": "uint256",
          "name": "playerIdxInCountry",
          "type": "uint256"
        }
      ],
      "name": "wasPlayerCreatedInCountry",
      "outputs": [
        {
          "internalType": "bool",
          "name": "",
          "type": "bool"
        }
      ],
      "stateMutability": "view",
      "type": "function",
      "constant": true
    },
    {
      "inputs": [
        {
          "internalType": "uint256",
          "name": "playerId",
          "type": "uint256"
        }
      ],
      "name": "wasPlayerCreatedVirtually",
      "outputs": [
        {
          "internalType": "bool",
          "name": "",
          "type": "bool"
        }
      ],
      "stateMutability": "view",
      "type": "function",
      "constant": true
    },
    {
      "inputs": [
        {
          "internalType": "uint256",
          "name": "teamId",
          "type": "uint256"
        }
      ],
      "name": "wasTeamCreatedVirtually",
      "outputs": [
        {
          "internalType": "bool",
          "name": "",
          "type": "bool"
        }
      ],
      "stateMutability": "view",
      "type": "function",
      "constant": true
    },
    {
      "inputs": [
        {
          "internalType": "bytes32[]",
          "name": "leagueLeafs",
          "type": "bytes32[]"
        },
        {
          "internalType": "bool",
          "name": "forceSuccess",
          "type": "bool"
        }
      ],
      "name": "BCVerifableChallengeFake",
      "outputs": [],
      "stateMutability": "nonpayable",
      "type": "function"
    },
    {
      "inputs": [
        {
          "internalType": "bytes32[]",
          "name": "leagueLeafs",
          "type": "bytes32[]"
        }
      ],
      "name": "BCVerifableChallengeZeros",
      "outputs": [],
      "stateMutability": "nonpayable",
      "type": "function"
    },
    {
      "inputs": [
        {
          "internalType": "bytes32[]",
          "name": "leagueLeafs",
          "type": "bytes32[]"
        },
        {
          "internalType": "uint8",
          "name": "day",
          "type": "uint8"
        },
        {
          "internalType": "uint8",
          "name": "half",
          "type": "uint8"
        }
      ],
      "name": "areThereUnexpectedZeros",
      "outputs": [
        {
          "internalType": "bool",
          "name": "",
          "type": "bool"
        }
      ],
      "stateMutability": "pure",
      "type": "function",
      "constant": true
    }
  ],
  "bytecode": "0x608060405234801561001057600080fd5b50612c29806100206000396000f3fe608060405234801561001057600080fd5b50600436106103fc5760003560e01c80638e81924511610215578063d02254a511610125578063e37528bb116100b8578063f4b34e4411610087578063f4b34e4414610f7e578063f9d0723d14610fb0578063fa80039b14610fd6578063fcf9b3be14610ff6578063fd6ff4e414611022576103fc565b8063e37528bb14610f0a578063e804e51914610f27578063f2c3576414610f44578063f2dc657f14610f61576103fc565b8063d7d1b6cf116100f4578063d7d1b6cf14610eb5578063d8f73c3c14610edd578063dcadab5c14610ee5578063e1b27e6b14610f02576103fc565b8063d02254a514610e3e578063d1b3d8fd14610e5b578063d2f7967d14610e78578063d403fabd14610e95576103fc565b8063b6cacec6116101a8578063c395d7a811610177578063c395d7a814610d93578063cc7d473b14610d9b578063ce506ec514610db8578063cebc43a614610dde578063cf01467714610de6576103fc565b8063b6cacec614610c73578063bbb1178014610d20578063c04f6d5314610d50578063c2bc41cd14610d76576103fc565b8063ac197062116101e4578063ac19706214610a75578063adc72df714610b18578063b01a2aa814610c12578063b59589d114610c6b576103fc565b80638e819245146109975780638f963e2d1461099f578063a21ef9fa146109a7578063ab496bba146109c4576103fc565b806356e3df971161031057806376c2d960116102a357806380bac7091161027257806380bac7091461091e57806380c794ce1461094a57806380f556051461096a5780638a89148c146109725780638cc9a8d51461097a576103fc565b806376c2d9601461088c57806379e76597146108b85780637c38fbdd146108d55780637ffa3a2e14610901576103fc565b80636a6cb69f116102df5780636a6cb69f146107805780636c95e760146107a65780636f6c2ae01461084957806370ab93b414610866576103fc565b806356e3df9714610652578063595ef25b1461066f5780635adb40f5146106b75780635f2d1f8d146106dd576103fc565b80633033951d116103935780633518dd1d116103625780633518dd1d146105cd57806338fa26fa146105ea578063434807ad146105f2578063471d6e801461060f57806347524b6014610635576103fc565b80633033951d146105325780633260840b1461055557806332e573ba14610594578063332b8ea3146105c5576103fc565b806321eab316116103cf57806321eab316146104c657806322109151146104ce57806329d0dcfb146104ec5780632d0e08fd14610512576103fc565b80631060c9c214610401578063114536ea146104305780631fc7768f1461047d57806320748ae81461049a575b600080fd5b61041e6004803603602081101561041757600080fd5b5035611048565b60408051918252519081900360200190f35b6104586004803603604081101561044657600080fd5b5060ff81351690602001351515611058565b6040805160ff9485168152928416602084015292168183015290519081900360600190f35b61041e6004803603602081101561049357600080fd5b5035611120565b61041e600480360360608110156104b057600080fd5b5060ff8135169060208101359060400135611129565b61041e611247565b6104d661124f565b6040805160ff9092168252519081900360200190f35b61041e6004803603604081101561050257600080fd5b508035906020013560ff16611259565b61041e6004803603602081101561052857600080fd5b503560ff1661126f565b61041e6004803603604081101561054857600080fd5b50803590602001356112d6565b6105726004803603602081101561056b57600080fd5b5035611301565b6040805160ff9094168452602084019290925282820152519081900360600190f35b6105b1600480360360208110156105aa57600080fd5b503561131d565b604080519115158252519081900360200190f35b61041e61138a565b61041e600480360360208110156105e357600080fd5b5035611391565b61041e61139a565b61041e6004803603602081101561060857600080fd5b50356113a1565b6104586004803603604081101561062557600080fd5b508035906020013560ff166113aa565b6105b16004803603602081101561064b57600080fd5b5035611474565b61041e6004803603602081101561066857600080fd5b5035611480565b61069b6004803603606081101561068557600080fd5b5060ff8135169060208101359060400135611489565b604080516001600160a01b039092168252519081900360200190f35b61041e600480360360408110156106cd57600080fd5b5060ff81351690602001356114e6565b61041e600480360360408110156106f357600080fd5b810190602081018135600160201b81111561070d57600080fd5b82018360208201111561071f57600080fd5b803590602001918460208302840111600160201b8311171561074057600080fd5b9190808060200260200160405190810160405280939291908181526020018383602002808284376000920191909152509295505091359250611539915050565b61041e6004803603604081101561079657600080fd5b5060ff8135169060200135611639565b610847600480360360208110156107bc57600080fd5b810190602081018135600160201b8111156107d657600080fd5b8201836020820111156107e857600080fd5b803590602001918460208302840111600160201b8311171561080957600080fd5b91908080602002602001604051908101604052809392919081815260200183836020028082843760009201919091525092955061164c945050505050565b005b61041e6004803603602081101561085f57600080fd5b5035611737565b61041e6004803603604081101561087c57600080fd5b5060ff8135169060200135611758565b6105b1600480360360608110156108a257600080fd5b5060ff813516906020810135906040013561176d565b6104d6600480360360208110156108ce57600080fd5b5035611783565b61041e600480360360608110156108eb57600080fd5b5060ff813516906020810135906040013561178c565b6105b16004803603602081101561091757600080fd5b5035611870565b6105b16004803603606081101561093457600080fd5b5060ff813516906020810135906040013561187c565b61041e6004803603602081101561096057600080fd5b503560ff1661189c565b61069b6118b6565b6104586118c6565b6105b16004803603602081101561099057600080fd5b50356118ed565b61041e61191e565b61041e611925565b6105b1600480360360208110156109bd57600080fd5b503561192c565b6105b1600480360360608110156109da57600080fd5b810190602081018135600160201b8111156109f457600080fd5b820183602082011115610a0657600080fd5b803590602001918460208302840111600160201b83111715610a2757600080fd5b9190808060200260200160405190810160405280939291908181526020018383602002808284376000920191909152509295505060ff83358116945060209093013590921691506119559050565b61084760048036036040811015610a8b57600080fd5b810190602081018135600160201b811115610aa557600080fd5b820183602082011115610ab757600080fd5b803590602001918460208302840111600160201b83111715610ad857600080fd5b9190808060200260200160405190810160405280939291908181526020018383602002808284376000920191909152509295505050503515159050611b20565b610bc260048036036060811015610b2e57600080fd5b81359190810190604081016020820135600160201b811115610b4f57600080fd5b820183602082011115610b6157600080fd5b803590602001918460208302840111600160201b83111715610b8257600080fd5b9190808060200260200160405190810160405280939291908181526020018383602002808284376000920191909152509295505091359250611bef915050565b60408051602080825283518183015283519192839290830191858101910280838360005b83811015610bfe578181015183820152602001610be6565b505050509050019250505060405180910390f35b610c3260048036036020811015610c2857600080fd5b503560ff16611d99565b60405180826101c080838360005b83811015610c58578181015183820152602001610c40565b5050505090500191505060405180910390f35b61069b611de8565b6105b160048036036080811015610c8957600080fd5b81359190810190604081016020820135600160201b811115610caa57600080fd5b820183602082011115610cbc57600080fd5b803590602001918460208302840111600160201b83111715610cdd57600080fd5b9190808060200260200160405190810160405280939291908181526020018383602002808284376000920191909152509295505082359350505060200135611df8565b61041e60048036036060811015610d3657600080fd5b5060ff813581169160208101359091169060400135611e6f565b61041e60048036036040811015610d6657600080fd5b5060ff8135169060200135611ed1565b61041e60048036036020811015610d8c57600080fd5b5035611ee7565b610458611ef0565b6105b160048036036020811015610db157600080fd5b5035611f28565b6105b160048036036040811015610dce57600080fd5b5060ff8135169060200135611f34565b61069b611f4e565b610e1860048036036080811015610dfc57600080fd5b508035906020810135906040810135906060013560ff16611f5e565b6040805160ff948516815292909316602083015215158183015290519081900360600190f35b6105b160048036036020811015610e5457600080fd5b5035611fde565b6105b160048036036020811015610e7157600080fd5b5035611ffe565b61041e60048036036020811015610e8e57600080fd5b503561200a565b6105b160048036036020811015610eab57600080fd5b503560ff16612018565b610e1860048036036040811015610ecb57600080fd5b5060ff81351690602001351515612033565b61069b6120e5565b6104d660048036036020811015610efb57600080fd5b50356120f5565b61069b612108565b6105b160048036036020811015610f2057600080fd5b5035612118565b6104d660048036036020811015610f3d57600080fd5b5035612124565b6105b160048036036020811015610f5a57600080fd5b503561212d565b61041e60048036036020811015610f7757600080fd5b5035612139565b61041e60048036036060811015610f9457600080fd5b5060ff8135811691602081013590911690604001351515612143565b61041e60048036036040811015610fc657600080fd5b5060ff81351690602001356121e2565b61041e60048036036020811015610fec57600080fd5b503560ff166121f0565b6105b16004803603606081101561100c57600080fd5b5060ff8135169060208101359060400135612257565b610c326004803603604081101561103857600080fd5b5060ff8135169060200135612270565b6207ffff60b582901c165b919050565b600080600080846110815760ff808716600090815261102c602052604090205416600103611098565b60ff808716600090815261102c6020526040902054165b90508061102a60008860ff1681526020019081526020016000208260ff16600281106110c057fe5b602091828204019190069054906101000a900460ff1661102860008960ff1681526020019081526020016000208360ff16600281106110fb57fe5b602091828204019190069054906101000a900460ff16935093509350505b9250925092565b607e1c60071690565b600060208460ff161061117b576040805162461bcd60e51b81526020600482015260156024820152741d1a5b595e9bdb99481bdd5d081bd988189bdd5b99605a1b604482015290519081900360640190fd5b61040083106111d1576040805162461bcd60e51b815260206004820152601b60248201527f636f756e747279496478496e545a206f7574206f6620626f756e640000000000604482015290519081900360640190fd5b63100000008210611229576040805162461bcd60e51b815260206004820152601a60248201527f76616c20746f20656e636f6465206f7574206f6620626f756e64000000000000604482015290519081900360640190fd5b50601c82901b653fc000000000602685901b161781175b9392505050565b611020545b90565b61101e5460ff1690565b620fffff601460ff83160283901c165b92915050565b600061127a82612018565b6112bf576040805162461bcd60e51b81526020600482015260116024820152701d1e88191bd95cc81b9bdd08195e1a5cdd607a1b604482015290519081900360640190fd5b5060ff16600090815261102e602052604090205490565b6000811580156112e4575082155b156112f157506000611269565b5060009182526020526040902090565b602681901c601f1691601c82901c6103ff1691630fffffff1690565b600061101f54821461133157506000611053565b600061133b611ef0565b509091505060ff8116611352576000915050611053565b61135b816121f0565b6113648261126f565b10611373576000915050611053565b6000611380826001612033565b9695505050505050565b6110095481565b607b1c60071690565b61101d5490565b60741c600f1690565b600080806003851660248280600284108015906113c657508289105b156113df57506000955085945084935061111992505050565b600284101561141c5760046060858b0306048860ff16019150606060ff16848960ff1684036004028b03036002028161141457fe5b049050611455565b60046060848b0306048860ff16019150606060ff16838960ff1684036004028b03036002028161144857fe5b0460010190506002840393505b839450611461826120f5565b9650600e81069550505050509250925092565b60cc1c60019081161490565b60cd1c60ff1690565b600061149484612018565b15806114a757506114a58484611f34565b155b156114b457506000611240565b61101660006114c4868686611129565b81526020810191909152604001600020546001600160a01b0316949350505050565b60006114f183612018565b158061150457506115028383611f34565b155b1561151157506000611269565b611012600061152285856000611129565b815260200190815260200160002054905092915050565b8151600090600283900a90825b848160ff16101561161957600283049250600282061561156c5760028204600101611571565b600282045b91508282111561157f578291505b60005b828110156115e2576115c387826002028151811061159c57fe5b60200260200101518883600202600101815181106115b657fe5b60200260200101516112d6565b8782815181106115cf57fe5b6020908102919091010152600101611582565b50815b83811015611610576000801b8782815181106115fd57fe5b60209081029190910101526001016115e5565b50600101611546565b508460008151811061162757fe5b60200260200101519250505092915050565b6000611013600061152285856000611129565b6116546129bf565b61165c6122b8565b9050600181600260200201510360ff16816001602002015160ff16146116b35760405162461bcd60e51b81526004018080602001828103825260458152602001806129fd6045913960600191505060405180910390fd5b6000806116be611ef0565b92509250506116ce848383611955565b6117095760405162461bcd60e51b8152600401808060200182810382526024815260200180612aed6024913960400191505060405180910390fd5b6040805160008082526020820190925261172791859181908861256a565b5061173183612816565b50505050565b600061174282611474565b6117545761174f8261200a565b611269565b5090565b6000611240836117678561189c565b8461178c565b60006117798484611ed1565b9091109392505050565b60b11c60071690565b6000808460ff161180156117a3575060198460ff16105b6117ec576040805162461bcd60e51b815260206004820152601560248201527474696d657a6f6e65206f7574206f662072616e676560581b604482015290519081900360640190fd5b61101e5460009060ff90811690861610156118125761101e5460ff16850360180161181c565b61101e5460ff1685035b60ff16905060028306611848578360076018020283600c02820101610e10026110215401915050611240565b8360076030020260018403601802826002026013010101610708026110215401915050611240565b60d61c60019081161490565b60008061188a858585611489565b6001600160a01b031614949350505050565b61101e5461101f5460009161126991849160ff1690611e6f565b611005546001600160a01b031690565b61101f5461101e54600091829182916118e19160ff166113aa565b9250925092505b909192565b6000600182141561190057506000611053565b50600090815261101660205260409020546001600160a01b03161590565b61101f5490565b6110235490565b60008060008061193b85611301565b92509250925061194c83838361176d565b95945050505050565b600060ff8316158015611969575060ff8216155b15611a1c5760005b60088161ffff1610156119b157848161ffff168151811061198e57fe5b60200260200101516000801b146119a9576001915050611240565b600101611971565b5060005b600861ffff82161015611a1a576080604082020160195b601c8161ffff161015611a10578681830161ffff16815181106119eb57fe5b60200260200101516000801b14611a085760019350505050611240565b6001016119cc565b50506001016119b5565b505b60005b600861ffff82161015611ab65760806040820201601c5b60208161ffff161015611aac578681830161ffff1681518110611a5557fe5b60200260200101516000801b14611a725760019350505050611240565b8681836020010161ffff1681518110611a8757fe5b60200260200101516000801b14611aa45760019350505050611240565b600101611a36565b5050600101611a1f565b5060ff60088085020181169060019084161415611ad1576008015b805b60808161ffff161015611b1457858161ffff1681518110611af057fe5b60200260200101516000801b14611b0c57600192505050611240565b600101611ad3565b50600095945050505050565b611b286129bf565b611b306122b8565b60408051600080825260208201909252919250611b529183919081908761256a565b506040810151602082015160ff9081166000199092011614611ba55760405162461bcd60e51b81526004018080602001828103825260458152602001806129fd6045913960600191505060405180910390fd5b81611be15760405162461bcd60e51b8152600401808060200182810382526031815260200180612a956031913960400191505060405180910390fd5b611bea81612816565b505050565b606060008260020a905080845114611c385760405162461bcd60e51b8152600401808060200182810382526027815260200180612ac66027913960400191505060405180910390fd5b82604051908082528060200260200182016040528015611c62578160200160208202803683370190505b5091506002850615611c8a57836001860381518110611c7d57fe5b6020026020010151611ca2565b838560010181518110611c9957fe5b60200260200101515b82600081518110611caf57fe5b602090810291909101015260005b600184038160ff161015611d905760028204915060028604955060005b82811015611d2d57611d0e868260020281518110611cf457fe5b60200260200101518783600202600101815181106115b657fe5b868281518110611d1a57fe5b6020908102919091010152600101611cda565b506002860615611d5357846001870381518110611d4657fe5b6020026020010151611d6b565b848660010181518110611d6257fe5b60200260200101515b838260010160ff1681518110611d7d57fe5b6020908102919091010152600101611cbd565b50509392505050565b611da16129dd565b60005b600e8160ff161015611de257611dc683611dbd8561189c565b8360ff1661178c565b828260ff16600e8110611dd557fe5b6020020152600101611da4565b50919050565b611007546001600160a01b031690565b6000805b84518163ffffffff161015611e645760028306611e3057611e2984868363ffffffff16815181106115b657fe5b9350611e56565b611e53858263ffffffff1681518110611e4557fe5b6020026020010151856112d6565b93505b600283049250600101611dfc565b505050909114919050565b60006102a0821015611e8357506000611240565b6102a08204600060ff8086169087161015611ea357848660180103611ea7565b8486035b60ff169050600481026102a0830201841015611ec95750600019019050611240565b509050611240565b60006008611edf84846121e2565b029392505050565b60781c60071690565b600080600061101f5460001415611f0f575060009150819050806118e8565b61101f5461101e546118e191600019019060ff166113aa565b60ad1c60019081161490565b60ff91909116600090815261101760205260409020541190565b611008546001600160a01b031690565b6000808084611f77575082915060009050848611611fd4565b6000868811611f87576000611f94565b8587890381611f9257fe5b045b9050806002028560ff161015611fad5760018516611fb7565b806002028560ff16035b9350600260ff85870316049250505060ff60018201168402850186115b9450945094915050565b600080600080611fed85611301565b92509250925061194c838383612257565b60d51c60019081161490565b60811c6507ffffffffff1690565b600060ff821615801590611269575050601960ff9091161090565b6000806000808461205c5760ff808716600090815261102c602052604090205416600103612073565b60ff808716600090815261102c6020526040902054165b60ff808816600090815261102a60205260408120929350919083166002811061209857fe5b602091828204019190069054906101000a900460ff1690506120d64261102e60008a60ff168152602001908152602001600020546110235484611f5e565b94509450945050509250925092565b61102f546001600160a01b031681565b6000601860178301066001019050919050565b611006546001600160a01b031690565b60b41c60019081161490565b60ae1c60071690565b60ac1c60019081161490565b60641c61ffff1690565b6000816121975760ff80851660009081526110296020908152604080832061102c909252909120549091908116600103166002811061217e57fe5b600602018360ff166006811061219057fe5b01546121da565b60ff80851660009081526110296020908152604080832061102c90925290912054909116600281106121c557fe5b600602018360ff16600681106121d757fe5b01545b949350505050565b60006010611edf84846114e6565b60006121fb82612018565b612240576040805162461bcd60e51b81526020600482015260116024820152701d1e88191bd95cc81b9bdd08195e1a5cdd607a1b604482015290519081900360640190fd5b5060ff16600090815261102d602052604090205490565b600060126122658585611ed1565b029091109392505050565b6122786129dd565b60005b600e8160ff1610156122b15761229584848360ff1661178c565b828260ff16600e81106122a457fe5b602002015260010161227b565b5092915050565b6122c06129bf565b6122c8611ef0565b505060ff1680825261230b5760405162461bcd60e51b8152600401808060200182810382526022815260200180612a736022913960400191505060405180910390fd5b8051612318906001611058565b60ff90811660408501529081166020840152166060820152805160009081908190612344906001612033565b92509250925080156123875760405162461bcd60e51b8152600401808060200182810382526031815260200180612bc36031913960400191505060405180910390fd5b60ff8216612398575061124c915050565b60ff60028302840116846001602002015160ff16146123e85760405162461bcd60e51b8152600401808060200182810382526046815260200180612b116046913960600191505060405180910390fd5b835160ff908116600090815261102c6020526040812054909116905b8360ff168160ff16101561250357855160ff9081166000908152611029602052604081206002600185018102890193861690811061243e57fe5b600602018260ff166006811061245057fe5b0155865160ff908116600090815261102960205260408120909185166002811061247657fe5b600602016001830360ff166006811061248b57fe5b015586516040805160ff9283168152918316602083015260018282015251600080516020612ba38339815191529181900360600190a186516040805160ff92831681526000198401909216602083015260008282015251600080516020612ba38339815191529181900360600190a150600101612404565b50845160ff908116600090815261102a60205260409020859183166002811061252857fe5b602091828204019190066101000a81548160ff021916908360ff160217905550838560016004811061255657fe5b60ff90921660209290920201525050505090565b60006125746122b8565b95506000866002602002015160ff16876001602002015160020160ff161061261a576110225483516201000090910461ffff16146125f9576040805162461bcd60e51b815260206004820152601e60248201527f6c6561677565206c65616673206d7573742068617665206c656e203634300000604482015290519081900360640190fd5b61102254612613908490600160201b900461ffff16611539565b9050612691565b61102254835161ffff90911660020a1461267b576040805162461bcd60e51b815260206004820152601e60248201527f6c6561677565206c65616673206d7573742068617665206c656e203634300000604482015290519081900360640190fd5b6110225461268e90849061ffff16611539565b90505b602087015160ff166126ef5786516126ac9060006001612143565b8114156126ea5760405162461bcd60e51b8152600401808060200182810382526031815260200180612a426031913960400191505060405180910390fd5b611380565b6040870151602088015160010160ff9081169116141561275c57865161271f908860015b60200201516001612143565b81146126ea5760405162461bcd60e51b8152600401808060200182810382526031815260200180612a426031913960400191505060405180910390fd5b8581141561279b5760405162461bcd60e51b815260040180806020018281038252604c815260200180612b57604c913960600191505060405180910390fd5b86516000906127ac90896001612713565b90506127ba81868989611df8565b61280b576040805162461bcd60e51b815260206004820152601860248201527f6d65726b6c652070726f6f66206e6f7420636f72726563740000000000000000604482015290519081900360640190fd5b509695505050505050565b805160ff16600090815261102960205260408120826003602002015160ff166002811061283f57fe5b60060201826001602002015160ff166006811061285857fe5b0155602080820151825160ff16600090815261102a909252604090912060001990910190826003602002015160ff166002811061289157fe5b602091828204019190066101000a81548160ff021916908360ff160217905550600080516020612ba3833981519152816000600481106128cd57fe5b6020020151826001602090810291909101516040805160ff94851681526001928301949094169284019290925282820152519081900360600190a180516020808301516040805160ff9485168152939091169183019190915260008282015251600080516020612ba38339815191529181900360600190a161102f546020820151604080516301865e3160e21b815260001990920160ff166004830152336024830152516001600160a01b039092169163061978c49160448082019260009290919082900301818387803b1580156129a457600080fd5b505af11580156129b8573d6000803e3d6000fd5b5050505050565b60405180608001604052806004906020820280368337509192915050565b604051806101c00160405280600e90602082028036833750919291505056fe746869732066756e6374696f6e206d757374206f6e6c792062652063616c6c656420666f72206e6f6e2d76657269666961626c652d62792d4243206368616c6c656e67657370726f7669646564206c65616673206c65616420746f2073616d6520726f6f74206265696e67206368616c6c656e67656463616e6e6f74206368616c6c656e676520746865206e756c6c2074696d657a6f6e6566616b65206368616c6c656e6765206661696c656420626563617573652069742077617320746f6c6420746f206661696c6e756d626572206f66206c65616673206973206e6f74203d20706f7728322c6e4c6576656c73296368616c6c656e676520746f20756e6578706563746564207a65726f73206661696c65646368616c6c656e6765207374617475733a206e4a756d707320696e636f6d70617469626c652077697468207772697474656e4c6576656c20616e642066696e616c4c6576656c796f7520617265206465636c6172696e672074686174207468652070726f7669646564206c65616673206c65616420746f2073616d6520726f6f74206265696e67206368616c6c656e6765647ad96f4b423a7ffee1a2308ae6c93137e8caaa7d5344b881962db266874d151a6368616c6c656e67696e672074696d65206973206f76657220666f72207468652063757272656e742074696d657a6f6e65a264697066735822122090acee140abb9348de100ed30ba7d122699a6d0e96d79fbe49f32e50b802af8f64736f6c63430006030033",
  "source": "pragma solidity >= 0.6.3;\n\nimport \"./UpdatesBase.sol\";\n\n/**\n @title Library of functions used to Challenge\n @author Freeverse.io, www.freeverse.io\n @dev Under construction. Only a small subset implemented yet\n @dev Currently, all functions in this contract are fully disabled.\n*/\n\n/// Warning: This contract must ALWAYS inherit UpdatesBase first, so that it ends up inheriting Storage before any other contract.\ncontract Challenges is UpdatesBase {\n\n    function BCVerifableChallengeFake(bytes32[] memory leagueLeafs, bool forceSuccess) public {\n        /// intData = [tz, level, levelVerifiable, idx]\n        uint8[4] memory intData = _cleanTimeAcceptedChallenges();\n        _assertFormallyCorrectChallenge(intData, 0, 0, new bytes32[](0) , leagueLeafs);\n        require(intData[1] == intData[2] - 1, \"this function must only be called for non-verifiable-by-BC challenges\"); \n        require(forceSuccess, \"fake challenge failed because it was told to fail\");\n        _completeSuccessfulVerifiableChallenge(intData);\n    }\n\n    function BCVerifableChallengeZeros(bytes32[] memory leagueLeafs) public {\n        /// intData = [tz, level, levelVerifiable, idx]\n        uint8[4] memory intData = _cleanTimeAcceptedChallenges();\n        require(intData[1] == intData[2] - 1, \"this function must only be called for non-verifiable-by-BC challenges\"); \n\n        (, uint8 day, uint8 half) = prevTimeZoneToUpdate();\n        require(areThereUnexpectedZeros(leagueLeafs, day, half), \"challenge to unexpected zeros failed\");\n        _assertFormallyCorrectChallenge(intData, 0, 0, new bytes32[](0), leagueLeafs);\n        _completeSuccessfulVerifiableChallenge(intData);\n    }\n    \n    /// check that leagueLeafs.length == 640 has been done before calling this function (to preserve it being pure)\n    function areThereUnexpectedZeros(bytes32[] memory leagueLeafs, uint8 day, uint8 half) public pure returns(bool) {\n        if ((day == 0) && (half == 0)) {\n            /// at end of 1st half we still do not have league points\n            for (uint16 i = 0; i < 8; i++) {\n                if (leagueLeafs[i] != 0) return true;\n            }\n            /// we do not have tactics, nor training, nor ML before\n            for (uint16 team = 0; team < TEAMS_PER_LEAGUE; team++) {\n                uint16 off = 128 + 64 * team;\n                for (uint16 i = 25; i < 28; i++) {\n                    if (leagueLeafs[off + i] != 0) return true;\n                }\n            }\n        }\n        /// every element of team from 28 to 32 is 0\n        for (uint16 team = 0; team < TEAMS_PER_LEAGUE; team++) {\n            uint16 off = 128 + 64 * team;\n            for (uint16 i = 28; i < 32; i++) {\n                if (leagueLeafs[off + i] != 0) return true;\n                if (leagueLeafs[off+ 32 + i] != 0) return true;\n            }\n        }\n        /// no goals after this day\n        uint16 off = 8 + 8 * day;\n        if (half == 1) off += 8;\n        for (uint16 i = off; i < 128; i++) {\n            if (leagueLeafs[i] != 0) return true;\n        }\n        return false;\n    }\n}\n",
  "sourcePath": "/Users/jurgenkudla/proyects/laos/laos-goal-revolution/truffle-core/contracts/storage/Challenges.sol",
  "compiler": {
    "name": "solc",
    "version": "0.6.3+commit.8dda9521.Emscripten.clang"
  },
  "schemaVersion": "3.0.23",
  "updatedAt": "2024-10-16T08:58:34.598Z",
  "networkType": "ethereum",
  "devdoc": {
    "methods": {
      "encodeTZCountryAndVal(uint8,uint256,uint256)": {
        "details": "PlayerId and TeamId both serialize a total of 43 bits:     timeZone        = 5 bits     countryIdxInTZ  = 10 bits     val             = 28 bits (either  (playerIdxInCountry or teamIdxInCountry)*"
      }
    }
  },
  "userdoc": {
    "methods": {
      "areThereUnexpectedZeros(bytes32[],uint8,uint8)": {
        "notice": "check that leagueLeafs.length == 640 has been done before calling this function (to preserve it being pure)"
      },
      "getMatchUTC(uint8,uint256,uint256)": {
        "notice": "tz(n0)   : 11.30 = 0          : 21.00 = 11.30 + 9.30h tz(n)    : 11.30 + (n-n0)*1h          : 21.00 + (n-n0)*1h          : 11.30 + (n-n0)*1h + 24h * day (day = mDay/2)              = 11.30 + ( deltaN + 12 * mDay ) * 1h          : 21.00 + (n-n0) + 24h * day (day = (mDay-1)/2)              = 11.30 + (9.5 + deltaN + 12 * (mDay-1) ) * 1h add round * T_round = round * 7 * 24 * 3600 = round * DAYS_PER_ROUND * 24 * 1h  if even: 11.30 + ( deltaN + 12 * mDay + 24 * round * DAYS_PER_ROUND ) * 1h if odd:  11.30 + (9.5 + deltaN + 12 * (mDay-1) + 24 * round * DAYS_PER_ROUND ) * 1h        = 11.30 + (19 + 2*deltaN + 24 * (mDay-1) + 48 * round * DAYS_PER_ROUND ) * (1h/2)"
      },
      "getOwnerTeamInCountry(uint8,uint256,uint256)": {
        "notice": "returns NULL_ADDR if team is bot"
      },
      "isBotTeamInCountry(uint8,uint256,uint256)": {
        "notice": "Rest of view/pure functions "
      },
      "merkleRoot(bytes32[],uint256)": {
        "notice": "This function will revert if nLevels = 0. nLeafs = 2**nLevels  nLevels = 1 => 3 leafs = lev1 - root /// lev0 - 2 leafs  nLevels = 2 => 7 leafs = lev2 - root /// lev1 - 2 leafs /// lev0 - 4 leafs"
      },
      "nextTimeZoneToUpdate()": {
        "notice": "each day has 24 hours, each with 4 verses => 96 verses per day. day = 0,..13 turnInDay = 0, 1, 2, 3 so for each TZ, we go from (day, turn) = (0, 0) ... (13,3) => a total of 14*4 = 56 turns per tz from these, all map easily to timeZones"
      },
      "timeZoneToUpdatePure(uint256,uint8)": {
        "notice": "tz0  : v = 0, V_DAY, 2 * V_DAY... tzN  : v = 4N + V_DAY * day,  day = 0,...6 tzN  : v = 4N + V_DAY * day,  day = 0,...6  => tzN - tz0 = (v - V_DAY*day)  => 4 tzN = 4 tz0 + v % VERSES_PER_DAY last : v = V_DAY + DELTA + V_DAY * 6  Imagine 2 tzs: 0:00 - tz0; 0:30 - NUL; 1:00 - tz1; 1:30 - tz0; 0:00 - tz0; 0:30 - tz1; So the last"
      },
      "verify(bytes32,bytes32[],bytes32,uint256)": {
        "notice": "if nLevels = 1, we need 1 element in the proof if nLevels = 2, we need 2 elements...        .     ..   ..   .. .. .. ..   01 23 45 67"
      }
    },
    "notice": "Warning: This contract must ALWAYS inherit UpdatesBase first, so that it ends up inheriting Storage before any other contract."
  }
}