{
  "contractName": "ComputeSkills",
  "abi": [
    {
      "inputs": [
        {
          "internalType": "uint256",
          "name": "teamId",
          "type": "uint256"
        },
        {
          "internalType": "uint8",
          "name": "shirtNum",
          "type": "uint8"
        },
        {
          "internalType": "uint8",
          "name": "potential",
          "type": "uint8"
        }
      ],
      "name": "computeSkills",
      "outputs": [
        {
          "internalType": "uint32[5]",
          "name": "",
          "type": "uint32[5]"
        },
        {
          "internalType": "uint8[4]",
          "name": "",
          "type": "uint8[4]"
        },
        {
          "internalType": "uint32",
          "name": "",
          "type": "uint32"
        }
      ],
      "stateMutability": "pure",
      "type": "function"
    }
  ],
  "bytecode": "0x608060405234801561001057600080fd5b506103f6806100206000396000f3fe608060405234801561001057600080fd5b506004361061002b5760003560e01c8063127f05e014610030575b600080fd5b61005e6004803603606081101561004657600080fd5b5080359060ff602082013581169160400135166100d5565b604051808460a080838360005b8381101561008357818101518382015260200161006b565b5050505090500183600460200280838360005b838110156100ae578181015183820152602001610096565b505050509050018263ffffffff1663ffffffff168152602001935050505060405180910390f35b6100dd610384565b6100e56103a2565b60006100ef610384565b6100f7610384565b6040805160208082018b905260ff8a1682840181905283518084038501815260609093019093528151910120600281811c926000928392600390911691101561015157600e85526006604086015260009250829150610219565b60078b60ff16101561017b576004855260106060860152600192506007845b066001019150610219565b600a8b60ff16101561019a576010604086015260029250600784610170565b600c8b60ff1610156101bc57600d604086015260078086526004935084610170565b600e8b60ff1610156101e257600d60408601526007606086018190526005935084610170565b60108b60ff1610156102065760108552600560608601526003925060069150610219565b6010855260056060860152600392508291505b60039390931c926000805b600560ff821610156102e557868160ff166005811061023f57fe5b602002015161027557610320860661ffff16888260ff166005811061026057fe5b63ffffffff90921660209290920201526102bd565b600a878260ff166005811061028657fe5b60200201516103208806028161029857fe5b0461ffff16888260ff16600581106102ac57fe5b63ffffffff90921660209290920201525b878160ff16600581106102cc57fe5b6020020151600a9690961c959190910190600101610224565b50600561138882900363ffffffff160460005b600560ff821610156103415781898260ff166005811061031457fe5b602002015101898260ff166005811061032957fe5b63ffffffff90921660209290920201526001016102f8565b506040805160808101825260ff9d8e168152958d166020870152938c169385019390935299166060830152939a9099506005909302909601965090945050505050565b6040518060a001604052806005906020820280368337509192915050565b6040518060800160405280600490602082028036833750919291505056fea2646970667358221220e318e4c90a1c7b590f27f6df0565d28de983a9c30b0abc89e273722efa66412364736f6c63430006030033",
  "source": "pragma solidity >= 0.6.3;\n\nimport \"../storage/Constants.sol\";\n\n/**\n @title Pure function that computes skills at birth\n @author Freeverse.io, www.freeverse.io\n*/\n\n\ncontract ComputeSkills is Constants {\n\n    //// Compute the pseudorandom skills, sum of the skills is 5K (1K each skill on average)\n    //// skills have currently, 16bits each, and there are 5 of them\n    //// potential is a number between 0 and 9 => takes 4 bit\n    //// 0: 000, 1: 001, 2: 010, 3: 011, 4: 100, 5: 101, 6: 110, 7: 111\n    //// @return uint32[N_SKILLS] skills, uint8 potential, uint8 forwardness, uint8 leftishness\n    function computeSkills(uint256 teamId, uint8 shirtNum, uint8 potential) public pure returns (uint32[N_SKILLS] memory, uint8[4] memory, uint32) {\n        uint32[5] memory skills;\n        uint256[N_SKILLS] memory correctFactor;\n        uint256 dna = uint256(keccak256(abi.encode(teamId, shirtNum)));\n        uint8 forwardness;\n        uint8 leftishness;\n        uint8 aggressiveness = uint8(dna % 4);\n        dna >>= 2; /// log2(4) = 2\n        /// correctFactor/10 increases a particular skill depending on player's forwardness\n        if (shirtNum < 2) {\n            /// 2 GoalKeepers:\n            correctFactor[SK_SHO] = 14;\n            correctFactor[SK_PAS] = 6;\n            forwardness = IDX_GK;\n            leftishness = 0;\n        } else if (shirtNum < 7) {\n            /// 5 Defenders\n            correctFactor[SK_SHO] = 4;\n            correctFactor[SK_DEF] = 16;\n            forwardness = IDX_D;\n            leftishness = uint8(1+ (dna % 7));\n        } else if (shirtNum < 10) {\n            /// 3 Pure Midfielders\n            correctFactor[SK_PAS] = 16;\n            forwardness = IDX_M;\n            leftishness = uint8(1+ (dna % 7));\n        } else if (shirtNum < 12) {\n            /// 2 Defensive Midfielders\n            correctFactor[SK_PAS] = 13;\n            correctFactor[SK_SHO] = 7;\n            forwardness = IDX_MD;\n            leftishness = uint8(1+ (dna % 7));\n        } else if (shirtNum < 14) {\n            /// 2 Attachking Midfielders\n            correctFactor[SK_PAS] = 13;\n            correctFactor[SK_DEF] = 7;\n            forwardness = IDX_MF;\n            leftishness = uint8(1+ (dna % 7));\n        } else if (shirtNum < 16) {\n            /// 2 Forwards that play center-left\n            correctFactor[SK_SHO] = 16;\n            correctFactor[SK_DEF] = 5;\n            forwardness = IDX_F;\n            leftishness = 6;\n        } else {\n            /// 2 Forwards that play center-right\n            correctFactor[SK_SHO] = 16;\n            correctFactor[SK_DEF] = 5;\n            forwardness = IDX_F;\n            leftishness = 3;\n        }\n        dna >>= 3; /// log2(7) = 2.9 => ceil = 3                      \n\n        //// Compute initial skills, as a random with [0, 49] \n        //// ...apply correction factor depending on preferred pos,\n        uint32 excess;\n        for (uint8 i = 0; i < N_SKILLS; i++) {\n            if (correctFactor[i] == 0) {\n                skills[i] = uint16(dna % 800);\n            } else {\n                skills[i] = uint16(((dna % 800) * correctFactor[i])/10);\n            }\n            excess += skills[i];\n            dna >>= 10; /// los2(1000) -> ceil\n        }\n        /// at this point, excess is at most, last two cases: (1.6+0.7+3)*800 = 4240, so 5000-excess is safe\n        /// and for GKS: (2+ 0.6 + 3)*800 = 4480, so 5000-excess is safe.\n        uint32 delta;\n        delta = (5000 - excess) / N_SKILLS;\n        for (uint8 i = 0; i < N_SKILLS; i++) skills[i] = skills[i] + delta;\n        /// note: final sum of skills = excess + N_SKILLS * delta;\n        return (skills, [potential, forwardness, leftishness, aggressiveness], uint32(excess + N_SKILLS * delta));\n    }\n}",
  "sourcePath": "/Users/jurgenkudla/proyects/laos/laos-goal-revolution/goalrev-ganache/contracts/storage/ComputeSkills.sol",
  "compiler": {
    "name": "solc",
    "version": "0.6.3+commit.8dda9521.Emscripten.clang"
  },
  "schemaVersion": "3.0.23",
  "updatedAt": "2024-10-18T06:09:35.463Z",
  "devdoc": {
    "author": "Freeverse.io, www.freeverse.io",
    "methods": {},
    "title": "Pure function that computes skills at birth"
  },
  "userdoc": {
    "methods": {
      "computeSkills(uint256,uint8,uint8)": {
        "notice": "/ Compute the pseudorandom skills, sum of the skills is 5K (1K each skill on average) / skills have currently, 16bits each, and there are 5 of them / potential is a number between 0 and 9 => takes 4 bit / 0: 000, 1: 001, 2: 010, 3: 011, 4: 100, 5: 101, 6: 110, 7: 111"
      }
    }
  }
}