{
  "contractName": "ConstantsGetters",
  "abi": [
    {
      "inputs": [],
      "name": "get_PLAYERS_PER_TEAM_MAX",
      "outputs": [
        {
          "internalType": "uint8",
          "name": "",
          "type": "uint8"
        }
      ],
      "stateMutability": "pure",
      "type": "function",
      "constant": true
    },
    {
      "inputs": [],
      "name": "get_PLAYERS_PER_TEAM_INIT",
      "outputs": [
        {
          "internalType": "uint8",
          "name": "",
          "type": "uint8"
        }
      ],
      "stateMutability": "pure",
      "type": "function",
      "constant": true
    },
    {
      "inputs": [],
      "name": "get_NULL_ADDR",
      "outputs": [
        {
          "internalType": "address",
          "name": "",
          "type": "address"
        }
      ],
      "stateMutability": "pure",
      "type": "function",
      "constant": true
    },
    {
      "inputs": [],
      "name": "get_LEAGUES_PER_DIV",
      "outputs": [
        {
          "internalType": "uint8",
          "name": "",
          "type": "uint8"
        }
      ],
      "stateMutability": "pure",
      "type": "function",
      "constant": true
    },
    {
      "inputs": [],
      "name": "get_TEAMS_PER_LEAGUE",
      "outputs": [
        {
          "internalType": "uint8",
          "name": "",
          "type": "uint8"
        }
      ],
      "stateMutability": "pure",
      "type": "function",
      "constant": true
    },
    {
      "inputs": [],
      "name": "get_FREE_PLAYER_ID",
      "outputs": [
        {
          "internalType": "uint256",
          "name": "",
          "type": "uint256"
        }
      ],
      "stateMutability": "pure",
      "type": "function",
      "constant": true
    },
    {
      "inputs": [],
      "name": "get_POST_AUCTION_TIME",
      "outputs": [
        {
          "internalType": "uint256",
          "name": "",
          "type": "uint256"
        }
      ],
      "stateMutability": "pure",
      "type": "function",
      "constant": true
    },
    {
      "inputs": [],
      "name": "get_NULL_TIMEZONE",
      "outputs": [
        {
          "internalType": "uint8",
          "name": "",
          "type": "uint8"
        }
      ],
      "stateMutability": "pure",
      "type": "function",
      "constant": true
    },
    {
      "inputs": [],
      "name": "get_VERSES_PER_DAY",
      "outputs": [
        {
          "internalType": "uint8",
          "name": "",
          "type": "uint8"
        }
      ],
      "stateMutability": "pure",
      "type": "function",
      "constant": true
    },
    {
      "inputs": [],
      "name": "get_SECS_BETWEEN_VERSES",
      "outputs": [
        {
          "internalType": "uint256",
          "name": "",
          "type": "uint256"
        }
      ],
      "stateMutability": "pure",
      "type": "function",
      "constant": true
    },
    {
      "inputs": [],
      "name": "get_VERSES_PER_ROUND",
      "outputs": [
        {
          "internalType": "uint16",
          "name": "",
          "type": "uint16"
        }
      ],
      "stateMutability": "pure",
      "type": "function",
      "constant": true
    },
    {
      "inputs": [],
      "name": "get_ACADEMY_TEAM",
      "outputs": [
        {
          "internalType": "uint256",
          "name": "",
          "type": "uint256"
        }
      ],
      "stateMutability": "pure",
      "type": "function",
      "constant": true
    },
    {
      "inputs": [],
      "name": "get_INGAMETIME_VS_REALTIME",
      "outputs": [
        {
          "internalType": "uint256",
          "name": "",
          "type": "uint256"
        }
      ],
      "stateMutability": "pure",
      "type": "function",
      "constant": true
    },
    {
      "inputs": [],
      "name": "get_SK_SHO",
      "outputs": [
        {
          "internalType": "uint8",
          "name": "",
          "type": "uint8"
        }
      ],
      "stateMutability": "pure",
      "type": "function",
      "constant": true
    },
    {
      "inputs": [],
      "name": "get_SK_SPE",
      "outputs": [
        {
          "internalType": "uint8",
          "name": "",
          "type": "uint8"
        }
      ],
      "stateMutability": "pure",
      "type": "function",
      "constant": true
    },
    {
      "inputs": [],
      "name": "get_SK_PAS",
      "outputs": [
        {
          "internalType": "uint8",
          "name": "",
          "type": "uint8"
        }
      ],
      "stateMutability": "pure",
      "type": "function",
      "constant": true
    },
    {
      "inputs": [],
      "name": "get_SK_DEF",
      "outputs": [
        {
          "internalType": "uint8",
          "name": "",
          "type": "uint8"
        }
      ],
      "stateMutability": "pure",
      "type": "function",
      "constant": true
    },
    {
      "inputs": [],
      "name": "get_SK_END",
      "outputs": [
        {
          "internalType": "uint8",
          "name": "",
          "type": "uint8"
        }
      ],
      "stateMutability": "pure",
      "type": "function",
      "constant": true
    },
    {
      "inputs": [],
      "name": "get_IN_TRANSIT_SHIRTNUM",
      "outputs": [
        {
          "internalType": "uint8",
          "name": "",
          "type": "uint8"
        }
      ],
      "stateMutability": "pure",
      "type": "function",
      "constant": true
    }
  ],
  "bytecode": "0x608060405234801561001057600080fd5b5061028e806100206000396000f3fe608060405234801561001057600080fd5b50600436106101215760003560e01c80635ca8a2eb116100ad578063966a15f511610071578063966a15f5146101da578063ac260e87146101e2578063d81d4f5d146101ea578063da3f3a42146101c2578063db22a78d1461017657610121565b80635ca8a2eb146101965780635f6cb7421461019e5780636e404ca8146101c257806370cdebdb146101ca5780638258524e146101d257610121565b80633a557102116100f45780633a5571021461016e5780634482ea14146101765780634ed2be0a1461017e5780634f6efea31461018657806352d7c5411461018e57610121565b80631c164641146101265780631d5f5b82146101445780631fdff8ef1461014c57806329a816d914610154575b600080fd5b61012e610209565b6040805160ff9092168252519081900360200190f35b61012e61020e565b61012e610213565b61015c610218565b60408051918252519081900360200190f35b61015c61021e565b61012e610225565b61012e61022a565b61012e61022f565b61012e610234565b61012e610239565b6101a6610225565b604080516001600160a01b039092168252519081900360200190f35b61015c61023e565b61015c610243565b61012e610248565b61012e61023e565b61012e61024d565b6101f2610252565b6040805161ffff9092168252519081900360200190f35b601a90565b601090565b601290565b61038490565b6202a30090565b600090565b601990565b600490565b606090565b600390565b600190565b600e90565b600290565b600890565b6102a09056fea264697066735822122058120124e4530309c2cabb79edfb3fb94736336af1278eab5259d434551967a864736f6c63430006030033",
  "source": "pragma solidity >= 0.6.3;\n\nimport \"../storage/Constants.sol\";\n\n/**\n @title Constants used in the project\n @author Freeverse.io, www.freeverse.io\n*/\n\ncontract ConstantsGetters is Constants {\n\n    function get_PLAYERS_PER_TEAM_MAX() external pure returns(uint8) { return PLAYERS_PER_TEAM_MAX;}\n    function get_PLAYERS_PER_TEAM_INIT() external pure returns(uint8) { return PLAYERS_PER_TEAM_INIT;}\n    function get_NULL_ADDR() external pure returns(address) { return NULL_ADDR;}\n    function get_LEAGUES_PER_DIV() external pure returns(uint8) { return LEAGUES_PER_DIV;}\n    function get_TEAMS_PER_LEAGUE() external pure returns(uint8) { return TEAMS_PER_LEAGUE;}\n    function get_FREE_PLAYER_ID() external pure returns(uint256) { return FREE_PLAYER_ID;}\n    function get_POST_AUCTION_TIME() external pure returns(uint256) { return POST_AUCTION_TIME;}\n    function get_NULL_TIMEZONE() external pure returns(uint8) { return NULL_TIMEZONE;}\n    function get_VERSES_PER_DAY() external pure returns(uint8) { return VERSES_PER_DAY;}\n    function get_SECS_BETWEEN_VERSES() external pure returns(uint256) { return SECS_BETWEEN_VERSES;}\n    function get_VERSES_PER_ROUND() external pure returns(uint16) { return VERSES_PER_ROUND;}\n    function get_ACADEMY_TEAM() external pure returns(uint256) { return ACADEMY_TEAM; }\n    function get_INGAMETIME_VS_REALTIME() external pure returns(uint256) { return INGAMETIME_VS_REALTIME; }\n    function get_SK_SHO() external pure returns(uint8) { return SK_SHO; }\n    function get_SK_SPE() external pure returns(uint8) { return SK_SPE; }\n    function get_SK_PAS() external pure returns(uint8) { return SK_PAS; }\n    function get_SK_DEF() external pure returns(uint8) { return SK_DEF; }\n    function get_SK_END() external pure returns(uint8) { return SK_END; }\n    function get_IN_TRANSIT_SHIRTNUM() external pure returns(uint8) { return IN_TRANSIT_SHIRTNUM;}\n}",
  "sourcePath": "/Users/jurgenkudla/proyects/laos/laos-goal-revolution/truffle-core/contracts/interfaces/ConstantsGetters.sol",
  "compiler": {
    "name": "solc",
    "version": "0.6.3+commit.8dda9521.Emscripten.clang"
  },
  "schemaVersion": "3.0.23",
  "updatedAt": "2024-10-16T08:58:34.603Z",
  "networkType": "ethereum",
  "devdoc": {
    "author": "Freeverse.io, www.freeverse.io",
    "methods": {},
    "title": "Constants used in the project"
  },
  "userdoc": {
    "methods": {}
  }
}