{
  "contractName": "Directory",
  "abi": [
    {
      "inputs": [
        {
          "internalType": "bytes32[]",
          "name": "newNames",
          "type": "bytes32[]"
        },
        {
          "internalType": "address[]",
          "name": "newAdresseses",
          "type": "address[]"
        }
      ],
      "stateMutability": "nonpayable",
      "type": "constructor"
    },
    {
      "inputs": [
        {
          "internalType": "uint256",
          "name": "",
          "type": "uint256"
        }
      ],
      "name": "addresses",
      "outputs": [
        {
          "internalType": "address",
          "name": "",
          "type": "address"
        }
      ],
      "stateMutability": "view",
      "type": "function",
      "constant": true
    },
    {
      "inputs": [
        {
          "internalType": "uint256",
          "name": "",
          "type": "uint256"
        }
      ],
      "name": "names",
      "outputs": [
        {
          "internalType": "bytes32",
          "name": "",
          "type": "bytes32"
        }
      ],
      "stateMutability": "view",
      "type": "function",
      "constant": true
    },
    {
      "inputs": [],
      "name": "getDirectory",
      "outputs": [
        {
          "internalType": "bytes32[]",
          "name": "",
          "type": "bytes32[]"
        },
        {
          "internalType": "address[]",
          "name": "",
          "type": "address[]"
        }
      ],
      "stateMutability": "view",
      "type": "function",
      "constant": true
    }
  ],
  "bytecode": "0x608060405234801561001057600080fd5b506040516105263803806105268339818101604052604081101561003357600080fd5b810190808051604051939291908464010000000082111561005357600080fd5b90830190602082018581111561006857600080fd5b825186602082028301116401000000008211171561008557600080fd5b82525081516020918201928201910280838360005b838110156100b257818101518382015260200161009a565b50505050905001604052602001805160405193929190846401000000008211156100db57600080fd5b9083019060208201858111156100f057600080fd5b825186602082028301116401000000008211171561010d57600080fd5b82525081516020918201928201910280838360005b8381101561013a578181015183820152602001610122565b505050509050016040525050506000825190508151811461018c5760405162461bcd60e51b815260040180806020018281038252602a8152602001806104fc602a913960400191505060405180910390fd5b60005b8181101561021d5760008482815181106101a557fe5b6020908102919091018101518254600181810185556000948552929093209092019190915583518490839081106101d857fe5b60209081029190910181015182546001808201855560009485529290932090920180546001600160a01b0319166001600160a01b03909316929092179091550161018f565b505050506102cc806102306000396000f3fe608060405234801561001057600080fd5b50600436106100415760003560e01c80634622ab03146100465780637624777614610075578063edf26d9b14610116575b600080fd5b6100636004803603602081101561005c57600080fd5b503561014f565b60408051918252519081900360200190f35b61007d61016d565b604051808060200180602001838103835285818151815260200191508051906020019060200280838360005b838110156100c15781810151838201526020016100a9565b50505050905001838103825284818151815260200191508051906020019060200280838360005b838110156101005781810151838201526020016100e8565b5050505090500194505050505060405180910390f35b6101336004803603602081101561012c57600080fd5b503561026f565b604080516001600160a01b039092168252519081900360200190f35b6000818154811061015c57fe5b600091825260209091200154905081565b600054604080518281526020808402820101909152606091829182908280156101a0578160200160208202803683370190505b5090506060826040519080825280602002602001820160405280156101cf578160200160208202803683370190505b50905060005b8381101561026457600081815481106101ea57fe5b906000526020600020015483828151811061020157fe5b6020026020010181815250506001818154811061021a57fe5b9060005260206000200160009054906101000a90046001600160a01b031682828151811061024457fe5b6001600160a01b03909216602092830291909101909101526001016101d5565b509093509150509091565b6001818154811061027c57fe5b6000918252602090912001546001600160a01b031690508156fea2646970667358221220b55544d7b4c7881efe7954b7edbe23fa887a2578fe189da5fb965ebc58cd6ab364736f6c634300060300336e6f6e2d6d61746368696e67206e756d626572206f66206e616d657320616e6420616464726573736573",
  "source": "pragma solidity >= 0.6.3;\n\n/**\n @title Directory for contract addresses related to the project\n @author Freeverse.io, www.freeverse.io\n @dev keeps the deployed contracts in the arrays names and addresses\n @dev it keeps two copies of such arrays, and a pointer that points to the \"active\" copy\n @dev this is to allow the pattern: \"first add the new data, which can cost a lot of gas\n @dev ...and, in one atomic transaction, just change the pointer\".\n @dev We use this to let the Proxy upgrade this Directory as part of the proxy upgrade, atomically.\n @dev We keep track of deployBlockNum as a safety measure, to ensure that the contracts-to-become-active\n @dev were deployed later thant he currently active contracts. Otherwise, we need to call \"revertActivation\"\n*/\n\ncontract Directory {\n\n    bytes32[] public names;\n    address[] public addresses;\n    \n    constructor (bytes32[] memory newNames, address[] memory newAdresseses) public {\n        uint256 nContr = newNames.length;\n        require(nContr == newAdresseses.length, \"non-matching number of names and addresses\");\n        for (uint256 contr = 0; contr < nContr; contr++) {\n           names.push(newNames[contr]); \n           addresses.push(newAdresseses[contr]); \n        }\n    }\n    \n    function getDirectory() public view returns (bytes32[] memory, address[] memory) {\n        uint256 nContr = names.length;\n        bytes32[] memory nom = new bytes32[](nContr);\n        address[] memory addr = new address[](nContr);\n        for (uint256 contr = 0; contr < nContr; contr++) {\n            nom[contr] = names[contr];\n            addr[contr] = addresses[contr];\n        }\n        return (nom, addr);\n    }\n}",
  "sourcePath": "/Users/jurgenkudla/proyects/laos/laos-goal-revolution/goalrev-ganache/contracts/interfaces/Directory.sol",
  "compiler": {
    "name": "solc",
    "version": "0.6.3+commit.8dda9521.Emscripten.clang"
  },
  "schemaVersion": "3.0.23",
  "updatedAt": "2024-10-18T06:45:40.017Z",
  "networkType": "ethereum",
  "devdoc": {
    "author": "Freeverse.io, www.freeverse.io",
    "details": "keeps the deployed contracts in the arrays names and addressesit keeps two copies of such arrays, and a pointer that points to the \"active\" copythis is to allow the pattern: \"first add the new data, which can cost a lot of gas...and, in one atomic transaction, just change the pointer\".We use this to let the Proxy upgrade this Directory as part of the proxy upgrade, atomically.We keep track of deployBlockNum as a safety measure, to ensure that the contracts-to-become-activewere deployed later thant he currently active contracts. Otherwise, we need to call \"revertActivation\"",
    "methods": {},
    "title": "Directory for contract addresses related to the project"
  },
  "userdoc": {
    "methods": {}
  }
}