{
  "contractName": "EncodingSkills",
  "abi": [
    {
      "inputs": [
        {
          "internalType": "uint32[5]",
          "name": "skills",
          "type": "uint32[5]"
        },
        {
          "internalType": "uint256",
          "name": "dayOfBirth",
          "type": "uint256"
        },
        {
          "internalType": "uint8",
          "name": "generation",
          "type": "uint8"
        },
        {
          "internalType": "uint256",
          "name": "playerId",
          "type": "uint256"
        },
        {
          "internalType": "uint8[4]",
          "name": "birthTraits",
          "type": "uint8[4]"
        },
        {
          "internalType": "bool",
          "name": "alignedEndOfLastHalf",
          "type": "bool"
        },
        {
          "internalType": "bool",
          "name": "redCardLastGame",
          "type": "bool"
        },
        {
          "internalType": "uint8",
          "name": "gamesNonStopping",
          "type": "uint8"
        },
        {
          "internalType": "uint8",
          "name": "injuryWeeksLeft",
          "type": "uint8"
        },
        {
          "internalType": "bool",
          "name": "substitutedFirstHalf",
          "type": "bool"
        },
        {
          "internalType": "uint32",
          "name": "sumSkills",
          "type": "uint32"
        }
      ],
      "name": "encodePlayerSkills",
      "outputs": [
        {
          "internalType": "uint256",
          "name": "encoded",
          "type": "uint256"
        }
      ],
      "stateMutability": "pure",
      "type": "function"
    }
  ],
  "bytecode": "0x608060405234801561001057600080fd5b50610568806100206000396000f3fe608060405234801561001057600080fd5b506004361061002b5760003560e01c80632ead055314610030575b600080fd5b6100f7600480360361024081101561004757600080fd5b810190808060a001906005806020026040519081016040528092919082600560200280828437600092019190915250506040805160808181018352939685359660ff6020880135169693840135959194509260e081019291606090910190600490839083908082843760009201919091525091945050508035151591506020810135151590604081013560ff90811691606081013590911690608081013515159060a0013563ffffffff16610109565b60408051918252519081900360200190f35b8651600090600a60ff90911610610160576040805162461bcd60e51b81526020600482015260166024820152751c1bdd195b9d1a585b081bdd5d081bd988189bdd5b9960521b604482015290519081900360640190fd5b6006886001602002015160ff16106101bf576040805162461bcd60e51b815260206004820152601860248201527f666f72776172646e657373206f7574206f6620626f756e640000000000000000604482015290519081900360640190fd5b6008886002602002015160ff161061021e576040805162461bcd60e51b815260206004820152601860248201527f6c6566697473686e657373206f7574206f6620626f756e640000000000000000604482015290519081900360640190fd5b6008886003602002015160ff161061027d576040805162461bcd60e51b815260206004820152601b60248201527f616767726573736976656e657373206f7574206f6620626f756e640000000000604482015290519081900360640190fd5b604088015160ff166102cd57602088015160ff16156102cd5760405162461bcd60e51b815260040180806020018281038252602b8152602001806104e7602b913960400191505060405180910390fd5b60088560ff1610610325576040805162461bcd60e51b815260206004820152601d60248201527f67616d65734e6f6e53746f7070696e67206f7574206f6620626f756e64000000604482015290519081900360640190fd5b620100008b106103665760405162461bcd60e51b81526004018080602001828103825260218152602001806105126021913960400191505060405180910390fd5b60008911801561037b57506508000000000089105b6103c4576040805162461bcd60e51b81526020600482015260156024820152741c1b185e595c9259081bdd5d081bd988189bdd5b99605a1b604482015290519081900360640190fd5b60005b600561ffff82161015610406578060140261ffff168d8261ffff16600581106103ec57fe5b602002015163ffffffff16901b91909117906001016103c7565b5060648b901b176074886000602002015160ff16901b176078886001602002015160ff16901b17607b886002602002015160ff16901b17607e886003602002015160ff16901b81179050608189901b8117905060ac8761046757600061046a565b60015b60ff16901b1760ad8661047e576000610481565b60015b60ff16901b8117905060ae8560ff16901b8117905060b18460ff16901b8117905060b4836104b05760006104b3565b60015b60ff16901b8117905060b58263ffffffff16901b8117905060cd8a60ff16901b811790509b9a505050505050505050505056fe6c6566746973686e65732063616e206f6e6c79206265207a65726f20666f7220676f616c6b6565706572736461794f664269727468496e556e697854696d65206f7574206f6620626f756e64a2646970667358221220f874de4509a4f6ae2b3dddbd320d16cb346b05cca414a9b09eb96ce0f958269264736f6c63430006030033",
  "source": "pragma solidity >= 0.6.3;\n\nimport \"../storage/Constants.sol\";\n\n/**\n @title Library of pure functions to serialize/deserialize player skills\n @author Freeverse.io, www.freeverse.io\n @dev Due to contract-too-large-to-deploy, these functions had to be split into:\n @dev EncodingSkills (this contract, main constructor), EncodingGetters and EncodingSetters\n*/\n\n/**\n Here is the full spec of this serialization:\n\n PlayerSkills serializes a total of 213 bits:\n\n 5 skills                  = 5 x 20 bits (offset: 0)\n                           = shoot, speed, pass, defence, endurance\n dayOfBirth                = 16 bits  (since Unix time, max 180 years) (offset: 100)\n birthTraits               = variable num of bits: [potential, forwardness, leftishness, aggressiveness] (offset: 116)\n potential                 = 4 bits (number is limited to [0,...,9]) (offset: 116)\n forwardness               = 3 bits (offset: 120)\n                             GK: 0, D: 1, M: 2, F: 3, MD: 4, MF: 5\n leftishness               = 3 bits, in boolean triads: (L, C, R): (offset: 123)\n                             0: 000, 1: 001, 2: 010, 3: 011, 4: 100, 5: 101, 6: 110, 7: 111\n aggressiveness            = 3  (offset: 126)\n playerId                  = 43 bits (offset: 129)\n \n alignedEndOfLastHalf      = 1b (bool) (offset: 172)\n redCardLastGame           = 1b (bool) (offset: 173)\n gamesNonStopping          = 3b (0, 1, ..., 6). Finally, 7 means more than 6. (offset: 174)\n injuryWeeksLeft           = 3b  (offset: 177)\n substitutedFirstHalf      = 1b (bool) (offset: 180)\n sumSkills                 = 23b (must equal sum(skills), of if each is 20b, this can be at most 5x20b => use 23b) (offset 181)\n isSpecialPlayer           = 1b (offset: 204)\n generation                = 8b. From [0,...,31] => not-a-child, from [32,..63] => a child (offset: 205)\n outOfGameFirstHalf        = 1b (offset: 213)\n yellowCardFirstHalf       = 1b (offset: 214)\n*/\n\ncontract EncodingSkills is Constants {\n\n    function encodePlayerSkills(\n        uint32[N_SKILLS] memory skills, \n        uint256 dayOfBirth, \n        uint8 generation,\n        uint256 playerId, \n        uint8[4] memory birthTraits,\n        bool alignedEndOfLastHalf, \n        bool redCardLastGame, \n        uint8 gamesNonStopping, \n        uint8 injuryWeeksLeft,\n        bool substitutedFirstHalf,\n        uint32 sumSkills\n    )\n        public\n        pure\n        returns (uint256 encoded)\n    {\n        /// checks:\n        require(birthTraits[IDX_POT] < 10, \"potential out of bound\");\n        require(birthTraits[IDX_FWD] < 6, \"forwardness out of bound\");\n        require(birthTraits[IDX_LEF] < 8, \"lefitshness out of bound\");\n        require(birthTraits[IDX_AGG] < 8, \"aggressiveness out of bound\");\n        if (birthTraits[IDX_LEF] == 0) require(birthTraits[IDX_FWD] == 0, \"leftishnes can only be zero for goalkeepers\");\n        require(gamesNonStopping < 8, \"gamesNonStopping out of bound\");\n        require(dayOfBirth < 2**16, \"dayOfBirthInUnixTime out of bound\");\n        require(playerId > 0 && playerId < 2**43, \"playerId out of bound\");\n\n        /// start encoding:\n        for (uint16 sk = 0; sk < N_SKILLS; sk++) {\n            encoded |= uint256(skills[sk]) << 20 * sk;\n        }\n        encoded |= dayOfBirth << 100;\n        encoded |= uint256(birthTraits[IDX_POT]) << 116;\n        encoded |= uint256(birthTraits[IDX_FWD]) << 120;\n        encoded |= uint256(birthTraits[IDX_LEF]) << 123;\n        encoded |= uint256(birthTraits[IDX_AGG]) << 126;\n        encoded |= playerId << 129;\n        encoded |= uint256(alignedEndOfLastHalf ? 1 : 0) << 172;\n        encoded |= uint256(redCardLastGame ? 1 : 0) << 173;\n        encoded |= uint256(gamesNonStopping) << 174;\n        encoded |= uint256(injuryWeeksLeft) << 177;\n        encoded |= uint256(substitutedFirstHalf ? 1 : 0) << 180;\n        encoded |= uint256(sumSkills) << 181;\n        return (encoded | uint256(generation) << 205);\n    }\n}\n",
  "sourcePath": "/Users/jurgenkudla/proyects/laos/laos-goal-revolution/goalrev-ganache/contracts/encoders/EncodingSkills.sol",
  "compiler": {
    "name": "solc",
    "version": "0.6.3+commit.8dda9521.Emscripten.clang"
  },
  "schemaVersion": "3.0.23",
  "updatedAt": "2024-10-18T06:45:40.044Z",
  "networkType": "ethereum",
  "devdoc": {
    "methods": {}
  },
  "userdoc": {
    "methods": {},
    "notice": "Here is the full spec of this serialization: PlayerSkills serializes a total of 213 bits: 5 skills                  = 5 x 20 bits (offset: 0) = shoot, speed, pass, defence, endurance dayOfBirth                = 16 bits  (since Unix time, max 180 years) (offset: 100) birthTraits               = variable num of bits: [potential, forwardness, leftishness, aggressiveness] (offset: 116) potential                 = 4 bits (number is limited to [0,...,9]) (offset: 116) forwardness               = 3 bits (offset: 120) GK: 0, D: 1, M: 2, F: 3, MD: 4, MF: 5 leftishness               = 3 bits, in boolean triads: (L, C, R): (offset: 123) 0: 000, 1: 001, 2: 010, 3: 011, 4: 100, 5: 101, 6: 110, 7: 111 aggressiveness            = 3  (offset: 126) playerId                  = 43 bits (offset: 129) alignedEndOfLastHalf      = 1b (bool) (offset: 172) redCardLastGame           = 1b (bool) (offset: 173) gamesNonStopping          = 3b (0, 1, ..., 6). Finally, 7 means more than 6. (offset: 174) injuryWeeksLeft           = 3b  (offset: 177) substitutedFirstHalf      = 1b (bool) (offset: 180) sumSkills                 = 23b (must equal sum(skills), of if each is 20b, this can be at most 5x20b => use 23b) (offset 181) isSpecialPlayer           = 1b (offset: 204) generation                = 8b. From [0,...,31] => not-a-child, from [32,..63] => a child (offset: 205) outOfGameFirstHalf        = 1b (offset: 213) yellowCardFirstHalf       = 1b (offset: 214)"
  }
}