{
  "contractName": "EncodingState",
  "abi": [
    {
      "inputs": [
        {
          "internalType": "uint256",
          "name": "currentTeamId",
          "type": "uint256"
        },
        {
          "internalType": "uint8",
          "name": "currentShirtNum",
          "type": "uint8"
        },
        {
          "internalType": "uint256",
          "name": "prevPlayerTeamId",
          "type": "uint256"
        },
        {
          "internalType": "uint256",
          "name": "lastSaleBlock",
          "type": "uint256"
        }
      ],
      "name": "encodePlayerState",
      "outputs": [
        {
          "internalType": "uint256",
          "name": "",
          "type": "uint256"
        }
      ],
      "stateMutability": "pure",
      "type": "function"
    },
    {
      "inputs": [
        {
          "internalType": "uint256",
          "name": "playerState",
          "type": "uint256"
        },
        {
          "internalType": "uint256",
          "name": "teamId",
          "type": "uint256"
        }
      ],
      "name": "setCurrentTeamId",
      "outputs": [
        {
          "internalType": "uint256",
          "name": "",
          "type": "uint256"
        }
      ],
      "stateMutability": "pure",
      "type": "function"
    },
    {
      "inputs": [
        {
          "internalType": "uint256",
          "name": "playerState",
          "type": "uint256"
        }
      ],
      "name": "getCurrentTeamIdFromPlayerState",
      "outputs": [
        {
          "internalType": "uint256",
          "name": "",
          "type": "uint256"
        }
      ],
      "stateMutability": "pure",
      "type": "function"
    },
    {
      "inputs": [
        {
          "internalType": "uint256",
          "name": "state",
          "type": "uint256"
        },
        {
          "internalType": "uint8",
          "name": "currentShirtNum",
          "type": "uint8"
        }
      ],
      "name": "setCurrentShirtNum",
      "outputs": [
        {
          "internalType": "uint256",
          "name": "",
          "type": "uint256"
        }
      ],
      "stateMutability": "pure",
      "type": "function"
    },
    {
      "inputs": [
        {
          "internalType": "uint256",
          "name": "playerState",
          "type": "uint256"
        }
      ],
      "name": "getCurrentShirtNum",
      "outputs": [
        {
          "internalType": "uint256",
          "name": "",
          "type": "uint256"
        }
      ],
      "stateMutability": "pure",
      "type": "function"
    },
    {
      "inputs": [
        {
          "internalType": "uint256",
          "name": "state",
          "type": "uint256"
        },
        {
          "internalType": "uint256",
          "name": "value",
          "type": "uint256"
        }
      ],
      "name": "setPrevPlayerTeamId",
      "outputs": [
        {
          "internalType": "uint256",
          "name": "",
          "type": "uint256"
        }
      ],
      "stateMutability": "pure",
      "type": "function"
    },
    {
      "inputs": [
        {
          "internalType": "uint256",
          "name": "playerState",
          "type": "uint256"
        }
      ],
      "name": "getPrevPlayerTeamId",
      "outputs": [
        {
          "internalType": "uint256",
          "name": "",
          "type": "uint256"
        }
      ],
      "stateMutability": "pure",
      "type": "function"
    },
    {
      "inputs": [
        {
          "internalType": "uint256",
          "name": "state",
          "type": "uint256"
        },
        {
          "internalType": "uint256",
          "name": "lastSaleBlock",
          "type": "uint256"
        }
      ],
      "name": "setLastSaleBlock",
      "outputs": [
        {
          "internalType": "uint256",
          "name": "",
          "type": "uint256"
        }
      ],
      "stateMutability": "pure",
      "type": "function"
    },
    {
      "inputs": [
        {
          "internalType": "uint256",
          "name": "playerState",
          "type": "uint256"
        }
      ],
      "name": "getLastSaleBlock",
      "outputs": [
        {
          "internalType": "uint256",
          "name": "",
          "type": "uint256"
        }
      ],
      "stateMutability": "pure",
      "type": "function"
    },
    {
      "inputs": [
        {
          "internalType": "uint256",
          "name": "state",
          "type": "uint256"
        }
      ],
      "name": "getIsInTransitFromState",
      "outputs": [
        {
          "internalType": "bool",
          "name": "",
          "type": "bool"
        }
      ],
      "stateMutability": "pure",
      "type": "function"
    }
  ],
  "bytecode": "0x608060405234801561001057600080fd5b506104a2806100206000396000f3fe608060405234801561001057600080fd5b506004361061009e5760003560e01c80638608ff43116100665780638608ff4314610169578063af76cd011461019b578063c37b1c25146101be578063c566b5bc146101e1578063eb78b7b7146101fe5761009e565b8063022da63a146100a357806337a86302146100d25780634bea2a69146100f55780634db989fd146101125780637933e88314610138575b600080fd5b6100c0600480360360208110156100b957600080fd5b503561021b565b60408051918252519081900360200190f35b6100c0600480360360408110156100e857600080fd5b5080359060200135610226565b6100c06004803603602081101561010b57600080fd5b503561029d565b6100c06004803603604081101561012857600080fd5b508035906020013560ff166102ab565b6101556004803603602081101561014e57600080fd5b5035610326565b604080519115158252519081900360200190f35b6100c06004803603608081101561017f57600080fd5b5080359060ff602082013516906040810135906060013561033a565b6100c0600480360360408110156101b157600080fd5b5080359060200135610376565b6100c0600480360360408110156101d457600080fd5b50803590602001356103e8565b6100c0600480360360208110156101f757600080fd5b5035610456565b6100c06004803603602081101561021457600080fd5b5035610463565b6507ffffffffff1690565b60006507ffffffffff821115610283576040805162461bcd60e51b815260206004820152601a60248201527f707265764c6561677565496478206f7574206f6620626f756e64000000000000604482015290519081900360640190fd5b5060301b6b07ffffffffff00000000000019919091161790565b60301c6507ffffffffff1690565b6000601f8260ff161115610306576040805162461bcd60e51b815260206004820152601c60248201527f63757272656e7453686972744e756d206f7574206f6620626f756e6400000000604482015290519081900360640190fd5b5065f800000000001991909116602b9190911b6607f80000000000161790565b6000601a61033383610463565b1492915050565b6000806103486000876103e8565b905061035481866102ab565b90506103608185610226565b905061036c8184610376565b9695505050505050565b60006407ffffffff8211156103d2576040805162461bcd60e51b815260206004820152601a60248201527f6c61737453616c65426c6f636b206f7574206f6620626f756e64000000000000604482015290519081900360640190fd5b50605b1b6407ffffffff605b1b19919091161790565b60006507ffffffffff821115610445576040805162461bcd60e51b815260206004820152601b60248201527f63757272656e745465616d496478206f7574206f6620626f756e640000000000604482015290519081900360640190fd5b506507ffffffffff19919091161790565b605b1c6407ffffffff1690565b602b1c601f169056fea2646970667358221220d2a381e2e408a47574c8a2911c1d8e8259a83cbbd5cf9f68a139349fe152ca8864736f6c63430006030033",
  "source": "pragma solidity >= 0.6.3;\n\nimport \"../storage/Constants.sol\";\n\n/**\n @title Getters for library to serialize/deserialize player state\n @author Freeverse.io, www.freeverse.io\n*/\n\n/**\n Spec: PlayerState serializes a total of 169 bits:\n  currentTeamId           = 43 bits, offset = 0\n  currentShirtNum         =  5 bits, offset = 43\n  prevPlayerTeamId        = 43 bits, offset = 48\n  lastSaleBlocknum        = 35 bits, offset = 91\n  isInTransit             = implicit from shirtNum == 26 ( = IN_TRANSIT_SHIRTNUM)\n*/\n\ncontract EncodingState is Constants {\n\n    uint256 constant internal TWO_TO_43_MINUS_ONE = 8796093022207;\n    uint256 constant internal TWO_TO_35_MINUS_ONE = 34359738367;\n    uint256 constant internal TWO_TO_5_MINUS_ONE = 31;\n\n    function encodePlayerState(\n        uint256 currentTeamId,\n        uint8 currentShirtNum,\n        uint256 prevPlayerTeamId,\n        uint256 lastSaleBlock\n    )\n        public\n        pure\n        returns (uint256)\n    {\n        uint256 state = setCurrentTeamId(0, currentTeamId);\n        state = setCurrentShirtNum(state, currentShirtNum);\n        state = setPrevPlayerTeamId(state, prevPlayerTeamId);\n        state = setLastSaleBlock(state, lastSaleBlock);\n        return state;\n    }\n\n    function setCurrentTeamId(uint256 playerState, uint256 teamId) public pure returns (uint256) {\n        require(teamId <= TWO_TO_43_MINUS_ONE, \"currentTeamIdx out of bound\");\n        playerState &= ~ TWO_TO_43_MINUS_ONE;\n        playerState |= teamId;\n        return playerState;\n    }\n\n    function getCurrentTeamIdFromPlayerState(uint256 playerState) public pure returns (uint256) {\n        return playerState & TWO_TO_43_MINUS_ONE;\n    }\n\n    function setCurrentShirtNum(uint256 state, uint8 currentShirtNum) public pure returns (uint256) {\n        require(currentShirtNum <= TWO_TO_5_MINUS_ONE, \"currentShirtNum out of bound\");\n        state &= ~(TWO_TO_5_MINUS_ONE << 43); \n        state |= uint256(currentShirtNum) << 43;\n        return state;\n    }\n\n    function getCurrentShirtNum(uint256 playerState) public pure returns (uint256) {\n        return (playerState >> 43) & TWO_TO_5_MINUS_ONE;\n    }\n    \n    function setPrevPlayerTeamId(uint256 state, uint256 value) public pure returns (uint256) {\n        require(value <= TWO_TO_43_MINUS_ONE, \"prevLeagueIdx out of bound\");\n        state &= ~(TWO_TO_43_MINUS_ONE << 48); \n        state |= (value << 48);\n        return state;\n    }\n\n    function getPrevPlayerTeamId(uint256 playerState) public pure returns (uint256) {\n        return (playerState >> 48) & TWO_TO_43_MINUS_ONE;\n    }\n\n    function setLastSaleBlock(uint256 state, uint256 lastSaleBlock) public pure returns (uint256) {\n        require(lastSaleBlock <= TWO_TO_35_MINUS_ONE, \"lastSaleBlock out of bound\");\n        state &= ~(TWO_TO_35_MINUS_ONE << 91); /// 256 - 43 - 43 - 5 - 43 - 35\n        state |= (lastSaleBlock << 91);\n        return state;\n    }\n\n    function getLastSaleBlock(uint256 playerState) public pure returns (uint256) {\n        return (playerState >> 91) & TWO_TO_35_MINUS_ONE;\n    }\n\n    function getIsInTransitFromState(uint256 state) public pure returns(bool) {\n        return getCurrentShirtNum(state) == IN_TRANSIT_SHIRTNUM;\n    }\n}\n",
  "sourcePath": "/Users/jurgenkudla/proyects/laos/laos-goal-revolution/truffle-core/contracts/encoders/EncodingState.sol",
  "compiler": {
    "name": "solc",
    "version": "0.6.3+commit.8dda9521.Emscripten.clang"
  },
  "schemaVersion": "3.0.23",
  "updatedAt": "2024-10-16T08:58:34.668Z",
  "networkType": "ethereum",
  "devdoc": {
    "methods": {}
  },
  "userdoc": {
    "methods": {},
    "notice": "Spec: PlayerState serializes a total of 169 bits: currentTeamId           = 43 bits, offset = 0 currentShirtNum         =  5 bits, offset = 43 prevPlayerTeamId        = 43 bits, offset = 48 lastSaleBlocknum        = 35 bits, offset = 91 isInTransit             = implicit from shirtNum == 26 ( = IN_TRANSIT_SHIRTNUM)"
  }
}