{
  "contractName": "EncodingMatchLogBase4",
  "abi": [
    {
      "inputs": [
        {
          "internalType": "uint256",
          "name": "log",
          "type": "uint256"
        },
        {
          "internalType": "uint8",
          "name": "posInHalf",
          "type": "uint8"
        },
        {
          "internalType": "bool",
          "name": "is2ndHalf",
          "type": "bool"
        }
      ],
      "name": "getInGameSubsHappened",
      "outputs": [
        {
          "internalType": "uint8",
          "name": "",
          "type": "uint8"
        }
      ],
      "stateMutability": "pure",
      "type": "function"
    },
    {
      "inputs": [
        {
          "internalType": "uint256",
          "name": "log",
          "type": "uint256"
        },
        {
          "internalType": "uint8",
          "name": "nChanges",
          "type": "uint8"
        }
      ],
      "name": "setChangesAtHalfTime",
      "outputs": [
        {
          "internalType": "uint256",
          "name": "",
          "type": "uint256"
        }
      ],
      "stateMutability": "pure",
      "type": "function"
    },
    {
      "inputs": [
        {
          "internalType": "uint256",
          "name": "log",
          "type": "uint256"
        }
      ],
      "name": "getChangesAtHalfTime",
      "outputs": [
        {
          "internalType": "uint8",
          "name": "nChanges",
          "type": "uint8"
        }
      ],
      "stateMutability": "pure",
      "type": "function"
    }
  ],
  "bytecode": "0x608060405234801561001057600080fd5b50610167806100206000396000f3fe608060405234801561001057600080fd5b50600436106100415760003560e01c80635bdc6b5814610046578063ba8dfa461461008a578063c6481855146100a7575b600080fd5b6100746004803603606081101561005c57600080fd5b5080359060ff602082013516906040013515156100df565b6040805160ff9092168252519081900360200190f35b610074600480360360208110156100a057600080fd5b503561010f565b6100cd600480360360408110156100bd57600080fd5b508035906020013560ff16610118565b60408051918252519081900360200190f35b600080826100ee5760006100f1565b60035b840160020260a70190508060ff1685901c6003169150509392505050565b60f91c60031690565b60f91b607f60f91b166001607d60f91b0391909116179056fea2646970667358221220f00ae3137d4e2a6023450063324c61e17fed9638fccfa94df8e809e9f41eeea964736f6c63430006030033",
  "source": "pragma solidity >= 0.6.3;\n\n/**\n @title Subset of Library of functions to serialize matchLogs\n @author Freeverse.io, www.freeverse.io\n @dev see EncodingMatchLog.sol for full spec\n*/\n\ncontract EncodingMatchLogBase4 {\n    function getInGameSubsHappened(uint256 log, uint8 posInHalf, bool is2ndHalf) public pure returns (uint8) {\n        uint8 offset = 167 + 2 * (posInHalf + (is2ndHalf ? 3 : 0));\n        return uint8((log >> offset) & 3);\n    }\n\n    function setChangesAtHalfTime(uint256 log, uint8 nChanges) public pure returns(uint256) {\n        return (log & ~(uint256(3) << 249)) | (uint256(nChanges) << 249);\n    }\n\n    function getChangesAtHalfTime(uint256 log) public pure returns(uint8 nChanges) {\n        return uint8((log >> 249) & 3);\n    }\n}\n",
  "sourcePath": "/Users/jurgenkudla/proyects/laos/laos-goal-revolution/truffle-core/contracts/encoders/EncodingMatchLogBase4.sol",
  "compiler": {
    "name": "solc",
    "version": "0.6.3+commit.8dda9521.Emscripten.clang"
  },
  "schemaVersion": "3.0.23",
  "updatedAt": "2024-10-16T06:02:47.828Z",
  "devdoc": {
    "author": "Freeverse.io, www.freeverse.io",
    "details": "see EncodingMatchLog.sol for full spec",
    "methods": {},
    "title": "Subset of Library of functions to serialize matchLogs"
  },
  "userdoc": {
    "methods": {}
  }
}