{
  "contractName": "EncodingMatchLogBase1",
  "abi": [
    {
      "inputs": [
        {
          "internalType": "uint256",
          "name": "log",
          "type": "uint256"
        }
      ],
      "name": "getChangesAtHalfTime",
      "outputs": [
        {
          "internalType": "uint8",
          "name": "nChanges",
          "type": "uint8"
        }
      ],
      "stateMutability": "pure",
      "type": "function"
    },
    {
      "inputs": [
        {
          "internalType": "uint256",
          "name": "log",
          "type": "uint256"
        },
        {
          "internalType": "uint8",
          "name": "posInHalf",
          "type": "uint8"
        },
        {
          "internalType": "bool",
          "name": "is2ndHalf",
          "type": "bool"
        }
      ],
      "name": "getInGameSubsHappened",
      "outputs": [
        {
          "internalType": "uint8",
          "name": "",
          "type": "uint8"
        }
      ],
      "stateMutability": "pure",
      "type": "function"
    },
    {
      "inputs": [
        {
          "internalType": "uint256",
          "name": "log",
          "type": "uint256"
        },
        {
          "internalType": "uint8",
          "name": "nChanges",
          "type": "uint8"
        }
      ],
      "name": "setChangesAtHalfTime",
      "outputs": [
        {
          "internalType": "uint256",
          "name": "",
          "type": "uint256"
        }
      ],
      "stateMutability": "pure",
      "type": "function"
    },
    {
      "inputs": [
        {
          "internalType": "uint256",
          "name": "log",
          "type": "uint256"
        },
        {
          "internalType": "uint8",
          "name": "goals",
          "type": "uint8"
        }
      ],
      "name": "addNGoals",
      "outputs": [
        {
          "internalType": "uint256",
          "name": "",
          "type": "uint256"
        }
      ],
      "stateMutability": "pure",
      "type": "function"
    },
    {
      "inputs": [
        {
          "internalType": "uint256",
          "name": "log",
          "type": "uint256"
        },
        {
          "internalType": "uint8",
          "name": "pos",
          "type": "uint8"
        }
      ],
      "name": "addScoredPenalty",
      "outputs": [
        {
          "internalType": "uint256",
          "name": "",
          "type": "uint256"
        }
      ],
      "stateMutability": "pure",
      "type": "function"
    },
    {
      "inputs": [
        {
          "internalType": "uint256",
          "name": "log",
          "type": "uint256"
        },
        {
          "internalType": "bool",
          "name": "is2ndHalf",
          "type": "bool"
        }
      ],
      "name": "getOutOfGamePlayer",
      "outputs": [
        {
          "internalType": "uint256",
          "name": "",
          "type": "uint256"
        }
      ],
      "stateMutability": "pure",
      "type": "function"
    },
    {
      "inputs": [
        {
          "internalType": "uint256",
          "name": "log",
          "type": "uint256"
        },
        {
          "internalType": "bool",
          "name": "is2ndHalf",
          "type": "bool"
        }
      ],
      "name": "getOutOfGameType",
      "outputs": [
        {
          "internalType": "uint256",
          "name": "",
          "type": "uint256"
        }
      ],
      "stateMutability": "pure",
      "type": "function"
    },
    {
      "inputs": [
        {
          "internalType": "uint256",
          "name": "log",
          "type": "uint256"
        },
        {
          "internalType": "bool",
          "name": "is2ndHalf",
          "type": "bool"
        }
      ],
      "name": "getOutOfGameRound",
      "outputs": [
        {
          "internalType": "uint256",
          "name": "",
          "type": "uint256"
        }
      ],
      "stateMutability": "pure",
      "type": "function"
    },
    {
      "inputs": [
        {
          "internalType": "uint256",
          "name": "log",
          "type": "uint256"
        },
        {
          "internalType": "uint8",
          "name": "player",
          "type": "uint8"
        },
        {
          "internalType": "uint8",
          "name": "round",
          "type": "uint8"
        },
        {
          "internalType": "uint8",
          "name": "typeOfOutOfGame",
          "type": "uint8"
        },
        {
          "internalType": "bool",
          "name": "is2ndHalf",
          "type": "bool"
        }
      ],
      "name": "setOutOfGame",
      "outputs": [
        {
          "internalType": "uint256",
          "name": "",
          "type": "uint256"
        }
      ],
      "stateMutability": "pure",
      "type": "function"
    },
    {
      "inputs": [
        {
          "internalType": "uint256",
          "name": "log",
          "type": "uint256"
        },
        {
          "internalType": "uint8",
          "name": "player",
          "type": "uint8"
        },
        {
          "internalType": "uint8",
          "name": "posInHaf",
          "type": "uint8"
        },
        {
          "internalType": "bool",
          "name": "is2ndHalf",
          "type": "bool"
        }
      ],
      "name": "addYellowCard",
      "outputs": [
        {
          "internalType": "uint256",
          "name": "",
          "type": "uint256"
        }
      ],
      "stateMutability": "pure",
      "type": "function"
    },
    {
      "inputs": [
        {
          "internalType": "uint256",
          "name": "log",
          "type": "uint256"
        },
        {
          "internalType": "uint8",
          "name": "posInHaf",
          "type": "uint8"
        },
        {
          "internalType": "bool",
          "name": "is2ndHalf",
          "type": "bool"
        }
      ],
      "name": "getYellowCard",
      "outputs": [
        {
          "internalType": "uint8",
          "name": "",
          "type": "uint8"
        }
      ],
      "stateMutability": "pure",
      "type": "function"
    },
    {
      "inputs": [
        {
          "internalType": "uint256",
          "name": "log",
          "type": "uint256"
        },
        {
          "internalType": "uint8",
          "name": "happenedType",
          "type": "uint8"
        },
        {
          "internalType": "uint8",
          "name": "posInHalf",
          "type": "uint8"
        },
        {
          "internalType": "bool",
          "name": "is2ndHalf",
          "type": "bool"
        }
      ],
      "name": "setInGameSubsHappened",
      "outputs": [
        {
          "internalType": "uint256",
          "name": "",
          "type": "uint256"
        }
      ],
      "stateMutability": "pure",
      "type": "function"
    },
    {
      "inputs": [
        {
          "internalType": "uint256",
          "name": "log",
          "type": "uint256"
        },
        {
          "internalType": "uint8",
          "name": "player",
          "type": "uint8"
        },
        {
          "internalType": "uint8",
          "name": "pos",
          "type": "uint8"
        }
      ],
      "name": "addHalfTimeSubs",
      "outputs": [
        {
          "internalType": "uint256",
          "name": "",
          "type": "uint256"
        }
      ],
      "stateMutability": "pure",
      "type": "function"
    },
    {
      "inputs": [
        {
          "internalType": "uint256",
          "name": "log",
          "type": "uint256"
        },
        {
          "internalType": "uint8",
          "name": "nTot",
          "type": "uint8"
        },
        {
          "internalType": "bool",
          "name": "is2ndHalf",
          "type": "bool"
        }
      ],
      "name": "addNTot",
      "outputs": [
        {
          "internalType": "uint256",
          "name": "",
          "type": "uint256"
        }
      ],
      "stateMutability": "pure",
      "type": "function"
    },
    {
      "inputs": [
        {
          "internalType": "uint256",
          "name": "log",
          "type": "uint256"
        },
        {
          "internalType": "uint256",
          "name": "extraSumSkills",
          "type": "uint256"
        }
      ],
      "name": "addTeamSumSkills",
      "outputs": [
        {
          "internalType": "uint256",
          "name": "",
          "type": "uint256"
        }
      ],
      "stateMutability": "pure",
      "type": "function"
    }
  ],
  "bytecode": "0x608060405234801561001057600080fd5b506105ef806100206000396000f3fe608060405234801561001057600080fd5b50600436106100f55760003560e01c8063919e276211610097578063ba8dfa4611610066578063ba8dfa461461031b578063c648185514610338578063d5a4d6c01461035e578063f81c7a4514610383576100f5565b8063919e276214610254578063989aa2221461028c578063b1c2c8a3146102af578063b2a04256146102dd576100f5565b80634c0b044a116100d35780634c0b044a1461018e5780634cc3e34f146101bc5780635bdc6b58146101e257806376f96f4214610226576100f5565b80630ae78a39146100fa5780632a3328f614610144578063494dd3f414610169575b600080fd5b6101326004803603608081101561011057600080fd5b5080359060ff60208201358116916040810135909116906060013515156103a9565b60408051918252519081900360200190f35b6101326004803603604081101561015a57600080fd5b508035906020013515156103e6565b6101326004803603604081101561017f57600080fd5b50803590602001351515610409565b610132600480360360608110156101a457600080fd5b5080359060ff60208201351690604001351515610433565b610132600480360360408110156101d257600080fd5b508035906020013560ff1661045b565b610210600480360360608110156101f857600080fd5b5080359060ff6020820135169060400135151561046b565b6040805160ff9092168252519081900360200190f35b6101326004803603606081101561023c57600080fd5b5080359060ff6020820135811691604001351661049b565b6101326004803603608081101561026a57600080fd5b5080359060ff60208201358116916040810135909116906060013515156104b1565b610132600480360360408110156102a257600080fd5b50803590602001356104df565b610210600480360360608110156102c557600080fd5b5080359060ff602082013516906040013515156104e6565b610132600480360360a08110156102f357600080fd5b5080359060ff6020820135811691604081013582169160608201351690608001351515610513565b6102106004803603602081101561033157600080fd5b5035610566565b6101326004803603604081101561034e57600080fd5b508035906020013560ff1661056f565b6101326004803603604081101561037457600080fd5b50803590602001351515610588565b6101326004803603604081101561039957600080fd5b508035906020013560ff166105b2565b600080826103b85760006103bb565b60035b840160020260a70190508060ff168560ff16901b8160ff166003901b19871617915050949350505050565b600080826103f55760836103f8565b608d5b60ff169390931c600f169392505050565b6000808261041857608361041b565b608d5b90508060040160ff1684901c60031691505092915050565b600081610441576000610444565b60045b60ca0160ff168360ff16901b841790509392505050565b6001607c9190910160ff161b1790565b6000808261047a57600061047d565b60035b840160020260a70190508060ff1685901c6003169150509392505050565b60ff91821660059190910260b3019091161b1790565b60008083600402836104c45760976104c7565b609f5b60ff87811692909101161b8617915050949350505050565b60d41b1790565b60008083600402836104f95760976104fc565b609f5b0190508060ff1685901c600f169150509392505050565b60008082610522576083610525565b608d5b60ff8581166004830182161b88821682841690811b6103ff90911b199a909a169990991798909817978681166006909201161b871791505095945050505050565b60f91c60031690565b60f91b607f60f91b166001607d60f91b03919091161790565b6000808261059757608361059a565b608d5b90508060060160ff1684901c600f1691505092915050565b60ff16019056fea26469706673582212207a9b64260f67cffeb78f3c61f57a3dc3fc620256e1e6c87a0aa51e2d5632783d64736f6c63430006030033",
  "source": "pragma solidity >= 0.6.3;\nimport \"./EncodingMatchLogBase4.sol\";\n\n/**\n @title Subset of Library of functions to serialize matchLogs\n @author Freeverse.io, www.freeverse.io\n @dev see EncodingMatchLog.sol for full spec\n*/\n\ncontract EncodingMatchLogBase1 is EncodingMatchLogBase4{\n\n    uint256 private constant ONE256 = 1; \n\n    function addNGoals(uint256 log, uint8 goals) public pure returns (uint256) {\n        return log + goals;\n    }\n    \n    function addScoredPenalty(uint256 log, uint8 pos)  public pure returns (uint256) {\n        return log | (ONE256 << (124 + pos));\n    }\n\n    function getOutOfGamePlayer(uint256 log, bool is2ndHalf)  public pure returns (uint256) {\n        uint8 offset = is2ndHalf ? 141 : 131;\n        return ((uint256(log) >> offset) & 15);\n    }\n\n    function getOutOfGameType(uint256 log, bool is2ndHalf)  public pure returns (uint256) {\n        uint8 offset = is2ndHalf ? 141 : 131;\n        return ((uint256(log) >> (offset + 4)) & 3);\n    }\n\n    function getOutOfGameRound(uint256 log, bool is2ndHalf)  public pure returns (uint256) {\n        uint8 offset = is2ndHalf ? 141 : 131;\n        return ((uint256(log) >> (offset + 6)) & 15);\n    }\n\n    function setOutOfGame(uint256 log, uint8 player, uint8 round, uint8 typeOfOutOfGame, bool is2ndHalf)  public pure returns (uint256) {\n        uint8 offset = is2ndHalf ? 141 : 131;\n        /// in total, we will write 4b + 2b + 4b = 10b\n        log &= ~(uint256(1023) << offset); /// note: 2**10-1 = 1023\n        log |= (uint256(player) << offset);\n        log |= (uint256(typeOfOutOfGame) << (offset + 4));\n        return log | (uint256(round) << (offset + 6));\n    }\n\n    function addYellowCard(uint256 log, uint8 player, uint8 posInHaf, bool is2ndHalf)  public pure returns (uint256) {\n        uint8 offset = (is2ndHalf ? 159 : 151) + posInHaf * 4;\n        return log | (uint256(player) << offset);\n    }\n    \n    function getYellowCard(uint256 log, uint8 posInHaf, bool is2ndHalf)  public pure returns (uint8) {\n        uint8 offset = (is2ndHalf ? 159 : 151) + posInHaf * 4;\n        return uint8((log >> offset) & 15);\n    }\n    \n    function setInGameSubsHappened(uint256 log, uint8 happenedType, uint8 posInHalf, bool is2ndHalf) public pure returns (uint256) {\n        uint8 offset = 167 + 2 * (posInHalf + (is2ndHalf ? 3 : 0));\n        return (log & ~(uint256(3) << offset)) | (uint256(happenedType) << offset);\n    }\n\n    /// recall that 0 means no subs, and we store here lineUp[p]+1 (where lineUp[p] = player shirt in the 25 that was substituted)\n    function addHalfTimeSubs(uint256 log, uint8 player, uint8 pos)  public pure returns (uint256) {\n        return log | (uint256(player) << (179 + 5 * pos));\n    }\n\n    function addNTot(uint256 log, uint8 nTot, bool is2ndHalf)  public pure returns (uint256) {\n        return log | (uint256(nTot) << (202 + (is2ndHalf ? 4 : 0)));\n    }\n\n    function addTeamSumSkills(uint256 log, uint256 extraSumSkills)  public pure returns (uint256) {\n        return log | (uint256(extraSumSkills) << 212);\n    }\n\n}\n",
  "sourcePath": "/Users/jurgenkudla/proyects/laos/laos-goal-revolution/truffle-core/contracts/encoders/EncodingMatchLogBase1.sol",
  "compiler": {
    "name": "solc",
    "version": "0.6.3+commit.8dda9521.Emscripten.clang"
  },
  "schemaVersion": "3.0.23",
  "updatedAt": "2024-10-16T06:02:47.820Z",
  "devdoc": {
    "author": "Freeverse.io, www.freeverse.io",
    "details": "see EncodingMatchLog.sol for full spec",
    "methods": {},
    "title": "Subset of Library of functions to serialize matchLogs"
  },
  "userdoc": {
    "methods": {
      "addHalfTimeSubs(uint256,uint8,uint8)": {
        "notice": "recall that 0 means no subs, and we store here lineUp[p]+1 (where lineUp[p] = player shirt in the 25 that was substituted)"
      }
    }
  }
}