{
  "contractName": "EncodingTacticsBase2",
  "abi": [
    {
      "inputs": [
        {
          "internalType": "uint256",
          "name": "tactics",
          "type": "uint256"
        },
        {
          "internalType": "uint8[25]",
          "name": "vals",
          "type": "uint8[25]"
        }
      ],
      "name": "setStaminaRecovery",
      "outputs": [
        {
          "internalType": "uint256",
          "name": "",
          "type": "uint256"
        }
      ],
      "stateMutability": "pure",
      "type": "function"
    },
    {
      "inputs": [
        {
          "internalType": "uint256",
          "name": "tactics",
          "type": "uint256"
        },
        {
          "internalType": "uint16",
          "name": "val",
          "type": "uint16"
        }
      ],
      "name": "setItemId",
      "outputs": [
        {
          "internalType": "uint256",
          "name": "",
          "type": "uint256"
        }
      ],
      "stateMutability": "pure",
      "type": "function"
    },
    {
      "inputs": [
        {
          "internalType": "uint256",
          "name": "tactics",
          "type": "uint256"
        },
        {
          "internalType": "uint32",
          "name": "val",
          "type": "uint32"
        }
      ],
      "name": "setItemBoost",
      "outputs": [
        {
          "internalType": "uint256",
          "name": "",
          "type": "uint256"
        }
      ],
      "stateMutability": "pure",
      "type": "function"
    },
    {
      "inputs": [
        {
          "internalType": "uint256",
          "name": "tactics",
          "type": "uint256"
        }
      ],
      "name": "getItemsData",
      "outputs": [
        {
          "internalType": "uint8[25]",
          "name": "staminas",
          "type": "uint8[25]"
        },
        {
          "internalType": "uint16",
          "name": "",
          "type": "uint16"
        },
        {
          "internalType": "uint32",
          "name": "",
          "type": "uint32"
        }
      ],
      "stateMutability": "pure",
      "type": "function"
    },
    {
      "inputs": [
        {
          "internalType": "uint8[6]",
          "name": "skillsBoost",
          "type": "uint8[6]"
        }
      ],
      "name": "encodeBoosts",
      "outputs": [
        {
          "internalType": "uint32",
          "name": "encoded",
          "type": "uint32"
        }
      ],
      "stateMutability": "pure",
      "type": "function"
    },
    {
      "inputs": [
        {
          "internalType": "uint32",
          "name": "encoded",
          "type": "uint32"
        }
      ],
      "name": "decodeBoosts",
      "outputs": [
        {
          "internalType": "uint8[6]",
          "name": "skillsBoost",
          "type": "uint8[6]"
        }
      ],
      "stateMutability": "pure",
      "type": "function"
    }
  ],
  "bytecode": "0x608060405234801561001057600080fd5b50610595806100206000396000f3fe608060405234801561001057600080fd5b50600436106100625760003560e01c806310bca22c146100675780632777d02a146100d6578063638a53071461010f578063755bfe0d1461016a578063b8100e57146101d5578063be8fcecb146101fe575b600080fd5b6100846004803603602081101561007d57600080fd5b5035610257565b604051808461032080838360005b838110156100aa578181015183820152602001610092565b50505061ffff90961692019182525063ffffffff90921660208301525060408051918290030192509050f35b6100fd600480360360408110156100ec57600080fd5b508035906020013561ffff166102c0565b60408051918252519081900360200190f35b6101326004803603602081101561012557600080fd5b503563ffffffff16610336565b604051808260c080838360005b8381101561015757818101518382015260200161013f565b5050505090500191505060405180910390f35b6101bc600480360360c081101561018057600080fd5b810190808060c0019060068060200260405190810160405280929190826006602002808284376000920191909152509194506103899350505050565b6040805163ffffffff9092168252519081900360200190f35b6100fd600480360360408110156101eb57600080fd5b508035906020013563ffffffff1661040f565b6100fd600480360361034081101561021557600080fd5b604080516103208181019092528335939283019291610340830191906020840190601990839083908082843760009201919091525091945061042c9350505050565b61025f6104f3565b600080805b601960ff821610156102a45780600202606e0160ff1685901c600316848260ff166019811061028f57fe5b60ff9092166020929092020152600101610264565b50919360a084901c611fff169360ad1c63ffffffff1692509050565b60006120008261ffff161061031c576040805162461bcd60e51b815260206004820152601f60248201527f7374616d696e615265636f76657279206d757374206265203c20322a2a313300604482015290519081900360640190fd5b5060a01b61ffff60a01b16611fff60a01b19919091161790565b61033e610512565b60005b600560ff821611610383578060060260ff168363ffffffff16901c603f16828260ff166006811061036e57fe5b60ff9092166020929092020152600101610341565b50919050565b60006004826005602002015160ff16106103d45760405162461bcd60e51b815260040180806020018281038252602f815260200180610531602f913960400191505060405180910390fd5b60005b600560ff821611610383578060060260ff16838260ff16600681106103f857fe5b602002015160ff16901b91909117906001016103d7565b60ad1b63ffffffff60ad1b1663ffffffff60ad1b19919091161790565b6000805b601960ff821610156104eb576004838260ff166019811061044d57fe5b602002015160ff16106104a7576040805162461bcd60e51b815260206004820152601b60248201527f7374616d696e615265636f76657279206d757374206265203c20340000000000604482015290519081900360640190fd5b80600202606e0160ff16838260ff16601981106104c057fe5b602002015160ff16901b81600202606e0160ff166003901b1985161793508080600101915050610430565b509192915050565b6040518061032001604052806019906020820280368337509192915050565b6040518060c00160405280600690602082028036833750919291505056fe63616e6e6f74206f66666572206974656d73207468617420626f6f737420706f74656e7469616c20736f206d756368a26469706673582212209c3efb7d39d8a5c09ef623bfd1076f01af11082fea38691d01bf50e73e24795864736f6c63430006030033",
  "source": "pragma solidity >= 0.6.3;\n\n/**\n @title Subset library to serialize/deserialize match tactics decided by users\n @author Freeverse.io, www.freeverse.io\n*/ \n\ncontract EncodingTacticsBase2 {\n\n    uint8 constant private PLAYERS_PER_TEAM_MAX = 25;\n    uint8 constant private N_SKILLS = 5;\n\n    function setStaminaRecovery(uint256 tactics, uint8[PLAYERS_PER_TEAM_MAX] memory vals) public pure returns(uint256) {\n\n        for (uint8 p = 0; p < PLAYERS_PER_TEAM_MAX; p++) {\n            require(vals[p] < 4, \"staminaRecovery must be < 4\");\n            tactics = (tactics & ~(uint256(3) << (110 + 2*p))) | (uint256(vals[p]) << (110 + 2*p));\n        }\n        return tactics;\n    }\n\n    function setItemId(uint256 tactics, uint16 val) public pure returns(uint256) {\n        require(val < 2**13, \"staminaRecovery must be < 2**13\");\n        return (tactics & ~(uint256(8191) << 160)) | (uint256(val) << 160);\n    }\n\n    function setItemBoost(uint256 tactics, uint32 val) public pure returns(uint256) {\n        return (tactics & ~(uint256(4294967295) << 173)) | (uint256(val) << 173);\n    }\n    \n    function getItemsData(uint256 tactics) public pure returns(uint8[PLAYERS_PER_TEAM_MAX] memory staminas, uint16, uint32) {\n        for (uint8 p = 0; p < PLAYERS_PER_TEAM_MAX; p++) {\n            staminas[p] = uint8((tactics >> (110 + 2*p)) & 3);\n        }\n        return (\n            staminas, \n            uint16((tactics >> 160) & 8191), \n            uint32((tactics >> 173) & 4294967295)\n        );\n    }\n    \n    /// bits: 5 skills * 6b per skill (max 64) + 2b for potential = 32b\n    function encodeBoosts(uint8[N_SKILLS+1] memory skillsBoost) public pure returns(uint32 encoded) {\n        require(skillsBoost[N_SKILLS] < 4, \"cannot offer items that boost potential so much\");\n        for (uint8 sk = 0; sk <= N_SKILLS; sk++) {\n            encoded |= (uint32(skillsBoost[sk]) << 6*sk);\n        }\n    }\n\n    function decodeBoosts(uint32 encoded) public pure returns(uint8[N_SKILLS+1] memory skillsBoost) {\n        for (uint8 sk = 0; sk <= N_SKILLS; sk++) {\n            skillsBoost[sk] = uint8((encoded >> 6*sk) & 63);\n        }\n    }\n    \n\n\n}\n",
  "sourcePath": "/Users/jurgenkudla/proyects/laos/laos-goal-revolution/truffle-core/contracts/encoders/EncodingTacticsBase2.sol",
  "compiler": {
    "name": "solc",
    "version": "0.6.3+commit.8dda9521.Emscripten.clang"
  },
  "schemaVersion": "3.0.23",
  "updatedAt": "2024-10-16T06:02:47.844Z",
  "devdoc": {
    "author": "Freeverse.io, www.freeverse.io",
    "methods": {},
    "title": "Subset library to serialize/deserialize match tactics decided by users"
  },
  "userdoc": {
    "methods": {
      "encodeBoosts(uint8[6])": {
        "notice": "bits: 5 skills * 6b per skill (max 64) + 2b for potential = 32b"
      }
    }
  }
}