{
  "contractName": "EncodingTPAssignment",
  "abi": [
    {
      "inputs": [],
      "name": "MAX_PERCENT",
      "outputs": [
        {
          "internalType": "uint256",
          "name": "",
          "type": "uint256"
        }
      ],
      "stateMutability": "view",
      "type": "function"
    },
    {
      "inputs": [],
      "name": "NO_PLAYER",
      "outputs": [
        {
          "internalType": "uint8",
          "name": "",
          "type": "uint8"
        }
      ],
      "stateMutability": "view",
      "type": "function"
    },
    {
      "inputs": [
        {
          "internalType": "uint16",
          "name": "TP",
          "type": "uint16"
        },
        {
          "internalType": "uint16[25]",
          "name": "TPperSkill",
          "type": "uint16[25]"
        },
        {
          "internalType": "uint8",
          "name": "specialPlayer",
          "type": "uint8"
        }
      ],
      "name": "encodeTP",
      "outputs": [
        {
          "internalType": "uint256",
          "name": "encoded",
          "type": "uint256"
        }
      ],
      "stateMutability": "pure",
      "type": "function"
    },
    {
      "inputs": [
        {
          "internalType": "uint256",
          "name": "encoded",
          "type": "uint256"
        }
      ],
      "name": "decodeTP",
      "outputs": [
        {
          "internalType": "uint16[25]",
          "name": "TPperSkill",
          "type": "uint16[25]"
        },
        {
          "internalType": "uint8",
          "name": "specialPlayer",
          "type": "uint8"
        },
        {
          "internalType": "uint16",
          "name": "TP",
          "type": "uint16"
        },
        {
          "internalType": "uint8",
          "name": "",
          "type": "uint8"
        }
      ],
      "stateMutability": "pure",
      "type": "function"
    }
  ],
  "bytecode": "0x608060405234801561001057600080fd5b506104fa806100206000396000f3fe608060405234801561001057600080fd5b506004361061004c5760003560e01c80631036bbe2146100515780632df8e1671461006b5780635fc4f9f4146100e3578063c847d9c214610101575b600080fd5b610059610161565b60408051918252519081900360200190f35b6100886004803603602081101561008157600080fd5b5035610166565b604051808561032080838360005b838110156100ae578181015183820152602001610096565b50505060ff97881693909101928352505061ffff90931660208401525090911660408083019190915251908190036060019150f35b6100eb610286565b6040805160ff9092168252519081900360200190f35b610059600480360361036081101561011857600080fd5b6040805161032081810190925261ffff843516939283019291610340830191906020840190601990839083908082843760009201919091525091945050503560ff16905061028b565b603c81565b61016e61045f565b601f60ea83901c166101ff60e184901c16600081601984111561019557506002905061027f565b6000600482106101a85781603c026101ad565b816064025b905060005b60058160ff16101561027b578060ff16600414156101ec57600a600b8402049250600483106101e45782603c026101e9565b826064025b91505b6000600582025b8260010160050260ff168160ff16101561025b576101ff60ff60098302168b901c166064810285101561023057506003955061027f945050505050565b808a8360ff166019811061024057fe5b61ffff909216602092909202015291909101906001016101f3565b508381111561027257506004935061027f92505050565b506001016101b2565b5050505b9193509193565b601981565b6000601960ff831611156102e6576040805162461bcd60e51b815260206004820152601d60248201527f7370656369616c506c617965722076616c756520746f6f206c61726765000000604482015290519081900360640190fd5b5060ff60ea1b60ea82901b1661ffff60e11b60e185901b161761ffff84166000600482106103175781603c0261031c565b816064025b9050600060ff8516601914610332576005610335565b60045b905060005b8160ff168160ff161015610454578060ff166004141561037657600a600b85020493506004841061036e5783603c02610373565b836064025b92505b6000600582025b8260010160050260ff168160ff16101561040b576000898260ff16601981106103a257fe5b602002015161ffff169050858160640211156103ef5760405162461bcd60e51b81526004018080602001828103825260248152602001806104a16024913960400191505060405180910390fd5b60ff600983021681901b9790971796919091019060010161037d565b508481111561044b5760405162461bcd60e51b815260040180806020018281038252602281526020018061047f6022913960400191505060405180910390fd5b5060010161033a565b505050509392505050565b604051806103200160405280601990602082028036833750919291505056fe73756d206f66205472616e696e6720506f696e747320697320746f6f206c617267656f6e65206f66207468652061737369676e65642054507320697320746f6f206c61726765a26469706673582212209e1614294dc297e8c0edc8f911732eb7daba741dcdd9088dc955a16e0977021364736f6c63430006030033",
  "source": "pragma solidity >= 0.6.3;\n\nimport \"../gameEngine/ErrorCodes.sol\";\n\n/**\n @title Library to serialize/deserialize assignment of Traning points by users\n @author Freeverse.io, www.freeverse.io\n*/\n\n/**\n Spec: \n We have 5 buckets: GK, D, M, A, Special\n We need 5 TPperSkill per bucket \n      - 9 bit per each of the TPperSkill\n      - such that sum(TPperSkill) < TP (except for special player)\n assignedTP encodes a total: 5 buckets * 5 TPperSKill * 9b + 1 totalTP * 9b + 5 for specialPlId = 239\n offsets:\n      - TPperSkill: 0 --> 224\n      - TP: 225 --> 233\n      - specIf --> 234 -> 238\n 9 bit for TP  => max val = 511\n 5 bit for specialPlayer\n TP: all the available Training point earned in the previous match log\n specialPlayer: no specialPlayer if == 25\n*/\n\ncontract EncodingTPAssignment is ErrorCodes {\n\n    uint256 public constant MAX_PERCENT = 60; \n    uint8 private constant PLAYERS_PER_TEAM_MAX  = 25;\n    uint8 public constant NO_PLAYER = PLAYERS_PER_TEAM_MAX; /// No player chosen\n    \n    function encodeTP(uint16 TP, uint16[25] memory TPperSkill, uint8 specialPlayer) public pure returns (uint256 encoded) {\n        require(specialPlayer <= PLAYERS_PER_TEAM_MAX, \"specialPlayer value too large\");\n\n        uint256 TP256 = uint256(TP);\n        encoded = TP256 << 225;\n        encoded |= uint256(specialPlayer) << 234;\n\n        uint256 maxRHS = (TP256 < 4) ? 100 * TP256 : MAX_PERCENT * TP256;\n        uint8 lastBucket = (specialPlayer == NO_PLAYER ? 4 : 5);\n        for (uint8 bucket = 0; bucket < lastBucket; bucket++) {\n            if (bucket == 4) {\n                TP256 = (TP256 * 11)/10;\n                maxRHS = (TP256 < 4) ? 100 * TP256 : MAX_PERCENT * TP256;\n            }\n            uint256 sum = 0;\n            for (uint8 sk = 5 * bucket; sk < 5 * (bucket+1); sk++) {\n                uint256 skill = uint256(TPperSkill[sk]);\n                require(100*skill <= maxRHS, \"one of the assigned TPs is too large\");\n                sum += skill;\n                encoded |= skill << (9 * sk);\n            }\n            require(sum <= TP256, \"sum of Traning Points is too large\");\n        }\n    } \n\n    function decodeTP(uint256 encoded) public pure returns(uint16[25] memory TPperSkill, uint8 specialPlayer, uint16 TP, uint8) {\n        uint256 TPtemp = (encoded >> 225) & 511;\n        TP = uint16(TPtemp);\n        specialPlayer = uint8((encoded >> 234) & 31);\n        if (specialPlayer > PLAYERS_PER_TEAM_MAX) return (TPperSkill, specialPlayer, TP, ERR_TRAINING_SPLAYER); // specialPlayer value too large\n        uint256 maxRHS = (TPtemp < 4) ? 100 * TPtemp : MAX_PERCENT * TPtemp;\n        for (uint8 bucket = 0; bucket < 5; bucket++) {\n            if (bucket == 4) {\n                TPtemp = (TPtemp * 11)/10;\n                maxRHS = (TPtemp < 4) ? 100 * TPtemp : MAX_PERCENT * TPtemp;\n            }\n            uint256 sum = 0;\n            for (uint8 sk = 5 * bucket; sk < 5* (bucket+1); sk++) {\n                uint256 skill = (encoded >> (9 * sk)) & 511;\n                if (100*skill > maxRHS) return (TPperSkill, specialPlayer, TP, ERR_TRAINING_SINGLESKILL); // one of the assigned TPs is too large or too small\n                TPperSkill[sk] = uint16(skill);\n                sum += skill;\n            }\n            if (sum > TPtemp) return (TPperSkill, specialPlayer, TP, ERR_TRAINING_SUMSKILLS); // sum of Traning Points is too large\"\n        }\n    } \n}\n",
  "sourcePath": "/Users/jurgenkudla/proyects/laos/laos-goal-revolution/goalrev-ganache/contracts/encoders/EncodingTPAssignment.sol",
  "compiler": {
    "name": "solc",
    "version": "0.6.3+commit.8dda9521.Emscripten.clang"
  },
  "schemaVersion": "3.0.23",
  "updatedAt": "2024-10-18T06:09:35.316Z",
  "devdoc": {
    "methods": {}
  },
  "userdoc": {
    "methods": {
      "encodeTP(uint16,uint16[25],uint8)": {
        "notice": "No player chosen"
      }
    },
    "notice": "Spec:  We have 5 buckets: GK, D, M, A, Special We need 5 TPperSkill per bucket  - 9 bit per each of the TPperSkill - such that sum(TPperSkill) < TP (except for special player) assignedTP encodes a total: 5 buckets * 5 TPperSKill * 9b + 1 totalTP * 9b + 5 for specialPlId = 239 offsets: - TPperSkill: 0 --> 224 - TP: 225 --> 233 - specIf --> 234 -> 238 9 bit for TP  => max val = 511 5 bit for specialPlayer TP: all the available Training point earned in the previous match log specialPlayer: no specialPlayer if == 25"
  }
}