{
  "contractName": "EncodingMatchLogBase2",
  "abi": [
    {
      "inputs": [
        {
          "internalType": "uint256",
          "name": "log",
          "type": "uint256"
        },
        {
          "internalType": "uint8",
          "name": "pos",
          "type": "uint8"
        }
      ],
      "name": "getAssister",
      "outputs": [
        {
          "internalType": "uint8",
          "name": "",
          "type": "uint8"
        }
      ],
      "stateMutability": "pure",
      "type": "function"
    },
    {
      "inputs": [
        {
          "internalType": "uint256",
          "name": "log",
          "type": "uint256"
        },
        {
          "internalType": "uint8",
          "name": "pos",
          "type": "uint8"
        }
      ],
      "name": "getShooter",
      "outputs": [
        {
          "internalType": "uint8",
          "name": "",
          "type": "uint8"
        }
      ],
      "stateMutability": "pure",
      "type": "function"
    },
    {
      "inputs": [
        {
          "internalType": "uint256",
          "name": "log",
          "type": "uint256"
        },
        {
          "internalType": "uint8",
          "name": "pos",
          "type": "uint8"
        }
      ],
      "name": "getForwardPos",
      "outputs": [
        {
          "internalType": "uint8",
          "name": "",
          "type": "uint8"
        }
      ],
      "stateMutability": "pure",
      "type": "function"
    },
    {
      "inputs": [
        {
          "internalType": "uint256",
          "name": "log",
          "type": "uint256"
        },
        {
          "internalType": "uint8",
          "name": "pos",
          "type": "uint8"
        }
      ],
      "name": "getPenalty",
      "outputs": [
        {
          "internalType": "bool",
          "name": "",
          "type": "bool"
        }
      ],
      "stateMutability": "pure",
      "type": "function"
    },
    {
      "inputs": [
        {
          "internalType": "uint256",
          "name": "log",
          "type": "uint256"
        }
      ],
      "name": "getIsHomeStadium",
      "outputs": [
        {
          "internalType": "bool",
          "name": "",
          "type": "bool"
        }
      ],
      "stateMutability": "pure",
      "type": "function"
    },
    {
      "inputs": [
        {
          "internalType": "uint256",
          "name": "log",
          "type": "uint256"
        },
        {
          "internalType": "uint8",
          "name": "pos",
          "type": "uint8"
        }
      ],
      "name": "getHalfTimeSubs",
      "outputs": [
        {
          "internalType": "uint8",
          "name": "",
          "type": "uint8"
        }
      ],
      "stateMutability": "pure",
      "type": "function"
    },
    {
      "inputs": [
        {
          "internalType": "uint256",
          "name": "log",
          "type": "uint256"
        },
        {
          "internalType": "bool",
          "name": "is2ndHalf",
          "type": "bool"
        }
      ],
      "name": "getNGKAndDefs",
      "outputs": [
        {
          "internalType": "uint8",
          "name": "",
          "type": "uint8"
        }
      ],
      "stateMutability": "pure",
      "type": "function"
    },
    {
      "inputs": [
        {
          "internalType": "uint256",
          "name": "log",
          "type": "uint256"
        },
        {
          "internalType": "bool",
          "name": "is2ndHalf",
          "type": "bool"
        }
      ],
      "name": "getNTot",
      "outputs": [
        {
          "internalType": "uint8",
          "name": "",
          "type": "uint8"
        }
      ],
      "stateMutability": "pure",
      "type": "function"
    },
    {
      "inputs": [
        {
          "internalType": "uint256",
          "name": "log",
          "type": "uint256"
        }
      ],
      "name": "getWinner",
      "outputs": [
        {
          "internalType": "uint8",
          "name": "",
          "type": "uint8"
        }
      ],
      "stateMutability": "pure",
      "type": "function"
    },
    {
      "inputs": [
        {
          "internalType": "uint256",
          "name": "log",
          "type": "uint256"
        }
      ],
      "name": "getTeamSumSkills",
      "outputs": [
        {
          "internalType": "uint256",
          "name": "",
          "type": "uint256"
        }
      ],
      "stateMutability": "pure",
      "type": "function"
    },
    {
      "inputs": [
        {
          "internalType": "uint256",
          "name": "log",
          "type": "uint256"
        },
        {
          "internalType": "uint256",
          "name": "points",
          "type": "uint256"
        }
      ],
      "name": "addTrainingPoints",
      "outputs": [
        {
          "internalType": "uint256",
          "name": "",
          "type": "uint256"
        }
      ],
      "stateMutability": "pure",
      "type": "function"
    },
    {
      "inputs": [
        {
          "internalType": "uint256",
          "name": "log",
          "type": "uint256"
        }
      ],
      "name": "getTrainingPoints",
      "outputs": [
        {
          "internalType": "uint16",
          "name": "",
          "type": "uint16"
        }
      ],
      "stateMutability": "pure",
      "type": "function"
    }
  ],
  "bytecode": "0x608060405234801561001057600080fd5b506103af806100206000396000f3fe608060405234801561001057600080fd5b50600436106100b45760003560e01c806399dfedb41161007157806399dfedb4146101c45780639e8530ff146101e1578063ae59df9d14610206578063ce9681641461022c578063eed3142814610260578063f0789df614610285576100b4565b8063190e5f8c146100b95780631d1e84de146100ea57806335b6ab7a146101265780634129b2c91461014c5780636223304514610169578063754b7cf41461019e575b600080fd5b6100d6600480360360208110156100cf57600080fd5b50356102ab565b604080519115158252519081900360200190f35b6101106004803603604081101561010057600080fd5b508035906020013560ff166102b7565b6040805160ff9092168252519081900360200190f35b6100d66004803603604081101561013c57600080fd5b508035906020013560ff166102c7565b6101106004803603602081101561016257600080fd5b50356102d7565b61018c6004803603604081101561017f57600080fd5b50803590602001356102e0565b60408051918252519081900360200190f35b610110600480360360408110156101b457600080fd5b508035906020013560ff166102e7565b61018c600480360360208110156101da57600080fd5b50356102f7565b610110600480360360408110156101f757600080fd5b50803590602001351515610302565b6101106004803603604081101561021c57600080fd5b508035906020013560ff1661032a565b6102496004803603602081101561024257600080fd5b503561033a565b6040805161ffff9092168252519081900360200190f35b6101106004803603604081101561027657600080fd5b50803590602001351515610344565b6101106004803603604081101561029b57600080fd5b508035906020013560ff16610369565b60f81c60019081161490565b60040260340160ff161c600f1690565b607c0160ff161c60019081161490565b60d21c60031690565b60ec1b1790565b60050260b30160ff161c601f1690565b60d41c62ffffff1690565b600081610310576000610313565b60015b60040260c20160ff1683901c600f16905092915050565b60020260640160ff161c60031690565b60ec1c610fff1690565b600081610352576000610355565b60045b60ca0160ff1683901c600f16905092915050565b60049081020160ff161c600f169056fea2646970667358221220bcf766af46ede6683dc00827e4ea0217fd7756df6a7d838bc973b4fcb6c9127e64736f6c63430006030033",
  "source": "pragma solidity >= 0.6.3;\n\n/**\n @title Subset of Library of functions to serialize matchLogs\n @author Freeverse.io, www.freeverse.io\n @dev see EncodingMatchLog.sol for full spec\n*/\n\ncontract EncodingMatchLogBase2  {\n\n    function getAssister(uint256 log, uint8 pos) public pure returns (uint8) {\n        return uint8((log >> (4 + 4 * pos)) & 15);\n    }\n  \n    function getShooter(uint256 log, uint8 pos) public pure returns (uint8) {\n        return uint8((log >> (52 + 4 * pos)) & 15);\n    }\n\n    function getForwardPos(uint256 log, uint8 pos) public pure returns (uint8) {\n        return uint8((log >> (100 + 2 * pos)) & 3);\n    }\n    \n    function getPenalty(uint256 log, uint8 pos)  public pure returns (bool) {\n        return ((log >> (124 + pos)) & 1) == 1;\n    }\n    \n    function getIsHomeStadium(uint256 log)  public pure returns (bool) {\n        return ((log >> 248) & 1) == 1;\n    }\n    \n    /// recall that 0 means no subs, and we store here p+1 (where p = player in the starting 11 that was substituted)\n    function getHalfTimeSubs(uint256 log, uint8 pos)  public pure returns (uint8) {\n        return uint8((log >> (179 + 5 * pos)) & 31);\n    }\n\n    function getNGKAndDefs(uint256 log, bool is2ndHalf)  public pure returns (uint8) {\n        return uint8((log >> (194 + 4 * (is2ndHalf ? 1 : 0))) & 15);\n    }\n\n    function getNTot(uint256 log, bool is2ndHalf)  public pure returns (uint8) {\n        return uint8((log >> (202 + (is2ndHalf ? 4 : 0))) & 15);\n    }\n\n    function getWinner(uint256 log) public pure returns (uint8) {\n        return uint8((log >> 210) & 3);\n    }\n    \n    function getTeamSumSkills(uint256 log) public pure returns (uint256) {\n        return (log >> 212) & 16777215; /// 2^24 - 1\n    }\n    \n    function addTrainingPoints(uint256 log, uint256 points)  public pure returns (uint256) {\n        return log | (uint256(points) << 236);\n    }\n\n    function getTrainingPoints(uint256 log)  public pure returns (uint16) {\n        return  uint16((log >> 236) & 4095); /// 2^12-1\n    }\n    \n}\n",
  "sourcePath": "/Users/jurgenkudla/proyects/laos/laos-goal-revolution/goalrev-ganache/contracts/encoders/EncodingMatchLogBase2.sol",
  "compiler": {
    "name": "solc",
    "version": "0.6.3+commit.8dda9521.Emscripten.clang"
  },
  "schemaVersion": "3.0.23",
  "updatedAt": "2024-10-18T06:09:35.302Z",
  "devdoc": {
    "author": "Freeverse.io, www.freeverse.io",
    "details": "see EncodingMatchLog.sol for full spec",
    "methods": {},
    "title": "Subset of Library of functions to serialize matchLogs"
  },
  "userdoc": {
    "methods": {
      "getHalfTimeSubs(uint256,uint8)": {
        "notice": "recall that 0 means no subs, and we store here p+1 (where p = player in the starting 11 that was substituted)"
      }
    }
  }
}