{
  "contractName": "EncodingTacticsBase3",
  "abi": [
    {
      "inputs": [
        {
          "internalType": "uint256",
          "name": "tactics",
          "type": "uint256"
        }
      ],
      "name": "getTacticsId",
      "outputs": [
        {
          "internalType": "uint8",
          "name": "",
          "type": "uint8"
        }
      ],
      "stateMutability": "pure",
      "type": "function"
    },
    {
      "inputs": [
        {
          "internalType": "uint256",
          "name": "tactics",
          "type": "uint256"
        },
        {
          "internalType": "uint8",
          "name": "p",
          "type": "uint8"
        }
      ],
      "name": "getExtraAttack",
      "outputs": [
        {
          "internalType": "bool",
          "name": "",
          "type": "bool"
        }
      ],
      "stateMutability": "pure",
      "type": "function"
    },
    {
      "inputs": [
        {
          "internalType": "uint256",
          "name": "tactics",
          "type": "uint256"
        }
      ],
      "name": "getFullExtraAttack",
      "outputs": [
        {
          "internalType": "bool[10]",
          "name": "extraAttack",
          "type": "bool[10]"
        }
      ],
      "stateMutability": "pure",
      "type": "function"
    },
    {
      "inputs": [
        {
          "internalType": "uint256",
          "name": "tactics",
          "type": "uint256"
        },
        {
          "internalType": "uint8",
          "name": "p",
          "type": "uint8"
        }
      ],
      "name": "getSubstitution",
      "outputs": [
        {
          "internalType": "uint8",
          "name": "",
          "type": "uint8"
        }
      ],
      "stateMutability": "pure",
      "type": "function"
    },
    {
      "inputs": [
        {
          "internalType": "uint256",
          "name": "tactics",
          "type": "uint256"
        },
        {
          "internalType": "uint8",
          "name": "p",
          "type": "uint8"
        }
      ],
      "name": "getSubsRound",
      "outputs": [
        {
          "internalType": "uint8",
          "name": "",
          "type": "uint8"
        }
      ],
      "stateMutability": "pure",
      "type": "function"
    },
    {
      "inputs": [
        {
          "internalType": "uint256",
          "name": "tactics",
          "type": "uint256"
        },
        {
          "internalType": "uint8",
          "name": "p",
          "type": "uint8"
        }
      ],
      "name": "getLinedUp",
      "outputs": [
        {
          "internalType": "uint8",
          "name": "",
          "type": "uint8"
        }
      ],
      "stateMutability": "pure",
      "type": "function"
    },
    {
      "inputs": [
        {
          "internalType": "uint256",
          "name": "tactics",
          "type": "uint256"
        }
      ],
      "name": "getFullLineUp",
      "outputs": [
        {
          "internalType": "uint8[14]",
          "name": "lineup",
          "type": "uint8[14]"
        }
      ],
      "stateMutability": "pure",
      "type": "function"
    }
  ],
  "bytecode": "0x608060405234801561001057600080fd5b50610362806100206000396000f3fe608060405234801561001057600080fd5b506004361061007d5760003560e01c80638b6f120f1161005b5780638b6f120f14610101578063df1beecb14610157578063e4eec4be1461018a578063e9b66454146101b05761007d565b806305f0bb7b1461008257806335515f78146100be5780637a8409b3146100db575b600080fd5b6100a86004803603604081101561009857600080fd5b508035906020013560ff166101ea565b6040805160ff9092168252519081900360200190f35b6100a8600480360360208110156100d457600080fd5b50356101fa565b6100a8600480360360408110156100f157600080fd5b508035906020013560ff16610200565b61011e6004803603602081101561011757600080fd5b5035610210565b60405180826101c080838360005b8381101561014457818101518382015260200161012c565b5050505090500191505060405180910390f35b6101746004803603602081101561016d57600080fd5b5035610261565b604051815181528082610140808383602061012c565b6100a8600480360360408110156101a057600080fd5b508035906020013560ff166102b7565b6101d6600480360360408110156101c657600080fd5b508035906020013560ff166102c7565b604080519115158252519081900360200190f35b60050260100160ff161c601f1690565b603f1690565b60040260620160ff161c600f1690565b6102186102ee565b60005b600e8160ff16101561025b578060050260100160ff1683901c601f16828260ff16600e811061024657fe5b60ff909216602092909202015260010161021b565b50919050565b61026961030d565b60005b600a8160ff16101561025b578060060160ff1683901c600116600114610293576000610296565b60015b828260ff16600a81106102a557fe5b9115156020909202015260010161026c565b60040260560160ff161c600f1690565b60008160060160ff1683901c6001166001146102e45760006102e7565b60015b9392505050565b604051806101c00160405280600e906020820280368337509192915050565b604051806101400160405280600a90602082028036833750919291505056fea264697066735822122034ca5e94d5fccf456fa1e309c4a22510d6b5f3c5d525997d19aea4ebb05360e564736f6c63430006030033",
  "source": "pragma solidity >= 0.6.3;\n\n/**\n @title Subset library to serialize/deserialize match tactics decided by users\n @author Freeverse.io, www.freeverse.io\n*/ \n \ncontract EncodingTacticsBase3 {\n    function getTacticsId(uint256 tactics) public pure returns(uint8) {\n        return uint8(tactics & 63);\n    }\n\n    function getExtraAttack(uint256 tactics, uint8 p) public pure returns(bool) {\n        return (((tactics >> (6 + p)) & 1) == 1 ? true : false); /// 2^1 - 1\n    }\n    \n    function getFullExtraAttack(uint256 tactics) public pure returns(bool[10] memory extraAttack) {\n        for (uint8 p = 0; p < 10; p++) {\n            extraAttack[p] = (((tactics >> (6 + p)) & 1) == 1 ? true : false); /// 2^1 - 1\n        }\n    }\n\n    function getSubstitution(uint256 tactics, uint8 p) public pure returns(uint8) {\n        return uint8((tactics >> (86 + 4 * p)) & 15); /// 2^4 - 1\n    }\n    \n    function getSubsRound(uint256 tactics, uint8 p) public pure returns(uint8) {\n        return uint8(tactics >> (98 + 4 * p) & 15); /// 2^4 - 1\n    }\n\n    function getLinedUp(uint256 tactics, uint8 p) public pure returns(uint8) {\n        return uint8((tactics >> (16 + 5 * p)) & 31); /// 2^5 - 1\n    }\n    \n    function getFullLineUp(uint256 tactics) public pure returns(uint8[14] memory lineup) {\n        for (uint8 p = 0; p < 14; p++) {\n            lineup[p] = uint8((tactics >> (16 + 5 * p)) & 31); /// 2^5 - 1\n        }\n    }\n}\n",
  "sourcePath": "/Users/jurgenkudla/proyects/laos/laos-goal-revolution/truffle-core/contracts/encoders/EncodingTacticsBase3.sol",
  "compiler": {
    "name": "solc",
    "version": "0.6.3+commit.8dda9521.Emscripten.clang"
  },
  "schemaVersion": "3.0.23",
  "updatedAt": "2024-10-16T06:02:47.847Z",
  "devdoc": {
    "author": "Freeverse.io, www.freeverse.io",
    "methods": {},
    "title": "Subset library to serialize/deserialize match tactics decided by users"
  },
  "userdoc": {
    "methods": {}
  }
}