{
  "contractName": "EncodingSkillsSetters",
  "abi": [
    {
      "inputs": [
        {
          "internalType": "uint256",
          "name": "encodedSkills",
          "type": "uint256"
        },
        {
          "internalType": "uint256",
          "name": "val",
          "type": "uint256"
        },
        {
          "internalType": "uint8",
          "name": "skillIdx",
          "type": "uint8"
        }
      ],
      "name": "setSkill",
      "outputs": [
        {
          "internalType": "uint256",
          "name": "",
          "type": "uint256"
        }
      ],
      "stateMutability": "pure",
      "type": "function"
    },
    {
      "inputs": [
        {
          "internalType": "uint256",
          "name": "encodedSkills",
          "type": "uint256"
        },
        {
          "internalType": "uint256",
          "name": "val",
          "type": "uint256"
        }
      ],
      "name": "setPotential",
      "outputs": [
        {
          "internalType": "uint256",
          "name": "",
          "type": "uint256"
        }
      ],
      "stateMutability": "pure",
      "type": "function"
    },
    {
      "inputs": [
        {
          "internalType": "uint256",
          "name": "encodedSkills",
          "type": "uint256"
        },
        {
          "internalType": "bool",
          "name": "val",
          "type": "bool"
        }
      ],
      "name": "setAlignedEndOfFirstHalf",
      "outputs": [
        {
          "internalType": "uint256",
          "name": "",
          "type": "uint256"
        }
      ],
      "stateMutability": "pure",
      "type": "function"
    },
    {
      "inputs": [
        {
          "internalType": "uint256",
          "name": "encodedSkills",
          "type": "uint256"
        },
        {
          "internalType": "bool",
          "name": "val",
          "type": "bool"
        }
      ],
      "name": "setSubstitutedFirstHalf",
      "outputs": [
        {
          "internalType": "uint256",
          "name": "",
          "type": "uint256"
        }
      ],
      "stateMutability": "pure",
      "type": "function"
    },
    {
      "inputs": [
        {
          "internalType": "uint256",
          "name": "encodedSkills",
          "type": "uint256"
        },
        {
          "internalType": "bool",
          "name": "val",
          "type": "bool"
        }
      ],
      "name": "setRedCardLastGame",
      "outputs": [
        {
          "internalType": "uint256",
          "name": "",
          "type": "uint256"
        }
      ],
      "stateMutability": "pure",
      "type": "function"
    },
    {
      "inputs": [
        {
          "internalType": "uint256",
          "name": "encodedSkills",
          "type": "uint256"
        },
        {
          "internalType": "uint8",
          "name": "val",
          "type": "uint8"
        }
      ],
      "name": "setInjuryWeeksLeft",
      "outputs": [
        {
          "internalType": "uint256",
          "name": "",
          "type": "uint256"
        }
      ],
      "stateMutability": "pure",
      "type": "function"
    },
    {
      "inputs": [
        {
          "internalType": "uint256",
          "name": "encodedSkills",
          "type": "uint256"
        },
        {
          "internalType": "uint32",
          "name": "val",
          "type": "uint32"
        }
      ],
      "name": "setSumOfSkills",
      "outputs": [
        {
          "internalType": "uint256",
          "name": "",
          "type": "uint256"
        }
      ],
      "stateMutability": "pure",
      "type": "function"
    },
    {
      "inputs": [
        {
          "internalType": "uint256",
          "name": "encodedSkills",
          "type": "uint256"
        },
        {
          "internalType": "uint32",
          "name": "val",
          "type": "uint32"
        }
      ],
      "name": "setGeneration",
      "outputs": [
        {
          "internalType": "uint256",
          "name": "",
          "type": "uint256"
        }
      ],
      "stateMutability": "pure",
      "type": "function"
    },
    {
      "inputs": [
        {
          "internalType": "uint256",
          "name": "encodedSkills",
          "type": "uint256"
        },
        {
          "internalType": "uint8",
          "name": "val",
          "type": "uint8"
        }
      ],
      "name": "setGamesNonStopping",
      "outputs": [
        {
          "internalType": "uint256",
          "name": "",
          "type": "uint256"
        }
      ],
      "stateMutability": "pure",
      "type": "function"
    },
    {
      "inputs": [
        {
          "internalType": "uint256",
          "name": "encodedSkills",
          "type": "uint256"
        }
      ],
      "name": "addIsSpecial",
      "outputs": [
        {
          "internalType": "uint256",
          "name": "",
          "type": "uint256"
        }
      ],
      "stateMutability": "pure",
      "type": "function"
    },
    {
      "inputs": [
        {
          "internalType": "uint256",
          "name": "encodedSkills",
          "type": "uint256"
        },
        {
          "internalType": "bool",
          "name": "val",
          "type": "bool"
        }
      ],
      "name": "setOutOfGameFirstHalf",
      "outputs": [
        {
          "internalType": "uint256",
          "name": "",
          "type": "uint256"
        }
      ],
      "stateMutability": "pure",
      "type": "function"
    },
    {
      "inputs": [
        {
          "internalType": "uint256",
          "name": "encodedSkills",
          "type": "uint256"
        },
        {
          "internalType": "bool",
          "name": "val",
          "type": "bool"
        }
      ],
      "name": "setYellowCardFirstHalf",
      "outputs": [
        {
          "internalType": "uint256",
          "name": "",
          "type": "uint256"
        }
      ],
      "stateMutability": "pure",
      "type": "function"
    }
  ],
  "bytecode": "0x608060405234801561001057600080fd5b5061048a806100206000396000f3fe608060405234801561001057600080fd5b50600436106100b45760003560e01c8063920bee2f11610071578063920bee2f146101b8578063c5aedd2c146101d5578063db43151d146101fa578063dcc9ee3f14610220578063facec57314610245578063fc27bf4a1461026b576100b4565b806307c30b4d146100b95780631018d55f146100f057806336e317821461011c57806338897858146101415780634e905ea21461016a5780638de97f4f1461018f575b600080fd5b6100de600480360360408110156100cf57600080fd5b5080359060200135151561028e565b60408051918252519081900360200190f35b6100de6004803603606081101561010657600080fd5b508035906020810135906040013560ff166102ba565b6100de6004803603604081101561013257600080fd5b508035906020013515156102d3565b6100de6004803603604081101561015757600080fd5b508035906020013563ffffffff166102fd565b6100de6004803603604081101561018057600080fd5b50803590602001351515610319565b6100de600480360360408110156101a557600080fd5b508035906020013563ffffffff16610343565b6100de600480360360208110156101ce57600080fd5b503561035d565b6100de600480360360408110156101eb57600080fd5b50803590602001351515610366565b6100de6004803603604081101561021057600080fd5b508035906020013560ff16610390565b6100de6004803603604081101561023657600080fd5b508035906020013515156103a7565b6100de6004803603604081101561025b57600080fd5b508035906020013560ff166103d1565b6100de6004803603604081101561028157600080fd5b5080359060200135610443565b600081156102aa5750600160ad1b198216600160ad1b176102b4565b50600160ad1b1982165b92915050565b60ff1660140290811b620fffff90911b19919091161790565b600081156102ef5750600160d51b198216600160d51b176102b4565b50600160d51b1982166102b4565b60b51b63ffffffff60b51b166207ffff60b51b19919091161790565b600081156103355750600160b41b198216600160b41b176102b4565b50600160b41b1982166102b4565b60cd1b63ffffffff60cd1b1660ff60cd1b19919091161790565b600160cc1b1790565b600081156103825750600160d61b198216600160d61b176102b4565b50600160d61b1982166102b4565b60b11b60ff60b11b16600760b11b19919091161790565b600081156103c35750600160ac1b198216600160ac1b176102b4565b50600160ac1b1982166102b4565b600060088260ff161061042b576040805162461bcd60e51b815260206004820152601d60248201527f67616d65734e6f6e53746f7070696e67206f7574206f6620626f756e64000000604482015290519081900360640190fd5b5060ae1b60ff60ae1b16600760ae1b19919091161790565b60741b600f60741b1991909116179056fea26469706673582212205cfff1bf1cf3e10b133c075ef1151b97d0fb8b8eee5a81fa94524a86620e2d9464736f6c63430006030033",
  "source": "pragma solidity >= 0.6.3;\n\n/**\n @title Setters for library to serialize/deserialize player skills\n @author Freeverse.io, www.freeverse.io\n*/\n\ncontract EncodingSkillsSetters {\n\n    function setSkill(uint256 encodedSkills, uint256 val, uint8 skillIdx) public pure returns (uint256) {\n        return (encodedSkills & ~(uint256(1048575) << (20 * uint256(skillIdx)))) | (val << (20 * uint256(skillIdx)));\n    }\n\n    function setPotential(uint256 encodedSkills, uint256 val) public pure returns (uint256) {\n        return (encodedSkills & ~(uint256(15) << 116)) | (val << 116);\n    }\n\n    function setAlignedEndOfFirstHalf(uint256 encodedSkills, bool val) public pure returns (uint256) {\n        if (val) return (encodedSkills & ~(uint256(1) << 172)) | (uint256(1) << 172);\n        else return (encodedSkills & ~(uint256(1) << 172));\n    }\n\n    function setSubstitutedFirstHalf(uint256 encodedSkills, bool val) public pure returns (uint256) {\n        if (val) return (encodedSkills & ~(uint256(1) << 180)) | (uint256(1) << 180);\n        else return (encodedSkills & ~(uint256(1) << 180));\n    }\n\n    function setRedCardLastGame(uint256 encodedSkills, bool val) public pure returns (uint256) {\n        if (val) return (encodedSkills & ~(uint256(1) << 173)) | (uint256(1) << 173);\n        else return (encodedSkills & ~(uint256(1) << 173));\n    }\n\n    function setInjuryWeeksLeft(uint256 encodedSkills, uint8 val) public pure returns (uint256) {\n        return (encodedSkills & ~(uint256(7) << 177)) | (uint256(val) << 177);\n    }\n\n    function setSumOfSkills(uint256 encodedSkills, uint32 val) public pure returns (uint256) {\n        return (encodedSkills & ~(uint256(524287) << 181)) | (uint256(val) << 181);\n    }\n\n    function setGeneration(uint256 encodedSkills, uint32 val) public pure returns (uint256) {\n        return (encodedSkills & ~(uint256(255) << 205)) | (uint256(val) << 205);\n    }\n\n    function setGamesNonStopping(uint256 encodedSkills, uint8 val) public pure returns (uint256) {\n        require(val < 8, \"gamesNonStopping out of bound\");\n        return (encodedSkills & ~(uint256(7) << 174)) | (uint256(val) << 174);\n    }\n\n    function addIsSpecial(uint256 encodedSkills) public pure returns (uint256) {\n        return (encodedSkills | (uint256(1) << 204));\n    }\n    \n    function setOutOfGameFirstHalf(uint256 encodedSkills, bool val) public pure returns (uint256) {\n        if (val) return (encodedSkills & ~(uint256(1) << 213)) | (uint256(1) << 213);\n        else return (encodedSkills & ~(uint256(1) << 213));\n    }\n    \n    function setYellowCardFirstHalf(uint256 encodedSkills, bool val) public pure returns (uint256) {\n        if (val) return (encodedSkills & ~(uint256(1) << 214)) | (uint256(1) << 214);\n        else return (encodedSkills & ~(uint256(1) << 214));\n    }\n\n}\n",
  "sourcePath": "/Users/jurgenkudla/proyects/laos/laos-goal-revolution/truffle-core/contracts/encoders/EncodingSkillsSetters.sol",
  "compiler": {
    "name": "solc",
    "version": "0.6.3+commit.8dda9521.Emscripten.clang"
  },
  "schemaVersion": "3.0.23",
  "updatedAt": "2024-10-16T08:58:34.676Z",
  "networkType": "ethereum",
  "devdoc": {
    "author": "Freeverse.io, www.freeverse.io",
    "methods": {},
    "title": "Setters for library to serialize/deserialize player skills"
  },
  "userdoc": {
    "methods": {}
  }
}