{
  "contractName": "EncodingSkillsGetters",
  "abi": [
    {
      "inputs": [
        {
          "internalType": "uint256",
          "name": "encodedSkills",
          "type": "uint256"
        },
        {
          "internalType": "uint8",
          "name": "skillIdx",
          "type": "uint8"
        }
      ],
      "name": "getSkill",
      "outputs": [
        {
          "internalType": "uint256",
          "name": "",
          "type": "uint256"
        }
      ],
      "stateMutability": "pure",
      "type": "function"
    },
    {
      "inputs": [
        {
          "internalType": "uint256",
          "name": "encodedSkills",
          "type": "uint256"
        }
      ],
      "name": "getBirthDay",
      "outputs": [
        {
          "internalType": "uint256",
          "name": "",
          "type": "uint256"
        }
      ],
      "stateMutability": "pure",
      "type": "function"
    },
    {
      "inputs": [
        {
          "internalType": "uint256",
          "name": "encodedSkills",
          "type": "uint256"
        }
      ],
      "name": "getPlayerIdFromSkills",
      "outputs": [
        {
          "internalType": "uint256",
          "name": "",
          "type": "uint256"
        }
      ],
      "stateMutability": "pure",
      "type": "function"
    },
    {
      "inputs": [
        {
          "internalType": "uint256",
          "name": "encodedSkills",
          "type": "uint256"
        }
      ],
      "name": "getInternalPlayerId",
      "outputs": [
        {
          "internalType": "uint256",
          "name": "",
          "type": "uint256"
        }
      ],
      "stateMutability": "pure",
      "type": "function"
    },
    {
      "inputs": [
        {
          "internalType": "uint256",
          "name": "encodedSkills",
          "type": "uint256"
        }
      ],
      "name": "getPotential",
      "outputs": [
        {
          "internalType": "uint256",
          "name": "",
          "type": "uint256"
        }
      ],
      "stateMutability": "pure",
      "type": "function"
    },
    {
      "inputs": [
        {
          "internalType": "uint256",
          "name": "encodedSkills",
          "type": "uint256"
        }
      ],
      "name": "getForwardness",
      "outputs": [
        {
          "internalType": "uint256",
          "name": "",
          "type": "uint256"
        }
      ],
      "stateMutability": "pure",
      "type": "function"
    },
    {
      "inputs": [
        {
          "internalType": "uint256",
          "name": "encodedSkills",
          "type": "uint256"
        }
      ],
      "name": "getLeftishness",
      "outputs": [
        {
          "internalType": "uint256",
          "name": "",
          "type": "uint256"
        }
      ],
      "stateMutability": "pure",
      "type": "function"
    },
    {
      "inputs": [
        {
          "internalType": "uint256",
          "name": "encodedSkills",
          "type": "uint256"
        }
      ],
      "name": "getAggressiveness",
      "outputs": [
        {
          "internalType": "uint256",
          "name": "",
          "type": "uint256"
        }
      ],
      "stateMutability": "pure",
      "type": "function"
    },
    {
      "inputs": [
        {
          "internalType": "uint256",
          "name": "encodedSkills",
          "type": "uint256"
        }
      ],
      "name": "getAlignedEndOfFirstHalf",
      "outputs": [
        {
          "internalType": "bool",
          "name": "",
          "type": "bool"
        }
      ],
      "stateMutability": "pure",
      "type": "function"
    },
    {
      "inputs": [
        {
          "internalType": "uint256",
          "name": "encodedSkills",
          "type": "uint256"
        }
      ],
      "name": "getRedCardLastGame",
      "outputs": [
        {
          "internalType": "bool",
          "name": "",
          "type": "bool"
        }
      ],
      "stateMutability": "pure",
      "type": "function"
    },
    {
      "inputs": [
        {
          "internalType": "uint256",
          "name": "encodedSkills",
          "type": "uint256"
        }
      ],
      "name": "getGamesNonStopping",
      "outputs": [
        {
          "internalType": "uint8",
          "name": "",
          "type": "uint8"
        }
      ],
      "stateMutability": "pure",
      "type": "function"
    },
    {
      "inputs": [
        {
          "internalType": "uint256",
          "name": "encodedSkills",
          "type": "uint256"
        }
      ],
      "name": "getInjuryWeeksLeft",
      "outputs": [
        {
          "internalType": "uint8",
          "name": "",
          "type": "uint8"
        }
      ],
      "stateMutability": "pure",
      "type": "function"
    },
    {
      "inputs": [
        {
          "internalType": "uint256",
          "name": "encodedSkills",
          "type": "uint256"
        }
      ],
      "name": "getSubstitutedFirstHalf",
      "outputs": [
        {
          "internalType": "bool",
          "name": "",
          "type": "bool"
        }
      ],
      "stateMutability": "pure",
      "type": "function"
    },
    {
      "inputs": [
        {
          "internalType": "uint256",
          "name": "encodedSkills",
          "type": "uint256"
        }
      ],
      "name": "getSumOfSkills",
      "outputs": [
        {
          "internalType": "uint256",
          "name": "",
          "type": "uint256"
        }
      ],
      "stateMutability": "pure",
      "type": "function"
    },
    {
      "inputs": [
        {
          "internalType": "uint256",
          "name": "encodedSkills",
          "type": "uint256"
        }
      ],
      "name": "getIsSpecial",
      "outputs": [
        {
          "internalType": "bool",
          "name": "",
          "type": "bool"
        }
      ],
      "stateMutability": "pure",
      "type": "function"
    },
    {
      "inputs": [
        {
          "internalType": "uint256",
          "name": "encodedSkills",
          "type": "uint256"
        }
      ],
      "name": "getGeneration",
      "outputs": [
        {
          "internalType": "uint256",
          "name": "",
          "type": "uint256"
        }
      ],
      "stateMutability": "pure",
      "type": "function"
    },
    {
      "inputs": [
        {
          "internalType": "uint256",
          "name": "encodedSkills",
          "type": "uint256"
        }
      ],
      "name": "getOutOfGameFirstHalf",
      "outputs": [
        {
          "internalType": "bool",
          "name": "",
          "type": "bool"
        }
      ],
      "stateMutability": "pure",
      "type": "function"
    },
    {
      "inputs": [
        {
          "internalType": "uint256",
          "name": "encodedSkills",
          "type": "uint256"
        }
      ],
      "name": "getYellowCardFirstHalf",
      "outputs": [
        {
          "internalType": "bool",
          "name": "",
          "type": "bool"
        }
      ],
      "stateMutability": "pure",
      "type": "function"
    }
  ],
  "bytecode": "0x608060405234801561001057600080fd5b5061047e806100206000396000f3fe608060405234801561001057600080fd5b50600436106101165760003560e01c80637ffa3a2e116100a2578063d2f7967d11610071578063d2f7967d146102d9578063e37528bb146102f6578063e804e51914610313578063f2c3576414610330578063f2dc657f1461034d57610116565b80637ffa3a2e14610265578063c2bc41cd14610282578063cc7d473b1461029f578063d1b3d8fd146102bc57610116565b8063434807ad116100e9578063434807ad146101aa57806347524b60146101c757806356e3df97146101f85780636f6c2ae01461021557806379e765971461023257610116565b80631060c9c21461011b5780631fc7768f1461014a57806329d0dcfb146101675780633518dd1d1461018d575b600080fd5b6101386004803603602081101561013157600080fd5b503561036a565b60408051918252519081900360200190f35b6101386004803603602081101561016057600080fd5b5035610375565b6101386004803603604081101561017d57600080fd5b508035906020013560ff1661037e565b610138600480360360208110156101a357600080fd5b503561038d565b610138600480360360208110156101c057600080fd5b5035610396565b6101e4600480360360208110156101dd57600080fd5b503561039f565b604080519115158252519081900360200190f35b6101386004803603602081101561020e57600080fd5b50356103ab565b6101386004803603602081101561022b57600080fd5b50356103b4565b61024f6004803603602081101561024857600080fd5b50356103d9565b6040805160ff9092168252519081900360200190f35b6101e46004803603602081101561027b57600080fd5b50356103e2565b6101386004803603602081101561029857600080fd5b50356103ee565b6101e4600480360360208110156102b557600080fd5b50356103f7565b6101e4600480360360208110156102d257600080fd5b5035610403565b610138600480360360208110156102ef57600080fd5b503561040f565b6101e46004803603602081101561030c57600080fd5b503561041d565b61024f6004803603602081101561032957600080fd5b5035610429565b6101e46004803603602081101561034657600080fd5b5035610432565b6101386004803603602081101561036357600080fd5b503561043e565b60b51c6207ffff1690565b607e1c60071690565b60ff166014021c620fffff1690565b607b1c60071690565b60741c600f1690565b60cc1c60019081161490565b60cd1c60ff1690565b60006103bf8261039f565b6103d1576103cc8261040f565b6103d3565b815b92915050565b60b11c60071690565b60d61c60019081161490565b60781c60071690565b60ad1c60019081161490565b60d51c60019081161490565b60811c6507ffffffffff1690565b60b41c60019081161490565b60ae1c60071690565b60ac1c60019081161490565b60641c61ffff169056fea264697066735822122056fe4ccba4e70e962f8af0b52e75c84b594ab86df9ff446dfbd5d2c3e5c2f42e64736f6c63430006030033",
  "source": "pragma solidity >= 0.6.3;\n\n/**\n @title Getters for library to serialize/deserialize player skills\n @author Freeverse.io, www.freeverse.io\n*/\n\ncontract EncodingSkillsGetters {\n\n    function getSkill(uint256 encodedSkills, uint8 skillIdx) public pure returns (uint256) {\n        return (encodedSkills >> (uint256(skillIdx) * 20)) & 1048575; /// 1048575 = 2**20 - 1\n    }\n\n    function getBirthDay(uint256 encodedSkills) public pure returns (uint256) {\n        return (encodedSkills >> 100) & 65535;\n    }\n\n    function getPlayerIdFromSkills(uint256 encodedSkills) public pure returns (uint256) {\n        return (getIsSpecial(encodedSkills)) ? encodedSkills : getInternalPlayerId(encodedSkills);\n    }\n\n    function getInternalPlayerId(uint256 encodedSkills) public pure returns (uint256) {\n        return uint256(encodedSkills >> 129 & 8796093022207); /// 2**43 - 1 = 8796093022207\n    }\n\n    function getPotential(uint256 encodedSkills) public pure returns (uint256) {\n        return uint256(encodedSkills >> 116 & 15);\n    }\n\n    function getForwardness(uint256 encodedSkills) public pure returns (uint256) {\n        return uint256(encodedSkills >> 120 & 7);\n    }\n\n    function getLeftishness(uint256 encodedSkills) public pure returns (uint256) {\n        return uint256(encodedSkills >> 123 & 7);\n    }\n\n    function getAggressiveness(uint256 encodedSkills) public pure returns (uint256) {\n        return uint256(encodedSkills >> 126 & 7);\n    }\n\n    function getAlignedEndOfFirstHalf(uint256 encodedSkills) public pure returns (bool) {\n        return (encodedSkills >> 172 & 1) == 1;\n    }\n\n    function getRedCardLastGame(uint256 encodedSkills) public pure returns (bool) {\n        return (encodedSkills >> 173 & 1) == 1;\n    }\n\n    function getGamesNonStopping(uint256 encodedSkills) public pure returns (uint8) {\n        return uint8(encodedSkills >> 174 & 7);\n    }\n\n    function getInjuryWeeksLeft(uint256 encodedSkills) public pure returns (uint8) {\n        return uint8(encodedSkills >> 177 & 7);\n    }\n\n    function getSubstitutedFirstHalf(uint256 encodedSkills) public pure returns (bool) {\n        return (encodedSkills >> 180 & 1) == 1;\n    }\n\n    function getSumOfSkills(uint256 encodedSkills) public pure returns (uint256) {\n        return uint256(encodedSkills >> 181 & 524287); /// 2**19-1\n    }\n    \n    function getIsSpecial(uint256 encodedSkills) public pure returns (bool) {\n        return uint256(encodedSkills >> 204 & 1) == 1; \n    }\n     \n    function getGeneration(uint256 encodedSkills) public pure returns (uint256) {\n        return (encodedSkills >> 205) & 255;\n    }\n\n    function getOutOfGameFirstHalf(uint256 encodedSkills) public pure returns (bool) {\n        return uint256(encodedSkills >> 213 & 1) == 1; \n    }    \n    \n    function getYellowCardFirstHalf(uint256 encodedSkills) public pure returns (bool) {\n        return uint256(encodedSkills >> 214 & 1) == 1; \n    }\n}\n",
  "sourcePath": "/Users/jurgenkudla/proyects/laos/laos-goal-revolution/goalrev-ganache/contracts/encoders/EncodingSkillsGetters.sol",
  "compiler": {
    "name": "solc",
    "version": "0.6.3+commit.8dda9521.Emscripten.clang"
  },
  "schemaVersion": "3.0.23",
  "updatedAt": "2024-10-18T06:09:35.310Z",
  "devdoc": {
    "author": "Freeverse.io, www.freeverse.io",
    "methods": {},
    "title": "Getters for library to serialize/deserialize player skills"
  },
  "userdoc": {
    "methods": {}
  }
}