{
  "contractName": "EncodingTacticsBase1",
  "abi": [
    {
      "inputs": [],
      "name": "NO_SUBST",
      "outputs": [
        {
          "internalType": "uint8",
          "name": "",
          "type": "uint8"
        }
      ],
      "stateMutability": "view",
      "type": "function"
    },
    {
      "inputs": [
        {
          "internalType": "uint8[3]",
          "name": "substitutions",
          "type": "uint8[3]"
        },
        {
          "internalType": "uint8[3]",
          "name": "subsRounds",
          "type": "uint8[3]"
        },
        {
          "internalType": "uint8[14]",
          "name": "lineup",
          "type": "uint8[14]"
        },
        {
          "internalType": "bool[10]",
          "name": "extraAttack",
          "type": "bool[10]"
        },
        {
          "internalType": "uint8",
          "name": "tacticsId",
          "type": "uint8"
        }
      ],
      "name": "encodeTactics",
      "outputs": [
        {
          "internalType": "uint256",
          "name": "",
          "type": "uint256"
        }
      ],
      "stateMutability": "pure",
      "type": "function"
    }
  ],
  "bytecode": "0x608060405234801561001057600080fd5b506104d6806100206000396000f3fe608060405234801561001057600080fd5b50600436106100365760003560e01c80633c2330641461003b5780636f30b06f14610059575b600080fd5b610043610147565b6040805160ff9092168252519081900360200190f35b61013560048036036103e081101561007057600080fd5b8101908080606001906003806020026040519081016040528092919082600360200280828437600092019190915250506040805160608181019092529295949381810193925090600390839083908082843760009201919091525050604080516101c08181019092529295949381810193925090600e90839083908082843760009201919091525050604080516101408181019092529295949381810193925090600a90839083908082843760009201919091525091945050503560ff16905061014c565b60408051918252519081900360200190f35b600b81565b600060408260ff16106101a6576040805162461bcd60e51b815260206004820152601e60248201527f7461637469637349642073686f756c642066697420696e203634206269740000604482015290519081900360640190fd5b60ff821660005b600a8160ff1610156101f4578060060160ff16858260ff16600a81106101cf57fe5b60200201516101df5760006101e2565b60015b60ff16901b91909117906001016101ad565b5060005b600b8160ff1610156102995760198660ff8316600e811061021557fe5b602002015160ff161115610269576040805162461bcd60e51b8152602060048201526016602482015275696e636f7272656374206c696e65757020656e74727960501b604482015290519081900360640190fd5b8060050260100160ff16868260ff16600e811061028257fe5b602002015160ff16901b91909117906001016101f8565b5060005b60038160ff16101561046557600c888260ff16600381106102ba57fe5b602002015160ff161061030d576040805162461bcd60e51b8152602060048201526016602482015275696e636f7272656374206c696e65757020656e74727960501b604482015290519081900360640190fd5b600c878260ff166003811061031e57fe5b602002015160ff161061036a576040805162461bcd60e51b815260206004820152600f60248201526e1a5b98dbdc9c9958dd081c9bdd5b99608a1b604482015290519081900360640190fd5b600b8860ff83166003811061037b57fe5b602002015160ff1614156103e157601986600b830160ff16600e811061039d57fe5b602002015160ff16146103e15760405162461bcd60e51b81526004018080602001828103825260308152602001806104716030913960400191505060405180910390fd5b80600b0160050260100160ff168682600b0160ff16600e811061040057fe5b602002015160ff16901b821791508060040260560160ff16888260ff166003811061042757fe5b602002015160ff16901b821791508060040260620160ff16878260ff166003811061044e57fe5b602002015160ff16901b919091179060010161029d565b50969550505050505056fe696e636f7272656374206c696e65757020656e74727920666f72206e6f20737562737469747574656420706c61796572a2646970667358221220acd22c9ec9e52e79079d80e6457673b1cad829462542862ad9455e166de46f0064736f6c63430006030033",
  "source": "pragma solidity >= 0.6.3;\n\n/**\n @title Subset library to serialize/deserialize match tactics decided by users\n @author Freeverse.io, www.freeverse.io\n*/ \n \ncontract EncodingTacticsBase1 {\n\n    uint8 constant private PLAYERS_PER_TEAM_MAX  = 25;\n    uint8 constant public NO_SUBST = 11;\n    uint8 constant internal NO_LINEUP = PLAYERS_PER_TEAM_MAX; /// No player chosen in that position\n    ///  Leftishness:   0: 000, 1: 001, 2: 010, 3: 011, 4: 100, 5: 101, 6: 110, 7: 111\n    uint8 constant internal IDX_R = 1;\n    uint8 constant internal IDX_C = 2;\n    uint8 constant internal IDX_CR = 3;\n    uint8 constant internal IDX_L = 4;\n    uint8 constant internal IDX_LR = 5;\n    uint8 constant internal IDX_LC = 6;\n    uint8 constant internal IDX_LCR = 7;\n\n    function encodeTactics(\n        uint8[3] memory substitutions, \n        uint8[3] memory subsRounds, \n        uint8[14] memory lineup, \n        bool[10] memory extraAttack, \n        uint8 tacticsId\n    ) \n        public \n        pure \n        returns (uint256) \n    {\n        require(tacticsId < 64, \"tacticsId should fit in 64 bit\");\n        uint256 encoded = uint256(tacticsId);\n        for (uint8 p = 0; p < 10; p++) {\n            encoded |= uint256(extraAttack[p] ? 1 : 0) << 6 + p;\n        }          \n        for (uint8 p = 0; p < 11; p++) {\n            require(lineup[p] <= PLAYERS_PER_TEAM_MAX, \"incorrect lineup entry\");\n            encoded |= uint256(lineup[p]) << 16 + 5 * p;\n        }          \n        for (uint8 p = 0; p < 3; p++) {\n            require(substitutions[p] < 12, \"incorrect lineup entry\");\n            require(subsRounds[p] < 12, \"incorrect round\");\n            /// requirement: if there is no subst at \"i\", lineup[i + 11] = 25 + p (so that all lineups are different, and sortable)\n            if (substitutions[p] == NO_SUBST) {\n                require(lineup[p + 11] == NO_LINEUP, \"incorrect lineup entry for no substituted player\");\n            }\n            encoded |= uint256(lineup[p + 11]) << 16 + 5 * (p + 11);\n            encoded |= uint256(substitutions[p]) << 86 + 4 * p;\n            encoded |= uint256(subsRounds[p]) << 98 + 4 * p;\n        }          \n        return encoded;\n    }\n    \n}\n",
  "sourcePath": "/Users/jurgenkudla/proyects/laos/laos-goal-revolution/truffle-core/contracts/encoders/EncodingTacticsBase1.sol",
  "compiler": {
    "name": "solc",
    "version": "0.6.3+commit.8dda9521.Emscripten.clang"
  },
  "schemaVersion": "3.0.23",
  "updatedAt": "2024-10-16T06:02:47.843Z",
  "devdoc": {
    "author": "Freeverse.io, www.freeverse.io",
    "methods": {},
    "title": "Subset library to serialize/deserialize match tactics decided by users"
  },
  "userdoc": {
    "methods": {}
  }
}