{
  "contractName": "EncodingMatchLog",
  "abi": [
    {
      "inputs": [
        {
          "internalType": "uint256",
          "name": "log",
          "type": "uint256"
        },
        {
          "internalType": "uint8",
          "name": "player",
          "type": "uint8"
        },
        {
          "internalType": "uint8",
          "name": "pos",
          "type": "uint8"
        }
      ],
      "name": "addAssister",
      "outputs": [
        {
          "internalType": "uint256",
          "name": "",
          "type": "uint256"
        }
      ],
      "stateMutability": "pure",
      "type": "function"
    },
    {
      "inputs": [
        {
          "internalType": "uint256",
          "name": "log",
          "type": "uint256"
        },
        {
          "internalType": "uint8",
          "name": "player",
          "type": "uint8"
        },
        {
          "internalType": "uint8",
          "name": "pos",
          "type": "uint8"
        }
      ],
      "name": "addForwardPos",
      "outputs": [
        {
          "internalType": "uint256",
          "name": "",
          "type": "uint256"
        }
      ],
      "stateMutability": "pure",
      "type": "function"
    },
    {
      "inputs": [
        {
          "internalType": "uint256",
          "name": "log",
          "type": "uint256"
        },
        {
          "internalType": "uint8",
          "name": "player",
          "type": "uint8"
        },
        {
          "internalType": "uint8",
          "name": "pos",
          "type": "uint8"
        }
      ],
      "name": "addHalfTimeSubs",
      "outputs": [
        {
          "internalType": "uint256",
          "name": "",
          "type": "uint256"
        }
      ],
      "stateMutability": "pure",
      "type": "function"
    },
    {
      "inputs": [
        {
          "internalType": "uint256",
          "name": "log",
          "type": "uint256"
        },
        {
          "internalType": "uint8",
          "name": "nDefs",
          "type": "uint8"
        },
        {
          "internalType": "bool",
          "name": "is2ndHalf",
          "type": "bool"
        }
      ],
      "name": "addNGKAndDefs",
      "outputs": [
        {
          "internalType": "uint256",
          "name": "",
          "type": "uint256"
        }
      ],
      "stateMutability": "pure",
      "type": "function"
    },
    {
      "inputs": [
        {
          "internalType": "uint256",
          "name": "log",
          "type": "uint256"
        },
        {
          "internalType": "uint8",
          "name": "goals",
          "type": "uint8"
        }
      ],
      "name": "addNGoals",
      "outputs": [
        {
          "internalType": "uint256",
          "name": "",
          "type": "uint256"
        }
      ],
      "stateMutability": "pure",
      "type": "function"
    },
    {
      "inputs": [
        {
          "internalType": "uint256",
          "name": "log",
          "type": "uint256"
        },
        {
          "internalType": "uint8",
          "name": "nTot",
          "type": "uint8"
        },
        {
          "internalType": "bool",
          "name": "is2ndHalf",
          "type": "bool"
        }
      ],
      "name": "addNTot",
      "outputs": [
        {
          "internalType": "uint256",
          "name": "",
          "type": "uint256"
        }
      ],
      "stateMutability": "pure",
      "type": "function"
    },
    {
      "inputs": [
        {
          "internalType": "uint256",
          "name": "log",
          "type": "uint256"
        },
        {
          "internalType": "uint8",
          "name": "pos",
          "type": "uint8"
        }
      ],
      "name": "addScoredPenalty",
      "outputs": [
        {
          "internalType": "uint256",
          "name": "",
          "type": "uint256"
        }
      ],
      "stateMutability": "pure",
      "type": "function"
    },
    {
      "inputs": [
        {
          "internalType": "uint256",
          "name": "log",
          "type": "uint256"
        },
        {
          "internalType": "uint8",
          "name": "player",
          "type": "uint8"
        },
        {
          "internalType": "uint8",
          "name": "pos",
          "type": "uint8"
        }
      ],
      "name": "addShooter",
      "outputs": [
        {
          "internalType": "uint256",
          "name": "",
          "type": "uint256"
        }
      ],
      "stateMutability": "pure",
      "type": "function"
    },
    {
      "inputs": [
        {
          "internalType": "uint256",
          "name": "log",
          "type": "uint256"
        },
        {
          "internalType": "uint256",
          "name": "extraSumSkills",
          "type": "uint256"
        }
      ],
      "name": "addTeamSumSkills",
      "outputs": [
        {
          "internalType": "uint256",
          "name": "",
          "type": "uint256"
        }
      ],
      "stateMutability": "pure",
      "type": "function"
    },
    {
      "inputs": [
        {
          "internalType": "uint256",
          "name": "log",
          "type": "uint256"
        },
        {
          "internalType": "uint256",
          "name": "points",
          "type": "uint256"
        }
      ],
      "name": "addTrainingPoints",
      "outputs": [
        {
          "internalType": "uint256",
          "name": "",
          "type": "uint256"
        }
      ],
      "stateMutability": "pure",
      "type": "function"
    },
    {
      "inputs": [
        {
          "internalType": "uint256",
          "name": "log",
          "type": "uint256"
        },
        {
          "internalType": "uint8",
          "name": "winner",
          "type": "uint8"
        }
      ],
      "name": "addWinner",
      "outputs": [
        {
          "internalType": "uint256",
          "name": "",
          "type": "uint256"
        }
      ],
      "stateMutability": "pure",
      "type": "function"
    },
    {
      "inputs": [
        {
          "internalType": "uint256[2]",
          "name": "logs",
          "type": "uint256[2]"
        },
        {
          "internalType": "uint8",
          "name": "winner",
          "type": "uint8"
        }
      ],
      "name": "addWinnerToBothLogs",
      "outputs": [
        {
          "internalType": "uint256[2]",
          "name": "",
          "type": "uint256[2]"
        }
      ],
      "stateMutability": "pure",
      "type": "function"
    },
    {
      "inputs": [
        {
          "internalType": "uint256",
          "name": "log",
          "type": "uint256"
        },
        {
          "internalType": "uint8",
          "name": "player",
          "type": "uint8"
        },
        {
          "internalType": "uint8",
          "name": "posInHaf",
          "type": "uint8"
        },
        {
          "internalType": "bool",
          "name": "is2ndHalf",
          "type": "bool"
        }
      ],
      "name": "addYellowCard",
      "outputs": [
        {
          "internalType": "uint256",
          "name": "",
          "type": "uint256"
        }
      ],
      "stateMutability": "pure",
      "type": "function"
    },
    {
      "inputs": [
        {
          "internalType": "uint256",
          "name": "log",
          "type": "uint256"
        },
        {
          "internalType": "uint8",
          "name": "pos",
          "type": "uint8"
        }
      ],
      "name": "getAssister",
      "outputs": [
        {
          "internalType": "uint8",
          "name": "",
          "type": "uint8"
        }
      ],
      "stateMutability": "pure",
      "type": "function"
    },
    {
      "inputs": [
        {
          "internalType": "uint256",
          "name": "log",
          "type": "uint256"
        }
      ],
      "name": "getChangesAtHalfTime",
      "outputs": [
        {
          "internalType": "uint8",
          "name": "nChanges",
          "type": "uint8"
        }
      ],
      "stateMutability": "pure",
      "type": "function"
    },
    {
      "inputs": [
        {
          "internalType": "uint256",
          "name": "log",
          "type": "uint256"
        },
        {
          "internalType": "uint8",
          "name": "pos",
          "type": "uint8"
        }
      ],
      "name": "getForwardPos",
      "outputs": [
        {
          "internalType": "uint8",
          "name": "",
          "type": "uint8"
        }
      ],
      "stateMutability": "pure",
      "type": "function"
    },
    {
      "inputs": [
        {
          "internalType": "uint256",
          "name": "log",
          "type": "uint256"
        },
        {
          "internalType": "uint8",
          "name": "pos",
          "type": "uint8"
        }
      ],
      "name": "getHalfTimeSubs",
      "outputs": [
        {
          "internalType": "uint8",
          "name": "",
          "type": "uint8"
        }
      ],
      "stateMutability": "pure",
      "type": "function"
    },
    {
      "inputs": [
        {
          "internalType": "uint256",
          "name": "log",
          "type": "uint256"
        },
        {
          "internalType": "uint8",
          "name": "posInHalf",
          "type": "uint8"
        },
        {
          "internalType": "bool",
          "name": "is2ndHalf",
          "type": "bool"
        }
      ],
      "name": "getInGameSubsHappened",
      "outputs": [
        {
          "internalType": "uint8",
          "name": "",
          "type": "uint8"
        }
      ],
      "stateMutability": "pure",
      "type": "function"
    },
    {
      "inputs": [
        {
          "internalType": "uint256",
          "name": "log",
          "type": "uint256"
        }
      ],
      "name": "getIsCancelled",
      "outputs": [
        {
          "internalType": "bool",
          "name": "",
          "type": "bool"
        }
      ],
      "stateMutability": "pure",
      "type": "function"
    },
    {
      "inputs": [
        {
          "internalType": "uint256",
          "name": "log",
          "type": "uint256"
        }
      ],
      "name": "getIsHomeStadium",
      "outputs": [
        {
          "internalType": "bool",
          "name": "",
          "type": "bool"
        }
      ],
      "stateMutability": "pure",
      "type": "function"
    },
    {
      "inputs": [
        {
          "internalType": "uint256",
          "name": "log",
          "type": "uint256"
        },
        {
          "internalType": "bool",
          "name": "is2ndHalf",
          "type": "bool"
        }
      ],
      "name": "getNGKAndDefs",
      "outputs": [
        {
          "internalType": "uint8",
          "name": "",
          "type": "uint8"
        }
      ],
      "stateMutability": "pure",
      "type": "function"
    },
    {
      "inputs": [
        {
          "internalType": "uint256",
          "name": "log",
          "type": "uint256"
        }
      ],
      "name": "getNGoals",
      "outputs": [
        {
          "internalType": "uint8",
          "name": "",
          "type": "uint8"
        }
      ],
      "stateMutability": "pure",
      "type": "function"
    },
    {
      "inputs": [
        {
          "internalType": "uint256",
          "name": "log",
          "type": "uint256"
        },
        {
          "internalType": "bool",
          "name": "is2ndHalf",
          "type": "bool"
        }
      ],
      "name": "getNTot",
      "outputs": [
        {
          "internalType": "uint8",
          "name": "",
          "type": "uint8"
        }
      ],
      "stateMutability": "pure",
      "type": "function"
    },
    {
      "inputs": [
        {
          "internalType": "uint256",
          "name": "log",
          "type": "uint256"
        },
        {
          "internalType": "bool",
          "name": "is2ndHalf",
          "type": "bool"
        }
      ],
      "name": "getOutOfGamePlayer",
      "outputs": [
        {
          "internalType": "uint256",
          "name": "",
          "type": "uint256"
        }
      ],
      "stateMutability": "pure",
      "type": "function"
    },
    {
      "inputs": [
        {
          "internalType": "uint256",
          "name": "log",
          "type": "uint256"
        },
        {
          "internalType": "bool",
          "name": "is2ndHalf",
          "type": "bool"
        }
      ],
      "name": "getOutOfGameRound",
      "outputs": [
        {
          "internalType": "uint256",
          "name": "",
          "type": "uint256"
        }
      ],
      "stateMutability": "pure",
      "type": "function"
    },
    {
      "inputs": [
        {
          "internalType": "uint256",
          "name": "log",
          "type": "uint256"
        },
        {
          "internalType": "bool",
          "name": "is2ndHalf",
          "type": "bool"
        }
      ],
      "name": "getOutOfGameType",
      "outputs": [
        {
          "internalType": "uint256",
          "name": "",
          "type": "uint256"
        }
      ],
      "stateMutability": "pure",
      "type": "function"
    },
    {
      "inputs": [
        {
          "internalType": "uint256",
          "name": "log",
          "type": "uint256"
        },
        {
          "internalType": "uint8",
          "name": "pos",
          "type": "uint8"
        }
      ],
      "name": "getPenalty",
      "outputs": [
        {
          "internalType": "bool",
          "name": "",
          "type": "bool"
        }
      ],
      "stateMutability": "pure",
      "type": "function"
    },
    {
      "inputs": [
        {
          "internalType": "uint256",
          "name": "log",
          "type": "uint256"
        },
        {
          "internalType": "uint8",
          "name": "pos",
          "type": "uint8"
        }
      ],
      "name": "getShooter",
      "outputs": [
        {
          "internalType": "uint8",
          "name": "",
          "type": "uint8"
        }
      ],
      "stateMutability": "pure",
      "type": "function"
    },
    {
      "inputs": [
        {
          "internalType": "uint256",
          "name": "log",
          "type": "uint256"
        }
      ],
      "name": "getTeamSumSkills",
      "outputs": [
        {
          "internalType": "uint256",
          "name": "",
          "type": "uint256"
        }
      ],
      "stateMutability": "pure",
      "type": "function"
    },
    {
      "inputs": [
        {
          "internalType": "uint256",
          "name": "log",
          "type": "uint256"
        }
      ],
      "name": "getTrainingPoints",
      "outputs": [
        {
          "internalType": "uint16",
          "name": "",
          "type": "uint16"
        }
      ],
      "stateMutability": "pure",
      "type": "function"
    },
    {
      "inputs": [
        {
          "internalType": "uint256",
          "name": "log",
          "type": "uint256"
        }
      ],
      "name": "getWinner",
      "outputs": [
        {
          "internalType": "uint8",
          "name": "",
          "type": "uint8"
        }
      ],
      "stateMutability": "pure",
      "type": "function"
    },
    {
      "inputs": [
        {
          "internalType": "uint256",
          "name": "log",
          "type": "uint256"
        },
        {
          "internalType": "uint8",
          "name": "posInHaf",
          "type": "uint8"
        },
        {
          "internalType": "bool",
          "name": "is2ndHalf",
          "type": "bool"
        }
      ],
      "name": "getYellowCard",
      "outputs": [
        {
          "internalType": "uint8",
          "name": "",
          "type": "uint8"
        }
      ],
      "stateMutability": "pure",
      "type": "function"
    },
    {
      "inputs": [
        {
          "internalType": "uint256",
          "name": "log",
          "type": "uint256"
        },
        {
          "internalType": "uint8",
          "name": "nChanges",
          "type": "uint8"
        }
      ],
      "name": "setChangesAtHalfTime",
      "outputs": [
        {
          "internalType": "uint256",
          "name": "",
          "type": "uint256"
        }
      ],
      "stateMutability": "pure",
      "type": "function"
    },
    {
      "inputs": [
        {
          "internalType": "uint256",
          "name": "log",
          "type": "uint256"
        },
        {
          "internalType": "uint8",
          "name": "happenedType",
          "type": "uint8"
        },
        {
          "internalType": "uint8",
          "name": "posInHalf",
          "type": "uint8"
        },
        {
          "internalType": "bool",
          "name": "is2ndHalf",
          "type": "bool"
        }
      ],
      "name": "setInGameSubsHappened",
      "outputs": [
        {
          "internalType": "uint256",
          "name": "",
          "type": "uint256"
        }
      ],
      "stateMutability": "pure",
      "type": "function"
    },
    {
      "inputs": [
        {
          "internalType": "uint256",
          "name": "log",
          "type": "uint256"
        },
        {
          "internalType": "bool",
          "name": "val",
          "type": "bool"
        }
      ],
      "name": "setIsCancelled",
      "outputs": [
        {
          "internalType": "uint256",
          "name": "",
          "type": "uint256"
        }
      ],
      "stateMutability": "pure",
      "type": "function"
    },
    {
      "inputs": [
        {
          "internalType": "uint256",
          "name": "log",
          "type": "uint256"
        },
        {
          "internalType": "bool",
          "name": "val",
          "type": "bool"
        }
      ],
      "name": "setIsHomeStadium",
      "outputs": [
        {
          "internalType": "uint256",
          "name": "",
          "type": "uint256"
        }
      ],
      "stateMutability": "pure",
      "type": "function"
    },
    {
      "inputs": [
        {
          "internalType": "uint256",
          "name": "log",
          "type": "uint256"
        },
        {
          "internalType": "uint8",
          "name": "player",
          "type": "uint8"
        },
        {
          "internalType": "uint8",
          "name": "round",
          "type": "uint8"
        },
        {
          "internalType": "uint8",
          "name": "typeOfOutOfGame",
          "type": "uint8"
        },
        {
          "internalType": "bool",
          "name": "is2ndHalf",
          "type": "bool"
        }
      ],
      "name": "setOutOfGame",
      "outputs": [
        {
          "internalType": "uint256",
          "name": "",
          "type": "uint256"
        }
      ],
      "stateMutability": "pure",
      "type": "function"
    }
  ],
  "bytecode": "0x608060405234801561001057600080fd5b50610cdf806100206000396000f3fe608060405234801561001057600080fd5b50600436106102275760003560e01c80637d3921cd11610130578063b2a04256116100b8578063ce9681641161007c578063ce968164146107c6578063d5a4d6c0146107fa578063eed314281461081f578063f0789df614610844578063f81c7a451461086a57610227565b8063b2a04256146106e9578063ba8dfa4614610727578063bf8bf71914610744578063c648185514610772578063cbbfac661461079857610227565b80639e8530ff116100ff5780639e8530ff1461061c5780639f7d3b7f14610641578063a7d0238a14610667578063ae59df9d14610695578063b1c2c8a3146106bb57610227565b80637d3921cd14610587578063919e2762146105a4578063989aa222146105dc57806399dfedb4146105ff57610227565b8063494dd3f4116101b35780635bdc6b58116101825780635bdc6b58146104c557806362233045146104f3578063658d2da514610516578063754b7cf41461053357806376f96f421461055957610227565b8063494dd3f41461041e5780634c0b044a146104435780634cc3e34f146104715780635ac78b111461049757610227565b80631d1e84de116101fa5780631d1e84de146102f15780632a3328f61461032d5780632eb7cfa71461035257806335b6ab7a146103db5780634129b2c91461040157610227565b80630ae78a391461022c5780630f14aef414610276578063185e456f1461029b578063190e5f8c146102c0575b600080fd5b6102646004803603608081101561024257600080fd5b5080359060ff6020820135811691604081013590911690606001351515610890565b60408051918252519081900360200190f35b6102646004803603604081101561028c57600080fd5b508035906020013515156108cd565b610264600480360360408110156102b157600080fd5b508035906020013515156108f7565b6102dd600480360360208110156102d657600080fd5b5035610921565b604080519115158252519081900360200190f35b6103176004803603604081101561030757600080fd5b508035906020013560ff1661092d565b6040805160ff9092168252519081900360200190f35b6102646004803603604081101561034357600080fd5b5080359060200135151561093d565b6103a06004803603606081101561036857600080fd5b6040805180820182529183019291818301918390600290839083908082843760009201919091525091945050503560ff169050610960565b6040518082600260200280838360005b838110156103c85781810151838201526020016103b0565b5050505090500191505060405180910390f35b6102dd600480360360408110156103f157600080fd5b508035906020013560ff1661099e565b6103176004803603602081101561041757600080fd5b50356109ae565b6102646004803603604081101561043457600080fd5b508035906020013515156109b7565b6102646004803603606081101561045957600080fd5b5080359060ff602082013516906040013515156109e1565b6102646004803603604081101561048757600080fd5b508035906020013560ff16610a09565b610264600480360360608110156104ad57600080fd5b5080359060ff60208201358116916040013516610a19565b610317600480360360608110156104db57600080fd5b5080359060ff60208201351690604001351515610a2e565b6102646004803603604081101561050957600080fd5b5080359060200135610a5e565b6102dd6004803603602081101561052c57600080fd5b5035610a65565b6103176004803603604081101561054957600080fd5b508035906020013560ff16610a71565b6102646004803603606081101561056f57600080fd5b5080359060ff60208201358116916040013516610a81565b6103176004803603602081101561059d57600080fd5b5035610a97565b610264600480360360808110156105ba57600080fd5b5080359060ff6020820135811691604081013590911690606001351515610a9d565b610264600480360360408110156105f257600080fd5b5080359060200135610acb565b6102646004803603602081101561061557600080fd5b5035610ad2565b6103176004803603604081101561063257600080fd5b50803590602001351515610add565b6102646004803603604081101561065757600080fd5b508035906020013560ff16610b05565b6102646004803603606081101561067d57600080fd5b5080359060ff60208201358116916040013516610b12565b610317600480360360408110156106ab57600080fd5b508035906020013560ff16610b28565b610317600480360360608110156106d157600080fd5b5080359060ff60208201351690604001351515610b38565b610264600480360360a08110156106ff57600080fd5b5080359060ff6020820135811691604081013582169160608201351690608001351515610b65565b6103176004803603602081101561073d57600080fd5b5035610bb8565b6102646004803603606081101561075a57600080fd5b5080359060ff60208201351690604001351515610bc1565b6102646004803603604081101561078857600080fd5b508035906020013560ff16610bec565b610264600480360360608110156107ae57600080fd5b5080359060ff60208201358116916040013516610c05565b6107e3600480360360208110156107dc57600080fd5b5035610c1b565b6040805161ffff9092168252519081900360200190f35b6102646004803603604081101561081057600080fd5b50803590602001351515610c25565b6103176004803603604081101561083557600080fd5b50803590602001351515610c4f565b6103176004803603604081101561085a57600080fd5b508035906020013560ff16610c74565b6102646004803603604081101561088057600080fd5b508035906020013560ff16610c84565b6000808261089f5760006108a2565b60035b840160020260a70190508060ff168560ff16901b8160ff166003901b19871617915050949350505050565b600060fb826108dd5760006108e0565b60015b60ff16901b60fb6001901b19841617905092915050565b600060f88261090757600061090a565b60015b60ff16901b60f86001901b19841617905092915050565b60f81c60019081161490565b60040260340160ff161c600f1690565b6000808261094c57608361094f565b608d5b60ff169390931c600f169392505050565b610968610c8b565b60408051808201909152806109858560005b602002015185610b05565b815260200161099585600161097a565b90529392505050565b607c0160ff161c60019081161490565b60d21c60031690565b600080826109c65760836109c9565b608d5b90508060040160ff1684901c60031691505092915050565b6000816109ef5760006109f2565b60045b60ca0160ff168360ff16901b841790509392505050565b6001607c9190910160ff161b1790565b60ff91821660049182029091019091161b1790565b60008082610a3d576000610a40565b60035b840160020260a70190508060ff1685901c6003169150509392505050565b60ec1b1790565b60fb1c60019081161490565b60050260b30160ff161c601f1690565b60ff91821660059190910260b3019091161b1790565b600f1690565b6000808360040283610ab0576097610ab3565b609f5b60ff87811692909101161b8617915050949350505050565b60d41b1790565b60d41c62ffffff1690565b600081610aeb576000610aee565b60015b60040260c20160ff1683901c600f16905092915050565b60d21b60ff60d21b161790565b60ff9182166004919091026034019091161b1790565b60020260640160ff161c60031690565b6000808360040283610b4b576097610b4e565b609f5b0190508060ff1685901c600f169150509392505050565b60008082610b74576083610b77565b608d5b60ff8581166004830182161b88821682841690811b6103ff90911b199a909a169990991798909817978681166006909201161b871791505095945050505050565b60f91c60031690565b600081610bcf576000610bd2565b60015b60040260c20160ff168360ff16901b841790509392505050565b60f91b607f60f91b166001607d60f91b03919091161790565b60ff9182166002919091026064019091161b1790565b60ec1c610fff1690565b60008082610c34576083610c37565b608d5b90508060060160ff1684901c600f1691505092915050565b600081610c5d576000610c60565b60045b60ca0160ff1683901c600f16905092915050565b60049081020160ff161c600f1690565b60ff160190565b6040518060400160405280600290602082028036833750919291505056fea26469706673582212206d00875c60977465e167d3b7d48b867b69012ecfc1f4e8892d822fa372aa42f364736f6c63430006030033",
  "source": "pragma solidity >= 0.6.3;\n\nimport \"../encoders/EncodingMatchLogBase1.sol\";\nimport \"./EncodingMatchLogBase2.sol\";\nimport \"../encoders/EncodingMatchLogBase3.sol\";\n\n/**\n @title Library of pure functions to serialize matchLogs\n @author Freeverse.io, www.freeverse.io\n @dev Matchlog contain all the info determined in a given match\n @dev Due to contract-too-large-to-deploy, these functions had to be split Base1,..., Base4\n @dev so that each contract only inherits the subset truly required\n @dev note the difference in naming of functions addX vs setX\n @dev addX: adds to previous value, setX: replaces previous value\n*/\n\n/**\n Here is the full spec of this serialization:\n\n MAX_GOALS = ROUNDS_PER_MATCH = 12,  NO_OUT_OF_GAME_PLAYER = 14\n \n uint8 nGoals,  4b, offset 0 \n uint8 assister[MAX_GOALS], 4b each, offset 4\n uint8 shooter[MAX_GOALS], 4b each, offset 52\n uint8 forwardPos[MAX_GOALS], 2b each, offset 100 (forward pos of shooter)\n bool[7] memory penalties, 1b each, offset 124\n\n uint8[2] memory outOfGamePlayer 4b each, offset 141:131\n    an int between [0, 13], 14 = NOTHING HAPPENED       \n uint8[2] memory outOfGameType, 2b each, offset 141:131 + 4\n uint8[2] memory outOfGameRounds, 4b each, offset 141:131 + 6 \n    null:  0 (cannot return null if outOfGamePlayer != NO_OUT_OF_GAME_PLAYER)\n    injuryHard:  1\n    injuryLow:   2\n    redCard:     3\n\n uint8[4] memory yellowCards, 4b each,  first 2 for first half, other for half 2, offset 159:151\n uint8[6] memory ingameSubsHappened,  2b each, offset 167\n    the first 3 for half 1, the other for half 2.\n    0: no change required, 1: change happened, 2: change could not happen, cancelled.  \n uint8[3] memory halfTimeSubstitutions,  5b each, offset 179\n    0 means no subs, and we store here lineUp[p]+1 (where lineUp[p] = player shirt in the 25 that was substituted)\n\n nDefs[2], 4b each, offset 194\n NTotHalf[2], 4b offset 202\n winner, 2b, winner: 0 = home, 1 = away, 2 = draw, offset 210      \n teamSumSkills: 24b  offset 212\n trainingPoints, 12b, offset 236\n bool isHomeStadium,  1b each, offset 248\n changesAtHalftime, 2b, offset 249\n bool isCancelled, 1b, offset 251\n*/\n\ncontract EncodingMatchLog is EncodingMatchLogBase1, EncodingMatchLogBase2, EncodingMatchLogBase3 {\n\n}\n",
  "sourcePath": "/Users/jurgenkudla/proyects/laos/laos-goal-revolution/truffle-core/contracts/encoders/EncodingMatchLog.sol",
  "compiler": {
    "name": "solc",
    "version": "0.6.3+commit.8dda9521.Emscripten.clang"
  },
  "schemaVersion": "3.0.23",
  "updatedAt": "2024-10-16T06:02:47.819Z",
  "devdoc": {
    "methods": {}
  },
  "userdoc": {
    "methods": {
      "addHalfTimeSubs(uint256,uint8,uint8)": {
        "notice": "recall that 0 means no subs, and we store here lineUp[p]+1 (where lineUp[p] = player shirt in the 25 that was substituted)"
      },
      "getHalfTimeSubs(uint256,uint8)": {
        "notice": "recall that 0 means no subs, and we store here p+1 (where p = player in the starting 11 that was substituted)"
      }
    },
    "notice": "Here is the full spec of this serialization: MAX_GOALS = ROUNDS_PER_MATCH = 12,  NO_OUT_OF_GAME_PLAYER = 14 uint8 nGoals,  4b, offset 0  uint8 assister[MAX_GOALS], 4b each, offset 4 uint8 shooter[MAX_GOALS], 4b each, offset 52 uint8 forwardPos[MAX_GOALS], 2b each, offset 100 (forward pos of shooter) bool[7] memory penalties, 1b each, offset 124 uint8[2] memory outOfGamePlayer 4b each, offset 141:131 an int between [0, 13], 14 = NOTHING HAPPENED        uint8[2] memory outOfGameType, 2b each, offset 141:131 + 4 uint8[2] memory outOfGameRounds, 4b each, offset 141:131 + 6  null:  0 (cannot return null if outOfGamePlayer != NO_OUT_OF_GAME_PLAYER) injuryHard:  1 injuryLow:   2 redCard:     3 uint8[4] memory yellowCards, 4b each,  first 2 for first half, other for half 2, offset 159:151 uint8[6] memory ingameSubsHappened,  2b each, offset 167 the first 3 for half 1, the other for half 2. 0: no change required, 1: change happened, 2: change could not happen, cancelled.   uint8[3] memory halfTimeSubstitutions,  5b each, offset 179 0 means no subs, and we store here lineUp[p]+1 (where lineUp[p] = player shirt in the 25 that was substituted) nDefs[2], 4b each, offset 194 NTotHalf[2], 4b offset 202 winner, 2b, winner: 0 = home, 1 = away, 2 = draw, offset 210       teamSumSkills: 24b  offset 212 trainingPoints, 12b, offset 236 bool isHomeStadium,  1b each, offset 248 changesAtHalftime, 2b, offset 249 bool isCancelled, 1b, offset 251"
  }
}