{
  "contractName": "EncodingMatchLogBase3",
  "abi": [
    {
      "inputs": [
        {
          "internalType": "uint256",
          "name": "log",
          "type": "uint256"
        }
      ],
      "name": "getChangesAtHalfTime",
      "outputs": [
        {
          "internalType": "uint8",
          "name": "nChanges",
          "type": "uint8"
        }
      ],
      "stateMutability": "pure",
      "type": "function"
    },
    {
      "inputs": [
        {
          "internalType": "uint256",
          "name": "log",
          "type": "uint256"
        },
        {
          "internalType": "uint8",
          "name": "posInHalf",
          "type": "uint8"
        },
        {
          "internalType": "bool",
          "name": "is2ndHalf",
          "type": "bool"
        }
      ],
      "name": "getInGameSubsHappened",
      "outputs": [
        {
          "internalType": "uint8",
          "name": "",
          "type": "uint8"
        }
      ],
      "stateMutability": "pure",
      "type": "function"
    },
    {
      "inputs": [
        {
          "internalType": "uint256",
          "name": "log",
          "type": "uint256"
        },
        {
          "internalType": "uint8",
          "name": "nChanges",
          "type": "uint8"
        }
      ],
      "name": "setChangesAtHalfTime",
      "outputs": [
        {
          "internalType": "uint256",
          "name": "",
          "type": "uint256"
        }
      ],
      "stateMutability": "pure",
      "type": "function"
    },
    {
      "inputs": [
        {
          "internalType": "uint256",
          "name": "log",
          "type": "uint256"
        },
        {
          "internalType": "uint8",
          "name": "player",
          "type": "uint8"
        },
        {
          "internalType": "uint8",
          "name": "pos",
          "type": "uint8"
        }
      ],
      "name": "addAssister",
      "outputs": [
        {
          "internalType": "uint256",
          "name": "",
          "type": "uint256"
        }
      ],
      "stateMutability": "pure",
      "type": "function"
    },
    {
      "inputs": [
        {
          "internalType": "uint256",
          "name": "log",
          "type": "uint256"
        },
        {
          "internalType": "uint8",
          "name": "player",
          "type": "uint8"
        },
        {
          "internalType": "uint8",
          "name": "pos",
          "type": "uint8"
        }
      ],
      "name": "addShooter",
      "outputs": [
        {
          "internalType": "uint256",
          "name": "",
          "type": "uint256"
        }
      ],
      "stateMutability": "pure",
      "type": "function"
    },
    {
      "inputs": [
        {
          "internalType": "uint256",
          "name": "log",
          "type": "uint256"
        },
        {
          "internalType": "uint8",
          "name": "player",
          "type": "uint8"
        },
        {
          "internalType": "uint8",
          "name": "pos",
          "type": "uint8"
        }
      ],
      "name": "addForwardPos",
      "outputs": [
        {
          "internalType": "uint256",
          "name": "",
          "type": "uint256"
        }
      ],
      "stateMutability": "pure",
      "type": "function"
    },
    {
      "inputs": [
        {
          "internalType": "uint256",
          "name": "log",
          "type": "uint256"
        }
      ],
      "name": "getNGoals",
      "outputs": [
        {
          "internalType": "uint8",
          "name": "",
          "type": "uint8"
        }
      ],
      "stateMutability": "pure",
      "type": "function"
    },
    {
      "inputs": [
        {
          "internalType": "uint256[2]",
          "name": "logs",
          "type": "uint256[2]"
        },
        {
          "internalType": "uint8",
          "name": "winner",
          "type": "uint8"
        }
      ],
      "name": "addWinnerToBothLogs",
      "outputs": [
        {
          "internalType": "uint256[2]",
          "name": "",
          "type": "uint256[2]"
        }
      ],
      "stateMutability": "pure",
      "type": "function"
    },
    {
      "inputs": [
        {
          "internalType": "uint256",
          "name": "log",
          "type": "uint256"
        },
        {
          "internalType": "uint8",
          "name": "winner",
          "type": "uint8"
        }
      ],
      "name": "addWinner",
      "outputs": [
        {
          "internalType": "uint256",
          "name": "",
          "type": "uint256"
        }
      ],
      "stateMutability": "pure",
      "type": "function"
    },
    {
      "inputs": [
        {
          "internalType": "uint256",
          "name": "log",
          "type": "uint256"
        },
        {
          "internalType": "uint8",
          "name": "nDefs",
          "type": "uint8"
        },
        {
          "internalType": "bool",
          "name": "is2ndHalf",
          "type": "bool"
        }
      ],
      "name": "addNGKAndDefs",
      "outputs": [
        {
          "internalType": "uint256",
          "name": "",
          "type": "uint256"
        }
      ],
      "stateMutability": "pure",
      "type": "function"
    },
    {
      "inputs": [
        {
          "internalType": "uint256",
          "name": "log",
          "type": "uint256"
        },
        {
          "internalType": "bool",
          "name": "val",
          "type": "bool"
        }
      ],
      "name": "setIsHomeStadium",
      "outputs": [
        {
          "internalType": "uint256",
          "name": "",
          "type": "uint256"
        }
      ],
      "stateMutability": "pure",
      "type": "function"
    },
    {
      "inputs": [
        {
          "internalType": "uint256",
          "name": "log",
          "type": "uint256"
        },
        {
          "internalType": "bool",
          "name": "val",
          "type": "bool"
        }
      ],
      "name": "setIsCancelled",
      "outputs": [
        {
          "internalType": "uint256",
          "name": "",
          "type": "uint256"
        }
      ],
      "stateMutability": "pure",
      "type": "function"
    },
    {
      "inputs": [
        {
          "internalType": "uint256",
          "name": "log",
          "type": "uint256"
        }
      ],
      "name": "getIsCancelled",
      "outputs": [
        {
          "internalType": "bool",
          "name": "",
          "type": "bool"
        }
      ],
      "stateMutability": "pure",
      "type": "function"
    }
  ],
  "bytecode": "0x608060405234801561001057600080fd5b5061052f806100206000396000f3fe608060405234801561001057600080fd5b50600436106100cf5760003560e01c80637d3921cd1161008c578063ba8dfa4611610066578063ba8dfa46146102cd578063bf8bf719146102ea578063c648185514610318578063cbbfac661461033e576100cf565b80637d3921cd1461025c5780639f7d3b7f14610279578063a7d0238a1461029f576100cf565b80630f14aef4146100d4578063185e456f1461010b5780632eb7cfa7146101305780635ac78b11146101b95780635bdc6b58146101e7578063658d2da51461022b575b600080fd5b6100f9600480360360408110156100ea57600080fd5b5080359060200135151561036c565b60408051918252519081900360200190f35b6100f96004803603604081101561012157600080fd5b50803590602001351515610396565b61017e6004803603606081101561014657600080fd5b6040805180820182529183019291818301918390600290839083908082843760009201919091525091945050503560ff1690506103c0565b6040518082600260200280838360005b838110156101a657818101518382015260200161018e565b5050505090500191505060405180910390f35b6100f9600480360360608110156101cf57600080fd5b5080359060ff602082013581169160400135166103fe565b610215600480360360608110156101fd57600080fd5b5080359060ff60208201351690604001351515610413565b6040805160ff9092168252519081900360200190f35b6102486004803603602081101561024157600080fd5b5035610443565b604080519115158252519081900360200190f35b6102156004803603602081101561027257600080fd5b503561044f565b6100f96004803603604081101561028f57600080fd5b508035906020013560ff16610455565b6100f9600480360360608110156102b557600080fd5b5080359060ff60208201358116916040013516610462565b610215600480360360208110156102e357600080fd5b5035610478565b6100f96004803603606081101561030057600080fd5b5080359060ff60208201351690604001351515610481565b6100f96004803603604081101561032e57600080fd5b508035906020013560ff166104ac565b6100f96004803603606081101561035457600080fd5b5080359060ff602082013581169160400135166104c5565b600060fb8261037c57600061037f565b60015b60ff16901b60fb6001901b19841617905092915050565b600060f8826103a65760006103a9565b60015b60ff16901b60f86001901b19841617905092915050565b6103c86104db565b60408051808201909152806103e58560005b602002015185610455565b81526020016103f58560016103da565b90529392505050565b60ff91821660049182029091019091161b1790565b60008082610422576000610425565b60035b840160020260a70190508060ff1685901c6003169150509392505050565b60fb1c60019081161490565b600f1690565b60d21b60ff60d21b161790565b60ff9182166004919091026034019091161b1790565b60f91c60031690565b60008161048f576000610492565b60015b60040260c20160ff168360ff16901b841790509392505050565b60f91b607f60f91b166001607d60f91b03919091161790565b60ff9182166002919091026064019091161b1790565b6040518060400160405280600290602082028036833750919291505056fea264697066735822122068af59a9e7445937df4f8eec47ec71803243e083cbd9a86f7ded19d3d862b6c564736f6c63430006030033",
  "source": "pragma solidity >= 0.6.3;\nimport \"./EncodingMatchLogBase4.sol\";\n\n/**\n @title Subset of Library of functions to serialize matchLogs\n @author Freeverse.io, www.freeverse.io\n @dev see EncodingMatchLog.sol for full spec\n*/\n\ncontract EncodingMatchLogBase3 is EncodingMatchLogBase4 {\n\n    function addAssister(uint256 log, uint8 player, uint8 pos)  public pure returns (uint256) {\n        return log | (uint256(player) << (4 + 4 * pos));\n    }\n  \n    function addShooter(uint256 log, uint8 player, uint8 pos)  public pure returns (uint256) {\n        return log | (uint256(player) << (52 + 4 * pos));\n    }\n  \n    function addForwardPos(uint256 log, uint8 player, uint8 pos)  public pure returns (uint256) {\n        return log | (uint256(player) << (100 + 2 * pos));\n    }\n    \n    function getNGoals(uint256 log) public pure returns (uint8) {\n        return uint8(log & 15);\n    }\n\n    function addWinnerToBothLogs(uint256[2] memory logs, uint8 winner)  public pure returns (uint256[2] memory) {\n        return [addWinner(logs[0], winner), addWinner(logs[1], winner)];\n    }\n    \n    function addWinner(uint256 log, uint8 winner)  public pure returns (uint256) {\n        return log | (uint256(winner) << 210);\n    }\n\n    function addNGKAndDefs(uint256 log, uint8 nDefs, bool is2ndHalf)  public pure returns (uint256) {\n        return log | (uint256(nDefs) << (194 + 4 * (is2ndHalf ? 1 : 0)));\n    }\n\n    function setIsHomeStadium(uint256 log, bool val)  public pure returns (uint256) {\n        return (log & ~(uint256(1) << 248)) | (uint256(val ? 1: 0) << 248);\n    }\n\n    function setIsCancelled(uint256 log, bool val) public pure returns (uint256) {\n        return (log & ~(uint256(1) << 251)) | (uint256(val ? 1: 0) << 251);\n    }\n\n    function getIsCancelled(uint256 log) public pure returns (bool) {\n        return ((log >> 251) & 1) == 1;\n    }    \n}\n",
  "sourcePath": "/Users/jurgenkudla/proyects/laos/laos-goal-revolution/truffle-core/contracts/encoders/EncodingMatchLogBase3.sol",
  "compiler": {
    "name": "solc",
    "version": "0.6.3+commit.8dda9521.Emscripten.clang"
  },
  "schemaVersion": "3.0.23",
  "updatedAt": "2024-10-16T06:02:47.826Z",
  "devdoc": {
    "author": "Freeverse.io, www.freeverse.io",
    "details": "see EncodingMatchLog.sol for full spec",
    "methods": {},
    "title": "Subset of Library of functions to serialize matchLogs"
  },
  "userdoc": {
    "methods": {}
  }
}