{
  "contractName": "EncodingIDs",
  "abi": [
    {
      "inputs": [
        {
          "internalType": "uint8",
          "name": "timeZone",
          "type": "uint8"
        },
        {
          "internalType": "uint256",
          "name": "countryIdxInTZ",
          "type": "uint256"
        },
        {
          "internalType": "uint256",
          "name": "val",
          "type": "uint256"
        }
      ],
      "name": "encodeTZCountryAndVal",
      "outputs": [
        {
          "internalType": "uint256",
          "name": "",
          "type": "uint256"
        }
      ],
      "stateMutability": "pure",
      "type": "function"
    },
    {
      "inputs": [
        {
          "internalType": "uint256",
          "name": "encoded",
          "type": "uint256"
        }
      ],
      "name": "decodeTZCountryAndVal",
      "outputs": [
        {
          "internalType": "uint8",
          "name": "",
          "type": "uint8"
        },
        {
          "internalType": "uint256",
          "name": "",
          "type": "uint256"
        },
        {
          "internalType": "uint256",
          "name": "",
          "type": "uint256"
        }
      ],
      "stateMutability": "pure",
      "type": "function"
    }
  ],
  "bytecode": "0x608060405234801561001057600080fd5b50610224806100206000396000f3fe608060405234801561001057600080fd5b50600436106100365760003560e01c806320748ae81461003b5780633260840b14610079575b600080fd5b6100676004803603606081101561005157600080fd5b5060ff81351690602081013590604001356100b8565b60408051918252519081900360200190f35b6100966004803603602081101561008f57600080fd5b50356101d2565b6040805160ff9094168452602084019290925282820152519081900360600190f35b600060208460ff161061010a576040805162461bcd60e51b81526020600482015260156024820152741d1a5b595e9bdb99481bdd5d081bd988189bdd5b99605a1b604482015290519081900360640190fd5b6104008310610160576040805162461bcd60e51b815260206004820152601b60248201527f636f756e747279496478496e545a206f7574206f6620626f756e640000000000604482015290519081900360640190fd5b631000000082106101b8576040805162461bcd60e51b815260206004820152601a60248201527f76616c20746f20656e636f6465206f7574206f6620626f756e64000000000000604482015290519081900360640190fd5b5060269290921b653fc00000000016601c9190911b171790565b602681901c601f1691601c82901c6103ff1691630fffffff169056fea264697066735822122070e7af892e43f02d7fc8999a34d747dd98ec79bc7c221151410b56bd3c5015f764736f6c63430006030033",
  "source": "pragma solidity >= 0.6.3;\n\n/**\n @title Library of pure functions to serialize/deserialize IDs: playerId, countryID, etc\n @author Freeverse.io, www.freeverse.io\n @dev The structure of the Assets Universe is: there are 24 timezones (TZs)\n @dev ... TZs range from 1,..24 (tz = 0 is Null)\n @dev Each TZ has countries labeled by countryIdxInTZ = 0,.. 2**10-1\n @dev Each country has teams or players, each labeled from 0,...2**28-1\n*/\n\ncontract EncodingIDs {\n\n    /**\n     * @dev PlayerId and TeamId both serialize a total of 43 bits:\n     *      timeZone        = 5 bits\n     *      countryIdxInTZ  = 10 bits\n     *      val             = 28 bits (either  (playerIdxInCountry or teamIdxInCountry)\n    **/\n    function encodeTZCountryAndVal(uint8 timeZone, uint256 countryIdxInTZ, uint256 val) public pure returns (uint256)\n    {\n        require(timeZone < 2**5, \"timezone out of bound\");\n        require(countryIdxInTZ < 2**10, \"countryIdxInTZ out of bound\");\n        require(val < 2**28, \"val to encode out of bound\");\n        uint256 encoded  = uint256(timeZone) << 38;        /// 43 - 5\n        encoded         |= countryIdxInTZ << 28;  /// 38 - 10\n        return (encoded | val);            /// 28 - 28\n    }\n\n    /**\n    @return timezone, countryIdxInTZ, val\n     */\n    function decodeTZCountryAndVal(uint256 encoded) public pure returns (uint8, uint256, uint256)\n    {\n        /// 2**14 - 1 = 31;  2**10 - 1 = 1023; 2**28 - 1 = 268435455;\n        return (uint8(encoded >> 38 & 31), uint256(encoded >> 28 & 1023), uint256(encoded & 268435455));\n    }\n\n}\n",
  "sourcePath": "/Users/jurgenkudla/proyects/laos/laos-goal-revolution/goalrev-ganache/contracts/encoders/EncodingIDs.sol",
  "compiler": {
    "name": "solc",
    "version": "0.6.3+commit.8dda9521.Emscripten.clang"
  },
  "schemaVersion": "3.0.23",
  "updatedAt": "2024-10-18T06:09:35.297Z",
  "devdoc": {
    "author": "Freeverse.io, www.freeverse.io",
    "details": "The structure of the Assets Universe is: there are 24 timezones (TZs)... TZs range from 1,..24 (tz = 0 is Null)Each TZ has countries labeled by countryIdxInTZ = 0,.. 2**10-1Each country has teams or players, each labeled from 0,...2**28-1",
    "methods": {
      "encodeTZCountryAndVal(uint8,uint256,uint256)": {
        "details": "PlayerId and TeamId both serialize a total of 43 bits:     timeZone        = 5 bits     countryIdxInTZ  = 10 bits     val             = 28 bits (either  (playerIdxInCountry or teamIdxInCountry)*"
      }
    },
    "title": "Library of pure functions to serialize/deserialize IDs: playerId, countryID, etc"
  },
  "userdoc": {
    "methods": {}
  }
}