{
  "contractName": "EncodingTactics",
  "abi": [
    {
      "inputs": [],
      "name": "NO_SUBST",
      "outputs": [
        {
          "internalType": "uint8",
          "name": "",
          "type": "uint8"
        }
      ],
      "stateMutability": "view",
      "type": "function"
    },
    {
      "inputs": [
        {
          "internalType": "uint32",
          "name": "encoded",
          "type": "uint32"
        }
      ],
      "name": "decodeBoosts",
      "outputs": [
        {
          "internalType": "uint8[6]",
          "name": "skillsBoost",
          "type": "uint8[6]"
        }
      ],
      "stateMutability": "pure",
      "type": "function"
    },
    {
      "inputs": [
        {
          "internalType": "uint8[6]",
          "name": "skillsBoost",
          "type": "uint8[6]"
        }
      ],
      "name": "encodeBoosts",
      "outputs": [
        {
          "internalType": "uint32",
          "name": "encoded",
          "type": "uint32"
        }
      ],
      "stateMutability": "pure",
      "type": "function"
    },
    {
      "inputs": [
        {
          "internalType": "uint8[3]",
          "name": "substitutions",
          "type": "uint8[3]"
        },
        {
          "internalType": "uint8[3]",
          "name": "subsRounds",
          "type": "uint8[3]"
        },
        {
          "internalType": "uint8[14]",
          "name": "lineup",
          "type": "uint8[14]"
        },
        {
          "internalType": "bool[10]",
          "name": "extraAttack",
          "type": "bool[10]"
        },
        {
          "internalType": "uint8",
          "name": "tacticsId",
          "type": "uint8"
        }
      ],
      "name": "encodeTactics",
      "outputs": [
        {
          "internalType": "uint256",
          "name": "",
          "type": "uint256"
        }
      ],
      "stateMutability": "pure",
      "type": "function"
    },
    {
      "inputs": [
        {
          "internalType": "uint256",
          "name": "tactics",
          "type": "uint256"
        }
      ],
      "name": "getItemsData",
      "outputs": [
        {
          "internalType": "uint8[25]",
          "name": "staminas",
          "type": "uint8[25]"
        },
        {
          "internalType": "uint16",
          "name": "",
          "type": "uint16"
        },
        {
          "internalType": "uint32",
          "name": "",
          "type": "uint32"
        }
      ],
      "stateMutability": "pure",
      "type": "function"
    },
    {
      "inputs": [
        {
          "internalType": "uint256",
          "name": "tactics",
          "type": "uint256"
        },
        {
          "internalType": "uint32",
          "name": "val",
          "type": "uint32"
        }
      ],
      "name": "setItemBoost",
      "outputs": [
        {
          "internalType": "uint256",
          "name": "",
          "type": "uint256"
        }
      ],
      "stateMutability": "pure",
      "type": "function"
    },
    {
      "inputs": [
        {
          "internalType": "uint256",
          "name": "tactics",
          "type": "uint256"
        },
        {
          "internalType": "uint16",
          "name": "val",
          "type": "uint16"
        }
      ],
      "name": "setItemId",
      "outputs": [
        {
          "internalType": "uint256",
          "name": "",
          "type": "uint256"
        }
      ],
      "stateMutability": "pure",
      "type": "function"
    },
    {
      "inputs": [
        {
          "internalType": "uint256",
          "name": "tactics",
          "type": "uint256"
        },
        {
          "internalType": "uint8[25]",
          "name": "vals",
          "type": "uint8[25]"
        }
      ],
      "name": "setStaminaRecovery",
      "outputs": [
        {
          "internalType": "uint256",
          "name": "",
          "type": "uint256"
        }
      ],
      "stateMutability": "pure",
      "type": "function"
    }
  ],
  "bytecode": "0x608060405234801561001057600080fd5b50610a0e806100206000396000f3fe608060405234801561001057600080fd5b50600436106100885760003560e01c80636f30b06f1161005b5780636f30b06f146101ae578063755bfe0d1461028a578063b8100e57146102f5578063be8fcecb1461031e57610088565b806310bca22c1461008d5780632777d02a146100fc5780633c23306414610135578063638a530714610153575b600080fd5b6100aa600480360360208110156100a357600080fd5b5035610377565b604051808461032080838360005b838110156100d05781810151838201526020016100b8565b50505061ffff90961692019182525063ffffffff90921660208301525060408051918290030192509050f35b6101236004803603604081101561011257600080fd5b508035906020013561ffff166103e0565b60408051918252519081900360200190f35b61013d610456565b6040805160ff9092168252519081900360200190f35b6101766004803603602081101561016957600080fd5b503563ffffffff1661045b565b604051808260c080838360005b8381101561019b578181015183820152602001610183565b5050505090500191505060405180910390f35b61012360048036036103e08110156101c557600080fd5b8101908080606001906003806020026040519081016040528092919082600360200280828437600092019190915250506040805160608181019092529295949381810193925090600390839083908082843760009201919091525050604080516101c08181019092529295949381810193925090600e90839083908082843760009201919091525050604080516101408181019092529295949381810193925090600a90839083908082843760009201919091525091945050503560ff1690506104ae565b6102dc600480360360c08110156102a057600080fd5b810190808060c0019060068060200260405190810160405280929190826006602002808284376000920191909152509194506107d29350505050565b6040805163ffffffff9092168252519081900360200190f35b6101236004803603604081101561030b57600080fd5b508035906020013563ffffffff16610858565b610123600480360361034081101561033557600080fd5b60408051610320818101909252833593928301929161034083019190602084019060199083908390808284376000920191909152509194506108759350505050565b61037f61093c565b600080805b601960ff821610156103c45780600202606e0160ff1685901c600316848260ff16601981106103af57fe5b60ff9092166020929092020152600101610384565b50919360a084901c611fff169360ad1c63ffffffff1692509050565b60006120008261ffff161061043c576040805162461bcd60e51b815260206004820152601f60248201527f7374616d696e615265636f76657279206d757374206265203c20322a2a313300604482015290519081900360640190fd5b5060a01b61ffff60a01b16611fff60a01b19919091161790565b600b81565b61046361095b565b60005b600560ff8216116104a8578060060260ff168363ffffffff16901c603f16828260ff166006811061049357fe5b60ff9092166020929092020152600101610466565b50919050565b600060408260ff1610610508576040805162461bcd60e51b815260206004820152601e60248201527f7461637469637349642073686f756c642066697420696e203634206269740000604482015290519081900360640190fd5b60ff821660005b600a8160ff161015610556578060060160ff16858260ff16600a811061053157fe5b6020020151610541576000610544565b60015b60ff16901b919091179060010161050f565b5060005b600b8160ff1610156105fb5760198660ff8316600e811061057757fe5b602002015160ff1611156105cb576040805162461bcd60e51b8152602060048201526016602482015275696e636f7272656374206c696e65757020656e74727960501b604482015290519081900360640190fd5b8060050260100160ff16868260ff16600e81106105e457fe5b602002015160ff16901b919091179060010161055a565b5060005b60038160ff1610156107c757600c888260ff166003811061061c57fe5b602002015160ff161061066f576040805162461bcd60e51b8152602060048201526016602482015275696e636f7272656374206c696e65757020656e74727960501b604482015290519081900360640190fd5b600c878260ff166003811061068057fe5b602002015160ff16106106cc576040805162461bcd60e51b815260206004820152600f60248201526e1a5b98dbdc9c9958dd081c9bdd5b99608a1b604482015290519081900360640190fd5b600b8860ff8316600381106106dd57fe5b602002015160ff16141561074357601986600b830160ff16600e81106106ff57fe5b602002015160ff16146107435760405162461bcd60e51b815260040180806020018281038252603081526020018061097a6030913960400191505060405180910390fd5b80600b0160050260100160ff168682600b0160ff16600e811061076257fe5b602002015160ff16901b821791508060040260560160ff16888260ff166003811061078957fe5b602002015160ff16901b821791508060040260620160ff16878260ff16600381106107b057fe5b602002015160ff16901b91909117906001016105ff565b509695505050505050565b60006004826005602002015160ff161061081d5760405162461bcd60e51b815260040180806020018281038252602f8152602001806109aa602f913960400191505060405180910390fd5b60005b600560ff8216116104a8578060060260ff16838260ff166006811061084157fe5b602002015160ff16901b9190911790600101610820565b60ad1b63ffffffff60ad1b1663ffffffff60ad1b19919091161790565b6000805b601960ff82161015610934576004838260ff166019811061089657fe5b602002015160ff16106108f0576040805162461bcd60e51b815260206004820152601b60248201527f7374616d696e615265636f76657279206d757374206265203c20340000000000604482015290519081900360640190fd5b80600202606e0160ff16838260ff166019811061090957fe5b602002015160ff16901b81600202606e0160ff166003901b1985161793508080600101915050610879565b509192915050565b6040518061032001604052806019906020820280368337509192915050565b6040518060c00160405280600690602082028036833750919291505056fe696e636f7272656374206c696e65757020656e74727920666f72206e6f20737562737469747574656420706c6179657263616e6e6f74206f66666572206974656d73207468617420626f6f737420706f74656e7469616c20736f206d756368a264697066735822122092cf3eca7029a78bbf6700b038bdec657fdc83717d4b8d031765646f59dae53264736f6c63430006030033",
  "source": "pragma solidity >= 0.6.3;\n\nimport \"../encoders/EncodingTacticsBase1.sol\";\nimport \"../encoders/EncodingTacticsBase2.sol\";\n\n/**\n @title Library to serialize/deserialize match tactics decided by users\n @author Freeverse.io, www.freeverse.io\n @dev Due to contract-too-large-to-deploy, these functions had to be split into Base1, Base2\n*/\n \n/**\n Spec: Tactics serializes a total of 3*4+3*4+14*5+10+6+25*2+13+32 = 205 bits.\n\n substitutions[3]    = 4 bit each = [3 different nums from 0 to 10], with 11 = no subs\n subsRounds[3]       = 4 bit each = [3 different nums from 0 to 11], round at which subs are to happen\n lineup[14]          = 5 bit each = [playerIdxInTeam1, ..., ]\n extraAttack[10]     = 1 bit each, 0: normal, 1: player has extra attack duties\n tacticsId           = 6 bit (0 = 442, 1 = 541, ...\n\n ...added by shop:  offsets: 110 -> 159, 160 -> 172, 173 -> 204...\n staminaRecovery[25] = 2 bit each => 50b ( 0 = none, 1 = 2 games, 2 = 4 games, 3 = full recovery)\n itemId              = 13 bit \n itemEncodedBoost    = 32 bit\n**/\n\ncontract EncodingTactics is EncodingTacticsBase1, EncodingTacticsBase2 {\n\n}\n",
  "sourcePath": "/Users/jurgenkudla/proyects/laos/laos-goal-revolution/goalrev-ganache/contracts/encoders/EncodingTactics.sol",
  "compiler": {
    "name": "solc",
    "version": "0.6.3+commit.8dda9521.Emscripten.clang"
  },
  "schemaVersion": "3.0.23",
  "updatedAt": "2024-10-18T06:09:35.319Z",
  "devdoc": {
    "methods": {}
  },
  "userdoc": {
    "methods": {
      "encodeBoosts(uint8[6])": {
        "notice": "bits: 5 skills * 6b per skill (max 64) + 2b for potential = 32b"
      }
    },
    "notice": "Spec: Tactics serializes a total of 3*4+3*4+14*5+10+6+25*2+13+32 = 205 bits. substitutions[3]    = 4 bit each = [3 different nums from 0 to 10], with 11 = no subs subsRounds[3]       = 4 bit each = [3 different nums from 0 to 11], round at which subs are to happen lineup[14]          = 5 bit each = [playerIdxInTeam1, ..., ] extraAttack[10]     = 1 bit each, 0: normal, 1: player has extra attack duties tacticsId           = 6 bit (0 = 442, 1 = 541, ... ...added by shop:  offsets: 110 -> 159, 160 -> 172, 173 -> 204... staminaRecovery[25] = 2 bit each => 50b ( 0 = none, 1 = 2 games, 2 = 4 games, 3 = full recovery) itemId              = 13 bit  itemEncodedBoost    = 32 bit*"
  }
}