{
  "contractName": "EngineLib",
  "abi": [
    {
      "inputs": [],
      "name": "MAX_RND",
      "outputs": [
        {
          "internalType": "uint256",
          "name": "",
          "type": "uint256"
        }
      ],
      "stateMutability": "view",
      "type": "function"
    },
    {
      "inputs": [
        {
          "internalType": "uint256",
          "name": "encodedSkills",
          "type": "uint256"
        }
      ],
      "name": "getAggressiveness",
      "outputs": [
        {
          "internalType": "uint256",
          "name": "",
          "type": "uint256"
        }
      ],
      "stateMutability": "pure",
      "type": "function"
    },
    {
      "inputs": [
        {
          "internalType": "uint256",
          "name": "encodedSkills",
          "type": "uint256"
        }
      ],
      "name": "getAlignedEndOfFirstHalf",
      "outputs": [
        {
          "internalType": "bool",
          "name": "",
          "type": "bool"
        }
      ],
      "stateMutability": "pure",
      "type": "function"
    },
    {
      "inputs": [
        {
          "internalType": "uint256",
          "name": "encodedSkills",
          "type": "uint256"
        }
      ],
      "name": "getBirthDay",
      "outputs": [
        {
          "internalType": "uint256",
          "name": "",
          "type": "uint256"
        }
      ],
      "stateMutability": "pure",
      "type": "function"
    },
    {
      "inputs": [
        {
          "internalType": "uint256",
          "name": "tactics",
          "type": "uint256"
        },
        {
          "internalType": "uint8",
          "name": "p",
          "type": "uint8"
        }
      ],
      "name": "getExtraAttack",
      "outputs": [
        {
          "internalType": "bool",
          "name": "",
          "type": "bool"
        }
      ],
      "stateMutability": "pure",
      "type": "function"
    },
    {
      "inputs": [
        {
          "internalType": "uint256",
          "name": "encodedSkills",
          "type": "uint256"
        }
      ],
      "name": "getForwardness",
      "outputs": [
        {
          "internalType": "uint256",
          "name": "",
          "type": "uint256"
        }
      ],
      "stateMutability": "pure",
      "type": "function"
    },
    {
      "inputs": [
        {
          "internalType": "uint256",
          "name": "tactics",
          "type": "uint256"
        }
      ],
      "name": "getFullExtraAttack",
      "outputs": [
        {
          "internalType": "bool[10]",
          "name": "extraAttack",
          "type": "bool[10]"
        }
      ],
      "stateMutability": "pure",
      "type": "function"
    },
    {
      "inputs": [
        {
          "internalType": "uint256",
          "name": "tactics",
          "type": "uint256"
        }
      ],
      "name": "getFullLineUp",
      "outputs": [
        {
          "internalType": "uint8[14]",
          "name": "lineup",
          "type": "uint8[14]"
        }
      ],
      "stateMutability": "pure",
      "type": "function"
    },
    {
      "inputs": [
        {
          "internalType": "uint256",
          "name": "encodedSkills",
          "type": "uint256"
        }
      ],
      "name": "getGamesNonStopping",
      "outputs": [
        {
          "internalType": "uint8",
          "name": "",
          "type": "uint8"
        }
      ],
      "stateMutability": "pure",
      "type": "function"
    },
    {
      "inputs": [
        {
          "internalType": "uint256",
          "name": "encodedSkills",
          "type": "uint256"
        }
      ],
      "name": "getGeneration",
      "outputs": [
        {
          "internalType": "uint256",
          "name": "",
          "type": "uint256"
        }
      ],
      "stateMutability": "pure",
      "type": "function"
    },
    {
      "inputs": [
        {
          "internalType": "uint256",
          "name": "encodedSkills",
          "type": "uint256"
        }
      ],
      "name": "getInjuryWeeksLeft",
      "outputs": [
        {
          "internalType": "uint8",
          "name": "",
          "type": "uint8"
        }
      ],
      "stateMutability": "pure",
      "type": "function"
    },
    {
      "inputs": [
        {
          "internalType": "uint256",
          "name": "encodedSkills",
          "type": "uint256"
        }
      ],
      "name": "getInternalPlayerId",
      "outputs": [
        {
          "internalType": "uint256",
          "name": "",
          "type": "uint256"
        }
      ],
      "stateMutability": "pure",
      "type": "function"
    },
    {
      "inputs": [
        {
          "internalType": "uint256",
          "name": "encodedSkills",
          "type": "uint256"
        }
      ],
      "name": "getIsSpecial",
      "outputs": [
        {
          "internalType": "bool",
          "name": "",
          "type": "bool"
        }
      ],
      "stateMutability": "pure",
      "type": "function"
    },
    {
      "inputs": [
        {
          "internalType": "uint256",
          "name": "encodedSkills",
          "type": "uint256"
        }
      ],
      "name": "getLeftishness",
      "outputs": [
        {
          "internalType": "uint256",
          "name": "",
          "type": "uint256"
        }
      ],
      "stateMutability": "pure",
      "type": "function"
    },
    {
      "inputs": [
        {
          "internalType": "uint256",
          "name": "tactics",
          "type": "uint256"
        },
        {
          "internalType": "uint8",
          "name": "p",
          "type": "uint8"
        }
      ],
      "name": "getLinedUp",
      "outputs": [
        {
          "internalType": "uint8",
          "name": "",
          "type": "uint8"
        }
      ],
      "stateMutability": "pure",
      "type": "function"
    },
    {
      "inputs": [
        {
          "internalType": "uint256",
          "name": "encodedSkills",
          "type": "uint256"
        }
      ],
      "name": "getOutOfGameFirstHalf",
      "outputs": [
        {
          "internalType": "bool",
          "name": "",
          "type": "bool"
        }
      ],
      "stateMutability": "pure",
      "type": "function"
    },
    {
      "inputs": [
        {
          "internalType": "uint256",
          "name": "encodedSkills",
          "type": "uint256"
        }
      ],
      "name": "getPlayerIdFromSkills",
      "outputs": [
        {
          "internalType": "uint256",
          "name": "",
          "type": "uint256"
        }
      ],
      "stateMutability": "pure",
      "type": "function"
    },
    {
      "inputs": [
        {
          "internalType": "uint256",
          "name": "encodedSkills",
          "type": "uint256"
        }
      ],
      "name": "getPotential",
      "outputs": [
        {
          "internalType": "uint256",
          "name": "",
          "type": "uint256"
        }
      ],
      "stateMutability": "pure",
      "type": "function"
    },
    {
      "inputs": [
        {
          "internalType": "uint256",
          "name": "encodedSkills",
          "type": "uint256"
        }
      ],
      "name": "getRedCardLastGame",
      "outputs": [
        {
          "internalType": "bool",
          "name": "",
          "type": "bool"
        }
      ],
      "stateMutability": "pure",
      "type": "function"
    },
    {
      "inputs": [
        {
          "internalType": "uint256",
          "name": "encodedSkills",
          "type": "uint256"
        },
        {
          "internalType": "uint8",
          "name": "skillIdx",
          "type": "uint8"
        }
      ],
      "name": "getSkill",
      "outputs": [
        {
          "internalType": "uint256",
          "name": "",
          "type": "uint256"
        }
      ],
      "stateMutability": "pure",
      "type": "function"
    },
    {
      "inputs": [
        {
          "internalType": "uint256",
          "name": "tactics",
          "type": "uint256"
        },
        {
          "internalType": "uint8",
          "name": "p",
          "type": "uint8"
        }
      ],
      "name": "getSubsRound",
      "outputs": [
        {
          "internalType": "uint8",
          "name": "",
          "type": "uint8"
        }
      ],
      "stateMutability": "pure",
      "type": "function"
    },
    {
      "inputs": [
        {
          "internalType": "uint256",
          "name": "encodedSkills",
          "type": "uint256"
        }
      ],
      "name": "getSubstitutedFirstHalf",
      "outputs": [
        {
          "internalType": "bool",
          "name": "",
          "type": "bool"
        }
      ],
      "stateMutability": "pure",
      "type": "function"
    },
    {
      "inputs": [
        {
          "internalType": "uint256",
          "name": "tactics",
          "type": "uint256"
        },
        {
          "internalType": "uint8",
          "name": "p",
          "type": "uint8"
        }
      ],
      "name": "getSubstitution",
      "outputs": [
        {
          "internalType": "uint8",
          "name": "",
          "type": "uint8"
        }
      ],
      "stateMutability": "pure",
      "type": "function"
    },
    {
      "inputs": [
        {
          "internalType": "uint256",
          "name": "encodedSkills",
          "type": "uint256"
        }
      ],
      "name": "getSumOfSkills",
      "outputs": [
        {
          "internalType": "uint256",
          "name": "",
          "type": "uint256"
        }
      ],
      "stateMutability": "pure",
      "type": "function"
    },
    {
      "inputs": [
        {
          "internalType": "uint256",
          "name": "tactics",
          "type": "uint256"
        }
      ],
      "name": "getTacticsId",
      "outputs": [
        {
          "internalType": "uint8",
          "name": "",
          "type": "uint8"
        }
      ],
      "stateMutability": "pure",
      "type": "function"
    },
    {
      "inputs": [
        {
          "internalType": "uint256",
          "name": "encodedSkills",
          "type": "uint256"
        }
      ],
      "name": "getYellowCardFirstHalf",
      "outputs": [
        {
          "internalType": "bool",
          "name": "",
          "type": "bool"
        }
      ],
      "stateMutability": "pure",
      "type": "function"
    },
    {
      "inputs": [
        {
          "internalType": "uint256",
          "name": "weight0",
          "type": "uint256"
        },
        {
          "internalType": "uint256",
          "name": "weight1",
          "type": "uint256"
        },
        {
          "internalType": "uint256",
          "name": "rndNum",
          "type": "uint256"
        }
      ],
      "name": "throwDice",
      "outputs": [
        {
          "internalType": "uint8",
          "name": "",
          "type": "uint8"
        }
      ],
      "stateMutability": "pure",
      "type": "function"
    },
    {
      "inputs": [
        {
          "internalType": "uint256[]",
          "name": "weights",
          "type": "uint256[]"
        },
        {
          "internalType": "uint256",
          "name": "rndNum",
          "type": "uint256"
        }
      ],
      "name": "throwDiceArray",
      "outputs": [
        {
          "internalType": "uint8",
          "name": "w",
          "type": "uint8"
        }
      ],
      "stateMutability": "pure",
      "type": "function"
    },
    {
      "inputs": [
        {
          "internalType": "uint256",
          "name": "seed",
          "type": "uint256"
        },
        {
          "internalType": "uint8",
          "name": "nRnds",
          "type": "uint8"
        }
      ],
      "name": "getNRandsFromSeed",
      "outputs": [
        {
          "internalType": "uint64[]",
          "name": "",
          "type": "uint64[]"
        }
      ],
      "stateMutability": "pure",
      "type": "function"
    },
    {
      "inputs": [
        {
          "internalType": "uint256",
          "name": "tactics",
          "type": "uint256"
        }
      ],
      "name": "getNDefendersFromTactics",
      "outputs": [
        {
          "internalType": "uint8",
          "name": "",
          "type": "uint8"
        }
      ],
      "stateMutability": "pure",
      "type": "function"
    },
    {
      "inputs": [
        {
          "internalType": "uint8[9]",
          "name": "playersPerZone",
          "type": "uint8[9]"
        }
      ],
      "name": "getNDefenders",
      "outputs": [
        {
          "internalType": "uint8",
          "name": "",
          "type": "uint8"
        }
      ],
      "stateMutability": "pure",
      "type": "function"
    },
    {
      "inputs": [
        {
          "internalType": "uint8[9]",
          "name": "playersPerZone",
          "type": "uint8[9]"
        }
      ],
      "name": "getNMidfielders",
      "outputs": [
        {
          "internalType": "uint8",
          "name": "",
          "type": "uint8"
        }
      ],
      "stateMutability": "pure",
      "type": "function"
    },
    {
      "inputs": [
        {
          "internalType": "uint8[9]",
          "name": "playersPerZone",
          "type": "uint8[9]"
        }
      ],
      "name": "getNAttackers",
      "outputs": [
        {
          "internalType": "uint8",
          "name": "",
          "type": "uint8"
        }
      ],
      "stateMutability": "pure",
      "type": "function"
    },
    {
      "inputs": [
        {
          "internalType": "uint256",
          "name": "tactics",
          "type": "uint256"
        }
      ],
      "name": "getPlayersPerZone",
      "outputs": [
        {
          "internalType": "uint8[9]",
          "name": "",
          "type": "uint8[9]"
        }
      ],
      "stateMutability": "pure",
      "type": "function"
    }
  ],
  "bytecode": "0x608060405234801561001057600080fd5b50611052806100206000396000f3fe608060405234801561001057600080fd5b50600436106102065760003560e01c80639c6691661161011a578063df1beecb116100ad578063e9b664541161007c578063e9b66454146106d7578063f2c35764146106fd578063f2dc657f1461071a578063f780e88514610737578063fb9853691461078b57610206565b8063df1beecb14610644578063e37528bb14610677578063e4eec4be14610694578063e804e519146106ba57610206565b8063ca7678fb116100e9578063ca7678fb14610599578063cc7d473b146105ed578063d1b3d8fd1461060a578063d2f7967d1461062757610206565b80639c66916614610503578063a12dd1401461052c578063af15ace31461055f578063c2bc41cd1461057c57610206565b8063434807ad1161019d5780636f6c2ae01161016c5780636f6c2ae01461043057806379e765971461044d5780637a8409b31461046a5780637ffa3a2e146104905780638b6f120f146104ad57610206565b8063434807ad1461037157806347524b601461038e57806356e3df97146103bf578063573ca8f8146103dc57610206565b806329d0dcfb116101d957806329d0dcfb146103095780632bdc66a01461032f5780633518dd1d1461033757806335515f781461035457610206565b806305f0bb7b1461020b5780630b489b02146102475780631060c9c2146102bd5780631fc7768f146102ec575b600080fd5b6102316004803603604081101561022157600080fd5b508035906020013560ff16610830565b6040805160ff9092168252519081900360200190f35b61026d6004803603604081101561025d57600080fd5b508035906020013560ff16610847565b60408051602080825283518183015283519192839290830191858101910280838360005b838110156102a9578181015183820152602001610291565b505050509050019250505060405180910390f35b6102da600480360360208110156102d357600080fd5b503561093c565b60408051918252519081900360200190f35b6102da6004803603602081101561030257600080fd5b503561094c565b6102da6004803603604081101561031f57600080fd5b508035906020013560ff16610955565b6102da610964565b6102da6004803603602081101561034d57600080fd5b503561096d565b6102316004803603602081101561036a57600080fd5b5035610976565b6102da6004803603602081101561038757600080fd5b503561097c565b6103ab600480360360208110156103a457600080fd5b5035610985565b604080519115158252519081900360200190f35b6102da600480360360208110156103d557600080fd5b5035610991565b61023160048036036101208110156103f357600080fd5b81019080806101200190600980602002604051908101604052809291908260096020028082843760009201919091525091945061099a9350505050565b6102da6004803603602081101561044657600080fd5b50356109b4565b6102316004803603602081101561046357600080fd5b50356109d5565b6102316004803603604081101561048057600080fd5b508035906020013560ff166109de565b6103ab600480360360208110156104a657600080fd5b50356109ee565b6104ca600480360360208110156104c357600080fd5b50356109fa565b60405180826101c080838360005b838110156104f05781810151838201526020016104d8565b5050505090500191505060405180910390f35b6102316004803603606081101561051957600080fd5b5080359060208101359060400135610a4b565b6105496004803603602081101561054257600080fd5b5035610a8e565b60405181518152808261012080838360206104d8565b6102316004803603602081101561057557600080fd5b5035610de7565b6102da6004803603602081101561059257600080fd5b5035610e0c565b61023160048036036101208110156105b057600080fd5b810190808061012001906009806020026040519081016040528092919082600960200280828437600092019190915250919450610e159350505050565b6103ab6004803603602081101561060357600080fd5b5035610e25565b6103ab6004803603602081101561062057600080fd5b5035610e31565b6102da6004803603602081101561063d57600080fd5b5035610e3d565b6106616004803603602081101561065a57600080fd5b5035610e4b565b60405181518152808261014080838360206104d8565b6103ab6004803603602081101561068d57600080fd5b5035610ea1565b610231600480360360408110156106aa57600080fd5b508035906020013560ff16610ead565b610231600480360360208110156106d057600080fd5b5035610ebd565b6103ab600480360360408110156106ed57600080fd5b508035906020013560ff16610ec6565b6103ab6004803603602081101561071357600080fd5b5035610eec565b6102da6004803603602081101561073057600080fd5b5035610ef8565b610231600480360361012081101561074e57600080fd5b810190808061012001906009806020026040519081016040528092919082600960200280828437600092019190915250919450610f029350505050565b610231600480360360408110156107a157600080fd5b8101906020810181356401000000008111156107bc57600080fd5b8201836020820111156107ce57600080fd5b803590602001918460208302840111640100000000831117156107f057600080fd5b9190808060200260200160405190810160405280939291908181526020018383602002808284376000920191909152509295505091359250610f12915050565b601f60ff601060058402011683901c165b92915050565b60408051602080820185905282518083038201815282840180855281519183019190912060ff86811680845293840290940160609081019095529291849190801561089c578160200160208202803683370190505b50905060005b8560ff168160ff16101561093257602460ff841610156108ec576040805160208082018a905260ff8085168385015283518084038501815260609093019093528151910120945092505b640fffffffff8416828260ff168151811061090357fe5b67ffffffffffffffff9092166020928302919091019091015260249390931c92602319909201916001016108a2565b5095945050505050565b6207ffff60b582901c165b919050565b607e1c60071690565b60ff166014021c620fffff1690565b640fffffffff81565b607b1c60071690565b603f1690565b60741c600f1690565b60cc1c60019081161490565b60cd1c60ff1690565b602081015160009082825b60200201516002020192915050565b60006109bf82610985565b6109d1576109cc82610e3d565b610841565b5090565b60b11c60071690565b60040260620160ff161c600f1690565b60d61c60019081161490565b610a02610fbf565b60005b600e8160ff161015610a45578060050260100160ff1683901c601f16828260ff16600e8110610a3057fe5b60ff9092166020929092020152600101610a05565b50919050565b600083158015610a59575082155b15610a68575060018116610a87565b641000000000840283850183021015610a8357506000610a87565b5060015b9392505050565b610a96610fde565b6000610aa183610976565b905060ff8116610afe57505060408051610120810182526001808252600260208301819052928201819052606082018190526080820183905260a0820152600060c0820181905260e0820192909252610100810191909152610947565b8060ff1660011415610b5d5750506040805161012081018252600180825260036020830152918101829052606081018290526002608082015260a08101829052600060c0820181905260e0820192909252610100810191909152610947565b8060ff1660021415610bb95750506040805161012081018252600180825260026020830152918101829052606081018290526080810182905260a0810182905260c0810182905260e08101829052610100810191909152610947565b8060ff1660031415610c185750506040805161012081018252600180825260026020830152918101829052606081018290526003608082015260a08101829052600060c0820181905260e0820192909252610100810191909152610947565b8060ff1660041415610c745750506040805161012081018252600180825260208201819052918101829052606081018290526002608082015260a0810182905260c0810182905260e08101829052610100810191909152610947565b8060ff1660051415610cd05750506040805161012081018252600180825260208201819052918101829052606081018290526003608082015260a0810191909152600060c08201819052600260e0830152610100820152610947565b8060ff1660061415610d2c5750506040805161012081018252600180825260208201819052918101829052606081018290526080810182905260a0810182905260c08101829052600260e0820152610100810191909152610947565b8060ff1660071415610d8b575050604080516101208101825260018082526002602083018190529282018190526000606083018190526080830184905260a083015260c0820181905260e0820192909252610100810191909152610947565b8060ff1660081415610a455750506040805161012081018252600080825260026020830152918101919091526001606082018190526003608083015260a0820181905260c0820181905260e08201819052610100820152610947565b6000610df1610fde565b610dfa83610a8e565b60208101519051600202019392505050565b60781c60071690565b60808101516000908260036109a5565b60ad1c60019081161490565b60d51c60019081161490565b60811c6507ffffffffff1690565b610e53610ffd565b60005b600a8160ff161015610a45578060060160ff1683901c600116600114610e7d576000610e80565b60015b828260ff16600a8110610e8f57fe5b91151560209092020152600101610e56565b60b41c60019081161490565b60040260560160ff161c600f1690565b60ae1c60071690565b60008160060160ff1683901c600116600114610ee3576000610a87565b60019392505050565b60ac1c60019081161490565b60641c61ffff1690565b60e08101516000908260066109a5565b6000805b83518260ff161015610f4857838260ff1681518110610f3157fe5b602090810291909101015160019092019101610f16565b80610f605783518381610f5757fe5b06915050610841565b600091508202641000000000825b60018651038460ff161015610fb657858460ff1681518110610f8c57fe5b602002602001015181019050818102831015610fab5750610841915050565b600190930192610f6e565b50505092915050565b604051806101c00160405280600e906020820280368337509192915050565b6040518061012001604052806009906020820280368337509192915050565b604051806101400160405280600a90602082028036833750919291505056fea2646970667358221220a46f5430e0a88eb601e0a9dd060e106fe81ece1e6e4c7091a208f9ed59a70ea264736f6c63430006030033",
  "source": "pragma solidity >= 0.6.3;\n\nimport \"../encoders/EncodingSkillsGetters.sol\";\nimport \"../encoders/EncodingTacticsBase3.sol\";\n\n/**\n @title Library or pure functions, part of Engine\n @author Freeverse.io, www.freeverse.io\n*/\n\ncontract EngineLib is EncodingSkillsGetters, EncodingTacticsBase3 {\n    uint8 private constant BITS_PER_RND     = 36;   /// Number of bits allowed for random numbers inside match decisisons\n    uint256 public constant MAX_RND         = 68719476735; /// Max random number allowed inside match decisions: 2^36-1\n    /// /// Idxs for vector of globSkills: [0=move2attack, 1=globSkills[IDX_CREATE_SHOOT], 2=globSkills[IDX_DEFEND_SHOOT], 3=blockShoot, 4=currentEndurance]\n    uint256 private constant SECS_IN_DAY    = 86400; /// 24 * 3600 \n\n    //// Throws a dice that returns 0 with probability weight0/(weight0+weight1), and 1 otherwise.\n    //// So, returning 0 has semantics: \"the responsible for weight0 is selected\".\n    //// We return a uint8, not bool, to allow the return to be used as an idx in an array by the callee.\n    //// The formula is derived as follows. Consider a segment which is the union of a segment of length w0, and one of length w1.\n    ///      0, 1, ... w0-1 | w0 ... w0+w1-1\n    ///  We want to get a random number in that segment: (w0+w1) * R/(maxR + 1)\n    ///  w0 wins if (w0+w1) * R/(maxR + 1) < w0 => (w0+w1) * R < w0 * (maxR + 1)\n    ///  w1 wins otherwise\n    ///  Limits:\n    ///  (w0 = 0, w1 != 0) => w0 never wins;   (w0 ! 0, w1 = 0) => w1 never wins;   \n    ///  MAX_RND controls the resolution or fine-graining of the algorithm.\n    function throwDice(uint256 weight0, uint256 weight1, uint256 rndNum) public pure returns(uint8) {\n        /// if both weights are null, return approx 50% chance\n        if (weight0 == 0 && weight1 == 0) return uint8(rndNum % 2);\n        if( ( (weight0 + weight1) * rndNum ) < (weight0 * (MAX_RND +1)) ) {\n            return 0;\n        } else {\n            return 1;\n        }\n    }\n\n    //// @dev Generalization of the previous to any number of input weights\n    //// @dev It therefore throws any number of dice and returns the winner's idx.\n    //// @dev Following the explanation above, consider this limits:\n    function throwDiceArray(uint256[] memory weights, uint256 rndNum) public pure returns(uint8 w) {\n        uint256 uniformRndInSumOfWeights;\n        for (w = 0; w < weights.length; w++) {\n            uniformRndInSumOfWeights += weights[w];\n        }\n        /// if all weights are null, return uniform chance\n        if (uniformRndInSumOfWeights == 0) return uint8(rndNum % weights.length);\n\n        uniformRndInSumOfWeights *= rndNum;\n        uint256 maxRndPlusOne = MAX_RND + 1;\n        uint256 cumSum = 0;\n        for (w = 0; w < weights.length-1; w++) {\n            cumSum += weights[w];\n            if( uniformRndInSumOfWeights < ( cumSum * maxRndPlusOne)) {\n                return w;\n            }\n        }\n        return w;\n    }\n\n    function getNRandsFromSeed(uint256 seed, uint8 nRnds) public pure returns (uint64[] memory) {\n        uint256 currentBigRnd = uint256(keccak256(abi.encode(seed)));\n        uint8 remainingBits = 255;\n        uint64[] memory rnds = new uint64[](nRnds);\n        for (uint8 n = 0; n < nRnds; n++) {\n            if (remainingBits < BITS_PER_RND) {\n                currentBigRnd = uint256(keccak256(abi.encode(seed, n)));\n                remainingBits = 255;\n            }\n            rnds[n] = uint64(currentBigRnd & MAX_RND);\n            currentBigRnd >>= BITS_PER_RND;\n            remainingBits -= BITS_PER_RND;\n        }\n        return rnds;\n    }\n\n    function getNDefendersFromTactics(uint256 tactics) public pure returns (uint8) {\n        uint8[9] memory playersPerZone = getPlayersPerZone(tactics);\n        return 2 * playersPerZone[0] + playersPerZone[1];\n    }\n\n    function getNDefenders(uint8[9] memory playersPerZone) public pure returns (uint8) {\n        return 2 * playersPerZone[0] + playersPerZone[1];\n    }\n\n    function getNMidfielders(uint8[9] memory playersPerZone) public pure returns (uint8) {\n        return 2 * playersPerZone[3] + playersPerZone[4];\n    }\n\n    function getNAttackers(uint8[9] memory playersPerZone) public pure returns (uint8) {\n        return 2 * playersPerZone[6] + playersPerZone[7];\n    }\n    \n    /// TODO: can this be expressed as\n    /// translates from a high level tacticsId (e.g. 442) to a format that describes how many\n    /// players play in each of the 9 zones in the field (Def, Mid, Forw) x (L, C, R), \n    /// We impose left-right symmetry: DR = DL, MR = ML, FR = FL.\n    /// So we only manage 6 numbers: [DL, DM, ML, MM, FL, FM], and force \n    function getPlayersPerZone(uint256 tactics) public pure returns (uint8[9] memory) {\n        uint8 tacticsId = getTacticsId(tactics);\n        if (tacticsId == 0) return [1,2,1,1,2,1,0,2,0];  /// 0 = 442\n        if (tacticsId == 1) return [1,3,1,1,2,1,0,1,0];  /// 0 = 541\n        if (tacticsId == 2) return [1,2,1,1,1,1,1,1,1];  /// 0 = 433\n        if (tacticsId == 3) return [1,2,1,1,3,1,0,1,0];  /// 0 = 451\n        if (tacticsId == 4) return [1,1,1,1,2,1,1,1,1];  /// 0 = 343\n        if (tacticsId == 5) return [1,1,1,1,3,1,0,2,0];  /// 0 = 352\n        if (tacticsId == 6) return [1,1,1,1,1,1,1,2,1];  /// 0 = 334\n        if (tacticsId == 7) return [1,2,1,0,2,0,1,2,1];  /// 0 = 424\n        if (tacticsId == 8) return [0,2,0,1,3,1,1,1,1];  /// 0 = 253\n    }\n}\n\n",
  "sourcePath": "/Users/jurgenkudla/proyects/laos/laos-goal-revolution/goalrev-ganache/contracts/gameEngine/EngineLib.sol",
  "compiler": {
    "name": "solc",
    "version": "0.6.3+commit.8dda9521.Emscripten.clang"
  },
  "schemaVersion": "3.0.23",
  "updatedAt": "2024-10-18T06:09:35.341Z",
  "devdoc": {
    "author": "Freeverse.io, www.freeverse.io",
    "methods": {
      "throwDiceArray(uint256[],uint256)": {
        "details": "Generalization of the previous to any number of input weightsIt therefore throws any number of dice and returns the winner's idx.Following the explanation above, consider this limits:"
      }
    },
    "title": "Library or pure functions, part of Engine"
  },
  "userdoc": {
    "methods": {
      "getPlayersPerZone(uint256)": {
        "notice": "TODO: can this be expressed as translates from a high level tacticsId (e.g. 442) to a format that describes how many players play in each of the 9 zones in the field (Def, Mid, Forw) x (L, C, R),  We impose left-right symmetry: DR = DL, MR = ML, FR = FL. So we only manage 6 numbers: [DL, DM, ML, MM, FL, FM], and force "
      },
      "throwDice(uint256,uint256,uint256)": {
        "notice": "24 * 3600  / Throws a dice that returns 0 with probability weight0/(weight0+weight1), and 1 otherwise. / So, returning 0 has semantics: \"the responsible for weight0 is selected\". / We return a uint8, not bool, to allow the return to be used as an idx in an array by the callee. / The formula is derived as follows. Consider a segment which is the union of a segment of length w0, and one of length w1.      0, 1, ... w0-1 | w0 ... w0+w1-1  We want to get a random number in that segment: (w0+w1) * R/(maxR + 1)  w0 wins if (w0+w1) * R/(maxR + 1) < w0 => (w0+w1) * R < w0 * (maxR + 1)  w1 wins otherwise  Limits:  (w0 = 0, w1 != 0) => w0 never wins;   (w0 ! 0, w1 = 0) => w1 never wins;     MAX_RND controls the resolution or fine-graining of the algorithm."
      }
    }
  }
}