{
  "contractName": "Engine",
  "abi": [
    {
      "inputs": [
        {
          "internalType": "address",
          "name": "precompAddr",
          "type": "address"
        },
        {
          "internalType": "address",
          "name": "applyBoosterAddr",
          "type": "address"
        }
      ],
      "stateMutability": "nonpayable",
      "type": "constructor"
    },
    {
      "inputs": [],
      "name": "IDX_D",
      "outputs": [
        {
          "internalType": "uint8",
          "name": "",
          "type": "uint8"
        }
      ],
      "stateMutability": "view",
      "type": "function",
      "constant": true
    },
    {
      "inputs": [],
      "name": "IDX_F",
      "outputs": [
        {
          "internalType": "uint8",
          "name": "",
          "type": "uint8"
        }
      ],
      "stateMutability": "view",
      "type": "function",
      "constant": true
    },
    {
      "inputs": [],
      "name": "IDX_GK",
      "outputs": [
        {
          "internalType": "uint8",
          "name": "",
          "type": "uint8"
        }
      ],
      "stateMutability": "view",
      "type": "function",
      "constant": true
    },
    {
      "inputs": [],
      "name": "IDX_M",
      "outputs": [
        {
          "internalType": "uint8",
          "name": "",
          "type": "uint8"
        }
      ],
      "stateMutability": "view",
      "type": "function",
      "constant": true
    },
    {
      "inputs": [],
      "name": "IDX_MD",
      "outputs": [
        {
          "internalType": "uint8",
          "name": "",
          "type": "uint8"
        }
      ],
      "stateMutability": "view",
      "type": "function",
      "constant": true
    },
    {
      "inputs": [],
      "name": "IDX_MF",
      "outputs": [
        {
          "internalType": "uint8",
          "name": "",
          "type": "uint8"
        }
      ],
      "stateMutability": "view",
      "type": "function",
      "constant": true
    },
    {
      "inputs": [],
      "name": "MAX_GOALS_IN_MATCH",
      "outputs": [
        {
          "internalType": "uint8",
          "name": "",
          "type": "uint8"
        }
      ],
      "stateMutability": "view",
      "type": "function",
      "constant": true
    },
    {
      "inputs": [],
      "name": "MAX_RND",
      "outputs": [
        {
          "internalType": "uint256",
          "name": "",
          "type": "uint256"
        }
      ],
      "stateMutability": "view",
      "type": "function",
      "constant": true
    },
    {
      "inputs": [],
      "name": "NO_SUBST",
      "outputs": [
        {
          "internalType": "uint8",
          "name": "",
          "type": "uint8"
        }
      ],
      "stateMutability": "view",
      "type": "function",
      "constant": true
    },
    {
      "inputs": [],
      "name": "N_SKILLS",
      "outputs": [
        {
          "internalType": "uint8",
          "name": "",
          "type": "uint8"
        }
      ],
      "stateMutability": "view",
      "type": "function",
      "constant": true
    },
    {
      "inputs": [],
      "name": "RED_CARD",
      "outputs": [
        {
          "internalType": "uint8",
          "name": "",
          "type": "uint8"
        }
      ],
      "stateMutability": "view",
      "type": "function",
      "constant": true
    },
    {
      "inputs": [],
      "name": "ROUNDS_PER_MATCH",
      "outputs": [
        {
          "internalType": "uint8",
          "name": "",
          "type": "uint8"
        }
      ],
      "stateMutability": "view",
      "type": "function",
      "constant": true
    },
    {
      "inputs": [],
      "name": "SK_DEF",
      "outputs": [
        {
          "internalType": "uint8",
          "name": "",
          "type": "uint8"
        }
      ],
      "stateMutability": "view",
      "type": "function",
      "constant": true
    },
    {
      "inputs": [],
      "name": "SK_END",
      "outputs": [
        {
          "internalType": "uint8",
          "name": "",
          "type": "uint8"
        }
      ],
      "stateMutability": "view",
      "type": "function",
      "constant": true
    },
    {
      "inputs": [],
      "name": "SK_PAS",
      "outputs": [
        {
          "internalType": "uint8",
          "name": "",
          "type": "uint8"
        }
      ],
      "stateMutability": "view",
      "type": "function",
      "constant": true
    },
    {
      "inputs": [],
      "name": "SK_SHO",
      "outputs": [
        {
          "internalType": "uint8",
          "name": "",
          "type": "uint8"
        }
      ],
      "stateMutability": "view",
      "type": "function",
      "constant": true
    },
    {
      "inputs": [],
      "name": "SK_SPE",
      "outputs": [
        {
          "internalType": "uint8",
          "name": "",
          "type": "uint8"
        }
      ],
      "stateMutability": "view",
      "type": "function",
      "constant": true
    },
    {
      "inputs": [
        {
          "internalType": "uint256",
          "name": "log",
          "type": "uint256"
        },
        {
          "internalType": "uint8",
          "name": "player",
          "type": "uint8"
        },
        {
          "internalType": "uint8",
          "name": "pos",
          "type": "uint8"
        }
      ],
      "name": "addAssister",
      "outputs": [
        {
          "internalType": "uint256",
          "name": "",
          "type": "uint256"
        }
      ],
      "stateMutability": "pure",
      "type": "function",
      "constant": true
    },
    {
      "inputs": [
        {
          "internalType": "uint256",
          "name": "log",
          "type": "uint256"
        },
        {
          "internalType": "uint8",
          "name": "player",
          "type": "uint8"
        },
        {
          "internalType": "uint8",
          "name": "pos",
          "type": "uint8"
        }
      ],
      "name": "addForwardPos",
      "outputs": [
        {
          "internalType": "uint256",
          "name": "",
          "type": "uint256"
        }
      ],
      "stateMutability": "pure",
      "type": "function",
      "constant": true
    },
    {
      "inputs": [
        {
          "internalType": "uint256",
          "name": "log",
          "type": "uint256"
        },
        {
          "internalType": "uint8",
          "name": "player",
          "type": "uint8"
        },
        {
          "internalType": "uint8",
          "name": "pos",
          "type": "uint8"
        }
      ],
      "name": "addHalfTimeSubs",
      "outputs": [
        {
          "internalType": "uint256",
          "name": "",
          "type": "uint256"
        }
      ],
      "stateMutability": "pure",
      "type": "function",
      "constant": true
    },
    {
      "inputs": [
        {
          "internalType": "uint256",
          "name": "log",
          "type": "uint256"
        },
        {
          "internalType": "uint8",
          "name": "nDefs",
          "type": "uint8"
        },
        {
          "internalType": "bool",
          "name": "is2ndHalf",
          "type": "bool"
        }
      ],
      "name": "addNGKAndDefs",
      "outputs": [
        {
          "internalType": "uint256",
          "name": "",
          "type": "uint256"
        }
      ],
      "stateMutability": "pure",
      "type": "function",
      "constant": true
    },
    {
      "inputs": [
        {
          "internalType": "uint256",
          "name": "log",
          "type": "uint256"
        },
        {
          "internalType": "uint8",
          "name": "goals",
          "type": "uint8"
        }
      ],
      "name": "addNGoals",
      "outputs": [
        {
          "internalType": "uint256",
          "name": "",
          "type": "uint256"
        }
      ],
      "stateMutability": "pure",
      "type": "function",
      "constant": true
    },
    {
      "inputs": [
        {
          "internalType": "uint256",
          "name": "log",
          "type": "uint256"
        },
        {
          "internalType": "uint8",
          "name": "nTot",
          "type": "uint8"
        },
        {
          "internalType": "bool",
          "name": "is2ndHalf",
          "type": "bool"
        }
      ],
      "name": "addNTot",
      "outputs": [
        {
          "internalType": "uint256",
          "name": "",
          "type": "uint256"
        }
      ],
      "stateMutability": "pure",
      "type": "function",
      "constant": true
    },
    {
      "inputs": [
        {
          "internalType": "uint256",
          "name": "log",
          "type": "uint256"
        },
        {
          "internalType": "uint8",
          "name": "pos",
          "type": "uint8"
        }
      ],
      "name": "addScoredPenalty",
      "outputs": [
        {
          "internalType": "uint256",
          "name": "",
          "type": "uint256"
        }
      ],
      "stateMutability": "pure",
      "type": "function",
      "constant": true
    },
    {
      "inputs": [
        {
          "internalType": "uint256",
          "name": "log",
          "type": "uint256"
        },
        {
          "internalType": "uint8",
          "name": "player",
          "type": "uint8"
        },
        {
          "internalType": "uint8",
          "name": "pos",
          "type": "uint8"
        }
      ],
      "name": "addShooter",
      "outputs": [
        {
          "internalType": "uint256",
          "name": "",
          "type": "uint256"
        }
      ],
      "stateMutability": "pure",
      "type": "function",
      "constant": true
    },
    {
      "inputs": [
        {
          "internalType": "uint256",
          "name": "log",
          "type": "uint256"
        },
        {
          "internalType": "uint256",
          "name": "extraSumSkills",
          "type": "uint256"
        }
      ],
      "name": "addTeamSumSkills",
      "outputs": [
        {
          "internalType": "uint256",
          "name": "",
          "type": "uint256"
        }
      ],
      "stateMutability": "pure",
      "type": "function",
      "constant": true
    },
    {
      "inputs": [
        {
          "internalType": "uint256",
          "name": "log",
          "type": "uint256"
        },
        {
          "internalType": "uint8",
          "name": "winner",
          "type": "uint8"
        }
      ],
      "name": "addWinner",
      "outputs": [
        {
          "internalType": "uint256",
          "name": "",
          "type": "uint256"
        }
      ],
      "stateMutability": "pure",
      "type": "function",
      "constant": true
    },
    {
      "inputs": [
        {
          "internalType": "uint256[2]",
          "name": "logs",
          "type": "uint256[2]"
        },
        {
          "internalType": "uint8",
          "name": "winner",
          "type": "uint8"
        }
      ],
      "name": "addWinnerToBothLogs",
      "outputs": [
        {
          "internalType": "uint256[2]",
          "name": "",
          "type": "uint256[2]"
        }
      ],
      "stateMutability": "pure",
      "type": "function",
      "constant": true
    },
    {
      "inputs": [
        {
          "internalType": "uint256",
          "name": "log",
          "type": "uint256"
        },
        {
          "internalType": "uint8",
          "name": "player",
          "type": "uint8"
        },
        {
          "internalType": "uint8",
          "name": "posInHaf",
          "type": "uint8"
        },
        {
          "internalType": "bool",
          "name": "is2ndHalf",
          "type": "bool"
        }
      ],
      "name": "addYellowCard",
      "outputs": [
        {
          "internalType": "uint256",
          "name": "",
          "type": "uint256"
        }
      ],
      "stateMutability": "pure",
      "type": "function",
      "constant": true
    },
    {
      "inputs": [
        {
          "internalType": "uint32",
          "name": "encoded",
          "type": "uint32"
        }
      ],
      "name": "decodeBoosts",
      "outputs": [
        {
          "internalType": "uint8[6]",
          "name": "skillsBoost",
          "type": "uint8[6]"
        }
      ],
      "stateMutability": "pure",
      "type": "function",
      "constant": true
    },
    {
      "inputs": [
        {
          "internalType": "uint8[6]",
          "name": "skillsBoost",
          "type": "uint8[6]"
        }
      ],
      "name": "encodeBoosts",
      "outputs": [
        {
          "internalType": "uint32",
          "name": "encoded",
          "type": "uint32"
        }
      ],
      "stateMutability": "pure",
      "type": "function",
      "constant": true
    },
    {
      "inputs": [
        {
          "internalType": "uint8[3]",
          "name": "substitutions",
          "type": "uint8[3]"
        },
        {
          "internalType": "uint8[3]",
          "name": "subsRounds",
          "type": "uint8[3]"
        },
        {
          "internalType": "uint8[14]",
          "name": "lineup",
          "type": "uint8[14]"
        },
        {
          "internalType": "bool[10]",
          "name": "extraAttack",
          "type": "bool[10]"
        },
        {
          "internalType": "uint8",
          "name": "tacticsId",
          "type": "uint8"
        }
      ],
      "name": "encodeTactics",
      "outputs": [
        {
          "internalType": "uint256",
          "name": "",
          "type": "uint256"
        }
      ],
      "stateMutability": "pure",
      "type": "function",
      "constant": true
    },
    {
      "inputs": [
        {
          "internalType": "uint256",
          "name": "encodedSkills",
          "type": "uint256"
        }
      ],
      "name": "getAggressiveness",
      "outputs": [
        {
          "internalType": "uint256",
          "name": "",
          "type": "uint256"
        }
      ],
      "stateMutability": "pure",
      "type": "function",
      "constant": true
    },
    {
      "inputs": [
        {
          "internalType": "uint256",
          "name": "encodedSkills",
          "type": "uint256"
        }
      ],
      "name": "getAlignedEndOfFirstHalf",
      "outputs": [
        {
          "internalType": "bool",
          "name": "",
          "type": "bool"
        }
      ],
      "stateMutability": "pure",
      "type": "function",
      "constant": true
    },
    {
      "inputs": [
        {
          "internalType": "uint256",
          "name": "encodedSkills",
          "type": "uint256"
        }
      ],
      "name": "getBirthDay",
      "outputs": [
        {
          "internalType": "uint256",
          "name": "",
          "type": "uint256"
        }
      ],
      "stateMutability": "pure",
      "type": "function",
      "constant": true
    },
    {
      "inputs": [
        {
          "internalType": "uint256",
          "name": "log",
          "type": "uint256"
        }
      ],
      "name": "getChangesAtHalfTime",
      "outputs": [
        {
          "internalType": "uint8",
          "name": "nChanges",
          "type": "uint8"
        }
      ],
      "stateMutability": "pure",
      "type": "function",
      "constant": true
    },
    {
      "inputs": [
        {
          "internalType": "uint256",
          "name": "tactics",
          "type": "uint256"
        },
        {
          "internalType": "uint8",
          "name": "p",
          "type": "uint8"
        }
      ],
      "name": "getExtraAttack",
      "outputs": [
        {
          "internalType": "bool",
          "name": "",
          "type": "bool"
        }
      ],
      "stateMutability": "pure",
      "type": "function",
      "constant": true
    },
    {
      "inputs": [
        {
          "internalType": "uint256",
          "name": "encodedSkills",
          "type": "uint256"
        }
      ],
      "name": "getForwardness",
      "outputs": [
        {
          "internalType": "uint256",
          "name": "",
          "type": "uint256"
        }
      ],
      "stateMutability": "pure",
      "type": "function",
      "constant": true
    },
    {
      "inputs": [
        {
          "internalType": "uint256",
          "name": "tactics",
          "type": "uint256"
        }
      ],
      "name": "getFullExtraAttack",
      "outputs": [
        {
          "internalType": "bool[10]",
          "name": "extraAttack",
          "type": "bool[10]"
        }
      ],
      "stateMutability": "pure",
      "type": "function",
      "constant": true
    },
    {
      "inputs": [
        {
          "internalType": "uint256",
          "name": "tactics",
          "type": "uint256"
        }
      ],
      "name": "getFullLineUp",
      "outputs": [
        {
          "internalType": "uint8[14]",
          "name": "lineup",
          "type": "uint8[14]"
        }
      ],
      "stateMutability": "pure",
      "type": "function",
      "constant": true
    },
    {
      "inputs": [
        {
          "internalType": "uint256",
          "name": "encodedSkills",
          "type": "uint256"
        }
      ],
      "name": "getGamesNonStopping",
      "outputs": [
        {
          "internalType": "uint8",
          "name": "",
          "type": "uint8"
        }
      ],
      "stateMutability": "pure",
      "type": "function",
      "constant": true
    },
    {
      "inputs": [
        {
          "internalType": "uint256",
          "name": "encodedSkills",
          "type": "uint256"
        }
      ],
      "name": "getGeneration",
      "outputs": [
        {
          "internalType": "uint256",
          "name": "",
          "type": "uint256"
        }
      ],
      "stateMutability": "pure",
      "type": "function",
      "constant": true
    },
    {
      "inputs": [
        {
          "internalType": "uint256",
          "name": "log",
          "type": "uint256"
        },
        {
          "internalType": "uint8",
          "name": "posInHalf",
          "type": "uint8"
        },
        {
          "internalType": "bool",
          "name": "is2ndHalf",
          "type": "bool"
        }
      ],
      "name": "getInGameSubsHappened",
      "outputs": [
        {
          "internalType": "uint8",
          "name": "",
          "type": "uint8"
        }
      ],
      "stateMutability": "pure",
      "type": "function",
      "constant": true
    },
    {
      "inputs": [
        {
          "internalType": "uint256",
          "name": "encodedSkills",
          "type": "uint256"
        }
      ],
      "name": "getInjuryWeeksLeft",
      "outputs": [
        {
          "internalType": "uint8",
          "name": "",
          "type": "uint8"
        }
      ],
      "stateMutability": "pure",
      "type": "function",
      "constant": true
    },
    {
      "inputs": [
        {
          "internalType": "uint256",
          "name": "encodedSkills",
          "type": "uint256"
        }
      ],
      "name": "getInternalPlayerId",
      "outputs": [
        {
          "internalType": "uint256",
          "name": "",
          "type": "uint256"
        }
      ],
      "stateMutability": "pure",
      "type": "function",
      "constant": true
    },
    {
      "inputs": [
        {
          "internalType": "uint256",
          "name": "log",
          "type": "uint256"
        }
      ],
      "name": "getIsCancelled",
      "outputs": [
        {
          "internalType": "bool",
          "name": "",
          "type": "bool"
        }
      ],
      "stateMutability": "pure",
      "type": "function",
      "constant": true
    },
    {
      "inputs": [
        {
          "internalType": "uint256",
          "name": "encodedSkills",
          "type": "uint256"
        }
      ],
      "name": "getIsSpecial",
      "outputs": [
        {
          "internalType": "bool",
          "name": "",
          "type": "bool"
        }
      ],
      "stateMutability": "pure",
      "type": "function",
      "constant": true
    },
    {
      "inputs": [
        {
          "internalType": "uint256",
          "name": "tactics",
          "type": "uint256"
        }
      ],
      "name": "getItemsData",
      "outputs": [
        {
          "internalType": "uint8[25]",
          "name": "staminas",
          "type": "uint8[25]"
        },
        {
          "internalType": "uint16",
          "name": "",
          "type": "uint16"
        },
        {
          "internalType": "uint32",
          "name": "",
          "type": "uint32"
        }
      ],
      "stateMutability": "pure",
      "type": "function",
      "constant": true
    },
    {
      "inputs": [
        {
          "internalType": "uint256",
          "name": "encodedSkills",
          "type": "uint256"
        }
      ],
      "name": "getLeftishness",
      "outputs": [
        {
          "internalType": "uint256",
          "name": "",
          "type": "uint256"
        }
      ],
      "stateMutability": "pure",
      "type": "function",
      "constant": true
    },
    {
      "inputs": [
        {
          "internalType": "uint256",
          "name": "tactics",
          "type": "uint256"
        },
        {
          "internalType": "uint8",
          "name": "p",
          "type": "uint8"
        }
      ],
      "name": "getLinedUp",
      "outputs": [
        {
          "internalType": "uint8",
          "name": "",
          "type": "uint8"
        }
      ],
      "stateMutability": "pure",
      "type": "function",
      "constant": true
    },
    {
      "inputs": [
        {
          "internalType": "uint8[9]",
          "name": "playersPerZone",
          "type": "uint8[9]"
        }
      ],
      "name": "getNAttackers",
      "outputs": [
        {
          "internalType": "uint8",
          "name": "",
          "type": "uint8"
        }
      ],
      "stateMutability": "pure",
      "type": "function",
      "constant": true
    },
    {
      "inputs": [
        {
          "internalType": "uint8[9]",
          "name": "playersPerZone",
          "type": "uint8[9]"
        }
      ],
      "name": "getNDefenders",
      "outputs": [
        {
          "internalType": "uint8",
          "name": "",
          "type": "uint8"
        }
      ],
      "stateMutability": "pure",
      "type": "function",
      "constant": true
    },
    {
      "inputs": [
        {
          "internalType": "uint256",
          "name": "tactics",
          "type": "uint256"
        }
      ],
      "name": "getNDefendersFromTactics",
      "outputs": [
        {
          "internalType": "uint8",
          "name": "",
          "type": "uint8"
        }
      ],
      "stateMutability": "pure",
      "type": "function",
      "constant": true
    },
    {
      "inputs": [
        {
          "internalType": "uint256",
          "name": "log",
          "type": "uint256"
        }
      ],
      "name": "getNGoals",
      "outputs": [
        {
          "internalType": "uint8",
          "name": "",
          "type": "uint8"
        }
      ],
      "stateMutability": "pure",
      "type": "function",
      "constant": true
    },
    {
      "inputs": [
        {
          "internalType": "uint8[9]",
          "name": "playersPerZone",
          "type": "uint8[9]"
        }
      ],
      "name": "getNMidfielders",
      "outputs": [
        {
          "internalType": "uint8",
          "name": "",
          "type": "uint8"
        }
      ],
      "stateMutability": "pure",
      "type": "function",
      "constant": true
    },
    {
      "inputs": [
        {
          "internalType": "uint256",
          "name": "seed",
          "type": "uint256"
        },
        {
          "internalType": "uint8",
          "name": "nRnds",
          "type": "uint8"
        }
      ],
      "name": "getNRandsFromSeed",
      "outputs": [
        {
          "internalType": "uint64[]",
          "name": "",
          "type": "uint64[]"
        }
      ],
      "stateMutability": "pure",
      "type": "function",
      "constant": true
    },
    {
      "inputs": [
        {
          "internalType": "uint256",
          "name": "encodedSkills",
          "type": "uint256"
        }
      ],
      "name": "getOutOfGameFirstHalf",
      "outputs": [
        {
          "internalType": "bool",
          "name": "",
          "type": "bool"
        }
      ],
      "stateMutability": "pure",
      "type": "function",
      "constant": true
    },
    {
      "inputs": [
        {
          "internalType": "uint256",
          "name": "log",
          "type": "uint256"
        },
        {
          "internalType": "bool",
          "name": "is2ndHalf",
          "type": "bool"
        }
      ],
      "name": "getOutOfGamePlayer",
      "outputs": [
        {
          "internalType": "uint256",
          "name": "",
          "type": "uint256"
        }
      ],
      "stateMutability": "pure",
      "type": "function",
      "constant": true
    },
    {
      "inputs": [
        {
          "internalType": "uint256",
          "name": "log",
          "type": "uint256"
        },
        {
          "internalType": "bool",
          "name": "is2ndHalf",
          "type": "bool"
        }
      ],
      "name": "getOutOfGameRound",
      "outputs": [
        {
          "internalType": "uint256",
          "name": "",
          "type": "uint256"
        }
      ],
      "stateMutability": "pure",
      "type": "function",
      "constant": true
    },
    {
      "inputs": [
        {
          "internalType": "uint256",
          "name": "log",
          "type": "uint256"
        },
        {
          "internalType": "bool",
          "name": "is2ndHalf",
          "type": "bool"
        }
      ],
      "name": "getOutOfGameType",
      "outputs": [
        {
          "internalType": "uint256",
          "name": "",
          "type": "uint256"
        }
      ],
      "stateMutability": "pure",
      "type": "function",
      "constant": true
    },
    {
      "inputs": [
        {
          "internalType": "uint256",
          "name": "encodedSkills",
          "type": "uint256"
        }
      ],
      "name": "getPlayerIdFromSkills",
      "outputs": [
        {
          "internalType": "uint256",
          "name": "",
          "type": "uint256"
        }
      ],
      "stateMutability": "pure",
      "type": "function",
      "constant": true
    },
    {
      "inputs": [
        {
          "internalType": "uint256",
          "name": "tactics",
          "type": "uint256"
        }
      ],
      "name": "getPlayersPerZone",
      "outputs": [
        {
          "internalType": "uint8[9]",
          "name": "",
          "type": "uint8[9]"
        }
      ],
      "stateMutability": "pure",
      "type": "function",
      "constant": true
    },
    {
      "inputs": [
        {
          "internalType": "uint256",
          "name": "encodedSkills",
          "type": "uint256"
        }
      ],
      "name": "getPotential",
      "outputs": [
        {
          "internalType": "uint256",
          "name": "",
          "type": "uint256"
        }
      ],
      "stateMutability": "pure",
      "type": "function",
      "constant": true
    },
    {
      "inputs": [
        {
          "internalType": "uint256",
          "name": "encodedSkills",
          "type": "uint256"
        }
      ],
      "name": "getRedCardLastGame",
      "outputs": [
        {
          "internalType": "bool",
          "name": "",
          "type": "bool"
        }
      ],
      "stateMutability": "pure",
      "type": "function",
      "constant": true
    },
    {
      "inputs": [
        {
          "internalType": "uint256",
          "name": "encodedSkills",
          "type": "uint256"
        },
        {
          "internalType": "uint8",
          "name": "skillIdx",
          "type": "uint8"
        }
      ],
      "name": "getSkill",
      "outputs": [
        {
          "internalType": "uint256",
          "name": "",
          "type": "uint256"
        }
      ],
      "stateMutability": "pure",
      "type": "function",
      "constant": true
    },
    {
      "inputs": [
        {
          "internalType": "uint256",
          "name": "tactics",
          "type": "uint256"
        },
        {
          "internalType": "uint8",
          "name": "p",
          "type": "uint8"
        }
      ],
      "name": "getSubsRound",
      "outputs": [
        {
          "internalType": "uint8",
          "name": "",
          "type": "uint8"
        }
      ],
      "stateMutability": "pure",
      "type": "function",
      "constant": true
    },
    {
      "inputs": [
        {
          "internalType": "uint256",
          "name": "encodedSkills",
          "type": "uint256"
        }
      ],
      "name": "getSubstitutedFirstHalf",
      "outputs": [
        {
          "internalType": "bool",
          "name": "",
          "type": "bool"
        }
      ],
      "stateMutability": "pure",
      "type": "function",
      "constant": true
    },
    {
      "inputs": [
        {
          "internalType": "uint256",
          "name": "tactics",
          "type": "uint256"
        },
        {
          "internalType": "uint8",
          "name": "p",
          "type": "uint8"
        }
      ],
      "name": "getSubstitution",
      "outputs": [
        {
          "internalType": "uint8",
          "name": "",
          "type": "uint8"
        }
      ],
      "stateMutability": "pure",
      "type": "function",
      "constant": true
    },
    {
      "inputs": [
        {
          "internalType": "uint256",
          "name": "encodedSkills",
          "type": "uint256"
        }
      ],
      "name": "getSumOfSkills",
      "outputs": [
        {
          "internalType": "uint256",
          "name": "",
          "type": "uint256"
        }
      ],
      "stateMutability": "pure",
      "type": "function",
      "constant": true
    },
    {
      "inputs": [
        {
          "internalType": "uint256",
          "name": "tactics",
          "type": "uint256"
        }
      ],
      "name": "getTacticsId",
      "outputs": [
        {
          "internalType": "uint8",
          "name": "",
          "type": "uint8"
        }
      ],
      "stateMutability": "pure",
      "type": "function",
      "constant": true
    },
    {
      "inputs": [
        {
          "internalType": "uint256",
          "name": "log",
          "type": "uint256"
        },
        {
          "internalType": "uint8",
          "name": "posInHaf",
          "type": "uint8"
        },
        {
          "internalType": "bool",
          "name": "is2ndHalf",
          "type": "bool"
        }
      ],
      "name": "getYellowCard",
      "outputs": [
        {
          "internalType": "uint8",
          "name": "",
          "type": "uint8"
        }
      ],
      "stateMutability": "pure",
      "type": "function",
      "constant": true
    },
    {
      "inputs": [
        {
          "internalType": "uint256",
          "name": "encodedSkills",
          "type": "uint256"
        }
      ],
      "name": "getYellowCardFirstHalf",
      "outputs": [
        {
          "internalType": "bool",
          "name": "",
          "type": "bool"
        }
      ],
      "stateMutability": "pure",
      "type": "function",
      "constant": true
    },
    {
      "inputs": [
        {
          "internalType": "uint256",
          "name": "log",
          "type": "uint256"
        },
        {
          "internalType": "uint8",
          "name": "nChanges",
          "type": "uint8"
        }
      ],
      "name": "setChangesAtHalfTime",
      "outputs": [
        {
          "internalType": "uint256",
          "name": "",
          "type": "uint256"
        }
      ],
      "stateMutability": "pure",
      "type": "function",
      "constant": true
    },
    {
      "inputs": [
        {
          "internalType": "uint256",
          "name": "log",
          "type": "uint256"
        },
        {
          "internalType": "uint8",
          "name": "happenedType",
          "type": "uint8"
        },
        {
          "internalType": "uint8",
          "name": "posInHalf",
          "type": "uint8"
        },
        {
          "internalType": "bool",
          "name": "is2ndHalf",
          "type": "bool"
        }
      ],
      "name": "setInGameSubsHappened",
      "outputs": [
        {
          "internalType": "uint256",
          "name": "",
          "type": "uint256"
        }
      ],
      "stateMutability": "pure",
      "type": "function",
      "constant": true
    },
    {
      "inputs": [
        {
          "internalType": "uint256",
          "name": "log",
          "type": "uint256"
        },
        {
          "internalType": "bool",
          "name": "val",
          "type": "bool"
        }
      ],
      "name": "setIsCancelled",
      "outputs": [
        {
          "internalType": "uint256",
          "name": "",
          "type": "uint256"
        }
      ],
      "stateMutability": "pure",
      "type": "function",
      "constant": true
    },
    {
      "inputs": [
        {
          "internalType": "uint256",
          "name": "log",
          "type": "uint256"
        },
        {
          "internalType": "bool",
          "name": "val",
          "type": "bool"
        }
      ],
      "name": "setIsHomeStadium",
      "outputs": [
        {
          "internalType": "uint256",
          "name": "",
          "type": "uint256"
        }
      ],
      "stateMutability": "pure",
      "type": "function",
      "constant": true
    },
    {
      "inputs": [
        {
          "internalType": "uint256",
          "name": "tactics",
          "type": "uint256"
        },
        {
          "internalType": "uint32",
          "name": "val",
          "type": "uint32"
        }
      ],
      "name": "setItemBoost",
      "outputs": [
        {
          "internalType": "uint256",
          "name": "",
          "type": "uint256"
        }
      ],
      "stateMutability": "pure",
      "type": "function",
      "constant": true
    },
    {
      "inputs": [
        {
          "internalType": "uint256",
          "name": "tactics",
          "type": "uint256"
        },
        {
          "internalType": "uint16",
          "name": "val",
          "type": "uint16"
        }
      ],
      "name": "setItemId",
      "outputs": [
        {
          "internalType": "uint256",
          "name": "",
          "type": "uint256"
        }
      ],
      "stateMutability": "pure",
      "type": "function",
      "constant": true
    },
    {
      "inputs": [
        {
          "internalType": "uint256",
          "name": "log",
          "type": "uint256"
        },
        {
          "internalType": "uint8",
          "name": "player",
          "type": "uint8"
        },
        {
          "internalType": "uint8",
          "name": "round",
          "type": "uint8"
        },
        {
          "internalType": "uint8",
          "name": "typeOfOutOfGame",
          "type": "uint8"
        },
        {
          "internalType": "bool",
          "name": "is2ndHalf",
          "type": "bool"
        }
      ],
      "name": "setOutOfGame",
      "outputs": [
        {
          "internalType": "uint256",
          "name": "",
          "type": "uint256"
        }
      ],
      "stateMutability": "pure",
      "type": "function",
      "constant": true
    },
    {
      "inputs": [
        {
          "internalType": "uint256",
          "name": "tactics",
          "type": "uint256"
        },
        {
          "internalType": "uint8[25]",
          "name": "vals",
          "type": "uint8[25]"
        }
      ],
      "name": "setStaminaRecovery",
      "outputs": [
        {
          "internalType": "uint256",
          "name": "",
          "type": "uint256"
        }
      ],
      "stateMutability": "pure",
      "type": "function",
      "constant": true
    },
    {
      "inputs": [
        {
          "internalType": "uint256",
          "name": "weight0",
          "type": "uint256"
        },
        {
          "internalType": "uint256",
          "name": "weight1",
          "type": "uint256"
        },
        {
          "internalType": "uint256",
          "name": "rndNum",
          "type": "uint256"
        }
      ],
      "name": "throwDice",
      "outputs": [
        {
          "internalType": "uint8",
          "name": "",
          "type": "uint8"
        }
      ],
      "stateMutability": "pure",
      "type": "function",
      "constant": true
    },
    {
      "inputs": [
        {
          "internalType": "uint256[]",
          "name": "weights",
          "type": "uint256[]"
        },
        {
          "internalType": "uint256",
          "name": "rndNum",
          "type": "uint256"
        }
      ],
      "name": "throwDiceArray",
      "outputs": [
        {
          "internalType": "uint8",
          "name": "w",
          "type": "uint8"
        }
      ],
      "stateMutability": "pure",
      "type": "function",
      "constant": true
    },
    {
      "inputs": [
        {
          "internalType": "uint256",
          "name": "seed",
          "type": "uint256"
        },
        {
          "internalType": "uint256",
          "name": "matchStartTime",
          "type": "uint256"
        },
        {
          "internalType": "uint256[25][2]",
          "name": "skills",
          "type": "uint256[25][2]"
        },
        {
          "internalType": "uint256[2]",
          "name": "tactics",
          "type": "uint256[2]"
        },
        {
          "internalType": "uint256[2]",
          "name": "matchLogs",
          "type": "uint256[2]"
        },
        {
          "internalType": "bool[5]",
          "name": "matchBools",
          "type": "bool[5]"
        }
      ],
      "name": "playHalfMatch",
      "outputs": [
        {
          "internalType": "uint256[62]",
          "name": "",
          "type": "uint256[62]"
        },
        {
          "internalType": "uint8",
          "name": "err",
          "type": "uint8"
        }
      ],
      "stateMutability": "view",
      "type": "function",
      "constant": true
    },
    {
      "inputs": [
        {
          "internalType": "uint256[62]",
          "name": "seedAndStartTimeAndEvents",
          "type": "uint256[62]"
        },
        {
          "internalType": "uint256[25][2]",
          "name": "skills",
          "type": "uint256[25][2]"
        },
        {
          "internalType": "uint256[2]",
          "name": "tactics",
          "type": "uint256[2]"
        },
        {
          "internalType": "uint256[2]",
          "name": "matchLogs",
          "type": "uint256[2]"
        },
        {
          "internalType": "bool[5]",
          "name": "matchBools",
          "type": "bool[5]"
        }
      ],
      "name": "playMatchWithoutPenalties",
      "outputs": [
        {
          "internalType": "uint256[2]",
          "name": "",
          "type": "uint256[2]"
        },
        {
          "internalType": "uint256[2]",
          "name": "",
          "type": "uint256[2]"
        },
        {
          "internalType": "uint8",
          "name": "err",
          "type": "uint8"
        }
      ],
      "stateMutability": "view",
      "type": "function",
      "constant": true
    },
    {
      "inputs": [
        {
          "internalType": "uint256[2]",
          "name": "matchLogs",
          "type": "uint256[2]"
        },
        {
          "internalType": "uint256[62]",
          "name": "seedAndStartTimeAndEvents",
          "type": "uint256[62]"
        },
        {
          "internalType": "uint256[25][2]",
          "name": "skills",
          "type": "uint256[25][2]"
        },
        {
          "internalType": "uint256[2]",
          "name": "tactics",
          "type": "uint256[2]"
        },
        {
          "internalType": "uint256[5][2]",
          "name": "globSkills",
          "type": "uint256[5][2]"
        },
        {
          "internalType": "bool",
          "name": "is2ndHalf",
          "type": "bool"
        }
      ],
      "name": "computeRounds",
      "outputs": [],
      "stateMutability": "view",
      "type": "function",
      "constant": true
    },
    {
      "inputs": [
        {
          "internalType": "bool",
          "name": "isPen",
          "type": "bool"
        },
        {
          "internalType": "uint256",
          "name": "blockShoot",
          "type": "uint256"
        },
        {
          "internalType": "uint256",
          "name": "skillsGK",
          "type": "uint256"
        }
      ],
      "name": "getRelevantGKSkill",
      "outputs": [
        {
          "internalType": "uint256",
          "name": "",
          "type": "uint256"
        }
      ],
      "stateMutability": "pure",
      "type": "function",
      "constant": true
    },
    {
      "inputs": [
        {
          "internalType": "uint64",
          "name": "rnd",
          "type": "uint64"
        }
      ],
      "name": "computeIsPenalty",
      "outputs": [
        {
          "internalType": "bool",
          "name": "",
          "type": "bool"
        }
      ],
      "stateMutability": "pure",
      "type": "function",
      "constant": true
    },
    {
      "inputs": [
        {
          "internalType": "uint256[2]",
          "name": "matchLogs",
          "type": "uint256[2]"
        },
        {
          "internalType": "bool",
          "name": "is2ndHalf",
          "type": "bool"
        }
      ],
      "name": "getOutOfGameData",
      "outputs": [
        {
          "internalType": "uint256[3][2]",
          "name": "outOfGameData",
          "type": "uint256[3][2]"
        }
      ],
      "stateMutability": "pure",
      "type": "function",
      "constant": true
    },
    {
      "inputs": [
        {
          "internalType": "uint256[25]",
          "name": "skills",
          "type": "uint256[25]"
        },
        {
          "internalType": "uint256",
          "name": "tactics",
          "type": "uint256"
        },
        {
          "internalType": "bool",
          "name": "is2ndHalf",
          "type": "bool"
        },
        {
          "internalType": "uint256",
          "name": "matchLog",
          "type": "uint256"
        },
        {
          "internalType": "uint256",
          "name": "seed",
          "type": "uint256"
        },
        {
          "internalType": "bool",
          "name": "isBot",
          "type": "bool"
        }
      ],
      "name": "getLinedUpSkillsAndOutOfGames",
      "outputs": [
        {
          "internalType": "uint256",
          "name": "",
          "type": "uint256"
        },
        {
          "internalType": "uint256[25]",
          "name": "linedUpSkills",
          "type": "uint256[25]"
        },
        {
          "internalType": "uint8",
          "name": "err",
          "type": "uint8"
        }
      ],
      "stateMutability": "view",
      "type": "function",
      "constant": true
    },
    {
      "inputs": [
        {
          "internalType": "uint256",
          "name": "matchLog",
          "type": "uint256"
        },
        {
          "internalType": "uint256[25]",
          "name": "skills",
          "type": "uint256[25]"
        },
        {
          "internalType": "uint8",
          "name": "nDefsInTactics",
          "type": "uint8"
        },
        {
          "internalType": "bool",
          "name": "is2ndHalf",
          "type": "bool"
        }
      ],
      "name": "computeNGKAndDefs",
      "outputs": [
        {
          "internalType": "uint256",
          "name": "",
          "type": "uint256"
        }
      ],
      "stateMutability": "pure",
      "type": "function",
      "constant": true
    },
    {
      "inputs": [
        {
          "internalType": "uint256[5]",
          "name": "skillsTeamA",
          "type": "uint256[5]"
        },
        {
          "internalType": "uint256[5]",
          "name": "skillsTeamB",
          "type": "uint256[5]"
        },
        {
          "internalType": "uint256[2]",
          "name": "matchLogs",
          "type": "uint256[2]"
        }
      ],
      "name": "teamsGetTired",
      "outputs": [
        {
          "internalType": "uint256[5]",
          "name": "",
          "type": "uint256[5]"
        },
        {
          "internalType": "uint256[5]",
          "name": "",
          "type": "uint256[5]"
        }
      ],
      "stateMutability": "pure",
      "type": "function",
      "constant": true
    },
    {
      "inputs": [
        {
          "internalType": "uint256[2]",
          "name": "matchLogs",
          "type": "uint256[2]"
        },
        {
          "internalType": "uint8",
          "name": "teamThatAttacks",
          "type": "uint8"
        },
        {
          "internalType": "uint256[5][2]",
          "name": "globSkills",
          "type": "uint256[5][2]"
        },
        {
          "internalType": "uint256",
          "name": "rndNum",
          "type": "uint256"
        }
      ],
      "name": "managesToShoot",
      "outputs": [
        {
          "internalType": "bool",
          "name": "",
          "type": "bool"
        }
      ],
      "stateMutability": "pure",
      "type": "function",
      "constant": true
    },
    {
      "inputs": [
        {
          "internalType": "uint256[25]",
          "name": "skills",
          "type": "uint256[25]"
        },
        {
          "internalType": "uint8[9]",
          "name": "playersPerZone",
          "type": "uint8[9]"
        },
        {
          "internalType": "bool[10]",
          "name": "extraAttack",
          "type": "bool[10]"
        },
        {
          "internalType": "uint8",
          "name": "shooter",
          "type": "uint8"
        },
        {
          "internalType": "uint256",
          "name": "rnd",
          "type": "uint256"
        }
      ],
      "name": "selectAssister",
      "outputs": [
        {
          "internalType": "uint8",
          "name": "",
          "type": "uint8"
        }
      ],
      "stateMutability": "pure",
      "type": "function",
      "constant": true
    },
    {
      "inputs": [
        {
          "internalType": "uint256[25]",
          "name": "skills",
          "type": "uint256[25]"
        },
        {
          "internalType": "uint8[9]",
          "name": "playersPerZone",
          "type": "uint8[9]"
        },
        {
          "internalType": "bool[10]",
          "name": "extraAttack",
          "type": "bool[10]"
        },
        {
          "internalType": "uint256",
          "name": "rnd",
          "type": "uint256"
        }
      ],
      "name": "selectShooter",
      "outputs": [
        {
          "internalType": "uint8",
          "name": "",
          "type": "uint8"
        }
      ],
      "stateMutability": "pure",
      "type": "function",
      "constant": true
    },
    {
      "inputs": [
        {
          "internalType": "uint256",
          "name": "matchLog",
          "type": "uint256"
        },
        {
          "internalType": "uint256[25]",
          "name": "skills",
          "type": "uint256[25]"
        },
        {
          "internalType": "uint8[9]",
          "name": "playersPerZone",
          "type": "uint8[9]"
        },
        {
          "internalType": "bool[10]",
          "name": "extraAttack",
          "type": "bool[10]"
        },
        {
          "internalType": "uint256",
          "name": "blockShoot",
          "type": "uint256"
        },
        {
          "internalType": "bool",
          "name": "isPenalty",
          "type": "bool"
        },
        {
          "internalType": "uint64[3]",
          "name": "rnds",
          "type": "uint64[3]"
        }
      ],
      "name": "managesToScore",
      "outputs": [
        {
          "internalType": "uint256[4]",
          "name": "scoreData",
          "type": "uint256[4]"
        }
      ],
      "stateMutability": "pure",
      "type": "function",
      "constant": true
    },
    {
      "inputs": [
        {
          "internalType": "uint8",
          "name": "posInLineUp",
          "type": "uint8"
        },
        {
          "internalType": "uint8[9]",
          "name": "playersPerZone",
          "type": "uint8[9]"
        }
      ],
      "name": "getForwardPosFromPlayersPerZone",
      "outputs": [
        {
          "internalType": "uint8",
          "name": "",
          "type": "uint8"
        }
      ],
      "stateMutability": "pure",
      "type": "function",
      "constant": true
    },
    {
      "inputs": [
        {
          "internalType": "uint256[25]",
          "name": "skills",
          "type": "uint256[25]"
        }
      ],
      "name": "getBestShooter",
      "outputs": [
        {
          "internalType": "uint8",
          "name": "bestShooter",
          "type": "uint8"
        }
      ],
      "stateMutability": "pure",
      "type": "function",
      "constant": true
    }
  ],
  "bytecode": "0x608060405234801561001057600080fd5b506040516200490d3803806200490d8339818101604052604081101561003557600080fd5b508051602090910151600080546001600160a01b039384166001600160a01b03199182161790915560018054939092169216919091179055614890806200007d6000396000f3fe608060405234801561001057600080fd5b506004361061054a5760003560e01c80638b5c3ff0116102ca578063bd3548461161018d578063df1beecb116100f4578063ec01f848116100ad578063f780e88511610087578063f780e88514611c82578063f81c7a4514611cd6578063f8ef7b9e14610a2b578063fb98536914611cfc5761054a565b8063ec01f84814611c1d578063f2c3576414611c48578063f2dc657f14611c655761054a565b8063df1beecb14611b64578063e37528bb14611b97578063e4eec4be14611bb4578063e804e51914611bda578063e81e21bb14611994578063e9b6645414611bf75761054a565b8063cbbfac6611610146578063cbbfac6614611aba578063cc7d473b14611ae8578063d1b3d8fd14611b05578063d2f7967d14611b22578063d5a4d6c014611b3f578063d7b63a11146119945761054a565b8063bd35484614611994578063be8fcecb1461199c578063bf8bf719146119f5578063c2bc41cd14611a23578063c648185514611a40578063ca7678fb14611a665761054a565b8063a1c3c9b111610231578063aff4e618116101ea578063aff4e618146116bb578063b1c2c8a31461176b578063b2a0425614611799578063b8100e57146117d7578063b86d445114611800578063ba8dfa46146119775761054a565b8063a1c3c9b11461155e578063a7d0238a146115c1578063aa1508ce146115ef578063ab1b7c5e146114a1578063af15ace3146115f7578063afbdb922146116145761054a565b8063989aa22211610283578063989aa222146114555780639c669166146114785780639cc62340146114a15780639f7d3b7f146114a9578063a12dd140146114cf578063a14f9a79146115025761054a565b80638b5c3ff01461126e5780638b6f120f1461132a5780638f3db4361461135d5780639031ef9c14611365578063919e27621461141d578063976daaac1461135d5761054a565b806347524b6011610412578063658d2da51161037957806375886dcc1161033257806375886dcc1461119d57806376f96f42146111c357806379e76597146111f15780637a8409b31461120e5780637d3921cd146112345780637ffa3a2e146112515761054a565b8063658d2da514610ecb578063665d00e214610ee85780636f30b06f146110395780636f6c2ae0146111155780637420a60614610a3b578063755bfe0d146111325761054a565b806356e3df97116103cb57806356e3df9714610c61578063573ca8f814610c7e5780635762301d14610cd25780635ac78b1114610e375780635bdc6b5814610e65578063638a530714610e935761054a565b806347524b6014610a60578063494dd3f414610a915780634c0b044a14610ab65780634cc3e34f14610ae45780634d17bf6114610b0a5780634e5bb9ca14610b5e5761054a565b806323a37a15116104b65780633518dd1d1161046f5780633518dd1d146109f157806335515f7814610a0e578063369151db14610a2b5780633c23306414610a3357806340cd05fd14610a3b578063434807ad14610a435761054a565b806323a37a15146108e65780632777d02a146108ee57806329d0dcfb146109155780632a3328f61461093b5780632bdc66a0146109605780632eb7cfa7146109685761054a565b80630feefab3116105085780630feefab31461072e5780631060c9c21461081857806310bca22c14610835578063185e456f146108a45780631884332c1461054f5780631fc7768f146108c95761054a565b80623e32231461054f57806305db3d081461056d57806305f0bb7b146106235780630ae78a39146106495780630b489b02146106935780630f14aef414610709575b600080fd5b610557611da1565b6040805160ff9092168252519081900360200190f35b61055760048036036105c081101561058457600080fd5b81019080806103200190601980602002604051908101604052809291908260196020028082843760009201919091525050604080516101208181019092529295949381810193925090600990839083908082843760009201919091525050604080516101408181019092529295949381810193925090600a9083908390808284376000920191909152509194505060ff82351692505060200135611da6565b6105576004803603604081101561063957600080fd5b508035906020013560ff1661207d565b6106816004803603608081101561065f57600080fd5b5080359060ff6020820135811691604081013590911690606001351515612094565b60408051918252519081900360200190f35b6106b9600480360360408110156106a957600080fd5b508035906020013560ff166120d2565b60408051602080825283518183015283519192839290830191858101910280838360005b838110156106f55781810151838201526020016106dd565b505050509050019250505060405180910390f35b6106816004803603604081101561071f57600080fd5b508035906020013515156121c6565b6107d6600480360361018081101561074557600080fd5b810190808060a001906005806020026040519081016040528092919082600560200280828437600092019190915250506040805160a08181019092529295949381810193925090600590839083908082843760009201919091525050604080518082018252929594938181019392509060029083908390808284376000920191909152509194506121f09350505050565b604051808360a080838360005b838110156107fb5781810151838201526020016107e3565b505086519290940191825250915083905060a080838360206106dd565b6106816004803603602081101561082e57600080fd5b50356122e6565b6108526004803603602081101561084b57600080fd5b50356122f6565b604051808461032080838360005b83811015610878578181015183820152602001610860565b50505061ffff90961692019182525063ffffffff90921660208301525060408051918290030192509050f35b610681600480360360408110156108ba57600080fd5b5080359060200135151561235f565b610681600480360360208110156108df57600080fd5b5035612389565b610557612392565b6106816004803603604081101561090457600080fd5b508035906020013561ffff16612397565b6106816004803603604081101561092b57600080fd5b508035906020013560ff1661240d565b6106816004803603604081101561095157600080fd5b5080359060200135151561241c565b61068161243f565b6109b66004803603606081101561097e57600080fd5b6040805180820182529183019291818301918390600290839083908082843760009201919091525091945050503560ff169050612448565b6040518082600260200280838360005b838110156109de5781810151838201526020016109c6565b5050505090500191505060405180910390f35b61068160048036036020811015610a0757600080fd5b5035612486565b61055760048036036020811015610a2457600080fd5b503561248f565b610557612495565b61055761249a565b61055761249f565b61068160048036036020811015610a5957600080fd5b50356124a4565b610a7d60048036036020811015610a7657600080fd5b50356124ad565b604080519115158252519081900360200190f35b61068160048036036040811015610aa757600080fd5b508035906020013515156124b9565b61068160048036036060811015610acc57600080fd5b5080359060ff602082013516906040013515156124e3565b61068160048036036040811015610afa57600080fd5b508035906020013560ff1661250c565b6105576004803603610320811015610b2157600080fd5b81019080806103200190601980602002604051908101604052809291908260196020028082843760009201919091525091945061251c9350505050565b610c4c6004803603610640811015610b7557600080fd5b604080516103208181019092528335939283019291610340830191906020840190601990839083908082843760009201919091525050604080516101208181019092529295949381810193925090600990839083908082843760009201919091525050604080516101408181019092529295949381810193925090600a90839083908082843760009201919091525050604080516060818101835293968535966020870135151596919590945060a082019390910190600390839083908082843760009201919091525091945061256f9350505050565b604051815181528082608080838360206109c6565b61068160048036036020811015610c7757600080fd5b5035612726565b6105576004803603610120811015610c9557600080fd5b81019080806101200190600980602002604051908101604052809291908260096020028082843760009201919091525091945061272f9350505050565b610e356004803603610fe0811015610ce957600080fd5b6040805180820182529183019291818301918390600290839083908082843760009201919091525050604080516107c08181019092529295949381810193925090603e9083908390808284376000920182905250604080518082019091529396959461064081019493509150600290835b82821015610d9c576040805161032081810190925290808402860190601990839083908082843760009201919091525050508152600190910190602001610d5a565b505060408051808201825293969594818101949350915060029083908390808284376000920182905250604080518082019091529396959461014081019493509150600290835b82821015610e24576040805160a081810190925290808402860190600590839083908082843760009201919091525050508152600190910190602001610de3565b509295505050503515159050612749565b005b61068160048036036060811015610e4d57600080fd5b5080359060ff60208201358116916040013516612cff565b61055760048036036060811015610e7b57600080fd5b5080359060ff60208201351690604001351515612d14565b610eb660048036036020811015610ea957600080fd5b503563ffffffff16612d44565b60405181518152808260c080838360206109c6565b610a7d60048036036020811015610ee157600080fd5b5035612d97565b610ff360048036036107a0811015610eff57600080fd5b6040805180820182528335936020810135938101929091610680830191830160026000835b82821015610f66576040805161032081810190925290808402860190601990839083908082843760009201919091525050508152600190910190602001610f24565b505060408051808201825293969594818101949350915060029083908390808284376000920191909152505060408051808201825292959493818101939250906002908390839080828437600092019190915250506040805160a081810190925292959493818101939250906005908390839080828437600092019190915250919450612da39350505050565b60405180836107c080838360005b83811015611019578181015183820152602001611001565b505050509050018260ff1660ff1681526020019250505060405180910390f35b61068160048036036103e081101561105057600080fd5b8101908080606001906003806020026040519081016040528092919082600360200280828437600092019190915250506040805160608181019092529295949381810193925090600390839083908082843760009201919091525050604080516101c08181019092529295949381810193925090600e90839083908082843760009201919091525050604080516101408181019092529295949381810193925090600a90839083908082843760009201919091525091945050503560ff169050613001565b6106816004803603602081101561112b57600080fd5b5035613325565b611184600480360360c081101561114857600080fd5b810190808060c0019060068060200260405190810160405280929190826006602002808284376000920191909152509194506133469350505050565b6040805163ffffffff9092168252519081900360200190f35b610a7d600480360360208110156111b357600080fd5b50356001600160401b03166133cc565b610681600480360360608110156111d957600080fd5b5080359060ff602082013581169160400135166133df565b6105576004803603602081101561120757600080fd5b50356133f5565b6105576004803603604081101561122457600080fd5b508035906020013560ff166133fe565b6105576004803603602081101561124a57600080fd5b503561340e565b610a7d6004803603602081101561126757600080fd5b5035613414565b6112dd60048036036103c081101561128557600080fd5b8101908080610320019060198060200260405190810160405280929190826019602002808284376000920191909152509194505081359250506020810135151590604081013590606081013590608001351515613420565b604051838152602081018361032080838360005b838110156113095781810151838201526020016112f1565b505050509050018260ff1660ff168152602001935050505060405180910390f35b6113476004803603602081101561134057600080fd5b503561369c565b6040518151815280826101c080838360206109c6565b6105576136e7565b610a7d60048036036101c081101561137c57600080fd5b60408051808201825291830192918183019183906002908390839080828437600092018290525060408051808201909152939660ff863516969095909461016082019450925060200190600290835b8282101561140c576040805160a0818101909252908084028601906005908390839080828437600092019190915250505081526001909101906020016113cb565b5092955050913592506136ec915050565b6106816004803603608081101561143357600080fd5b5080359060ff60208201358116916040810135909116906060013515156137ca565b6106816004803603604081101561146b57600080fd5b50803590602001356137f8565b6105576004803603606081101561148e57600080fd5b50803590602081013590604001356137ff565b61055761383f565b610681600480360360408110156114bf57600080fd5b508035906020013560ff16613844565b6114ec600480360360208110156114e557600080fd5b5035613851565b60405181518152808261012080838360206109c6565b610557600480360361014081101561151957600080fd5b6040805161012081810190925260ff8435169392830192916101408301919060208401906009908390839080828437600092019190915250919450613baa9350505050565b610681600480360361038081101561157557600080fd5b60408051610320818101909252833593928301929161034083019190602084019060199083908390808284376000920191909152509194505060ff823516925050602001351515613c10565b610681600480360360608110156115d757600080fd5b5080359060ff60208201358116916040013516613c64565b610557613c7a565b6105576004803603602081101561160d57600080fd5b5035613c7f565b6116616004803603606081101561162a57600080fd5b6040805180820182529183019291818301918390600290839083908082843760009201919091525091945050503515159050613ca4565b6040516000826002835b818410156116ab5760208402830151606080838360005b8381101561169a578181015183820152602001611682565b50505050905001926001019261166b565b9250505091505060405180910390f35b61055760048036036105a08110156116d257600080fd5b81019080806103200190601980602002604051908101604052809291908260196020028082843760009201919091525050604080516101208181019092529295949381810193925090600990839083908082843760009201919091525050604080516101408181019092529295949381810193925090600a9083908390808284376000920191909152509194505090359150613d699050565b6105576004803603606081101561178157600080fd5b5080359060ff60208201351690604001351515613f17565b610681600480360360a08110156117af57600080fd5b5080359060ff6020820135811691604081013582169160608201351690608001351515613f44565b610681600480360360408110156117ed57600080fd5b508035906020013563ffffffff16613f97565b6119326004803603610f2081101561181757600080fd5b81019080806107c00190603e806020026040519081016040528092919082603e602002808284376000920182905250604080518082019091529396959461064081019493509150600290835b828210156118a5576040805161032081810190925290808402860190601990839083908082843760009201919091525050508152600190910190602001611863565b505060408051808201825293969594818101949350915060029083908390808284376000920191909152505060408051808201825292959493818101939250906002908390839080828437600092019190915250506040805160a081810190925292959493818101939250906005908390839080828437600092019190915250919450613fb49350505050565b6040518084600260200280838360005b8381101561195a578181015183820152602001611942565b5050875192909401918252509150849050604080838360206112f1565b6105576004803603602081101561198d57600080fd5b50356142d4565b6105576142dd565b61068160048036036103408110156119b357600080fd5b60408051610320818101909252833593928301929161034083019190602084019060199083908390808284376000920191909152509194506142e29350505050565b61068160048036036060811015611a0b57600080fd5b5080359060ff602082013516906040013515156143a9565b61068160048036036020811015611a3957600080fd5b50356143d4565b61068160048036036040811015611a5657600080fd5b508035906020013560ff166143dd565b6105576004803603610120811015611a7d57600080fd5b8101908080610120019060098060200260405190810160405280929190826009602002808284376000920191909152509194506143f69350505050565b61068160048036036060811015611ad057600080fd5b5080359060ff60208201358116916040013516614406565b610a7d60048036036020811015611afe57600080fd5b503561441c565b610a7d60048036036020811015611b1b57600080fd5b5035614428565b61068160048036036020811015611b3857600080fd5b5035614434565b61068160048036036040811015611b5557600080fd5b50803590602001351515614442565b611b8160048036036020811015611b7a57600080fd5b503561446c565b60405181518152808261014080838360206109c6565b610a7d60048036036020811015611bad57600080fd5b50356144c2565b61055760048036036040811015611bca57600080fd5b508035906020013560ff166144ce565b61055760048036036020811015611bf057600080fd5b50356144de565b610a7d60048036036040811015611c0d57600080fd5b508035906020013560ff166144e7565b61068160048036036060811015611c3357600080fd5b5080351515906020810135906040013561450d565b610a7d60048036036020811015611c5e57600080fd5b503561453c565b61068160048036036020811015611c7b57600080fd5b5035614548565b6105576004803603610120811015611c9957600080fd5b8101908080610120019060098060200260405190810160405280929190826009602002808284376000920191909152509194506145529350505050565b61068160048036036040811015611cec57600080fd5b508035906020013560ff16614562565b61055760048036036040811015611d1257600080fd5b810190602081018135640100000000811115611d2d57600080fd5b820183602082011115611d3f57600080fd5b80359060200191846020830284011164010000000083111715611d6157600080fd5b9190808060200260200160405190810160405280939291908181526020018383602002808284376000920191909152509295505091359250614569915050565b600481565b60408051600b8082526101808201909252600091606091906020820161016080368337019050509050600181600081518110611dde57fe5b602002602001018181525050600081600081518110611df957fe5b60209081029190910101519050600160005b611e148961272f565b60ff168160ff161015611eae57611e3f8a8360ff1660198110611e3357fe5b6020020151600261240d565b886001840360ff16600a8110611e5157fe5b6020020151611e61576014611e64565b605a5b60ff1602848360ff1681518110611e7757fe5b602002602001018181525050838260ff1681518110611e9257fe5b6020908102919091010151929092019160019182019101611e0b565b5060005b611ebb896143f6565b60ff168160ff161015611f4957611eda8a8360ff1660198110611e3357fe5b886001840360ff16600a8110611eec57fe5b6020020151611efc576064611eff565b60965b60ff1602848360ff1681518110611f1257fe5b602002602001018181525050838260ff1681518110611f2d57fe5b6020908102919091010151929092019160019182019101611eb2565b5060005b611f5689614552565b60ff168160ff161015611fbe57611f758a8360ff1660198110611e3357fe5b60c802848360ff1681518110611f8757fe5b602002602001018181525050838260ff1681518110611fa257fe5b6020908102919091010151929092019160019182019101611f4d565b50828660ff1681518110611fce57fe5b60200260200101518211611fe757859350505050612074565b828660ff1681518110611ff657fe5b60200260200101518203600560030260ff160261226a6120288b8960ff166019811061201e57fe5b60200201516122e6565b858960ff168151811061203757fe5b602002602001015102028161204857fe5b04838760ff168151811061205857fe5b60200260200101818152505061206e8386614569565b93505050505b95945050505050565b601f60ff601060058402011683901c165b92915050565b600080826120a35760006120a6565b60035b840160020260a70190508060ff168560ff16901b8160ff166003901b198716179150505b949350505050565b60408051602080820185905282518083038201815282840180855281519183019190912060ff868116808452938402909401606090810190955292918491908015612127578160200160208202803683370190505b50905060005b8560ff168160ff1610156121bc57602460ff84161015612177576040805160208082018a905260ff8085168385015283518084038501815260609093019093528151910120945092505b640fffffffff8416828260ff168151811061218e57fe5b6001600160401b039092166020928302919091019091015260249390931c926023199092019160010161212d565b5095945050505050565b600060fb826121d65760006121d9565b60015b60ff16901b60fb6001901b19841617905092915050565b6121f8614616565b612200614616565b600061221284825b60200201516142d4565b60ff1690506000612224856001612208565b60ff1690506000606483028860046020020151600785900302019050600060648302886004602002015160078590030201905060005b600460ff821610156122d8576102bc838b8360ff166005811061227957fe5b6020020151028161228657fe5b048a8260ff166005811061229657fe5b60200201526102bc828a60ff8416600581106122ae57fe5b602002015102816122bb57fe5b04898260ff16600581106122cb57fe5b602002015260010161225a565b509798969750505050505050565b6207ffff60b582901c165b919050565b6122fe614634565b600080805b601960ff821610156123435780600202606e0160ff1685901c600316848260ff166019811061232e57fe5b60ff9092166020929092020152600101612303565b50919360a084901c611fff169360ad1c63ffffffff1692509050565b600060f88261236f576000612372565b60015b60ff16901b60f86001901b19841617905092915050565b607e1c60071690565b600c81565b60006120008261ffff16106123f3576040805162461bcd60e51b815260206004820152601f60248201527f7374616d696e615265636f76657279206d757374206265203c20322a2a313300604482015290519081900360640190fd5b5060a01b61ffff60a01b16611fff60a01b19919091161790565b60ff166014021c620fffff1690565b6000808261242b57608361242e565b608d5b60ff169390931c600f169392505050565b640fffffffff81565b612450614653565b604080518082019091528061246d8560005b602002015185613844565b815260200161247d856001612462565b90529392505050565b607b1c60071690565b603f1690565b600181565b600b81565b600081565b60741c600f1690565b60cc1c60019081161490565b600080826124c85760836124cb565b608d5b90508060040160ff1684901c60031691505092915050565b6000816124f15760006124f4565b60045b60ca0160ff168360ff16901b841790505b9392505050565b6001607c9190910160ff161b1790565b60008060015b600b8160ff16101561256857600061254e858360ff166019811061254257fe5b6020020151600061240d565b90508281111561255f578193508092505b50600101612522565b5050919050565b612577614671565b87815260006125858961340e565b9050600f60ff821610612598575061271b565b6000846125c0576125bb89898987600060200201516001600160401b0316613d69565b6125c9565b6125c98961251c565b60ff811660208501529050600085156126175761260c6125f18b8460ff166019811061254257fe5b600302888760015b60200201516001600160401b03166137ff565b60ff1615905061267f565b6000806126368c60ff86166019811061262c57fe5b60200201516143d4565b1461264257600a612645565b60015b60ff1690506126776064826126628e8760ff166019811061254257fe5b600702028161266d57fe5b04898860016125f9565b60ff16159150505b8061268b57600061268e565b60015b60ff166040850152600086156126a2575060645b861580156126ad5750815b156126d2576126cf8b8b8b868a600260200201516001600160401b0316611da6565b90505b811561270f576126e38c8286612cff565b9b506126f08c8486613c64565b9b506127068c612700858d613baa565b86614406565b6001018086529b505b60ff1660608501525050505b979650505050505050565b60cd1c60ff1690565b602081015160009082825b60200201516002020192915050565b61275161468f565b604080518082019091528061276d8660005b6020020151613851565b815260200161277d866001612763565b905290506127896146bc565b60408051808201909152806127a58760005b602002015161446c565b81526020016127b587600161279b565b905287519091506060906127ca90603c6120d2565b905060006127d66146e9565b6127e08b87613ca4565b905060005b600c60ff82161015612cf15781515115801590612809575081516020015160ff8216145b156128f45760005488518b518451604001516001600160a01b03909316926384e61a719291906019811061283957fe5b60200201518c518651604090810151905160e086901b6001600160e01b0319168152600401808560a080838360005b83811015612880578181015183820152602001612868565b5050505090500184815260200183815260200182815260200194505050505060a06040518083038186803b1580156128b757600080fd5b505afa1580156128cb573d6000803e3d6000fd5b505050506040513d601f19601f8201168201806040525060a08110156128f057600080fd5b5088525b602082015151158015906129115750602080830151015160ff8216145b15612a14576000546020808a01518c82015191850151604001516001600160a01b03909316926384e61a7192906019811061294857fe5b60200201518c600160200201518660016020020151600260200201516040516001600160e01b031960e087901b168152600401808560a080838360005b8381101561299d578181015183820152602001612985565b5050505090500184815260200183815260200182815260200194505050505060a06040518083038186803b1580156129d457600080fd5b505afa1580156129e8573d6000803e3d6000fd5b505050506040513d601f19601f8201168201806040525060a0811015612a0d57600080fd5b5060208901525b868015612a2f575060ff81161580612a2f57508060ff166005145b15612a495787516020890151612a4691908e6121f0565b50505b8751516020890151518551612a82929190879060ff6005870216908110612a6c57fe5b60200260200101516001600160401b03166137ff565b92508260ff168b8260050260020160ff16603e8110612a9d57fe5b602002018181525050612ad78c848a878560050260010160ff1681518110612ac157fe5b60200260200101516001600160401b03166136ec565b15612ce95760018b60ff6003600585020116603e8110612af357fe5b6020020181815250506000612b23858360050260020160ff1681518110612b1657fe5b60200260200101516133cc565b90506000612b64828b8760010360ff1660028110612b3d57fe5b6020020151606001518e60ff60018a90031660028110612b5957fe5b60200201515161450d565b9050612b6e614671565b612c6d8f8760ff1660028110612b8057fe5b60200201518e8860ff1660028110612b9457fe5b60200201518b8960ff1660028110612ba857fe5b60200201518b8a60ff1660028110612bbc57fe5b6020020151868860405180606001604052808f8d60050260020160ff1681518110612be357fe5b60200260200101516001600160401b03166001600160401b031681526020018f8d60050260030160ff1681518110612c1757fe5b60200260200101516001600160401b03166001600160401b031681526020018f8d60050260040160ff1681518110612c4b57fe5b60200260200101516001600160401b03166001600160401b031681525061256f565b80519091508f60ff881660028110612c8157fe5b602002015280600160200201518e60ff6004600588020116603e8110612ca357fe5b602002015260408101518e60058681020160ff16603e8110612cc157fe5b602002015260608101518e6005860260060160ff16603e8110612ce057fe5b60200201525050505b6001016127e5565b505050505050505050505050565b60ff91821660049182029091019091161b1790565b60008082612d23576000612d26565b60035b840160020260a70190508060ff1685901c6003169150509392505050565b612d4c614716565b60005b600560ff821611612d91578060060260ff168363ffffffff16901c603f16828260ff1660068110612d7c57fe5b60ff9092166020929092020152600101612d4f565b50919050565b60fb1c60019081161490565b612dab614734565b6000612db5614653565b612dbd614734565b89815260208101899052612dd48189898989613fb4565b919750909350915060ff831615612dee579250612ff69050565b845115612fc35760408501518015612e255750612e128660015b602002015161340e565b60ff16612e20876000612e08565b60ff16145b15612f5f57600080546001600160a01b03169063d01589249088908b908690602002015186600160200201518f6040518663ffffffff1660e01b81526004018086600260200280838360005b83811015612e89578181015183820152602001612e71565b505050509050018560026000925b81841015612ed8576020840283015161032080838360005b83811015612ec7578181015183820152602001612eaf565b505050509050019260010192612e97565b92505050848152602001838152602001826001600160401b03166001600160401b0316815260200195505050505050604080518083038186803b158015612f1e57600080fd5b505afa158015612f32573d6000803e3d6000fd5b505050506040513d601f19601f820116820180604052506040811015612f5757600080fd5b509550612fc3565b612f6a866001612e08565b60ff16612f78876000612e08565b60ff161415612f9357612f8c866002612448565b9550612fc3565b612f9e866001612e08565b60ff16612fac876000612e08565b60ff161015612fc357612fc0866001612448565b95505b612fdc8660005b6020020151866001602002015161235f565b8152612fe9866001612fca565b6020820152925060009150505b965096945050505050565b600060408260ff161061305b576040805162461bcd60e51b815260206004820152601e60248201527f7461637469637349642073686f756c642066697420696e203634206269740000604482015290519081900360640190fd5b60ff821660005b600a8160ff1610156130a9578060060160ff16858260ff16600a811061308457fe5b6020020151613094576000613097565b60015b60ff16901b9190911790600101613062565b5060005b600b8160ff16101561314e5760198660ff8316600e81106130ca57fe5b602002015160ff16111561311e576040805162461bcd60e51b8152602060048201526016602482015275696e636f7272656374206c696e65757020656e74727960501b604482015290519081900360640190fd5b8060050260100160ff16868260ff16600e811061313757fe5b602002015160ff16901b91909117906001016130ad565b5060005b60038160ff16101561331a57600c888260ff166003811061316f57fe5b602002015160ff16106131c2576040805162461bcd60e51b8152602060048201526016602482015275696e636f7272656374206c696e65757020656e74727960501b604482015290519081900360640190fd5b600c878260ff16600381106131d357fe5b602002015160ff161061321f576040805162461bcd60e51b815260206004820152600f60248201526e1a5b98dbdc9c9958dd081c9bdd5b99608a1b604482015290519081900360640190fd5b600b8860ff83166003811061323057fe5b602002015160ff16141561329657601986600b830160ff16600e811061325257fe5b602002015160ff16146132965760405162461bcd60e51b81526004018080602001828103825260308152602001806147fc6030913960400191505060405180910390fd5b80600b0160050260100160ff168682600b0160ff16600e81106132b557fe5b602002015160ff16901b821791508060040260560160ff16888260ff16600381106132dc57fe5b602002015160ff16901b821791508060040260620160ff16878260ff166003811061330357fe5b602002015160ff16901b9190911790600101613152565b509695505050505050565b6000613330826124ad565b6133425761333d82614434565b61208e565b5090565b60006004826005602002015160ff16106133915760405162461bcd60e51b815260040180806020018281038252602f81526020018061482c602f913960400191505060405180910390fd5b60005b600560ff821611612d91578060060260ff16838260ff16600681106133b557fe5b602002015160ff16901b9190911790600101613394565b60146001600160401b0391821606161590565b60ff91821660059190910260b3019091161b1790565b60b11c60071690565b60040260620160ff161c600f1690565b600f1690565b60d61c60019081161490565b600061342a614634565b600080546040516314de7a9f60e31b815260048101888152602482018b90526001600160a01b039092169163a6f3d4f89189918c918e918d91604401836103208083838d5b8381101561348757818101518382015260200161346f565b50505050905001821515151581526020019450505050506103606040518083038186803b1580156134b757600080fd5b505afa1580156134cb573d6000803e3d6000fd5b505050506040513d601f19601f820116820180604052506103608110156134f157600080fd5b50805161034082015160015460405163a25e48a360e01b81529299506020909301945092506001600160a01b039091169063a25e48a39084908b90600401808361032080838360005b8381101561355257818101518382015260200161353a565b50505050905001828152602001925050506103206040518083038186803b15801561357c57600080fd5b505afa158015613590573d6000803e3d6000fd5b505050506040513d601f19601f820116820180604052506103208110156135b657600080fd5b506000805460405163e12164fb60e01b8152600481018a81529395506001600160a01b039091169263e12164fb928a9287928e928e928c928e929091602401908790610320908190849084905b8381101561361b578181015183820152602001613603565b505050509050018581526020018415151515815260200183151515158152602001828152602001965050505050505060206040518083038186803b15801561366257600080fd5b505afa158015613676573d6000803e3d6000fd5b505050506040513d602081101561368c57600080fd5b5051999198509650945050505050565b6136a4614753565b60005b600e8160ff161015612d91578060050260100160ff1683901c601f16828260ff16600e81106136d257fe5b60ff90921660209290920201526001016136a7565b600581565b6000828460ff16600281106136fd57fe5b602002015160016020020151613715575060006120ca565b6001600061372b8760ff881660028110612e0857fe5b60ff1690506000613747888860010360ff1660028110612e0857fe5b60ff16905080600201821061375c5780820392505b6137aa868860010360ff166002811061377157fe5b602002015160400151600a85028860ff8b166002811061378d57fe5b602002015160016020020151600602816137a357fe5b04876137ff565b60ff166001146137bb5760006137be565b60015b98975050505050505050565b60008083600402836137dd5760976137e0565b609f5b60ff87811692909101161b8617915050949350505050565b60d41b1790565b60008315801561380d575082155b1561381c575060018116612505565b64100000000084028385018302101561383757506000612505565b506001612505565b600281565b60d21b60ff60d21b161790565b613859614772565b60006138648361248f565b905060ff81166138c157505060408051610120810182526001808252600260208301819052928201819052606082018190526080820183905260a0820152600060c0820181905260e08201929092526101008101919091526122f1565b8060ff16600114156139205750506040805161012081018252600180825260036020830152918101829052606081018290526002608082015260a08101829052600060c0820181905260e08201929092526101008101919091526122f1565b8060ff166002141561397c5750506040805161012081018252600180825260026020830152918101829052606081018290526080810182905260a0810182905260c0810182905260e081018290526101008101919091526122f1565b8060ff16600314156139db5750506040805161012081018252600180825260026020830152918101829052606081018290526003608082015260a08101829052600060c0820181905260e08201929092526101008101919091526122f1565b8060ff1660041415613a375750506040805161012081018252600180825260208201819052918101829052606081018290526002608082015260a0810182905260c0810182905260e081018290526101008101919091526122f1565b8060ff1660051415613a935750506040805161012081018252600180825260208201819052918101829052606081018290526003608082015260a0810191909152600060c08201819052600260e08301526101008201526122f1565b8060ff1660061415613aef5750506040805161012081018252600180825260208201819052918101829052606081018290526080810182905260a0810182905260c08101829052600260e08201526101008101919091526122f1565b8060ff1660071415613b4e575050604080516101208101825260018082526002602083018190529282018190526000606083018190526080830184905260a083015260c0820181905260e08201929092526101008101919091526122f1565b8060ff1660081415612d915750506040805161012081018252600080825260026020830152918101919091526001606082018190526003608083015260a0820181905260c0820181905260e082018190526101008201526122f1565b600060ff8316613bbc5750600061208e565b613bc58261272f565b60010160ff168360ff161015613bdd5750600161208e565b613be6826143f6565b613bef8361272f565b6001010160ff168360ff161015613c085750600261208e565b50600361208e565b600080805b8460010160ff168160ff161015613c4e57858160ff1660198110613c3557fe5b602002015115613c46576001909101905b600101613c15565b50613c5a8682856143a9565b9695505050505050565b60ff9182166004919091026034019091161b1790565b600f81565b6000613c89614772565b613c9283613851565b60208101519051600202019392505050565b613cac6146e9565b60005b60028160ff161015613d6257613cd8848260ff1660028110613ccd57fe5b6020020151846124b9565b828260ff1660028110613ce757fe5b602002015152613d0a8460ff831660028110613cff57fe5b602002015184614442565b828260ff1660028110613d1957fe5b602002015160016020020152613d428460ff831660028110613d3757fe5b60200201518461241c565b828260ff1660028110613d5157fe5b602002015160400152600101613caf565b5092915050565b60408051600b8082526101808201909252600091606091906020820161016080368337019050509050600181600081518110613da157fe5b6020908102919091010152600160005b613dba8761272f565b60ff168160ff161015613e3757613de5888360ff1660198110613dd957fe5b6020020151600161240d565b866001840360ff16600a8110613df757fe5b6020020151613e0857611388613e0c565b613a985b61ffff1602838360ff1681518110613e2057fe5b602090810291909101015260019182019101613db1565b5060005b613e44876143f6565b60ff168160ff161015613eb557613e63888360ff1660198110613dd957fe5b866001840360ff16600a8110613e7557fe5b6020020151613e86576161a8613e8a565b61c3505b61ffff1602838360ff1681518110613e9e57fe5b602090810291909101015260019182019101613e3b565b5060005b613ec287614552565b60ff168160ff161015613f0c57613ee1888360ff1660198110613dd957fe5b620124f802838360ff1681518110613ef557fe5b602090810291909101015260019182019101613eb9565b5061271b8285614569565b6000808360040283613f2a576097613f2d565b609f5b0190508060ff1685901c600f169150509392505050565b60008082613f53576083613f56565b608d5b60ff8581166004830182161b88821682841690811b6103ff90911b199a909a169990991798909817978681166006909201161b871791505095945050505050565b60ad1b63ffffffff60ad1b1663ffffffff60ad1b19919091161790565b613fbc614653565b613fc4614653565b6000613fce614791565b87518751865188518c51613fee94939291908a60035b6020020151613420565b908a52908752915060ff82161561401e5750604080518082019091526000808252602082015285935091506142c9565b602080890151888201518751928901518c51614042949190610100018a6004613fe4565b60208b81019290925290880191909152915060ff82161561407c5750604080518082019091526000808252602082015285935091506142c9565b8551885161409d91906140968a60005b6020020151613c7f565b8851613c10565b8652602080870151908901516140b991906140968a600161408c565b602087015260008054895189516060890151604051631bdeb66b60e31b81526001600160a01b039094169463def5b358946004019081908590610320908190849084905b838110156141155781810151838201526020016140fd565b5050505090500183815260200182151515158152602001935050505060a06040518083038186803b15801561414957600080fd5b505afa15801561415d573d6000803e3d6000fd5b505050506040513d601f19601f8201168201806040525060a081101561418257600080fd5b5081526000805460208a810151908a01516080890151604051631bdeb66b60e31b81526001600160a01b039094169463def5b358946004019081908590610320908190849084905b838110156141e25781810151838201526020016141ca565b5050505090500183815260200182151515158152602001935050505060a06040518083038186803b15801561421657600080fd5b505afa15801561422a573d6000803e3d6000fd5b505050506040513d601f19601f8201168201806040525060a081101561424f57600080fd5b50602080830191909152850151156142755780516080018051612710612cec9091020490525b61428a868a8a8a858a60006020020151612749565b856040518060400160405280836000600281106142a357fe5b602090810291909101516060015182520183600160200201516060015190529094509250505b955095509592505050565b60f91c60031690565b600381565b6000805b601960ff821610156143a1576004838260ff166019811061430357fe5b602002015160ff161061435d576040805162461bcd60e51b815260206004820152601b60248201527f7374616d696e615265636f76657279206d757374206265203c20340000000000604482015290519081900360640190fd5b80600202606e0160ff16838260ff166019811061437657fe5b602002015160ff16901b81600202606e0160ff166003901b19851617935080806001019150506142e6565b509192915050565b6000816143b75760006143ba565b60015b60040260c20160ff168360ff16901b841790509392505050565b60781c60071690565b60f91b607f60f91b166001607d60f91b03919091161790565b608081015160009082600361273a565b60ff9182166002919091026064019091161b1790565b60ad1c60019081161490565b60d51c60019081161490565b60811c6507ffffffffff1690565b60008082614451576083614454565b608d5b90508060060160ff1684901c600f1691505092915050565b6144746147be565b60005b600a8160ff161015612d91578060060160ff1683901c60011660011461449e5760006144a1565b60015b828260ff16600a81106144b057fe5b91151560209092020152600101614477565b60b41c60019081161490565b60040260560160ff161c600f1690565b60ae1c60071690565b60008160060160ff1683901c600116600114614504576000612505565b60019392505050565b60008361451a57826120ca565b600561452783600361240d565b60040284018161453357fe5b04949350505050565b60ac1c60019081161490565b60641c61ffff1690565b60e081015160009082600661273a565b60ff160190565b6000805b83518260ff16101561459f57838260ff168151811061458857fe5b60209081029190910101516001909201910161456d565b806145b757835183816145ae57fe5b0691505061208e565b600091508202641000000000825b60018651038460ff16101561460d57858460ff16815181106145e357fe5b602002602001015181019050818102831015614602575061208e915050565b6001909301926145c5565b50505092915050565b6040518060a001604052806005906020820280368337509192915050565b6040518061032001604052806019906020820280368337509192915050565b60405180604001604052806002906020820280368337509192915050565b60405180608001604052806004906020820280368337509192915050565b60405180604001604052806002905b6146a6614772565b81526020019060019003908161469e5790505090565b60405180604001604052806002905b6146d36147be565b8152602001906001900390816146cb5790505090565b60405180604001604052806002905b6147006147dd565b8152602001906001900390816146f85790505090565b6040518060c001604052806006906020820280368337509192915050565b604051806107c00160405280603e906020820280368337509192915050565b604051806101c00160405280600e906020820280368337509192915050565b6040518061012001604052806009906020820280368337509192915050565b60405180604001604052806002905b6147a8614616565b8152602001906001900390816147a05790505090565b604051806101400160405280600a906020820280368337509192915050565b6040518060600160405280600390602082028036833750919291505056fe696e636f7272656374206c696e65757020656e74727920666f72206e6f20737562737469747574656420706c6179657263616e6e6f74206f66666572206974656d73207468617420626f6f737420706f74656e7469616c20736f206d756368a2646970667358221220898dddfaf9d643783ad519730c8d43a6b01676ed4a7aecf3cf679411bf6b2a2764736f6c63430006030033",
  "source": "pragma solidity >= 0.6.3;\n\nimport \"./EnginePreComp.sol\";\nimport \"./EngineLib.sol\";\nimport \"../encoders/EncodingMatchLogBase1.sol\";\nimport \"../encoders/EncodingMatchLogBase3.sol\";\nimport \"../encoders/EncodingTactics.sol\";\nimport \"./EngineApplyBoosters.sol\";\n\n/**\n @title Library to compute matches\n @author Freeverse.io, www.freeverse.io\n @dev Due to contract-too-large-to-deploy, this contract was split into various\n @dev Although funcions are basically pure, some remain view because of the pointer\n @dev to the rest of the code (inheritance led to too-large-to-deploy)\n*/\n \ncontract Engine is EngineLib, EncodingMatchLogBase1, EncodingMatchLogBase3, EncodingTactics  {\n    uint8 constant private PLAYERS_PER_TEAM_MAX = 25;\n    uint8 constant public N_SKILLS = 5;\n    uint8 constant internal PENALTY_CODE = 100;\n\n    /// prefPosition idxs: GoalKeeper, Defender, Midfielder, Forward, MidDefender, MidAttacker\n    uint8 constant public IDX_GK = 0;\n    uint8 constant public IDX_D  = 1;\n    uint8 constant public IDX_M  = 2;\n    uint8 constant public IDX_F  = 3;\n    uint8 constant public IDX_MD = 4;\n    uint8 constant public IDX_MF = 5;\n    \n    /// Skills: shoot, speed, pass, defence, endurance\n    uint8 constant public SK_SHO = 0;\n    uint8 constant public SK_SPE = 1;\n    uint8 constant public SK_PAS = 2;\n    uint8 constant public SK_DEF = 3;\n    uint8 constant public SK_END = 4;    \n\n    /// Skills for GKs: shot-stopping, 1-on-1, pass, penaltySaving, endurance \n    uint8 constant internal GK_SHO = 0;\n    uint8 constant internal GK_1O1 = 1;\n    uint8 constant internal GK_PAS = 2;\n    uint8 constant internal GK_PEN = 3;\n    uint8 constant internal GK_END = 4;    \n\n    uint8 public constant ROUNDS_PER_MATCH  = 12;   /// Number of relevant actions that happen during a game (12 equals one per 3.7 min)\n    uint8 public constant MAX_GOALS_IN_MATCH  = 15;   /// Max number of goals that one single team in an entire match (no restriction on which half)\n    /// Idxs for vector of globSkills: \n    uint8 private constant IDX_MOVE2ATTACK  = 0;        \n    uint8 private constant IDX_CREATE_SHOOT = 1; \n    uint8 private constant IDX_DEFEND_SHOOT = 2; \n    uint8 private constant IDX_BLOCK_SHOOT  = 3; \n    uint8 private constant IDX_ENDURANCE    = 4; \n    //\n    uint8 private constant IDX_IS_2ND_HALF      = 0; \n    uint8 private constant IDX_IS_HOME_STADIUM  = 1; \n    uint8 private constant IDX_IS_PLAYOFF       = 2; \n    uint8 private constant IDX_IS_BOT_HOME      = 3; \n    uint8 private constant IDX_IS_BOT_AWAY      = 4; \n    //\n    uint8 private constant IDX_SEED         = 0; \n    uint8 private constant IDX_ST_TIME      = 1; \n    //\n    uint256 private constant CHG_HAPPENED   = uint256(1); \n    uint8 public constant RED_CARD  = 3;   /// type of event = redCard\n    uint8 private constant WINNER_AWAY = 1;\n    uint8 private constant WINNER_DRAW = 2;\n\n    EnginePreComp private _precomp;\n    EngineApplyBoosters private _applyBoosters;\n\n    constructor(address precompAddr, address applyBoosterAddr) public {\n        _precomp = EnginePreComp(precompAddr);\n        _applyBoosters = EngineApplyBoosters(applyBoosterAddr);\n    }\n    \n    /**\n     * @dev playHalfMatch is the main function that simulates a match\n     * @param seed the pseudo-random number to use as a seed for the match; it's someone else's due to make it unique for each match.\n     * @param matchStartTime in secs, the timeStamp of inside the verse that emitted the seed \n     * @param skills a 2-array, each of the 2 being an array with the skills of the players of the corresponding team\n     * @param tactics a 2-array with the tacticId (ex. tacticId = 0 for [4,4,2]) for each team\n     * @param matchLogs a 2-array with the matchLogs of the previous half (be it 1st half, of 2nd half of last match) for each team\n     * @param matchBools a 3-array containing: [is2ndHalf, isHomeStadium, isPlayoff]\n     * @return an array containing: [matchLogs[0], matchLogs[1], event[0],..., event[last]]\n     */\n    /// for each event: 0: teamThatAttacks, 1: managesToShoot, 2: shooter, 3: isGoal, 4: assister\n    function playHalfMatch(\n        uint256 seed,\n        uint256 matchStartTime, \n        uint256[PLAYERS_PER_TEAM_MAX][2] memory skills,\n        uint256[2] memory tactics,\n        uint256[2] memory matchLogs,\n        bool[5] memory matchBools \n    )\n        public\n        view\n        returns (uint256[2+5*ROUNDS_PER_MATCH] memory, uint8 err)\n    {\n        uint256[2] memory blockSkillGK;\n        uint256[2+5*ROUNDS_PER_MATCH] memory seedAndStartTimeAndEvents;\n        seedAndStartTimeAndEvents[0] = seed; \n        seedAndStartTimeAndEvents[1] = matchStartTime; \n        \n        (matchLogs, blockSkillGK, err) = playMatchWithoutPenalties(\n            seedAndStartTimeAndEvents, \n            skills,\n            tactics,\n            matchLogs,\n            matchBools\n        );\n        if (err > 0) return (seedAndStartTimeAndEvents, err);\n\n        if (matchBools[IDX_IS_2ND_HALF]) {\n            if (matchBools[IDX_IS_PLAYOFF] && ( getNGoals(matchLogs[0]) == getNGoals(matchLogs[1]))) {\n                matchLogs = _precomp.computePenalties(matchLogs, skills, blockSkillGK[0], blockSkillGK[1], uint64(seed));  /// TODO seed\n            } else {\n                /// note that WINNER_HOME = 0, so no need to write anything if home wins.\n                if (getNGoals(matchLogs[0]) == getNGoals(matchLogs[1])) matchLogs = addWinnerToBothLogs(matchLogs, WINNER_DRAW);\n                else if (getNGoals(matchLogs[0]) < getNGoals(matchLogs[1])) matchLogs = addWinnerToBothLogs(matchLogs, WINNER_AWAY);\n            }\n        }\n        /// convert seedAndStartTimeAndEvents --> matchLogsAndEvents\n        seedAndStartTimeAndEvents[0] = setIsHomeStadium(matchLogs[0], matchBools[IDX_IS_HOME_STADIUM]);\n        seedAndStartTimeAndEvents[1] = setIsHomeStadium(matchLogs[1], matchBools[IDX_IS_HOME_STADIUM]);\n        return (seedAndStartTimeAndEvents, 0);\n    }\n    \n    /**\n     * @dev playHalfMatch same interface as playMatch, except that a couple of params are serialized inside seedAndStartTimeAndEvents,\n     * @dev ...which contains [seed, startTimeInSecs, events[0], events[1], ...]\n     */\n    function playMatchWithoutPenalties(\n        uint256[2+5*ROUNDS_PER_MATCH] memory seedAndStartTimeAndEvents,\n        uint256[PLAYERS_PER_TEAM_MAX][2] memory skills,\n        uint256[2] memory tactics,\n        uint256[2] memory matchLogs,\n        bool[5] memory matchBools /// [is2ndHalf, isHomeStadium, isPlayoff]\n    )\n        public\n        view\n        returns (uint256[2] memory, uint256[2] memory, uint8 err)\n    {\n        uint256[5][2] memory globSkills;\n        \n        (matchLogs[0], skills[0], err) = getLinedUpSkillsAndOutOfGames(skills[0], tactics[0], matchBools[IDX_IS_2ND_HALF], matchLogs[0], seedAndStartTimeAndEvents[IDX_SEED], matchBools[IDX_IS_BOT_HOME]);\n        if (err > 0) return (matchLogs, [uint256(0), uint256(0)], err);\n        (matchLogs[1], skills[1], err) = getLinedUpSkillsAndOutOfGames(skills[1], tactics[1], matchBools[IDX_IS_2ND_HALF], matchLogs[1], seedAndStartTimeAndEvents[IDX_SEED]+256, matchBools[IDX_IS_BOT_AWAY]);\n        if (err > 0) return (matchLogs, [uint256(0), uint256(0)], err);\n\n        matchLogs[0] = computeNGKAndDefs(matchLogs[0], skills[0], getNDefendersFromTactics(tactics[0]), matchBools[IDX_IS_2ND_HALF]);\n        matchLogs[1] = computeNGKAndDefs(matchLogs[1], skills[1], getNDefendersFromTactics(tactics[1]), matchBools[IDX_IS_2ND_HALF]);\n\n        globSkills[0] = _precomp.getTeamGlobSkills(skills[0], tactics[0], matchBools[IDX_IS_BOT_HOME]);\n        globSkills[1] = _precomp.getTeamGlobSkills(skills[1], tactics[1], matchBools[IDX_IS_BOT_AWAY]);\n\n        if (matchBools[IDX_IS_HOME_STADIUM]) {\n            globSkills[0][IDX_ENDURANCE] = (globSkills[0][IDX_ENDURANCE] * 11500)/10000;\n        }\n        computeRounds(matchLogs, seedAndStartTimeAndEvents, skills, tactics, globSkills, matchBools[IDX_IS_2ND_HALF]);\n        return (matchLogs, [globSkills[0][IDX_BLOCK_SHOOT], globSkills[1][IDX_BLOCK_SHOOT]], err);\n    }\n    \n    function computeRounds(\n        uint256[2] memory matchLogs,\n        uint256[2+5*ROUNDS_PER_MATCH] memory seedAndStartTimeAndEvents, \n        uint256[PLAYERS_PER_TEAM_MAX][2] memory skills, \n        uint256[2] memory tactics,\n        uint256[5][2] memory globSkills, \n        bool is2ndHalf\n    ) \n        public\n        view\n    {\n        uint8[9][2] memory playersPerZone = [getPlayersPerZone(tactics[0]), getPlayersPerZone(tactics[1])];\n        bool[10][2] memory extraAttack = [getFullExtraAttack(tactics[0]), getFullExtraAttack(tactics[1])];\n\n        uint64[] memory rnds = getNRandsFromSeed(seedAndStartTimeAndEvents[IDX_SEED], ROUNDS_PER_MATCH*5);\n        uint8 teamThatAttacks;\n        uint256[3][2] memory outOfGameData = getOutOfGameData(matchLogs, is2ndHalf);\n        for (uint8 round = 0; round < ROUNDS_PER_MATCH; round++){\n            if (outOfGameData[0][0] > 0 && outOfGameData[0][1] == round) { \n                globSkills[0] = _precomp.subtractOutOfGameSkills(globSkills[0], skills[0][outOfGameData[0][2]], tactics[0], outOfGameData[0][2]); \n            }\n            if (outOfGameData[1][0] > 0 && outOfGameData[1][1] == round) { \n                globSkills[1] = _precomp.subtractOutOfGameSkills(globSkills[1], skills[1][outOfGameData[1][2]], tactics[1], outOfGameData[1][2]); \n            }\n            if (is2ndHalf && ((round == 0) || (round == 5))) {\n                teamsGetTired(globSkills[0], globSkills[1], matchLogs);\n            }\n            teamThatAttacks = throwDice(globSkills[0][IDX_MOVE2ATTACK], globSkills[1][IDX_MOVE2ATTACK], rnds[5*round]);\n            seedAndStartTimeAndEvents[2 + round * 5] = teamThatAttacks;\n            if (managesToShoot(matchLogs, teamThatAttacks, globSkills, rnds[5*round+1])) {\n                seedAndStartTimeAndEvents[2 + round * 5 + 1] = 1;\n                bool isPenalty = computeIsPenalty(rnds[5*round+2]);\n                uint256 GKskill = getRelevantGKSkill(isPenalty, globSkills[1-teamThatAttacks][IDX_BLOCK_SHOOT], skills[1-teamThatAttacks][0]);\n                /// scoreData: 0: matchLog, 1: shooter, 2: isGoal, 3: assister\n                uint256[4] memory scoreData = managesToScore(\n                    matchLogs[teamThatAttacks],\n                    skills[teamThatAttacks],\n                    playersPerZone[teamThatAttacks],\n                    extraAttack[teamThatAttacks],\n                    GKskill,\n                    isPenalty,\n                    [rnds[5*round+2], rnds[5*round+3], rnds[5*round+4]]\n                );\n                matchLogs[teamThatAttacks] = scoreData[0];\n                seedAndStartTimeAndEvents[2 + round * 5 + 2] = scoreData[1];\n                seedAndStartTimeAndEvents[2 + round * 5 + 3] = scoreData[2];\n                seedAndStartTimeAndEvents[2 + round * 5 + 4] = scoreData[3];\n            }\n        }\n    }\n\n    // To save penalties, we will average: 80% from the blockPenalty skill, 20% from overall blockShoot.\n    function getRelevantGKSkill(bool isPen, uint256 blockShoot, uint256 skillsGK) public pure returns (uint256) {\n        return isPen ? (blockShoot + 4 * getSkill(skillsGK, GK_PEN)) / 5 : blockShoot;\n    }\n\n    // In real life, there are 0.3 penalties per match. Let us increase them to 0.4.\n    // Our matches have 24 rounds per game. Say, in about 12, someone manages to shoot.\n    // If a shoot has probability p of being a penalty, then < penalties > = 12 p \n    // So, choose p = 0.4/12 = 4/120 = 1/30\n    function computeIsPenalty(uint64 rnd) public pure returns (bool) {\n        return (rnd % 20) == 0;\n    }\n\n    \n    function getOutOfGameData(uint256[2] memory matchLogs, bool is2ndHalf) public pure returns (uint256[3][2] memory outOfGameData) {\n        for (uint8 team = 0; team < 2; team++) {\n            outOfGameData[team][0] = getOutOfGameType(matchLogs[team], is2ndHalf);\n            outOfGameData[team][1] = getOutOfGameRound(matchLogs[team], is2ndHalf);\n            outOfGameData[team][2] = getOutOfGamePlayer(matchLogs[team], is2ndHalf);\n        }\n    }\n\n\n    /// getLinedUpSkillsAndOutOfGames:\n    ///      1. Unpacks the tactics and lineUp, verifies validity \n    ///      2. Rewrites skills[25] so that the first [14] entries correspond to players that will actually play\n    ///      3. Compute the yellow cards, red cards, injuries, and adds them to matchLog\n    /// RETURNS: (matchLog, linedUpSkills, playerPerZone)\n    /// On the unpacking:\n    ///  - it translates from a high level tacticsId (e.g. 442) to a format that describes how many\n    ///      players play in each of the 9 zones in the field (Def, Mid, Forw) x (L, C, R), \n    ///  - note that we impose left-right symmetry: DR = DL, MR = ML, FR = FL,\n    ///      so we only manage 6 numbers: [DL, DM, ML, MM, FL, FM], and force \n    function getLinedUpSkillsAndOutOfGames(\n        uint256[PLAYERS_PER_TEAM_MAX] memory skills, \n        uint256 tactics,\n        bool is2ndHalf,\n        uint256 matchLog,\n        uint256 seed,\n        bool isBot\n    ) \n        public \n        view \n        returns \n    (\n        uint256, \n        uint256[PLAYERS_PER_TEAM_MAX] memory linedUpSkills, \n        uint8 err\n    ) \n    {\n        (matchLog, linedUpSkills, err) = _precomp.getLinedUpSkills(matchLog, tactics, skills, is2ndHalf);\n        linedUpSkills = _applyBoosters.applyItemBoost(linedUpSkills, tactics);\n        matchLog = _precomp.computeExceptionalEvents(matchLog, linedUpSkills, tactics, is2ndHalf, isBot, seed); \n        return (matchLog, linedUpSkills, err);\n    }\n    \n    /// adds to the matchLog the number of defenders and GKs actually linedUp (some skills could be empty slots)\n    /// ...at least, linedUp at the start of the current half\n    function computeNGKAndDefs(\n        uint256 matchLog, \n        uint256[PLAYERS_PER_TEAM_MAX] memory skills, \n        uint8 nDefsInTactics, \n        bool is2ndHalf\n    ) \n        public \n        pure \n        returns (uint256) \n    {\n        uint8 n;\n        for (uint8 p = 0; p < 1 + nDefsInTactics; p++) {\n            if (skills[p] != 0) n++;\n        }\n        return addNGKAndDefs(matchLog, n, is2ndHalf);\n    }\n\n    //// @dev Rescales global skills of both teams according to their endurance\n    function teamsGetTired(uint256[5] memory skillsTeamA, uint256[5]  memory skillsTeamB, uint256[2] memory matchLogs)\n        public\n        pure\n        returns (uint256[5] memory , uint256[5] memory) \n    {\n        // To accound for halftime changes: assume that if we could change 7 players.\n        // then the team would effectively not get tired at all.\n        // factor(changes = 0) = endurance/100\n        // factor(changes = 7) = 1\n        // so: factor = e/100 + changes/7 (1-e/100) = ( (7-changes) * end + 100 * changes)/700\n        uint256 changesA = getChangesAtHalfTime(matchLogs[0]);\n        uint256 changesB = getChangesAtHalfTime(matchLogs[1]);\n        uint256 factorA = (7 - changesA) * skillsTeamA[IDX_ENDURANCE] + 100 * changesA;\n        uint256 factorB = (7 - changesB) * skillsTeamB[IDX_ENDURANCE] + 100 * changesB;\n        for (uint8 sk = IDX_MOVE2ATTACK; sk < IDX_ENDURANCE; sk++) {\n            skillsTeamA[sk] = (skillsTeamA[sk] * factorA) / 700;\n            skillsTeamB[sk] = (skillsTeamB[sk] * factorB) / 700;\n        }\n        return (skillsTeamA, skillsTeamB);\n    }\n\n    /// Decides if a team manages to shoot by confronting attack and defense via globSkills\n    function managesToShoot(uint256[2] memory matchLogs, uint8 teamThatAttacks, uint256[5][2] memory globSkills, uint256 rndNum)\n        public\n        pure\n        returns (bool)\n    {\n        if (globSkills[teamThatAttacks][IDX_CREATE_SHOOT] == 0) return false;\n        // goalDelta =  0, 1, 2, 3, 4, 5, 6, 7\n        // penalty   =  1, 1, 2, 3, 4, 5, 6, 7\n        uint256 penaltyForMasacre = 1; \n        uint256 goalsTeamThatAttacks = getNGoals(matchLogs[teamThatAttacks]);\n        uint256 goalsTeamThatDefends = getNGoals(matchLogs[1-teamThatAttacks]);\n        if (goalsTeamThatAttacks >= goalsTeamThatDefends + 2) {\n            penaltyForMasacre = goalsTeamThatAttacks - (goalsTeamThatDefends + 2) + 2;\n        }\n        return throwDice(\n            (globSkills[1-teamThatAttacks][IDX_DEFEND_SHOOT]),       /// globSkills[IDX_DEFEND_SHOOT] of defending team against...\n            (globSkills[teamThatAttacks][IDX_CREATE_SHOOT]*6)/(10 * penaltyForMasacre),  /// globSkills[IDX_CREATE_SHOOT] of attacking team.\n            rndNum\n        ) == 1 ? true : false;\n    }\n\n    function selectAssister(\n        uint256[PLAYERS_PER_TEAM_MAX] memory skills,\n        uint8[9] memory playersPerZone,\n        bool[10] memory extraAttack,\n        uint8 shooter,\n        uint256 rnd\n    )\n        public\n        pure\n        returns (uint8)\n    {\n        uint256[] memory weights = new uint256[](11);\n        /// if selected assister == selected shooter =>  \n        ///  there was no assist => individual play by shoorter\n        weights[0] = 1;\n        uint256 teamPassCapacity = weights[0];\n        uint8 p = 1;\n        for (uint8 i = 0; i < getNDefenders(playersPerZone); i++) {\n            weights[p] = uint256(extraAttack[p-1] ? 90 : 20) * getSkill(skills[p], SK_PAS);\n            teamPassCapacity += weights[p];\n            p++;\n        }\n        for (uint8 i = 0; i < getNMidfielders(playersPerZone); i++) {\n            weights[p] = uint256(extraAttack[p-1] ? 150 : 100) * getSkill(skills[p], SK_PAS);\n            teamPassCapacity += weights[p];\n            p++;\n        }\n        for (uint8 i = 0; i < getNAttackers(playersPerZone); i++) {\n            weights[p] = uint256(200) * getSkill(skills[p], SK_PAS);\n            teamPassCapacity += weights[p];\n            p++;\n        }\n        \n        /// on average: teamPassCapacity442 = (1 + 4 * 20 + 4 * 100 + 2 * 200) < getPass > = 881 <pass>_team\n        /// on average: shooterSumOfSkills = 5 * <skills>_shooter\n        /// so a good ratio is shooterSumOfSkills/teamPassCapacity442 = 5/881 * <skills_shooter>/<pass>_team\n        /// or better, to have an avg of 1: (shooterSumOfSkills*271)/(teamPassCapacity * 5) = <skills_shooter>/<pass>_team\n        /// or to have a 50% chance, multiply by 10, and to have say, 1/3, multiply by 10/3\n        /// this is to be compensated by an overall factor of about.\n        if (teamPassCapacity <= weights[shooter]) return shooter;\n        \n        weights[shooter] = (weights[shooter] * getSumOfSkills(skills[shooter]) * uint256(8810))/ (uint256(3 * N_SKILLS) * (teamPassCapacity - weights[shooter]));\n        return throwDiceArray(weights, rnd);\n    }\n\n    function selectShooter(\n        uint256[PLAYERS_PER_TEAM_MAX] memory skills,\n        uint8[9] memory playersPerZone,\n        bool[10] memory extraAttack,\n        uint256 rnd\n    )\n        public\n        pure\n        returns (uint8)\n    {\n        uint256[] memory weights = new uint256[](11);\n        /// GK has minimum weight, all others are relative to this.\n        weights[0] = 1;\n        uint8 p = 1;\n        for (uint8 i = 0; i < getNDefenders(playersPerZone); i++) {\n            weights[p] = (extraAttack[p-1] ? 15000 : 5000 ) * getSkill(skills[p], SK_SPE);\n            p++;\n        }\n        for (uint8 i = 0; i < getNMidfielders(playersPerZone); i++) {\n            weights[p] = (extraAttack[p-1] ? 50000 : 25000 ) * getSkill(skills[p], SK_SPE);\n            p++;\n        }\n        for (uint8 i = 0; i < getNAttackers(playersPerZone); i++) {\n            weights[p] = 75000 * getSkill(skills[p], SK_SPE);\n            p++;\n        }\n        return throwDiceArray(weights, rnd);\n    }\n\n    /// Decides if a team that creates a shoot manages to score.\n    /// First: select attacker who manages to shoot. Second: challenge him with keeper\n    function managesToScore(\n        uint256 matchLog,\n        uint256[PLAYERS_PER_TEAM_MAX] memory skills,\n        uint8[9] memory playersPerZone,\n        bool[10] memory extraAttack,\n        uint256 blockShoot,\n        bool isPenalty,\n        uint64[3] memory rnds\n    )\n        public\n        pure\n        returns (uint256[4] memory scoreData)\n    {\n        scoreData[0] = matchLog;\n        uint8 currentGoals = getNGoals(matchLog);\n        /// if we scored alread the max number of goals, return. Note that isGoal = 0 inside scoreData.\n        if (currentGoals >= MAX_GOALS_IN_MATCH) return scoreData;\n        uint8 shooter = isPenalty ? getBestShooter(skills) : selectShooter(skills, playersPerZone, extraAttack, rnds[0]);\n        scoreData[1] = uint256(shooter);\n        bool isGoal;\n        if (isPenalty) {\n            /// 75% of penalties are scored in the premier league\n            isGoal = throwDice(3 * getSkill(skills[shooter], SK_SHO), blockShoot, rnds[1]) == 0;\n        } else {\n            /// a goal is scored by confronting his shoot skill to the goalkeeper block skill\n            /// handicap = 10 for the standard case (not-a-GK shooting), 1 otherise => so we need to divide by extra 10\n            uint256 shootHandicap = ( getForwardness(skills[shooter]) == IDX_GK ? 1 : 10);\n            isGoal = throwDice((getSkill(skills[shooter], SK_SHO) * 7 * shootHandicap)/100, blockShoot, rnds[1]) == 0;\n        }\n        scoreData[2] = uint256(isGoal ? 1: 0);\n        uint8 assister;\n        if (isPenalty) assister = PENALTY_CODE;\n        if (!isPenalty && isGoal) assister = selectAssister(skills, playersPerZone, extraAttack, shooter, rnds[2]);\n        // stuff is only added to the matchlog if this is a goal\n        if (isGoal) {\n            matchLog = addAssister(matchLog, assister, currentGoals);\n            matchLog = addShooter(matchLog, shooter, currentGoals);\n            matchLog = addForwardPos(matchLog, getForwardPosFromPlayersPerZone(shooter, playersPerZone), currentGoals);\n            matchLog++; /// adds 1 goal because nGoals is the right-most number serialized\n            scoreData[0] = matchLog;\n        }\n        scoreData[3] = uint256(assister);\n        return scoreData;\n    }\n    \n    function getForwardPosFromPlayersPerZone(uint8 posInLineUp, uint8[9] memory playersPerZone) public pure returns (uint8) {\n        if (posInLineUp == 0) return 0;\n        else if (posInLineUp < 1 + getNDefenders(playersPerZone)) return 1;\n        else if (posInLineUp < 1 + getNDefenders(playersPerZone) + getNMidfielders(playersPerZone)) return 2;\n        else return 3;\n    }\n\n    function getBestShooter(uint256[PLAYERS_PER_TEAM_MAX] memory skills) public pure returns (uint8 bestShooter) {\n        uint256 maxSkill = 0;\n        for (uint8 p = 1; p < 11; p++) {\n            uint256 thisSkill = getSkill(skills[p], SK_SHO);\n            if (thisSkill > maxSkill) {\n                bestShooter = p;\n                maxSkill = thisSkill;\n            }\n        }\n    }\n}",
  "sourcePath": "/Users/jurgenkudla/proyects/laos/laos-goal-revolution/goalrev-ganache/contracts/gameEngine/Engine.sol",
  "compiler": {
    "name": "solc",
    "version": "0.6.3+commit.8dda9521.Emscripten.clang"
  },
  "schemaVersion": "3.0.23",
  "updatedAt": "2024-10-18T06:45:39.835Z",
  "networkType": "ethereum",
  "devdoc": {
    "author": "Freeverse.io, www.freeverse.io",
    "details": "Due to contract-too-large-to-deploy, this contract was split into variousAlthough funcions are basically pure, some remain view because of the pointerto the rest of the code (inheritance led to too-large-to-deploy)",
    "methods": {
      "playMatchWithoutPenalties(uint256[62],uint256[25][2],uint256[2],uint256[2],bool[5])": {
        "details": "playHalfMatch same interface as playMatch, except that a couple of params are serialized inside seedAndStartTimeAndEvents,...which contains [seed, startTimeInSecs, events[0], events[1], ...]"
      },
      "teamsGetTired(uint256[5],uint256[5],uint256[2])": {
        "details": "Rescales global skills of both teams according to their endurance"
      },
      "throwDiceArray(uint256[],uint256)": {
        "details": "Generalization of the previous to any number of input weightsIt therefore throws any number of dice and returns the winner's idx.Following the explanation above, consider this limits:"
      }
    },
    "title": "Library to compute matches"
  },
  "userdoc": {
    "methods": {
      "addHalfTimeSubs(uint256,uint8,uint8)": {
        "notice": "recall that 0 means no subs, and we store here lineUp[p]+1 (where lineUp[p] = player shirt in the 25 that was substituted)"
      },
      "computeNGKAndDefs(uint256,uint256[25],uint8,bool)": {
        "notice": "adds to the matchLog the number of defenders and GKs actually linedUp (some skills could be empty slots) ...at least, linedUp at the start of the current half"
      },
      "encodeBoosts(uint8[6])": {
        "notice": "bits: 5 skills * 6b per skill (max 64) + 2b for potential = 32b"
      },
      "getLinedUpSkillsAndOutOfGames(uint256[25],uint256,bool,uint256,uint256,bool)": {
        "notice": "getLinedUpSkillsAndOutOfGames:      1. Unpacks the tactics and lineUp, verifies validity       2. Rewrites skills[25] so that the first [14] entries correspond to players that will actually play      3. Compute the yellow cards, red cards, injuries, and adds them to matchLog RETURNS: (matchLog, linedUpSkills, playerPerZone) On the unpacking:  - it translates from a high level tacticsId (e.g. 442) to a format that describes how many      players play in each of the 9 zones in the field (Def, Mid, Forw) x (L, C, R),   - note that we impose left-right symmetry: DR = DL, MR = ML, FR = FL,      so we only manage 6 numbers: [DL, DM, ML, MM, FL, FM], and force "
      },
      "getPlayersPerZone(uint256)": {
        "notice": "TODO: can this be expressed as translates from a high level tacticsId (e.g. 442) to a format that describes how many players play in each of the 9 zones in the field (Def, Mid, Forw) x (L, C, R),  We impose left-right symmetry: DR = DL, MR = ML, FR = FL. So we only manage 6 numbers: [DL, DM, ML, MM, FL, FM], and force "
      },
      "managesToScore(uint256,uint256[25],uint8[9],bool[10],uint256,bool,uint64[3])": {
        "notice": "Decides if a team that creates a shoot manages to score. First: select attacker who manages to shoot. Second: challenge him with keeper"
      },
      "managesToShoot(uint256[2],uint8,uint256[5][2],uint256)": {
        "notice": "Decides if a team manages to shoot by confronting attack and defense via globSkills"
      },
      "playHalfMatch(uint256,uint256,uint256[25][2],uint256[2],uint256[2],bool[5])": {
        "notice": "for each event: 0: teamThatAttacks, 1: managesToShoot, 2: shooter, 3: isGoal, 4: assister"
      },
      "throwDice(uint256,uint256,uint256)": {
        "notice": "24 * 3600  / Throws a dice that returns 0 with probability weight0/(weight0+weight1), and 1 otherwise. / So, returning 0 has semantics: \"the responsible for weight0 is selected\". / We return a uint8, not bool, to allow the return to be used as an idx in an array by the callee. / The formula is derived as follows. Consider a segment which is the union of a segment of length w0, and one of length w1.      0, 1, ... w0-1 | w0 ... w0+w1-1  We want to get a random number in that segment: (w0+w1) * R/(maxR + 1)  w0 wins if (w0+w1) * R/(maxR + 1) < w0 => (w0+w1) * R < w0 * (maxR + 1)  w1 wins otherwise  Limits:  (w0 = 0, w1 != 0) => w0 never wins;   (w0 ! 0, w1 = 0) => w1 never wins;     MAX_RND controls the resolution or fine-graining of the algorithm."
      }
    }
  }
}