{
  "contractName": "EnginePreComp",
  "abi": [
    {
      "inputs": [],
      "name": "HARD_INJURY",
      "outputs": [
        {
          "internalType": "uint8",
          "name": "",
          "type": "uint8"
        }
      ],
      "stateMutability": "view",
      "type": "function",
      "constant": true
    },
    {
      "inputs": [],
      "name": "IDX_BOOST",
      "outputs": [
        {
          "internalType": "uint8",
          "name": "",
          "type": "uint8"
        }
      ],
      "stateMutability": "view",
      "type": "function",
      "constant": true
    },
    {
      "inputs": [],
      "name": "IDX_D",
      "outputs": [
        {
          "internalType": "uint8",
          "name": "",
          "type": "uint8"
        }
      ],
      "stateMutability": "view",
      "type": "function",
      "constant": true
    },
    {
      "inputs": [],
      "name": "IDX_F",
      "outputs": [
        {
          "internalType": "uint8",
          "name": "",
          "type": "uint8"
        }
      ],
      "stateMutability": "view",
      "type": "function",
      "constant": true
    },
    {
      "inputs": [],
      "name": "IDX_GK",
      "outputs": [
        {
          "internalType": "uint8",
          "name": "",
          "type": "uint8"
        }
      ],
      "stateMutability": "view",
      "type": "function",
      "constant": true
    },
    {
      "inputs": [],
      "name": "IDX_M",
      "outputs": [
        {
          "internalType": "uint8",
          "name": "",
          "type": "uint8"
        }
      ],
      "stateMutability": "view",
      "type": "function",
      "constant": true
    },
    {
      "inputs": [],
      "name": "IDX_MD",
      "outputs": [
        {
          "internalType": "uint8",
          "name": "",
          "type": "uint8"
        }
      ],
      "stateMutability": "view",
      "type": "function",
      "constant": true
    },
    {
      "inputs": [],
      "name": "IDX_MF",
      "outputs": [
        {
          "internalType": "uint8",
          "name": "",
          "type": "uint8"
        }
      ],
      "stateMutability": "view",
      "type": "function",
      "constant": true
    },
    {
      "inputs": [],
      "name": "IDX_TRIM",
      "outputs": [
        {
          "internalType": "uint8",
          "name": "",
          "type": "uint8"
        }
      ],
      "stateMutability": "view",
      "type": "function",
      "constant": true
    },
    {
      "inputs": [],
      "name": "MAX_RND",
      "outputs": [
        {
          "internalType": "uint256",
          "name": "",
          "type": "uint256"
        }
      ],
      "stateMutability": "view",
      "type": "function",
      "constant": true
    },
    {
      "inputs": [],
      "name": "NO_OUT_OF_GAME_PLAYER",
      "outputs": [
        {
          "internalType": "uint8",
          "name": "",
          "type": "uint8"
        }
      ],
      "stateMutability": "view",
      "type": "function",
      "constant": true
    },
    {
      "inputs": [],
      "name": "NO_SUBST",
      "outputs": [
        {
          "internalType": "uint8",
          "name": "",
          "type": "uint8"
        }
      ],
      "stateMutability": "view",
      "type": "function",
      "constant": true
    },
    {
      "inputs": [],
      "name": "PLAYERS_PER_TEAM_MAX",
      "outputs": [
        {
          "internalType": "uint8",
          "name": "",
          "type": "uint8"
        }
      ],
      "stateMutability": "view",
      "type": "function",
      "constant": true
    },
    {
      "inputs": [],
      "name": "RED_CARD",
      "outputs": [
        {
          "internalType": "uint8",
          "name": "",
          "type": "uint8"
        }
      ],
      "stateMutability": "view",
      "type": "function",
      "constant": true
    },
    {
      "inputs": [],
      "name": "ROUNDS_PER_MATCH",
      "outputs": [
        {
          "internalType": "uint8",
          "name": "",
          "type": "uint8"
        }
      ],
      "stateMutability": "view",
      "type": "function",
      "constant": true
    },
    {
      "inputs": [],
      "name": "SK_DEF",
      "outputs": [
        {
          "internalType": "uint8",
          "name": "",
          "type": "uint8"
        }
      ],
      "stateMutability": "view",
      "type": "function",
      "constant": true
    },
    {
      "inputs": [],
      "name": "SK_END",
      "outputs": [
        {
          "internalType": "uint8",
          "name": "",
          "type": "uint8"
        }
      ],
      "stateMutability": "view",
      "type": "function",
      "constant": true
    },
    {
      "inputs": [],
      "name": "SK_PAS",
      "outputs": [
        {
          "internalType": "uint8",
          "name": "",
          "type": "uint8"
        }
      ],
      "stateMutability": "view",
      "type": "function",
      "constant": true
    },
    {
      "inputs": [],
      "name": "SK_SHO",
      "outputs": [
        {
          "internalType": "uint8",
          "name": "",
          "type": "uint8"
        }
      ],
      "stateMutability": "view",
      "type": "function",
      "constant": true
    },
    {
      "inputs": [],
      "name": "SK_SPE",
      "outputs": [
        {
          "internalType": "uint8",
          "name": "",
          "type": "uint8"
        }
      ],
      "stateMutability": "view",
      "type": "function",
      "constant": true
    },
    {
      "inputs": [],
      "name": "SOFT_INJURY",
      "outputs": [
        {
          "internalType": "uint8",
          "name": "",
          "type": "uint8"
        }
      ],
      "stateMutability": "view",
      "type": "function",
      "constant": true
    },
    {
      "inputs": [
        {
          "internalType": "uint256",
          "name": "log",
          "type": "uint256"
        },
        {
          "internalType": "uint8",
          "name": "player",
          "type": "uint8"
        },
        {
          "internalType": "uint8",
          "name": "pos",
          "type": "uint8"
        }
      ],
      "name": "addAssister",
      "outputs": [
        {
          "internalType": "uint256",
          "name": "",
          "type": "uint256"
        }
      ],
      "stateMutability": "pure",
      "type": "function",
      "constant": true
    },
    {
      "inputs": [
        {
          "internalType": "uint256",
          "name": "log",
          "type": "uint256"
        },
        {
          "internalType": "uint8",
          "name": "player",
          "type": "uint8"
        },
        {
          "internalType": "uint8",
          "name": "pos",
          "type": "uint8"
        }
      ],
      "name": "addForwardPos",
      "outputs": [
        {
          "internalType": "uint256",
          "name": "",
          "type": "uint256"
        }
      ],
      "stateMutability": "pure",
      "type": "function",
      "constant": true
    },
    {
      "inputs": [
        {
          "internalType": "uint256",
          "name": "log",
          "type": "uint256"
        },
        {
          "internalType": "uint8",
          "name": "player",
          "type": "uint8"
        },
        {
          "internalType": "uint8",
          "name": "pos",
          "type": "uint8"
        }
      ],
      "name": "addHalfTimeSubs",
      "outputs": [
        {
          "internalType": "uint256",
          "name": "",
          "type": "uint256"
        }
      ],
      "stateMutability": "pure",
      "type": "function",
      "constant": true
    },
    {
      "inputs": [
        {
          "internalType": "uint256",
          "name": "log",
          "type": "uint256"
        },
        {
          "internalType": "uint8",
          "name": "nDefs",
          "type": "uint8"
        },
        {
          "internalType": "bool",
          "name": "is2ndHalf",
          "type": "bool"
        }
      ],
      "name": "addNGKAndDefs",
      "outputs": [
        {
          "internalType": "uint256",
          "name": "",
          "type": "uint256"
        }
      ],
      "stateMutability": "pure",
      "type": "function",
      "constant": true
    },
    {
      "inputs": [
        {
          "internalType": "uint256",
          "name": "log",
          "type": "uint256"
        },
        {
          "internalType": "uint8",
          "name": "goals",
          "type": "uint8"
        }
      ],
      "name": "addNGoals",
      "outputs": [
        {
          "internalType": "uint256",
          "name": "",
          "type": "uint256"
        }
      ],
      "stateMutability": "pure",
      "type": "function",
      "constant": true
    },
    {
      "inputs": [
        {
          "internalType": "uint256",
          "name": "log",
          "type": "uint256"
        },
        {
          "internalType": "uint8",
          "name": "nTot",
          "type": "uint8"
        },
        {
          "internalType": "bool",
          "name": "is2ndHalf",
          "type": "bool"
        }
      ],
      "name": "addNTot",
      "outputs": [
        {
          "internalType": "uint256",
          "name": "",
          "type": "uint256"
        }
      ],
      "stateMutability": "pure",
      "type": "function",
      "constant": true
    },
    {
      "inputs": [
        {
          "internalType": "uint256",
          "name": "log",
          "type": "uint256"
        },
        {
          "internalType": "uint8",
          "name": "pos",
          "type": "uint8"
        }
      ],
      "name": "addScoredPenalty",
      "outputs": [
        {
          "internalType": "uint256",
          "name": "",
          "type": "uint256"
        }
      ],
      "stateMutability": "pure",
      "type": "function",
      "constant": true
    },
    {
      "inputs": [
        {
          "internalType": "uint256",
          "name": "log",
          "type": "uint256"
        },
        {
          "internalType": "uint8",
          "name": "player",
          "type": "uint8"
        },
        {
          "internalType": "uint8",
          "name": "pos",
          "type": "uint8"
        }
      ],
      "name": "addShooter",
      "outputs": [
        {
          "internalType": "uint256",
          "name": "",
          "type": "uint256"
        }
      ],
      "stateMutability": "pure",
      "type": "function",
      "constant": true
    },
    {
      "inputs": [
        {
          "internalType": "uint256",
          "name": "log",
          "type": "uint256"
        },
        {
          "internalType": "uint256",
          "name": "extraSumSkills",
          "type": "uint256"
        }
      ],
      "name": "addTeamSumSkills",
      "outputs": [
        {
          "internalType": "uint256",
          "name": "",
          "type": "uint256"
        }
      ],
      "stateMutability": "pure",
      "type": "function",
      "constant": true
    },
    {
      "inputs": [
        {
          "internalType": "uint256",
          "name": "log",
          "type": "uint256"
        },
        {
          "internalType": "uint8",
          "name": "winner",
          "type": "uint8"
        }
      ],
      "name": "addWinner",
      "outputs": [
        {
          "internalType": "uint256",
          "name": "",
          "type": "uint256"
        }
      ],
      "stateMutability": "pure",
      "type": "function",
      "constant": true
    },
    {
      "inputs": [
        {
          "internalType": "uint256[2]",
          "name": "logs",
          "type": "uint256[2]"
        },
        {
          "internalType": "uint8",
          "name": "winner",
          "type": "uint8"
        }
      ],
      "name": "addWinnerToBothLogs",
      "outputs": [
        {
          "internalType": "uint256[2]",
          "name": "",
          "type": "uint256[2]"
        }
      ],
      "stateMutability": "pure",
      "type": "function",
      "constant": true
    },
    {
      "inputs": [
        {
          "internalType": "uint256",
          "name": "log",
          "type": "uint256"
        },
        {
          "internalType": "uint8",
          "name": "player",
          "type": "uint8"
        },
        {
          "internalType": "uint8",
          "name": "posInHaf",
          "type": "uint8"
        },
        {
          "internalType": "bool",
          "name": "is2ndHalf",
          "type": "bool"
        }
      ],
      "name": "addYellowCard",
      "outputs": [
        {
          "internalType": "uint256",
          "name": "",
          "type": "uint256"
        }
      ],
      "stateMutability": "pure",
      "type": "function",
      "constant": true
    },
    {
      "inputs": [
        {
          "internalType": "uint8[3]",
          "name": "substitutions",
          "type": "uint8[3]"
        },
        {
          "internalType": "uint8[3]",
          "name": "subsRounds",
          "type": "uint8[3]"
        },
        {
          "internalType": "uint8[14]",
          "name": "lineup",
          "type": "uint8[14]"
        },
        {
          "internalType": "bool[10]",
          "name": "extraAttack",
          "type": "bool[10]"
        },
        {
          "internalType": "uint8",
          "name": "tacticsId",
          "type": "uint8"
        }
      ],
      "name": "encodeTactics",
      "outputs": [
        {
          "internalType": "uint256",
          "name": "",
          "type": "uint256"
        }
      ],
      "stateMutability": "pure",
      "type": "function",
      "constant": true
    },
    {
      "inputs": [
        {
          "internalType": "uint256",
          "name": "encodedSkills",
          "type": "uint256"
        }
      ],
      "name": "getAggressiveness",
      "outputs": [
        {
          "internalType": "uint256",
          "name": "",
          "type": "uint256"
        }
      ],
      "stateMutability": "pure",
      "type": "function",
      "constant": true
    },
    {
      "inputs": [
        {
          "internalType": "uint256",
          "name": "encodedSkills",
          "type": "uint256"
        }
      ],
      "name": "getAlignedEndOfFirstHalf",
      "outputs": [
        {
          "internalType": "bool",
          "name": "",
          "type": "bool"
        }
      ],
      "stateMutability": "pure",
      "type": "function",
      "constant": true
    },
    {
      "inputs": [
        {
          "internalType": "uint256",
          "name": "encodedSkills",
          "type": "uint256"
        }
      ],
      "name": "getBirthDay",
      "outputs": [
        {
          "internalType": "uint256",
          "name": "",
          "type": "uint256"
        }
      ],
      "stateMutability": "pure",
      "type": "function",
      "constant": true
    },
    {
      "inputs": [
        {
          "internalType": "uint256",
          "name": "log",
          "type": "uint256"
        }
      ],
      "name": "getChangesAtHalfTime",
      "outputs": [
        {
          "internalType": "uint8",
          "name": "nChanges",
          "type": "uint8"
        }
      ],
      "stateMutability": "pure",
      "type": "function",
      "constant": true
    },
    {
      "inputs": [
        {
          "internalType": "uint256",
          "name": "tactics",
          "type": "uint256"
        },
        {
          "internalType": "uint8",
          "name": "p",
          "type": "uint8"
        }
      ],
      "name": "getExtraAttack",
      "outputs": [
        {
          "internalType": "bool",
          "name": "",
          "type": "bool"
        }
      ],
      "stateMutability": "pure",
      "type": "function",
      "constant": true
    },
    {
      "inputs": [
        {
          "internalType": "uint256",
          "name": "encodedSkills",
          "type": "uint256"
        }
      ],
      "name": "getForwardness",
      "outputs": [
        {
          "internalType": "uint256",
          "name": "",
          "type": "uint256"
        }
      ],
      "stateMutability": "pure",
      "type": "function",
      "constant": true
    },
    {
      "inputs": [
        {
          "internalType": "uint256",
          "name": "tactics",
          "type": "uint256"
        }
      ],
      "name": "getFullExtraAttack",
      "outputs": [
        {
          "internalType": "bool[10]",
          "name": "extraAttack",
          "type": "bool[10]"
        }
      ],
      "stateMutability": "pure",
      "type": "function",
      "constant": true
    },
    {
      "inputs": [
        {
          "internalType": "uint256",
          "name": "tactics",
          "type": "uint256"
        }
      ],
      "name": "getFullLineUp",
      "outputs": [
        {
          "internalType": "uint8[14]",
          "name": "lineup",
          "type": "uint8[14]"
        }
      ],
      "stateMutability": "pure",
      "type": "function",
      "constant": true
    },
    {
      "inputs": [
        {
          "internalType": "uint256",
          "name": "encodedSkills",
          "type": "uint256"
        }
      ],
      "name": "getGamesNonStopping",
      "outputs": [
        {
          "internalType": "uint8",
          "name": "",
          "type": "uint8"
        }
      ],
      "stateMutability": "pure",
      "type": "function",
      "constant": true
    },
    {
      "inputs": [
        {
          "internalType": "uint256",
          "name": "encodedSkills",
          "type": "uint256"
        }
      ],
      "name": "getGeneration",
      "outputs": [
        {
          "internalType": "uint256",
          "name": "",
          "type": "uint256"
        }
      ],
      "stateMutability": "pure",
      "type": "function",
      "constant": true
    },
    {
      "inputs": [
        {
          "internalType": "uint256",
          "name": "log",
          "type": "uint256"
        },
        {
          "internalType": "uint8",
          "name": "posInHalf",
          "type": "uint8"
        },
        {
          "internalType": "bool",
          "name": "is2ndHalf",
          "type": "bool"
        }
      ],
      "name": "getInGameSubsHappened",
      "outputs": [
        {
          "internalType": "uint8",
          "name": "",
          "type": "uint8"
        }
      ],
      "stateMutability": "pure",
      "type": "function",
      "constant": true
    },
    {
      "inputs": [
        {
          "internalType": "uint256",
          "name": "encodedSkills",
          "type": "uint256"
        }
      ],
      "name": "getInjuryWeeksLeft",
      "outputs": [
        {
          "internalType": "uint8",
          "name": "",
          "type": "uint8"
        }
      ],
      "stateMutability": "pure",
      "type": "function",
      "constant": true
    },
    {
      "inputs": [
        {
          "internalType": "uint256",
          "name": "encodedSkills",
          "type": "uint256"
        }
      ],
      "name": "getInternalPlayerId",
      "outputs": [
        {
          "internalType": "uint256",
          "name": "",
          "type": "uint256"
        }
      ],
      "stateMutability": "pure",
      "type": "function",
      "constant": true
    },
    {
      "inputs": [
        {
          "internalType": "uint256",
          "name": "log",
          "type": "uint256"
        }
      ],
      "name": "getIsCancelled",
      "outputs": [
        {
          "internalType": "bool",
          "name": "",
          "type": "bool"
        }
      ],
      "stateMutability": "pure",
      "type": "function",
      "constant": true
    },
    {
      "inputs": [
        {
          "internalType": "uint256",
          "name": "encodedSkills",
          "type": "uint256"
        }
      ],
      "name": "getIsSpecial",
      "outputs": [
        {
          "internalType": "bool",
          "name": "",
          "type": "bool"
        }
      ],
      "stateMutability": "pure",
      "type": "function",
      "constant": true
    },
    {
      "inputs": [
        {
          "internalType": "uint256",
          "name": "encodedSkills",
          "type": "uint256"
        }
      ],
      "name": "getLeftishness",
      "outputs": [
        {
          "internalType": "uint256",
          "name": "",
          "type": "uint256"
        }
      ],
      "stateMutability": "pure",
      "type": "function",
      "constant": true
    },
    {
      "inputs": [
        {
          "internalType": "uint256",
          "name": "tactics",
          "type": "uint256"
        },
        {
          "internalType": "uint8",
          "name": "p",
          "type": "uint8"
        }
      ],
      "name": "getLinedUp",
      "outputs": [
        {
          "internalType": "uint8",
          "name": "",
          "type": "uint8"
        }
      ],
      "stateMutability": "pure",
      "type": "function",
      "constant": true
    },
    {
      "inputs": [
        {
          "internalType": "uint8[9]",
          "name": "playersPerZone",
          "type": "uint8[9]"
        }
      ],
      "name": "getNAttackers",
      "outputs": [
        {
          "internalType": "uint8",
          "name": "",
          "type": "uint8"
        }
      ],
      "stateMutability": "pure",
      "type": "function",
      "constant": true
    },
    {
      "inputs": [
        {
          "internalType": "uint8[9]",
          "name": "playersPerZone",
          "type": "uint8[9]"
        }
      ],
      "name": "getNDefenders",
      "outputs": [
        {
          "internalType": "uint8",
          "name": "",
          "type": "uint8"
        }
      ],
      "stateMutability": "pure",
      "type": "function",
      "constant": true
    },
    {
      "inputs": [
        {
          "internalType": "uint256",
          "name": "tactics",
          "type": "uint256"
        }
      ],
      "name": "getNDefendersFromTactics",
      "outputs": [
        {
          "internalType": "uint8",
          "name": "",
          "type": "uint8"
        }
      ],
      "stateMutability": "pure",
      "type": "function",
      "constant": true
    },
    {
      "inputs": [
        {
          "internalType": "uint256",
          "name": "log",
          "type": "uint256"
        }
      ],
      "name": "getNGoals",
      "outputs": [
        {
          "internalType": "uint8",
          "name": "",
          "type": "uint8"
        }
      ],
      "stateMutability": "pure",
      "type": "function",
      "constant": true
    },
    {
      "inputs": [
        {
          "internalType": "uint8[9]",
          "name": "playersPerZone",
          "type": "uint8[9]"
        }
      ],
      "name": "getNMidfielders",
      "outputs": [
        {
          "internalType": "uint8",
          "name": "",
          "type": "uint8"
        }
      ],
      "stateMutability": "pure",
      "type": "function",
      "constant": true
    },
    {
      "inputs": [
        {
          "internalType": "uint256",
          "name": "seed",
          "type": "uint256"
        },
        {
          "internalType": "uint8",
          "name": "nRnds",
          "type": "uint8"
        }
      ],
      "name": "getNRandsFromSeed",
      "outputs": [
        {
          "internalType": "uint64[]",
          "name": "",
          "type": "uint64[]"
        }
      ],
      "stateMutability": "pure",
      "type": "function",
      "constant": true
    },
    {
      "inputs": [
        {
          "internalType": "uint256",
          "name": "encodedSkills",
          "type": "uint256"
        }
      ],
      "name": "getOutOfGameFirstHalf",
      "outputs": [
        {
          "internalType": "bool",
          "name": "",
          "type": "bool"
        }
      ],
      "stateMutability": "pure",
      "type": "function",
      "constant": true
    },
    {
      "inputs": [
        {
          "internalType": "uint256",
          "name": "log",
          "type": "uint256"
        },
        {
          "internalType": "bool",
          "name": "is2ndHalf",
          "type": "bool"
        }
      ],
      "name": "getOutOfGamePlayer",
      "outputs": [
        {
          "internalType": "uint256",
          "name": "",
          "type": "uint256"
        }
      ],
      "stateMutability": "pure",
      "type": "function",
      "constant": true
    },
    {
      "inputs": [
        {
          "internalType": "uint256",
          "name": "log",
          "type": "uint256"
        },
        {
          "internalType": "bool",
          "name": "is2ndHalf",
          "type": "bool"
        }
      ],
      "name": "getOutOfGameRound",
      "outputs": [
        {
          "internalType": "uint256",
          "name": "",
          "type": "uint256"
        }
      ],
      "stateMutability": "pure",
      "type": "function",
      "constant": true
    },
    {
      "inputs": [
        {
          "internalType": "uint256",
          "name": "log",
          "type": "uint256"
        },
        {
          "internalType": "bool",
          "name": "is2ndHalf",
          "type": "bool"
        }
      ],
      "name": "getOutOfGameType",
      "outputs": [
        {
          "internalType": "uint256",
          "name": "",
          "type": "uint256"
        }
      ],
      "stateMutability": "pure",
      "type": "function",
      "constant": true
    },
    {
      "inputs": [
        {
          "internalType": "uint256",
          "name": "encodedSkills",
          "type": "uint256"
        }
      ],
      "name": "getPlayerIdFromSkills",
      "outputs": [
        {
          "internalType": "uint256",
          "name": "",
          "type": "uint256"
        }
      ],
      "stateMutability": "pure",
      "type": "function",
      "constant": true
    },
    {
      "inputs": [
        {
          "internalType": "uint256",
          "name": "tactics",
          "type": "uint256"
        }
      ],
      "name": "getPlayersPerZone",
      "outputs": [
        {
          "internalType": "uint8[9]",
          "name": "",
          "type": "uint8[9]"
        }
      ],
      "stateMutability": "pure",
      "type": "function",
      "constant": true
    },
    {
      "inputs": [
        {
          "internalType": "uint256",
          "name": "encodedSkills",
          "type": "uint256"
        }
      ],
      "name": "getPotential",
      "outputs": [
        {
          "internalType": "uint256",
          "name": "",
          "type": "uint256"
        }
      ],
      "stateMutability": "pure",
      "type": "function",
      "constant": true
    },
    {
      "inputs": [
        {
          "internalType": "uint256",
          "name": "encodedSkills",
          "type": "uint256"
        }
      ],
      "name": "getRedCardLastGame",
      "outputs": [
        {
          "internalType": "bool",
          "name": "",
          "type": "bool"
        }
      ],
      "stateMutability": "pure",
      "type": "function",
      "constant": true
    },
    {
      "inputs": [
        {
          "internalType": "uint256",
          "name": "encodedSkills",
          "type": "uint256"
        },
        {
          "internalType": "uint8",
          "name": "skillIdx",
          "type": "uint8"
        }
      ],
      "name": "getSkill",
      "outputs": [
        {
          "internalType": "uint256",
          "name": "",
          "type": "uint256"
        }
      ],
      "stateMutability": "pure",
      "type": "function",
      "constant": true
    },
    {
      "inputs": [
        {
          "internalType": "uint256",
          "name": "tactics",
          "type": "uint256"
        },
        {
          "internalType": "uint8",
          "name": "p",
          "type": "uint8"
        }
      ],
      "name": "getSubsRound",
      "outputs": [
        {
          "internalType": "uint8",
          "name": "",
          "type": "uint8"
        }
      ],
      "stateMutability": "pure",
      "type": "function",
      "constant": true
    },
    {
      "inputs": [
        {
          "internalType": "uint256",
          "name": "encodedSkills",
          "type": "uint256"
        }
      ],
      "name": "getSubstitutedFirstHalf",
      "outputs": [
        {
          "internalType": "bool",
          "name": "",
          "type": "bool"
        }
      ],
      "stateMutability": "pure",
      "type": "function",
      "constant": true
    },
    {
      "inputs": [
        {
          "internalType": "uint256",
          "name": "tactics",
          "type": "uint256"
        },
        {
          "internalType": "uint8",
          "name": "p",
          "type": "uint8"
        }
      ],
      "name": "getSubstitution",
      "outputs": [
        {
          "internalType": "uint8",
          "name": "",
          "type": "uint8"
        }
      ],
      "stateMutability": "pure",
      "type": "function",
      "constant": true
    },
    {
      "inputs": [
        {
          "internalType": "uint256",
          "name": "encodedSkills",
          "type": "uint256"
        }
      ],
      "name": "getSumOfSkills",
      "outputs": [
        {
          "internalType": "uint256",
          "name": "",
          "type": "uint256"
        }
      ],
      "stateMutability": "pure",
      "type": "function",
      "constant": true
    },
    {
      "inputs": [
        {
          "internalType": "uint256",
          "name": "tactics",
          "type": "uint256"
        }
      ],
      "name": "getTacticsId",
      "outputs": [
        {
          "internalType": "uint8",
          "name": "",
          "type": "uint8"
        }
      ],
      "stateMutability": "pure",
      "type": "function",
      "constant": true
    },
    {
      "inputs": [
        {
          "internalType": "uint256",
          "name": "log",
          "type": "uint256"
        },
        {
          "internalType": "uint8",
          "name": "posInHaf",
          "type": "uint8"
        },
        {
          "internalType": "bool",
          "name": "is2ndHalf",
          "type": "bool"
        }
      ],
      "name": "getYellowCard",
      "outputs": [
        {
          "internalType": "uint8",
          "name": "",
          "type": "uint8"
        }
      ],
      "stateMutability": "pure",
      "type": "function",
      "constant": true
    },
    {
      "inputs": [
        {
          "internalType": "uint256",
          "name": "encodedSkills",
          "type": "uint256"
        }
      ],
      "name": "getYellowCardFirstHalf",
      "outputs": [
        {
          "internalType": "bool",
          "name": "",
          "type": "bool"
        }
      ],
      "stateMutability": "pure",
      "type": "function",
      "constant": true
    },
    {
      "inputs": [
        {
          "internalType": "uint8[14]",
          "name": "arr",
          "type": "uint8[14]"
        },
        {
          "internalType": "int256",
          "name": "left",
          "type": "int256"
        },
        {
          "internalType": "int256",
          "name": "right",
          "type": "int256"
        }
      ],
      "name": "quickSort14",
      "outputs": [],
      "stateMutability": "pure",
      "type": "function",
      "constant": true
    },
    {
      "inputs": [
        {
          "internalType": "uint256",
          "name": "log",
          "type": "uint256"
        },
        {
          "internalType": "uint8",
          "name": "nChanges",
          "type": "uint8"
        }
      ],
      "name": "setChangesAtHalfTime",
      "outputs": [
        {
          "internalType": "uint256",
          "name": "",
          "type": "uint256"
        }
      ],
      "stateMutability": "pure",
      "type": "function",
      "constant": true
    },
    {
      "inputs": [
        {
          "internalType": "uint256",
          "name": "log",
          "type": "uint256"
        },
        {
          "internalType": "uint8",
          "name": "happenedType",
          "type": "uint8"
        },
        {
          "internalType": "uint8",
          "name": "posInHalf",
          "type": "uint8"
        },
        {
          "internalType": "bool",
          "name": "is2ndHalf",
          "type": "bool"
        }
      ],
      "name": "setInGameSubsHappened",
      "outputs": [
        {
          "internalType": "uint256",
          "name": "",
          "type": "uint256"
        }
      ],
      "stateMutability": "pure",
      "type": "function",
      "constant": true
    },
    {
      "inputs": [
        {
          "internalType": "uint256",
          "name": "log",
          "type": "uint256"
        },
        {
          "internalType": "bool",
          "name": "val",
          "type": "bool"
        }
      ],
      "name": "setIsCancelled",
      "outputs": [
        {
          "internalType": "uint256",
          "name": "",
          "type": "uint256"
        }
      ],
      "stateMutability": "pure",
      "type": "function",
      "constant": true
    },
    {
      "inputs": [
        {
          "internalType": "uint256",
          "name": "log",
          "type": "uint256"
        },
        {
          "internalType": "bool",
          "name": "val",
          "type": "bool"
        }
      ],
      "name": "setIsHomeStadium",
      "outputs": [
        {
          "internalType": "uint256",
          "name": "",
          "type": "uint256"
        }
      ],
      "stateMutability": "pure",
      "type": "function",
      "constant": true
    },
    {
      "inputs": [
        {
          "internalType": "uint256",
          "name": "log",
          "type": "uint256"
        },
        {
          "internalType": "uint8",
          "name": "player",
          "type": "uint8"
        },
        {
          "internalType": "uint8",
          "name": "round",
          "type": "uint8"
        },
        {
          "internalType": "uint8",
          "name": "typeOfOutOfGame",
          "type": "uint8"
        },
        {
          "internalType": "bool",
          "name": "is2ndHalf",
          "type": "bool"
        }
      ],
      "name": "setOutOfGame",
      "outputs": [
        {
          "internalType": "uint256",
          "name": "",
          "type": "uint256"
        }
      ],
      "stateMutability": "pure",
      "type": "function",
      "constant": true
    },
    {
      "inputs": [
        {
          "internalType": "uint8[14]",
          "name": "data",
          "type": "uint8[14]"
        }
      ],
      "name": "sort14",
      "outputs": [
        {
          "internalType": "uint8[14]",
          "name": "",
          "type": "uint8[14]"
        }
      ],
      "stateMutability": "pure",
      "type": "function",
      "constant": true
    },
    {
      "inputs": [
        {
          "internalType": "uint256",
          "name": "weight0",
          "type": "uint256"
        },
        {
          "internalType": "uint256",
          "name": "weight1",
          "type": "uint256"
        },
        {
          "internalType": "uint256",
          "name": "rndNum",
          "type": "uint256"
        }
      ],
      "name": "throwDice",
      "outputs": [
        {
          "internalType": "uint8",
          "name": "",
          "type": "uint8"
        }
      ],
      "stateMutability": "pure",
      "type": "function",
      "constant": true
    },
    {
      "inputs": [
        {
          "internalType": "uint256[]",
          "name": "weights",
          "type": "uint256[]"
        },
        {
          "internalType": "uint256",
          "name": "rndNum",
          "type": "uint256"
        }
      ],
      "name": "throwDiceArray",
      "outputs": [
        {
          "internalType": "uint8",
          "name": "w",
          "type": "uint8"
        }
      ],
      "stateMutability": "pure",
      "type": "function",
      "constant": true
    },
    {
      "inputs": [
        {
          "internalType": "uint256",
          "name": "matchLog",
          "type": "uint256"
        },
        {
          "internalType": "uint256[25]",
          "name": "skills",
          "type": "uint256[25]"
        },
        {
          "internalType": "uint256",
          "name": "tactics",
          "type": "uint256"
        },
        {
          "internalType": "bool",
          "name": "is2ndHalf",
          "type": "bool"
        },
        {
          "internalType": "bool",
          "name": "isBot",
          "type": "bool"
        },
        {
          "internalType": "uint256",
          "name": "seed",
          "type": "uint256"
        }
      ],
      "name": "computeExceptionalEvents",
      "outputs": [
        {
          "internalType": "uint256",
          "name": "",
          "type": "uint256"
        }
      ],
      "stateMutability": "pure",
      "type": "function",
      "constant": true
    },
    {
      "inputs": [
        {
          "internalType": "uint8",
          "name": "outOfGamePlayer",
          "type": "uint8"
        },
        {
          "internalType": "uint256",
          "name": "tactics",
          "type": "uint256"
        }
      ],
      "name": "isOutOfGameForGK",
      "outputs": [
        {
          "internalType": "bool",
          "name": "",
          "type": "bool"
        }
      ],
      "stateMutability": "pure",
      "type": "function",
      "constant": true
    },
    {
      "inputs": [
        {
          "internalType": "uint8",
          "name": "outOfGamePlayer",
          "type": "uint8"
        },
        {
          "internalType": "uint256",
          "name": "tactics",
          "type": "uint256"
        }
      ],
      "name": "getOutOfGameForGK",
      "outputs": [
        {
          "internalType": "uint8",
          "name": "",
          "type": "uint8"
        }
      ],
      "stateMutability": "pure",
      "type": "function",
      "constant": true
    },
    {
      "inputs": [
        {
          "internalType": "bool",
          "name": "is2ndHalf",
          "type": "bool"
        },
        {
          "internalType": "bool",
          "name": "forceRedCard",
          "type": "bool"
        },
        {
          "internalType": "uint8",
          "name": "outOfGamePlayer",
          "type": "uint8"
        },
        {
          "internalType": "uint256",
          "name": "matchLog",
          "type": "uint256"
        },
        {
          "internalType": "uint256",
          "name": "tactics",
          "type": "uint256"
        },
        {
          "internalType": "uint64[2]",
          "name": "rnds",
          "type": "uint64[2]"
        }
      ],
      "name": "logOutOfGame",
      "outputs": [
        {
          "internalType": "uint256",
          "name": "",
          "type": "uint256"
        }
      ],
      "stateMutability": "pure",
      "type": "function",
      "constant": true
    },
    {
      "inputs": [
        {
          "internalType": "uint256",
          "name": "seed",
          "type": "uint256"
        },
        {
          "internalType": "uint8",
          "name": "minRound",
          "type": "uint8"
        },
        {
          "internalType": "uint8",
          "name": "maxRound",
          "type": "uint8"
        }
      ],
      "name": "computeRound",
      "outputs": [
        {
          "internalType": "uint8",
          "name": "round",
          "type": "uint8"
        }
      ],
      "stateMutability": "pure",
      "type": "function",
      "constant": true
    },
    {
      "inputs": [
        {
          "internalType": "uint256",
          "name": "rnd",
          "type": "uint256"
        }
      ],
      "name": "computeTypeOfEvent",
      "outputs": [
        {
          "internalType": "uint8",
          "name": "",
          "type": "uint8"
        }
      ],
      "stateMutability": "pure",
      "type": "function",
      "constant": true
    },
    {
      "inputs": [
        {
          "internalType": "uint256[2]",
          "name": "matchLogs",
          "type": "uint256[2]"
        },
        {
          "internalType": "uint256[25][2]",
          "name": "skills",
          "type": "uint256[25][2]"
        },
        {
          "internalType": "uint256",
          "name": "block0",
          "type": "uint256"
        },
        {
          "internalType": "uint256",
          "name": "block1",
          "type": "uint256"
        },
        {
          "internalType": "uint64",
          "name": "seed",
          "type": "uint64"
        }
      ],
      "name": "computePenalties",
      "outputs": [
        {
          "internalType": "uint256[2]",
          "name": "",
          "type": "uint256[2]"
        }
      ],
      "stateMutability": "pure",
      "type": "function",
      "constant": true
    },
    {
      "inputs": [
        {
          "internalType": "uint256[25]",
          "name": "skills",
          "type": "uint256[25]"
        },
        {
          "internalType": "uint256",
          "name": "tactics",
          "type": "uint256"
        },
        {
          "internalType": "bool",
          "name": "isBot",
          "type": "bool"
        }
      ],
      "name": "getTeamGlobSkills",
      "outputs": [
        {
          "internalType": "uint256[5]",
          "name": "globSkills",
          "type": "uint256[5]"
        }
      ],
      "stateMutability": "pure",
      "type": "function",
      "constant": true
    },
    {
      "inputs": [
        {
          "internalType": "uint256[5]",
          "name": "globSkills",
          "type": "uint256[5]"
        },
        {
          "internalType": "uint256",
          "name": "skills",
          "type": "uint256"
        },
        {
          "internalType": "uint256",
          "name": "tactics",
          "type": "uint256"
        },
        {
          "internalType": "uint256",
          "name": "posInLineUp",
          "type": "uint256"
        }
      ],
      "name": "subtractOutOfGameSkills",
      "outputs": [
        {
          "internalType": "uint256[5]",
          "name": "",
          "type": "uint256[5]"
        }
      ],
      "stateMutability": "pure",
      "type": "function",
      "constant": true
    },
    {
      "inputs": [
        {
          "internalType": "uint8",
          "name": "lineupPos",
          "type": "uint8"
        },
        {
          "internalType": "uint8[9]",
          "name": "playersPerZone",
          "type": "uint8[9]"
        },
        {
          "internalType": "uint256",
          "name": "playerSkills",
          "type": "uint256"
        },
        {
          "internalType": "bool",
          "name": "isBot",
          "type": "bool"
        }
      ],
      "name": "computeModifierBadPositionAndCondition",
      "outputs": [
        {
          "internalType": "uint256",
          "name": "",
          "type": "uint256"
        }
      ],
      "stateMutability": "pure",
      "type": "function",
      "constant": true
    },
    {
      "inputs": [
        {
          "internalType": "bool",
          "name": "extraAttack",
          "type": "bool"
        }
      ],
      "name": "getExtraAttackFactors",
      "outputs": [
        {
          "internalType": "uint256[2]",
          "name": "fwdModFactors",
          "type": "uint256[2]"
        }
      ],
      "stateMutability": "pure",
      "type": "function",
      "constant": true
    },
    {
      "inputs": [
        {
          "internalType": "uint256[5]",
          "name": "globSkills",
          "type": "uint256[5]"
        },
        {
          "internalType": "uint256",
          "name": "playerSkills",
          "type": "uint256"
        },
        {
          "internalType": "uint256",
          "name": "posCondModifier",
          "type": "uint256"
        }
      ],
      "name": "computeGKGlobSkills",
      "outputs": [],
      "stateMutability": "pure",
      "type": "function",
      "constant": true
    },
    {
      "inputs": [
        {
          "internalType": "uint256[5]",
          "name": "globSkills",
          "type": "uint256[5]"
        },
        {
          "internalType": "uint256",
          "name": "playerSkills",
          "type": "uint256"
        },
        {
          "internalType": "uint256",
          "name": "posCondModifier",
          "type": "uint256"
        },
        {
          "internalType": "uint256[2]",
          "name": "fwdModFactors",
          "type": "uint256[2]"
        }
      ],
      "name": "computeDefenderGlobSkills",
      "outputs": [],
      "stateMutability": "pure",
      "type": "function",
      "constant": true
    },
    {
      "inputs": [
        {
          "internalType": "uint256[5]",
          "name": "globSkills",
          "type": "uint256[5]"
        },
        {
          "internalType": "uint256",
          "name": "playerSkills",
          "type": "uint256"
        },
        {
          "internalType": "uint256",
          "name": "posCondModifier",
          "type": "uint256"
        },
        {
          "internalType": "uint256[2]",
          "name": "fwdModFactors",
          "type": "uint256[2]"
        }
      ],
      "name": "computeMidfielderGlobSkills",
      "outputs": [],
      "stateMutability": "pure",
      "type": "function",
      "constant": true
    },
    {
      "inputs": [
        {
          "internalType": "uint256[5]",
          "name": "globSkills",
          "type": "uint256[5]"
        },
        {
          "internalType": "uint256",
          "name": "playerSkills",
          "type": "uint256"
        },
        {
          "internalType": "uint256",
          "name": "posCondModifier",
          "type": "uint256"
        },
        {
          "internalType": "uint256[2]",
          "name": "fwdModFactors",
          "type": "uint256[2]"
        }
      ],
      "name": "computeForwardsGlobSkills",
      "outputs": [],
      "stateMutability": "pure",
      "type": "function",
      "constant": true
    },
    {
      "inputs": [
        {
          "internalType": "uint8[9]",
          "name": "playersPerZone",
          "type": "uint8[9]"
        }
      ],
      "name": "playersBelowZones",
      "outputs": [
        {
          "internalType": "uint8[9]",
          "name": "playersBelow",
          "type": "uint8[9]"
        }
      ],
      "stateMutability": "pure",
      "type": "function",
      "constant": true
    },
    {
      "inputs": [
        {
          "internalType": "uint256",
          "name": "leftishness",
          "type": "uint256"
        }
      ],
      "name": "penaltyForLefts",
      "outputs": [
        {
          "internalType": "uint16",
          "name": "",
          "type": "uint16"
        }
      ],
      "stateMutability": "pure",
      "type": "function",
      "constant": true
    },
    {
      "inputs": [
        {
          "internalType": "uint256",
          "name": "leftishness",
          "type": "uint256"
        }
      ],
      "name": "penaltyForCenters",
      "outputs": [
        {
          "internalType": "uint16",
          "name": "",
          "type": "uint16"
        }
      ],
      "stateMutability": "pure",
      "type": "function",
      "constant": true
    },
    {
      "inputs": [
        {
          "internalType": "uint256",
          "name": "leftishness",
          "type": "uint256"
        }
      ],
      "name": "penaltyForRights",
      "outputs": [
        {
          "internalType": "uint16",
          "name": "",
          "type": "uint16"
        }
      ],
      "stateMutability": "pure",
      "type": "function",
      "constant": true
    },
    {
      "inputs": [
        {
          "internalType": "uint256",
          "name": "forwardness",
          "type": "uint256"
        }
      ],
      "name": "penaltyForDefenders",
      "outputs": [
        {
          "internalType": "uint16",
          "name": "",
          "type": "uint16"
        }
      ],
      "stateMutability": "pure",
      "type": "function",
      "constant": true
    },
    {
      "inputs": [
        {
          "internalType": "uint256",
          "name": "forwardness",
          "type": "uint256"
        }
      ],
      "name": "penaltyForMids",
      "outputs": [
        {
          "internalType": "uint16",
          "name": "",
          "type": "uint16"
        }
      ],
      "stateMutability": "pure",
      "type": "function",
      "constant": true
    },
    {
      "inputs": [
        {
          "internalType": "uint256",
          "name": "forwardness",
          "type": "uint256"
        }
      ],
      "name": "penaltyForAttackers",
      "outputs": [
        {
          "internalType": "uint16",
          "name": "",
          "type": "uint16"
        }
      ],
      "stateMutability": "pure",
      "type": "function",
      "constant": true
    },
    {
      "inputs": [
        {
          "internalType": "uint256",
          "name": "matchLog",
          "type": "uint256"
        },
        {
          "internalType": "uint256",
          "name": "tactics",
          "type": "uint256"
        },
        {
          "internalType": "uint256[25]",
          "name": "skills",
          "type": "uint256[25]"
        },
        {
          "internalType": "bool",
          "name": "is2ndHalf",
          "type": "bool"
        }
      ],
      "name": "getLinedUpSkills",
      "outputs": [
        {
          "internalType": "uint256",
          "name": "",
          "type": "uint256"
        },
        {
          "internalType": "uint256[25]",
          "name": "linedUpSkills",
          "type": "uint256[25]"
        },
        {
          "internalType": "uint8",
          "name": "err",
          "type": "uint8"
        }
      ],
      "stateMutability": "pure",
      "type": "function",
      "constant": true
    },
    {
      "inputs": [
        {
          "internalType": "uint8",
          "name": "lineup",
          "type": "uint8"
        },
        {
          "internalType": "uint256",
          "name": "playerSkills",
          "type": "uint256"
        },
        {
          "internalType": "bool",
          "name": "is2ndHalf",
          "type": "bool"
        },
        {
          "internalType": "bool",
          "name": "isSubst",
          "type": "bool"
        }
      ],
      "name": "verifyCanPlay",
      "outputs": [
        {
          "internalType": "uint256",
          "name": "",
          "type": "uint256"
        }
      ],
      "stateMutability": "pure",
      "type": "function",
      "constant": true
    }
  ],
  "bytecode": "0x608060405234801561001057600080fd5b50614049806100206000396000f3fe608060405234801561001057600080fd5b506004361061063d5760003560e01c80637dba314f11610336578063c2bc41cd116101c3578063e12164fb1161010f578063f2c35764116100ad578063f81c7a4511610087578063f81c7a4514611921578063f8ef7b9e14610b32578063fb2d15d714611947578063fb985369146119645761063d565b8063f2c3576414611893578063f2dc657f146118b0578063f780e885146118cd5761063d565b8063e6e226b9116100e9578063e6e226b914611833578063e804e51914611850578063e81e21bb146114b5578063e9b664541461186d5761063d565b8063e12164fb14611782578063e37528bb146117f0578063e4eec4be1461180d5761063d565b8063d01589241161017c578063d5a4d6c011610156578063d5a4d6c0146116cf578063d7b63a11146114b5578063def5b358146116f4578063df1beecb1461174f5761063d565b8063d0158924146115d5578063d1b3d8fd14611695578063d2f7967d146116b25761063d565b8063c2bc41cd146114eb578063c2d2527414611508578063c648185514611510578063ca7678fb14611536578063cbbfac661461158a578063cc7d473b146115b85761063d565b80639f7d3b7f11610282578063af15ace31161023b578063b2a0425611610215578063b2a042561461145a578063ba8dfa4614611498578063bd354846146114b5578063bf8bf719146114bd5761063d565b8063af15ace3146113b6578063b190da54146113d3578063b1c2c8a31461142c5761063d565b80639f7d3b7f1461127c578063a12dd140146112a2578063a6f3d4f8146112bf578063a7d0238a1461136b578063ab1b7c5e146111e8578063aea8e0dc146113995761063d565b80638b6f120f116102ef578063919e2762116102c9578063919e2762146111f8578063989aa222146112305780639c669166146112535780639cc62340146111e85761063d565b80638b6f120f146111cb5780638cc5938e146111e85780638f3db436146111f05761063d565b80637dba314f146110265780637e0d7c11146110455780637ffa3a2e146110a857806384e61a71146110c55780638ab64cda146111385780638adddc9d146111c35761063d565b8063409ef6c7116104cf5780635ac78b111161041b57806373effb6f116103b957806377945365116103935780637794536514610fa957806379e7659714610fc65780637a8409b314610fe35780637d3921cd146110095761063d565b806373effb6f14610f555780637420a6061461081557806376f96f4214610f7b5761063d565b8063658d2da5116103f5578063658d2da514610e3f5780636f30b06f14610e5c5780636f6c2ae014610f385780637363f87214610b325761063d565b80635ac78b1114610db55780635bdc6b5814610de357806362a7e18514610e115761063d565b80634c0b044a1161048857806352e550131161046257806352e5501314610cb45780635542a2da14610d1e57806356e3df9714610d44578063573ca8f814610d615761063d565b80634c0b044a14610c435780634cc3e34f14610c715780635166822d14610c975761063d565b8063409ef6c714610b5f57806340cd05fd1461081557806341c042be14610b32578063434807ad14610bd057806347524b6014610bed578063494dd3f414610c1e5761063d565b80631fc7768f1161058e5780632bdc66a01161054757806335515f781161052157806335515f7814610b15578063369151db14610b325780633c23306414610b3a5780633fa6466614610b425761063d565b80632bdc66a014610a8b5780632eb7cfa714610a935780633518dd1d14610af85761063d565b80631fc7768f146109905780632272fcec146109ad57806323a37a15146109e157806329d0dcfb146109e95780632a3328f614610a0f5780632a96479d14610a345761063d565b80631060c9c2116105fb5780631884332c116105d55780631884332c14610642578063199abe44146108425780631ea6e32d146108cf5780631f0ab5ab1461095a5761063d565b80631060c9c2146107f857806314792ad214610815578063185e456f1461081d5761063d565b80623e32231461064257806305f0bb7b146106605780630ae78a39146106865780630b489b02146106d05780630f14aef414610746578063102bcaaf1461076b575b600080fd5b61064a611a09565b6040805160ff9092168252519081900360200190f35b61064a6004803603604081101561067657600080fd5b508035906020013560ff16611a0e565b6106be6004803603608081101561069c57600080fd5b5080359060ff6020820135811691604081013590911690606001351515611a25565b60408051918252519081900360200190f35b6106f6600480360360408110156106e657600080fd5b508035906020013560ff16611a63565b60408051602080825283518183015283519192839290830191858101910280838360005b8381101561073257818101518382015260200161071a565b505050509050019250505060405180910390f35b6106be6004803603604081101561075c57600080fd5b50803590602001351515611b57565b6107bf600480360361012081101561078257600080fd5b810190808061012001906009806020026040519081016040528092919082600960200280828437600092019190915250919450611b819350505050565b604051808261012080838360005b838110156107e55781810151838201526020016107cd565b5050505090500191505060405180910390f35b6106be6004803603602081101561080e57600080fd5b5035611bf5565b61064a611c05565b6106be6004803603604081101561083357600080fd5b50803590602001351515611c0a565b6108cd600480360361012081101561085957600080fd5b810190808060a0019060058060200260405190810160405280929190826005602002808284376000920191909152505060408051808201825292958435956020860135959194909350608082019290918101906002908390839080828437600092019190915250919450611c349350505050565b005b6108cd60048036036101208110156108e657600080fd5b810190808060a0019060058060200260405190810160405280929190826005602002808284376000920191909152505060408051808201825292958435956020860135959194909350608082019290918101906002908390839080828437600092019190915250919450611cc19350505050565b6106be6004803603608081101561097057600080fd5b5060ff813516906020810135906040810135151590606001351515611d71565b6106be600480360360208110156109a657600080fd5b5035611dea565b6109ca600480360360208110156109c357600080fd5b5035611df3565b6040805161ffff9092168252519081900360200190f35b61064a611e24565b6106be600480360360408110156109ff57600080fd5b508035906020013560ff16611e29565b6106be60048036036040811015610a2557600080fd5b50803590602001351515611e38565b6108cd600480360360e0811015610a4a57600080fd5b810190808060a00190600580602002604051908101604052809291908260056020028082843760009201919091525091945050813592505060200135611e5b565b6106be611ef1565b610ae160048036036060811015610aa957600080fd5b6040805180820182529183019291818301918390600290839083908082843760009201919091525091945050503560ff169050611efa565b6040805182518152908190839080838360206107cd565b6106be60048036036020811015610b0e57600080fd5b5035611f38565b61064a60048036036020811015610b2b57600080fd5b5035611f41565b61064a611f47565b61064a611f4c565b6109ca60048036036020811015610b5857600080fd5b5035611f51565b6106be600480360360e0811015610b7557600080fd5b6040805180820182528335151593602081013515159360ff848301351693606083013593608084013593928301929160e08301919060a08401906002908390839080828437600092019190915250919450611f709350505050565b6106be60048036036020811015610be657600080fd5b503561210e565b610c0a60048036036020811015610c0357600080fd5b5035612117565b604080519115158252519081900360200190f35b6106be60048036036040811015610c3457600080fd5b50803590602001351515612123565b6106be60048036036060811015610c5957600080fd5b5080359060ff6020820135169060400135151561214d565b6106be60048036036040811015610c8757600080fd5b508035906020013560ff16612176565b61064a60048036036020811015610cad57600080fd5b5035612186565b610d0860048036036101c0811015610ccb57600080fd5b81019080806101c00190600e806020026040519081016040528092919082600e602002808284376000920191909152509194506122119350505050565b6040518151815280826101c080838360206107cd565b61064a60048036036040811015610d3457600080fd5b5060ff813516906020013561222a565b6106be60048036036020811015610d5a57600080fd5b50356122b6565b61064a6004803603610120811015610d7857600080fd5b8101908080610120019060098060200260405190810160405280929190826009602002808284376000920191909152509194506122bf9350505050565b6106be60048036036060811015610dcb57600080fd5b5080359060ff602082013581169160400135166122d9565b61064a60048036036060811015610df957600080fd5b5080359060ff602082013516906040013515156122ee565b61064a60048036036060811015610e2757600080fd5b5080359060ff6020820135811691604001351661231e565b610c0a60048036036020811015610e5557600080fd5b5035612351565b6106be60048036036103e0811015610e7357600080fd5b8101908080606001906003806020026040519081016040528092919082600360200280828437600092019190915250506040805160608181019092529295949381810193925090600390839083908082843760009201919091525050604080516101c08181019092529295949381810193925090600e90839083908082843760009201919091525050604080516101408181019092529295949381810193925090600a90839083908082843760009201919091525091945050503560ff16905061235d565b6106be60048036036020811015610f4e57600080fd5b5035612683565b610c0a60048036036040811015610f6b57600080fd5b5060ff813516906020013561269b565b6106be60048036036060811015610f9157600080fd5b5080359060ff6020820135811691604001351661272e565b6109ca60048036036020811015610fbf57600080fd5b5035612744565b61064a60048036036020811015610fdc57600080fd5b5035612762565b61064a60048036036040811015610ff957600080fd5b508035906020013560ff1661276b565b61064a6004803603602081101561101f57600080fd5b503561277b565b610ae16004803603602081101561103c57600080fd5b50351515612781565b6106be600480360361018081101561105c57600080fd5b6040805161012081810190925260ff84351693928301929161014083019190602084019060099083908390808284376000920191909152509194505081359250506020013515156127c6565b610c0a600480360360208110156110be57600080fd5b50356129d6565b61112360048036036101008110156110dc57600080fd5b810190808060a001906005806020026040519081016040528092919082600560200280828437600092019190915250919450508135925050602081013590604001356129e2565b60405181518152808260a080838360206107cd565b6108cd600480360361012081101561114f57600080fd5b810190808060a0019060058060200260405190810160405280929190826005602002808284376000920191909152505060408051808201825292958435956020860135959194909350608082019290918101906002908390839080828437600092019190915250919450612b709350505050565b61064a612bbd565b610d08600480360360208110156111e157600080fd5b5035612bc2565b61064a612c0d565b61064a612c12565b6106be6004803603608081101561120e57600080fd5b5080359060ff6020820135811691604081013590911690606001351515612c17565b6106be6004803603604081101561124657600080fd5b5080359060200135612c45565b61064a6004803603606081101561126957600080fd5b5080359060208101359060400135612c4c565b6106be6004803603604081101561129257600080fd5b508035906020013560ff16612c8c565b6107bf600480360360208110156112b857600080fd5b5035612c99565b61131e60048036036103808110156112d657600080fd5b60408051610320818101835284359460208101359481019390926103608401929091840190601990839083908082843760009201919091525091945050503515159050612ff2565b604051838152602081018361032080838360005b8381101561134a578181015183820152602001611332565b505050509050018260ff1660ff168152602001935050505060405180910390f35b6106be6004803603606081101561138157600080fd5b5080359060ff602082013581169160400135166133aa565b6109ca600480360360208110156113af57600080fd5b50356133c0565b61064a600480360360208110156113cc57600080fd5b50356133f1565b6108cd60048036036102008110156113ea57600080fd5b81019080806101c00190600e806020026040519081016040528092919082600e6020028082843760009201919091525091945050813592505060200135613416565b61064a6004803603606081101561144257600080fd5b5080359060ff60208201351690604001351515613537565b6106be600480360360a081101561147057600080fd5b5080359060ff6020820135811691604081013582169160608201351690608001351515613564565b61064a600480360360208110156114ae57600080fd5b50356135b7565b61064a6135c0565b6106be600480360360608110156114d357600080fd5b5080359060ff602082013516906040013515156135c5565b6106be6004803603602081101561150157600080fd5b50356135f0565b61064a6135f9565b6106be6004803603604081101561152657600080fd5b508035906020013560ff166135fe565b61064a600480360361012081101561154d57600080fd5b8101908080610120019060098060200260405190810160405280929190826009602002808284376000920191909152509194506136179350505050565b6106be600480360360608110156115a057600080fd5b5080359060ff60208201358116916040013516613627565b610c0a600480360360208110156115ce57600080fd5b503561363d565b610ae160048036036106e08110156115ec57600080fd5b604080518082018252918301929181830191839060029083908390808284376000920182905250604080518082019091529396959461064081019493509150600290835b82821015611672576040805161032081810190925290808402860190601990839083908082843760009201919091525050508152600190910190602001611630565b5092955050823593505050602081013590604001356001600160401b0316613649565b610c0a600480360360208110156116ab57600080fd5b5035613832565b6106be600480360360208110156116c857600080fd5b503561383e565b6106be600480360360408110156116e557600080fd5b5080359060200135151561384c565b611123600480360361036081101561170b57600080fd5b810190808061032001906019806020026040519081016040528092919082601960200280828437600092019190915250919450508135925050602001351515613876565b61176c6004803603602081101561176557600080fd5b50356139f9565b60405181518152808261014080838360206107cd565b6106be60048036036103c081101561179957600080fd5b60408051610320818101909252833593928301929161034083019190602084019060199083908390808284376000920191909152509194505081359250506020810135151590604081013515159060600135613a4f565b610c0a6004803603602081101561180657600080fd5b5035613db7565b61064a6004803603604081101561182357600080fd5b508035906020013560ff16613dc3565b6109ca6004803603602081101561184957600080fd5b5035613dd3565b61064a6004803603602081101561186657600080fd5b5035613e04565b610c0a6004803603604081101561188357600080fd5b508035906020013560ff16613e0d565b610c0a600480360360208110156118a957600080fd5b5035613e33565b6106be600480360360208110156118c657600080fd5b5035613e3f565b61064a60048036036101208110156118e457600080fd5b810190808061012001906009806020026040519081016040528092919082600960200280828437600092019190915250919450613e499350505050565b6106be6004803603604081101561193757600080fd5b508035906020013560ff16613e59565b6109ca6004803603602081101561195d57600080fd5b5035613e60565b61064a6004803603604081101561197a57600080fd5b81019060208101813564010000000081111561199557600080fd5b8201836020820111156119a757600080fd5b803590602001918460208302840111640100000000831117156119c957600080fd5b9190808060200260200160405190810160405280939291908181526020018383602002808284376000920191909152509295505091359250613e7e915050565b600481565b601f60ff601060058402011683901c165b92915050565b60008082611a34576000611a37565b60035b840160020260a70190508060ff168560ff16901b8160ff166003901b198716179150505b949350505050565b60408051602080820185905282518083038201815282840180855281519183019190912060ff868116808452938402909401606090810190955292918491908015611ab8578160200160208202803683370190505b50905060005b8560ff168160ff161015611b4d57602460ff84161015611b08576040805160208082018a905260ff8085168385015283518084038501815260609093019093528151910120945092505b640fffffffff8416828260ff1681518110611b1f57fe5b6001600160401b039092166020928302919091019091015260249390931c9260231990920191600101611abe565b5095945050505050565b600060fb82611b67576000611b6a565b60015b60ff16901b60fb6001901b19841617905092915050565b611b89613f2b565b815160ff16815260015b60098160ff161015611bef57828160ff1660098110611bae57fe5b6020020151826001830360ff1660098110611bc557fe5b602002015101828260ff1660098110611bda57fe5b60ff9092166020929092020152600101611b93565b50919050565b6207ffff60b582901c165b919050565b600081565b600060f882611c1a576000611c1d565b60015b60ff16901b60f86001901b19841617905092915050565b60208101516305f5e1009083611c4b866003611e29565b020281611c5457fe5b855191900401845280516305f5e1009083611c70866002611e29565b611c7b876001611e29565b01020281611c8557fe5b048460015b602002018051909101905261271082611ca4856004611e29565b0281611cac57fe5b04846004602002018051909101905250505050565b61271082611cd0856002611e29565b600302611cde866001611e29565b600202611cec876003611e29565b60020201010281611cf957fe5b85519190040184528051631dcd65009083611d15866002611e29565b611d20876001611e29565b01020281611d2a57fe5b048460016020020180519091019052631dcd65008160015b602002015183611d53866001611e29565b611d5e876003611e29565b01020281611d6857fe5b04846002611c8a565b600093508380841580611d8e5750611d8885612762565b60ff1615155b80611d9d5750611d9d8561363d565b90508315611db8578080611db55750611db585613db7565b90505b8215611dd1578080611dce5750611dce85613e33565b90505b8015611de1576000915050611a5b565b84915050611a5b565b607e1c60071690565b60006002821480611e045750600682145b15611e1257506103e8611c00565b6004821415611c0057506107d0611c00565b600c81565b60ff166014021c620fffff1690565b60008082611e47576083611e4a565b608d5b60ff169390931c600f169392505050565b61271081611e6a846000611e29565b0281611e7257fe5b04836003602002018051909101905261753081611e90846002611e29565b0281611e9857fe5b845191900401835261753081611eaf846001611e29565b0281611eb757fe5b04836002602002018051909101905261271081611ed5846004611e29565b0281611edd57fe5b048360046020020180519091019052505050565b640fffffffff81565b611f02613f4a565b6040805180820190915280611f1f8560005b602002015185612c8c565b8152602001611f2f856001611f14565b90529392505050565b607b1c60071690565b603f1690565b600181565b600b81565b60006004821480611f625750600182145b15611c0057506103e8611c00565b600060ff8516600e1415611f9457611f8d84600e6000808b613564565b9050612104565b6000600b8188611fba576020850151611fb5906001600160401b0316612186565b611fbd565b60035b905060ff81166003148015611ff057506020850151600390600a1c663fffffffffffff16066001600160401b0316600014155b1561200e5761200487600e6000808e613564565b9350505050612104565b612018888761269b565b1561205c5789158061202d575060ff81166003145b61204d576120488761203f8a8961222a565b600c848e613564565b612004565b61200487600e6000808e613564565b600a8860ff16111561207c5761207586600b8a0361276b565b92506120d4565b60005b60038160ff1610156120d2576120958782613dc3565b60ff168960ff1614156120ca576120ac878261276b565b925060ff8216600314156120ca576120c7886002838e611a25565b97505b60010161207f565b505b6120fe87896120f788600060200201516001016001600160401b0316878761231e565b848e613564565b93505050505b9695505050505050565b60741c600f1690565b60cc1c60019081161490565b60008082612132576083612135565b608d5b90508060040160ff1684901c60031691505092915050565b60008161215b57600061215e565b60045b60ca0160ff168360ff16901b841790505b9392505050565b6001607c9190910160ff161b1790565b60408051600380825260808201909252600091606091906020820183803683370190505090506003816000815181106121bb57fe5b6020026020010181815250506007816001815181106121d657fe5b6020026020010181815250506005816002815181106121f157fe5b6020026020010181815250506122078184613e7e565b6001019392505050565b612219613f68565b612226826000600d613416565b5090565b6000612237826000613dc3565b60ff1615801561224a57508260ff16600b145b156122575750600b611a1f565b612262826001613dc3565b60ff1615801561227557508260ff16600c145b156122825750600c611a1f565b61228d826002613dc3565b60ff161580156122a057508260ff16600d145b156122ad5750600d611a1f565b50600092915050565b60cd1c60ff1690565b602081015160009082825b60200201516002020192915050565b60ff91821660049182029091019091161b1790565b600080826122fd576000612300565b60035b840160020260a70190508060ff1685901c6003169150509392505050565b60008260ff168260ff161161233457508161216f565b82820360010160ff16848161234557fe5b06830190509392505050565b60fb1c60019081161490565b600060408260ff16106123b7576040805162461bcd60e51b815260206004820152601e60248201527f7461637469637349642073686f756c642066697420696e203634206269740000604482015290519081900360640190fd5b60ff821660005b600a8160ff161015612405578060060160ff16858260ff16600a81106123e057fe5b60200201516123f05760006123f3565b60015b60ff16901b91909117906001016123be565b5060005b600b8160ff1610156124aa5760198660ff8316600e811061242657fe5b602002015160ff16111561247a576040805162461bcd60e51b8152602060048201526016602482015275696e636f7272656374206c696e65757020656e74727960501b604482015290519081900360640190fd5b8060050260100160ff16868260ff16600e811061249357fe5b602002015160ff16901b9190911790600101612409565b5060005b60038160ff16101561267657600c888260ff16600381106124cb57fe5b602002015160ff161061251e576040805162461bcd60e51b8152602060048201526016602482015275696e636f7272656374206c696e65757020656e74727960501b604482015290519081900360640190fd5b600c878260ff166003811061252f57fe5b602002015160ff161061257b576040805162461bcd60e51b815260206004820152600f60248201526e1a5b98dbdc9c9958dd081c9bdd5b99608a1b604482015290519081900360640190fd5b600b8860ff83166003811061258c57fe5b602002015160ff1614156125f257601986600b830160ff16600e81106125ae57fe5b602002015160ff16146125f25760405162461bcd60e51b8152600401808060200182810382526030815260200180613fe46030913960400191505060405180910390fd5b80600b0160050260100160ff168682600b0160ff16600e811061261157fe5b602002015160ff16901b821791508060040260560160ff16888260ff166003811061263857fe5b602002015160ff16901b821791508060040260620160ff16878260ff166003811061265f57fe5b602002015160ff16901b91909117906001016124ae565b5090505b95945050505050565b600061268e82612117565b61222657611a1f8261383e565b60006126a8826000613dc3565b60ff161580156126bb57508260ff16600b145b156126c857506001611a1f565b6126d3826001613dc3565b60ff161580156126e657508260ff16600c145b156126f357506001611a1f565b6126fe826002613dc3565b60ff1615801561271157508260ff16600d145b1561271e57506001611a1f565b60ff83166122ad57506001611a1f565b60ff91821660059190910260b3019091161b1790565b60006001821480611f6257506003821415611c0057506103e8611c00565b60b11c60071690565b60040260620160ff161c600f1690565b600f1690565b612789613f4a565b81156127ac5750604080518082019091526134bc8152611cef6020820152611c00565b505060408051808201909152612710808252602082015290565b60008060006127d4856135f0565b905060006127e186611f38565b9050811580156127f4575060008860ff16115b8061280a5750811580159061280a575060ff8816155b1561281c576101f49350505050611a5b565b612824613f2b565b61282d88611b81565b600019909901989050806000602002015160ff168960ff16101561287057612854836133c0565b61ffff16935061286382613e60565b61ffff1684019350612981565b806001602002015160ff168960ff16101561289d5761288e836133c0565b61ffff16935061286382611f51565b806002602002015160ff168960ff1610156128ca576128bb836133c0565b61ffff16935061286382611df3565b806003602002015160ff168960ff1610156128e85761285483612744565b806004602002015160ff168960ff1610156129065761288e83612744565b806005602002015160ff168960ff161015612924576128bb83612744565b806006602002015160ff168960ff1610156129425761285483613dd3565b806007602002015160ff168960ff1610156129605761288e83613dd3565b61296983613dd3565b61ffff16935061297882611df3565b61ffff16840193505b6000866129965761299188613e04565b612999565b60035b905060058160ff1611156129b857846113880395505050505050611a5b565b848160ff166103e8026127100361ffff160395505050505050611a5b565b60d61c60019081161490565b6129ea613f87565b836129f6575083611a5b565b600a821115612a1257612a0c83600b8403613dc3565b60ff1691505b612a1a613f87565b612a22613f2b565b612a2b85612c99565b90506000612a3c85838960006127c6565b905084612a5357612a4e838883611e5b565b612ad3565b612a5b613f4a565b612a70612a6b8860018903613e0d565b612781565b9050612a7b836122bf565b60010160ff16861015612a9957612a9484898484612b70565b612ad1565b612aa283613617565b612aab846122bf565b6001010160ff16861015612ac557612a9484898484611cc1565b612ad184898484611c34565b505b60005b600460ff82161015612b6357838160ff1660058110612af157fe5b6020020151898260ff1660058110612b0557fe5b60200201511115612b4457838160ff1660058110612b1f57fe5b6020020151898260ff1660058110612b3357fe5b602002018051919091039052612b5b565b6001898260ff1660058110612b5557fe5b60200201525b600101612ad6565b5096979650505050505050565b80516305f5e1009083612b84866002611e29565b600202612b92876001611e29565b612b9d886003611e29565b0101020281612ba857fe5b85519190040184526305f5e100816001611d42565b601981565b612bca613f68565b60005b600e8160ff161015611bef578060050260100160ff1683901c601f16828260ff16600e8110612bf857fe5b60ff9092166020929092020152600101612bcd565b600281565b600581565b6000808360040283612c2a576097612c2d565b609f5b60ff87811692909101161b8617915050949350505050565b60d41b1790565b600083158015612c5a575082155b15612c6957506001811661216f565b641000000000840283850183021015612c845750600061216f565b50600161216f565b60d21b60ff60d21b161790565b612ca1613f2b565b6000612cac83611f41565b905060ff8116612d0957505060408051610120810182526001808252600260208301819052928201819052606082018190526080820183905260a0820152600060c0820181905260e0820192909252610100810191909152611c00565b8060ff1660011415612d685750506040805161012081018252600180825260036020830152918101829052606081018290526002608082015260a08101829052600060c0820181905260e0820192909252610100810191909152611c00565b8060ff1660021415612dc45750506040805161012081018252600180825260026020830152918101829052606081018290526080810182905260a0810182905260c0810182905260e08101829052610100810191909152611c00565b8060ff1660031415612e235750506040805161012081018252600180825260026020830152918101829052606081018290526003608082015260a08101829052600060c0820181905260e0820192909252610100810191909152611c00565b8060ff1660041415612e7f5750506040805161012081018252600180825260208201819052918101829052606081018290526002608082015260a0810182905260c0810182905260e08101829052610100810191909152611c00565b8060ff1660051415612edb5750506040805161012081018252600180825260208201819052918101829052606081018290526003608082015260a0810191909152600060c08201819052600260e0830152610100820152611c00565b8060ff1660061415612f375750506040805161012081018252600180825260208201819052918101829052606081018290526080810182905260a0810182905260c08101829052600260e0820152610100810191909152611c00565b8060ff1660071415612f96575050604080516101208101825260018082526002602083018190529282018190526000606083018190526080830184905260a083015260c0820181905260e0820192909252610100810191909152611c00565b8060ff1660081415611bef5750506040805161012081018252600080825260026020830152918101919091526001606082018190526003608083015260a0820181905260c0820181905260e08201819052610100820152611c00565b6000612ffc613fa5565b6000613006613f68565b61300f87612bc2565b9050600080805b600b8160ff1610156131165760198460ff8316600e811061303357fe5b602002015160ff161461310e57613086848260ff16600e811061305257fe5b60200201518a868460ff16600e811061306757fe5b602002015160ff166019811061307957fe5b60200201518a6000611d71565b868260ff166019811061309557fe5b60200201528560ff8216601981106130a957fe5b60200201511561310e576001909101908780156130df57506130dd868260ff16601981106130d357fe5b6020020151613e33565b155b1561310e576131058b858360ff16600e81106130f757fe5b60200201516001018561272e565b9a506001909201915b600101613016565b5086156131545760005b60038160ff16101561315257600161313a8c8360006122ee565b60ff16141561314a576001909201915b600101613120565b505b60005b60038160ff16101561329f57600b61316f8b83613dc3565b60ff161415801561319a5750601984600b830160ff16600e811061318f57fe5b602002015160ff1614155b15613297576131eb8482600b0160ff16600e81106131b457fe5b60200201518a8684600b0160ff16600e81106131cc57fe5b602002015160ff16601981106131de57fe5b60200201518a6001611d71565b8682600b0160ff16601981106131fd57fe5b602002015260008660ff600b8401166019811061321657fe5b60200201511115613297576001909201916019846132348c84613dc3565b60ff16600e811061324157fe5b602002015160ff16148061328b57506132898461325e8c84613dc3565b60ff16600e811061326b57fe5b60200201518a8661327c8e86613dc3565b60ff16600e811061306757fe5b155b15613297576001909101905b600101613157565b5060038260ff1611156132bc5750889450601092506133a0915050565b6132c68a836135fe565b995060036132d58b6000612123565b146132e157600c6132e4565b600b5b60ff168160ff16106133005750889450600f92506133a0915050565b61330b8a828961214d565b995061331683612211565b925060015b600b8160ff1610156133985760198460ff8316600e811061333857fe5b602002015160ff1610158061337b5750836001820360ff16600e811061335a57fe5b602002015160ff16848260ff16600e811061337157fe5b602002015160ff16105b6133905750899550601193506133a092505050565b60010161331b565b508995505050505b9450945094915050565b60ff9182166004919091026034019091161b1790565b600060028214806133d15750600582145b156133df57506103e8611c00565b6003821415611c0057506107d0611c00565b60006133fb613f2b565b61340483612c99565b60208101519051600202019392505050565b818180821415613427575050613532565b6000856002868603058601600e811061343c57fe5b602002015160ff1690505b818313613508575b808684600e811061345c57fe5b602002015160ff1611156134755760019092019161344f565b8582600e811061348157fe5b602002015160ff1681111561349c5760001990910190613475565b818313613503578582600e81106134af57fe5b60200201518684600e81106134c057fe5b60200201518785600e81106134d157fe5b602002018885600e81106134e157fe5b60ff938416602091909102919091015291169052600190920191600019909101905b613447565b8185121561351b5761351b868684613416565b8383121561352e5761352e868486613416565b5050505b505050565b600080836004028361354a57609761354d565b609f5b0190508060ff1685901c600f169150509392505050565b60008082613573576083613576565b608d5b60ff8581166004830182161b88821682841690811b6103ff90911b199a909a169990991798909817978681166006909201161b871791505095945050505050565b60f91c60031690565b600381565b6000816135d35760006135d6565b60015b60040260c20160ff168360ff16901b841790509392505050565b60781c60071690565b600e81565b60f91b607f60f91b166001607d60f91b03919091161790565b60808101516000908260036122ca565b60ff9182166002919091026064019091161b1790565b60ad1c60019081161490565b613651613f4a565b606061366a836007026001600160401b0316600e611a63565b9050613674613f4a565b60005b60068160ff1610156137b4576136db866136b08a60005b602002015184600a0360ff16601981106136a457fe5b60200201516000611e29565b600302858460020260ff16815181106136c557fe5b60200260200101516001600160401b0316612c4c565b60ff1660011415613705576136f88960005b602002015182612176565b8952815160010160ff1682525b61372c876137148a600161368e565b600302858460020260010160ff16815181106136c557fe5b60ff1660011415613758576137428960016136ed565b60208a8101919091528201805160010160ff1690525b60038160ff1611156137ac576020820151825160ff918216911611156137835788935050505061267a565b6020820151825160ff918216911610156137ac576137a2896001611efa565b935050505061267a565b600101613677565b506137e76137cb8860005b602002015160046136a4565b87016137d88960016137bf565b870184600d815181106136c557fe5b60ff16613808576138018860005b60200201516006612176565b8852613826565b6138138860016137f5565b6020890152613823886001611efa565b97505b50959695505050505050565b60d51c60019081161490565b60811c6507ffffffffff1690565b6000808261385b57608361385e565b608d5b90508060060160ff1684901c600f1691505092915050565b61387e613f87565b613886613f2b565b61388f84612c99565b855190915060009080156138b7576138aa60008483886127c6565b91506138b7848284611e5b565b6138bf613f4a565b60015b600b8160ff16101561397757888160ff16601981106138dd57fe5b60200201519250821561396f576138f68186858a6127c6565b9350613908612a6b8960018403613e0d565b9150613913856122bf565b60010160ff168160ff1610156139345761392f86848685612b70565b61396f565b61393d85613617565b613946866122bf565b6001010160ff168160ff1610156139635761392f86848685611cc1565b61396f86848685611c34565b6001016138c2565b506080850151156139ee576080850151612af811156139b0576080850151612af8908103604102046041038560045b60200201526139ee565b608085015162035b6011156139e65762033068856004602002015162035b6003602302816139da57fe5b046064038560046139a6565b606460808601525b505050509392505050565b613a01613fc4565b60005b600a8160ff161015611bef578060060160ff1683901c600116600114613a2b576000613a2e565b60015b828260ff16600a8110613a3d57fe5b91151560209092020152600101613a04565b60008215613a8657613a6587600e600087612c17565b9650613a7587600e600187612c17565b9650611f8d87600e60008088613564565b60408051600f8082526102008201909252606091602082016101e0803683370190505090506060613abb84602a016004611a63565b905060005b60038160ff161015613af857600b613ad88983613dc3565b60ff1614613af057613aed8a6001838a611a25565b99505b600101613ac0565b5060005b600e60ff82161015613b6457888160ff1660198110613b1757fe5b602002015115613b5c57613b3d898260ff1660198110613b3357fe5b6020020151611dea565b600101838260ff1681518110613b4f57fe5b6020026020010181815250505b600101613afc565b50600982600e60ff1681518110613b7757fe5b602002602001018181525050613b8b613f4a565b613bb28383600281518110613b9c57fe5b60200260200101516001600160401b0316613e7e565b60ff1681528151613bcc90849084906003908110613b9c57fe5b60ff1660208201528615613cb857613bfe898260005b602002015160ff1660198110613bf457fe5b60200201516129d6565b15613c9957613c118a600e60008a612c17565b9950613c218a600e60018a612c17565b995061200487600183600060200201518d8c604051806040016040528089600081518110613c4b57fe5b60200260200101516001600160401b03166001600160401b0316815260200189600181518110613c7757fe5b60200260200101516001600160401b03166001600160401b0316815250611f70565b613ca589826001613be2565b15613cb857613c118a600e60008a612c17565b6020810151815160ff9081169116148015613cd85750805160ff16600e14155b15613cf257613c118a8260005b602002015160008a612c17565b613cfe8a826000613ce5565b9950613d148a826001602002015160018a612c17565b9950613d208a88612123565b613da95761015e83600e60ff1681518110613d3757fe5b6020026020010181815250506000613d568484600081518110613b9c57fe5b9050613da5886000838e8d60405180604001604052808a600081518110613d7957fe5b60200260200101516001600160401b03166001600160401b031681526020018a600181518110613c7757fe5b9a50505b509798975050505050505050565b60b41c60019081161490565b60040260560160ff161c600f1690565b60006002821480613de45750600482145b15613df257506103e8611c00565b6001821415611c0057506107d0611c00565b60ae1c60071690565b60008160060160ff1683901c600116600114613e2a57600061216f565b60019392505050565b60ac1c60019081161490565b60641c61ffff1690565b60e08101516000908260066122ca565b60ff160190565b60006002821480613de457506003821415613df257506103e8611c00565b6000805b83518260ff161015613eb457838260ff1681518110613e9d57fe5b602090810291909101015160019092019101613e82565b80613ecc5783518381613ec357fe5b06915050611a1f565b600091508202641000000000825b60018651038460ff161015613f2257858460ff1681518110613ef857fe5b602002602001015181019050818102831015613f175750611a1f915050565b600190930192613eda565b50505092915050565b6040518061012001604052806009906020820280368337509192915050565b60405180604001604052806002906020820280368337509192915050565b604051806101c00160405280600e906020820280368337509192915050565b6040518060a001604052806005906020820280368337509192915050565b6040518061032001604052806019906020820280368337509192915050565b604051806101400160405280600a90602082028036833750919291505056fe696e636f7272656374206c696e65757020656e74727920666f72206e6f20737562737469747574656420706c61796572a264697066735822122075a5b057274fa3182f9b9ae2b0168b251237c3fa338b15a803c6d11002ae688564736f6c63430006030033",
  "source": "pragma solidity >= 0.6.3;\n\nimport \"../encoders/EncodingTacticsBase1.sol\";\nimport \"./EngineLib.sol\";\nimport \"./SortValues.sol\";\nimport \"../encoders/EncodingMatchLogBase1.sol\";\nimport \"../encoders/EncodingMatchLogBase3.sol\";\nimport \"../gameEngine/ErrorCodes.sol\";\n\n/**\n @title Library or pure functions, part of Engine\n @author Freeverse.io, www.freeverse.io\n*/\n\ncontract EnginePreComp is EngineLib, EncodingMatchLogBase1, EncodingMatchLogBase3, EncodingTacticsBase1, SortValues, ErrorCodes{\n    uint8 constant public PLAYERS_PER_TEAM_MAX  = 25;\n    /// Skills: shoot, speed, pass, defence, endurance\n    uint8 constant public SK_SHO = 0;\n    uint8 constant public SK_SPE = 1;\n    uint8 constant public SK_PAS = 2;\n    uint8 constant public SK_DEF = 3;\n    uint8 constant public SK_END = 4;   \n     \n    /// Skills for GKs: shot-stopping, 1-on-1, pass, penaltySaving, endurance \n    uint8 constant internal GK_SHO = 0;\n    uint8 constant internal GK_1O1 = 1;\n    uint8 constant internal GK_PAS = 2;\n    uint8 constant internal GK_PEN = 3;\n    uint8 constant internal GK_END = 4;    \n    \n    \n    /// prefPosition idxs: GoalKeeper, Defender, Midfielder, Forward, MidDefender, MidAttacker\n    uint8 constant public IDX_GK = 0;\n    uint8 constant public IDX_D  = 1;\n    uint8 constant public IDX_M  = 2;\n    uint8 constant public IDX_F  = 3;\n    uint8 constant public IDX_MD = 4;\n    uint8 constant public IDX_MF = 5;\n    /// forward modifier\n    uint8 constant public IDX_BOOST = 0;\n    uint8 constant public IDX_TRIM = 1;\n    \n    \n    uint256 private constant ONE256            = uint256(1); \n    uint8 private constant CHG_HAPPENED        = uint8(1); \n    uint8 private constant CHG_CANCELLED       = uint8(2); \n    /// /// Idxs for vector of globSkills: [0=move2attack, 1=globSkills[IDX_CREATE_SHOOT], 2=globSkills[IDX_DEFEND_SHOOT], 3=blockShoot, 4=currentEndurance]\n    uint8 private constant IDX_MOVE2ATTACK  = 0;        \n    uint8 private constant IDX_CREATE_SHOOT = 1; \n    uint8 private constant IDX_DEFEND_SHOOT = 2; \n    uint8 private constant IDX_BLOCK_SHOOT  = 3; \n    uint8 private constant IDX_ENDURANCE    = 4; \n    uint256 private constant TEN_TO_4       = uint256(10000); \n    uint256 private constant TEN_TO_8       = uint256(100000000); \n    uint256 private constant SECS_IN_DAY    = 86400; /// 24 * 3600 \n\n    uint8 public constant ROUNDS_PER_MATCH  = 12;   /// Number of relevant actions that happen during a game (12 equals one per 3.7 min)\n    /// uint8 public constant NO_SUBST  = 11;   /// noone was subtituted\n    uint8 public constant NO_OUT_OF_GAME_PLAYER  = 14;   /// noone saw a card\n    uint8 public constant SOFT_INJURY  = 1;   /// type of event\n    uint8 public constant HARD_INJURY  = 2;   /// type of event\n    uint8 public constant RED_CARD  = 3;   /// type of event\n    /// uint8 public constant NO_LINEUP = 25; /// No player chosen in that position\n    uint8 private constant WINNER_AWAY = 1;\n    uint8 private constant WINNER_DRAW = 2;\n\n    /// Over a game, we would like:\n    ///      - injuryHard = 1 per 100 games => 0.01 per game per player => 0.02 per game\n    ///      - injuryLow = 0.7 per 100 games => 0.007 per game per player => 0.04 per game\n    ///      - redCard 1/10 = 0.1 per game\n    ///      - yellowCard 2.5 per game \n    /// We encode this in uint16[3] events, which applies to 1 half of the game only.\n    ///  - 1 possible event that leaves a player out of the match, encoded in:\n    ///          events[0, 1] = [player (from 0 to 13), eventType (injuryHard, injuryLow, redCard)]\n    ///  - 2 possible events for yellow card:\n    ///          events[2] = player (from 0 to 13)\n    ///          events[3] = player (from 0 to 13)\n    /// The player value is set to NO_EVENT ( = 14) if no event took place\n    /// If we're on the 2nd half, the idx are events[4,5,6,7]\n    /// for out of game:\n    ///      it cannot return 0\n    ///      injuryHard:  1\n    ///      injuryLow:   2\n    ///      redCard:     3  (aka RED_CARD)\n    function computeExceptionalEvents\n    (\n        uint256 matchLog,\n        uint256[PLAYERS_PER_TEAM_MAX] memory skills,\n        uint256 tactics,\n        bool is2ndHalf,\n        bool isBot,\n        uint256 seed\n    ) \n        public \n        pure \n        returns (uint256) \n    {\n        // for bots: set everything to NO_OUT_OF_GAME_PLAYER and return\n        if (isBot) {\n            matchLog = addYellowCard(matchLog, NO_OUT_OF_GAME_PLAYER, 0, is2ndHalf);\n            matchLog = addYellowCard(matchLog, NO_OUT_OF_GAME_PLAYER, 1, is2ndHalf);\n            return setOutOfGame(matchLog, NO_OUT_OF_GAME_PLAYER, 0, 0, is2ndHalf);\n        }\n        // Define 15 weights. Each is the aggressiveness of a given player.\n        // The last one (weights[14 = NO_OUT_OF_GAME_PLAYER]) is the weight that nothing happens. \n        uint256[] memory weights = new uint256[](15);\n        uint64[] memory rnds = getNRandsFromSeed(seed + 42, 4);\n\n        /// Start by logging that all substitutions are possible. It will be re-written \n        /// only by the function logOutOfGame, in case an outOfGame event prevents the subst\n        for (uint8 p = 0; p < 3; p++) {\n            if (getSubstitution(tactics,p) != NO_SUBST) {\n                matchLog = setInGameSubsHappened(matchLog, CHG_HAPPENED, p, is2ndHalf);\n            } \n        }\n\n        /// Build weights for players, based on their aggressiveness.\n        /// If no change was planned (in pos = 11,12,13) => skills remain 0 => skills[pos] = 0 => weight = 0\n        for (uint8 p = 0; p < NO_OUT_OF_GAME_PLAYER; p++) {\n            if (skills[p] != 0) weights[p] = 1 + getAggressiveness(skills[p]); /// weights must be > 0 to ever be selected\n        }\n        \n        /// next: two events for yellow cards\n        /// average sumAggressiveness = 11 * 2.5 = 27.5\n        /// total = 2.5 per game = 1.25 per half => 0.75 per dice thrown\n        /// weight nothing happens = 9\n        weights[NO_OUT_OF_GAME_PLAYER] = 9;\n        uint8[2] memory yellowCardeds;\n        \n        yellowCardeds[0] = throwDiceArray(weights, rnds[2]);\n        yellowCardeds[1] = throwDiceArray(weights, rnds[3]);\n\n        /// Policiy: if a redcard is given (even if as a result of 2 yellows), log it and leave. Enough punishment.\n        /// In 2nd half, first check against yellows in 1st half:\n        if (is2ndHalf) {\n            if (getYellowCardFirstHalf(skills[yellowCardeds[0]])) {\n                matchLog = addYellowCard(matchLog, NO_OUT_OF_GAME_PLAYER, 0, is2ndHalf);\n                matchLog = addYellowCard(matchLog, NO_OUT_OF_GAME_PLAYER, 1, is2ndHalf);\n                return logOutOfGame(is2ndHalf, true, yellowCardeds[0], matchLog, tactics, [rnds[0], rnds[1]]);\n            }\n            if (getYellowCardFirstHalf(skills[yellowCardeds[1]])) {\n                matchLog = addYellowCard(matchLog, NO_OUT_OF_GAME_PLAYER, 0, is2ndHalf);\n                matchLog = addYellowCard(matchLog, NO_OUT_OF_GAME_PLAYER, 1, is2ndHalf);\n                return logOutOfGame(is2ndHalf, true, yellowCardeds[0], matchLog, tactics, [rnds[0], rnds[1]]); \n            }\n        }\n\n        /// If we made it here, it's either 1st half, or the 2 yellows do not match any yellow in 1st half. \n        /// So just check if both yellows are for the same player. If so, log one yellow only, and one red card. \n        /// Note that if it is 1st half, we need to log\n        if (yellowCardeds[0] == yellowCardeds[1] && yellowCardeds[0] != NO_OUT_OF_GAME_PLAYER) {\n            matchLog = addYellowCard(matchLog, yellowCardeds[0], 0, is2ndHalf);\n            matchLog = addYellowCard(matchLog, NO_OUT_OF_GAME_PLAYER, 1, is2ndHalf);\n            return logOutOfGame(is2ndHalf, true, yellowCardeds[0], matchLog, tactics, [rnds[0], rnds[1]]);\n        }\n        \n        /// if we get here: both yellows are to different players, who can continue playing. Record them.\n        matchLog = addYellowCard(matchLog, yellowCardeds[0], 0, is2ndHalf);\n        matchLog = addYellowCard(matchLog, yellowCardeds[1], 1, is2ndHalf);\n\n        /// Redcards & Injuries:\n        /// If a new red card is given to a previously yellow-carded player, no prob, such things happen.\n        /// To assign a weight to having an out of game event, consider that:\n        /// - average sumOfAllAggressiveness = 11 * ( 1 + avg(0,1,2,3)) = 11 * 2.5 = 27.5\n        /// total = 0.07 per game = 0.035 per half => weight nothing happens = 758\n        /// The problem is that we very often do not arrive to this line of code, since there have been 2 yellows.\n        /// After having played a few leagues, it seems good to increase likelihood of injuries by a factor of x3-x4,\n        /// while leaving untouched the likelihood of red cards.\n        /// Previously, we had 3 (injuries) vs 5 (red cards) => move to 10 vs 5\n        /// So, leave likelihood to 7.2% ( wegiht = 350), and change 3 vs 5 to 7 vs 5\n        /// This is an increase in injuries of 7.2/3.5*(10/15)/(3/8) = x 3.6\n        /// For red cards, this is an increase of 7.2/3.5*(5/15)/(5/8) = 1.09\n        if (getOutOfGameType(matchLog, is2ndHalf) == 0) {\n            weights[NO_OUT_OF_GAME_PLAYER] = 350;\n            uint8 outOfGamePlayer = throwDiceArray(weights, rnds[0]);\n            matchLog = logOutOfGame(is2ndHalf, false, outOfGamePlayer, matchLog, tactics, [rnds[0], rnds[1]]);\n        }\n        return matchLog;\n    }\n\n    // returns true if the outOfGamePlayer is either the starting GK, or a substituted one\n    function isOutOfGameForGK(uint8 outOfGamePlayer, uint256 tactics) public pure returns(bool) {\n        if (getSubstitution(tactics, 0) == 0 && outOfGamePlayer == 11) return true;\n        if (getSubstitution(tactics, 1) == 0 && outOfGamePlayer == 12) return true;\n        if (getSubstitution(tactics, 2) == 0 && outOfGamePlayer == 13) return true;\n        if (outOfGamePlayer == 0) return true;\n        return false;\n    }\n    \n    // returns the pos of the outOfGamePlayer: either the starting GK, or a substituted one\n    function getOutOfGameForGK(uint8 outOfGamePlayer, uint256 tactics) public pure returns(uint8) {\n        if (getSubstitution(tactics, 0) == 0 && outOfGamePlayer == 11) return 11;\n        if (getSubstitution(tactics, 1) == 0 && outOfGamePlayer == 12) return 12;\n        if (getSubstitution(tactics, 2) == 0 && outOfGamePlayer == 13) return 13;\n        return 0;\n    }\n    \n    function logOutOfGame(\n        bool is2ndHalf,\n        bool forceRedCard,\n        uint8 outOfGamePlayer, \n        uint256 matchLog,\n        uint256 tactics,\n        uint64[2] memory rnds\n    ) \n        public \n        pure \n        returns(uint256) \n    {\n        if (outOfGamePlayer == NO_OUT_OF_GAME_PLAYER) return setOutOfGame(matchLog, NO_OUT_OF_GAME_PLAYER, 0, 0, is2ndHalf);\n\n        uint8 minRound = 0;\n        uint8 maxRound = ROUNDS_PER_MATCH-1;\n\n        /// first compute the type of event        \n        uint8 typeOfEvent = forceRedCard ? RED_CARD : computeTypeOfEvent(rnds[1]);\n\n        /// explicitly reduce red card frequency by 3\n        if (typeOfEvent == RED_CARD && ((rnds[1] >> 10) % 3 != 0)) { \n            return setOutOfGame(matchLog, NO_OUT_OF_GAME_PLAYER, 0, 0, is2ndHalf);\n        }\n\n        /// for GKs, make sure they do not see a red card, and if they are injured, allow it at the end of 2nd half only.\n        /// note that it a GK is substituted, the same applies to the entry GK.\n        /// note that in-game events end up in round = ROUNDS_PER_MATCH - 1, so we leave endOfGame for round = ROUNDS_PER_MATCH\n        if (isOutOfGameForGK(outOfGamePlayer, tactics)) {\n            return (!is2ndHalf || typeOfEvent == RED_CARD) ? \n                setOutOfGame(matchLog, NO_OUT_OF_GAME_PLAYER, 0, 0, is2ndHalf) :\n                setOutOfGame(matchLog, getOutOfGameForGK(outOfGamePlayer, tactics), ROUNDS_PER_MATCH, typeOfEvent, is2ndHalf);\n        }\n\n        /// if the selected player was one of the guys joining during this half (outGame = 11, 12, or 13),\n        /// make sure that the round selected for this event is after joining. \n        if (outOfGamePlayer > 10) {\n            minRound = getSubsRound(tactics, outOfGamePlayer - 11);\n        }\n        /// if the selected player was one of the guys to be changed during this half (outGame = 0,...10),\n        /// make sure that the round selected for this event is before the change.\n        /// (note that substitution[p] == 11 => NO_SUBS, cannot happen \n        /// in the next else-if (since outOfGamePlayer <= 10 in that branch)\n        else {\n            for (uint8 p = 0; p < 3; p++) {\n                if (outOfGamePlayer == getSubstitution(tactics, p)) {\n                    maxRound = getSubsRound(tactics, p);\n                    /// log that this substitution was unable to take place\n                    if (typeOfEvent == RED_CARD) {\n                        matchLog = setInGameSubsHappened(matchLog, CHG_CANCELLED, p, is2ndHalf);\n                    }\n                } \n            }\n        }\n        return setOutOfGame(matchLog, outOfGamePlayer, computeRound(rnds[0]+1, minRound, maxRound), typeOfEvent, is2ndHalf);\n    }\n\n    function computeRound(uint256 seed, uint8 minRound, uint8 maxRound) public pure returns (uint8 round) {\n        if (!(maxRound > minRound)) return minRound; // this should never happen, but it is here for safety\n        return minRound + uint8(seed % (maxRound - minRound + 1));\n    }\n\n    /// it cannot return 0.\n    /// injuryHard:  1\n    /// injuryLow:   2\n    /// redCard:     3\n    function computeTypeOfEvent(uint256 rnd) public pure returns (uint8) {\n        uint256[] memory weights = new uint256[](3);\n        weights[0] = 3; /// injuryHard   \n        weights[1] = 7; /// injuryLow\n        weights[2] = 5; /// redCard\n        return 1 + throwDiceArray(weights, rnd);\n    }\n\n    /// TODO: avoid redCarded or outOfGame players to shoot, include changed players.\n    function computePenalties(\n        uint256[2] memory matchLogs, \n        uint256[PLAYERS_PER_TEAM_MAX][2] memory skills, \n        uint256 block0, \n        uint256 block1, \n        uint64 seed\n    )\n        public \n        pure \n        returns(uint256[2] memory) \n    {\n        uint64[] memory rnds = getNRandsFromSeed(seed * 7, 14);\n        uint8[2] memory totalGoals;\n        for (uint8 round = 0; round < 6; round++) {\n            if (throwDice(block1, 3 * getSkill(skills[0][10-round], SK_SHO), rnds[2 *round]) == 1) {\n                matchLogs[0] = addScoredPenalty(matchLogs[0], round); \n                totalGoals[0] += 1;\n            }\n            if (throwDice(block0, 3 * getSkill(skills[1][10-round], SK_SHO), rnds[2 *round + 1]) == 1) {\n                matchLogs[1] = addScoredPenalty(matchLogs[1], round); \n                totalGoals[1] += 1;\n            }\n            if (round > 3) {\n                /// note: winner = 0: home, 1: away, 2: draw (so if home wins, no need to write anything)\n                if (totalGoals[0] > totalGoals[1]) return matchLogs;\n                if (totalGoals[0] < totalGoals[1]) { return addWinnerToBothLogs(matchLogs, WINNER_AWAY); }\n            }\n        }\n        if (throwDice(block0 + getSkill(skills[0][4], SK_SHO), block1 + getSkill(skills[1][4], SK_SHO), rnds[13]) == 0) {\n            matchLogs[0] = addScoredPenalty(matchLogs[0], 6); \n        } else {\n            matchLogs[1] = addScoredPenalty(matchLogs[1], 6); \n            matchLogs = addWinnerToBothLogs(matchLogs, WINNER_AWAY);\n        }\n        return matchLogs;\n    }\n\n    //// @dev Computes basic data, including globalSkills, needed during the game.\n    //// @dev Basically implements the formulas:\n    /// move2attack =    defence(defenders + 2*midfields + attackers) +\n    ///                  speed(defenders + 2*midfields) +\n    ///                  pass(defenders + 3*midfields)\n    /// globSkills[IDX_CREATE_SHOOT] =    speed(attackers) + pass(attackers)\n    /// globSkills[IDX_DEFEND_SHOOT] =    speed(defenders) + defence(defenders);\n    /// blockShoot  =    shoot(keeper);\n    function getTeamGlobSkills(\n        uint256[PLAYERS_PER_TEAM_MAX] memory skills,\n        uint256 tactics,\n        bool isBot\n    )\n        public\n        pure\n        returns(uint256[5] memory globSkills)\n    {\n        uint8[9] memory playersPerZone = getPlayersPerZone(tactics);\n        \n        /// for a keeper, the 'shoot skill' is interpreted as block skill\n        /// if for whatever reason, user places a non-GK as GK, the block skill is a terrible minimum.\n        uint256 posCondModifier;\n        uint256 playerSkills = skills[0];\n        if (playerSkills != 0) {\n            posCondModifier = computeModifierBadPositionAndCondition(0, playersPerZone, playerSkills, isBot);\n            computeGKGlobSkills(globSkills, playerSkills, posCondModifier);\n        }\n        uint256[2] memory fwdModFactors;\n        for (uint8 p = 1; p < 11; p++){\n            playerSkills = skills[p];\n            if (playerSkills != 0) {\n                posCondModifier = computeModifierBadPositionAndCondition(p, playersPerZone, playerSkills, isBot);\n                fwdModFactors = getExtraAttackFactors(getExtraAttack(tactics, p-1));\n                if (p < 1 + getNDefenders(playersPerZone)) {computeDefenderGlobSkills(globSkills, playerSkills, posCondModifier, fwdModFactors);}\n                else if (p < 1 + getNDefenders(playersPerZone) + getNMidfielders(playersPerZone)) {computeMidfielderGlobSkills(globSkills, playerSkills, posCondModifier, fwdModFactors);}\n                else {computeForwardsGlobSkills(globSkills, playerSkills, posCondModifier, fwdModFactors);}       \n            }\n        }\n        /// endurance is converted to a percentage, \n        /// used to multiply (and hence decrease) the start endurance.\n        /// 100 is super-endurant (1500), 70 is bad, for an avg starting team (550).\n        /// 20000*11 is super-endurant => 100%\n        /// 1000*11 is starting => 65%\n        /// 100*11 is terrible => 20%\n        \n        if (globSkills[IDX_ENDURANCE] > 0) {\n            if (globSkills[IDX_ENDURANCE] < 11000) {\n                globSkills[IDX_ENDURANCE] = 65 - ((11000-globSkills[IDX_ENDURANCE])*65)/11000;\n            } else if (globSkills[IDX_ENDURANCE] < 220000) {\n                globSkills[IDX_ENDURANCE] = 100 - ((220000-globSkills[IDX_ENDURANCE])*35)/209000;\n            } else {\n                globSkills[IDX_ENDURANCE] = 100;\n            }\n        }\n    }\n\n    function subtractOutOfGameSkills(uint256[5] memory globSkills, uint256 skills, uint256 tactics, uint256 posInLineUp) public pure returns(uint256[5] memory) {\n        if (skills == 0) return globSkills;\n\n        // If the outOfGamePlayer entered the field during this half time, then it plays in the position of the\n        // player it entered for. In such cas, posInLineUp = 11, 12, 13.\n        if (posInLineUp > 10) {\n           posInLineUp = getSubstitution(tactics, uint8(posInLineUp) - 11);\n        }\n        uint256[5] memory toSubtractSkills;\n        uint8[9] memory playersPerZone = getPlayersPerZone(tactics);\n        uint256 posCondModifier = computeModifierBadPositionAndCondition(uint8(posInLineUp), playersPerZone, skills, false);\n        if (posInLineUp == 0) {\n            computeGKGlobSkills(toSubtractSkills, skills, posCondModifier);\n        } else {\n            uint256[2] memory fwdModFactors;\n            fwdModFactors = getExtraAttackFactors(getExtraAttack(tactics, uint8(posInLineUp) - 1));\n            if (posInLineUp < 1 + getNDefenders(playersPerZone)) {computeDefenderGlobSkills(toSubtractSkills, skills, posCondModifier, fwdModFactors);}\n            else if (posInLineUp < 1 + getNDefenders(playersPerZone) + getNMidfielders(playersPerZone)) {computeMidfielderGlobSkills(toSubtractSkills, skills, posCondModifier, fwdModFactors);}\n            else {computeForwardsGlobSkills(toSubtractSkills, skills, posCondModifier, fwdModFactors);}       \n        }\n\n        // do not update endurance, until it is fixed an not rescaled in future versions.\n        for (uint8 i = 0; i < IDX_ENDURANCE; i++) {\n            if (globSkills[i] > toSubtractSkills[i]) {\n                globSkills[i] -= toSubtractSkills[i];\n            } else {\n                globSkills[i] = 1;\n            }\n        }\n        return globSkills;\n    }\n\n\n    /// It internally computes a \"penalty\" quantity, and returns modifier = 10000-penalty.\n    /// So: large modifier => good, large penalty => bad\n    /// Examples: modifier = 0 => max penalty, modifier = 1000 => huge penalty, modifier = 10000 => no penalty\n    function computeModifierBadPositionAndCondition(\n        uint8 lineupPos, \n        uint8[9] memory playersPerZone, \n        uint256 playerSkills,\n        bool isBot\n    ) \n        public\n        pure\n        returns (uint256) \n    {\n        /// by construction, we should always have lineupPos < NO_SUBST\n        uint256 penalty;\n        uint256 forwardness = getForwardness(playerSkills);\n        uint256 leftishness = getLeftishness(playerSkills);\n        if (forwardness == IDX_GK && lineupPos > 0 || forwardness != IDX_GK && lineupPos == 0) return 500; /// 5%\n        uint8[9] memory playersBelow = playersBelowZones(playersPerZone);\n        lineupPos--; /// remove the offset due to the GK\n        if (lineupPos < playersBelow[0]) { \n            /// assigned to defense left\n            penalty = penaltyForDefenders(forwardness);\n            penalty += penaltyForLefts(leftishness);\n        } else if (lineupPos < playersBelow[1]) { \n            /// assigned to defense center\n            penalty = penaltyForDefenders(forwardness);\n            penalty += penaltyForCenters(leftishness);\n        } else if (lineupPos < playersBelow[2]) { \n            /// assigned to defense left\n            penalty = penaltyForDefenders(forwardness);\n            penalty += penaltyForRights(leftishness);\n        } else if (lineupPos < playersBelow[3]) { \n            /// assigned to mid left\n            penalty = penaltyForMids(forwardness);\n            penalty += penaltyForLefts(leftishness);\n        } else if (lineupPos < playersBelow[4]) { \n            /// assigned to mid center\n            penalty = penaltyForMids(forwardness);\n            penalty += penaltyForCenters(leftishness);\n        } else if (lineupPos < playersBelow[5]) { \n            /// assigned to mid right\n            penalty = penaltyForMids(forwardness);\n            penalty += penaltyForRights(leftishness);\n        } else if (lineupPos < playersBelow[6]) { \n            /// assigned to attack left\n            penalty = penaltyForAttackers(forwardness);\n            penalty += penaltyForLefts(leftishness);\n        } else if (lineupPos < playersBelow[7]) { \n            /// assigned to attack center\n            penalty = penaltyForAttackers(forwardness);\n            penalty += penaltyForCenters(leftishness);\n        } else { \n            /// assigned to attack right\n            penalty = penaltyForAttackers(forwardness);\n            penalty += penaltyForRights(leftishness);\n        }\n        /// In no case can penalty be larger than 4000 since it is \n        /// the sum of 2 penalties, and each is at most 2000.\n        uint8 gamesNonStop = isBot ? 3 : getGamesNonStopping(playerSkills);\n        if (gamesNonStop > 5) {\n            return 5000 - penalty;\n        } else {\n            return 10000 - gamesNonStop * 1000 - penalty;\n        }\n    }\n\n    /// If extraAttack is active, it will boost 35% some addition of this player to global stats, and decrease by 35% some others.\n    /// So, relative to 1e4, this is 1.35*1e4 and 1e4/1.35\n    function getExtraAttackFactors(bool extraAttack) public pure returns (uint256[2] memory fwdModFactors) {\n        if (extraAttack)    {fwdModFactors = [uint256(13500), uint256(7407)];}\n        else                {fwdModFactors = [TEN_TO_4,TEN_TO_4];}\n    }\n\n    function computeGKGlobSkills(\n        uint256[5] memory globSkills,\n        uint256 playerSkills, \n        uint256 posCondModifier\n    ) \n        public \n        pure\n    {\n        /// extraAttack for defenders: \n        ///  - higher move2attack\n        ///  - less defend_shoot\n        ///  - less endurance\n        globSkills[IDX_BLOCK_SHOOT]  += (getSkill(playerSkills, GK_SHO) * posCondModifier) / TEN_TO_4;\n        globSkills[IDX_MOVE2ATTACK]  += (getSkill(playerSkills, GK_PAS) * posCondModifier) / (3 * TEN_TO_4); /// 3 times less than a defender\n        globSkills[IDX_DEFEND_SHOOT] += (getSkill(playerSkills, GK_1O1) * posCondModifier) / (3 * TEN_TO_4); /// 3 times less than a defender\n        globSkills[IDX_ENDURANCE]    += (getSkill(playerSkills, GK_END) * posCondModifier) / TEN_TO_4;\n    }\n  \n    function computeDefenderGlobSkills(\n        uint256[5] memory globSkills,\n        uint256 playerSkills, \n        uint256 posCondModifier, \n        uint256[2] memory fwdModFactors\n    ) \n        public \n        pure\n    {\n        /// extraAttack for defenders: \n        ///  - higher move2attack\n        ///  - less defend_shoot\n        ///  - less endurance\n        globSkills[IDX_MOVE2ATTACK] += ((getSkill(playerSkills, SK_DEF) + getSkill(playerSkills, SK_SPE) + 2 * getSkill(playerSkills, SK_PAS)) * posCondModifier * fwdModFactors[IDX_BOOST])/TEN_TO_8;\n        globSkills[IDX_DEFEND_SHOOT] += ((getSkill(playerSkills, SK_DEF) + getSkill(playerSkills, SK_SPE)) * posCondModifier * fwdModFactors[IDX_TRIM])/TEN_TO_8;\n        globSkills[IDX_ENDURANCE]   += ((getSkill(playerSkills, SK_END)) * posCondModifier)/TEN_TO_4;\n    }\n\n\n    function computeMidfielderGlobSkills(\n        uint256[5] memory globSkills,\n        uint256 playerSkills, \n        uint256 posCondModifier, \n        uint256[2] memory fwdModFactors\n    ) \n        public \n        pure\n    {\n        /// extraAttack for midfielders: \n        ///  - move2attack remains the same, but create shoot increases\n        ///  - less defend_shoot, less endurance\n        globSkills[IDX_MOVE2ATTACK] += ((2*getSkill(playerSkills, SK_DEF) + 2*getSkill(playerSkills, SK_SPE) + 3*getSkill(playerSkills, SK_PAS)) * posCondModifier)/TEN_TO_4;\n        globSkills[IDX_CREATE_SHOOT] += ((getSkill(playerSkills, SK_SPE) + getSkill(playerSkills, SK_PAS)) * posCondModifier * fwdModFactors[IDX_BOOST])/(5 * TEN_TO_8);\n        globSkills[IDX_DEFEND_SHOOT] += ((getSkill(playerSkills, SK_DEF) + getSkill(playerSkills, SK_SPE)) * posCondModifier * fwdModFactors[IDX_TRIM])/(5 * TEN_TO_8);\n        globSkills[IDX_ENDURANCE]   += ((getSkill(playerSkills, SK_END)) * posCondModifier)/TEN_TO_4;\n    }\n    \n    \n    function computeForwardsGlobSkills(\n        uint256[5] memory globSkills,\n        uint256 playerSkills, \n        uint256 posCondModifier, \n        uint256[2] memory fwdModFactors\n    ) \n        public \n        pure\n    {\n        /// extraAttack for forwards: \n        ///  - by disconnecting them from midifield => less move2attack\n        ///  - but once ball is in attack => more likely to create shoot\n        globSkills[IDX_MOVE2ATTACK] += ((getSkill(playerSkills, SK_DEF)) * posCondModifier * fwdModFactors[IDX_TRIM])/TEN_TO_8;\n        globSkills[IDX_CREATE_SHOOT] += ((getSkill(playerSkills, SK_SPE) + getSkill(playerSkills, SK_PAS)) * posCondModifier * fwdModFactors[IDX_BOOST])/TEN_TO_8;\n        globSkills[IDX_ENDURANCE] += ((getSkill(playerSkills, SK_END)) * posCondModifier)/TEN_TO_4;\n    }\n\n    function playersBelowZones(uint8[9] memory playersPerZone) public pure returns(uint8[9] memory  playersBelow) {\n        playersBelow[0] = playersPerZone[0];    \n        for (uint8 z = 1; z < 9; z++) {\n            playersBelow[z] = playersBelow[z-1] + playersPerZone[z];\n        }\n    }\n\n    function penaltyForLefts(uint256 leftishness) public pure returns(uint16) {\n        if (leftishness == IDX_C || leftishness == IDX_CR) {return 1000;} \n        else if (leftishness == IDX_R) {return 2000;}\n    }\n\n    function penaltyForCenters(uint256 leftishness) public pure returns(uint16) {\n        if (leftishness == IDX_L || leftishness == IDX_R) {return 1000;} \n    }\n\n    function penaltyForRights(uint256 leftishness) public pure returns(uint16) {\n        if (leftishness == IDX_C || leftishness == IDX_LC) {return 1000;} \n        else if (leftishness == IDX_L) {return 2000;}\n    }\n    \n    function penaltyForDefenders(uint256 forwardness) public pure returns(uint16) {\n        if (forwardness == IDX_M || forwardness == IDX_MF) {return 1000;}\n        else if (forwardness == IDX_F) {return 2000;}\n    }\n\n    function penaltyForMids(uint256 forwardness) public pure returns(uint16) {\n        if (forwardness == IDX_D || forwardness == IDX_F) {return 1000;}\n    }\n\n    function penaltyForAttackers(uint256 forwardness) public pure returns(uint16) {\n        if (forwardness == IDX_M || forwardness == IDX_MD) {return 1000;}\n        else if (forwardness == IDX_D) {return 2000;}\n    }\n\n    function getLinedUpSkills(\n        uint256 matchLog, \n        uint256 tactics, \n        uint256[PLAYERS_PER_TEAM_MAX] memory skills, \n        bool is2ndHalf\n    )\n        public \n        pure \n        returns \n    (\n        uint256,\n        uint256[PLAYERS_PER_TEAM_MAX] memory linedUpSkills,\n        uint8 err\n    ) \n    {\n        uint8[14] memory lineup = getFullLineUp(tactics);\n        uint8 changes;\n        uint8 fieldPlayers;\n        \n        /// Count changes during half-time, as well as not-aligned players\n        for (uint8 p = 0; p < 11; p++) {\n            if (lineup[p] != NO_LINEUP) {   \n                linedUpSkills[p] = verifyCanPlay(lineup[p], skills[lineup[p]], is2ndHalf, false);\n                if (linedUpSkills[p] != 0) {\n                    fieldPlayers++;\n                    if (is2ndHalf && !getAlignedEndOfFirstHalf(linedUpSkills[p])) {\n                        matchLog = addHalfTimeSubs(matchLog, lineup[p]+1, changes); /// for halftime subs, 0 = NO_SUBS\n                        changes++;\n                    }\n                }\n            }\n        }\n        \n        /// If we are in 2nd half, count ingame changes that took place during 1st half\n        if (is2ndHalf) {\n            for (uint8 p = 0; p < 3; p++) {\n                if (getInGameSubsHappened(matchLog, p, false) == CHG_HAPPENED) changes++;\n            }        \n        }\n\n        /// Count subtitutions planned for the half to be played now:\n        for (uint8 p = 0; p < 3; p++) {\n            if ((getSubstitution(tactics, p) != NO_SUBST) && (lineup[11+p] != NO_LINEUP)) {\n                linedUpSkills[11+p] = verifyCanPlay(lineup[11+p], skills[lineup[11+p]], is2ndHalf, true);\n                if (linedUpSkills[11+p]>0) {\n                    changes++;\n                    /// if the player to be substituted was an empty slot, then add 1 to fieldPlayers\n                    /// this prevents, e.g., having a red-carded from 1st half not starting the 2nd half (so that the\n                    /// system would allow a 10 players lineup), to be immediately substituted by another player, hence\n                    /// having 11 players again in the field.\n                    if (\n                        (lineup[getSubstitution(tactics, p)] == NO_LINEUP) || \n                        (verifyCanPlay(lineup[getSubstitution(tactics, p)], skills[lineup[getSubstitution(tactics, p)]], is2ndHalf, false) == 0)\n                    ) {\n                        fieldPlayers++;\n                    }\n                }\n            }\n        }\n        if (changes > 3) return (matchLog, linedUpSkills, ERR_PLAYHALF_HALFCHANGES);\n        matchLog = setChangesAtHalfTime(matchLog, changes);\n        if (fieldPlayers >= (getOutOfGameType(matchLog, false) == RED_CARD ? 11 : 12)) return (matchLog, linedUpSkills, ERR_PLAYHALF_TOO_MANY_LINEDUP);\n\n        matchLog = addNTot(matchLog, fieldPlayers, is2ndHalf);\n\n        /// Check that the same player does not appear twice in the lineup\n        lineup = sort14(lineup);\n        for (uint8 p = 1; p < 11; p++) {\n            /// check that player does not appear twice in lineUp\n            if (!((lineup[p] >= NO_LINEUP) || lineup[p] < lineup[p-1])) return (matchLog, linedUpSkills, ERR_PLAYHALF_PLAYER_TWICE);\n        }  \n        /// Note that teamSumSkills is the sum of, at most, 14 skills of, at most, 20b each. \n        /// So the total cannot be larger that 24b, which is the limit reserved for teamSumSkills.\n        return (matchLog, linedUpSkills, err);      \n    }\n\n    function verifyCanPlay(uint8 lineup, uint256 playerSkills, bool is2ndHalf, bool isSubst) public pure returns(uint256) {\n        lineup = 0; /// revisit this when subst at 1st half is ready\n        bool isWrong =  (playerSkills == 0) ||\n                        (getInjuryWeeksLeft(playerSkills) != 0) ||\n                        getRedCardLastGame(playerSkills);\n        if (is2ndHalf) isWrong = isWrong || getSubstitutedFirstHalf(playerSkills);\n        if (isSubst) isWrong = isWrong || getAlignedEndOfFirstHalf(playerSkills);\n        if (isWrong) {return 0;} \n        else {return playerSkills;}\n    }\n}\n\n",
  "sourcePath": "/Users/jurgenkudla/proyects/laos/laos-goal-revolution/truffle-core/contracts/gameEngine/EnginePreComp.sol",
  "compiler": {
    "name": "solc",
    "version": "0.6.3+commit.8dda9521.Emscripten.clang"
  },
  "schemaVersion": "3.0.23",
  "updatedAt": "2024-10-16T08:58:34.427Z",
  "networkType": "ethereum",
  "devdoc": {
    "author": "Freeverse.io, www.freeverse.io",
    "methods": {
      "getTeamGlobSkills(uint256[25],uint256,bool)": {
        "details": "Computes basic data, including globalSkills, needed during the game.Basically implements the formulas: move2attack =    defence(defenders + 2*midfields + attackers) +                  speed(defenders + 2*midfields) +                  pass(defenders + 3*midfields) globSkills[IDX_CREATE_SHOOT] =    speed(attackers) + pass(attackers) globSkills[IDX_DEFEND_SHOOT] =    speed(defenders) + defence(defenders); blockShoot  =    shoot(keeper);"
      },
      "throwDiceArray(uint256[],uint256)": {
        "details": "Generalization of the previous to any number of input weightsIt therefore throws any number of dice and returns the winner's idx.Following the explanation above, consider this limits:"
      }
    },
    "title": "Library or pure functions, part of Engine"
  },
  "userdoc": {
    "methods": {
      "addHalfTimeSubs(uint256,uint8,uint8)": {
        "notice": "recall that 0 means no subs, and we store here lineUp[p]+1 (where lineUp[p] = player shirt in the 25 that was substituted)"
      },
      "computeExceptionalEvents(uint256,uint256[25],uint256,bool,bool,uint256)": {
        "notice": "Over a game, we would like:      - injuryHard = 1 per 100 games => 0.01 per game per player => 0.02 per game      - injuryLow = 0.7 per 100 games => 0.007 per game per player => 0.04 per game      - redCard 1/10 = 0.1 per game      - yellowCard 2.5 per game  We encode this in uint16[3] events, which applies to 1 half of the game only.  - 1 possible event that leaves a player out of the match, encoded in:          events[0, 1] = [player (from 0 to 13), eventType (injuryHard, injuryLow, redCard)]  - 2 possible events for yellow card:          events[2] = player (from 0 to 13)          events[3] = player (from 0 to 13) The player value is set to NO_EVENT ( = 14) if no event took place If we're on the 2nd half, the idx are events[4,5,6,7] for out of game:      it cannot return 0      injuryHard:  1      injuryLow:   2      redCard:     3  (aka RED_CARD)"
      },
      "computeModifierBadPositionAndCondition(uint8,uint8[9],uint256,bool)": {
        "notice": "It internally computes a \"penalty\" quantity, and returns modifier = 10000-penalty. So: large modifier => good, large penalty => bad Examples: modifier = 0 => max penalty, modifier = 1000 => huge penalty, modifier = 10000 => no penalty"
      },
      "computePenalties(uint256[2],uint256[25][2],uint256,uint256,uint64)": {
        "notice": "TODO: avoid redCarded or outOfGame players to shoot, include changed players."
      },
      "computeTypeOfEvent(uint256)": {
        "notice": "it cannot return 0. injuryHard:  1 injuryLow:   2 redCard:     3"
      },
      "getExtraAttackFactors(bool)": {
        "notice": "If extraAttack is active, it will boost 35% some addition of this player to global stats, and decrease by 35% some others. So, relative to 1e4, this is 1.35*1e4 and 1e4/1.35"
      },
      "getPlayersPerZone(uint256)": {
        "notice": "TODO: can this be expressed as translates from a high level tacticsId (e.g. 442) to a format that describes how many players play in each of the 9 zones in the field (Def, Mid, Forw) x (L, C, R),  We impose left-right symmetry: DR = DL, MR = ML, FR = FL. So we only manage 6 numbers: [DL, DM, ML, MM, FL, FM], and force "
      },
      "throwDice(uint256,uint256,uint256)": {
        "notice": "24 * 3600  / Throws a dice that returns 0 with probability weight0/(weight0+weight1), and 1 otherwise. / So, returning 0 has semantics: \"the responsible for weight0 is selected\". / We return a uint8, not bool, to allow the return to be used as an idx in an array by the callee. / The formula is derived as follows. Consider a segment which is the union of a segment of length w0, and one of length w1.      0, 1, ... w0-1 | w0 ... w0+w1-1  We want to get a random number in that segment: (w0+w1) * R/(maxR + 1)  w0 wins if (w0+w1) * R/(maxR + 1) < w0 => (w0+w1) * R < w0 * (maxR + 1)  w1 wins otherwise  Limits:  (w0 = 0, w1 != 0) => w0 never wins;   (w0 ! 0, w1 = 0) => w1 never wins;     MAX_RND controls the resolution or fine-graining of the algorithm."
      }
    }
  }
}