{
  "contractName": "EngineApplyBoosters",
  "abi": [
    {
      "inputs": [],
      "name": "NO_SUBST",
      "outputs": [
        {
          "internalType": "uint8",
          "name": "",
          "type": "uint8"
        }
      ],
      "stateMutability": "view",
      "type": "function",
      "constant": true
    },
    {
      "inputs": [],
      "name": "N_SKILLS",
      "outputs": [
        {
          "internalType": "uint8",
          "name": "",
          "type": "uint8"
        }
      ],
      "stateMutability": "view",
      "type": "function",
      "constant": true
    },
    {
      "inputs": [
        {
          "internalType": "uint256",
          "name": "encodedSkills",
          "type": "uint256"
        }
      ],
      "name": "addIsSpecial",
      "outputs": [
        {
          "internalType": "uint256",
          "name": "",
          "type": "uint256"
        }
      ],
      "stateMutability": "pure",
      "type": "function",
      "constant": true
    },
    {
      "inputs": [
        {
          "internalType": "uint32",
          "name": "encoded",
          "type": "uint32"
        }
      ],
      "name": "decodeBoosts",
      "outputs": [
        {
          "internalType": "uint8[6]",
          "name": "skillsBoost",
          "type": "uint8[6]"
        }
      ],
      "stateMutability": "pure",
      "type": "function",
      "constant": true
    },
    {
      "inputs": [
        {
          "internalType": "uint8[6]",
          "name": "skillsBoost",
          "type": "uint8[6]"
        }
      ],
      "name": "encodeBoosts",
      "outputs": [
        {
          "internalType": "uint32",
          "name": "encoded",
          "type": "uint32"
        }
      ],
      "stateMutability": "pure",
      "type": "function",
      "constant": true
    },
    {
      "inputs": [
        {
          "internalType": "uint8[3]",
          "name": "substitutions",
          "type": "uint8[3]"
        },
        {
          "internalType": "uint8[3]",
          "name": "subsRounds",
          "type": "uint8[3]"
        },
        {
          "internalType": "uint8[14]",
          "name": "lineup",
          "type": "uint8[14]"
        },
        {
          "internalType": "bool[10]",
          "name": "extraAttack",
          "type": "bool[10]"
        },
        {
          "internalType": "uint8",
          "name": "tacticsId",
          "type": "uint8"
        }
      ],
      "name": "encodeTactics",
      "outputs": [
        {
          "internalType": "uint256",
          "name": "",
          "type": "uint256"
        }
      ],
      "stateMutability": "pure",
      "type": "function",
      "constant": true
    },
    {
      "inputs": [
        {
          "internalType": "uint256",
          "name": "encodedSkills",
          "type": "uint256"
        }
      ],
      "name": "getAggressiveness",
      "outputs": [
        {
          "internalType": "uint256",
          "name": "",
          "type": "uint256"
        }
      ],
      "stateMutability": "pure",
      "type": "function",
      "constant": true
    },
    {
      "inputs": [
        {
          "internalType": "uint256",
          "name": "encodedSkills",
          "type": "uint256"
        }
      ],
      "name": "getAlignedEndOfFirstHalf",
      "outputs": [
        {
          "internalType": "bool",
          "name": "",
          "type": "bool"
        }
      ],
      "stateMutability": "pure",
      "type": "function",
      "constant": true
    },
    {
      "inputs": [
        {
          "internalType": "uint256",
          "name": "encodedSkills",
          "type": "uint256"
        }
      ],
      "name": "getBirthDay",
      "outputs": [
        {
          "internalType": "uint256",
          "name": "",
          "type": "uint256"
        }
      ],
      "stateMutability": "pure",
      "type": "function",
      "constant": true
    },
    {
      "inputs": [
        {
          "internalType": "uint256",
          "name": "encodedSkills",
          "type": "uint256"
        }
      ],
      "name": "getForwardness",
      "outputs": [
        {
          "internalType": "uint256",
          "name": "",
          "type": "uint256"
        }
      ],
      "stateMutability": "pure",
      "type": "function",
      "constant": true
    },
    {
      "inputs": [
        {
          "internalType": "uint256",
          "name": "encodedSkills",
          "type": "uint256"
        }
      ],
      "name": "getGamesNonStopping",
      "outputs": [
        {
          "internalType": "uint8",
          "name": "",
          "type": "uint8"
        }
      ],
      "stateMutability": "pure",
      "type": "function",
      "constant": true
    },
    {
      "inputs": [
        {
          "internalType": "uint256",
          "name": "encodedSkills",
          "type": "uint256"
        }
      ],
      "name": "getGeneration",
      "outputs": [
        {
          "internalType": "uint256",
          "name": "",
          "type": "uint256"
        }
      ],
      "stateMutability": "pure",
      "type": "function",
      "constant": true
    },
    {
      "inputs": [
        {
          "internalType": "uint256",
          "name": "encodedSkills",
          "type": "uint256"
        }
      ],
      "name": "getInjuryWeeksLeft",
      "outputs": [
        {
          "internalType": "uint8",
          "name": "",
          "type": "uint8"
        }
      ],
      "stateMutability": "pure",
      "type": "function",
      "constant": true
    },
    {
      "inputs": [
        {
          "internalType": "uint256",
          "name": "encodedSkills",
          "type": "uint256"
        }
      ],
      "name": "getInternalPlayerId",
      "outputs": [
        {
          "internalType": "uint256",
          "name": "",
          "type": "uint256"
        }
      ],
      "stateMutability": "pure",
      "type": "function",
      "constant": true
    },
    {
      "inputs": [
        {
          "internalType": "uint256",
          "name": "encodedSkills",
          "type": "uint256"
        }
      ],
      "name": "getIsSpecial",
      "outputs": [
        {
          "internalType": "bool",
          "name": "",
          "type": "bool"
        }
      ],
      "stateMutability": "pure",
      "type": "function",
      "constant": true
    },
    {
      "inputs": [
        {
          "internalType": "uint256",
          "name": "tactics",
          "type": "uint256"
        }
      ],
      "name": "getItemsData",
      "outputs": [
        {
          "internalType": "uint8[25]",
          "name": "staminas",
          "type": "uint8[25]"
        },
        {
          "internalType": "uint16",
          "name": "",
          "type": "uint16"
        },
        {
          "internalType": "uint32",
          "name": "",
          "type": "uint32"
        }
      ],
      "stateMutability": "pure",
      "type": "function",
      "constant": true
    },
    {
      "inputs": [
        {
          "internalType": "uint256",
          "name": "encodedSkills",
          "type": "uint256"
        }
      ],
      "name": "getLeftishness",
      "outputs": [
        {
          "internalType": "uint256",
          "name": "",
          "type": "uint256"
        }
      ],
      "stateMutability": "pure",
      "type": "function",
      "constant": true
    },
    {
      "inputs": [
        {
          "internalType": "uint256",
          "name": "encodedSkills",
          "type": "uint256"
        }
      ],
      "name": "getOutOfGameFirstHalf",
      "outputs": [
        {
          "internalType": "bool",
          "name": "",
          "type": "bool"
        }
      ],
      "stateMutability": "pure",
      "type": "function",
      "constant": true
    },
    {
      "inputs": [
        {
          "internalType": "uint256",
          "name": "encodedSkills",
          "type": "uint256"
        }
      ],
      "name": "getPlayerIdFromSkills",
      "outputs": [
        {
          "internalType": "uint256",
          "name": "",
          "type": "uint256"
        }
      ],
      "stateMutability": "pure",
      "type": "function",
      "constant": true
    },
    {
      "inputs": [
        {
          "internalType": "uint256",
          "name": "encodedSkills",
          "type": "uint256"
        }
      ],
      "name": "getPotential",
      "outputs": [
        {
          "internalType": "uint256",
          "name": "",
          "type": "uint256"
        }
      ],
      "stateMutability": "pure",
      "type": "function",
      "constant": true
    },
    {
      "inputs": [
        {
          "internalType": "uint256",
          "name": "encodedSkills",
          "type": "uint256"
        }
      ],
      "name": "getRedCardLastGame",
      "outputs": [
        {
          "internalType": "bool",
          "name": "",
          "type": "bool"
        }
      ],
      "stateMutability": "pure",
      "type": "function",
      "constant": true
    },
    {
      "inputs": [
        {
          "internalType": "uint256",
          "name": "encodedSkills",
          "type": "uint256"
        },
        {
          "internalType": "uint8",
          "name": "skillIdx",
          "type": "uint8"
        }
      ],
      "name": "getSkill",
      "outputs": [
        {
          "internalType": "uint256",
          "name": "",
          "type": "uint256"
        }
      ],
      "stateMutability": "pure",
      "type": "function",
      "constant": true
    },
    {
      "inputs": [
        {
          "internalType": "uint256",
          "name": "encodedSkills",
          "type": "uint256"
        }
      ],
      "name": "getSubstitutedFirstHalf",
      "outputs": [
        {
          "internalType": "bool",
          "name": "",
          "type": "bool"
        }
      ],
      "stateMutability": "pure",
      "type": "function",
      "constant": true
    },
    {
      "inputs": [
        {
          "internalType": "uint256",
          "name": "encodedSkills",
          "type": "uint256"
        }
      ],
      "name": "getSumOfSkills",
      "outputs": [
        {
          "internalType": "uint256",
          "name": "",
          "type": "uint256"
        }
      ],
      "stateMutability": "pure",
      "type": "function",
      "constant": true
    },
    {
      "inputs": [
        {
          "internalType": "uint256",
          "name": "encodedSkills",
          "type": "uint256"
        }
      ],
      "name": "getYellowCardFirstHalf",
      "outputs": [
        {
          "internalType": "bool",
          "name": "",
          "type": "bool"
        }
      ],
      "stateMutability": "pure",
      "type": "function",
      "constant": true
    },
    {
      "inputs": [
        {
          "internalType": "uint256",
          "name": "encodedSkills",
          "type": "uint256"
        },
        {
          "internalType": "bool",
          "name": "val",
          "type": "bool"
        }
      ],
      "name": "setAlignedEndOfFirstHalf",
      "outputs": [
        {
          "internalType": "uint256",
          "name": "",
          "type": "uint256"
        }
      ],
      "stateMutability": "pure",
      "type": "function",
      "constant": true
    },
    {
      "inputs": [
        {
          "internalType": "uint256",
          "name": "encodedSkills",
          "type": "uint256"
        },
        {
          "internalType": "uint8",
          "name": "val",
          "type": "uint8"
        }
      ],
      "name": "setGamesNonStopping",
      "outputs": [
        {
          "internalType": "uint256",
          "name": "",
          "type": "uint256"
        }
      ],
      "stateMutability": "pure",
      "type": "function",
      "constant": true
    },
    {
      "inputs": [
        {
          "internalType": "uint256",
          "name": "encodedSkills",
          "type": "uint256"
        },
        {
          "internalType": "uint32",
          "name": "val",
          "type": "uint32"
        }
      ],
      "name": "setGeneration",
      "outputs": [
        {
          "internalType": "uint256",
          "name": "",
          "type": "uint256"
        }
      ],
      "stateMutability": "pure",
      "type": "function",
      "constant": true
    },
    {
      "inputs": [
        {
          "internalType": "uint256",
          "name": "encodedSkills",
          "type": "uint256"
        },
        {
          "internalType": "uint8",
          "name": "val",
          "type": "uint8"
        }
      ],
      "name": "setInjuryWeeksLeft",
      "outputs": [
        {
          "internalType": "uint256",
          "name": "",
          "type": "uint256"
        }
      ],
      "stateMutability": "pure",
      "type": "function",
      "constant": true
    },
    {
      "inputs": [
        {
          "internalType": "uint256",
          "name": "tactics",
          "type": "uint256"
        },
        {
          "internalType": "uint32",
          "name": "val",
          "type": "uint32"
        }
      ],
      "name": "setItemBoost",
      "outputs": [
        {
          "internalType": "uint256",
          "name": "",
          "type": "uint256"
        }
      ],
      "stateMutability": "pure",
      "type": "function",
      "constant": true
    },
    {
      "inputs": [
        {
          "internalType": "uint256",
          "name": "tactics",
          "type": "uint256"
        },
        {
          "internalType": "uint16",
          "name": "val",
          "type": "uint16"
        }
      ],
      "name": "setItemId",
      "outputs": [
        {
          "internalType": "uint256",
          "name": "",
          "type": "uint256"
        }
      ],
      "stateMutability": "pure",
      "type": "function",
      "constant": true
    },
    {
      "inputs": [
        {
          "internalType": "uint256",
          "name": "encodedSkills",
          "type": "uint256"
        },
        {
          "internalType": "bool",
          "name": "val",
          "type": "bool"
        }
      ],
      "name": "setOutOfGameFirstHalf",
      "outputs": [
        {
          "internalType": "uint256",
          "name": "",
          "type": "uint256"
        }
      ],
      "stateMutability": "pure",
      "type": "function",
      "constant": true
    },
    {
      "inputs": [
        {
          "internalType": "uint256",
          "name": "encodedSkills",
          "type": "uint256"
        },
        {
          "internalType": "uint256",
          "name": "val",
          "type": "uint256"
        }
      ],
      "name": "setPotential",
      "outputs": [
        {
          "internalType": "uint256",
          "name": "",
          "type": "uint256"
        }
      ],
      "stateMutability": "pure",
      "type": "function",
      "constant": true
    },
    {
      "inputs": [
        {
          "internalType": "uint256",
          "name": "encodedSkills",
          "type": "uint256"
        },
        {
          "internalType": "bool",
          "name": "val",
          "type": "bool"
        }
      ],
      "name": "setRedCardLastGame",
      "outputs": [
        {
          "internalType": "uint256",
          "name": "",
          "type": "uint256"
        }
      ],
      "stateMutability": "pure",
      "type": "function",
      "constant": true
    },
    {
      "inputs": [
        {
          "internalType": "uint256",
          "name": "encodedSkills",
          "type": "uint256"
        },
        {
          "internalType": "uint256",
          "name": "val",
          "type": "uint256"
        },
        {
          "internalType": "uint8",
          "name": "skillIdx",
          "type": "uint8"
        }
      ],
      "name": "setSkill",
      "outputs": [
        {
          "internalType": "uint256",
          "name": "",
          "type": "uint256"
        }
      ],
      "stateMutability": "pure",
      "type": "function",
      "constant": true
    },
    {
      "inputs": [
        {
          "internalType": "uint256",
          "name": "tactics",
          "type": "uint256"
        },
        {
          "internalType": "uint8[25]",
          "name": "vals",
          "type": "uint8[25]"
        }
      ],
      "name": "setStaminaRecovery",
      "outputs": [
        {
          "internalType": "uint256",
          "name": "",
          "type": "uint256"
        }
      ],
      "stateMutability": "pure",
      "type": "function",
      "constant": true
    },
    {
      "inputs": [
        {
          "internalType": "uint256",
          "name": "encodedSkills",
          "type": "uint256"
        },
        {
          "internalType": "bool",
          "name": "val",
          "type": "bool"
        }
      ],
      "name": "setSubstitutedFirstHalf",
      "outputs": [
        {
          "internalType": "uint256",
          "name": "",
          "type": "uint256"
        }
      ],
      "stateMutability": "pure",
      "type": "function",
      "constant": true
    },
    {
      "inputs": [
        {
          "internalType": "uint256",
          "name": "encodedSkills",
          "type": "uint256"
        },
        {
          "internalType": "uint32",
          "name": "val",
          "type": "uint32"
        }
      ],
      "name": "setSumOfSkills",
      "outputs": [
        {
          "internalType": "uint256",
          "name": "",
          "type": "uint256"
        }
      ],
      "stateMutability": "pure",
      "type": "function",
      "constant": true
    },
    {
      "inputs": [
        {
          "internalType": "uint256",
          "name": "encodedSkills",
          "type": "uint256"
        },
        {
          "internalType": "bool",
          "name": "val",
          "type": "bool"
        }
      ],
      "name": "setYellowCardFirstHalf",
      "outputs": [
        {
          "internalType": "uint256",
          "name": "",
          "type": "uint256"
        }
      ],
      "stateMutability": "pure",
      "type": "function",
      "constant": true
    },
    {
      "inputs": [
        {
          "internalType": "uint256[25]",
          "name": "linedUpSkills",
          "type": "uint256[25]"
        },
        {
          "internalType": "uint256",
          "name": "tactics",
          "type": "uint256"
        }
      ],
      "name": "applyItemBoost",
      "outputs": [
        {
          "internalType": "uint256[25]",
          "name": "",
          "type": "uint256[25]"
        }
      ],
      "stateMutability": "pure",
      "type": "function",
      "constant": true
    }
  ],
  "bytecode": "0x608060405234801561001057600080fd5b506113b7806100206000396000f3fe608060405234801561001057600080fd5b50600436106102485760003560e01c80637ffa3a2e1161013b578063d1b3d8fd116100b8578063e804e5191161007c578063e804e519146108f5578063f2c3576414610912578063f2dc657f1461092f578063facec5731461094c578063fc27bf4a1461097257610248565b8063d1b3d8fd14610853578063d2f7967d14610870578063db43151d1461088d578063dcc9ee3f146108b3578063e37528bb146108d857610248565b8063b8100e57116100ff578063b8100e5714610772578063be8fcecb1461079b578063c2bc41cd146107f4578063c5aedd2c14610811578063cc7d473b1461083657610248565b80637ffa3a2e1461069b5780638de97f4f146106b8578063920bee2f146106e1578063976daaac146106fe578063a25e48a31461070657610248565b80633c233064116101c9578063638a53071161018d578063638a5307146104bf5780636f30b06f1461051a5780636f6c2ae0146105f6578063755bfe0d1461061357806379e765971461067e57610248565b80633c23306414610411578063434807ad1461042f57806347524b601461044c5780634e905ea21461047d57806356e3df97146104a257610248565b80632777d02a116102105780632777d02a1461035957806329d0dcfb146103805780633518dd1d146103a657806336e31782146103c357806338897858146103e857610248565b806307c30b4d1461024d5780631018d55f146102845780631060c9c2146102b057806310bca22c146102cd5780631fc7768f1461033c575b600080fd5b6102726004803603604081101561026357600080fd5b50803590602001351515610995565b60408051918252519081900360200190f35b6102726004803603606081101561029a57600080fd5b508035906020810135906040013560ff166109c1565b610272600480360360208110156102c657600080fd5b50356109da565b6102ea600480360360208110156102e357600080fd5b50356109e5565b604051808461032080838360005b838110156103105781810151838201526020016102f8565b50505061ffff90961692019182525063ffffffff90921660208301525060408051918290030192509050f35b6102726004803603602081101561035257600080fd5b5035610a4e565b6102726004803603604081101561036f57600080fd5b508035906020013561ffff16610a57565b6102726004803603604081101561039657600080fd5b508035906020013560ff16610acd565b610272600480360360208110156103bc57600080fd5b5035610adc565b610272600480360360408110156103d957600080fd5b50803590602001351515610ae5565b610272600480360360408110156103fe57600080fd5b508035906020013563ffffffff16610b0f565b610419610b2b565b6040805160ff9092168252519081900360200190f35b6102726004803603602081101561044557600080fd5b5035610b30565b6104696004803603602081101561046257600080fd5b5035610b39565b604080519115158252519081900360200190f35b6102726004803603604081101561049357600080fd5b50803590602001351515610b45565b610272600480360360208110156104b857600080fd5b5035610b6f565b6104e2600480360360208110156104d557600080fd5b503563ffffffff16610b78565b604051808260c080838360005b838110156105075781810151838201526020016104ef565b5050505090500191505060405180910390f35b61027260048036036103e081101561053157600080fd5b8101908080606001906003806020026040519081016040528092919082600360200280828437600092019190915250506040805160608181019092529295949381810193925090600390839083908082843760009201919091525050604080516101c08181019092529295949381810193925090600e90839083908082843760009201919091525050604080516101408181019092529295949381810193925090600a90839083908082843760009201919091525091945050503560ff169050610bcb565b6102726004803603602081101561060c57600080fd5b5035610eef565b610665600480360360c081101561062957600080fd5b810190808060c001906006806020026040519081016040528092919082600660200280828437600092019190915250919450610f109350505050565b6040805163ffffffff9092168252519081900360200190f35b6104196004803603602081101561069457600080fd5b5035610f96565b610469600480360360208110156106b157600080fd5b5035610f9f565b610272600480360360408110156106ce57600080fd5b508035906020013563ffffffff16610fab565b610272600480360360208110156106f757600080fd5b5035610fc5565b610419610fce565b61075c600480360361034081101561071d57600080fd5b8101908080610320019060198060200260405190810160405280929190826019602002808284376000920191909152509194505090359150610fd39050565b60405181518152808261032080838360206104ef565b6102726004803603604081101561078857600080fd5b508035906020013563ffffffff166110b9565b61027260048036036103408110156107b257600080fd5b60408051610320818101909252833593928301929161034083019190602084019060199083908390808284376000920191909152509194506110d69350505050565b6102726004803603602081101561080a57600080fd5b503561119d565b6102726004803603604081101561082757600080fd5b508035906020013515156111a6565b6104696004803603602081101561084c57600080fd5b50356111d0565b6104696004803603602081101561086957600080fd5b50356111dc565b6102726004803603602081101561088657600080fd5b50356111e8565b610272600480360360408110156108a357600080fd5b508035906020013560ff166111f6565b610272600480360360408110156108c957600080fd5b5080359060200135151561120d565b610469600480360360208110156108ee57600080fd5b5035611237565b6104196004803603602081101561090b57600080fd5b5035611243565b6104696004803603602081101561092857600080fd5b503561124c565b6102726004803603602081101561094557600080fd5b5035611258565b6102726004803603604081101561096257600080fd5b508035906020013560ff16611262565b6102726004803603604081101561098857600080fd5b50803590602001356112d4565b600081156109b15750600160ad1b198216600160ad1b176109bb565b50600160ad1b1982165b92915050565b60ff1660140290811b620fffff90911b19919091161790565b60b51c6207ffff1690565b6109ed6112e5565b600080805b601960ff82161015610a325780600202606e0160ff1685901c600316848260ff1660198110610a1d57fe5b60ff90921660209290920201526001016109f2565b50919360a084901c611fff169360ad1c63ffffffff1692509050565b607e1c60071690565b60006120008261ffff1610610ab3576040805162461bcd60e51b815260206004820152601f60248201527f7374616d696e615265636f76657279206d757374206265203c20322a2a313300604482015290519081900360640190fd5b5060a01b61ffff60a01b16611fff60a01b19919091161790565b60ff166014021c620fffff1690565b607b1c60071690565b60008115610b015750600160d51b198216600160d51b176109bb565b50600160d51b1982166109bb565b60b51b63ffffffff60b51b166207ffff60b51b19919091161790565b600b81565b60741c600f1690565b60cc1c60019081161490565b60008115610b615750600160b41b198216600160b41b176109bb565b50600160b41b1982166109bb565b60cd1c60ff1690565b610b80611304565b60005b600560ff821611610bc5578060060260ff168363ffffffff16901c603f16828260ff1660068110610bb057fe5b60ff9092166020929092020152600101610b83565b50919050565b600060408260ff1610610c25576040805162461bcd60e51b815260206004820152601e60248201527f7461637469637349642073686f756c642066697420696e203634206269740000604482015290519081900360640190fd5b60ff821660005b600a8160ff161015610c73578060060160ff16858260ff16600a8110610c4e57fe5b6020020151610c5e576000610c61565b60015b60ff16901b9190911790600101610c2c565b5060005b600b8160ff161015610d185760198660ff8316600e8110610c9457fe5b602002015160ff161115610ce8576040805162461bcd60e51b8152602060048201526016602482015275696e636f7272656374206c696e65757020656e74727960501b604482015290519081900360640190fd5b8060050260100160ff16868260ff16600e8110610d0157fe5b602002015160ff16901b9190911790600101610c77565b5060005b60038160ff161015610ee457600c888260ff1660038110610d3957fe5b602002015160ff1610610d8c576040805162461bcd60e51b8152602060048201526016602482015275696e636f7272656374206c696e65757020656e74727960501b604482015290519081900360640190fd5b600c878260ff1660038110610d9d57fe5b602002015160ff1610610de9576040805162461bcd60e51b815260206004820152600f60248201526e1a5b98dbdc9c9958dd081c9bdd5b99608a1b604482015290519081900360640190fd5b600b8860ff831660038110610dfa57fe5b602002015160ff161415610e6057601986600b830160ff16600e8110610e1c57fe5b602002015160ff1614610e605760405162461bcd60e51b81526004018080602001828103825260308152602001806113236030913960400191505060405180910390fd5b80600b0160050260100160ff168682600b0160ff16600e8110610e7f57fe5b602002015160ff16901b821791508060040260560160ff16888260ff1660038110610ea657fe5b602002015160ff16901b821791508060040260620160ff16878260ff1660038110610ecd57fe5b602002015160ff16901b9190911790600101610d1c565b509695505050505050565b6000610efa82610b39565b610f0c57610f07826111e8565b6109bb565b5090565b60006004826005602002015160ff1610610f5b5760405162461bcd60e51b815260040180806020018281038252602f815260200180611353602f913960400191505060405180910390fd5b60005b600560ff821611610bc5578060060260ff16838260ff1660068110610f7f57fe5b602002015160ff16901b9190911790600101610f5e565b60b11c60071690565b60d61c60019081161490565b60cd1b63ffffffff60cd1b1660ff60cd1b19919091161790565b600160cc1b1790565b600581565b610fdb6112e5565b600080610fe7846109e5565b92509250508161ffff16600014156110035784925050506109bb565b61100b611304565b61101482610b78565b905060005b600e8160ff1610156110ae576000878260ff166019811061103657fe5b6020020151905060005b600560ff8216101561108f57611085826064868460ff166006811061106157fe5b602002015160640160ff166110768686610acd565b028161107e57fe5b04836109c1565b9150600101611040565b5080888360ff16601981106110a057fe5b602002015250600101611019565b509495945050505050565b60ad1b63ffffffff60ad1b1663ffffffff60ad1b19919091161790565b6000805b601960ff82161015611195576004838260ff16601981106110f757fe5b602002015160ff1610611151576040805162461bcd60e51b815260206004820152601b60248201527f7374616d696e615265636f76657279206d757374206265203c20340000000000604482015290519081900360640190fd5b80600202606e0160ff16838260ff166019811061116a57fe5b602002015160ff16901b81600202606e0160ff166003901b19851617935080806001019150506110da565b509192915050565b60781c60071690565b600081156111c25750600160d61b198216600160d61b176109bb565b50600160d61b1982166109bb565b60ad1c60019081161490565b60d51c60019081161490565b60811c6507ffffffffff1690565b60b11b60ff60b11b16600760b11b19919091161790565b600081156112295750600160ac1b198216600160ac1b176109bb565b50600160ac1b1982166109bb565b60b41c60019081161490565b60ae1c60071690565b60ac1c60019081161490565b60641c61ffff1690565b600060088260ff16106112bc576040805162461bcd60e51b815260206004820152601d60248201527f67616d65734e6f6e53746f7070696e67206f7574206f6620626f756e64000000604482015290519081900360640190fd5b5060ae1b60ff60ae1b16600760ae1b19919091161790565b60741b600f60741b19919091161790565b6040518061032001604052806019906020820280368337509192915050565b6040518060c00160405280600690602082028036833750919291505056fe696e636f7272656374206c696e65757020656e74727920666f72206e6f20737562737469747574656420706c6179657263616e6e6f74206f66666572206974656d73207468617420626f6f737420706f74656e7469616c20736f206d756368a2646970667358221220e9cddf42096600bcedbd0b63c04f8178aea2c0b78d29f04d289e21950498c45e64736f6c63430006030033",
  "source": "pragma solidity >= 0.6.3;\n\nimport \"../encoders/EncodingTactics.sol\";\nimport \"../encoders/EncodingSkillsGetters.sol\";\nimport \"../encoders/EncodingSkillsSetters.sol\";\n\n/**\n @title Library to manage how boosters affect skills\n @author Freeverse.io, www.freeverse.io\n*/\n\ncontract EngineApplyBoosters is EncodingSkillsSetters, EncodingSkillsGetters, EncodingTactics  {\n\n    uint8 constant private PLAYERS_PER_TEAM_MAX = 25;\n    uint8 constant public N_SKILLS = 5;\n\n    /// skills order: shoot, speed, pass, defence, endurance\n    function applyItemBoost(uint256[PLAYERS_PER_TEAM_MAX] memory linedUpSkills, uint256 tactics) public pure returns(uint256[PLAYERS_PER_TEAM_MAX] memory) {\n        ( , uint16 itemId, uint32 boost) = getItemsData(tactics);\n        if (itemId == 0) return linedUpSkills;\n        uint8[N_SKILLS+1] memory skillsBoost = decodeBoosts(boost);\n        for (uint8 p = 0; p < 14; p++) {\n            uint256 skills = linedUpSkills[p];\n            for (uint8 sk = 0; sk < N_SKILLS; sk++) {\n                skills = setSkill(\n                    skills, \n                    (getSkill(skills, sk) * (100 + skillsBoost[sk])) / 100,\n                    sk\n                );\n            }\n            linedUpSkills[p] = skills;\n        }\n        return linedUpSkills;\n    }\n\n}\n\n",
  "sourcePath": "/Users/jurgenkudla/proyects/laos/laos-goal-revolution/truffle-core/contracts/gameEngine/EngineApplyBoosters.sol",
  "compiler": {
    "name": "solc",
    "version": "0.6.3+commit.8dda9521.Emscripten.clang"
  },
  "schemaVersion": "3.0.23",
  "updatedAt": "2024-10-16T08:58:34.452Z",
  "networkType": "ethereum",
  "devdoc": {
    "author": "Freeverse.io, www.freeverse.io",
    "methods": {},
    "title": "Library to manage how boosters affect skills"
  },
  "userdoc": {
    "methods": {
      "applyItemBoost(uint256[25],uint256)": {
        "notice": "skills order: shoot, speed, pass, defence, endurance"
      },
      "encodeBoosts(uint8[6])": {
        "notice": "bits: 5 skills * 6b per skill (max 64) + 2b for potential = 32b"
      }
    }
  }
}