{
  "contractName": "Evolution",
  "abi": [
    {
      "inputs": [],
      "name": "HARD_INJURY",
      "outputs": [
        {
          "internalType": "uint8",
          "name": "",
          "type": "uint8"
        }
      ],
      "stateMutability": "view",
      "type": "function",
      "constant": true
    },
    {
      "inputs": [],
      "name": "MAX_PERCENT",
      "outputs": [
        {
          "internalType": "uint256",
          "name": "",
          "type": "uint256"
        }
      ],
      "stateMutability": "view",
      "type": "function",
      "constant": true
    },
    {
      "inputs": [],
      "name": "MAX_RND",
      "outputs": [
        {
          "internalType": "uint256",
          "name": "",
          "type": "uint256"
        }
      ],
      "stateMutability": "view",
      "type": "function",
      "constant": true
    },
    {
      "inputs": [],
      "name": "NO_OUT_OF_GAME_PLAYER",
      "outputs": [
        {
          "internalType": "uint8",
          "name": "",
          "type": "uint8"
        }
      ],
      "stateMutability": "view",
      "type": "function",
      "constant": true
    },
    {
      "inputs": [],
      "name": "NO_PLAYER",
      "outputs": [
        {
          "internalType": "uint8",
          "name": "",
          "type": "uint8"
        }
      ],
      "stateMutability": "view",
      "type": "function",
      "constant": true
    },
    {
      "inputs": [],
      "name": "NO_SUBST",
      "outputs": [
        {
          "internalType": "uint8",
          "name": "",
          "type": "uint8"
        }
      ],
      "stateMutability": "view",
      "type": "function",
      "constant": true
    },
    {
      "inputs": [],
      "name": "RED_CARD",
      "outputs": [
        {
          "internalType": "uint8",
          "name": "",
          "type": "uint8"
        }
      ],
      "stateMutability": "view",
      "type": "function",
      "constant": true
    },
    {
      "inputs": [],
      "name": "SOFT_INJURY",
      "outputs": [
        {
          "internalType": "uint8",
          "name": "",
          "type": "uint8"
        }
      ],
      "stateMutability": "view",
      "type": "function",
      "constant": true
    },
    {
      "inputs": [],
      "name": "WEEKS_HARD_INJ",
      "outputs": [
        {
          "internalType": "uint8",
          "name": "",
          "type": "uint8"
        }
      ],
      "stateMutability": "view",
      "type": "function",
      "constant": true
    },
    {
      "inputs": [],
      "name": "WEEKS_SOFT_INJ",
      "outputs": [
        {
          "internalType": "uint8",
          "name": "",
          "type": "uint8"
        }
      ],
      "stateMutability": "view",
      "type": "function",
      "constant": true
    },
    {
      "inputs": [
        {
          "internalType": "uint256",
          "name": "log",
          "type": "uint256"
        },
        {
          "internalType": "uint8",
          "name": "player",
          "type": "uint8"
        },
        {
          "internalType": "uint8",
          "name": "pos",
          "type": "uint8"
        }
      ],
      "name": "addAssister",
      "outputs": [
        {
          "internalType": "uint256",
          "name": "",
          "type": "uint256"
        }
      ],
      "stateMutability": "pure",
      "type": "function",
      "constant": true
    },
    {
      "inputs": [
        {
          "internalType": "uint256",
          "name": "log",
          "type": "uint256"
        },
        {
          "internalType": "uint8",
          "name": "player",
          "type": "uint8"
        },
        {
          "internalType": "uint8",
          "name": "pos",
          "type": "uint8"
        }
      ],
      "name": "addForwardPos",
      "outputs": [
        {
          "internalType": "uint256",
          "name": "",
          "type": "uint256"
        }
      ],
      "stateMutability": "pure",
      "type": "function",
      "constant": true
    },
    {
      "inputs": [
        {
          "internalType": "uint256",
          "name": "log",
          "type": "uint256"
        },
        {
          "internalType": "uint8",
          "name": "player",
          "type": "uint8"
        },
        {
          "internalType": "uint8",
          "name": "pos",
          "type": "uint8"
        }
      ],
      "name": "addHalfTimeSubs",
      "outputs": [
        {
          "internalType": "uint256",
          "name": "",
          "type": "uint256"
        }
      ],
      "stateMutability": "pure",
      "type": "function",
      "constant": true
    },
    {
      "inputs": [
        {
          "internalType": "uint256",
          "name": "encodedSkills",
          "type": "uint256"
        }
      ],
      "name": "addIsSpecial",
      "outputs": [
        {
          "internalType": "uint256",
          "name": "",
          "type": "uint256"
        }
      ],
      "stateMutability": "pure",
      "type": "function",
      "constant": true
    },
    {
      "inputs": [
        {
          "internalType": "uint256",
          "name": "log",
          "type": "uint256"
        },
        {
          "internalType": "uint8",
          "name": "nDefs",
          "type": "uint8"
        },
        {
          "internalType": "bool",
          "name": "is2ndHalf",
          "type": "bool"
        }
      ],
      "name": "addNGKAndDefs",
      "outputs": [
        {
          "internalType": "uint256",
          "name": "",
          "type": "uint256"
        }
      ],
      "stateMutability": "pure",
      "type": "function",
      "constant": true
    },
    {
      "inputs": [
        {
          "internalType": "uint256",
          "name": "log",
          "type": "uint256"
        },
        {
          "internalType": "uint8",
          "name": "goals",
          "type": "uint8"
        }
      ],
      "name": "addNGoals",
      "outputs": [
        {
          "internalType": "uint256",
          "name": "",
          "type": "uint256"
        }
      ],
      "stateMutability": "pure",
      "type": "function",
      "constant": true
    },
    {
      "inputs": [
        {
          "internalType": "uint256",
          "name": "log",
          "type": "uint256"
        },
        {
          "internalType": "uint8",
          "name": "nTot",
          "type": "uint8"
        },
        {
          "internalType": "bool",
          "name": "is2ndHalf",
          "type": "bool"
        }
      ],
      "name": "addNTot",
      "outputs": [
        {
          "internalType": "uint256",
          "name": "",
          "type": "uint256"
        }
      ],
      "stateMutability": "pure",
      "type": "function",
      "constant": true
    },
    {
      "inputs": [
        {
          "internalType": "uint256",
          "name": "log",
          "type": "uint256"
        },
        {
          "internalType": "uint8",
          "name": "pos",
          "type": "uint8"
        }
      ],
      "name": "addScoredPenalty",
      "outputs": [
        {
          "internalType": "uint256",
          "name": "",
          "type": "uint256"
        }
      ],
      "stateMutability": "pure",
      "type": "function",
      "constant": true
    },
    {
      "inputs": [
        {
          "internalType": "uint256",
          "name": "log",
          "type": "uint256"
        },
        {
          "internalType": "uint8",
          "name": "player",
          "type": "uint8"
        },
        {
          "internalType": "uint8",
          "name": "pos",
          "type": "uint8"
        }
      ],
      "name": "addShooter",
      "outputs": [
        {
          "internalType": "uint256",
          "name": "",
          "type": "uint256"
        }
      ],
      "stateMutability": "pure",
      "type": "function",
      "constant": true
    },
    {
      "inputs": [
        {
          "internalType": "uint256",
          "name": "log",
          "type": "uint256"
        },
        {
          "internalType": "uint256",
          "name": "extraSumSkills",
          "type": "uint256"
        }
      ],
      "name": "addTeamSumSkills",
      "outputs": [
        {
          "internalType": "uint256",
          "name": "",
          "type": "uint256"
        }
      ],
      "stateMutability": "pure",
      "type": "function",
      "constant": true
    },
    {
      "inputs": [
        {
          "internalType": "uint256",
          "name": "log",
          "type": "uint256"
        },
        {
          "internalType": "uint256",
          "name": "points",
          "type": "uint256"
        }
      ],
      "name": "addTrainingPoints",
      "outputs": [
        {
          "internalType": "uint256",
          "name": "",
          "type": "uint256"
        }
      ],
      "stateMutability": "pure",
      "type": "function",
      "constant": true
    },
    {
      "inputs": [
        {
          "internalType": "uint256",
          "name": "log",
          "type": "uint256"
        },
        {
          "internalType": "uint8",
          "name": "winner",
          "type": "uint8"
        }
      ],
      "name": "addWinner",
      "outputs": [
        {
          "internalType": "uint256",
          "name": "",
          "type": "uint256"
        }
      ],
      "stateMutability": "pure",
      "type": "function",
      "constant": true
    },
    {
      "inputs": [
        {
          "internalType": "uint256[2]",
          "name": "logs",
          "type": "uint256[2]"
        },
        {
          "internalType": "uint8",
          "name": "winner",
          "type": "uint8"
        }
      ],
      "name": "addWinnerToBothLogs",
      "outputs": [
        {
          "internalType": "uint256[2]",
          "name": "",
          "type": "uint256[2]"
        }
      ],
      "stateMutability": "pure",
      "type": "function",
      "constant": true
    },
    {
      "inputs": [
        {
          "internalType": "uint256",
          "name": "log",
          "type": "uint256"
        },
        {
          "internalType": "uint8",
          "name": "player",
          "type": "uint8"
        },
        {
          "internalType": "uint8",
          "name": "posInHaf",
          "type": "uint8"
        },
        {
          "internalType": "bool",
          "name": "is2ndHalf",
          "type": "bool"
        }
      ],
      "name": "addYellowCard",
      "outputs": [
        {
          "internalType": "uint256",
          "name": "",
          "type": "uint256"
        }
      ],
      "stateMutability": "pure",
      "type": "function",
      "constant": true
    },
    {
      "inputs": [
        {
          "internalType": "uint256",
          "name": "encoded",
          "type": "uint256"
        }
      ],
      "name": "decodeTP",
      "outputs": [
        {
          "internalType": "uint16[25]",
          "name": "TPperSkill",
          "type": "uint16[25]"
        },
        {
          "internalType": "uint8",
          "name": "specialPlayer",
          "type": "uint8"
        },
        {
          "internalType": "uint16",
          "name": "TP",
          "type": "uint16"
        },
        {
          "internalType": "uint8",
          "name": "",
          "type": "uint8"
        }
      ],
      "stateMutability": "pure",
      "type": "function",
      "constant": true
    },
    {
      "inputs": [
        {
          "internalType": "uint16",
          "name": "TP",
          "type": "uint16"
        },
        {
          "internalType": "uint16[25]",
          "name": "TPperSkill",
          "type": "uint16[25]"
        },
        {
          "internalType": "uint8",
          "name": "specialPlayer",
          "type": "uint8"
        }
      ],
      "name": "encodeTP",
      "outputs": [
        {
          "internalType": "uint256",
          "name": "encoded",
          "type": "uint256"
        }
      ],
      "stateMutability": "pure",
      "type": "function",
      "constant": true
    },
    {
      "inputs": [
        {
          "internalType": "uint8[3]",
          "name": "substitutions",
          "type": "uint8[3]"
        },
        {
          "internalType": "uint8[3]",
          "name": "subsRounds",
          "type": "uint8[3]"
        },
        {
          "internalType": "uint8[14]",
          "name": "lineup",
          "type": "uint8[14]"
        },
        {
          "internalType": "bool[10]",
          "name": "extraAttack",
          "type": "bool[10]"
        },
        {
          "internalType": "uint8",
          "name": "tacticsId",
          "type": "uint8"
        }
      ],
      "name": "encodeTactics",
      "outputs": [
        {
          "internalType": "uint256",
          "name": "",
          "type": "uint256"
        }
      ],
      "stateMutability": "pure",
      "type": "function",
      "constant": true
    },
    {
      "inputs": [
        {
          "internalType": "uint256",
          "name": "encodedSkills",
          "type": "uint256"
        }
      ],
      "name": "getAggressiveness",
      "outputs": [
        {
          "internalType": "uint256",
          "name": "",
          "type": "uint256"
        }
      ],
      "stateMutability": "pure",
      "type": "function",
      "constant": true
    },
    {
      "inputs": [
        {
          "internalType": "uint256",
          "name": "encodedSkills",
          "type": "uint256"
        }
      ],
      "name": "getAlignedEndOfFirstHalf",
      "outputs": [
        {
          "internalType": "bool",
          "name": "",
          "type": "bool"
        }
      ],
      "stateMutability": "pure",
      "type": "function",
      "constant": true
    },
    {
      "inputs": [
        {
          "internalType": "uint256",
          "name": "log",
          "type": "uint256"
        },
        {
          "internalType": "uint8",
          "name": "pos",
          "type": "uint8"
        }
      ],
      "name": "getAssister",
      "outputs": [
        {
          "internalType": "uint8",
          "name": "",
          "type": "uint8"
        }
      ],
      "stateMutability": "pure",
      "type": "function",
      "constant": true
    },
    {
      "inputs": [
        {
          "internalType": "uint256",
          "name": "encodedSkills",
          "type": "uint256"
        }
      ],
      "name": "getBirthDay",
      "outputs": [
        {
          "internalType": "uint256",
          "name": "",
          "type": "uint256"
        }
      ],
      "stateMutability": "pure",
      "type": "function",
      "constant": true
    },
    {
      "inputs": [
        {
          "internalType": "uint256",
          "name": "log",
          "type": "uint256"
        }
      ],
      "name": "getChangesAtHalfTime",
      "outputs": [
        {
          "internalType": "uint8",
          "name": "nChanges",
          "type": "uint8"
        }
      ],
      "stateMutability": "pure",
      "type": "function",
      "constant": true
    },
    {
      "inputs": [
        {
          "internalType": "uint256",
          "name": "tactics",
          "type": "uint256"
        },
        {
          "internalType": "uint8",
          "name": "p",
          "type": "uint8"
        }
      ],
      "name": "getExtraAttack",
      "outputs": [
        {
          "internalType": "bool",
          "name": "",
          "type": "bool"
        }
      ],
      "stateMutability": "pure",
      "type": "function",
      "constant": true
    },
    {
      "inputs": [
        {
          "internalType": "uint256",
          "name": "log",
          "type": "uint256"
        },
        {
          "internalType": "uint8",
          "name": "pos",
          "type": "uint8"
        }
      ],
      "name": "getForwardPos",
      "outputs": [
        {
          "internalType": "uint8",
          "name": "",
          "type": "uint8"
        }
      ],
      "stateMutability": "pure",
      "type": "function",
      "constant": true
    },
    {
      "inputs": [
        {
          "internalType": "uint256",
          "name": "encodedSkills",
          "type": "uint256"
        }
      ],
      "name": "getForwardness",
      "outputs": [
        {
          "internalType": "uint256",
          "name": "",
          "type": "uint256"
        }
      ],
      "stateMutability": "pure",
      "type": "function",
      "constant": true
    },
    {
      "inputs": [
        {
          "internalType": "uint256",
          "name": "tactics",
          "type": "uint256"
        }
      ],
      "name": "getFullExtraAttack",
      "outputs": [
        {
          "internalType": "bool[10]",
          "name": "extraAttack",
          "type": "bool[10]"
        }
      ],
      "stateMutability": "pure",
      "type": "function",
      "constant": true
    },
    {
      "inputs": [
        {
          "internalType": "uint256",
          "name": "tactics",
          "type": "uint256"
        }
      ],
      "name": "getFullLineUp",
      "outputs": [
        {
          "internalType": "uint8[14]",
          "name": "lineup",
          "type": "uint8[14]"
        }
      ],
      "stateMutability": "pure",
      "type": "function",
      "constant": true
    },
    {
      "inputs": [
        {
          "internalType": "uint256",
          "name": "encodedSkills",
          "type": "uint256"
        }
      ],
      "name": "getGamesNonStopping",
      "outputs": [
        {
          "internalType": "uint8",
          "name": "",
          "type": "uint8"
        }
      ],
      "stateMutability": "pure",
      "type": "function",
      "constant": true
    },
    {
      "inputs": [
        {
          "internalType": "uint256",
          "name": "encodedSkills",
          "type": "uint256"
        }
      ],
      "name": "getGeneration",
      "outputs": [
        {
          "internalType": "uint256",
          "name": "",
          "type": "uint256"
        }
      ],
      "stateMutability": "pure",
      "type": "function",
      "constant": true
    },
    {
      "inputs": [
        {
          "internalType": "uint256",
          "name": "log",
          "type": "uint256"
        },
        {
          "internalType": "uint8",
          "name": "pos",
          "type": "uint8"
        }
      ],
      "name": "getHalfTimeSubs",
      "outputs": [
        {
          "internalType": "uint8",
          "name": "",
          "type": "uint8"
        }
      ],
      "stateMutability": "pure",
      "type": "function",
      "constant": true
    },
    {
      "inputs": [
        {
          "internalType": "uint256",
          "name": "log",
          "type": "uint256"
        },
        {
          "internalType": "uint8",
          "name": "posInHalf",
          "type": "uint8"
        },
        {
          "internalType": "bool",
          "name": "is2ndHalf",
          "type": "bool"
        }
      ],
      "name": "getInGameSubsHappened",
      "outputs": [
        {
          "internalType": "uint8",
          "name": "",
          "type": "uint8"
        }
      ],
      "stateMutability": "pure",
      "type": "function",
      "constant": true
    },
    {
      "inputs": [
        {
          "internalType": "uint256",
          "name": "encodedSkills",
          "type": "uint256"
        }
      ],
      "name": "getInjuryWeeksLeft",
      "outputs": [
        {
          "internalType": "uint8",
          "name": "",
          "type": "uint8"
        }
      ],
      "stateMutability": "pure",
      "type": "function",
      "constant": true
    },
    {
      "inputs": [
        {
          "internalType": "uint256",
          "name": "encodedSkills",
          "type": "uint256"
        }
      ],
      "name": "getInternalPlayerId",
      "outputs": [
        {
          "internalType": "uint256",
          "name": "",
          "type": "uint256"
        }
      ],
      "stateMutability": "pure",
      "type": "function",
      "constant": true
    },
    {
      "inputs": [
        {
          "internalType": "uint256",
          "name": "log",
          "type": "uint256"
        }
      ],
      "name": "getIsCancelled",
      "outputs": [
        {
          "internalType": "bool",
          "name": "",
          "type": "bool"
        }
      ],
      "stateMutability": "pure",
      "type": "function",
      "constant": true
    },
    {
      "inputs": [
        {
          "internalType": "uint256",
          "name": "log",
          "type": "uint256"
        }
      ],
      "name": "getIsHomeStadium",
      "outputs": [
        {
          "internalType": "bool",
          "name": "",
          "type": "bool"
        }
      ],
      "stateMutability": "pure",
      "type": "function",
      "constant": true
    },
    {
      "inputs": [
        {
          "internalType": "uint256",
          "name": "encodedSkills",
          "type": "uint256"
        }
      ],
      "name": "getIsSpecial",
      "outputs": [
        {
          "internalType": "bool",
          "name": "",
          "type": "bool"
        }
      ],
      "stateMutability": "pure",
      "type": "function",
      "constant": true
    },
    {
      "inputs": [
        {
          "internalType": "uint256",
          "name": "encodedSkills",
          "type": "uint256"
        }
      ],
      "name": "getLeftishness",
      "outputs": [
        {
          "internalType": "uint256",
          "name": "",
          "type": "uint256"
        }
      ],
      "stateMutability": "pure",
      "type": "function",
      "constant": true
    },
    {
      "inputs": [
        {
          "internalType": "uint256",
          "name": "tactics",
          "type": "uint256"
        },
        {
          "internalType": "uint8",
          "name": "p",
          "type": "uint8"
        }
      ],
      "name": "getLinedUp",
      "outputs": [
        {
          "internalType": "uint8",
          "name": "",
          "type": "uint8"
        }
      ],
      "stateMutability": "pure",
      "type": "function",
      "constant": true
    },
    {
      "inputs": [
        {
          "internalType": "uint8[9]",
          "name": "playersPerZone",
          "type": "uint8[9]"
        }
      ],
      "name": "getNAttackers",
      "outputs": [
        {
          "internalType": "uint8",
          "name": "",
          "type": "uint8"
        }
      ],
      "stateMutability": "pure",
      "type": "function",
      "constant": true
    },
    {
      "inputs": [
        {
          "internalType": "uint8[9]",
          "name": "playersPerZone",
          "type": "uint8[9]"
        }
      ],
      "name": "getNDefenders",
      "outputs": [
        {
          "internalType": "uint8",
          "name": "",
          "type": "uint8"
        }
      ],
      "stateMutability": "pure",
      "type": "function",
      "constant": true
    },
    {
      "inputs": [
        {
          "internalType": "uint256",
          "name": "tactics",
          "type": "uint256"
        }
      ],
      "name": "getNDefendersFromTactics",
      "outputs": [
        {
          "internalType": "uint8",
          "name": "",
          "type": "uint8"
        }
      ],
      "stateMutability": "pure",
      "type": "function",
      "constant": true
    },
    {
      "inputs": [
        {
          "internalType": "uint256",
          "name": "log",
          "type": "uint256"
        },
        {
          "internalType": "bool",
          "name": "is2ndHalf",
          "type": "bool"
        }
      ],
      "name": "getNGKAndDefs",
      "outputs": [
        {
          "internalType": "uint8",
          "name": "",
          "type": "uint8"
        }
      ],
      "stateMutability": "pure",
      "type": "function",
      "constant": true
    },
    {
      "inputs": [
        {
          "internalType": "uint256",
          "name": "log",
          "type": "uint256"
        }
      ],
      "name": "getNGoals",
      "outputs": [
        {
          "internalType": "uint8",
          "name": "",
          "type": "uint8"
        }
      ],
      "stateMutability": "pure",
      "type": "function",
      "constant": true
    },
    {
      "inputs": [
        {
          "internalType": "uint8[9]",
          "name": "playersPerZone",
          "type": "uint8[9]"
        }
      ],
      "name": "getNMidfielders",
      "outputs": [
        {
          "internalType": "uint8",
          "name": "",
          "type": "uint8"
        }
      ],
      "stateMutability": "pure",
      "type": "function",
      "constant": true
    },
    {
      "inputs": [
        {
          "internalType": "uint256",
          "name": "seed",
          "type": "uint256"
        },
        {
          "internalType": "uint8",
          "name": "nRnds",
          "type": "uint8"
        }
      ],
      "name": "getNRandsFromSeed",
      "outputs": [
        {
          "internalType": "uint64[]",
          "name": "",
          "type": "uint64[]"
        }
      ],
      "stateMutability": "pure",
      "type": "function",
      "constant": true
    },
    {
      "inputs": [
        {
          "internalType": "uint256",
          "name": "log",
          "type": "uint256"
        },
        {
          "internalType": "bool",
          "name": "is2ndHalf",
          "type": "bool"
        }
      ],
      "name": "getNTot",
      "outputs": [
        {
          "internalType": "uint8",
          "name": "",
          "type": "uint8"
        }
      ],
      "stateMutability": "pure",
      "type": "function",
      "constant": true
    },
    {
      "inputs": [
        {
          "internalType": "uint256",
          "name": "encodedSkills",
          "type": "uint256"
        }
      ],
      "name": "getOutOfGameFirstHalf",
      "outputs": [
        {
          "internalType": "bool",
          "name": "",
          "type": "bool"
        }
      ],
      "stateMutability": "pure",
      "type": "function",
      "constant": true
    },
    {
      "inputs": [
        {
          "internalType": "uint256",
          "name": "log",
          "type": "uint256"
        },
        {
          "internalType": "bool",
          "name": "is2ndHalf",
          "type": "bool"
        }
      ],
      "name": "getOutOfGamePlayer",
      "outputs": [
        {
          "internalType": "uint256",
          "name": "",
          "type": "uint256"
        }
      ],
      "stateMutability": "pure",
      "type": "function",
      "constant": true
    },
    {
      "inputs": [
        {
          "internalType": "uint256",
          "name": "log",
          "type": "uint256"
        },
        {
          "internalType": "bool",
          "name": "is2ndHalf",
          "type": "bool"
        }
      ],
      "name": "getOutOfGameRound",
      "outputs": [
        {
          "internalType": "uint256",
          "name": "",
          "type": "uint256"
        }
      ],
      "stateMutability": "pure",
      "type": "function",
      "constant": true
    },
    {
      "inputs": [
        {
          "internalType": "uint256",
          "name": "log",
          "type": "uint256"
        },
        {
          "internalType": "bool",
          "name": "is2ndHalf",
          "type": "bool"
        }
      ],
      "name": "getOutOfGameType",
      "outputs": [
        {
          "internalType": "uint256",
          "name": "",
          "type": "uint256"
        }
      ],
      "stateMutability": "pure",
      "type": "function",
      "constant": true
    },
    {
      "inputs": [
        {
          "internalType": "uint256",
          "name": "log",
          "type": "uint256"
        },
        {
          "internalType": "uint8",
          "name": "pos",
          "type": "uint8"
        }
      ],
      "name": "getPenalty",
      "outputs": [
        {
          "internalType": "bool",
          "name": "",
          "type": "bool"
        }
      ],
      "stateMutability": "pure",
      "type": "function",
      "constant": true
    },
    {
      "inputs": [
        {
          "internalType": "uint256",
          "name": "encodedSkills",
          "type": "uint256"
        }
      ],
      "name": "getPlayerIdFromSkills",
      "outputs": [
        {
          "internalType": "uint256",
          "name": "",
          "type": "uint256"
        }
      ],
      "stateMutability": "pure",
      "type": "function",
      "constant": true
    },
    {
      "inputs": [
        {
          "internalType": "uint256",
          "name": "tactics",
          "type": "uint256"
        }
      ],
      "name": "getPlayersPerZone",
      "outputs": [
        {
          "internalType": "uint8[9]",
          "name": "",
          "type": "uint8[9]"
        }
      ],
      "stateMutability": "pure",
      "type": "function",
      "constant": true
    },
    {
      "inputs": [
        {
          "internalType": "uint256",
          "name": "encodedSkills",
          "type": "uint256"
        }
      ],
      "name": "getPotential",
      "outputs": [
        {
          "internalType": "uint256",
          "name": "",
          "type": "uint256"
        }
      ],
      "stateMutability": "pure",
      "type": "function",
      "constant": true
    },
    {
      "inputs": [
        {
          "internalType": "uint256",
          "name": "encodedSkills",
          "type": "uint256"
        }
      ],
      "name": "getRedCardLastGame",
      "outputs": [
        {
          "internalType": "bool",
          "name": "",
          "type": "bool"
        }
      ],
      "stateMutability": "pure",
      "type": "function",
      "constant": true
    },
    {
      "inputs": [
        {
          "internalType": "uint256",
          "name": "log",
          "type": "uint256"
        },
        {
          "internalType": "uint8",
          "name": "pos",
          "type": "uint8"
        }
      ],
      "name": "getShooter",
      "outputs": [
        {
          "internalType": "uint8",
          "name": "",
          "type": "uint8"
        }
      ],
      "stateMutability": "pure",
      "type": "function",
      "constant": true
    },
    {
      "inputs": [
        {
          "internalType": "uint256",
          "name": "encodedSkills",
          "type": "uint256"
        },
        {
          "internalType": "uint8",
          "name": "skillIdx",
          "type": "uint8"
        }
      ],
      "name": "getSkill",
      "outputs": [
        {
          "internalType": "uint256",
          "name": "",
          "type": "uint256"
        }
      ],
      "stateMutability": "pure",
      "type": "function",
      "constant": true
    },
    {
      "inputs": [
        {
          "internalType": "uint256",
          "name": "tactics",
          "type": "uint256"
        },
        {
          "internalType": "uint8",
          "name": "p",
          "type": "uint8"
        }
      ],
      "name": "getSubsRound",
      "outputs": [
        {
          "internalType": "uint8",
          "name": "",
          "type": "uint8"
        }
      ],
      "stateMutability": "pure",
      "type": "function",
      "constant": true
    },
    {
      "inputs": [
        {
          "internalType": "uint256",
          "name": "encodedSkills",
          "type": "uint256"
        }
      ],
      "name": "getSubstitutedFirstHalf",
      "outputs": [
        {
          "internalType": "bool",
          "name": "",
          "type": "bool"
        }
      ],
      "stateMutability": "pure",
      "type": "function",
      "constant": true
    },
    {
      "inputs": [
        {
          "internalType": "uint256",
          "name": "tactics",
          "type": "uint256"
        },
        {
          "internalType": "uint8",
          "name": "p",
          "type": "uint8"
        }
      ],
      "name": "getSubstitution",
      "outputs": [
        {
          "internalType": "uint8",
          "name": "",
          "type": "uint8"
        }
      ],
      "stateMutability": "pure",
      "type": "function",
      "constant": true
    },
    {
      "inputs": [
        {
          "internalType": "uint256",
          "name": "encodedSkills",
          "type": "uint256"
        }
      ],
      "name": "getSumOfSkills",
      "outputs": [
        {
          "internalType": "uint256",
          "name": "",
          "type": "uint256"
        }
      ],
      "stateMutability": "pure",
      "type": "function",
      "constant": true
    },
    {
      "inputs": [
        {
          "internalType": "uint256[25]",
          "name": "skills",
          "type": "uint256[25]"
        }
      ],
      "name": "getSumOfTopPlayerSkills",
      "outputs": [
        {
          "internalType": "uint256",
          "name": "teamSkills",
          "type": "uint256"
        }
      ],
      "stateMutability": "pure",
      "type": "function",
      "constant": true
    },
    {
      "inputs": [
        {
          "internalType": "uint256",
          "name": "tactics",
          "type": "uint256"
        }
      ],
      "name": "getTacticsId",
      "outputs": [
        {
          "internalType": "uint8",
          "name": "",
          "type": "uint8"
        }
      ],
      "stateMutability": "pure",
      "type": "function",
      "constant": true
    },
    {
      "inputs": [
        {
          "internalType": "uint256",
          "name": "log",
          "type": "uint256"
        }
      ],
      "name": "getTeamSumSkills",
      "outputs": [
        {
          "internalType": "uint256",
          "name": "",
          "type": "uint256"
        }
      ],
      "stateMutability": "pure",
      "type": "function",
      "constant": true
    },
    {
      "inputs": [
        {
          "internalType": "uint256",
          "name": "log",
          "type": "uint256"
        }
      ],
      "name": "getTrainingPoints",
      "outputs": [
        {
          "internalType": "uint16",
          "name": "",
          "type": "uint16"
        }
      ],
      "stateMutability": "pure",
      "type": "function",
      "constant": true
    },
    {
      "inputs": [
        {
          "internalType": "uint256",
          "name": "log",
          "type": "uint256"
        }
      ],
      "name": "getWinner",
      "outputs": [
        {
          "internalType": "uint8",
          "name": "",
          "type": "uint8"
        }
      ],
      "stateMutability": "pure",
      "type": "function",
      "constant": true
    },
    {
      "inputs": [
        {
          "internalType": "uint256",
          "name": "log",
          "type": "uint256"
        },
        {
          "internalType": "uint8",
          "name": "posInHaf",
          "type": "uint8"
        },
        {
          "internalType": "bool",
          "name": "is2ndHalf",
          "type": "bool"
        }
      ],
      "name": "getYellowCard",
      "outputs": [
        {
          "internalType": "uint8",
          "name": "",
          "type": "uint8"
        }
      ],
      "stateMutability": "pure",
      "type": "function",
      "constant": true
    },
    {
      "inputs": [
        {
          "internalType": "uint256",
          "name": "encodedSkills",
          "type": "uint256"
        }
      ],
      "name": "getYellowCardFirstHalf",
      "outputs": [
        {
          "internalType": "bool",
          "name": "",
          "type": "bool"
        }
      ],
      "stateMutability": "pure",
      "type": "function",
      "constant": true
    },
    {
      "inputs": [
        {
          "internalType": "uint256[25]",
          "name": "arr",
          "type": "uint256[25]"
        },
        {
          "internalType": "int256",
          "name": "left",
          "type": "int256"
        },
        {
          "internalType": "int256",
          "name": "right",
          "type": "int256"
        }
      ],
      "name": "quickSort25",
      "outputs": [],
      "stateMutability": "pure",
      "type": "function",
      "constant": true
    },
    {
      "inputs": [
        {
          "internalType": "uint256",
          "name": "encodedSkills",
          "type": "uint256"
        },
        {
          "internalType": "bool",
          "name": "val",
          "type": "bool"
        }
      ],
      "name": "setAlignedEndOfFirstHalf",
      "outputs": [
        {
          "internalType": "uint256",
          "name": "",
          "type": "uint256"
        }
      ],
      "stateMutability": "pure",
      "type": "function",
      "constant": true
    },
    {
      "inputs": [
        {
          "internalType": "uint256",
          "name": "log",
          "type": "uint256"
        },
        {
          "internalType": "uint8",
          "name": "nChanges",
          "type": "uint8"
        }
      ],
      "name": "setChangesAtHalfTime",
      "outputs": [
        {
          "internalType": "uint256",
          "name": "",
          "type": "uint256"
        }
      ],
      "stateMutability": "pure",
      "type": "function",
      "constant": true
    },
    {
      "inputs": [
        {
          "internalType": "uint256",
          "name": "encodedSkills",
          "type": "uint256"
        },
        {
          "internalType": "uint8",
          "name": "val",
          "type": "uint8"
        }
      ],
      "name": "setGamesNonStopping",
      "outputs": [
        {
          "internalType": "uint256",
          "name": "",
          "type": "uint256"
        }
      ],
      "stateMutability": "pure",
      "type": "function",
      "constant": true
    },
    {
      "inputs": [
        {
          "internalType": "uint256",
          "name": "encodedSkills",
          "type": "uint256"
        },
        {
          "internalType": "uint32",
          "name": "val",
          "type": "uint32"
        }
      ],
      "name": "setGeneration",
      "outputs": [
        {
          "internalType": "uint256",
          "name": "",
          "type": "uint256"
        }
      ],
      "stateMutability": "pure",
      "type": "function",
      "constant": true
    },
    {
      "inputs": [
        {
          "internalType": "uint256",
          "name": "log",
          "type": "uint256"
        },
        {
          "internalType": "uint8",
          "name": "happenedType",
          "type": "uint8"
        },
        {
          "internalType": "uint8",
          "name": "posInHalf",
          "type": "uint8"
        },
        {
          "internalType": "bool",
          "name": "is2ndHalf",
          "type": "bool"
        }
      ],
      "name": "setInGameSubsHappened",
      "outputs": [
        {
          "internalType": "uint256",
          "name": "",
          "type": "uint256"
        }
      ],
      "stateMutability": "pure",
      "type": "function",
      "constant": true
    },
    {
      "inputs": [
        {
          "internalType": "uint256",
          "name": "encodedSkills",
          "type": "uint256"
        },
        {
          "internalType": "uint8",
          "name": "val",
          "type": "uint8"
        }
      ],
      "name": "setInjuryWeeksLeft",
      "outputs": [
        {
          "internalType": "uint256",
          "name": "",
          "type": "uint256"
        }
      ],
      "stateMutability": "pure",
      "type": "function",
      "constant": true
    },
    {
      "inputs": [
        {
          "internalType": "uint256",
          "name": "log",
          "type": "uint256"
        },
        {
          "internalType": "bool",
          "name": "val",
          "type": "bool"
        }
      ],
      "name": "setIsCancelled",
      "outputs": [
        {
          "internalType": "uint256",
          "name": "",
          "type": "uint256"
        }
      ],
      "stateMutability": "pure",
      "type": "function",
      "constant": true
    },
    {
      "inputs": [
        {
          "internalType": "uint256",
          "name": "log",
          "type": "uint256"
        },
        {
          "internalType": "bool",
          "name": "val",
          "type": "bool"
        }
      ],
      "name": "setIsHomeStadium",
      "outputs": [
        {
          "internalType": "uint256",
          "name": "",
          "type": "uint256"
        }
      ],
      "stateMutability": "pure",
      "type": "function",
      "constant": true
    },
    {
      "inputs": [
        {
          "internalType": "uint256",
          "name": "log",
          "type": "uint256"
        },
        {
          "internalType": "uint8",
          "name": "player",
          "type": "uint8"
        },
        {
          "internalType": "uint8",
          "name": "round",
          "type": "uint8"
        },
        {
          "internalType": "uint8",
          "name": "typeOfOutOfGame",
          "type": "uint8"
        },
        {
          "internalType": "bool",
          "name": "is2ndHalf",
          "type": "bool"
        }
      ],
      "name": "setOutOfGame",
      "outputs": [
        {
          "internalType": "uint256",
          "name": "",
          "type": "uint256"
        }
      ],
      "stateMutability": "pure",
      "type": "function",
      "constant": true
    },
    {
      "inputs": [
        {
          "internalType": "uint256",
          "name": "encodedSkills",
          "type": "uint256"
        },
        {
          "internalType": "bool",
          "name": "val",
          "type": "bool"
        }
      ],
      "name": "setOutOfGameFirstHalf",
      "outputs": [
        {
          "internalType": "uint256",
          "name": "",
          "type": "uint256"
        }
      ],
      "stateMutability": "pure",
      "type": "function",
      "constant": true
    },
    {
      "inputs": [
        {
          "internalType": "uint256",
          "name": "encodedSkills",
          "type": "uint256"
        },
        {
          "internalType": "uint256",
          "name": "val",
          "type": "uint256"
        }
      ],
      "name": "setPotential",
      "outputs": [
        {
          "internalType": "uint256",
          "name": "",
          "type": "uint256"
        }
      ],
      "stateMutability": "pure",
      "type": "function",
      "constant": true
    },
    {
      "inputs": [
        {
          "internalType": "uint256",
          "name": "encodedSkills",
          "type": "uint256"
        },
        {
          "internalType": "bool",
          "name": "val",
          "type": "bool"
        }
      ],
      "name": "setRedCardLastGame",
      "outputs": [
        {
          "internalType": "uint256",
          "name": "",
          "type": "uint256"
        }
      ],
      "stateMutability": "pure",
      "type": "function",
      "constant": true
    },
    {
      "inputs": [
        {
          "internalType": "uint256",
          "name": "encodedSkills",
          "type": "uint256"
        },
        {
          "internalType": "uint256",
          "name": "val",
          "type": "uint256"
        },
        {
          "internalType": "uint8",
          "name": "skillIdx",
          "type": "uint8"
        }
      ],
      "name": "setSkill",
      "outputs": [
        {
          "internalType": "uint256",
          "name": "",
          "type": "uint256"
        }
      ],
      "stateMutability": "pure",
      "type": "function",
      "constant": true
    },
    {
      "inputs": [
        {
          "internalType": "uint256",
          "name": "encodedSkills",
          "type": "uint256"
        },
        {
          "internalType": "bool",
          "name": "val",
          "type": "bool"
        }
      ],
      "name": "setSubstitutedFirstHalf",
      "outputs": [
        {
          "internalType": "uint256",
          "name": "",
          "type": "uint256"
        }
      ],
      "stateMutability": "pure",
      "type": "function",
      "constant": true
    },
    {
      "inputs": [
        {
          "internalType": "uint256",
          "name": "encodedSkills",
          "type": "uint256"
        },
        {
          "internalType": "uint32",
          "name": "val",
          "type": "uint32"
        }
      ],
      "name": "setSumOfSkills",
      "outputs": [
        {
          "internalType": "uint256",
          "name": "",
          "type": "uint256"
        }
      ],
      "stateMutability": "pure",
      "type": "function",
      "constant": true
    },
    {
      "inputs": [
        {
          "internalType": "uint256",
          "name": "encodedSkills",
          "type": "uint256"
        },
        {
          "internalType": "bool",
          "name": "val",
          "type": "bool"
        }
      ],
      "name": "setYellowCardFirstHalf",
      "outputs": [
        {
          "internalType": "uint256",
          "name": "",
          "type": "uint256"
        }
      ],
      "stateMutability": "pure",
      "type": "function",
      "constant": true
    },
    {
      "inputs": [
        {
          "internalType": "uint256[25]",
          "name": "data",
          "type": "uint256[25]"
        }
      ],
      "name": "sort25",
      "outputs": [
        {
          "internalType": "uint256[25]",
          "name": "",
          "type": "uint256[25]"
        }
      ],
      "stateMutability": "pure",
      "type": "function",
      "constant": true
    },
    {
      "inputs": [
        {
          "internalType": "uint256",
          "name": "weight0",
          "type": "uint256"
        },
        {
          "internalType": "uint256",
          "name": "weight1",
          "type": "uint256"
        },
        {
          "internalType": "uint256",
          "name": "rndNum",
          "type": "uint256"
        }
      ],
      "name": "throwDice",
      "outputs": [
        {
          "internalType": "uint8",
          "name": "",
          "type": "uint8"
        }
      ],
      "stateMutability": "pure",
      "type": "function",
      "constant": true
    },
    {
      "inputs": [
        {
          "internalType": "uint256[]",
          "name": "weights",
          "type": "uint256[]"
        },
        {
          "internalType": "uint256",
          "name": "rndNum",
          "type": "uint256"
        }
      ],
      "name": "throwDiceArray",
      "outputs": [
        {
          "internalType": "uint8",
          "name": "w",
          "type": "uint8"
        }
      ],
      "stateMutability": "pure",
      "type": "function",
      "constant": true
    },
    {
      "inputs": [
        {
          "internalType": "uint256[25]",
          "name": "skills",
          "type": "uint256[25]"
        },
        {
          "internalType": "uint256",
          "name": "matchLog",
          "type": "uint256"
        },
        {
          "internalType": "uint256",
          "name": "tactics",
          "type": "uint256"
        },
        {
          "internalType": "bool",
          "name": "is2ndHalf",
          "type": "bool"
        },
        {
          "internalType": "bool",
          "name": "isBot",
          "type": "bool"
        }
      ],
      "name": "updateSkillsAfterPlayHalf",
      "outputs": [
        {
          "internalType": "uint256[25]",
          "name": "",
          "type": "uint256[25]"
        },
        {
          "internalType": "uint8",
          "name": "err",
          "type": "uint8"
        }
      ],
      "stateMutability": "pure",
      "type": "function",
      "constant": true
    },
    {
      "inputs": [
        {
          "internalType": "uint256[25]",
          "name": "skills",
          "type": "uint256[25]"
        },
        {
          "internalType": "uint256",
          "name": "tactics",
          "type": "uint256"
        },
        {
          "internalType": "uint256",
          "name": "matchLog",
          "type": "uint256"
        }
      ],
      "name": "writeYellowCardsFirstHalf",
      "outputs": [
        {
          "internalType": "uint8",
          "name": "",
          "type": "uint8"
        }
      ],
      "stateMutability": "pure",
      "type": "function",
      "constant": true
    },
    {
      "inputs": [
        {
          "internalType": "uint256[25]",
          "name": "skills",
          "type": "uint256[25]"
        },
        {
          "internalType": "uint256",
          "name": "tactics",
          "type": "uint256"
        },
        {
          "internalType": "uint256",
          "name": "matchLog",
          "type": "uint256"
        }
      ],
      "name": "updateGamesNonStopping2ndHalf",
      "outputs": [
        {
          "internalType": "uint8",
          "name": "err",
          "type": "uint8"
        }
      ],
      "stateMutability": "pure",
      "type": "function",
      "constant": true
    },
    {
      "inputs": [
        {
          "internalType": "uint256",
          "name": "skills",
          "type": "uint256"
        },
        {
          "internalType": "uint8",
          "name": "p",
          "type": "uint8"
        },
        {
          "internalType": "uint8[3]",
          "name": "joinedAt2ndHalf",
          "type": "uint8[3]"
        }
      ],
      "name": "hasPlayedThisMatch",
      "outputs": [
        {
          "internalType": "bool",
          "name": "",
          "type": "bool"
        }
      ],
      "stateMutability": "pure",
      "type": "function",
      "constant": true
    },
    {
      "inputs": [
        {
          "internalType": "uint256[25]",
          "name": "skills",
          "type": "uint256[25]"
        }
      ],
      "name": "resetFirstHalfDataInSkills",
      "outputs": [],
      "stateMutability": "pure",
      "type": "function",
      "constant": true
    },
    {
      "inputs": [
        {
          "internalType": "uint256[25]",
          "name": "skills",
          "type": "uint256[25]"
        },
        {
          "internalType": "uint256",
          "name": "tactics",
          "type": "uint256"
        },
        {
          "internalType": "uint256",
          "name": "matchLog",
          "type": "uint256"
        }
      ],
      "name": "writeFirstHalfLineUp",
      "outputs": [],
      "stateMutability": "pure",
      "type": "function",
      "constant": true
    },
    {
      "inputs": [
        {
          "internalType": "uint256",
          "name": "skills",
          "type": "uint256"
        }
      ],
      "name": "increaseGamesNonStopping",
      "outputs": [
        {
          "internalType": "uint256",
          "name": "",
          "type": "uint256"
        }
      ],
      "stateMutability": "pure",
      "type": "function",
      "constant": true
    },
    {
      "inputs": [
        {
          "internalType": "uint256[25]",
          "name": "skills",
          "type": "uint256[25]"
        },
        {
          "internalType": "uint256",
          "name": "tactics",
          "type": "uint256"
        },
        {
          "internalType": "uint256",
          "name": "matchLog",
          "type": "uint256"
        },
        {
          "internalType": "bool",
          "name": "is2ndHalf",
          "type": "bool"
        }
      ],
      "name": "writeOutOfGameInSkills",
      "outputs": [
        {
          "internalType": "uint8",
          "name": "err",
          "type": "uint8"
        }
      ],
      "stateMutability": "pure",
      "type": "function",
      "constant": true
    },
    {
      "inputs": [
        {
          "internalType": "uint256[25]",
          "name": "skills",
          "type": "uint256[25]"
        }
      ],
      "name": "decreaseOutOfGames",
      "outputs": [],
      "stateMutability": "pure",
      "type": "function",
      "constant": true
    },
    {
      "inputs": [
        {
          "internalType": "uint256",
          "name": "matchLog",
          "type": "uint256"
        },
        {
          "internalType": "uint256[25]",
          "name": "skills",
          "type": "uint256[25]"
        }
      ],
      "name": "addTeamSumSkillsToLog",
      "outputs": [
        {
          "internalType": "uint256",
          "name": "",
          "type": "uint256"
        }
      ],
      "stateMutability": "pure",
      "type": "function",
      "constant": true
    }
  ],
  "bytecode": "0x608060405234801561001057600080fd5b50613aa3806100206000396000f3fe608060405234801561001057600080fd5b50600436106106745760003560e01c80638b6f120f11610351578063c847d9c2116101c3578063e4eec4be1161010f578063f2dc657f116100ad578063facec57311610087578063facec57314611a1b578063fb98536914611a41578063fc27bf4a14611ae6578063fd732aa9146111a457610674565b8063f2dc657f14611984578063f780e885146119a1578063f81c7a45146119f557610674565b8063eed31428116100e9578063eed31428146118c8578063f0789df6146118ed578063f1aba29c14611913578063f2c357641461196757610674565b8063e4eec4be1461185f578063e804e51914611885578063e9b66454146118a257610674565b8063d1b3d8fd1161017c578063db43151d11610156578063db43151d146117c4578063dcc9ee3f146117ea578063df1beecb1461180f578063e37528bb1461184257610674565b8063d1b3d8fd14611765578063d2f7967d14611782578063d5a4d6c01461179f57610674565b8063c847d9c214611583578063ca7678fb146115e3578063cbbfac6614611637578063cc644f3014611665578063cc7d473b14611714578063ce9681641461173157610674565b8063aa946e101161029d578063bd3548461161023b578063c2d2527411610215578063c2d25274146114dc578063c37021e7146114e4578063c5aedd2c14611538578063c64818551461155d57610674565b8063bd35484614611489578063bf8bf71914611491578063c2bc41cd146114bf57610674565b8063b1c2c8a311610277578063b1c2c8a3146113a7578063b2a04256146113d5578063b519419614611413578063ba8dfa461461146c57610674565b8063aa946e101461135c578063ae59df9d14611364578063af15ace31461138a57610674565b806399dfedb41161030a5780639f7d3b7f116102e45780639f7d3b7f146112b8578063a12dd140146112de578063a5a902fe14611311578063a7d0238a1461132e57610674565b806399dfedb41461124d5780639c6691661461126a5780639e8530ff1461129357610674565b80638b6f120f146111715780638cc5938e146111a45780638de97f4f146111ac578063919e2762146111d5578063920bee2f1461120d578063989aa2221461122a57610674565b8063434807ad116104ea5780635fc4f9f41161043657806376f96f42116103d45780637d3921cd116103ae5780637d3921cd146110745780637ffa3a2e14611091578063861ef275146110ae57806388438b001461110757610674565b806376f96f421461100357806379e76597146110315780637a8409b31461104e57610674565b80636f30b06f116104105780636f30b06f14610edc5780636f6c2ae014610fb85780637363f87214610fd5578063754b7cf414610fdd57610674565b80635fc4f9f414610e945780636223304514610e9c578063658d2da514610ebf57610674565b806356e3df97116104a35780635b8a3e8d1161047d5780635b8a3e8d14610d535780635bdc6b5814610db45780635d8fda2514610de25780635eb0e1f414610e3b57610674565b806356e3df9714610cb4578063573ca8f814610cd15780635ac78b1114610d2557610674565b8063434807ad14610bdc57806347524b6014610bf9578063494dd3f414610c165780634c0b044a14610c3b5780634cc3e34f14610c695780634e905ea214610c8f57610674565b80631fc7768f116105c45780633518dd1d1161056257806336e317821161053c57806336e3178214610b695780633889785814610b8e5780633c23306414610bb75780634129b2c914610bbf57610674565b80633518dd1d14610b0957806335515f7814610b2657806335b6ab7a14610b4357610674565b80632a3328f61161059e5780632a3328f6146109db5780632bdc66a014610a005780632df8e16714610a085780632eb7cfa714610a8057610674565b80631fc7768f1461093f57806320ba0fab1461095c57806329d0dcfb146109b557610674565b80631036bbe21161063157806317eb4d431161060b57806317eb4d4314610881578063185e456f146108d7578063190e5f8c146108fc5780631d1e84de1461091957610674565b80631036bbe2146107eb5780631060c9c2146107f357806310fd03b01461081057610674565b806305f0bb7b1461067957806307c30b4d146106b55780630ae78a39146106ec5780630b489b02146107245780630f14aef41461079a5780631018d55f146107bf575b600080fd5b61069f6004803603604081101561068f57600080fd5b508035906020013560ff16611b09565b6040805160ff9092168252519081900360200190f35b6106da600480360360408110156106cb57600080fd5b50803590602001351515611b20565b60408051918252519081900360200190f35b6106da6004803603608081101561070257600080fd5b5080359060ff6020820135811691604081013590911690606001351515611b4a565b61074a6004803603604081101561073a57600080fd5b508035906020013560ff16611b88565b60408051602080825283518183015283519192839290830191858101910280838360005b8381101561078657818101518382015260200161076e565b505050509050019250505060405180910390f35b6106da600480360360408110156107b057600080fd5b50803590602001351515611c7d565b6106da600480360360608110156107d557600080fd5b508035906020810135906040013560ff16611ca7565b6106da611cc4565b6106da6004803603602081101561080957600080fd5b5035611cc9565b61086d600480360360a081101561082657600080fd5b604080516060818101835284359460ff60208201351694810193909260a084019290918401906003908390839080828437600092019190915250919450611cd99350505050565b604080519115158252519081900360200190f35b6108d5600480360361032081101561089857600080fd5b810190808061032001906019806020026040519081016040528092919082601960200280828437600092019190915250919450611d6f9350505050565b005b6106da600480360360408110156108ed57600080fd5b50803590602001351515611e66565b61086d6004803603602081101561091257600080fd5b5035611e90565b61069f6004803603604081101561092f57600080fd5b508035906020013560ff16611e9c565b6106da6004803603602081101561095557600080fd5b5035611eac565b6108d5600480360361036081101561097357600080fd5b81019080806103200190601980602002604051908101604052809291908260196020028082843760009201919091525091945050813592505060200135611eb5565b6106da600480360360408110156109cb57600080fd5b508035906020013560ff16611fc2565b6106da600480360360408110156109f157600080fd5b50803590602001351515611fd1565b6106da611ff4565b610a2560048036036020811015610a1e57600080fd5b5035611ffd565b604051808561032080838360005b83811015610a4b578181015183820152602001610a33565b50505060ff97881693909101928352505061ffff90931660208401525090911660408083019190915251908190036060019150f35b610ace60048036036060811015610a9657600080fd5b6040805180820182529183019291818301918390600290839083908082843760009201919091525091945050503560ff16905061211d565b6040518082600260200280838360005b83811015610af6578181015183820152602001610ade565b5050505090500191505060405180910390f35b6106da60048036036020811015610b1f57600080fd5b503561215b565b61069f60048036036020811015610b3c57600080fd5b5035612164565b61086d60048036036040811015610b5957600080fd5b508035906020013560ff1661216a565b6106da60048036036040811015610b7f57600080fd5b5080359060200135151561217a565b6106da60048036036040811015610ba457600080fd5b508035906020013563ffffffff166121a4565b61069f6121c0565b61069f60048036036020811015610bd557600080fd5b50356121c5565b6106da60048036036020811015610bf257600080fd5b50356121ce565b61086d60048036036020811015610c0f57600080fd5b50356121d7565b6106da60048036036040811015610c2c57600080fd5b508035906020013515156121e3565b6106da60048036036060811015610c5157600080fd5b5080359060ff6020820135169060400135151561220d565b6106da60048036036040811015610c7f57600080fd5b508035906020013560ff16612235565b6106da60048036036040811015610ca557600080fd5b50803590602001351515612245565b6106da60048036036020811015610cca57600080fd5b503561226f565b61069f6004803603610120811015610ce857600080fd5b8101908080610120019060098060200260405190810160405280929190826009602002808284376000920191909152509194506122789350505050565b6106da60048036036060811015610d3b57600080fd5b5080359060ff60208201358116916040013516612292565b61069f6004803603610380811015610d6a57600080fd5b8101908080610320019060198060200260405190810160405280929190826019602002808284376000920191909152509194505081359250506020810135906040013515156122a7565b61069f60048036036060811015610dca57600080fd5b5080359060ff60208201351690604001351515612406565b61069f6004803603610360811015610df957600080fd5b81019080806103200190601980602002604051908101604052809291908260196020028082843760009201919091525091945050813592505060200135612436565b61069f6004803603610360811015610e5257600080fd5b810190808061032001906019806020026040519081016040528092919082601960200280828437600092019190915250919450508135925050602001356124cc565b61069f612648565b6106da60048036036040811015610eb257600080fd5b508035906020013561264d565b61086d60048036036020811015610ed557600080fd5b5035612654565b6106da60048036036103e0811015610ef357600080fd5b8101908080606001906003806020026040519081016040528092919082600360200280828437600092019190915250506040805160608181019092529295949381810193925090600390839083908082843760009201919091525050604080516101c08181019092529295949381810193925090600e90839083908082843760009201919091525050604080516101408181019092529295949381810193925090600a90839083908082843760009201919091525091945050503560ff169050612660565b6106da60048036036020811015610fce57600080fd5b5035612984565b61069f6129a5565b61069f60048036036040811015610ff357600080fd5b508035906020013560ff166129aa565b6106da6004803603606081101561101957600080fd5b5080359060ff602082013581169160400135166129ba565b61069f6004803603602081101561104757600080fd5b50356129d0565b61069f6004803603604081101561106457600080fd5b508035906020013560ff166129d9565b61069f6004803603602081101561108a57600080fd5b50356129e9565b61086d600480360360208110156110a757600080fd5b50356129ef565b6108d560048036036103608110156110c557600080fd5b810190808061032001906019806020026040519081016040528092919082601960200280828437600092019190915250919450508135925050602001356129fb565b61115b600480360361032081101561111e57600080fd5b810190808061032001906019806020026040519081016040528092919082601960200280828437600092019190915250919450612bf49350505050565b6040518151815280826103208083836020610ade565b61118e6004803603602081101561118757600080fd5b5035612c09565b6040518151815280826101c08083836020610ade565b61069f612c5a565b6106da600480360360408110156111c257600080fd5b508035906020013563ffffffff16612c5f565b6106da600480360360808110156111eb57600080fd5b5080359060ff6020820135811691604081013590911690606001351515612c79565b6106da6004803603602081101561122357600080fd5b5035612ca7565b6106da6004803603604081101561124057600080fd5b5080359060200135612cb0565b6106da6004803603602081101561126357600080fd5b5035612cb7565b61069f6004803603606081101561128057600080fd5b5080359060208101359060400135612cc2565b61069f600480360360408110156112a957600080fd5b50803590602001351515612d02565b6106da600480360360408110156112ce57600080fd5b508035906020013560ff16612d2a565b6112fb600480360360208110156112f457600080fd5b5035612d37565b6040518151815280826101208083836020610ade565b6106da6004803603602081101561132757600080fd5b5035613090565b6106da6004803603606081101561134457600080fd5b5080359060ff602082013581169160400135166130c8565b61069f6130de565b61069f6004803603604081101561137a57600080fd5b508035906020013560ff166130e3565b61069f600480360360208110156113a057600080fd5b50356130f3565b61069f600480360360608110156113bd57600080fd5b5080359060ff60208201351690604001351515613118565b6106da600480360360a08110156113eb57600080fd5b5080359060ff6020820135811691604081013582169160608201351690608001351515613145565b6106da600480360361034081101561142a57600080fd5b60408051610320818101909252833593928301929161034083019190602084019060199083908390808284376000920191909152509194506131989350505050565b61069f6004803603602081101561148257600080fd5b50356131ac565b61069f6131b5565b6106da600480360360608110156114a757600080fd5b5080359060ff602082013516906040013515156131ba565b6106da600480360360208110156114d557600080fd5b50356131e5565b61069f6131ee565b6108d560048036036103208110156114fb57600080fd5b8101908080610320019060198060200260405190810160405280929190826019602002808284376000920191909152509194506131f39350505050565b6106da6004803603604081101561154e57600080fd5b508035906020013515156132d4565b6106da6004803603604081101561157357600080fd5b508035906020013560ff166132fe565b6106da600480360361036081101561159a57600080fd5b6040805161032081810190925261ffff843516939283019291610340830191906020840190601990839083908082843760009201919091525091945050503560ff169050613317565b61069f60048036036101208110156115fa57600080fd5b8101908080610120019060098060200260405190810160405280929190826009602002808284376000920191909152509194506134eb9350505050565b6106da6004803603606081101561164d57600080fd5b5080359060ff602082013581169160400135166134fb565b6116ce60048036036103a081101561167c57600080fd5b8101908080610320019060198060200260405190810160405280929190826019602002808284376000920191909152509194505081359250506020810135906040810135151590606001351515613511565b604051808361032080838360005b838110156116f45781810151838201526020016116dc565b505050509050018260ff1660ff1681526020019250505060405180910390f35b61086d6004803603602081101561172a57600080fd5b50356135d4565b61174e6004803603602081101561174757600080fd5b50356135e0565b6040805161ffff9092168252519081900360200190f35b61086d6004803603602081101561177b57600080fd5b50356135ea565b6106da6004803603602081101561179857600080fd5b50356135f6565b6106da600480360360408110156117b557600080fd5b50803590602001351515613604565b6106da600480360360408110156117da57600080fd5b508035906020013560ff1661362e565b6106da6004803603604081101561180057600080fd5b50803590602001351515613645565b61182c6004803603602081101561182557600080fd5b503561366f565b6040518151815280826101408083836020610ade565b61086d6004803603602081101561185857600080fd5b50356136c5565b61069f6004803603604081101561187557600080fd5b508035906020013560ff166136d1565b61069f6004803603602081101561189b57600080fd5b50356136e1565b61086d600480360360408110156118b857600080fd5b508035906020013560ff166136ea565b61069f600480360360408110156118de57600080fd5b50803590602001351515613710565b61069f6004803603604081101561190357600080fd5b508035906020013560ff16613735565b6106da600480360361032081101561192a57600080fd5b8101908080610320019060198060200260405190810160405280929190826019602002808284376000920191909152509194506137459350505050565b61086d6004803603602081101561197d57600080fd5b50356137e2565b6106da6004803603602081101561199a57600080fd5b50356137ee565b61069f60048036036101208110156119b857600080fd5b8101908080610120019060098060200260405190810160405280929190826009602002808284376000920191909152509194506137f89350505050565b6106da60048036036040811015611a0b57600080fd5b508035906020013560ff16613808565b6106da60048036036040811015611a3157600080fd5b508035906020013560ff1661380f565b61069f60048036036040811015611a5757600080fd5b810190602081018135640100000000811115611a7257600080fd5b820183602082011115611a8457600080fd5b80359060200191846020830284011164010000000083111715611aa657600080fd5b9190808060200260200160405190810160405280939291908181526020018383602002808284376000920191909152509295505091359250613881915050565b6106da60048036036040811015611afc57600080fd5b508035906020013561392e565b601f60ff601060058402011683901c165b92915050565b60008115611b3c5750600160ad1b198216600160ad1b17611b1a565b50600160ad1b198216611b1a565b60008082611b59576000611b5c565b60035b840160020260a70190508060ff168560ff16901b8160ff166003901b198716179150505b949350505050565b60408051602080820185905282518083038201815282840180855281519183019190912060ff868116808452938402909401606090810190955292918491908015611bdd578160200160208202803683370190505b50905060005b8560ff168160ff161015611c7357602460ff84161015611c2d576040805160208082018a905260ff8085168385015283518084038501815260609093019093528151910120945092505b640fffffffff8416828260ff1681518110611c4457fe5b67ffffffffffffffff9092166020928302919091019091015260249390931c9260231990920191600101611be3565b5095945050505050565b600060fb82611c8d576000611c90565b60015b60ff16901b60fb6001901b19841617905092915050565b60ff811660140282811b620fffff90911b198416175b9392505050565b603c81565b6207ffff60b582901c165b919050565b6000611ce4846137e2565b80611cf35750611cf3846136c5565b80611d165750815160ff1615801590611d16575081516001840160ff9081169116145b80611d415750602082015160ff1615801590611d415750816001602002015160ff168360010160ff16145b80611b805750604082015160ff1615801590611b8057505060400151600190910160ff908116911614919050565b60005b601960ff82161015611e6257818160ff1660198110611d8d57fe5b602002015115801590611db95750611db7828260ff1660198110611dad57fe5b60200201516135ea565b155b15611e5a57611ddc828260ff1660198110611dd057fe5b60200201516000611b20565b828260ff1660198110611deb57fe5b6020020152611e0c8260ff831660198110611e0257fe5b60200201516129d0565b60ff1615611e5a57611e45828260ff1660198110611e2657fe5b60200201516001611e3f858560ff1660198110611e0257fe5b0361362e565b828260ff1660198110611e5457fe5b60200201525b600101611d72565b5050565b600060f882611e76576000611e79565b60015b60ff16901b60f86001901b19841617905092915050565b60f81c60019081161490565b60040260340160ff161c600f1690565b607e1c60071690565b818180821415611ec6575050611fbd565b600085600286860305860160198110611edb57fe5b602002015190505b818313611f93575b80868460198110611ef857fe5b60200201511115611f0e57600190920191611eeb565b858260198110611f1a57fe5b6020020151811115611f325760001990910190611f0e565b818313611f8e57858260198110611f4557fe5b6020020151868460198110611f5657fe5b6020020151878560198110611f6757fe5b60200201888560198110611f7757fe5b602002019190915252600190920191600019909101905b611ee3565b81851215611fa657611fa6868684611eb5565b83831215611fb957611fb9868486611eb5565b5050505b505050565b60ff166014021c620fffff1690565b60008082611fe0576083611fe3565b608d5b60ff169390931c600f169392505050565b640fffffffff81565b61200561393f565b601f60ea83901c166101ff60e184901c16600081601984111561202c575060029050612116565b60006004821061203f5781603c02612044565b816064025b905060005b60058160ff161015612112578060ff166004141561208357600a600b84020492506004831061207b5782603c02612080565b826064025b91505b6000600582025b8260010160050260ff168160ff1610156120f2576101ff60ff60098302168b901c16606481028510156120c7575060039550612116945050505050565b808a8360ff16601981106120d757fe5b61ffff9092166020929092020152919091019060010161208a565b508381111561210957506004935061211692505050565b50600101612049565b5050505b9193509193565b61212561395e565b60408051808201909152806121428560005b602002015185612d2a565b8152602001612152856001612137565b90529392505050565b607b1c60071690565b603f1690565b607c0160ff161c60019081161490565b600081156121965750600160d51b198216600160d51b17611b1a565b50600160d51b198216611b1a565b60b51b63ffffffff60b51b166207ffff60b51b19919091161790565b600b81565b60d21c60031690565b60741c600f1690565b60cc1c60019081161490565b600080826121f25760836121f5565b608d5b90508060040160ff1684901c60031691505092915050565b60008161221b57600061221e565b60045b60ca0160ff168360ff16901b841790509392505050565b6001607c9190910160ff161b1790565b600081156122615750600160b41b198216600160b41b17611b1a565b50600160b41b198216611b1a565b60cd1c60ff1690565b602081015160009082825b60200201516002020192915050565b60ff91821660049182029091019091161b1790565b6000806122b48484611fd1565b905060ff8116600e14156122cc576000915050611b80565b6122d68582611b09565b905060ff8116601914156122ee57600d915050611b80565b858160ff16601981106122fd57fe5b602002015161231057600e915050611b80565b600061231c85856121e3565b9050600381141561235e57612345878360ff166019811061233957fe5b60200201516001611b20565b878360ff166019811061235457fe5b60200201526123c1565b600281141561238557612345878360ff166019811061237957fe5b6020020151600561362e565b60018114156123c1576123ac878360ff16601981106123a057fe5b6020020151600261362e565b878360ff16601981106123bb57fe5b60200201525b836123f9576123e4878360ff16601981106123d857fe5b6020020151600161217a565b878360ff16601981106123f357fe5b60200201525b5060009695505050505050565b60008082612415576000612418565b60035b840160020260a70190508060ff1685901c6003169150509392505050565b6000805b60028160ff1610156124c157600061245484836000613118565b9050600e60ff821610156124b85761246c8582611b09565b905060ff81166019141561248557600a92505050611cbd565b6124a3868260ff166019811061249757fe5b602002015160016132d4565b868260ff16601981106124b257fe5b60200201525b5060010161243a565b506000949350505050565b60006124d661397c565b6000805b60038160ff1610156125755760006124f286836129aa565b905060ff8116156125225780848460ff166003811061250d57fe5b60ff9092166020929092020152600192909201915b600161252f878483612406565b60ff16141561256c576125458783600b01611b09565b600101848460ff166003811061255757fe5b60ff9092166020929092020152600192909201915b506001016124da565b5060038160ff16111561258d57600c92505050611cbd565b60005b601960ff821610156123f957868160ff16601981106125ab57fe5b602002015115612640576125d3878260ff16601981106125c757fe5b60200201518285611cd9565b1561260d576125f4878260ff16601981106125ea57fe5b6020020151613090565b878260ff166019811061260357fe5b6020020152612640565b61262b878260ff166019811061261f57fe5b6020020151600061380f565b878260ff166019811061263a57fe5b60200201525b600101612590565b601981565b60ec1b1790565b60fb1c60019081161490565b600060408260ff16106126ba576040805162461bcd60e51b815260206004820152601e60248201527f7461637469637349642073686f756c642066697420696e203634206269740000604482015290519081900360640190fd5b60ff821660005b600a8160ff161015612708578060060160ff16858260ff16600a81106126e357fe5b60200201516126f35760006126f6565b60015b60ff16901b91909117906001016126c1565b5060005b600b8160ff1610156127ad5760198660ff8316600e811061272957fe5b602002015160ff16111561277d576040805162461bcd60e51b8152602060048201526016602482015275696e636f7272656374206c696e65757020656e74727960501b604482015290519081900360640190fd5b8060050260100160ff16868260ff16600e811061279657fe5b602002015160ff16901b919091179060010161270c565b5060005b60038160ff16101561297957600c888260ff16600381106127ce57fe5b602002015160ff1610612821576040805162461bcd60e51b8152602060048201526016602482015275696e636f7272656374206c696e65757020656e74727960501b604482015290519081900360640190fd5b600c878260ff166003811061283257fe5b602002015160ff161061287e576040805162461bcd60e51b815260206004820152600f60248201526e1a5b98dbdc9c9958dd081c9bdd5b99608a1b604482015290519081900360640190fd5b600b8860ff83166003811061288f57fe5b602002015160ff1614156128f557601986600b830160ff16600e81106128b157fe5b602002015160ff16146128f55760405162461bcd60e51b81526004018080602001828103825260308152602001806139f86030913960400191505060405180910390fd5b80600b0160050260100160ff168682600b0160ff16600e811061291457fe5b602002015160ff16901b821791508060040260560160ff16888260ff166003811061293b57fe5b602002015160ff16901b821791508060040260620160ff16878260ff166003811061296257fe5b602002015160ff16901b91909117906001016127b1565b509695505050505050565b600061298f826121d7565b6129a15761299c826135f6565b611b1a565b5090565b600181565b60050260b30160ff161c601f1690565b60ff91821660059190910260b3019091161b1790565b60b11c60071690565b60040260620160ff161c600f1690565b600f1690565b60d61c60019081161490565b60005b600b8160ff161015612ab0576000612a168483611b09565b9050601960ff8216108015612a3d5750848160ff1660198110612a3557fe5b602002015115155b15612aa757612a60858260ff1660198110612a5457fe5b60200201516001613645565b858260ff1660198110612a6f57fe5b6020020152612a928560ff831660198110612a8657fe5b60200201516000612245565b858260ff1660198110612aa157fe5b60200201525b506001016129fe565b5060005b60038160ff161015612bee576001612ace83836000612406565b60ff161415612be6576000612aec84612ae786856136d1565b611b09565b90506000612afd8584600b01611b09565b9050858260ff1660198110612b0e57fe5b602002015115612b7d57612b36868360ff1660198110612b2a57fe5b60200201516000613645565b868360ff1660198110612b4557fe5b6020020152612b688660ff841660198110612b5c57fe5b60200201516001612245565b868360ff1660198110612b7757fe5b60200201525b858160ff1660198110612b8c57fe5b602002015115612be357612ba8868260ff1660198110612a5457fe5b868260ff1660198110612bb757fe5b6020020152612bce8660ff831660198110612a8657fe5b868260ff1660198110612bdd57fe5b60200201525b50505b600101612ab4565b50505050565b612bfc61393f565b6129a18260006018611eb5565b612c1161399a565b60005b600e8160ff161015612c54578060050260100160ff1683901c601f16828260ff16600e8110612c3f57fe5b60ff9092166020929092020152600101612c14565b50919050565b600281565b60cd1b63ffffffff60cd1b1660ff60cd1b19919091161790565b6000808360040283612c8c576097612c8f565b609f5b60ff87811692909101161b8617915050949350505050565b600160cc1b1790565b60d41b1790565b60d41c62ffffff1690565b600083158015612cd0575082155b15612cdf575060018116611cbd565b641000000000840283850183021015612cfa57506000611cbd565b506001611cbd565b600081612d10576000612d13565b60015b60040260c20160ff1683901c600f16905092915050565b60d21b60ff60d21b161790565b612d3f6139b9565b6000612d4a83612164565b905060ff8116612da757505060408051610120810182526001808252600260208301819052928201819052606082018190526080820183905260a0820152600060c0820181905260e0820192909252610100810191909152611cd4565b8060ff1660011415612e065750506040805161012081018252600180825260036020830152918101829052606081018290526002608082015260a08101829052600060c0820181905260e0820192909252610100810191909152611cd4565b8060ff1660021415612e625750506040805161012081018252600180825260026020830152918101829052606081018290526080810182905260a0810182905260c0810182905260e08101829052610100810191909152611cd4565b8060ff1660031415612ec15750506040805161012081018252600180825260026020830152918101829052606081018290526003608082015260a08101829052600060c0820181905260e0820192909252610100810191909152611cd4565b8060ff1660041415612f1d5750506040805161012081018252600180825260208201819052918101829052606081018290526002608082015260a0810182905260c0810182905260e08101829052610100810191909152611cd4565b8060ff1660051415612f795750506040805161012081018252600180825260208201819052918101829052606081018290526003608082015260a0810191909152600060c08201819052600260e0830152610100820152611cd4565b8060ff1660061415612fd55750506040805161012081018252600180825260208201819052918101829052606081018290526080810182905260a0810182905260c08101829052600260e0820152610100810191909152611cd4565b8060ff1660071415613034575050604080516101208101825260018082526002602083018190529282018190526000606083018190526080830184905260a083015260c0820181905260e0820192909252610100810191909152611cd4565b8060ff1660081415612c545750506040805161012081018252600080825260026020830152918101919091526001606082018190526003608083015260a0820181905260c0820181905260e08201819052610100820152611cd4565b60008061309c836136e1565b905060078160ff1610156130bf576130b7838260010161380f565b915050611cd4565b82915050611cd4565b60ff9182166004919091026034019091161b1790565b600581565b60020260640160ff161c60031690565b60006130fd6139b9565b61310683612d37565b60208101519051600202019392505050565b600080836004028361312b57609761312e565b609f5b0190508060ff1685901c600f169150509392505050565b60008082613154576083613157565b608d5b60ff8581166004830182161b88821682841690811b6103ff90911b199a909a169990991798909817978681166006909201161b871791505095945050505050565b6000611cbd836131a784613745565b612cb0565b60f91c60031690565b600381565b6000816131c85760006131cb565b60015b60040260c20160ff168360ff16901b841790509392505050565b60781c60071690565b600e81565b60005b601960ff82161015611e6257818160ff166019811061321157fe5b6020020151156132cc5761322d828260ff1660198110612b2a57fe5b828260ff166019811061323c57fe5b60200201526132538260ff831660198110612a8657fe5b828260ff166019811061326257fe5b60200201526132858260ff83166019811061327957fe5b6020020151600061217a565b828260ff166019811061329457fe5b60200201526132b78260ff8316601981106132ab57fe5b602002015160006132d4565b828260ff16601981106132c657fe5b60200201525b6001016131f6565b600081156132f05750600160d61b198216600160d61b17611b1a565b50600160d61b198216611b1a565b60f91b607f60f91b166001607d60f91b03919091161790565b6000601960ff83161115613372576040805162461bcd60e51b815260206004820152601d60248201527f7370656369616c506c617965722076616c756520746f6f206c61726765000000604482015290519081900360640190fd5b5060ff60ea1b60ea82901b1661ffff60e11b60e185901b161761ffff84166000600482106133a35781603c026133a8565b816064025b9050600060ff85166019146133be5760056133c1565b60045b905060005b8160ff168160ff1610156134e0578060ff166004141561340257600a600b8502049350600484106133fa5783603c026133ff565b836064025b92505b6000600582025b8260010160050260ff168160ff161015613497576000898260ff166019811061342e57fe5b602002015161ffff1690508581606402111561347b5760405162461bcd60e51b8152600401808060200182810382526024815260200180613a4a6024913960400191505060405180910390fd5b60ff600983021681901b97909717969190910190600101613409565b50848111156134d75760405162461bcd60e51b8152600401808060200182810382526022815260200180613a286022913960400191505060405180910390fd5b506001016133c6565b505050509392505050565b6080810151600090826003612283565b60ff9182166002919091026064019091161b1790565b61351961393f565b60008361356e5761352d87868860006122a7565b905060ff811615613540578691506135ca565b61354b878688612436565b905060ff81161561355e578691506135ca565b6135698786886129fb565b6135c3565b61357787611d6f565b61358487868860016122a7565b905060ff811615613597578691506135ca565b826135ba576135a78786886124cc565b905060ff8116156135ba578691506135ca565b6135c3876131f3565b5085905060005b9550959350505050565b60ad1c60019081161490565b60ec1c610fff1690565b60d51c60019081161490565b60811c6507ffffffffff1690565b60008082613613576083613616565b608d5b90508060060160ff1684901c600f1691505092915050565b60b11b60ff60b11b16600760b11b19919091161790565b600081156136615750600160ac1b198216600160ac1b17611b1a565b50600160ac1b198216611b1a565b6136776139d8565b60005b600a8160ff161015612c54578060060160ff1683901c6001166001146136a15760006136a4565b60015b828260ff16600a81106136b357fe5b9115156020909202015260010161367a565b60b41c60019081161490565b60040260560160ff161c600f1690565b60ae1c60071690565b60008160060160ff1683901c600116600114613707576000611cbd565b50600192915050565b60008161371e576000613721565b60045b60ca0160ff1683901c600f16905092915050565b60049081020160ff161c600f1690565b6000805b60198160ff1610156137a757828160ff166019811061376457fe5b60200201511561379f5761378a838260ff166019811061378057fe5b6020020151611cc9565b838260ff166019811061379957fe5b60200201525b600101613749565b506137b182612bf4565b5060005b60128160ff161015612c5457828160ff16601981106137d057fe5b602002015191909101906001016137b5565b60ac1c60019081161490565b60641c61ffff1690565b60e0810151600090826006612283565b60ff160190565b600060088260ff1610613869576040805162461bcd60e51b815260206004820152601d60248201527f67616d65734e6f6e53746f7070696e67206f7574206f6620626f756e64000000604482015290519081900360640190fd5b5060ae1b60ff60ae1b16600760ae1b19919091161790565b6000805b83518260ff1610156138b757838260ff16815181106138a057fe5b602090810291909101015160019092019101613885565b806138cf57835183816138c657fe5b06915050611b1a565b600091508202641000000000825b60018651038460ff16101561392557858460ff16815181106138fb57fe5b60200260200101518101905081810283101561391a5750611b1a915050565b6001909301926138dd565b50505092915050565b60741b600f60741b19919091161790565b6040518061032001604052806019906020820280368337509192915050565b60405180604001604052806002906020820280368337509192915050565b60405180606001604052806003906020820280368337509192915050565b604051806101c00160405280600e906020820280368337509192915050565b6040518061012001604052806009906020820280368337509192915050565b604051806101400160405280600a90602082028036833750919291505056fe696e636f7272656374206c696e65757020656e74727920666f72206e6f20737562737469747574656420706c6179657273756d206f66205472616e696e6720506f696e747320697320746f6f206c617267656f6e65206f66207468652061737369676e65642054507320697320746f6f206c61726765a264697066735822122082d418200a933e7cdd442864711965305c489d8f37143175c1d5997b2545b35064736f6c63430006030033",
  "source": "pragma solidity >= 0.6.3;\n\nimport \"./EngineLib.sol\";\nimport \"../encoders/EncodingMatchLog.sol\";\nimport \"../encoders/EncodingTPAssignment.sol\";\nimport \"../encoders/EncodingSkillsSetters.sol\";\nimport \"../encoders/EncodingTacticsBase1.sol\";\nimport \"../gameEngine/GetSumSkills.sol\";\n\n/**\n @title Library or pure functions that manage how players evolve\n @author Freeverse.io, www.freeverse.io\n*/\n\ncontract Evolution is EncodingMatchLog, EngineLib, EncodingTPAssignment, EncodingSkillsSetters, EncodingTacticsBase1, GetSumSkills {\n\n    uint8 constant private PLAYERS_PER_TEAM_MAX = 25;\n    uint8 public constant NO_OUT_OF_GAME_PLAYER  = 14;   /// noone saw a card\n    uint8 public constant RED_CARD = 3;   /// noone saw a card\n    uint8 public constant SOFT_INJURY = 1;  \n    uint8 public constant HARD_INJURY = 2;  \n    uint8 public constant WEEKS_HARD_INJ = 5;  /// weeks a player is out when suffered a hard injury\n    uint8 public constant WEEKS_SOFT_INJ = 2;  /// weeks a player is out when suffered a soft injury\n    uint8 private constant CHG_HAPPENED = uint8(1); \n\n    \n    function updateSkillsAfterPlayHalf(\n        uint256[PLAYERS_PER_TEAM_MAX] memory skills,\n        uint256 matchLog,\n        uint256 tactics,\n        bool is2ndHalf,\n        bool isBot\n    ) \n        public\n        pure\n        returns (uint256[PLAYERS_PER_TEAM_MAX] memory, uint8 err)\n    {\n        /// after 1st Half, update:\n        ///  - subtDuringFirstHalf, alignedEndOfFirstHalf => properly update\n        ///  - redCards, injury => add if any of this happens\n        ///  - adds +2 to daysNonStopping to all linedUp players\n        /// after 2nd Half, update:\n        ///  - subtDuringFirstHalf = 0, alignedEndOfFirstHalf = 0\n        ///  - redCards: \n        ///      - set all to false unless it happens in 1st or 2nd half\n        ///  -  injury => \n        ///      - decrease by one unless it happens in 1st or 2nd half\n        /// BOT teams need to be ready after a game. First half works as a human team.\n        /// but at the end of 2ns half, players don't increment gamesNonStop, and see \n        /// all cards and injuries set to 0. \n        if (!is2ndHalf) {\n            err = writeOutOfGameInSkills(skills, tactics, matchLog, false);\n            if (err > 0) return (skills, err);\n            err = writeYellowCardsFirstHalf(skills, tactics, matchLog);\n            if (err > 0) return (skills, err);\n            writeFirstHalfLineUp(skills, tactics, matchLog);\n        }\n        else {\n            // In the 2nd half, first, decrease injuryDays, and set redCardLastGame = false\n            // ...unless that outOfGame happened in 1st half; so don't overwrite what we wrote in 1st half\n            decreaseOutOfGames(skills);\n            // Then, add the particular outOfGame from this half\n            err = writeOutOfGameInSkills(skills, tactics, matchLog, true);\n            if (err > 0) return (skills, err);\n            if (!isBot) {\n                err = updateGamesNonStopping2ndHalf(skills, tactics, matchLog); // only touches gamesNonStopping\n                if (err > 0) return (skills, err);\n            }\n            resetFirstHalfDataInSkills(skills); // sets to false all FistHalf quantities\n        }\n        return (skills, 0);\n    }\n\n    function writeYellowCardsFirstHalf(uint256[PLAYERS_PER_TEAM_MAX] memory skills, uint256 tactics, uint256 matchLog) public pure returns(uint8) {\n        /// check if there was an out of player event:\n        for (uint8 posInHalf = 0; posInHalf < 2; posInHalf++) {\n            uint8 yellowCarded = getYellowCard(matchLog, posInHalf, false); // returns 0...13\n            if (yellowCarded < NO_OUT_OF_GAME_PLAYER) {\n                yellowCarded = getLinedUp(tactics, yellowCarded);\n                if (yellowCarded == NO_LINEUP) return ERR_UPDATEAFTER_YELLOW; // internal problem: out of game player is non-zero but points to noone\n                skills[yellowCarded] = setYellowCardFirstHalf(skills[yellowCarded], true);\n            }\n        }\n        return 0;\n    }\n    \n\n    function updateGamesNonStopping2ndHalf(\n        uint256[PLAYERS_PER_TEAM_MAX] memory skills, \n        uint256 tactics, \n        uint256 matchLog \n    ) \n        public \n        pure \n        returns (uint8 err)\n    {\n        uint8[3] memory joinedAt2ndHalf;\n        uint8 nJoined = 0;\n        /// first increase +2 the gamesNonStopping for those who joined\n        for (uint8 posInHalf = 0; posInHalf < 3; posInHalf++) {\n            /// First: those who joined at half time:\n            /// note that getHalfTimeSubs: returns lineUp[p]+1 for halftime subs, 0 = NO_SUBS\n            /// let us keep with this meaning, and store: joinedAt2ndHalf = shirtNum+1\n            uint8 enteringPlayer = getHalfTimeSubs(matchLog, posInHalf); \n            if (enteringPlayer > 0) {\n                joinedAt2ndHalf[nJoined] = enteringPlayer;\n                nJoined += 1;\n            }\n            if (getInGameSubsHappened(matchLog, posInHalf, true) == CHG_HAPPENED) {\n                joinedAt2ndHalf[nJoined]  = getLinedUp(tactics, 11 + posInHalf) + 1;\n                nJoined += 1;\n            }\n        }\n        if(nJoined > 3) return ERR_UPDATEAFTER_CHANGES; // Too many changes detected in this match!\n        for (uint8 p = 0; p < PLAYERS_PER_TEAM_MAX; p++) {\n            if (skills[p] != 0) {\n                if (hasPlayedThisMatch(skills[p], p, joinedAt2ndHalf)) {\n                    skills[p] = increaseGamesNonStopping(skills[p]);\n                } else {\n                    skills[p] = setGamesNonStopping(skills[p], 0); \n                }\n            }\n        }\n        return 0;\n    }\n\n    function hasPlayedThisMatch(uint256 skills, uint8 p, uint8[3] memory joinedAt2ndHalf) public pure returns(bool) {\n        /// recall the meaning: joinedAt2ndHalf = shirtNum+1, so that joinedAt2ndHalf == 0 => NO SUBS\n        return (\n            getAlignedEndOfFirstHalf(skills) || \n            getSubstitutedFirstHalf(skills) ||\n            ((joinedAt2ndHalf[0] > 0) && ((p + 1) == joinedAt2ndHalf[0])) ||\n            ((joinedAt2ndHalf[1] > 0) && ((p + 1) == joinedAt2ndHalf[1])) ||\n            ((joinedAt2ndHalf[2] > 0) && ((p + 1) == joinedAt2ndHalf[2]))\n        );\n    }\n\n    function resetFirstHalfDataInSkills(uint256[PLAYERS_PER_TEAM_MAX] memory skills) public pure {\n        for (uint8 p = 0; p < PLAYERS_PER_TEAM_MAX; p++) {\n            if (skills[p] != 0) {\n                skills[p] = setAlignedEndOfFirstHalf(skills[p], false);\n                skills[p] = setSubstitutedFirstHalf(skills[p], false);\n                skills[p] = setOutOfGameFirstHalf(skills[p], false);\n                skills[p] = setYellowCardFirstHalf(skills[p], false);\n            }\n        }\n    }\n    \n    function writeFirstHalfLineUp(\n        uint256[PLAYERS_PER_TEAM_MAX] memory skills, \n        uint256 tactics, \n        uint256 matchLog \n    ) \n        public \n        pure \n    {\n        /// NO_LINEUP = 25, NO_SUBS = 11\n        /// First set the starting 11 to Aligned = yes, substituted = false\n        for (uint8 p = 0; p < 11; p++) {\n            uint8 linedUp = getLinedUp(tactics, p);\n            if ((linedUp < NO_LINEUP) && (skills[linedUp] != 0)) {\n                skills[linedUp] = setAlignedEndOfFirstHalf(skills[linedUp], true);\n                skills[linedUp] = setSubstitutedFirstHalf(skills[linedUp], false);\n            }\n        }\n        /// Then modify only those involved in substitutions\n        for (uint8 posInHalf = 0; posInHalf < 3; posInHalf++) {\n            if (getInGameSubsHappened(matchLog, posInHalf, false) == CHG_HAPPENED) {\n                uint8 leavingFieldPlayer    = getLinedUp(tactics, getSubstitution(tactics, posInHalf));\n                uint8 enteringFieldPlayer   = getLinedUp(tactics, 11 + posInHalf);\n                if (skills[leavingFieldPlayer] != 0) {\n                    skills[leavingFieldPlayer]  = setAlignedEndOfFirstHalf(skills[leavingFieldPlayer], false);\n                    skills[leavingFieldPlayer]  = setSubstitutedFirstHalf(skills[leavingFieldPlayer], true);\n                }\n                if (skills[enteringFieldPlayer] != 0) {\n                    skills[enteringFieldPlayer] = setAlignedEndOfFirstHalf(skills[enteringFieldPlayer], true);\n                    skills[enteringFieldPlayer] = setSubstitutedFirstHalf(skills[enteringFieldPlayer], false);\n                }\n            }\n        }\n    }    \n    \n    /// we increase 2 units, so that we get a maximum of 7. \n    function increaseGamesNonStopping(uint256 skills) public pure returns (uint256) {\n        uint8 gamesNonStopping = getGamesNonStopping(skills);\n        if (gamesNonStopping < 7) return setGamesNonStopping(skills, gamesNonStopping + 1); \n        else return skills;\n    }\n\n    function writeOutOfGameInSkills(uint256[PLAYERS_PER_TEAM_MAX] memory skills, uint256 tactics, uint256 matchLog, bool is2ndHalf) public pure returns (uint8 err) {\n        /// check if there was an out of player event:\n        uint8 outOfGamePlayer = uint8(getOutOfGamePlayer(matchLog, is2ndHalf));\n        if (outOfGamePlayer == NO_OUT_OF_GAME_PLAYER) return 0;\n        /// convert outOfGamePlayer [0...13] to the index that points to the skills in the team [0,..24]\n        outOfGamePlayer = getLinedUp(tactics, outOfGamePlayer);\n        if(outOfGamePlayer == NO_LINEUP) return ERR_UPDATEAFTER_OUTOFGAME1; // internal problem: out of game player is non-zero but points to noone\n        if(skills[outOfGamePlayer] == 0) return ERR_UPDATEAFTER_OUTOFGAME2; // internal problem: out of game player is non-zero but points to null skills\n        uint256 outOfGameType = getOutOfGameType(matchLog, is2ndHalf);\n        if (outOfGameType == RED_CARD) {\n            skills[outOfGamePlayer] = setRedCardLastGame(skills[outOfGamePlayer], true);\n        }\n        else if (outOfGameType == HARD_INJURY) {\n            skills[outOfGamePlayer] = setInjuryWeeksLeft(skills[outOfGamePlayer], WEEKS_HARD_INJ);\n        }\n        else if (outOfGameType == SOFT_INJURY) {\n            skills[outOfGamePlayer] = setInjuryWeeksLeft(skills[outOfGamePlayer], WEEKS_SOFT_INJ);\n        }\n        if (!is2ndHalf) {\n            skills[outOfGamePlayer] = setOutOfGameFirstHalf(skills[outOfGamePlayer], true);\n        }\n        return 0;\n    }\n        \n    /// at the end of a match, decrease the weeks left from injury and set redRardsLastGame = false...\n    /// ...only if this outOfgame did not happen first half\n    /// the function called right after this one will add the outOfGames of this particular half where appropriate\n    function decreaseOutOfGames(uint256[PLAYERS_PER_TEAM_MAX] memory skills) public pure {\n        for (uint8 p = 0; p < PLAYERS_PER_TEAM_MAX; p++) {\n            if (skills[p] != 0 && !getOutOfGameFirstHalf(skills[p])) {\n                skills[p] = setRedCardLastGame(skills[p], false);\n                if (getInjuryWeeksLeft(skills[p]) != 0) {\n                    skills[p] = setInjuryWeeksLeft(skills[p], getInjuryWeeksLeft(skills[p])-1);\n                }\n            }\n        }\n    }\n\n    // computes teamSumSkills and adds it to matchLog\n    function addTeamSumSkillsToLog(uint256 matchLog, uint256[PLAYERS_PER_TEAM_MAX] memory skills) public pure returns (uint256) {\n        return addTeamSumSkills(matchLog, getSumOfTopPlayerSkills(skills));\n    }\n}\n\n",
  "sourcePath": "/Users/jurgenkudla/proyects/laos/laos-goal-revolution/goalrev-ganache/contracts/gameEngine/Evolution.sol",
  "compiler": {
    "name": "solc",
    "version": "0.6.3+commit.8dda9521.Emscripten.clang"
  },
  "schemaVersion": "3.0.23",
  "updatedAt": "2024-10-18T06:45:39.914Z",
  "networkType": "ethereum",
  "devdoc": {
    "author": "Freeverse.io, www.freeverse.io",
    "methods": {
      "throwDiceArray(uint256[],uint256)": {
        "details": "Generalization of the previous to any number of input weightsIt therefore throws any number of dice and returns the winner's idx.Following the explanation above, consider this limits:"
      }
    },
    "title": "Library or pure functions that manage how players evolve"
  },
  "userdoc": {
    "methods": {
      "addHalfTimeSubs(uint256,uint8,uint8)": {
        "notice": "recall that 0 means no subs, and we store here lineUp[p]+1 (where lineUp[p] = player shirt in the 25 that was substituted)"
      },
      "decreaseOutOfGames(uint256[25])": {
        "notice": "at the end of a match, decrease the weeks left from injury and set redRardsLastGame = false... ...only if this outOfgame did not happen first half the function called right after this one will add the outOfGames of this particular half where appropriate"
      },
      "encodeTP(uint16,uint16[25],uint8)": {
        "notice": "No player chosen"
      },
      "getHalfTimeSubs(uint256,uint8)": {
        "notice": "recall that 0 means no subs, and we store here p+1 (where p = player in the starting 11 that was substituted)"
      },
      "getPlayersPerZone(uint256)": {
        "notice": "TODO: can this be expressed as translates from a high level tacticsId (e.g. 442) to a format that describes how many players play in each of the 9 zones in the field (Def, Mid, Forw) x (L, C, R),  We impose left-right symmetry: DR = DL, MR = ML, FR = FL. So we only manage 6 numbers: [DL, DM, ML, MM, FL, FM], and force "
      },
      "getSumOfTopPlayerSkills(uint256[25])": {
        "notice": "warning: getSumOfTopPlayerSkills rewrites the skills array this function returns the sum of the skills of the top 18 players in the team"
      },
      "increaseGamesNonStopping(uint256)": {
        "notice": "we increase 2 units, so that we get a maximum of 7. "
      },
      "throwDice(uint256,uint256,uint256)": {
        "notice": "24 * 3600  / Throws a dice that returns 0 with probability weight0/(weight0+weight1), and 1 otherwise. / So, returning 0 has semantics: \"the responsible for weight0 is selected\". / We return a uint8, not bool, to allow the return to be used as an idx in an array by the callee. / The formula is derived as follows. Consider a segment which is the union of a segment of length w0, and one of length w1.      0, 1, ... w0-1 | w0 ... w0+w1-1  We want to get a random number in that segment: (w0+w1) * R/(maxR + 1)  w0 wins if (w0+w1) * R/(maxR + 1) < w0 => (w0+w1) * R < w0 * (maxR + 1)  w1 wins otherwise  Limits:  (w0 = 0, w1 != 0) => w0 never wins;   (w0 ! 0, w1 = 0) => w1 never wins;     MAX_RND controls the resolution or fine-graining of the algorithm."
      }
    }
  }
}