{
  "contractName": "Friendlies",
  "abi": [
    {
      "inputs": [
        {
          "internalType": "uint256[]",
          "name": "arr",
          "type": "uint256[]"
        },
        {
          "internalType": "uint8[]",
          "name": "idxs",
          "type": "uint8[]"
        },
        {
          "internalType": "int256",
          "name": "left",
          "type": "int256"
        },
        {
          "internalType": "int256",
          "name": "right",
          "type": "int256"
        }
      ],
      "name": "quickSort",
      "outputs": [],
      "stateMutability": "pure",
      "type": "function"
    },
    {
      "inputs": [
        {
          "internalType": "uint256[]",
          "name": "data",
          "type": "uint256[]"
        },
        {
          "internalType": "uint8[]",
          "name": "idxs",
          "type": "uint8[]"
        }
      ],
      "name": "sortIdxs",
      "outputs": [
        {
          "internalType": "uint8[]",
          "name": "",
          "type": "uint8[]"
        }
      ],
      "stateMutability": "pure",
      "type": "function"
    },
    {
      "inputs": [
        {
          "internalType": "uint8",
          "name": "nTeams",
          "type": "uint8"
        }
      ],
      "name": "getLeagueMatchDays",
      "outputs": [
        {
          "internalType": "uint8",
          "name": "",
          "type": "uint8"
        }
      ],
      "stateMutability": "pure",
      "type": "function"
    },
    {
      "inputs": [
        {
          "internalType": "uint8",
          "name": "nTeams",
          "type": "uint8"
        }
      ],
      "name": "getLeagueMatchesPerDay",
      "outputs": [
        {
          "internalType": "uint8",
          "name": "",
          "type": "uint8"
        }
      ],
      "stateMutability": "pure",
      "type": "function"
    },
    {
      "inputs": [
        {
          "internalType": "uint8",
          "name": "nTeams",
          "type": "uint8"
        }
      ],
      "name": "getLeagueMatchesPerLeague",
      "outputs": [
        {
          "internalType": "uint8",
          "name": "",
          "type": "uint8"
        }
      ],
      "stateMutability": "pure",
      "type": "function"
    },
    {
      "inputs": [
        {
          "internalType": "uint8",
          "name": "matchday",
          "type": "uint8"
        },
        {
          "internalType": "uint8",
          "name": "matchIdxInDay",
          "type": "uint8"
        },
        {
          "internalType": "uint8",
          "name": "nTeams",
          "type": "uint8"
        }
      ],
      "name": "getTeamsInLeagueMatch",
      "outputs": [
        {
          "internalType": "uint8",
          "name": "homeIdx",
          "type": "uint8"
        },
        {
          "internalType": "uint8",
          "name": "visitorIdx",
          "type": "uint8"
        }
      ],
      "stateMutability": "pure",
      "type": "function"
    },
    {
      "inputs": [
        {
          "internalType": "uint8",
          "name": "t",
          "type": "uint8"
        },
        {
          "internalType": "uint8",
          "name": "nTeams",
          "type": "uint8"
        }
      ],
      "name": "shiftBack",
      "outputs": [
        {
          "internalType": "uint8",
          "name": "",
          "type": "uint8"
        }
      ],
      "stateMutability": "pure",
      "type": "function"
    },
    {
      "inputs": [
        {
          "internalType": "uint8",
          "name": "matchday",
          "type": "uint8"
        },
        {
          "internalType": "uint8",
          "name": "matchIdxInDay",
          "type": "uint8"
        },
        {
          "internalType": "uint8",
          "name": "nTeams",
          "type": "uint8"
        }
      ],
      "name": "getTeamsInMatchFirstHalf",
      "outputs": [
        {
          "internalType": "uint8",
          "name": "",
          "type": "uint8"
        },
        {
          "internalType": "uint8",
          "name": "",
          "type": "uint8"
        }
      ],
      "stateMutability": "pure",
      "type": "function"
    },
    {
      "inputs": [
        {
          "internalType": "uint8",
          "name": "matchIdxDay",
          "type": "uint8"
        },
        {
          "internalType": "uint8",
          "name": "nTeams",
          "type": "uint8"
        },
        {
          "internalType": "uint256",
          "name": "matchDaySeed",
          "type": "uint256"
        }
      ],
      "name": "getTeamsInCupMatch",
      "outputs": [
        {
          "internalType": "uint8",
          "name": "",
          "type": "uint8"
        },
        {
          "internalType": "uint8",
          "name": "",
          "type": "uint8"
        }
      ],
      "stateMutability": "pure",
      "type": "function"
    }
  ],
  "bytecode": "0x608060405234801561001057600080fd5b50610925806100206000396000f3fe608060405234801561001057600080fd5b50600436106100935760003560e01c80637b5a0176116100665780637b5a0176146103b7578063813f2c44146103e9578063925e3ee414610427578063970197de14610447578063acb3b72e1461046757610093565b806305b5fc151461009857806306e70ea3146100ea578063091c8a8f1461025d5780630c368af81461028d575b600080fd5b6100ca600480360360608110156100ae57600080fd5b5060ff8135811691602081013582169160409091013516610487565b6040805160ff938416815291909216602082015281519081900390910190f35b61020d6004803603604081101561010057600080fd5b810190602081018135600160201b81111561011a57600080fd5b82018360208201111561012c57600080fd5b803590602001918460208302840111600160201b8311171561014d57600080fd5b9190808060200260200160405190810160405280939291908181526020018383602002808284376000920191909152509295949360208101935035915050600160201b81111561019c57600080fd5b8201836020820111156101ae57600080fd5b803590602001918460208302840111600160201b831117156101cf57600080fd5b9190808060200260200160405190810160405280939291908181526020018383602002808284376000920191909152509295506104d7945050505050565b60408051602080825283518183015283519192839290830191858101910280838360005b83811015610249578181015183820152602001610231565b505050509050019250505060405180910390f35b6100ca6004803603606081101561027357600080fd5b5060ff8135811691602081013590911690604001356104f3565b6103b5600480360360808110156102a357600080fd5b810190602081018135600160201b8111156102bd57600080fd5b8201836020820111156102cf57600080fd5b803590602001918460208302840111600160201b831117156102f057600080fd5b9190808060200260200160405190810160405280939291908181526020018383602002808284376000920191909152509295949360208101935035915050600160201b81111561033f57600080fd5b82018360208201111561035157600080fd5b803590602001918460208302840111600160201b8311171561037257600080fd5b919080806020026020016040519081016040528093929190818152602001838360200280828437600092019190915250929550508235935050506020013561064b565b005b6100ca600480360360608110156103cd57600080fd5b5060ff81358116916020810135821691604090910135166107d0565b610411600480360360408110156103ff57600080fd5b5060ff813581169160200135166108ad565b6040805160ff9092168252519081900360200190f35b6104116004803603602081101561043d57600080fd5b503560ff166108d0565b6104116004803603602081101561045d57600080fd5b503560ff166108dc565b6104116004803603602081101561047d57600080fd5b503560ff166108e5565b6000808060ff8516156104a5576104a28686860301856108ad565b90505b60006104b6878760010101866108ad565b9050600187166104ca5790925090506104cf565b925090505b935093915050565b60606104ea83836000600187510361064b565b50805b92915050565b6000808261050a57505060028302600181016104cf565b60608460ff16604051908082528060200260200182016040528015610539578160200160208202803683370190505b50905060608560ff1660405190808252806020026020018201604052801561056b578160200160208202803683370190505b50905060005b8660ff168160ff1610156105fd5780828260ff168151811061058f57fe5b602002602001019060ff16908160ff16815250508581604051602001808381526020018260ff1660ff168152602001925050506040516020818303038152906040528051906020012060001c838260ff16815181106105ea57fe5b6020908102919091010152600101610571565b5061060882826104d7565b50808760020260ff168151811061061b57fe5b6020026020010151818860020260010160ff168151811061063857fe5b60200260200101519350935050506104cf565b81818082141561065c5750506107ca565b60008660028686030586018151811061067157fe5b602002602001015190505b81831361079e575b8087848151811061069157fe5b602002602001015111156106aa57600190920191610684565b8682815181106106b657fe5b60200260200101518111156106d157600019909101906106aa565b818313610799578682815181106106e457fe5b60200260200101518784815181106106f857fe5b602002602001015188858151811061070c57fe5b6020026020010189858151811061071f57fe5b602002602001018281525082815250505085828151811061073c57fe5b602002602001015186848151811061075057fe5b602002602001015187858151811061076457fe5b6020026020010188858151811061077757fe5b60ff938416602091820292909201015291169052600190920191600019909101905b61067c565b818512156107b2576107b28787878561064b565b838312156107c6576107c68787858761064b565b5050505b50505050565b6000806107dc836108e5565b60ff168560ff1610610827576040805162461bcd60e51b815260206004820152600f60248201526e77726f6e67206d617463682064617960881b604482015290519081900360640190fd5b610830836108d0565b60ff168460ff1610610877576040805162461bcd60e51b815260206004820152600b60248201526a0eee4dedcce40dac2e8c6d60ab1b604482015290519081900360640190fd5b6001830360ff168560ff16101561089d57610893858585610487565b90925090506104cf565b6104ca6001840386038585610487565b60008160ff168360ff1610156108c45750816104ed565b508082036001016104ed565b600260ff919091160490565b60001981010290565b600019016002029056fea2646970667358221220c352172bc6c58da6f157b2da14ec7542f77341e7a54685f3f96a9cb42565e20464736f6c63430006030033",
  "source": "pragma solidity >= 0.6.3;\n\nimport \"./SortIdxsAnySize.sol\";\n\n/**\n @title Library or pure functions that manage friendly games\n @author Freeverse.io, www.freeverse.io\n*/\n\n\ncontract Friendlies is SortIdxsAnySize {\n\n    function getLeagueMatchDays(uint8 nTeams) public pure returns (uint8) { return 2 * (nTeams-1); }\n    function getLeagueMatchesPerDay(uint8 nTeams) public pure returns (uint8) { return nTeams/2; }\n    function getLeagueMatchesPerLeague(uint8 nTeams) public pure returns (uint8) { return nTeams * (nTeams-1); }\n    \n    function getTeamsInLeagueMatch(uint8 matchday, uint8 matchIdxInDay, uint8 nTeams) public pure returns (uint8 homeIdx, uint8 visitorIdx) \n    {\n        require(matchday < getLeagueMatchDays(nTeams), \"wrong match day\");\n        require(matchIdxInDay < getLeagueMatchesPerDay(nTeams), \"wrong match\");\n        if (matchday < (nTeams - 1))\n            (homeIdx, visitorIdx) = getTeamsInMatchFirstHalf(matchday, matchIdxInDay, nTeams);\n        else\n            (visitorIdx, homeIdx) = getTeamsInMatchFirstHalf(matchday - (nTeams - 1), matchIdxInDay, nTeams);\n    }\n\n    function shiftBack(uint8 t, uint8 nTeams) public pure returns (uint8)\n    {\n        if (t < nTeams)\n            return t;\n        else\n            return t-(nTeams-1);\n    }\n\n    function getTeamsInMatchFirstHalf(uint8 matchday, uint8 matchIdxInDay, uint8 nTeams) public pure returns (uint8, uint8) \n    {\n        uint8 team1 = 0;\n        if (matchIdxInDay > 0)\n            team1 = shiftBack(nTeams - matchIdxInDay+matchday, nTeams);\n\n        uint8 team2 = shiftBack(matchIdxInDay+1+matchday, nTeams);\n        if ( (matchday % 2) == 0)\n            return (team1, team2);\n        else\n            return (team2, team1);\n    }\n    \n    function getTeamsInCupMatch(uint8 matchIdxDay, uint8 nTeams, uint256 matchDaySeed) public pure returns (uint8, uint8) {\n        if (matchDaySeed == 0) { return (2 * matchIdxDay, 2 * matchIdxDay + 1);}\n        else {\n            uint256[] memory randoms = new uint256[](nTeams);\n            uint8[] memory order   = new uint8[](nTeams);\n            for (uint8 i = 0; i < nTeams; i++) {\n                order[i] = i;\n                randoms[i] = uint256(keccak256(abi.encode(matchDaySeed, i)));\n            }\n            sortIdxs(randoms, order);\n            return (order[2 * matchIdxDay], order[2 * matchIdxDay + 1]);\n        }\n    }\n}\n",
  "sourcePath": "/Users/jurgenkudla/proyects/laos/laos-goal-revolution/truffle-core/contracts/gameEngine/Friendlies.sol",
  "compiler": {
    "name": "solc",
    "version": "0.6.3+commit.8dda9521.Emscripten.clang"
  },
  "schemaVersion": "3.0.23",
  "updatedAt": "2024-10-16T06:02:47.905Z",
  "devdoc": {
    "author": "Freeverse.io, www.freeverse.io",
    "methods": {},
    "title": "Library or pure functions that manage friendly games"
  },
  "userdoc": {
    "methods": {}
  }
}