{
  "contractName": "GetSumSkills",
  "abi": [
    {
      "inputs": [
        {
          "internalType": "uint256",
          "name": "encodedSkills",
          "type": "uint256"
        }
      ],
      "name": "getAggressiveness",
      "outputs": [
        {
          "internalType": "uint256",
          "name": "",
          "type": "uint256"
        }
      ],
      "stateMutability": "pure",
      "type": "function"
    },
    {
      "inputs": [
        {
          "internalType": "uint256",
          "name": "encodedSkills",
          "type": "uint256"
        }
      ],
      "name": "getAlignedEndOfFirstHalf",
      "outputs": [
        {
          "internalType": "bool",
          "name": "",
          "type": "bool"
        }
      ],
      "stateMutability": "pure",
      "type": "function"
    },
    {
      "inputs": [
        {
          "internalType": "uint256",
          "name": "encodedSkills",
          "type": "uint256"
        }
      ],
      "name": "getBirthDay",
      "outputs": [
        {
          "internalType": "uint256",
          "name": "",
          "type": "uint256"
        }
      ],
      "stateMutability": "pure",
      "type": "function"
    },
    {
      "inputs": [
        {
          "internalType": "uint256",
          "name": "encodedSkills",
          "type": "uint256"
        }
      ],
      "name": "getForwardness",
      "outputs": [
        {
          "internalType": "uint256",
          "name": "",
          "type": "uint256"
        }
      ],
      "stateMutability": "pure",
      "type": "function"
    },
    {
      "inputs": [
        {
          "internalType": "uint256",
          "name": "encodedSkills",
          "type": "uint256"
        }
      ],
      "name": "getGamesNonStopping",
      "outputs": [
        {
          "internalType": "uint8",
          "name": "",
          "type": "uint8"
        }
      ],
      "stateMutability": "pure",
      "type": "function"
    },
    {
      "inputs": [
        {
          "internalType": "uint256",
          "name": "encodedSkills",
          "type": "uint256"
        }
      ],
      "name": "getGeneration",
      "outputs": [
        {
          "internalType": "uint256",
          "name": "",
          "type": "uint256"
        }
      ],
      "stateMutability": "pure",
      "type": "function"
    },
    {
      "inputs": [
        {
          "internalType": "uint256",
          "name": "encodedSkills",
          "type": "uint256"
        }
      ],
      "name": "getInjuryWeeksLeft",
      "outputs": [
        {
          "internalType": "uint8",
          "name": "",
          "type": "uint8"
        }
      ],
      "stateMutability": "pure",
      "type": "function"
    },
    {
      "inputs": [
        {
          "internalType": "uint256",
          "name": "encodedSkills",
          "type": "uint256"
        }
      ],
      "name": "getInternalPlayerId",
      "outputs": [
        {
          "internalType": "uint256",
          "name": "",
          "type": "uint256"
        }
      ],
      "stateMutability": "pure",
      "type": "function"
    },
    {
      "inputs": [
        {
          "internalType": "uint256",
          "name": "encodedSkills",
          "type": "uint256"
        }
      ],
      "name": "getIsSpecial",
      "outputs": [
        {
          "internalType": "bool",
          "name": "",
          "type": "bool"
        }
      ],
      "stateMutability": "pure",
      "type": "function"
    },
    {
      "inputs": [
        {
          "internalType": "uint256",
          "name": "encodedSkills",
          "type": "uint256"
        }
      ],
      "name": "getLeftishness",
      "outputs": [
        {
          "internalType": "uint256",
          "name": "",
          "type": "uint256"
        }
      ],
      "stateMutability": "pure",
      "type": "function"
    },
    {
      "inputs": [
        {
          "internalType": "uint256",
          "name": "encodedSkills",
          "type": "uint256"
        }
      ],
      "name": "getOutOfGameFirstHalf",
      "outputs": [
        {
          "internalType": "bool",
          "name": "",
          "type": "bool"
        }
      ],
      "stateMutability": "pure",
      "type": "function"
    },
    {
      "inputs": [
        {
          "internalType": "uint256",
          "name": "encodedSkills",
          "type": "uint256"
        }
      ],
      "name": "getPlayerIdFromSkills",
      "outputs": [
        {
          "internalType": "uint256",
          "name": "",
          "type": "uint256"
        }
      ],
      "stateMutability": "pure",
      "type": "function"
    },
    {
      "inputs": [
        {
          "internalType": "uint256",
          "name": "encodedSkills",
          "type": "uint256"
        }
      ],
      "name": "getPotential",
      "outputs": [
        {
          "internalType": "uint256",
          "name": "",
          "type": "uint256"
        }
      ],
      "stateMutability": "pure",
      "type": "function"
    },
    {
      "inputs": [
        {
          "internalType": "uint256",
          "name": "encodedSkills",
          "type": "uint256"
        }
      ],
      "name": "getRedCardLastGame",
      "outputs": [
        {
          "internalType": "bool",
          "name": "",
          "type": "bool"
        }
      ],
      "stateMutability": "pure",
      "type": "function"
    },
    {
      "inputs": [
        {
          "internalType": "uint256",
          "name": "encodedSkills",
          "type": "uint256"
        },
        {
          "internalType": "uint8",
          "name": "skillIdx",
          "type": "uint8"
        }
      ],
      "name": "getSkill",
      "outputs": [
        {
          "internalType": "uint256",
          "name": "",
          "type": "uint256"
        }
      ],
      "stateMutability": "pure",
      "type": "function"
    },
    {
      "inputs": [
        {
          "internalType": "uint256",
          "name": "encodedSkills",
          "type": "uint256"
        }
      ],
      "name": "getSubstitutedFirstHalf",
      "outputs": [
        {
          "internalType": "bool",
          "name": "",
          "type": "bool"
        }
      ],
      "stateMutability": "pure",
      "type": "function"
    },
    {
      "inputs": [
        {
          "internalType": "uint256",
          "name": "encodedSkills",
          "type": "uint256"
        }
      ],
      "name": "getSumOfSkills",
      "outputs": [
        {
          "internalType": "uint256",
          "name": "",
          "type": "uint256"
        }
      ],
      "stateMutability": "pure",
      "type": "function"
    },
    {
      "inputs": [
        {
          "internalType": "uint256",
          "name": "encodedSkills",
          "type": "uint256"
        }
      ],
      "name": "getYellowCardFirstHalf",
      "outputs": [
        {
          "internalType": "bool",
          "name": "",
          "type": "bool"
        }
      ],
      "stateMutability": "pure",
      "type": "function"
    },
    {
      "inputs": [
        {
          "internalType": "uint256[25]",
          "name": "arr",
          "type": "uint256[25]"
        },
        {
          "internalType": "int256",
          "name": "left",
          "type": "int256"
        },
        {
          "internalType": "int256",
          "name": "right",
          "type": "int256"
        }
      ],
      "name": "quickSort25",
      "outputs": [],
      "stateMutability": "pure",
      "type": "function"
    },
    {
      "inputs": [
        {
          "internalType": "uint256[25]",
          "name": "data",
          "type": "uint256[25]"
        }
      ],
      "name": "sort25",
      "outputs": [
        {
          "internalType": "uint256[25]",
          "name": "",
          "type": "uint256[25]"
        }
      ],
      "stateMutability": "pure",
      "type": "function"
    },
    {
      "inputs": [
        {
          "internalType": "uint256[25]",
          "name": "skills",
          "type": "uint256[25]"
        }
      ],
      "name": "getSumOfTopPlayerSkills",
      "outputs": [
        {
          "internalType": "uint256",
          "name": "teamSkills",
          "type": "uint256"
        }
      ],
      "stateMutability": "pure",
      "type": "function"
    }
  ],
  "bytecode": "0x608060405234801561001057600080fd5b506107bf806100206000396000f3fe608060405234801561001057600080fd5b50600436106101375760003560e01c80637ffa3a2e116100b8578063d2f7967d1161007c578063d2f7967d146103e2578063e37528bb146103ff578063e804e5191461041c578063f1aba29c14610439578063f2c357641461048d578063f2dc657f146104aa57610137565b80637ffa3a2e146102e157806388438b00146102fe578063c2bc41cd1461038b578063cc7d473b146103a8578063d1b3d8fd146103c557610137565b8063434807ad116100ff578063434807ad1461022657806347524b601461024357806356e3df97146102745780636f6c2ae01461029157806379e76597146102ae57610137565b80631060c9c21461013c5780631fc7768f1461016b57806320ba0fab1461018857806329d0dcfb146101e35780633518dd1d14610209575b600080fd5b6101596004803603602081101561015257600080fd5b50356104c7565b60408051918252519081900360200190f35b6101596004803603602081101561018157600080fd5b50356104d2565b6101e1600480360361036081101561019f57600080fd5b810190808061032001906019806020026040519081016040528092919082601960200280828437600092019190915250919450508135925050602001356104db565b005b610159600480360360408110156101f957600080fd5b508035906020013560ff166105e8565b6101596004803603602081101561021f57600080fd5b50356105f7565b6101596004803603602081101561023c57600080fd5b5035610600565b6102606004803603602081101561025957600080fd5b5035610609565b604080519115158252519081900360200190f35b6101596004803603602081101561028a57600080fd5b5035610615565b610159600480360360208110156102a757600080fd5b503561061e565b6102cb600480360360208110156102c457600080fd5b5035610643565b6040805160ff9092168252519081900360200190f35b610260600480360360208110156102f757600080fd5b503561064c565b610352600480360361032081101561031557600080fd5b8101908080610320019060198060200260405190810160405280929190826019602002808284376000920191909152509194506106589350505050565b604051808261032080838360005b83811015610378578181015183820152602001610360565b5050505090500191505060405180910390f35b610159600480360360208110156103a157600080fd5b503561066d565b610260600480360360208110156103be57600080fd5b5035610676565b610260600480360360208110156103db57600080fd5b5035610682565b610159600480360360208110156103f857600080fd5b503561068e565b6102606004803603602081101561041557600080fd5b503561069c565b6102cb6004803603602081101561043257600080fd5b50356106a8565b610159600480360361032081101561045057600080fd5b8101908080610320019060198060200260405190810160405280929190826019602002808284376000920191909152509194506106b19350505050565b610260600480360360208110156104a357600080fd5b5035610754565b610159600480360360208110156104c057600080fd5b5035610760565b60b51c6207ffff1690565b607e1c60071690565b8181808214156104ec5750506105e3565b60008560028686030586016019811061050157fe5b602002015190505b8183136105b9575b8086846019811061051e57fe5b6020020151111561053457600190920191610511565b85826019811061054057fe5b60200201518111156105585760001990910190610534565b8183136105b45785826019811061056b57fe5b602002015186846019811061057c57fe5b602002015187856019811061058d57fe5b6020020188856019811061059d57fe5b602002019190915252600190920191600019909101905b610509565b818512156105cc576105cc8686846104db565b838312156105df576105df8684866104db565b5050505b505050565b60ff166014021c620fffff1690565b607b1c60071690565b60741c600f1690565b60cc1c60019081161490565b60cd1c60ff1690565b600061062982610609565b61063b576106368261068e565b61063d565b815b92915050565b60b11c60071690565b60d61c60019081161490565b61066061076a565b61063b82600060186104db565b60781c60071690565b60ad1c60019081161490565b60d51c60019081161490565b60811c6507ffffffffff1690565b60b41c60019081161490565b60ae1c60071690565b6000805b60198160ff16101561071357828160ff16601981106106d057fe5b60200201511561070b576106f6838260ff16601981106106ec57fe5b60200201516104c7565b838260ff166019811061070557fe5b60200201525b6001016106b5565b5061071d82610658565b5060005b60128160ff16101561074e57828160ff166019811061073c57fe5b60200201519190910190600101610721565b50919050565b60ac1c60019081161490565b60641c61ffff1690565b604051806103200160405280601990602082028036833750919291505056fea264697066735822122014a4a0d5899fa6d76abcac936eb428b1fda2502d40d256ddb421530f7fd39b3b64736f6c63430006030033",
  "source": "pragma solidity >= 0.6.3;\n\n/**\n @title Getters for library to serialize/deserialize player skills\n @author Freeverse.io, www.freeverse.io\n*/\n\nimport \"./SortValues25.sol\";\nimport \"../encoders/EncodingSkillsGetters.sol\";\n\ncontract GetSumSkills is SortValues25, EncodingSkillsGetters {\n\n    /// warning: getSumOfTopPlayerSkills rewrites the skills array\n    /// this function returns the sum of the skills of the top 18 players in the team\n    function getSumOfTopPlayerSkills(uint256[25] memory skills) public pure returns (uint256 teamSkills) {\n        for (uint8 p = 0; p < 25; p++) {\n            if (skills[p] != 0)\n                skills[p] = getSumOfSkills(skills[p]);\n        }\n        sort25(skills);\n        for (uint8 p = 0; p < 18; p++) { teamSkills += skills[p]; }\n    }\n\n}\n",
  "sourcePath": "/Users/jurgenkudla/proyects/laos/laos-goal-revolution/truffle-core/contracts/gameEngine/GetSumSkills.sol",
  "compiler": {
    "name": "solc",
    "version": "0.6.3+commit.8dda9521.Emscripten.clang"
  },
  "schemaVersion": "3.0.23",
  "updatedAt": "2024-10-16T06:02:47.908Z",
  "devdoc": {
    "methods": {}
  },
  "userdoc": {
    "methods": {
      "getSumOfTopPlayerSkills(uint256[25])": {
        "notice": "warning: getSumOfTopPlayerSkills rewrites the skills array this function returns the sum of the skills of the top 18 players in the team"
      }
    }
  }
}