{
  "contractName": "Leagues",
  "abi": [
    {
      "inputs": [],
      "name": "MATCHDAYS",
      "outputs": [
        {
          "internalType": "uint8",
          "name": "",
          "type": "uint8"
        }
      ],
      "stateMutability": "view",
      "type": "function",
      "constant": true
    },
    {
      "inputs": [],
      "name": "MATCHES_PER_DAY",
      "outputs": [
        {
          "internalType": "uint8",
          "name": "",
          "type": "uint8"
        }
      ],
      "stateMutability": "view",
      "type": "function",
      "constant": true
    },
    {
      "inputs": [],
      "name": "MATCHES_PER_LEAGUE",
      "outputs": [
        {
          "internalType": "uint8",
          "name": "",
          "type": "uint8"
        }
      ],
      "stateMutability": "view",
      "type": "function",
      "constant": true
    },
    {
      "inputs": [],
      "name": "PLAYERS_PER_TEAM_MAX",
      "outputs": [
        {
          "internalType": "uint8",
          "name": "",
          "type": "uint8"
        }
      ],
      "stateMutability": "view",
      "type": "function",
      "constant": true
    },
    {
      "inputs": [],
      "name": "TEAMS_PER_LEAGUE",
      "outputs": [
        {
          "internalType": "uint8",
          "name": "",
          "type": "uint8"
        }
      ],
      "stateMutability": "view",
      "type": "function",
      "constant": true
    },
    {
      "inputs": [
        {
          "internalType": "uint256",
          "name": "encoded",
          "type": "uint256"
        }
      ],
      "name": "decodeTZCountryAndVal",
      "outputs": [
        {
          "internalType": "uint8",
          "name": "",
          "type": "uint8"
        },
        {
          "internalType": "uint256",
          "name": "",
          "type": "uint256"
        },
        {
          "internalType": "uint256",
          "name": "",
          "type": "uint256"
        }
      ],
      "stateMutability": "pure",
      "type": "function",
      "constant": true
    },
    {
      "inputs": [
        {
          "internalType": "uint8",
          "name": "timeZone",
          "type": "uint8"
        },
        {
          "internalType": "uint256",
          "name": "countryIdxInTZ",
          "type": "uint256"
        },
        {
          "internalType": "uint256",
          "name": "val",
          "type": "uint256"
        }
      ],
      "name": "encodeTZCountryAndVal",
      "outputs": [
        {
          "internalType": "uint256",
          "name": "",
          "type": "uint256"
        }
      ],
      "stateMutability": "pure",
      "type": "function",
      "constant": true
    },
    {
      "inputs": [
        {
          "internalType": "uint256",
          "name": "encodedSkills",
          "type": "uint256"
        }
      ],
      "name": "getAggressiveness",
      "outputs": [
        {
          "internalType": "uint256",
          "name": "",
          "type": "uint256"
        }
      ],
      "stateMutability": "pure",
      "type": "function",
      "constant": true
    },
    {
      "inputs": [
        {
          "internalType": "uint256",
          "name": "encodedSkills",
          "type": "uint256"
        }
      ],
      "name": "getAlignedEndOfFirstHalf",
      "outputs": [
        {
          "internalType": "bool",
          "name": "",
          "type": "bool"
        }
      ],
      "stateMutability": "pure",
      "type": "function",
      "constant": true
    },
    {
      "inputs": [
        {
          "internalType": "uint256",
          "name": "encodedSkills",
          "type": "uint256"
        }
      ],
      "name": "getBirthDay",
      "outputs": [
        {
          "internalType": "uint256",
          "name": "",
          "type": "uint256"
        }
      ],
      "stateMutability": "pure",
      "type": "function",
      "constant": true
    },
    {
      "inputs": [
        {
          "internalType": "uint256",
          "name": "encodedSkills",
          "type": "uint256"
        }
      ],
      "name": "getForwardness",
      "outputs": [
        {
          "internalType": "uint256",
          "name": "",
          "type": "uint256"
        }
      ],
      "stateMutability": "pure",
      "type": "function",
      "constant": true
    },
    {
      "inputs": [
        {
          "internalType": "uint256",
          "name": "encodedSkills",
          "type": "uint256"
        }
      ],
      "name": "getGamesNonStopping",
      "outputs": [
        {
          "internalType": "uint8",
          "name": "",
          "type": "uint8"
        }
      ],
      "stateMutability": "pure",
      "type": "function",
      "constant": true
    },
    {
      "inputs": [
        {
          "internalType": "uint256",
          "name": "encodedSkills",
          "type": "uint256"
        }
      ],
      "name": "getGeneration",
      "outputs": [
        {
          "internalType": "uint256",
          "name": "",
          "type": "uint256"
        }
      ],
      "stateMutability": "pure",
      "type": "function",
      "constant": true
    },
    {
      "inputs": [
        {
          "internalType": "uint256",
          "name": "encodedSkills",
          "type": "uint256"
        }
      ],
      "name": "getInjuryWeeksLeft",
      "outputs": [
        {
          "internalType": "uint8",
          "name": "",
          "type": "uint8"
        }
      ],
      "stateMutability": "pure",
      "type": "function",
      "constant": true
    },
    {
      "inputs": [
        {
          "internalType": "uint256",
          "name": "encodedSkills",
          "type": "uint256"
        }
      ],
      "name": "getInternalPlayerId",
      "outputs": [
        {
          "internalType": "uint256",
          "name": "",
          "type": "uint256"
        }
      ],
      "stateMutability": "pure",
      "type": "function",
      "constant": true
    },
    {
      "inputs": [
        {
          "internalType": "uint256",
          "name": "encodedSkills",
          "type": "uint256"
        }
      ],
      "name": "getIsSpecial",
      "outputs": [
        {
          "internalType": "bool",
          "name": "",
          "type": "bool"
        }
      ],
      "stateMutability": "pure",
      "type": "function",
      "constant": true
    },
    {
      "inputs": [
        {
          "internalType": "uint256",
          "name": "encodedSkills",
          "type": "uint256"
        }
      ],
      "name": "getLeftishness",
      "outputs": [
        {
          "internalType": "uint256",
          "name": "",
          "type": "uint256"
        }
      ],
      "stateMutability": "pure",
      "type": "function",
      "constant": true
    },
    {
      "inputs": [
        {
          "internalType": "uint256",
          "name": "encodedSkills",
          "type": "uint256"
        }
      ],
      "name": "getOutOfGameFirstHalf",
      "outputs": [
        {
          "internalType": "bool",
          "name": "",
          "type": "bool"
        }
      ],
      "stateMutability": "pure",
      "type": "function",
      "constant": true
    },
    {
      "inputs": [
        {
          "internalType": "uint256",
          "name": "encodedSkills",
          "type": "uint256"
        }
      ],
      "name": "getPlayerIdFromSkills",
      "outputs": [
        {
          "internalType": "uint256",
          "name": "",
          "type": "uint256"
        }
      ],
      "stateMutability": "pure",
      "type": "function",
      "constant": true
    },
    {
      "inputs": [
        {
          "internalType": "uint256",
          "name": "encodedSkills",
          "type": "uint256"
        }
      ],
      "name": "getPotential",
      "outputs": [
        {
          "internalType": "uint256",
          "name": "",
          "type": "uint256"
        }
      ],
      "stateMutability": "pure",
      "type": "function",
      "constant": true
    },
    {
      "inputs": [
        {
          "internalType": "uint256",
          "name": "encodedSkills",
          "type": "uint256"
        }
      ],
      "name": "getRedCardLastGame",
      "outputs": [
        {
          "internalType": "bool",
          "name": "",
          "type": "bool"
        }
      ],
      "stateMutability": "pure",
      "type": "function",
      "constant": true
    },
    {
      "inputs": [
        {
          "internalType": "uint256",
          "name": "encodedSkills",
          "type": "uint256"
        },
        {
          "internalType": "uint8",
          "name": "skillIdx",
          "type": "uint8"
        }
      ],
      "name": "getSkill",
      "outputs": [
        {
          "internalType": "uint256",
          "name": "",
          "type": "uint256"
        }
      ],
      "stateMutability": "pure",
      "type": "function",
      "constant": true
    },
    {
      "inputs": [
        {
          "internalType": "uint256",
          "name": "encodedSkills",
          "type": "uint256"
        }
      ],
      "name": "getSubstitutedFirstHalf",
      "outputs": [
        {
          "internalType": "bool",
          "name": "",
          "type": "bool"
        }
      ],
      "stateMutability": "pure",
      "type": "function",
      "constant": true
    },
    {
      "inputs": [
        {
          "internalType": "uint256",
          "name": "encodedSkills",
          "type": "uint256"
        }
      ],
      "name": "getSumOfSkills",
      "outputs": [
        {
          "internalType": "uint256",
          "name": "",
          "type": "uint256"
        }
      ],
      "stateMutability": "pure",
      "type": "function",
      "constant": true
    },
    {
      "inputs": [
        {
          "internalType": "uint256[25]",
          "name": "skills",
          "type": "uint256[25]"
        }
      ],
      "name": "getSumOfTopPlayerSkills",
      "outputs": [
        {
          "internalType": "uint256",
          "name": "teamSkills",
          "type": "uint256"
        }
      ],
      "stateMutability": "pure",
      "type": "function",
      "constant": true
    },
    {
      "inputs": [
        {
          "internalType": "uint256",
          "name": "encodedSkills",
          "type": "uint256"
        }
      ],
      "name": "getYellowCardFirstHalf",
      "outputs": [
        {
          "internalType": "bool",
          "name": "",
          "type": "bool"
        }
      ],
      "stateMutability": "pure",
      "type": "function",
      "constant": true
    },
    {
      "inputs": [
        {
          "internalType": "uint256[8]",
          "name": "arr",
          "type": "uint256[8]"
        },
        {
          "internalType": "uint8[8]",
          "name": "idxs",
          "type": "uint8[8]"
        },
        {
          "internalType": "int256",
          "name": "left",
          "type": "int256"
        },
        {
          "internalType": "int256",
          "name": "right",
          "type": "int256"
        }
      ],
      "name": "quickSort",
      "outputs": [],
      "stateMutability": "pure",
      "type": "function",
      "constant": true
    },
    {
      "inputs": [
        {
          "internalType": "uint256[25]",
          "name": "arr",
          "type": "uint256[25]"
        },
        {
          "internalType": "int256",
          "name": "left",
          "type": "int256"
        },
        {
          "internalType": "int256",
          "name": "right",
          "type": "int256"
        }
      ],
      "name": "quickSort25",
      "outputs": [],
      "stateMutability": "pure",
      "type": "function",
      "constant": true
    },
    {
      "inputs": [
        {
          "internalType": "uint256[25]",
          "name": "data",
          "type": "uint256[25]"
        }
      ],
      "name": "sort25",
      "outputs": [
        {
          "internalType": "uint256[25]",
          "name": "",
          "type": "uint256[25]"
        }
      ],
      "stateMutability": "pure",
      "type": "function",
      "constant": true
    },
    {
      "inputs": [
        {
          "internalType": "uint256[8]",
          "name": "data",
          "type": "uint256[8]"
        },
        {
          "internalType": "uint8[8]",
          "name": "idxs",
          "type": "uint8[8]"
        }
      ],
      "name": "sortIdxs",
      "outputs": [
        {
          "internalType": "uint8[8]",
          "name": "",
          "type": "uint8[8]"
        }
      ],
      "stateMutability": "pure",
      "type": "function",
      "constant": true
    },
    {
      "inputs": [
        {
          "internalType": "uint8",
          "name": "groupIdx",
          "type": "uint8"
        },
        {
          "internalType": "uint8",
          "name": "posInGroup",
          "type": "uint8"
        }
      ],
      "name": "getTeamIdxInCup",
      "outputs": [
        {
          "internalType": "uint8",
          "name": "",
          "type": "uint8"
        }
      ],
      "stateMutability": "pure",
      "type": "function",
      "constant": true
    },
    {
      "inputs": [
        {
          "internalType": "uint8",
          "name": "teamIdxInCup",
          "type": "uint8"
        }
      ],
      "name": "getGroupAndPosInGroup",
      "outputs": [
        {
          "internalType": "uint8",
          "name": "groupIdx",
          "type": "uint8"
        },
        {
          "internalType": "uint8",
          "name": "posInGroup",
          "type": "uint8"
        }
      ],
      "stateMutability": "pure",
      "type": "function",
      "constant": true
    },
    {
      "inputs": [
        {
          "internalType": "uint8",
          "name": "matchIdxInDay",
          "type": "uint8"
        }
      ],
      "name": "getTeamsInCupPlayoffMatch",
      "outputs": [
        {
          "internalType": "uint8",
          "name": "team0",
          "type": "uint8"
        },
        {
          "internalType": "uint8",
          "name": "team1",
          "type": "uint8"
        }
      ],
      "stateMutability": "pure",
      "type": "function",
      "constant": true
    },
    {
      "inputs": [
        {
          "internalType": "uint8",
          "name": "matchIdxInDay",
          "type": "uint8"
        },
        {
          "internalType": "uint8[64]",
          "name": "sortedTeamIdxInCup",
          "type": "uint8[64]"
        }
      ],
      "name": "getTeamsInCupPlayoffMatch",
      "outputs": [
        {
          "internalType": "uint8",
          "name": "team0",
          "type": "uint8"
        },
        {
          "internalType": "uint8",
          "name": "team1",
          "type": "uint8"
        }
      ],
      "stateMutability": "pure",
      "type": "function",
      "constant": true
    },
    {
      "inputs": [
        {
          "internalType": "uint8",
          "name": "groupIdx",
          "type": "uint8"
        },
        {
          "internalType": "uint8",
          "name": "matchday",
          "type": "uint8"
        },
        {
          "internalType": "uint8",
          "name": "matchIdxInDay",
          "type": "uint8"
        }
      ],
      "name": "getTeamsInCupLeagueMatch",
      "outputs": [
        {
          "internalType": "uint8",
          "name": "",
          "type": "uint8"
        },
        {
          "internalType": "uint8",
          "name": "",
          "type": "uint8"
        }
      ],
      "stateMutability": "pure",
      "type": "function",
      "constant": true
    },
    {
      "inputs": [
        {
          "internalType": "uint8",
          "name": "matchday",
          "type": "uint8"
        },
        {
          "internalType": "uint8",
          "name": "matchIdxInDay",
          "type": "uint8"
        }
      ],
      "name": "getTeamsInLeagueMatch",
      "outputs": [
        {
          "internalType": "uint8",
          "name": "homeIdx",
          "type": "uint8"
        },
        {
          "internalType": "uint8",
          "name": "visitorIdx",
          "type": "uint8"
        }
      ],
      "stateMutability": "pure",
      "type": "function",
      "constant": true
    },
    {
      "inputs": [
        {
          "internalType": "uint8",
          "name": "team0",
          "type": "uint8"
        },
        {
          "internalType": "uint8",
          "name": "team1",
          "type": "uint8"
        }
      ],
      "name": "getMatchesForTeams",
      "outputs": [
        {
          "internalType": "uint8",
          "name": "match0",
          "type": "uint8"
        },
        {
          "internalType": "uint8",
          "name": "match1",
          "type": "uint8"
        }
      ],
      "stateMutability": "pure",
      "type": "function",
      "constant": true
    },
    {
      "inputs": [
        {
          "internalType": "uint8",
          "name": "t",
          "type": "uint8"
        }
      ],
      "name": "shiftBack",
      "outputs": [
        {
          "internalType": "uint8",
          "name": "",
          "type": "uint8"
        }
      ],
      "stateMutability": "pure",
      "type": "function",
      "constant": true
    },
    {
      "inputs": [
        {
          "internalType": "uint8",
          "name": "matchday",
          "type": "uint8"
        },
        {
          "internalType": "uint8",
          "name": "matchIdxInDay",
          "type": "uint8"
        }
      ],
      "name": "getTeamsInMatchFirstHalf",
      "outputs": [
        {
          "internalType": "uint8",
          "name": "",
          "type": "uint8"
        },
        {
          "internalType": "uint8",
          "name": "",
          "type": "uint8"
        }
      ],
      "stateMutability": "pure",
      "type": "function",
      "constant": true
    },
    {
      "inputs": [
        {
          "internalType": "uint256[25]",
          "name": "skills",
          "type": "uint256[25]"
        },
        {
          "internalType": "uint8",
          "name": "leagueRanking",
          "type": "uint8"
        },
        {
          "internalType": "uint64",
          "name": "prevPerfPoints",
          "type": "uint64"
        },
        {
          "internalType": "uint256",
          "name": "teamId",
          "type": "uint256"
        },
        {
          "internalType": "bool",
          "name": "isBot",
          "type": "bool"
        }
      ],
      "name": "computeTeamRankingPoints",
      "outputs": [
        {
          "internalType": "uint64",
          "name": "rankingPoints",
          "type": "uint64"
        },
        {
          "internalType": "uint64",
          "name": "",
          "type": "uint64"
        }
      ],
      "stateMutability": "pure",
      "type": "function",
      "constant": true
    },
    {
      "inputs": [
        {
          "internalType": "uint256[25]",
          "name": "skills",
          "type": "uint256[25]"
        },
        {
          "internalType": "uint8",
          "name": "leagueRanking",
          "type": "uint8"
        },
        {
          "internalType": "uint64",
          "name": "prevPerfPoints",
          "type": "uint64"
        }
      ],
      "name": "computeTeamRankingPointsPure",
      "outputs": [
        {
          "internalType": "uint64",
          "name": "",
          "type": "uint64"
        },
        {
          "internalType": "uint64",
          "name": "",
          "type": "uint64"
        }
      ],
      "stateMutability": "pure",
      "type": "function",
      "constant": true
    },
    {
      "inputs": [
        {
          "internalType": "uint8",
          "name": "leagueRanking",
          "type": "uint8"
        }
      ],
      "name": "getPerfPoints",
      "outputs": [
        {
          "internalType": "uint64",
          "name": "",
          "type": "uint64"
        }
      ],
      "stateMutability": "pure",
      "type": "function",
      "constant": true
    },
    {
      "inputs": [
        {
          "internalType": "uint256[8]",
          "name": "teamIds",
          "type": "uint256[8]"
        },
        {
          "internalType": "uint8[2][56]",
          "name": "results",
          "type": "uint8[2][56]"
        },
        {
          "internalType": "uint8",
          "name": "matchDay",
          "type": "uint8"
        }
      ],
      "name": "computeLeagueLeaderBoard",
      "outputs": [
        {
          "internalType": "uint8[8]",
          "name": "ranking",
          "type": "uint8[8]"
        },
        {
          "internalType": "uint256[8]",
          "name": "points",
          "type": "uint256[8]"
        }
      ],
      "stateMutability": "pure",
      "type": "function",
      "constant": true
    },
    {
      "inputs": [
        {
          "internalType": "uint8[8]",
          "name": "ranking",
          "type": "uint8[8]"
        },
        {
          "internalType": "uint256[8]",
          "name": "points",
          "type": "uint256[8]"
        },
        {
          "internalType": "uint256[8]",
          "name": "teamIds",
          "type": "uint256[8]"
        },
        {
          "internalType": "uint8[2][56]",
          "name": "results",
          "type": "uint8[2][56]"
        },
        {
          "internalType": "uint16[8]",
          "name": "goals",
          "type": "uint16[8]"
        },
        {
          "internalType": "uint8",
          "name": "firstTeamInRank",
          "type": "uint8"
        },
        {
          "internalType": "uint8",
          "name": "lastTeamInRank",
          "type": "uint8"
        }
      ],
      "name": "computeSecondaryPoints",
      "outputs": [],
      "stateMutability": "pure",
      "type": "function",
      "constant": true
    },
    {
      "inputs": [
        {
          "internalType": "uint8[2][56]",
          "name": "results",
          "type": "uint8[2][56]"
        },
        {
          "internalType": "uint8",
          "name": "team0",
          "type": "uint8"
        },
        {
          "internalType": "uint8",
          "name": "team1",
          "type": "uint8"
        }
      ],
      "name": "computeDirect",
      "outputs": [
        {
          "internalType": "uint8",
          "name": "bestTeam",
          "type": "uint8"
        }
      ],
      "stateMutability": "pure",
      "type": "function",
      "constant": true
    }
  ],
  "bytecode": "0x608060405234801561001057600080fd5b50611f21806100206000396000f3fe608060405234801561001057600080fd5b506004361061027f5760003560e01c806388438b001161015c578063cc7d473b116100ce578063e68252d611610087578063e68252d614610b83578063e804e51914610bab578063f1aba29c14610bc8578063f2c3576414610c1c578063f2dc657f14610c39578063fdbd45f114610c565761027f565b8063cc7d473b14610a24578063d1b3d8fd14610a41578063d2f7967d14610a5e578063d68f810a14610a7b578063da38b1b614610ad4578063e37528bb14610b665761027f565b8063a8d9729c11610120578063a8d9729c14610906578063ac5db9ee1461092e578063b37e789d14610936578063b5d5cbd2146109aa578063c2bc41cd146109ca578063c9950c3c146109e75761027f565b806388438b00146107805780638a5e654f1461080d5780638adddc9d146108a4578063a4baa204146108ac578063a7f851c0146108de5761027f565b8063434807ad116101f5578063561b1118116101b9578063561b1118146106e457806356e3df97146106ec5780636e46653e146107095780636f6c2ae01461072957806379e76597146107465780637ffa3a2e146107635761027f565b8063434807ad146105635780634684dab5146105805780634743be6c1461060d57806347524b60146106935780634bafb6fc146106c45761027f565b806320748ae81161024757806320748ae81461033e57806320ba0fab1461036a57806329d0dcfb146103c557806331636d53146103eb5780633260840b146105075780633518dd1d146105465761027f565b806302d0bb2614610284578063071122be146102cc5780630c85696c146102ea5780631060c9c2146102f25780631fc7768f14610321575b600080fd5b6102ac6004803603604081101561029a57600080fd5b5060ff81358116916020013516610d9c565b6040805160ff938416815291909216602082015281519081900390910190f35b6102d4610e20565b6040805160ff9092168252519081900360200190f35b6102d4610e25565b61030f6004803603602081101561030857600080fd5b5035610e2a565b60408051918252519081900360200190f35b61030f6004803603602081101561033757600080fd5b5035610e3a565b61030f6004803603606081101561035457600080fd5b5060ff8135169060208101359060400135610e43565b6103c3600480360361036081101561038157600080fd5b81019080806103200190601980602002604051908101604052809291908260196020028082843760009201919091525091945050813592505060200135610f61565b005b61030f600480360360408110156103db57600080fd5b508035906020013560ff1661106e565b6104a26004803603610f2081101561040257600080fd5b810190808061010001906008806020026040519081016040528092919082600860200280828437600092018290525060408051610700810190915293969594610e0081019493509150603890835b8282101561048e5760408051808201825290808402860190600290839083908082843760009201919091525050508152600190910190602001610450565b509295505050903560ff1691506110849050565b604051808361010080838360005b838110156104c85781810151838201526020016104b0565b5050505090500182600860200280838360005b838110156104f35781810151838201526020016104db565b505050509050019250505060405180910390f35b6105246004803603602081101561051d57600080fd5b503561144e565b6040805160ff9094168452602084019290925282820152519081900360600190f35b61030f6004803603602081101561055c57600080fd5b503561146a565b61030f6004803603602081101561057957600080fd5b5035611473565b6105e6600480360361036081101561059757600080fd5b8101908080610320019060198060200260405190810160405280929190826019602002808284376000920191909152509194505050803560ff1691506020013567ffffffffffffffff1661147c565b6040805167ffffffffffffffff938416815291909216602082015281519081900390910190f35b6103c3600480360361024081101561062457600080fd5b810190808061010001906008806020026040519081016040528092919082600860200280828437600092019190915250506040805161010081810190925292959493818101939250906008908390839080828437600092019190915250919450508135925050602001356114c2565b6106b0600480360360208110156106a957600080fd5b5035611624565b604080519115158252519081900360200190f35b6102d4600480360360208110156106da57600080fd5b503560ff16611630565b6102d4611650565b61030f6004803603602081101561070257600080fd5b5035611655565b6102ac6004803603602081101561071f57600080fd5b503560ff1661165e565b61030f6004803603602081101561073f57600080fd5b5035611741565b6102d46004803603602081101561075c57600080fd5b5035611762565b6106b06004803603602081101561077957600080fd5b503561176b565b6107d4600480360361032081101561079757600080fd5b8101908080610320019060198060200260405190810160405280929190826019602002808284376000920191909152509194506117779350505050565b604051808261032080838360005b838110156107fa5781810151838201526020016107e2565b5050505090500191505060405180910390f35b61088e600480360361020081101561082457600080fd5b81019080806101000190600880602002604051908101604052809291908260086020028082843760009201919091525050604080516101008181019092529295949381810193925090600890839083908082843760009201919091525091945061178c9350505050565b60405181518152808261010080838360206107e2565b6102d46117a8565b6102ac600480360360608110156108c257600080fd5b5060ff81358116916020810135821691604090910135166117ad565b6102ac600480360360408110156108f457600080fd5b5060ff8135811691602001351661182d565b6102d46004803603604081101561091c57600080fd5b5060ff813581169160200135166118fa565b6102d461192f565b6105e660048036036103a081101561094d57600080fd5b8101908080610320019060198060200260405190810160405280929190826019602002808284376000920191909152509194505060ff82351692505067ffffffffffffffff60208201351690604081013590606001351515611934565b6102ac600480360360208110156109c057600080fd5b503560ff16611994565b61030f600480360360208110156109e057600080fd5b50356119d9565b610a07600480360360208110156109fd57600080fd5b503560ff166119e2565b6040805167ffffffffffffffff9092168252519081900360200190f35b6106b060048036036020811015610a3a57600080fd5b5035611a74565b6106b060048036036020811015610a5757600080fd5b5035611a80565b61030f60048036036020811015610a7457600080fd5b5035611a8c565b6102ac6004803603610820811015610a9257600080fd5b60408051610800818101835260ff853516949384019392610820840192916020850191908390839080828437600092019190915250919450611a9a9350505050565b6102d46004803603610e40811015610aeb57600080fd5b6040805161070081019091529082019190610e008201908260386000835b82821015610b475760408051808201825290808402860190600290839083908082843760009201919091525050508152600190910190602001610b09565b509295505060ff8335811694506020909301359092169150611ade9050565b6106b060048036036020811015610b7c57600080fd5b5035611bee565b6102ac60048036036040811015610b9957600080fd5b5060ff81358116916020013516611bfa565b6102d460048036036020811015610bc157600080fd5b5035611c45565b61030f6004803603610320811015610bdf57600080fd5b810190808061032001906019806020026040519081016040528092919082601960200280828437600092019190915250919450611c4e9350505050565b6106b060048036036020811015610c3257600080fd5b5035611ceb565b61030f60048036036020811015610c4f57600080fd5b5035611cf7565b6103c36004803603611240811015610c6d57600080fd5b810190808061010001906008806020026040519081016040528092919082600860200280828437600092019190915250506040805161010081810190925292959493818101939250906008908390839080828437600092019190915250506040805161010081810190925292959493818101939250906008908390839080828437600092018290525060408051610700810190915293969594610e0081019493509150603890835b82821015610d535760408051808201825290808402860190600290839083908082843760009201919091525050508152600190910190602001610d15565b50506040805161010081810190925293969594818101949350915060089083908390808284376000920191909152509194505050803560ff908116925060209091013516611d01565b6000808080805b603860ff82161015610e1657610dc3600460ff83165b046003831661182d565b909350915060ff808416908816148015610de257508560ff168260ff16145b15610deb578094505b8560ff168360ff16148015610e0557508660ff168260ff16145b15610e0e578093505b600101610da3565b5050509250929050565b603881565b600481565b6207ffff60b582901c165b919050565b607e1c60071690565b600060208460ff1610610e95576040805162461bcd60e51b81526020600482015260156024820152741d1a5b595e9bdb99481bdd5d081bd988189bdd5b99605a1b604482015290519081900360640190fd5b6104008310610eeb576040805162461bcd60e51b815260206004820152601b60248201527f636f756e747279496478496e545a206f7574206f6620626f756e640000000000604482015290519081900360640190fd5b63100000008210610f43576040805162461bcd60e51b815260206004820152601a60248201527f76616c20746f20656e636f6465206f7574206f6620626f756e64000000000000604482015290519081900360640190fd5b50601c82901b653fc000000000602685901b161781175b9392505050565b818180821415610f72575050611069565b600085600286860305860160198110610f8757fe5b602002015190505b81831361103f575b80868460198110610fa457fe5b60200201511115610fba57600190920191610f97565b858260198110610fc657fe5b6020020151811115610fde5760001990910190610fba565b81831361103a57858260198110610ff157fe5b602002015186846019811061100257fe5b602002015187856019811061101357fe5b6020020188856019811061102357fe5b602002019190915252600190920191600019909101905b610f8f565b8185121561105257611052868684610f61565b8383121561106557611065868486610f61565b5050505b505050565b620fffff601460ff83160283901c165b92915050565b61108c611e54565b611094611e54565b600e60ff8416106110dd576040805162461bcd60e51b815260206004820152600e60248201526d77726f6e67206d6174636844617960901b604482015290519081900360640190fd5b600460018401025b603860ff8216101561116e57848160ff166038811061110057fe5b60200201515160ff1615801561112b5750848160ff166038811061112057fe5b60200201515160ff16155b6111665760405162461bcd60e51b815260040180806020018281038252602d815260200180611e93602d913960400191505060405180910390fd5b6001016110e5565b5060008061117a611e54565b60005b8660010160040260ff168160ff1610156113295761119f600460ff8316610db9565b90945092508760ff8216603881106111b357fe5b60200201515160ff9081169083908616600881106111cd57fe5b6020020180519190910161ffff1690528760ff8216603881106111ec57fe5b60200201516001602002015160ff16828460ff166008811061120a57fe5b6020020180519190910161ffff1690528760ff82166038811061122957fe5b60200201516001602002015160ff16888260ff166038811061124757fe5b60200201515160ff1614156112a55769021e19e0c9bab24000008560ff86166008811061127057fe5b602002018051909101905269021e19e0c9bab24000008560ff85166008811061129557fe5b6020020180519091019052611321565b878160ff16603881106112b457fe5b60200201516001602002015160ff16888260ff16603881106112d257fe5b60200201515160ff1611156112fb5769065a4da25d3016c000008560ff86166008811061129557fe5b69065a4da25d3016c000008560ff85166008811061131557fe5b60200201805190910190525b60010161117d565b5060005b600860ff8216101561135e5780868260ff166008811061134957fe5b60ff909216602092909202015260010161132d565b50611369848661178c565b506000805b600760ff8216101561141657858160ff166008811061138957fe5b6020020151868260010160ff16600881106113a057fe5b6020020151141580156113b857508060ff168260ff16145b156113c85780600101915061140e565b858160ff16600881106113d757fe5b6020020151868260010160ff16600881106113ee57fe5b60200201511461140e5761140787878c8c878787611d01565b8060010191505b60010161136e565b5060c085015160e086015114156114375761143786868b8b86866007611d01565b611441858761178c565b5050505050935093915050565b602681901c601f1691601c82901c6103ff1691630fffffff1690565b607b1c60071690565b60741c600f1690565b600080600061148a856119e2565b600a81029450905060006103e885016114a288611c4e565b02905080600a67ffffffffffffffff871604935093505050935093915050565b8181808214156114d357505061161e565b6000866002868603058601600881106114e857fe5b602002015190505b8183136115f2575b8087846008811061150557fe5b6020020151111561151b576001909201916114f8565b86826008811061152757fe5b602002015181111561153f576000199091019061151b565b8183136115ed5786826008811061155257fe5b602002015187846008811061156357fe5b602002015188856008811061157457fe5b6020020189856008811061158457fe5b60200201919091525285826008811061159957fe5b60200201518684600881106115aa57fe5b60200201518785600881106115bb57fe5b602002018885600881106115cb57fe5b60ff938416602091909102919091015291169052600190920191600019909101905b6114f0565b8185121561160657611606878787856114c2565b8383121561161a5761161a878785876114c2565b5050505b50505050565b60cc1c60019081161490565b6000600860ff83161015611645575080610e35565b506006198101610e35565b600e81565b60cd1c60ff1690565b60008060208360ff16106116a35760405162461bcd60e51b815260040180806020018281038252602c815260200180611ec0602c913960400191505060405180910390fd5b600183166116ef576010600260ff85160460ff16816116be57fe5b066004029150601060028460ff16816116d357fe5b0460010160ff16816116e157fe5b06600402600301905061173c565b6010600260ff6000198601160460020160ff168161170957fe5b066004026001019150601060026001850360ff168161172457fe5b0460030160ff168161173257fe5b0660040260020190505b915091565b600061174c82611624565b61175e5761175982611a8c565b61107e565b5090565b60b11c60071690565b60d61c60019081161490565b61177f611e73565b61175e8260006018610f61565b611794611e54565b6117a28383600060076114c2565b50919050565b601981565b600080600760ff8516106117fa576040805162461bcd60e51b815260206004820152600f60248201526e77726f6e67206d617463682064617960881b604482015290519081900360640190fd5b600080611807868661182d565b9150915061181587836118fa565b61181f88836118fa565b935093505050935093915050565b600080600e60ff85161061187a576040805162461bcd60e51b815260206004820152600f60248201526e77726f6e67206d617463682064617960881b604482015290519081900360640190fd5b600460ff8416106118c0576040805162461bcd60e51b815260206004820152600b60248201526a0eee4dedcce40dac2e8c6d60ab1b604482015290519081900360640190fd5b600760ff851610156118e0576118d68484611bfa565b90925090506118f3565b6118ee600619850184611bfa565b925090505b9250929050565b600060018316611916575060088102600260ff8416040161107e565b506040600882026002600019850160ff1604010161107e565b600881565b60008061194287878761147c565b9550915060006119518561144e565b92505050831561196c57630fffffff0391506000905061198a565b80630fffffff03601c8467ffffffffffffffff16901b018692509250505b9550959350505050565b60008060408360ff1610156119b857505060026007821602600860ff83160461173c565b600860ff603f19850116049050600860ff8416066002026001019150915091565b60781c60071690565b600060ff82166119f457506064610e35565b8160ff1660011415611a0857506041610e35565b8160ff1660021415611a1c57506023610e35565b8160ff1660031415611a305750601e610e35565b8160ff1660041415611a4457506019610e35565b8160ff1660051415611a5857506014610e35565b8160ff1660061415611a6c5750600f610e35565b506000610e35565b60ad1c60019081161490565b60d51c60019081161490565b60811c6507ffffffffff1690565b600080611aa68461165e565b90925090508260ff831660408110611aba57fe5b6020020151838260ff1660408110611ace57fe5b6020020151915091509250929050565b6000806000611aed8585610d9c565b91509150858160ff1660388110611b0057fe5b6020020151518660ff841660388110611b1557fe5b6020020151600160200201510160ff16868260ff1660388110611b3457fe5b602002015160016020020151878460ff1660388110611b4f57fe5b6020020151510160ff161115611b6a57600092505050610f5a565b858160ff1660388110611b7957fe5b6020020151518660ff841660388110611b8e57fe5b6020020151600160200201510160ff16868260ff1660388110611bad57fe5b602002015160016020020151878460ff1660388110611bc857fe5b6020020151510160ff161015611be357600192505050610f5a565b600292505050610f5a565b60b41c60019081161490565b6000808060ff841615611c1857611c15858560080301611630565b90505b6000611c28868660010101611630565b905060018616611c3c5790925090506118f3565b925090506118f3565b60ae1c60071690565b6000805b60198160ff161015611cb057828160ff1660198110611c6d57fe5b602002015115611ca857611c93838260ff1660198110611c8957fe5b6020020151610e2a565b838260ff1660198110611ca257fe5b60200201525b600101611c52565b50611cba82611777565b5060005b60128160ff1610156117a257828160ff1660198110611cd957fe5b60200201519190910190600101611cbe565b60ac1c60019081161490565b60641c61ffff1690565b815b8160ff168160ff1611611e4a5785888260ff1660088110611d2057fe5b602002015160ff1660088110611d3257fe5b60200201516509184e72a000036509184e72a0006103e8868b8560ff1660088110611d5957fe5b602002015160ff1660088110611d6b57fe5b602002015161ffff16020201878260ff1660088110611d8657fe5b6020020180519091019052600181015b8260ff168160ff1611611e41576000611dd6878b8560ff1660088110611db857fe5b60200201518c8560ff1660088110611dcc57fe5b6020020151611ade565b905060ff8116611e0857678ac7230489e800008960ff851660088110611df857fe5b6020020180519091019052611e38565b8060ff1660011415611e3857678ac7230489e800008960ff841660088110611e2c57fe5b60200201805190910190525b50600101611d96565b50600101611d03565b5050505050505050565b6040518061010001604052806008906020820280368337509192915050565b604051806103200160405280601990602082028036833750919291505056fe726573756c7473206265796f6e642063757272656e74206d617463684461792073686f756c6420626520302d30746865726520617265206f6e6c79203332206d61746863686573206f6e206461792039206f66206120637570a26469706673582212209938ec059e4f0c30d5bc4b3a5c5640f5e5bd3830efd7a5eb5f3011e1d67c370f64736f6c63430006030033",
  "source": "pragma solidity >= 0.6.3;\n\nimport \"../storage/Assets.sol\";\nimport \"./SortIdxs.sol\";\nimport \"../gameEngine/GetSumSkills.sol\";\nimport \"../encoders/EncodingIDs.sol\";\n\n/**\n @title Scheduling of leagues, and calls to Engine to resolve games.\n @author Freeverse.io, www.freeverse.io\n @dev All functions are basically pure, but some had to be made view\n @dev because they use a storage pointer to the Assets contracts.\n*/\n\ncontract Leagues is SortIdxs, EncodingIDs, GetSumSkills {\n    uint8 constant public PLAYERS_PER_TEAM_MAX = 25;\n    uint8 constant public TEAMS_PER_LEAGUE = 8;\n    uint8 constant public MATCHDAYS = 14;\n    uint8 constant public MATCHES_PER_DAY = 4;\n    uint8 constant public MATCHES_PER_LEAGUE = 56; /// = 4 * 14 = 7*8\n    uint64 constant private INERTIA = 0;\n    uint64 constant private WEIGHT_SKILLS = 100;\n    uint64 constant private SKILLS_AT_START = 90000; /// 18 players per team at start with 5 skills of 50 on avg\n    uint64 constant private MAX_TEAMIDX_IN_COUNTRY = 268435455; /// 268435455 = 2**28 - 1 \n    uint256 constant private TEN_TO_13 = 1e13; // a power of 10 larger than MAX_TEAMID = 2**43\n    uint256 constant private TEN_TO_9 = 1e9; \n    uint256 constant private TEN_TO_6 = 1e6; \n    uint256 constant private TEN_TO_3 = 1e3; \n\n    /// groupIdx = 0,...,15\n    /// posInGroup = 0, ...7\n    /// teamIdx  = 0,...,128\n    function getTeamIdxInCup(uint8 groupIdx, uint8 posInGroup) public pure returns(uint8) {\n        if (groupIdx % 2 == 0) {\n                return 8 * posInGroup + groupIdx / 2;\n        } else {\n                return 8 * posInGroup + (groupIdx - 1) / 2 + 64;\n        }\n    }\n\n    function getGroupAndPosInGroup(uint8 teamIdxInCup) public pure returns(uint8 groupIdx, uint8 posInGroup) {\n        if (teamIdxInCup < 64) {\n            posInGroup = teamIdxInCup / 8;\n            groupIdx = 2 * (teamIdxInCup % 8);\n        } else {\n            posInGroup = (teamIdxInCup-64) / 8;\n            groupIdx = 1 + 2 * (teamIdxInCup % 8);\n        }\n    }\n\n    /// sortedTeamIdxInCup contains 64 teams, made up from the top 4 in each of the 16 leagues.\n    /// they are flattened by groupIdx, and then by final classifications in that group.\n    /// [groupIdx0_1st, ..., groupIdx0_4th; groupIdx1_1st, ...,]\n    /// so the index of the array is  groupIdx * 4 + classInGroup\n    ///      M(2m) \t= L(m mod M, 0) vs L(m+1 mod M, 3), \tm = 0,..., M-1,  M = 16\n    ///      M(2m+1) = L(m+2 mod M, 1) vs L(m+3 mod M, 2),\tm = 0,..., M-1,  M = 16\n    /// returns indices in sortedTeamIdxInCup\n    function getTeamsInCupPlayoffMatch(uint8 matchIdxInDay) public pure returns (uint8 team0, uint8 team1) {\n        require(matchIdxInDay < 32, \"there are only 32 mathches on day 9 of a cup\");\n        if (matchIdxInDay % 2 == 0) {\n            team0 = (matchIdxInDay/2 % 16) * 4;\n            team1 = ((matchIdxInDay/2 + 1) % 16) * 4 + 3;\n        } else {\n            team0 = (((matchIdxInDay-1)/2 + 2) % 16) * 4 + 1;\n            team1 = (((matchIdxInDay-1)/2 + 3) % 16) * 4 + 2;\n        }\n    }\n    \n    /// same as above, but returns teamIdxInCup as correctly provided by sortedTeamIdxInCup\n    function getTeamsInCupPlayoffMatch(uint8 matchIdxInDay, uint8[64] memory sortedTeamIdxInCup) public pure returns (uint8 team0, uint8 team1) {\n        (team0, team1) = getTeamsInCupPlayoffMatch(matchIdxInDay);\n        return (sortedTeamIdxInCup[team0], sortedTeamIdxInCup[team1]);\n    }\n\n    function getTeamsInCupLeagueMatch(uint8 groupIdx, uint8 matchday, uint8 matchIdxInDay) public pure returns (uint8, uint8) \n    {\n        require(matchday < MATCHDAYS/2, \"wrong match day\");\n        (uint8 homeIdx, uint8 visitorIdx) = getTeamsInLeagueMatch(matchday, matchIdxInDay);\n        return (getTeamIdxInCup(groupIdx, homeIdx), getTeamIdxInCup(groupIdx, visitorIdx)); \n    }\n    \n    function getTeamsInLeagueMatch(uint8 matchday, uint8 matchIdxInDay) public pure returns (uint8 homeIdx, uint8 visitorIdx) \n    {\n        require(matchday < MATCHDAYS, \"wrong match day\");\n        require(matchIdxInDay < MATCHES_PER_DAY, \"wrong match\");\n        if (matchday < (TEAMS_PER_LEAGUE - 1))\n            (homeIdx, visitorIdx) = getTeamsInMatchFirstHalf(matchday, matchIdxInDay);\n        else\n            (visitorIdx, homeIdx) = getTeamsInMatchFirstHalf(matchday - (TEAMS_PER_LEAGUE - 1), matchIdxInDay);\n    }\n\n    /// TODO: do this by exact formula instead of brute force search\n    function getMatchesForTeams(uint8 team0, uint8 team1) public pure returns (uint8 match0, uint8 match1) \n    {\n        uint8 home;\n        uint8 vist;\n        for (uint8 m = 0; m < MATCHES_PER_LEAGUE; m++) {\n            (home, vist) = getTeamsInLeagueMatch(m / 4, m % 4);\n            if ((home == team0) && (vist == team1)) match0 = m;\n            if ((home == team1) && (vist == team0)) match1 = m;\n        }\n    }\n\n\n    function shiftBack(uint8 t) public pure returns (uint8)\n    {\n        if (t < TEAMS_PER_LEAGUE)\n            return t;\n        else\n            return t-(TEAMS_PER_LEAGUE-1);\n    }\n\n    function getTeamsInMatchFirstHalf(uint8 matchday, uint8 matchIdxInDay) public pure returns (uint8, uint8) \n    {\n        uint8 team1 = 0;\n        if (matchIdxInDay > 0)\n            team1 = shiftBack(TEAMS_PER_LEAGUE-matchIdxInDay+matchday);\n\n        uint8 team2 = shiftBack(matchIdxInDay+1+matchday);\n        if ( (matchday % 2) == 0)\n            return (team1, team2);\n        else\n            return (team2, team1);\n    }\n\n    // returns (rankingPoints, prevPerfPoints)\n    function computeTeamRankingPoints(\n        uint256[PLAYERS_PER_TEAM_MAX] memory skills,\n        uint8 leagueRanking,\n        uint64 prevPerfPoints,\n        uint256 teamId,\n        bool isBot\n    ) \n        public\n        pure\n        returns (uint64 rankingPoints, uint64)\n    {\n        (rankingPoints, prevPerfPoints) = computeTeamRankingPointsPure(skills, leagueRanking, prevPerfPoints);\n        ( , , uint256 teamIdxInCountry) = decodeTZCountryAndVal(teamId);\n        if (isBot) {\n            return (MAX_TEAMIDX_IN_COUNTRY - uint64(teamIdxInCountry), uint64(0));\n        }\n        return ((rankingPoints << 28) + (MAX_TEAMIDX_IN_COUNTRY - uint64(teamIdxInCountry)), prevPerfPoints);\n    }\n\n    function computeTeamRankingPointsPure(\n        uint256[PLAYERS_PER_TEAM_MAX] memory skills,\n        uint8 leagueRanking,\n        uint64 prevPerfPoints\n    ) \n        public\n        pure\n        returns (uint64, uint64)\n    {\n        /// Nomenclature:    R = rankingPoints, W = Weight_Skills, SK = TeamSkills, SK0 = TeamSkillsAtStart, I = \n        ///                  I = Inertia, I0 = inertia Max, P0 = prevPerfPoints, P1 = currenteLeaguePerfPoints\n        /// \n        /// P = [0, 20]\n        /// I = [0, I0], with I0 = 10\n        /// P = (I/I0 P0 + (1-I/I0) P1) = (I P0 + (I0-I) P1)/I0\n        /// If we want P = 20 to be equivalent to, say, 50% increase in skills, we need to choose W = 40. To avoid dividing: \n\n        /// R = (W + P) SK/SK0 = (W +  (I P0 + (I0-I) P1)/I0 ) SK/SK0\n        /// R SK0 I0 = SK (W I0 + I P0 + (I0 - I) P1)\n        /// we return R SK0 I0\n        uint64 perfPointsThisLeague = getPerfPoints(leagueRanking);\n        // compute 10 * prevPerfPoints, and divide later\n        prevPerfPoints = (INERTIA * prevPerfPoints + (10 - INERTIA) * perfPointsThisLeague);\n        uint64 result = uint64(getSumOfTopPlayerSkills(skills)) * ( WEIGHT_SKILLS * 10 + prevPerfPoints );\n        return (result, prevPerfPoints/10);\n    }\n\n    function getPerfPoints(uint8 leagueRanking) public pure returns (uint64) {\n        if (leagueRanking == 0) return 100;\n        else if (leagueRanking == 1) return 65;\n        else if (leagueRanking == 2) return 35;\n        else if (leagueRanking == 3) return 30;\n        else if (leagueRanking == 4) return 25;\n        else if (leagueRanking == 5) return 20;\n        else if (leagueRanking == 6) return 15;\n        else return 0;\n    }\n\n    /// the teams in each league are ordered, team = 0, 1, ... 7, according to the orgMap (which provides teamIdxInLeague)\n    /// this function returns (ranking[8], points[8]), correspoding to the END of matchDay.\n    /// - ranking: 8 numbers, each between [0, 7]\n    ///     - example: [3,1,0,6,...] => the best team so far is team = 3, the 2nd best is team = 1...\n    /// - points: 8 numbers corresponding to the points of each team in the league so far, serialized. \n    ///         : if backend wants to get the real points in the league, just divide each entry by 1e13: points[t] = floor(points[t]/1e13)\n    /// so if we receive matchDay = 0, it returns (ranking, points) after playing the 1st game.\n    /// so if at the end of the league, this function should be called with matchDay = 13.\n    ///\n    /// input: results[2][56], where 56 = MATHCHES_PER_LEAGUE, to be interpreted as:\n    /// - first idx is homeTeam/visitorTeam\n    /// - second idx = matchDay * 4 + matchIdxInDay = 0,...55\n    ///             : matchDay = 0,...13\n    ///             : matchIdxInDay = 0,...,3\n    /// - example, if matchDay = 1: =>  results = [ [2,4], [0,0], [1,2], [4,1], [0,0], [0,0]... ... [0,0] ] => ranking at matchDay = 1 (only 4 non-null entries)\n    /// - example, if matchDay = 2: =>  results = [ [2,4], [0,0], [1,2], [4,1], [1,2], ... [0,0]... [0,0] ] => ranking at matchDay = 2 (only 8 non-null entries)\n    /// - example, if matchDay = 13: => results = [ [2,4], [0,0], [1,2], [4,1], [1,2], ... [3,0]... [1,1] ] => ranking at matchDay = 13 (all entries are full)\n    ///\n    /// internally, the serialization of \"points\" is done to remove tied teams:\n    /// - the lowest last 1e60 part is a tie-breaker random number determined on matchSeed and teamId\n    /// - the next larger few-thousands is the tie-breaker number determined from total goals of a team\n    /// - the next larger few-milions is the tie-breaker number determined from face-to-face results against other tied-with teams\n    /// - the next larger 1e9 is the points in the league\n    function computeLeagueLeaderBoard(\n        uint256[TEAMS_PER_LEAGUE] memory teamIds,\n        uint8[2][MATCHES_PER_LEAGUE] memory results, \n        uint8 matchDay\n    ) \n        public \n        pure \n        returns \n    (\n        uint8[TEAMS_PER_LEAGUE] memory ranking, \n        uint256[TEAMS_PER_LEAGUE] memory points\n    ) \n    {\n        require(matchDay < MATCHDAYS, \"wrong matchDay\");\n        for (uint8 m = (matchDay + 1) * 4; m < MATCHES_PER_LEAGUE; m++) {\n            require (results[m][0] == 0 && results[m][0] == 0, \"results beyond current matchDay should be 0-0\");\n        }\n        uint8 team0;\n        uint8 team1;\n        uint16[TEAMS_PER_LEAGUE] memory goals;\n        for(uint8 m = 0; m < (matchDay + 1) * 4; m++) {\n            (team0, team1) = getTeamsInLeagueMatch(m / 4, m % 4); \n            goals[team0] += results[m][0];\n            goals[team1] += results[m][1];\n            if (results[m][0] == results[m][1]) {\n                points[team0] += TEN_TO_9 * TEN_TO_13;\n                points[team1] += TEN_TO_9 * TEN_TO_13;\n            } else if (results[m][0] > results[m][1]) {\n                points[team0] += 3 * TEN_TO_9 * TEN_TO_13;\n            } else {\n                points[team1] += 3 * TEN_TO_9 * TEN_TO_13;\n            }\n        }\n        /// note that both points and ranking are returned ordered: (but goals and goalsAverage remain with old idxs)\n        for (uint8 i = 0; i < TEAMS_PER_LEAGUE; i++) ranking[i] = i;\n        sortIdxs(points, ranking);\n        uint8 lastNonTied;\n        for (uint8 r = 0; r < TEAMS_PER_LEAGUE-1; r++) {\n            if (points[r+1] != points[r] && lastNonTied == r) lastNonTied = r+1;\n            else if (points[r+1] != points[r]) {\n                computeSecondaryPoints(ranking, points, teamIds, results, goals, lastNonTied, r);\n                lastNonTied = r+1;\n            }\n        }\n        if (points[TEAMS_PER_LEAGUE-1] == points[TEAMS_PER_LEAGUE-2]) {\n            computeSecondaryPoints(ranking, points, teamIds, results, goals, lastNonTied, TEAMS_PER_LEAGUE-1);\n        }\n        sortIdxs(points, ranking);\n    }\n    \n    /// Points = nPoints in league * 1e9 + bestDirects * 1e6 + nGoalsInLeague * 1e3 + random % 999\n    function computeSecondaryPoints(\n        uint8[TEAMS_PER_LEAGUE] memory ranking,\n        uint256[TEAMS_PER_LEAGUE] memory points,\n        uint256[TEAMS_PER_LEAGUE] memory teamIds,\n        uint8[2][MATCHES_PER_LEAGUE] memory results,\n        uint16[TEAMS_PER_LEAGUE]memory goals,\n        uint8 firstTeamInRank,\n        uint8 lastTeamInRank\n    ) \n        public \n        pure \n    {\n        for (uint8 team0 = firstTeamInRank; team0 <= lastTeamInRank; team0++) {\n            points[team0] += uint256(goals[ranking[team0]]) * TEN_TO_3 * TEN_TO_13 + (TEN_TO_13 - teamIds[ranking[team0]]);\n            for (uint8 team1 = team0 + 1; team1 <= lastTeamInRank; team1++) {\n                uint8 bestTeam = computeDirect(results, ranking[team0], ranking[team1]);\n                if (bestTeam == 0) points[team0] += TEN_TO_6 * TEN_TO_13;\n                else if (bestTeam == 1) points[team1] += TEN_TO_6 * TEN_TO_13;\n            }        \n        }\n    }\n\n    function computeDirect(uint8[2][MATCHES_PER_LEAGUE] memory results, uint8 team0, uint8 team1) public pure returns(uint8 bestTeam) {\n        (uint8 match0, uint8 match1) = getMatchesForTeams(team0, team1);\n        if (results[match0][0] + results[match1][1] > results[match0][1] + results[match1][0]) return 0;\n        else if (results[match0][0] + results[match1][1] < results[match0][1] + results[match1][0]) return 1;\n        else return 2;\n    }\n}\n",
  "sourcePath": "/Users/jurgenkudla/proyects/laos/laos-goal-revolution/goalrev-ganache/contracts/gameEngine/Leagues.sol",
  "compiler": {
    "name": "solc",
    "version": "0.6.3+commit.8dda9521.Emscripten.clang"
  },
  "schemaVersion": "3.0.23",
  "updatedAt": "2024-10-18T06:45:39.930Z",
  "networkType": "ethereum",
  "devdoc": {
    "author": "Freeverse.io, www.freeverse.io",
    "details": "All functions are basically pure, but some had to be made viewbecause they use a storage pointer to the Assets contracts.",
    "methods": {
      "encodeTZCountryAndVal(uint8,uint256,uint256)": {
        "details": "PlayerId and TeamId both serialize a total of 43 bits:     timeZone        = 5 bits     countryIdxInTZ  = 10 bits     val             = 28 bits (either  (playerIdxInCountry or teamIdxInCountry)*"
      }
    },
    "title": "Scheduling of leagues, and calls to Engine to resolve games."
  },
  "userdoc": {
    "methods": {
      "computeLeagueLeaderBoard(uint256[8],uint8[2][56],uint8)": {
        "notice": "the teams in each league are ordered, team = 0, 1, ... 7, according to the orgMap (which provides teamIdxInLeague) this function returns (ranking[8], points[8]), correspoding to the END of matchDay. - ranking: 8 numbers, each between [0, 7]     - example: [3,1,0,6,...] => the best team so far is team = 3, the 2nd best is team = 1... - points: 8 numbers corresponding to the points of each team in the league so far, serialized.          : if backend wants to get the real points in the league, just divide each entry by 1e13: points[t] = floor(points[t]/1e13) so if we receive matchDay = 0, it returns (ranking, points) after playing the 1st game. so if at the end of the league, this function should be called with matchDay = 13.     /// input: results[2][56], where 56 = MATHCHES_PER_LEAGUE, to be interpreted as: - first idx is homeTeam/visitorTeam - second idx = matchDay * 4 + matchIdxInDay = 0,...55             : matchDay = 0,...13             : matchIdxInDay = 0,...,3 - example, if matchDay = 1: =>  results = [ [2,4], [0,0], [1,2], [4,1], [0,0], [0,0]... ... [0,0] ] => ranking at matchDay = 1 (only 4 non-null entries) - example, if matchDay = 2: =>  results = [ [2,4], [0,0], [1,2], [4,1], [1,2], ... [0,0]... [0,0] ] => ranking at matchDay = 2 (only 8 non-null entries) - example, if matchDay = 13: => results = [ [2,4], [0,0], [1,2], [4,1], [1,2], ... [3,0]... [1,1] ] => ranking at matchDay = 13 (all entries are full)     /// internally, the serialization of \"points\" is done to remove tied teams: - the lowest last 1e60 part is a tie-breaker random number determined on matchSeed and teamId - the next larger few-thousands is the tie-breaker number determined from total goals of a team - the next larger few-milions is the tie-breaker number determined from face-to-face results against other tied-with teams - the next larger 1e9 is the points in the league"
      },
      "computeSecondaryPoints(uint8[8],uint256[8],uint256[8],uint8[2][56],uint16[8],uint8,uint8)": {
        "notice": "Points = nPoints in league * 1e9 + bestDirects * 1e6 + nGoalsInLeague * 1e3 + random % 999"
      },
      "getMatchesForTeams(uint8,uint8)": {
        "notice": "TODO: do this by exact formula instead of brute force search"
      },
      "getSumOfTopPlayerSkills(uint256[25])": {
        "notice": "warning: getSumOfTopPlayerSkills rewrites the skills array this function returns the sum of the skills of the top 18 players in the team"
      },
      "getTeamIdxInCup(uint8,uint8)": {
        "notice": "groupIdx = 0,...,15 posInGroup = 0, ...7 teamIdx  = 0,...,128"
      },
      "getTeamsInCupPlayoffMatch(uint8)": {
        "notice": "sortedTeamIdxInCup contains 64 teams, made up from the top 4 in each of the 16 leagues. they are flattened by groupIdx, and then by final classifications in that group. [groupIdx0_1st, ..., groupIdx0_4th; groupIdx1_1st, ...,] so the index of the array is  groupIdx * 4 + classInGroup      M(2m) \t= L(m mod M, 0) vs L(m+1 mod M, 3), \tm = 0,..., M-1,  M = 16      M(2m+1) = L(m+2 mod M, 1) vs L(m+3 mod M, 2),\tm = 0,..., M-1,  M = 16 returns indices in sortedTeamIdxInCup"
      },
      "getTeamsInCupPlayoffMatch(uint8,uint8[64])": {
        "notice": "same as above, but returns teamIdxInCup as correctly provided by sortedTeamIdxInCup"
      }
    }
  }
}