{
  "contractName": "MarketCrypto",
  "abi": [
    {
      "inputs": [
        {
          "internalType": "address",
          "name": "proxyAddr",
          "type": "address"
        }
      ],
      "stateMutability": "nonpayable",
      "type": "constructor"
    },
    {
      "anonymous": false,
      "inputs": [
        {
          "indexed": false,
          "internalType": "uint256",
          "name": "playerId",
          "type": "uint256"
        },
        {
          "indexed": false,
          "internalType": "uint256",
          "name": "auctionId",
          "type": "uint256"
        }
      ],
      "name": "AssetWentToNewOwner",
      "type": "event"
    },
    {
      "anonymous": false,
      "inputs": [
        {
          "indexed": false,
          "internalType": "uint256",
          "name": "playerId",
          "type": "uint256"
        },
        {
          "indexed": false,
          "internalType": "uint256",
          "name": "bidderTeamId",
          "type": "uint256"
        },
        {
          "indexed": false,
          "internalType": "uint256",
          "name": "totalAmount",
          "type": "uint256"
        }
      ],
      "name": "BidForPlayerCrypto",
      "type": "event"
    },
    {
      "anonymous": false,
      "inputs": [
        {
          "indexed": false,
          "internalType": "uint256",
          "name": "playerId",
          "type": "uint256"
        },
        {
          "indexed": false,
          "internalType": "uint256",
          "name": "startingPrice",
          "type": "uint256"
        }
      ],
      "name": "PlayerPutForSaleCrypto",
      "type": "event"
    },
    {
      "inputs": [
        {
          "internalType": "address",
          "name": "proxyAddr",
          "type": "address"
        }
      ],
      "name": "setMarketFiatAddress",
      "outputs": [],
      "stateMutability": "nonpayable",
      "type": "function"
    },
    {
      "inputs": [
        {
          "internalType": "uint32",
          "name": "newDuration",
          "type": "uint32"
        }
      ],
      "name": "setAuctionDuration",
      "outputs": [],
      "stateMutability": "nonpayable",
      "type": "function"
    },
    {
      "inputs": [
        {
          "internalType": "uint128",
          "name": "newMinimum",
          "type": "uint128"
        }
      ],
      "name": "setMinimumBid",
      "outputs": [],
      "stateMutability": "nonpayable",
      "type": "function"
    },
    {
      "inputs": [
        {
          "internalType": "uint256",
          "name": "playerId",
          "type": "uint256"
        },
        {
          "internalType": "uint256",
          "name": "startingPrice",
          "type": "uint256"
        }
      ],
      "name": "putPlayerForSale",
      "outputs": [],
      "stateMutability": "nonpayable",
      "type": "function"
    },
    {
      "inputs": [
        {
          "internalType": "uint256",
          "name": "playerId",
          "type": "uint256"
        },
        {
          "internalType": "uint256",
          "name": "bidderTeamId",
          "type": "uint256"
        }
      ],
      "name": "bidForPlayer",
      "outputs": [],
      "stateMutability": "payable",
      "type": "function",
      "payable": true
    },
    {
      "inputs": [
        {
          "internalType": "uint256",
          "name": "auctionId",
          "type": "uint256"
        }
      ],
      "name": "withdraw",
      "outputs": [],
      "stateMutability": "nonpayable",
      "type": "function"
    },
    {
      "inputs": [
        {
          "internalType": "uint256",
          "name": "playerId",
          "type": "uint256"
        }
      ],
      "name": "executePlayerTransfer",
      "outputs": [],
      "stateMutability": "nonpayable",
      "type": "function"
    },
    {
      "inputs": [
        {
          "internalType": "uint256",
          "name": "auctionId",
          "type": "uint256"
        }
      ],
      "name": "isAuctionSettled",
      "outputs": [
        {
          "internalType": "bool",
          "name": "",
          "type": "bool"
        }
      ],
      "stateMutability": "view",
      "type": "function",
      "constant": true
    },
    {
      "inputs": [
        {
          "internalType": "uint256",
          "name": "teamId",
          "type": "uint256"
        }
      ],
      "name": "isTeamFrozenInAnyMarket",
      "outputs": [
        {
          "internalType": "bool",
          "name": "",
          "type": "bool"
        }
      ],
      "stateMutability": "view",
      "type": "function",
      "constant": true
    },
    {
      "inputs": [
        {
          "internalType": "uint256",
          "name": "auctionId",
          "type": "uint256"
        }
      ],
      "name": "getAuctionData",
      "outputs": [
        {
          "internalType": "uint256",
          "name": "validUntil",
          "type": "uint256"
        },
        {
          "internalType": "uint256",
          "name": "teamIdHighestBidder",
          "type": "uint256"
        },
        {
          "internalType": "uint256",
          "name": "highestBid",
          "type": "uint256"
        },
        {
          "internalType": "address",
          "name": "highestBidder",
          "type": "address"
        },
        {
          "internalType": "address",
          "name": "seller",
          "type": "address"
        },
        {
          "internalType": "bool",
          "name": "assetWentToNewOwner",
          "type": "bool"
        }
      ],
      "stateMutability": "view",
      "type": "function",
      "constant": true
    },
    {
      "inputs": [
        {
          "internalType": "uint256",
          "name": "auctionId",
          "type": "uint256"
        },
        {
          "internalType": "address",
          "name": "addr",
          "type": "address"
        }
      ],
      "name": "getBalance",
      "outputs": [
        {
          "internalType": "uint256",
          "name": "",
          "type": "uint256"
        }
      ],
      "stateMutability": "view",
      "type": "function",
      "constant": true
    },
    {
      "inputs": [
        {
          "internalType": "uint256",
          "name": "playerId",
          "type": "uint256"
        }
      ],
      "name": "getCurrentAuctionForPlayer",
      "outputs": [
        {
          "internalType": "uint256",
          "name": "",
          "type": "uint256"
        }
      ],
      "stateMutability": "view",
      "type": "function",
      "constant": true
    },
    {
      "inputs": [],
      "name": "auctionDuration",
      "outputs": [
        {
          "internalType": "uint32",
          "name": "",
          "type": "uint32"
        }
      ],
      "stateMutability": "view",
      "type": "function",
      "constant": true
    },
    {
      "inputs": [],
      "name": "minimumBidIncrement",
      "outputs": [
        {
          "internalType": "uint256",
          "name": "",
          "type": "uint256"
        }
      ],
      "stateMutability": "view",
      "type": "function",
      "constant": true
    },
    {
      "inputs": [],
      "name": "nAuctions",
      "outputs": [
        {
          "internalType": "uint256",
          "name": "",
          "type": "uint256"
        }
      ],
      "stateMutability": "view",
      "type": "function",
      "constant": true
    }
  ],
  "bytecode": "0x60806040526000805463ffffffff1916620151801790556706f05b59d3b2000060015534801561002e57600080fd5b5060405161192f38038061192f8339818101604052602081101561005157600080fd5b5051600280546001600160a01b0319166001600160a01b039092169190911790556118ae806100816000396000f3fe6080604052600436106100e85760003560e01c8063738cba9a1161008a578063d414b42b11610059578063d414b42b14610319578063df2bc8681461034c578063ec89b5e01461038a578063ef0113641461039f576100e8565b8063738cba9a1461025357806393f057f814610283578063a29d2ebb146102b6578063b0a79459146102e0576100e8565b80632e1a7d4d116100c65780632e1a7d4d1461017c57806344f27e30146101a6578063672c26071461020e5780637163b2f11461023e576100e8565b80630cbf54c8146100ed5780630ecdc4fc1461011b5780630efd4e7214610157575b600080fd5b3480156100f957600080fd5b506101026103c9565b6040805163ffffffff9092168252519081900360200190f35b34801561012757600080fd5b506101456004803603602081101561013e57600080fd5b50356103d5565b60408051918252519081900360200190f35b61017a6004803603604081101561016d57600080fd5b50803590602001356103ea565b005b34801561018857600080fd5b5061017a6004803603602081101561019f57600080fd5b5035610a97565b3480156101b257600080fd5b506101d0600480360360208110156101c957600080fd5b5035610c41565b604080519687526020870195909552858501939093526001600160a01b039182166060860152166080840152151560a0830152519081900360c00190f35b34801561021a57600080fd5b5061017a6004803603604081101561023157600080fd5b5080359060200135610c96565b34801561024a57600080fd5b50610145610fbc565b34801561025f57600080fd5b5061017a6004803603602081101561027657600080fd5b503563ffffffff16610fc2565b34801561028f57600080fd5b5061017a600480360360208110156102a657600080fd5b50356001600160801b03166110a9565b3480156102c257600080fd5b5061017a600480360360208110156102d957600080fd5b5035611182565b3480156102ec57600080fd5b506101456004803603604081101561030357600080fd5b50803590602001356001600160a01b031661135f565b34801561032557600080fd5b5061017a6004803603602081101561033c57600080fd5b50356001600160a01b0316611387565b34801561035857600080fd5b506103766004803603602081101561036f57600080fd5b5035611474565b604080519115158252519081900360200190f35b34801561039657600080fd5b506101456114f2565b3480156103ab57600080fd5b50610376600480360360208110156103c257600080fd5b50356114f8565b60005463ffffffff1690565b6000818152600460205260409020545b919050565b336104265760405162461bcd60e51b815260040180806020018281038252602181526020018061172f6021913960400191505060405180910390fd5b6000828152600860205260409020546001600160a01b031633141561047c5760405162461bcd60e51b815260040180806020018281038252602f81526020018061184a602f913960400191505060405180910390fd5b60025460408051634c5e66ab60e11b81526004810184905290516001600160a01b03909216916398bccd5691602480820192602092909190829003018186803b1580156104c857600080fd5b505afa1580156104dc573d6000803e3d6000fd5b505050506040513d60208110156104f257600080fd5b505160ff16156105335760405162461bcd60e51b81526004018080602001828103825260408152602001806115566040913960400191505060405180910390fd5b6000828152600460205260409020548061057e5760405162461bcd60e51b815260040180806020018281038252602481526020018061164f6024913960400191505060405180910390fd5b60008181526007602052604090205442106105ca5760405162461bcd60e51b81526004018080602001828103825260298152602001806117e46029913960400191505060405180910390fd5b6002546040805163492afc6960e01b81526004810185905290516001600160a01b039092169163492afc6991602480820192602092909190829003018186803b15801561061657600080fd5b505afa15801561062a573d6000803e3d6000fd5b505050506040513d602081101561064057600080fd5b50516001600160a01b031633146106885760405162461bcd60e51b815260040180806020018281038252602f815260200180611596602f913960400191505060405180910390fd5b6000818152600960205260409020548214156106d55760405162461bcd60e51b81526004018080602001828103825260358152602001806117af6035913960400191505060405180910390fd5b60025460408051626e6ad160e01b815260048101859052815160009384936001600160a01b0390911692626e6ad19260248083019392829003018186803b15801561071f57600080fd5b505afa158015610733573d6000803e3d6000fd5b505050506040513d604081101561074957600080fd5b5080516020909101519092509050818015610765575060ff8116155b156107a15760405162461bcd60e51b81526004018080602001828103825260248152602001806116e56024913960400191505060405180910390fd5b6000838152600d60209081526040808320338452825291829020546002548351631c48499f60e31b8152600481018a9052935134909201936001600160a01b039091169263e2424cf892602480840193829003018186803b15801561080557600080fd5b505afa158015610819573d6000803e3d6000fd5b505050506040513d602081101561082f57600080fd5b50516109b3576000848152600560205260409020548110156108825760405162461bcd60e51b81526004018080602001828103825260408152602001806116736040913960400191505060405180910390fd5b60025460408051630e325ad760e21b81526004810189905290516000926001600160a01b0316916338c96b5c916024808301926020929190829003018186803b1580156108ce57600080fd5b505afa1580156108e2573d6000803e3d6000fd5b505050506040513d60208110156108f857600080fd5b5051905061090581611474565b156109415760405162461bcd60e51b815260040180806020018281038252605f815260200180611750605f913960600191505060405180910390fd5b60025460408051630c84ee3960e01b8152600481018a90526001602482015290516001600160a01b0390921691630c84ee399160448082019260009290919082900301818387803b15801561099557600080fd5b505af11580156109a9573d6000803e3d6000fd5b5050505050610a04565b60015460008581526006602052604090205401811015610a045760405162461bcd60e51b81526004018080602001828103825260408152602001806116736040913960400191505060405180910390fd5b6000848152600d602090815260408083203380855290835281842085905587845260068352818420859055600a835281842080546001600160a01b0319169091179055600b825291829020879055815188815290810187905280820183905290517f6a7a2d6c0346236a2370d66dfefeb254086c4883867e976bd8afa58988fe68639181900360600190a1505050505050565b6000818152600a60205260409020546001600160a01b0316331415610b03576040805162461bcd60e51b815260206004820181905260248201527f686967686572206269646465722063616e206e65766572207769746864726177604482015290519081900360640190fd5b6000818152600860205260408120546001600160a01b0316331415610b87576000828152600760205260409020544211610b6e5760405162461bcd60e51b815260040180806020018281038252603d81526020018061180d603d913960400191505060405180910390fd5b5060008181526006602052604081208054919055610ba7565b506000818152600d60209081526040808320338452909152812080549190555b60008111610be65760405162461bcd60e51b81526004018080602001828103825260278152602001806115c56027913960400191505060405180910390fd5b604051339082156108fc029083906000818181858888f19350505050610c3d5760405162461bcd60e51b81526004018080602001828103825260248152602001806115ec6024913960400191505060405180910390fd5b5050565b600090815260076020908152604080832054600b8352818420546006845282852054600a8552838620546008865284872054600c909652939095205491959094936001600160a01b0393841693169160ff1690565b60025460408051630e325ad760e21b81526004810185905290516000926001600160a01b0316916338c96b5c916024808301926020929190829003018186803b158015610ce257600080fd5b505afa158015610cf6573d6000803e3d6000fd5b505050506040513d6020811015610d0c57600080fd5b50516002546040805163492afc6960e01b81526004810184905290519293506000926001600160a01b039092169163492afc6991602480820192602092909190829003018186803b158015610d6057600080fd5b505afa158015610d74573d6000803e3d6000fd5b505050506040513d6020811015610d8a57600080fd5b5051600085815260046020526040812054919250610da7826114f8565b8015610e28575060025460408051631c48499f60e31b81526004810189905290516001600160a01b039092169163e2424cf891602480820192602092909190829003018186803b158015610dfa57600080fd5b505afa158015610e0e573d6000803e3d6000fd5b505050506040513d6020811015610e2457600080fd5b5051155b8015610ea95750600254604080516373ffc58760e11b81526004810187905290516001600160a01b039092169163e7ff8b0e91602480820192602092909190829003018186803b158015610e7b57600080fd5b505afa158015610e8f573d6000803e3d6000fd5b505050506040513d6020811015610ea557600080fd5b5051155b8015610ebd57506001600160a01b03831615155b8015610ed157506001600160a01b03831633145b905080610f0f5760405162461bcd60e51b81526004018080602001828103825260268152602001806117096026913960400191505060405180910390fd5b600380546001019081905560008781526004602090815260408083208490558383526005825280832089905582546007835281842063ffffffff909116420190556008825280832080546001600160a01b0319166001600160a01b0389161790556009825291829020879055815189815290810188905281517f50224537d7688230cbd2c9038ef7b054bf25812b0b371486f70ec36dcca89bdc929181900390910190a150505050505050565b60035490565b6002546040805163e1b27e6b60e01b8152905133926001600160a01b03169163e1b27e6b916004808301926020929190829003018186803b15801561100657600080fd5b505afa15801561101a573d6000803e3d6000fd5b505050506040513d602081101561103057600080fd5b50516001600160a01b03161461108d576040805162461bcd60e51b815260206004820181905260248201527f4f6e6c7920434f4f2063616e2063616c6c20746869732066756e6374696f6e2e604482015290519081900360640190fd5b6000805463ffffffff191663ffffffff92909216919091179055565b6002546040805163e1b27e6b60e01b8152905133926001600160a01b03169163e1b27e6b916004808301926020929190829003018186803b1580156110ed57600080fd5b505afa158015611101573d6000803e3d6000fd5b505050506040513d602081101561111757600080fd5b50516001600160a01b031614611174576040805162461bcd60e51b815260206004820181905260248201527f4f6e6c7920434f4f2063616e2063616c6c20746869732066756e6374696f6e2e604482015290519081900360640190fd5b6001600160801b0316600155565b60008181526004602090815260408083205480845260079092529091205442116111dd5760405162461bcd60e51b815260040180806020018281038252603f815260200180611610603f913960400191505060405180910390fd5b6000818152600c602052604090205460ff161561122b5760405162461bcd60e51b81526004018080602001828103825260328152602001806116b36032913960400191505060405180910390fd5b6000818152600c6020526040808220805460ff191660011790556002548151630c84ee3960e01b8152600481018690526024810184905291516001600160a01b0390911692630c84ee39926044808201939182900301818387803b15801561129257600080fd5b505af11580156112a6573d6000803e3d6000fd5b50506002546000848152600b60205260408082205481516333fdc10b60e01b815260048101899052602481019190915290516001600160a01b0390931694506333fdc10b93506044808201939182900301818387803b15801561130857600080fd5b505af115801561131c573d6000803e3d6000fd5b5050604080518581526020810185905281517fd472bf3ebb450aec1f80ad8ee52f27ca60b5cdd208e9ba3ec87ca1274b9bcffe9450908190039091019150a15050565b6000918252600d602090815260408084206001600160a01b0393909316845291905290205490565b6002546040805163e1b27e6b60e01b8152905133926001600160a01b03169163e1b27e6b916004808301926020929190829003018186803b1580156113cb57600080fd5b505afa1580156113df573d6000803e3d6000fd5b505050506040513d60208110156113f557600080fd5b50516001600160a01b031614611452576040805162461bcd60e51b815260206004820181905260248201527f4f6e6c7920434f4f2063616e2063616c6c20746869732066756e6374696f6e2e604482015290519081900360640190fd5b600280546001600160a01b0319166001600160a01b0392909216919091179055565b600254604080516373ffc58760e11b81526004810184905290516000926001600160a01b03169163e7ff8b0e916024808301926020929190829003018186803b1580156114c057600080fd5b505afa1580156114d4573d6000803e3d6000fd5b505050506040513d60208110156114ea57600080fd5b505192915050565b60015490565b600081611507575060016103e5565b6000828152600c602052604090205460ff1615611526575060016103e5565b60008281526006602052604090205415801561154f575060008281526007602052604090205442115b9291505056fe63616e6e6f742062696420666f72206d6f726520706c6179657273207768656e20796f7572207465616d20697320616c7265616479206265796f6e64204d41586f6e6c7920746865206f776e6572206f6620746865207465616d2063616e2062696420666f72206120706c617965726e6f7468696e6720746f20776974686472617720666f722074686973206d73672073656e6465726661696c757265207768656e207769746864726177696e67206c656769742066756e647363616e6e6f74207472616e7366657220706c6179657220746f20686967686573742062696464657220756e74696c2061756374696f6e2066696e6973686573706c6179657220686173206e6f74206265656e2070757420666f722073616c652079657462696420646964206e6f7420696e6372656d656e74207468652070726576696f7573206269642061626f766520746865206d696e696d756d20616c6c6f77656474686520706c6179657220696e20746869732061756374696f6e2077617320616c7265616479207472616e736665727265647465616d2072616e206f7574206f6620616c6c6f776564206163717569736974696f6e73636f6e646974696f6e7320746f20707574506c61796572466f7253616c65206e6f74206d657473656e6465722063616e6e6f7420626520746865206e756c6c2061646472657373746865207465616d2074686174207468697320706c617965722062656c6f6e677320746f20697320616c72656164792066726f7a656e2e2043616e6e6f742073616c6520706c6179657273206966207465616d20697320666f722073616c65706c6179657273206861766520746f206265207472616e736665726564206265747765656e20646966666572656e74207465616d73746f6f206c61746520746f206269642c2061756374696f6e2074696d65206861732065787069726564686967686573742062696420676f657320746f2073656c6c65722c20736f2068696768657374206269646465722063616e6e6f7420776974686472617773656c6c6572206973206e6f7420616c6c6f77656420746f2062696420666f7220697473206f776e20617373657473a2646970667358221220aba04f263882e0e3a3604da836a0a2f09ee2c606d4b24b1f5251a0192aeec6b864736f6c63430006030033",
  "source": "pragma solidity >= 0.6.3;\n\nimport \"./Market.sol\";\n\n/**\n @title Auctions operated in cryptocurrency, without anyone's permission (other than sellers and buyers)\n @author Freeverse.io, www.freeverse.io\n @dev There are therefore \"Two Markets\", one operated in Crypto and one in Fiat.\n @dev Where necessary we make functions explicit, e.g. isPlayerFrozenInAnyMarket.\n*/\n \ncontract MarketCrypto {\n\n    address constant private NULL_ADDR = address(0x0);\n\n    event PlayerPutForSaleCrypto(uint256 playerId, uint256 startingPrice);\n    event BidForPlayerCrypto(uint256 playerId, uint256 bidderTeamId, uint256 totalAmount);\n    event AssetWentToNewOwner(uint256 playerId, uint256 auctionId);\n\n    uint32 private _auctionDuration = 24 hours; \n    uint256 private _minimumBidIncrement = 0.5 ether; /// bid for at least this amount of XDAI, or increase previous by this amount\n    \n    Market private _market;\n\n    /// an auction exists: if id < nAcutions, or if startingPrice > 0\n    /// an auction had at least one bid: if highestBid > 0\n    uint256 _nAuctions;\n    mapping (uint256 => uint256) private _playerIdToAuctionId;\n    mapping (uint256 => uint256) private _startingPrice;\n    mapping (uint256 => uint256) private _highestBid;\n    mapping (uint256 => uint256) private _validUntil;\n    mapping (uint256 => address) private _seller;\n    mapping (uint256 => uint256) private _sellerTeamId;\n    mapping (uint256 => address) private _highestBidder;\n    mapping (uint256 => uint256) private _teamIdHighestBidder;\n    mapping (uint256 => bool) private _assetWentToNewOwner;\n    mapping (uint256 => mapping(address => uint256)) private _balance;\n\n    constructor(address proxyAddr) public {\n        _market = Market(proxyAddr);\n    }\n\n    modifier onlyCOO {\n        require( _market.COO() == msg.sender, \"Only COO can call this function.\");\n            _;\n    }\n    \n    function setMarketFiatAddress(address proxyAddr) external onlyCOO {\n        _market = Market(proxyAddr);\n    }\n    \n    function setAuctionDuration(uint32 newDuration) external onlyCOO {\n        _auctionDuration = newDuration;\n    }\n\n    function setMinimumBid(uint128 newMinimum) external onlyCOO {\n        _minimumBidIncrement = newMinimum;\n    }\n\n    function putPlayerForSale(uint256 playerId, uint256 startingPrice) external {\n        /// TODO: it will be cheaper if we add a function to return the 4 needed data in just 1 call\n        uint256 currentTeamId  = _market.getCurrentTeamIdFromPlayerId(playerId);\n        address currentOwner   = _market.getOwnerTeam(currentTeamId);\n        uint256 prevAuctionId  = _playerIdToAuctionId[playerId];\n        bool OK = (\n            /// check asset is not already for sale, or if data exists, that the auction has been fully settled\n            isAuctionSettled(prevAuctionId) &&\n            /// check player is not already frozen\n            !_market.isPlayerFrozenInAnyMarket(playerId) &&  \n            /// check that the team it belongs to is not already frozen\n            !_market.isTeamFrozen(currentTeamId) &&\n            /// check asset is owned by legit address\n            (currentOwner != NULL_ADDR) && \n            /// check asset is owned by sender of this TX\n            (currentOwner == msg.sender)   \n        );\n        require(OK, \"conditions to putPlayerForSale not met\");\n        _nAuctions++;\n        uint256 auctionId = _nAuctions;\n        _playerIdToAuctionId[playerId] = auctionId;\n        _startingPrice[auctionId] = startingPrice;\n        _validUntil[auctionId] = now + _auctionDuration;\n        _seller[auctionId] = currentOwner;\n        _sellerTeamId[auctionId] = currentTeamId;\n        emit PlayerPutForSaleCrypto(playerId, startingPrice);\n    }\n    \n    function bidForPlayer(uint256 playerId, uint256 bidderTeamId) external payable {\n        /// TODO: save gas by calling 1 once and returning all data in 1 call\n        require(msg.sender != NULL_ADDR, \"sender cannot be the null address\");\n        require(msg.sender != _seller[playerId], \"seller is not allowed to bid for its own assets\");\n        \n        require(_market.getNPlayersInTransitInTeam(bidderTeamId) == 0, \"cannot bid for more players when your team is already beyond MAX\");\n        uint256 auctionId = _playerIdToAuctionId[playerId];\n        require(auctionId != 0, \"player has not been put for sale yet\");\n        require(now < _validUntil[auctionId], \"too late to bid, auction time has expired\");\n        require(msg.sender == _market.getOwnerTeam(bidderTeamId), \"only the owner of the team can bid for a player\");\n        require(bidderTeamId != _sellerTeamId[auctionId], \"players have to be transfered between different teams\");\n\n        (bool isConstrained, uint8 nRemain) = _market.getMaxAllowedAcquisitions(bidderTeamId);\n        require(!(isConstrained && nRemain == 0), \"team ran out of allowed acquisitions\");\n\n        uint256 bidAmount = _balance[auctionId][msg.sender] + msg.value;\n\n        /// if this is the first bid, freeze the asset, preventing sale in any other market\n        if (!_market.isPlayerFrozenInAnyMarket(playerId)) {\n            require (bidAmount >= _startingPrice[auctionId], \"bid did not increment the previous bid above the minimum allowed\");\n            uint256 currentTeamId  = _market.getCurrentTeamIdFromPlayerId(playerId);\n            require (!isTeamFrozenInAnyMarket(currentTeamId), \"the team that this player belongs to is already frozen. Cannot sale players if team is for sale\");\n            _market.setIsPlayerFrozenCrypto(playerId, true);\n        } else {\n            require (bidAmount >= _highestBid[auctionId] + _minimumBidIncrement, \"bid did not increment the previous bid above the minimum allowed\");\n        }\n\n        _balance[auctionId][msg.sender] = bidAmount;\n        _highestBid[auctionId] = bidAmount;\n        _highestBidder[auctionId] = msg.sender;\n        _teamIdHighestBidder[auctionId] = bidderTeamId;\n        emit BidForPlayerCrypto(playerId, bidderTeamId, bidAmount);\n    }\n\n    /// Note that this function can be executed by anyone. Of course, only the highest bidder is expected to \n    /// be the interest party in executing it, but we allow anyone to operate it, since this was the intention of the auction.\n    function withdraw(uint256 auctionId) external {\n        require(msg.sender != _highestBidder[auctionId], \"higher bidder can never withdraw\");\n        uint256 amount;\n        if (msg.sender == _seller[auctionId]) {\n            /// seller can only withdraw after the auction ended\n            require(now > _validUntil[auctionId], \"highest bid goes to seller, so highest bidder cannot withdraw\");\n            amount = _highestBid[auctionId];\n            _highestBid[auctionId] = 0;\n        } else {\n            /// outbid users can withdraw any time\n            amount = _balance[auctionId][msg.sender];\n            _balance[auctionId][msg.sender] = 0;\n        }\n        require(amount > 0, \"nothing to withdraw for this msg sender\");\n        require(msg.sender.send(amount), \"failure when withdrawing legit funds\");\n    }\n\n    /// Note that this function can be executed by anyone. Of course, only the highest bidder is expected to \n    /// be the interest party in executing it, but we allow anyone to operate it, since this was the intention of the auction.\n    function executePlayerTransfer(uint256 playerId) external {\n        uint256 auctionId = _playerIdToAuctionId[playerId];\n        require(now > _validUntil[auctionId], \"cannot transfer player to highest bidder until auction finishes\");\n        require(!_assetWentToNewOwner[auctionId], \"the player in this auction was already transferred\");\n        _assetWentToNewOwner[auctionId] = true;\n        _market.setIsPlayerFrozenCrypto(playerId, false);\n        _market.transferPlayerFromCryptoMkt(playerId, _teamIdHighestBidder[auctionId]);\n        emit AssetWentToNewOwner(playerId, auctionId);\n    }\n    \n    \n    /// an asset is ready to be put for sale again if it either has never been assigned to an auction or, in case it has:\n    ///  - if the auction never received a bid\n    ///  - if the auction received bids, and the new owner finally executed the \"receive asset\" function.\n    /// Note that the difference with isPlayerFrozenCrypto is that isAuctionSettled is a bit more restrictive, and triggered\n    /// as soon as asset is putForSale. In contrast, isPlayerFrozenCrypto on triggers when first bid arrives.\n    function isAuctionSettled(uint256 auctionId) public view returns(bool) {\n        if (auctionId == 0) return true;\n        if (_assetWentToNewOwner[auctionId]) return true;\n        /// check if it was put for sale but experied without bids\n        return (_highestBid[auctionId] == 0) && (_validUntil[auctionId] < now);\n    } \n\n    /// this will check also for local crypto freeze of team when feature is added\n    function isTeamFrozenInAnyMarket(uint256 teamId) public view returns (bool) {\n        return _market.isTeamFrozen(teamId);\n    }\n\n    function getAuctionData(uint256 auctionId) external view returns(\n        uint256 validUntil,\n        uint256 teamIdHighestBidder,\n        uint256 highestBid,\n        address highestBidder,\n        address seller,\n        bool assetWentToNewOwner\n    ) {\n        return(\n            _validUntil[auctionId], \n            _teamIdHighestBidder[auctionId],\n            _highestBid[auctionId], \n            _highestBidder[auctionId], \n            _seller[auctionId], \n            _assetWentToNewOwner[auctionId]\n        );\n    }\n    \n    function getBalance(uint256 auctionId, address addr) external view returns (uint256) { return _balance[auctionId][addr]; }\n    function getCurrentAuctionForPlayer(uint256 playerId) external view returns (uint256) { return _playerIdToAuctionId[playerId]; }\n    function auctionDuration() external view returns (uint32) { return _auctionDuration; }\n    function minimumBidIncrement() external view returns (uint256) { return _minimumBidIncrement; }\n    function nAuctions() external view returns (uint256) { return _nAuctions; }\n    \n}\n",
  "sourcePath": "/Users/jurgenkudla/proyects/laos/laos-goal-revolution/truffle-core/contracts/storage/MarketCrypto.sol",
  "compiler": {
    "name": "solc",
    "version": "0.6.3+commit.8dda9521.Emscripten.clang"
  },
  "schemaVersion": "3.0.23",
  "updatedAt": "2024-10-16T08:58:34.628Z",
  "networkType": "ethereum",
  "devdoc": {
    "author": "Freeverse.io, www.freeverse.io",
    "details": "There are therefore \"Two Markets\", one operated in Crypto and one in Fiat.Where necessary we make functions explicit, e.g. isPlayerFrozenInAnyMarket.",
    "methods": {},
    "title": "Auctions operated in cryptocurrency, without anyone's permission (other than sellers and buyers)"
  },
  "userdoc": {
    "methods": {
      "executePlayerTransfer(uint256)": {
        "notice": "Note that this function can be executed by anyone. Of course, only the highest bidder is expected to  be the interest party in executing it, but we allow anyone to operate it, since this was the intention of the auction."
      },
      "isAuctionSettled(uint256)": {
        "notice": "an asset is ready to be put for sale again if it either has never been assigned to an auction or, in case it has:  - if the auction never received a bid  - if the auction received bids, and the new owner finally executed the \"receive asset\" function. Note that the difference with isPlayerFrozenCrypto is that isAuctionSettled is a bit more restrictive, and triggered as soon as asset is putForSale. In contrast, isPlayerFrozenCrypto on triggers when first bid arrives."
      },
      "isTeamFrozenInAnyMarket(uint256)": {
        "notice": "this will check also for local crypto freeze of team when feature is added"
      },
      "withdraw(uint256)": {
        "notice": "Note that this function can be executed by anyone. Of course, only the highest bidder is expected to  be the interest party in executing it, but we allow anyone to operate it, since this was the intention of the auction."
      }
    }
  }
}