{
  "contractName": "Market",
  "abi": [
    {
      "anonymous": false,
      "inputs": [
        {
          "indexed": false,
          "internalType": "uint256",
          "name": "playerId",
          "type": "uint256"
        },
        {
          "indexed": false,
          "internalType": "uint256",
          "name": "auctionData",
          "type": "uint256"
        },
        {
          "indexed": false,
          "internalType": "bool",
          "name": "frozen",
          "type": "bool"
        }
      ],
      "name": "PlayerFreeze",
      "type": "event"
    },
    {
      "anonymous": false,
      "inputs": [
        {
          "indexed": false,
          "internalType": "uint256",
          "name": "playerId",
          "type": "uint256"
        },
        {
          "indexed": false,
          "internalType": "bool",
          "name": "frozen",
          "type": "bool"
        }
      ],
      "name": "PlayerFreezeCrypto",
      "type": "event"
    },
    {
      "anonymous": false,
      "inputs": [
        {
          "indexed": false,
          "internalType": "uint256",
          "name": "playerId",
          "type": "uint256"
        },
        {
          "indexed": false,
          "internalType": "uint256",
          "name": "state",
          "type": "uint256"
        }
      ],
      "name": "PlayerStateChange",
      "type": "event"
    },
    {
      "anonymous": false,
      "inputs": [
        {
          "indexed": false,
          "internalType": "uint256",
          "name": "newSumSkills",
          "type": "uint256"
        },
        {
          "indexed": false,
          "internalType": "uint256",
          "name": "newLapseTime",
          "type": "uint256"
        }
      ],
      "name": "ProposedNewMaxSumSkillsBuyNowPlayer",
      "type": "event"
    },
    {
      "anonymous": false,
      "inputs": [
        {
          "indexed": false,
          "internalType": "uint256",
          "name": "teamId",
          "type": "uint256"
        },
        {
          "indexed": false,
          "internalType": "uint256",
          "name": "auctionData",
          "type": "uint256"
        },
        {
          "indexed": false,
          "internalType": "bool",
          "name": "frozen",
          "type": "bool"
        }
      ],
      "name": "TeamFreeze",
      "type": "event"
    },
    {
      "anonymous": false,
      "inputs": [
        {
          "indexed": false,
          "internalType": "uint256",
          "name": "teamId",
          "type": "uint256"
        },
        {
          "indexed": false,
          "internalType": "address",
          "name": "to",
          "type": "address"
        }
      ],
      "name": "TeamTransfer",
      "type": "event"
    },
    {
      "anonymous": false,
      "inputs": [
        {
          "indexed": false,
          "internalType": "uint256",
          "name": "newSumSkills",
          "type": "uint256"
        },
        {
          "indexed": false,
          "internalType": "uint256",
          "name": "newLapseTime",
          "type": "uint256"
        }
      ],
      "name": "UpdatedNewMaxSumSkillsBuyNowPlayer",
      "type": "event"
    },
    {
      "inputs": [],
      "name": "COO",
      "outputs": [
        {
          "internalType": "address",
          "name": "",
          "type": "address"
        }
      ],
      "stateMutability": "view",
      "type": "function",
      "constant": true
    },
    {
      "inputs": [],
      "name": "_stakers",
      "outputs": [
        {
          "internalType": "contract Stakers",
          "name": "",
          "type": "address"
        }
      ],
      "stateMutability": "view",
      "type": "function",
      "constant": true
    },
    {
      "inputs": [
        {
          "internalType": "uint256",
          "name": "encodedSkills",
          "type": "uint256"
        }
      ],
      "name": "addIsSpecial",
      "outputs": [
        {
          "internalType": "uint256",
          "name": "",
          "type": "uint256"
        }
      ],
      "stateMutability": "pure",
      "type": "function",
      "constant": true
    },
    {
      "inputs": [
        {
          "internalType": "bytes32",
          "name": "auctionId",
          "type": "bytes32"
        },
        {
          "internalType": "uint256",
          "name": "playerId",
          "type": "uint256"
        },
        {
          "internalType": "bytes32",
          "name": "buyerHiddenPrice",
          "type": "bytes32"
        },
        {
          "internalType": "uint256",
          "name": "buyerTeamId",
          "type": "uint256"
        },
        {
          "internalType": "bytes32[2]",
          "name": "sig",
          "type": "bytes32[2]"
        },
        {
          "internalType": "uint8",
          "name": "sigV",
          "type": "uint8"
        }
      ],
      "name": "areCompletePlayerAuctionRequirementsOK",
      "outputs": [
        {
          "internalType": "bool",
          "name": "ok",
          "type": "bool"
        }
      ],
      "stateMutability": "view",
      "type": "function",
      "constant": true
    },
    {
      "inputs": [
        {
          "internalType": "bytes32",
          "name": "auctionId",
          "type": "bytes32"
        },
        {
          "internalType": "uint256",
          "name": "teamId",
          "type": "uint256"
        },
        {
          "internalType": "bytes32",
          "name": "buyerHiddenPrice",
          "type": "bytes32"
        },
        {
          "internalType": "bytes32[2]",
          "name": "sig",
          "type": "bytes32[2]"
        },
        {
          "internalType": "uint8",
          "name": "sigV",
          "type": "uint8"
        },
        {
          "internalType": "address",
          "name": "buyerAddress",
          "type": "address"
        }
      ],
      "name": "areCompleteTeamAuctionRequirementsOK",
      "outputs": [
        {
          "internalType": "bool",
          "name": "ok",
          "type": "bool"
        }
      ],
      "stateMutability": "view",
      "type": "function",
      "constant": true
    },
    {
      "inputs": [
        {
          "internalType": "bytes32",
          "name": "sellerHiddenPrice",
          "type": "bytes32"
        },
        {
          "internalType": "uint256",
          "name": "playerId",
          "type": "uint256"
        },
        {
          "internalType": "bytes32[2]",
          "name": "sig",
          "type": "bytes32[2]"
        },
        {
          "internalType": "uint8",
          "name": "sigV",
          "type": "uint8"
        },
        {
          "internalType": "uint32",
          "name": "validUntil",
          "type": "uint32"
        },
        {
          "internalType": "uint32",
          "name": "offerValidUntil",
          "type": "uint32"
        }
      ],
      "name": "areFreezePlayerRequirementsOK",
      "outputs": [
        {
          "internalType": "bool",
          "name": "ok",
          "type": "bool"
        }
      ],
      "stateMutability": "view",
      "type": "function",
      "constant": true
    },
    {
      "inputs": [
        {
          "internalType": "bytes32",
          "name": "sellerHiddenPrice",
          "type": "bytes32"
        },
        {
          "internalType": "uint256",
          "name": "teamId",
          "type": "uint256"
        },
        {
          "internalType": "bytes32[2]",
          "name": "sig",
          "type": "bytes32[2]"
        },
        {
          "internalType": "uint8",
          "name": "sigV",
          "type": "uint8"
        },
        {
          "internalType": "uint32",
          "name": "validUntil",
          "type": "uint32"
        },
        {
          "internalType": "uint32",
          "name": "offerValidUntil",
          "type": "uint32"
        }
      ],
      "name": "areFreezeTeamRequirementsOK",
      "outputs": [
        {
          "internalType": "bool",
          "name": "ok",
          "type": "bool"
        }
      ],
      "stateMutability": "view",
      "type": "function",
      "constant": true
    },
    {
      "inputs": [
        {
          "internalType": "bytes32",
          "name": "auctionId",
          "type": "bytes32"
        },
        {
          "internalType": "bytes32",
          "name": "buyerHiddenPrice",
          "type": "bytes32"
        },
        {
          "internalType": "uint256",
          "name": "buyerTeamId",
          "type": "uint256"
        }
      ],
      "name": "buildAgreeToBuyPlayerTxMsg",
      "outputs": [
        {
          "internalType": "bytes32",
          "name": "",
          "type": "bytes32"
        }
      ],
      "stateMutability": "pure",
      "type": "function",
      "constant": true
    },
    {
      "inputs": [
        {
          "internalType": "bytes32",
          "name": "auctionId",
          "type": "bytes32"
        },
        {
          "internalType": "bytes32",
          "name": "buyerHiddenPrice",
          "type": "bytes32"
        }
      ],
      "name": "buildAgreeToBuyTeamTxMsg",
      "outputs": [
        {
          "internalType": "bytes32",
          "name": "",
          "type": "bytes32"
        }
      ],
      "stateMutability": "pure",
      "type": "function",
      "constant": true
    },
    {
      "inputs": [
        {
          "internalType": "bytes32",
          "name": "hiddenPrice",
          "type": "bytes32"
        },
        {
          "internalType": "uint256",
          "name": "validUntil",
          "type": "uint256"
        },
        {
          "internalType": "uint256",
          "name": "playerId",
          "type": "uint256"
        },
        {
          "internalType": "uint256",
          "name": "buyerTeamId",
          "type": "uint256"
        }
      ],
      "name": "buildOfferToBuyTxMsg",
      "outputs": [
        {
          "internalType": "bytes32",
          "name": "",
          "type": "bytes32"
        }
      ],
      "stateMutability": "pure",
      "type": "function",
      "constant": true
    },
    {
      "inputs": [
        {
          "internalType": "bytes32",
          "name": "hiddenPrice",
          "type": "bytes32"
        },
        {
          "internalType": "uint256",
          "name": "assetId",
          "type": "uint256"
        },
        {
          "internalType": "uint32",
          "name": "validUntil",
          "type": "uint32"
        },
        {
          "internalType": "uint32",
          "name": "offerValidUntil",
          "type": "uint32"
        }
      ],
      "name": "computeAuctionId",
      "outputs": [
        {
          "internalType": "bytes32",
          "name": "",
          "type": "bytes32"
        }
      ],
      "stateMutability": "pure",
      "type": "function",
      "constant": true
    },
    {
      "inputs": [
        {
          "internalType": "bytes32",
          "name": "hiddenPrice",
          "type": "bytes32"
        },
        {
          "internalType": "uint256",
          "name": "assetId",
          "type": "uint256"
        },
        {
          "internalType": "uint32",
          "name": "validUntil",
          "type": "uint32"
        },
        {
          "internalType": "uint32",
          "name": "offerValidUntil",
          "type": "uint32"
        }
      ],
      "name": "computePutAssetForSaleDigest",
      "outputs": [
        {
          "internalType": "bytes32",
          "name": "",
          "type": "bytes32"
        }
      ],
      "stateMutability": "pure",
      "type": "function",
      "constant": true
    },
    {
      "inputs": [
        {
          "internalType": "uint8",
          "name": "timeZone",
          "type": "uint8"
        },
        {
          "internalType": "uint256",
          "name": "countryIdxInTZ",
          "type": "uint256"
        }
      ],
      "name": "countryInTZExists",
      "outputs": [
        {
          "internalType": "bool",
          "name": "",
          "type": "bool"
        }
      ],
      "stateMutability": "view",
      "type": "function",
      "constant": true
    },
    {
      "inputs": [],
      "name": "cryptoMktAddr",
      "outputs": [
        {
          "internalType": "address",
          "name": "",
          "type": "address"
        }
      ],
      "stateMutability": "view",
      "type": "function",
      "constant": true
    },
    {
      "inputs": [
        {
          "internalType": "uint256",
          "name": "encoded",
          "type": "uint256"
        }
      ],
      "name": "decodeTZCountryAndVal",
      "outputs": [
        {
          "internalType": "uint8",
          "name": "",
          "type": "uint8"
        },
        {
          "internalType": "uint256",
          "name": "",
          "type": "uint256"
        },
        {
          "internalType": "uint256",
          "name": "",
          "type": "uint256"
        }
      ],
      "stateMutability": "pure",
      "type": "function",
      "constant": true
    },
    {
      "inputs": [
        {
          "internalType": "uint256",
          "name": "remainingAcqs",
          "type": "uint256"
        },
        {
          "internalType": "uint8",
          "name": "acq",
          "type": "uint8"
        }
      ],
      "name": "decreaseAcquisitionConstraint",
      "outputs": [
        {
          "internalType": "uint256",
          "name": "",
          "type": "uint256"
        }
      ],
      "stateMutability": "pure",
      "type": "function",
      "constant": true
    },
    {
      "inputs": [
        {
          "internalType": "uint256",
          "name": "currentTeamId",
          "type": "uint256"
        },
        {
          "internalType": "uint8",
          "name": "currentShirtNum",
          "type": "uint8"
        },
        {
          "internalType": "uint256",
          "name": "prevPlayerTeamId",
          "type": "uint256"
        },
        {
          "internalType": "uint256",
          "name": "lastSaleBlock",
          "type": "uint256"
        }
      ],
      "name": "encodePlayerState",
      "outputs": [
        {
          "internalType": "uint256",
          "name": "",
          "type": "uint256"
        }
      ],
      "stateMutability": "pure",
      "type": "function",
      "constant": true
    },
    {
      "inputs": [
        {
          "internalType": "uint8",
          "name": "timeZone",
          "type": "uint8"
        },
        {
          "internalType": "uint256",
          "name": "countryIdxInTZ",
          "type": "uint256"
        },
        {
          "internalType": "uint256",
          "name": "val",
          "type": "uint256"
        }
      ],
      "name": "encodeTZCountryAndVal",
      "outputs": [
        {
          "internalType": "uint256",
          "name": "",
          "type": "uint256"
        }
      ],
      "stateMutability": "pure",
      "type": "function",
      "constant": true
    },
    {
      "inputs": [],
      "name": "gameDeployDay",
      "outputs": [
        {
          "internalType": "uint256",
          "name": "",
          "type": "uint256"
        }
      ],
      "stateMutability": "view",
      "type": "function",
      "constant": true
    },
    {
      "inputs": [
        {
          "internalType": "uint256",
          "name": "remainingAcqs",
          "type": "uint256"
        },
        {
          "internalType": "uint8",
          "name": "acq",
          "type": "uint8"
        }
      ],
      "name": "getAcquisitionConstraintNRemain",
      "outputs": [
        {
          "internalType": "uint8",
          "name": "",
          "type": "uint8"
        }
      ],
      "stateMutability": "pure",
      "type": "function",
      "constant": true
    },
    {
      "inputs": [
        {
          "internalType": "uint256",
          "name": "remainingAcqs",
          "type": "uint256"
        },
        {
          "internalType": "uint8",
          "name": "acq",
          "type": "uint8"
        }
      ],
      "name": "getAcquisitionConstraintValidUntil",
      "outputs": [
        {
          "internalType": "uint32",
          "name": "",
          "type": "uint32"
        }
      ],
      "stateMutability": "pure",
      "type": "function",
      "constant": true
    },
    {
      "inputs": [
        {
          "internalType": "uint256",
          "name": "encodedSkills",
          "type": "uint256"
        }
      ],
      "name": "getAggressiveness",
      "outputs": [
        {
          "internalType": "uint256",
          "name": "",
          "type": "uint256"
        }
      ],
      "stateMutability": "pure",
      "type": "function",
      "constant": true
    },
    {
      "inputs": [
        {
          "internalType": "uint256",
          "name": "encodedSkills",
          "type": "uint256"
        }
      ],
      "name": "getAlignedEndOfFirstHalf",
      "outputs": [
        {
          "internalType": "bool",
          "name": "",
          "type": "bool"
        }
      ],
      "stateMutability": "pure",
      "type": "function",
      "constant": true
    },
    {
      "inputs": [
        {
          "internalType": "uint256",
          "name": "encodedSkills",
          "type": "uint256"
        }
      ],
      "name": "getBirthDay",
      "outputs": [
        {
          "internalType": "uint256",
          "name": "",
          "type": "uint256"
        }
      ],
      "stateMutability": "pure",
      "type": "function",
      "constant": true
    },
    {
      "inputs": [],
      "name": "getBlockchainNowTime",
      "outputs": [
        {
          "internalType": "uint256",
          "name": "",
          "type": "uint256"
        }
      ],
      "stateMutability": "view",
      "type": "function",
      "constant": true
    },
    {
      "inputs": [
        {
          "internalType": "uint8",
          "name": "tz",
          "type": "uint8"
        }
      ],
      "name": "getCurrentRound",
      "outputs": [
        {
          "internalType": "uint256",
          "name": "",
          "type": "uint256"
        }
      ],
      "stateMutability": "view",
      "type": "function",
      "constant": true
    },
    {
      "inputs": [
        {
          "internalType": "uint8",
          "name": "tz",
          "type": "uint8"
        },
        {
          "internalType": "uint8",
          "name": "tz1",
          "type": "uint8"
        },
        {
          "internalType": "uint256",
          "name": "verse",
          "type": "uint256"
        }
      ],
      "name": "getCurrentRoundPure",
      "outputs": [
        {
          "internalType": "uint256",
          "name": "",
          "type": "uint256"
        }
      ],
      "stateMutability": "pure",
      "type": "function",
      "constant": true
    },
    {
      "inputs": [
        {
          "internalType": "uint256",
          "name": "playerState",
          "type": "uint256"
        }
      ],
      "name": "getCurrentShirtNum",
      "outputs": [
        {
          "internalType": "uint256",
          "name": "",
          "type": "uint256"
        }
      ],
      "stateMutability": "pure",
      "type": "function",
      "constant": true
    },
    {
      "inputs": [
        {
          "internalType": "uint256",
          "name": "playerId",
          "type": "uint256"
        }
      ],
      "name": "getCurrentTeamIdFromPlayerId",
      "outputs": [
        {
          "internalType": "uint256",
          "name": "",
          "type": "uint256"
        }
      ],
      "stateMutability": "view",
      "type": "function",
      "constant": true
    },
    {
      "inputs": [
        {
          "internalType": "uint256",
          "name": "playerState",
          "type": "uint256"
        }
      ],
      "name": "getCurrentTeamIdFromPlayerState",
      "outputs": [
        {
          "internalType": "uint256",
          "name": "",
          "type": "uint256"
        }
      ],
      "stateMutability": "pure",
      "type": "function",
      "constant": true
    },
    {
      "inputs": [
        {
          "internalType": "uint8",
          "name": "timeZone",
          "type": "uint8"
        },
        {
          "internalType": "uint256",
          "name": "countryIdxInTZ",
          "type": "uint256"
        },
        {
          "internalType": "uint256",
          "name": "teamIdxInCountry",
          "type": "uint256"
        },
        {
          "internalType": "uint8",
          "name": "shirtNum",
          "type": "uint8"
        }
      ],
      "name": "getDefaultPlayerIdForTeamInCountry",
      "outputs": [
        {
          "internalType": "uint256",
          "name": "",
          "type": "uint256"
        }
      ],
      "stateMutability": "pure",
      "type": "function",
      "constant": true
    },
    {
      "inputs": [
        {
          "internalType": "uint256",
          "name": "encodedSkills",
          "type": "uint256"
        }
      ],
      "name": "getForwardness",
      "outputs": [
        {
          "internalType": "uint256",
          "name": "",
          "type": "uint256"
        }
      ],
      "stateMutability": "pure",
      "type": "function",
      "constant": true
    },
    {
      "inputs": [
        {
          "internalType": "uint256",
          "name": "teamId",
          "type": "uint256"
        }
      ],
      "name": "getFreeShirt",
      "outputs": [
        {
          "internalType": "uint8",
          "name": "",
          "type": "uint8"
        }
      ],
      "stateMutability": "view",
      "type": "function",
      "constant": true
    },
    {
      "inputs": [
        {
          "internalType": "uint256",
          "name": "encodedSkills",
          "type": "uint256"
        }
      ],
      "name": "getGamesNonStopping",
      "outputs": [
        {
          "internalType": "uint8",
          "name": "",
          "type": "uint8"
        }
      ],
      "stateMutability": "pure",
      "type": "function",
      "constant": true
    },
    {
      "inputs": [
        {
          "internalType": "uint256",
          "name": "encodedSkills",
          "type": "uint256"
        }
      ],
      "name": "getGeneration",
      "outputs": [
        {
          "internalType": "uint256",
          "name": "",
          "type": "uint256"
        }
      ],
      "stateMutability": "pure",
      "type": "function",
      "constant": true
    },
    {
      "inputs": [
        {
          "internalType": "uint256",
          "name": "encodedSkills",
          "type": "uint256"
        }
      ],
      "name": "getInjuryWeeksLeft",
      "outputs": [
        {
          "internalType": "uint8",
          "name": "",
          "type": "uint8"
        }
      ],
      "stateMutability": "pure",
      "type": "function",
      "constant": true
    },
    {
      "inputs": [
        {
          "internalType": "uint256",
          "name": "encodedSkills",
          "type": "uint256"
        }
      ],
      "name": "getInternalPlayerId",
      "outputs": [
        {
          "internalType": "uint256",
          "name": "",
          "type": "uint256"
        }
      ],
      "stateMutability": "pure",
      "type": "function",
      "constant": true
    },
    {
      "inputs": [
        {
          "internalType": "uint256",
          "name": "state",
          "type": "uint256"
        }
      ],
      "name": "getIsInTransitFromState",
      "outputs": [
        {
          "internalType": "bool",
          "name": "",
          "type": "bool"
        }
      ],
      "stateMutability": "pure",
      "type": "function",
      "constant": true
    },
    {
      "inputs": [
        {
          "internalType": "uint256",
          "name": "encodedSkills",
          "type": "uint256"
        }
      ],
      "name": "getIsSpecial",
      "outputs": [
        {
          "internalType": "bool",
          "name": "",
          "type": "bool"
        }
      ],
      "stateMutability": "pure",
      "type": "function",
      "constant": true
    },
    {
      "inputs": [
        {
          "internalType": "uint256",
          "name": "playerState",
          "type": "uint256"
        }
      ],
      "name": "getLastSaleBlock",
      "outputs": [
        {
          "internalType": "uint256",
          "name": "",
          "type": "uint256"
        }
      ],
      "stateMutability": "pure",
      "type": "function",
      "constant": true
    },
    {
      "inputs": [
        {
          "internalType": "uint256",
          "name": "encodedSkills",
          "type": "uint256"
        }
      ],
      "name": "getLeftishness",
      "outputs": [
        {
          "internalType": "uint256",
          "name": "",
          "type": "uint256"
        }
      ],
      "stateMutability": "pure",
      "type": "function",
      "constant": true
    },
    {
      "inputs": [
        {
          "internalType": "uint256",
          "name": "teamId",
          "type": "uint256"
        }
      ],
      "name": "getMaxAllowedAcquisitions",
      "outputs": [
        {
          "internalType": "bool",
          "name": "isConstrained",
          "type": "bool"
        },
        {
          "internalType": "uint8",
          "name": "",
          "type": "uint8"
        }
      ],
      "stateMutability": "view",
      "type": "function",
      "constant": true
    },
    {
      "inputs": [
        {
          "internalType": "uint8",
          "name": "timeZone",
          "type": "uint8"
        },
        {
          "internalType": "uint256",
          "name": "countryIdxInTZ",
          "type": "uint256"
        }
      ],
      "name": "getNDivisionsInCountry",
      "outputs": [
        {
          "internalType": "uint256",
          "name": "",
          "type": "uint256"
        }
      ],
      "stateMutability": "view",
      "type": "function",
      "constant": true
    },
    {
      "inputs": [
        {
          "internalType": "uint8",
          "name": "timeZone",
          "type": "uint8"
        },
        {
          "internalType": "uint256",
          "name": "countryIdxInTZ",
          "type": "uint256"
        }
      ],
      "name": "getNHumansInCountry",
      "outputs": [
        {
          "internalType": "uint256",
          "name": "",
          "type": "uint256"
        }
      ],
      "stateMutability": "view",
      "type": "function",
      "constant": true
    },
    {
      "inputs": [
        {
          "internalType": "uint8",
          "name": "timeZone",
          "type": "uint8"
        },
        {
          "internalType": "uint256",
          "name": "countryIdxInTZ",
          "type": "uint256"
        }
      ],
      "name": "getNLeaguesInCountry",
      "outputs": [
        {
          "internalType": "uint256",
          "name": "",
          "type": "uint256"
        }
      ],
      "stateMutability": "view",
      "type": "function",
      "constant": true
    },
    {
      "inputs": [
        {
          "internalType": "uint256",
          "name": "teamId",
          "type": "uint256"
        }
      ],
      "name": "getNPlayersInTransitInTeam",
      "outputs": [
        {
          "internalType": "uint8",
          "name": "",
          "type": "uint8"
        }
      ],
      "stateMutability": "view",
      "type": "function",
      "constant": true
    },
    {
      "inputs": [
        {
          "internalType": "uint8",
          "name": "timeZone",
          "type": "uint8"
        },
        {
          "internalType": "uint256",
          "name": "countryIdxInTZ",
          "type": "uint256"
        }
      ],
      "name": "getNTeamsInCountry",
      "outputs": [
        {
          "internalType": "uint256",
          "name": "",
          "type": "uint256"
        }
      ],
      "stateMutability": "view",
      "type": "function",
      "constant": true
    },
    {
      "inputs": [],
      "name": "getNewMaxSumSkillsBuyNowPlayer",
      "outputs": [
        {
          "internalType": "uint256",
          "name": "sumSkills",
          "type": "uint256"
        },
        {
          "internalType": "uint256",
          "name": "minLapseTime",
          "type": "uint256"
        },
        {
          "internalType": "uint256",
          "name": "lastUpdate",
          "type": "uint256"
        }
      ],
      "stateMutability": "view",
      "type": "function",
      "constant": true
    },
    {
      "inputs": [
        {
          "internalType": "uint256",
          "name": "encodedSkills",
          "type": "uint256"
        }
      ],
      "name": "getOutOfGameFirstHalf",
      "outputs": [
        {
          "internalType": "bool",
          "name": "",
          "type": "bool"
        }
      ],
      "stateMutability": "pure",
      "type": "function",
      "constant": true
    },
    {
      "inputs": [
        {
          "internalType": "uint256",
          "name": "playerId",
          "type": "uint256"
        }
      ],
      "name": "getOwnerPlayer",
      "outputs": [
        {
          "internalType": "address",
          "name": "",
          "type": "address"
        }
      ],
      "stateMutability": "view",
      "type": "function",
      "constant": true
    },
    {
      "inputs": [
        {
          "internalType": "uint256",
          "name": "teamId",
          "type": "uint256"
        }
      ],
      "name": "getOwnerTeam",
      "outputs": [
        {
          "internalType": "address",
          "name": "",
          "type": "address"
        }
      ],
      "stateMutability": "view",
      "type": "function",
      "constant": true
    },
    {
      "inputs": [
        {
          "internalType": "uint8",
          "name": "timeZone",
          "type": "uint8"
        },
        {
          "internalType": "uint256",
          "name": "countryIdxInTZ",
          "type": "uint256"
        },
        {
          "internalType": "uint256",
          "name": "teamIdxInCountry",
          "type": "uint256"
        }
      ],
      "name": "getOwnerTeamInCountry",
      "outputs": [
        {
          "internalType": "address",
          "name": "",
          "type": "address"
        }
      ],
      "stateMutability": "view",
      "type": "function",
      "constant": true
    },
    {
      "inputs": [
        {
          "internalType": "uint256",
          "name": "encodedSkills",
          "type": "uint256"
        }
      ],
      "name": "getPlayerIdFromSkills",
      "outputs": [
        {
          "internalType": "uint256",
          "name": "",
          "type": "uint256"
        }
      ],
      "stateMutability": "pure",
      "type": "function",
      "constant": true
    },
    {
      "inputs": [
        {
          "internalType": "uint256",
          "name": "teamId",
          "type": "uint256"
        }
      ],
      "name": "getPlayerIdsInTeam",
      "outputs": [
        {
          "internalType": "uint256[25]",
          "name": "playerIds",
          "type": "uint256[25]"
        }
      ],
      "stateMutability": "view",
      "type": "function",
      "constant": true
    },
    {
      "inputs": [
        {
          "internalType": "uint256",
          "name": "playerId",
          "type": "uint256"
        }
      ],
      "name": "getPlayerState",
      "outputs": [
        {
          "internalType": "uint256",
          "name": "",
          "type": "uint256"
        }
      ],
      "stateMutability": "view",
      "type": "function",
      "constant": true
    },
    {
      "inputs": [
        {
          "internalType": "uint256",
          "name": "playerId",
          "type": "uint256"
        }
      ],
      "name": "getPlayerStateAtBirth",
      "outputs": [
        {
          "internalType": "uint256",
          "name": "",
          "type": "uint256"
        }
      ],
      "stateMutability": "pure",
      "type": "function",
      "constant": true
    },
    {
      "inputs": [
        {
          "internalType": "uint256",
          "name": "encodedSkills",
          "type": "uint256"
        }
      ],
      "name": "getPotential",
      "outputs": [
        {
          "internalType": "uint256",
          "name": "",
          "type": "uint256"
        }
      ],
      "stateMutability": "pure",
      "type": "function",
      "constant": true
    },
    {
      "inputs": [
        {
          "internalType": "uint256",
          "name": "playerState",
          "type": "uint256"
        }
      ],
      "name": "getPrevPlayerTeamId",
      "outputs": [
        {
          "internalType": "uint256",
          "name": "",
          "type": "uint256"
        }
      ],
      "stateMutability": "pure",
      "type": "function",
      "constant": true
    },
    {
      "inputs": [
        {
          "internalType": "uint256",
          "name": "encodedSkills",
          "type": "uint256"
        }
      ],
      "name": "getRedCardLastGame",
      "outputs": [
        {
          "internalType": "bool",
          "name": "",
          "type": "bool"
        }
      ],
      "stateMutability": "pure",
      "type": "function",
      "constant": true
    },
    {
      "inputs": [
        {
          "internalType": "uint256",
          "name": "encodedSkills",
          "type": "uint256"
        },
        {
          "internalType": "uint8",
          "name": "skillIdx",
          "type": "uint8"
        }
      ],
      "name": "getSkill",
      "outputs": [
        {
          "internalType": "uint256",
          "name": "",
          "type": "uint256"
        }
      ],
      "stateMutability": "pure",
      "type": "function",
      "constant": true
    },
    {
      "inputs": [
        {
          "internalType": "uint256",
          "name": "encodedSkills",
          "type": "uint256"
        }
      ],
      "name": "getSubstitutedFirstHalf",
      "outputs": [
        {
          "internalType": "bool",
          "name": "",
          "type": "bool"
        }
      ],
      "stateMutability": "pure",
      "type": "function",
      "constant": true
    },
    {
      "inputs": [
        {
          "internalType": "uint256",
          "name": "encodedSkills",
          "type": "uint256"
        }
      ],
      "name": "getSumOfSkills",
      "outputs": [
        {
          "internalType": "uint256",
          "name": "",
          "type": "uint256"
        }
      ],
      "stateMutability": "pure",
      "type": "function",
      "constant": true
    },
    {
      "inputs": [
        {
          "internalType": "uint256",
          "name": "encodedSkills",
          "type": "uint256"
        }
      ],
      "name": "getYellowCardFirstHalf",
      "outputs": [
        {
          "internalType": "bool",
          "name": "",
          "type": "bool"
        }
      ],
      "stateMutability": "pure",
      "type": "function",
      "constant": true
    },
    {
      "inputs": [
        {
          "internalType": "uint256",
          "name": "extraPrice",
          "type": "uint256"
        },
        {
          "internalType": "uint256",
          "name": "rnd",
          "type": "uint256"
        }
      ],
      "name": "hashBidHiddenPrice",
      "outputs": [
        {
          "internalType": "bytes32",
          "name": "",
          "type": "bytes32"
        }
      ],
      "stateMutability": "pure",
      "type": "function",
      "constant": true
    },
    {
      "inputs": [
        {
          "internalType": "uint8",
          "name": "currencyId",
          "type": "uint8"
        },
        {
          "internalType": "uint256",
          "name": "price",
          "type": "uint256"
        },
        {
          "internalType": "uint256",
          "name": "rnd",
          "type": "uint256"
        }
      ],
      "name": "hashPrivateMsg",
      "outputs": [
        {
          "internalType": "bytes32",
          "name": "",
          "type": "bytes32"
        }
      ],
      "stateMutability": "pure",
      "type": "function",
      "constant": true
    },
    {
      "inputs": [
        {
          "internalType": "uint256",
          "name": "remainingAcqs",
          "type": "uint256"
        },
        {
          "internalType": "uint8",
          "name": "acq",
          "type": "uint8"
        }
      ],
      "name": "isAcquisitionFree",
      "outputs": [
        {
          "internalType": "bool",
          "name": "",
          "type": "bool"
        }
      ],
      "stateMutability": "view",
      "type": "function",
      "constant": true
    },
    {
      "inputs": [
        {
          "internalType": "uint256",
          "name": "teamId",
          "type": "uint256"
        }
      ],
      "name": "isBotTeam",
      "outputs": [
        {
          "internalType": "bool",
          "name": "",
          "type": "bool"
        }
      ],
      "stateMutability": "view",
      "type": "function",
      "constant": true
    },
    {
      "inputs": [
        {
          "internalType": "uint8",
          "name": "timeZone",
          "type": "uint8"
        },
        {
          "internalType": "uint256",
          "name": "countryIdxInTZ",
          "type": "uint256"
        },
        {
          "internalType": "uint256",
          "name": "teamIdxInCountry",
          "type": "uint256"
        }
      ],
      "name": "isBotTeamInCountry",
      "outputs": [
        {
          "internalType": "bool",
          "name": "",
          "type": "bool"
        }
      ],
      "stateMutability": "view",
      "type": "function",
      "constant": true
    },
    {
      "inputs": [
        {
          "internalType": "uint256",
          "name": "playerId",
          "type": "uint256"
        },
        {
          "internalType": "uint8",
          "name": "shirtNum",
          "type": "uint8"
        }
      ],
      "name": "isFreeShirt",
      "outputs": [
        {
          "internalType": "bool",
          "name": "",
          "type": "bool"
        }
      ],
      "stateMutability": "pure",
      "type": "function",
      "constant": true
    },
    {
      "inputs": [
        {
          "internalType": "uint256",
          "name": "playerId",
          "type": "uint256"
        }
      ],
      "name": "isPlayerDismissed",
      "outputs": [
        {
          "internalType": "bool",
          "name": "",
          "type": "bool"
        }
      ],
      "stateMutability": "view",
      "type": "function",
      "constant": true
    },
    {
      "inputs": [
        {
          "internalType": "uint256",
          "name": "playerId",
          "type": "uint256"
        }
      ],
      "name": "isPlayerFrozenFiat",
      "outputs": [
        {
          "internalType": "bool",
          "name": "",
          "type": "bool"
        }
      ],
      "stateMutability": "view",
      "type": "function",
      "constant": true
    },
    {
      "inputs": [
        {
          "internalType": "uint256",
          "name": "playerId",
          "type": "uint256"
        }
      ],
      "name": "isPlayerFrozenInAnyMarket",
      "outputs": [
        {
          "internalType": "bool",
          "name": "",
          "type": "bool"
        }
      ],
      "stateMutability": "view",
      "type": "function",
      "constant": true
    },
    {
      "inputs": [
        {
          "internalType": "address",
          "name": "_addr",
          "type": "address"
        },
        {
          "internalType": "bytes32",
          "name": "msgHash",
          "type": "bytes32"
        },
        {
          "internalType": "uint8",
          "name": "v",
          "type": "uint8"
        },
        {
          "internalType": "bytes32",
          "name": "r",
          "type": "bytes32"
        },
        {
          "internalType": "bytes32",
          "name": "s",
          "type": "bytes32"
        }
      ],
      "name": "isSigned",
      "outputs": [
        {
          "internalType": "bool",
          "name": "",
          "type": "bool"
        }
      ],
      "stateMutability": "pure",
      "type": "function",
      "constant": true
    },
    {
      "inputs": [
        {
          "internalType": "uint256",
          "name": "teamId",
          "type": "uint256"
        }
      ],
      "name": "isTeamFrozen",
      "outputs": [
        {
          "internalType": "bool",
          "name": "",
          "type": "bool"
        }
      ],
      "stateMutability": "view",
      "type": "function",
      "constant": true
    },
    {
      "inputs": [],
      "name": "market",
      "outputs": [
        {
          "internalType": "address",
          "name": "",
          "type": "address"
        }
      ],
      "stateMutability": "view",
      "type": "function",
      "constant": true
    },
    {
      "inputs": [],
      "name": "nextTimeZoneToUpdate",
      "outputs": [
        {
          "internalType": "uint8",
          "name": "tz",
          "type": "uint8"
        },
        {
          "internalType": "uint8",
          "name": "day",
          "type": "uint8"
        },
        {
          "internalType": "uint8",
          "name": "turnInDay",
          "type": "uint8"
        }
      ],
      "stateMutability": "view",
      "type": "function",
      "constant": true
    },
    {
      "inputs": [
        {
          "internalType": "uint256",
          "name": "tz",
          "type": "uint256"
        }
      ],
      "name": "normalizeTZ",
      "outputs": [
        {
          "internalType": "uint8",
          "name": "",
          "type": "uint8"
        }
      ],
      "stateMutability": "pure",
      "type": "function",
      "constant": true
    },
    {
      "inputs": [
        {
          "internalType": "bytes32",
          "name": "hash",
          "type": "bytes32"
        }
      ],
      "name": "prefixed",
      "outputs": [
        {
          "internalType": "bytes32",
          "name": "",
          "type": "bytes32"
        }
      ],
      "stateMutability": "pure",
      "type": "function",
      "constant": true
    },
    {
      "inputs": [],
      "name": "prevTimeZoneToUpdate",
      "outputs": [
        {
          "internalType": "uint8",
          "name": "tz",
          "type": "uint8"
        },
        {
          "internalType": "uint8",
          "name": "day",
          "type": "uint8"
        },
        {
          "internalType": "uint8",
          "name": "turnInDay",
          "type": "uint8"
        }
      ],
      "stateMutability": "view",
      "type": "function",
      "constant": true
    },
    {
      "inputs": [
        {
          "internalType": "bytes32",
          "name": "msgHash",
          "type": "bytes32"
        },
        {
          "internalType": "uint8",
          "name": "v",
          "type": "uint8"
        },
        {
          "internalType": "bytes32",
          "name": "r",
          "type": "bytes32"
        },
        {
          "internalType": "bytes32",
          "name": "s",
          "type": "bytes32"
        }
      ],
      "name": "recoverAddr",
      "outputs": [
        {
          "internalType": "address",
          "name": "",
          "type": "address"
        }
      ],
      "stateMutability": "pure",
      "type": "function",
      "constant": true
    },
    {
      "inputs": [],
      "name": "relay",
      "outputs": [
        {
          "internalType": "address",
          "name": "",
          "type": "address"
        }
      ],
      "stateMutability": "view",
      "type": "function",
      "constant": true
    },
    {
      "inputs": [
        {
          "internalType": "uint256",
          "name": "remainingAcqs",
          "type": "uint256"
        },
        {
          "internalType": "uint32",
          "name": "validUntil",
          "type": "uint32"
        },
        {
          "internalType": "uint8",
          "name": "nRemain",
          "type": "uint8"
        },
        {
          "internalType": "uint8",
          "name": "acq",
          "type": "uint8"
        }
      ],
      "name": "setAcquisitionConstraint",
      "outputs": [
        {
          "internalType": "uint256",
          "name": "",
          "type": "uint256"
        }
      ],
      "stateMutability": "pure",
      "type": "function",
      "constant": true
    },
    {
      "inputs": [
        {
          "internalType": "uint256",
          "name": "encodedSkills",
          "type": "uint256"
        },
        {
          "internalType": "bool",
          "name": "val",
          "type": "bool"
        }
      ],
      "name": "setAlignedEndOfFirstHalf",
      "outputs": [
        {
          "internalType": "uint256",
          "name": "",
          "type": "uint256"
        }
      ],
      "stateMutability": "pure",
      "type": "function",
      "constant": true
    },
    {
      "inputs": [
        {
          "internalType": "uint256",
          "name": "state",
          "type": "uint256"
        },
        {
          "internalType": "uint8",
          "name": "currentShirtNum",
          "type": "uint8"
        }
      ],
      "name": "setCurrentShirtNum",
      "outputs": [
        {
          "internalType": "uint256",
          "name": "",
          "type": "uint256"
        }
      ],
      "stateMutability": "pure",
      "type": "function",
      "constant": true
    },
    {
      "inputs": [
        {
          "internalType": "uint256",
          "name": "playerState",
          "type": "uint256"
        },
        {
          "internalType": "uint256",
          "name": "teamId",
          "type": "uint256"
        }
      ],
      "name": "setCurrentTeamId",
      "outputs": [
        {
          "internalType": "uint256",
          "name": "",
          "type": "uint256"
        }
      ],
      "stateMutability": "pure",
      "type": "function",
      "constant": true
    },
    {
      "inputs": [
        {
          "internalType": "uint256",
          "name": "encodedSkills",
          "type": "uint256"
        },
        {
          "internalType": "uint8",
          "name": "val",
          "type": "uint8"
        }
      ],
      "name": "setGamesNonStopping",
      "outputs": [
        {
          "internalType": "uint256",
          "name": "",
          "type": "uint256"
        }
      ],
      "stateMutability": "pure",
      "type": "function",
      "constant": true
    },
    {
      "inputs": [
        {
          "internalType": "uint256",
          "name": "encodedSkills",
          "type": "uint256"
        },
        {
          "internalType": "uint32",
          "name": "val",
          "type": "uint32"
        }
      ],
      "name": "setGeneration",
      "outputs": [
        {
          "internalType": "uint256",
          "name": "",
          "type": "uint256"
        }
      ],
      "stateMutability": "pure",
      "type": "function",
      "constant": true
    },
    {
      "inputs": [
        {
          "internalType": "uint256",
          "name": "encodedSkills",
          "type": "uint256"
        },
        {
          "internalType": "uint8",
          "name": "val",
          "type": "uint8"
        }
      ],
      "name": "setInjuryWeeksLeft",
      "outputs": [
        {
          "internalType": "uint256",
          "name": "",
          "type": "uint256"
        }
      ],
      "stateMutability": "pure",
      "type": "function",
      "constant": true
    },
    {
      "inputs": [
        {
          "internalType": "uint256",
          "name": "state",
          "type": "uint256"
        },
        {
          "internalType": "uint256",
          "name": "lastSaleBlock",
          "type": "uint256"
        }
      ],
      "name": "setLastSaleBlock",
      "outputs": [
        {
          "internalType": "uint256",
          "name": "",
          "type": "uint256"
        }
      ],
      "stateMutability": "pure",
      "type": "function",
      "constant": true
    },
    {
      "inputs": [
        {
          "internalType": "uint256",
          "name": "encodedSkills",
          "type": "uint256"
        },
        {
          "internalType": "bool",
          "name": "val",
          "type": "bool"
        }
      ],
      "name": "setOutOfGameFirstHalf",
      "outputs": [
        {
          "internalType": "uint256",
          "name": "",
          "type": "uint256"
        }
      ],
      "stateMutability": "pure",
      "type": "function",
      "constant": true
    },
    {
      "inputs": [
        {
          "internalType": "uint256",
          "name": "encodedSkills",
          "type": "uint256"
        },
        {
          "internalType": "uint256",
          "name": "val",
          "type": "uint256"
        }
      ],
      "name": "setPotential",
      "outputs": [
        {
          "internalType": "uint256",
          "name": "",
          "type": "uint256"
        }
      ],
      "stateMutability": "pure",
      "type": "function",
      "constant": true
    },
    {
      "inputs": [
        {
          "internalType": "uint256",
          "name": "state",
          "type": "uint256"
        },
        {
          "internalType": "uint256",
          "name": "value",
          "type": "uint256"
        }
      ],
      "name": "setPrevPlayerTeamId",
      "outputs": [
        {
          "internalType": "uint256",
          "name": "",
          "type": "uint256"
        }
      ],
      "stateMutability": "pure",
      "type": "function",
      "constant": true
    },
    {
      "inputs": [
        {
          "internalType": "uint256",
          "name": "encodedSkills",
          "type": "uint256"
        },
        {
          "internalType": "bool",
          "name": "val",
          "type": "bool"
        }
      ],
      "name": "setRedCardLastGame",
      "outputs": [
        {
          "internalType": "uint256",
          "name": "",
          "type": "uint256"
        }
      ],
      "stateMutability": "pure",
      "type": "function",
      "constant": true
    },
    {
      "inputs": [
        {
          "internalType": "uint256",
          "name": "encodedSkills",
          "type": "uint256"
        },
        {
          "internalType": "uint256",
          "name": "val",
          "type": "uint256"
        },
        {
          "internalType": "uint8",
          "name": "skillIdx",
          "type": "uint8"
        }
      ],
      "name": "setSkill",
      "outputs": [
        {
          "internalType": "uint256",
          "name": "",
          "type": "uint256"
        }
      ],
      "stateMutability": "pure",
      "type": "function",
      "constant": true
    },
    {
      "inputs": [
        {
          "internalType": "uint256",
          "name": "encodedSkills",
          "type": "uint256"
        },
        {
          "internalType": "bool",
          "name": "val",
          "type": "bool"
        }
      ],
      "name": "setSubstitutedFirstHalf",
      "outputs": [
        {
          "internalType": "uint256",
          "name": "",
          "type": "uint256"
        }
      ],
      "stateMutability": "pure",
      "type": "function",
      "constant": true
    },
    {
      "inputs": [
        {
          "internalType": "uint256",
          "name": "encodedSkills",
          "type": "uint256"
        },
        {
          "internalType": "uint32",
          "name": "val",
          "type": "uint32"
        }
      ],
      "name": "setSumOfSkills",
      "outputs": [
        {
          "internalType": "uint256",
          "name": "",
          "type": "uint256"
        }
      ],
      "stateMutability": "pure",
      "type": "function",
      "constant": true
    },
    {
      "inputs": [
        {
          "internalType": "uint256",
          "name": "encodedSkills",
          "type": "uint256"
        },
        {
          "internalType": "bool",
          "name": "val",
          "type": "bool"
        }
      ],
      "name": "setYellowCardFirstHalf",
      "outputs": [
        {
          "internalType": "uint256",
          "name": "",
          "type": "uint256"
        }
      ],
      "stateMutability": "pure",
      "type": "function",
      "constant": true
    },
    {
      "inputs": [
        {
          "internalType": "uint8",
          "name": "timeZone",
          "type": "uint8"
        },
        {
          "internalType": "uint256",
          "name": "countryIdxInTZ",
          "type": "uint256"
        },
        {
          "internalType": "uint256",
          "name": "teamIdxInCountry",
          "type": "uint256"
        }
      ],
      "name": "teamExistsInCountry",
      "outputs": [
        {
          "internalType": "bool",
          "name": "",
          "type": "bool"
        }
      ],
      "stateMutability": "view",
      "type": "function",
      "constant": true
    },
    {
      "inputs": [
        {
          "internalType": "uint256",
          "name": "verse",
          "type": "uint256"
        },
        {
          "internalType": "uint8",
          "name": "TZForRound1",
          "type": "uint8"
        }
      ],
      "name": "timeZoneToUpdatePure",
      "outputs": [
        {
          "internalType": "uint8",
          "name": "timezone",
          "type": "uint8"
        },
        {
          "internalType": "uint8",
          "name": "day",
          "type": "uint8"
        },
        {
          "internalType": "uint8",
          "name": "turnInDay",
          "type": "uint8"
        }
      ],
      "stateMutability": "pure",
      "type": "function",
      "constant": true
    },
    {
      "inputs": [
        {
          "internalType": "uint8",
          "name": "timeZone",
          "type": "uint8"
        }
      ],
      "name": "tzExists",
      "outputs": [
        {
          "internalType": "bool",
          "name": "",
          "type": "bool"
        }
      ],
      "stateMutability": "pure",
      "type": "function",
      "constant": true
    },
    {
      "inputs": [
        {
          "internalType": "uint8",
          "name": "timeZone",
          "type": "uint8"
        },
        {
          "internalType": "uint256",
          "name": "countryIdxInTZ",
          "type": "uint256"
        },
        {
          "internalType": "uint256",
          "name": "playerIdxInCountry",
          "type": "uint256"
        }
      ],
      "name": "wasPlayerCreatedInCountry",
      "outputs": [
        {
          "internalType": "bool",
          "name": "",
          "type": "bool"
        }
      ],
      "stateMutability": "view",
      "type": "function",
      "constant": true
    },
    {
      "inputs": [
        {
          "internalType": "uint256",
          "name": "playerId",
          "type": "uint256"
        }
      ],
      "name": "wasPlayerCreatedVirtually",
      "outputs": [
        {
          "internalType": "bool",
          "name": "",
          "type": "bool"
        }
      ],
      "stateMutability": "view",
      "type": "function",
      "constant": true
    },
    {
      "inputs": [
        {
          "internalType": "uint256",
          "name": "teamId",
          "type": "uint256"
        }
      ],
      "name": "wasTeamCreatedVirtually",
      "outputs": [
        {
          "internalType": "bool",
          "name": "",
          "type": "bool"
        }
      ],
      "stateMutability": "view",
      "type": "function",
      "constant": true
    },
    {
      "inputs": [
        {
          "internalType": "address",
          "name": "addr",
          "type": "address"
        }
      ],
      "name": "setCryptoMarketAddress",
      "outputs": [],
      "stateMutability": "nonpayable",
      "type": "function"
    },
    {
      "inputs": [
        {
          "internalType": "uint256",
          "name": "teamId",
          "type": "uint256"
        },
        {
          "internalType": "bool",
          "name": "isAllowed",
          "type": "bool"
        }
      ],
      "name": "setIsBuyNowAllowedByOwner",
      "outputs": [],
      "stateMutability": "nonpayable",
      "type": "function"
    },
    {
      "inputs": [
        {
          "internalType": "uint256",
          "name": "playerId",
          "type": "uint256"
        },
        {
          "internalType": "bool",
          "name": "isFrozen",
          "type": "bool"
        }
      ],
      "name": "setIsPlayerFrozenCrypto",
      "outputs": [],
      "stateMutability": "nonpayable",
      "type": "function"
    },
    {
      "inputs": [
        {
          "internalType": "uint256",
          "name": "newSumSkills",
          "type": "uint256"
        },
        {
          "internalType": "uint256",
          "name": "newLapseTime",
          "type": "uint256"
        }
      ],
      "name": "setNewMaxSumSkillsBuyNowPlayer",
      "outputs": [],
      "stateMutability": "nonpayable",
      "type": "function"
    },
    {
      "inputs": [
        {
          "internalType": "uint256",
          "name": "newMaxSum",
          "type": "uint256"
        }
      ],
      "name": "lowerNewMaxSumSkillsBuyNowPlayer",
      "outputs": [],
      "stateMutability": "nonpayable",
      "type": "function"
    },
    {
      "inputs": [
        {
          "internalType": "uint256",
          "name": "teamId",
          "type": "uint256"
        },
        {
          "internalType": "uint32",
          "name": "validUntil",
          "type": "uint32"
        },
        {
          "internalType": "uint8",
          "name": "nRemain",
          "type": "uint8"
        }
      ],
      "name": "addAcquisitionConstraint",
      "outputs": [],
      "stateMutability": "nonpayable",
      "type": "function"
    },
    {
      "inputs": [
        {
          "internalType": "bytes32",
          "name": "sellerHiddenPrice",
          "type": "bytes32"
        },
        {
          "internalType": "uint256",
          "name": "playerId",
          "type": "uint256"
        },
        {
          "internalType": "bytes32[2]",
          "name": "sig",
          "type": "bytes32[2]"
        },
        {
          "internalType": "uint8",
          "name": "sigV",
          "type": "uint8"
        },
        {
          "internalType": "uint32",
          "name": "validUntil",
          "type": "uint32"
        },
        {
          "internalType": "uint32",
          "name": "offerValidUntil",
          "type": "uint32"
        }
      ],
      "name": "freezePlayer",
      "outputs": [],
      "stateMutability": "nonpayable",
      "type": "function"
    },
    {
      "inputs": [
        {
          "internalType": "uint256",
          "name": "playerId",
          "type": "uint256"
        },
        {
          "internalType": "uint256",
          "name": "targetTeamId",
          "type": "uint256"
        }
      ],
      "name": "transferBuyNowPlayer",
      "outputs": [],
      "stateMutability": "nonpayable",
      "type": "function"
    },
    {
      "inputs": [
        {
          "internalType": "uint256",
          "name": "playerId",
          "type": "uint256"
        },
        {
          "internalType": "uint256",
          "name": "targetTeamId",
          "type": "uint256"
        }
      ],
      "name": "transferPlayerFromCryptoMkt",
      "outputs": [],
      "stateMutability": "nonpayable",
      "type": "function"
    },
    {
      "inputs": [
        {
          "internalType": "bytes32",
          "name": "auctionId",
          "type": "bytes32"
        },
        {
          "internalType": "uint256",
          "name": "playerId",
          "type": "uint256"
        },
        {
          "internalType": "bytes32",
          "name": "buyerHiddenPrice",
          "type": "bytes32"
        },
        {
          "internalType": "uint256",
          "name": "buyerTeamId",
          "type": "uint256"
        },
        {
          "internalType": "bytes32[2]",
          "name": "sig",
          "type": "bytes32[2]"
        },
        {
          "internalType": "uint8",
          "name": "sigV",
          "type": "uint8"
        }
      ],
      "name": "completePlayerAuction",
      "outputs": [],
      "stateMutability": "nonpayable",
      "type": "function"
    },
    {
      "inputs": [
        {
          "internalType": "bytes32",
          "name": "sellerHiddenPrice",
          "type": "bytes32"
        },
        {
          "internalType": "uint256",
          "name": "teamId",
          "type": "uint256"
        },
        {
          "internalType": "bytes32[2]",
          "name": "sig",
          "type": "bytes32[2]"
        },
        {
          "internalType": "uint8",
          "name": "sigV",
          "type": "uint8"
        },
        {
          "internalType": "uint32",
          "name": "validUntil",
          "type": "uint32"
        },
        {
          "internalType": "uint32",
          "name": "offerValidUntil",
          "type": "uint32"
        }
      ],
      "name": "freezeTeam",
      "outputs": [],
      "stateMutability": "nonpayable",
      "type": "function"
    },
    {
      "inputs": [
        {
          "internalType": "bytes32",
          "name": "auctionId",
          "type": "bytes32"
        },
        {
          "internalType": "uint256",
          "name": "teamId",
          "type": "uint256"
        },
        {
          "internalType": "bytes32",
          "name": "buyerHiddenPrice",
          "type": "bytes32"
        },
        {
          "internalType": "bytes32[2]",
          "name": "sig",
          "type": "bytes32[2]"
        },
        {
          "internalType": "uint8",
          "name": "sigV",
          "type": "uint8"
        },
        {
          "internalType": "address",
          "name": "buyerAddress",
          "type": "address"
        }
      ],
      "name": "completeTeamAuction",
      "outputs": [],
      "stateMutability": "nonpayable",
      "type": "function"
    },
    {
      "inputs": [
        {
          "internalType": "uint256",
          "name": "validUntil",
          "type": "uint256"
        },
        {
          "internalType": "uint256",
          "name": "playerId",
          "type": "uint256"
        },
        {
          "internalType": "bytes32",
          "name": "sigR",
          "type": "bytes32"
        },
        {
          "internalType": "bytes32",
          "name": "sigS",
          "type": "bytes32"
        },
        {
          "internalType": "uint8",
          "name": "sigV",
          "type": "uint8"
        }
      ],
      "name": "dismissPlayer",
      "outputs": [],
      "stateMutability": "nonpayable",
      "type": "function"
    },
    {
      "inputs": [
        {
          "internalType": "uint256",
          "name": "playerId",
          "type": "uint256"
        }
      ],
      "name": "completePlayerTransit",
      "outputs": [],
      "stateMutability": "nonpayable",
      "type": "function"
    }
  ],
  "bytecode": "0x608060405234801561001057600080fd5b506146c3806100206000396000f3fe608060405234801561001057600080fd5b50600436106107165760003560e01c806388660fbe116103a8578063cc7d473b116101f4578063e37528bb1161011a578063f2c35764116100b8578063facec57311610087578063facec5731461184f578063fc27bf4a14611875578063fcb8bb9214611898578063fcf9b3be146118d757610716565b8063f2c35764146117ef578063f2dc657f1461180c578063f7fdc82714610e78578063f9d0723d1461182957610716565b8063e804e519116100f4578063e804e51914611742578063eabf6a4b1461175f578063eb78b7b7146117b5578063ec7ecec5146117d257610716565b8063e37528bb146116d6578063e5df669f146116f3578063e7ff8b0e1461172557610716565b8063d403fabd11610192578063dcadab5c11610161578063dcadab5c1461166f578063dcc9ee3f1461168c578063e1b27e6b146116b1578063e2424cf8146116b957610716565b8063d403fabd14611604578063d64844eb14611624578063d8f73c3c14611641578063db43151d1461164957610716565b8063cebc43a6116101ce578063cebc43a6146115a5578063d02254a5146115ad578063d1b3d8fd146115ca578063d2f7967d146115e757610716565b8063cc7d473b146114f5578063ce506ec514611512578063cead46d91461153857610716565b8063a65dd6e6116102d9578063bbb1178011610277578063c37b1c2511610246578063c37b1c2514611488578063c395d7a8146114ab578063c566b5bc146114b3578063c5aedd2c146114d057610716565b8063bbb11780146113cf578063bfe0c384146113ff578063c04f6d5314611445578063c2bc41cd1461146b57610716565b8063acd742d3116102b3578063acd742d314611361578063af76cd0114611387578063b59589d1146113aa578063b94615ce146113b257610716565b8063a65dd6e6146112c4578063a67b15ff14611309578063aa17e5cd1461133b57610716565b8063920bee2f11610346578063963fcc8011610320578063963fcc801461123e57806398bccd5614611264578063a160324b14611281578063a21ef9fa146112a757610716565b8063920bee2f146111cd578063937074a1146111ea57806395c94c4d1461120757610716565b80638cfd3125116103825780638cfd3125146111335780638db977ba146111625780638de97f4f146111875780638f9da214146111b057610716565b806388660fbe146110a15780638a89148c1461110e5780638cc9a8d51461111657610716565b8063492afc691161056757806361c5d9ad1161049857806379e765971161043657806380f556051161040557806380f5560514610fe15780638194279814610fe95780638608ff431461102e5780638677ebe81461106057610716565b806379e7659714610f5b5780637ffa3a2e14610f7857806380bac70914610f9557806380c794ce14610fc157610716565b80636a6cb69f116104725780636a6cb69f14610ecf5780636f6c2ae014610ef557806376c2d96014610f125780637933e88314610f3e57610716565b806361c5d9ad14610e7857806363ef746014610e9b578063663c2e4b14610ec757610716565b806358ee321b116105055780635adb40f5116104df5780635adb40f514610da65780635d05977914610dcc5780635f794c2214610e095780635fe1310a14610e4057610716565b806358ee321b14610d1a578063595ef25b14610d4057806359d9703814610d6c57610716565b80634e905ea2116105415780634e905ea214610c825780634eb80ed014610ca7578063507b172314610cca57806356e3df9714610cfd57610716565b8063492afc6914610c065780634bea2a6914610c3f5780634db989fd14610c5c57610716565b806329d0dcfb1161064c57806337a86302116105ea5780633dbf3505116105b95780633dbf350514610b1b578063434807ad14610b81578063471d6e8014610b9e57806347524b6014610be957610716565b806337a8630214610a8c5780633889785814610aaf57806338c96b5c14610ad857806339d16fe314610af557610716565b8063332b8ea311610626578063332b8ea314610a1f57806333fdc10b14610a275780633518dd1d14610a4a57806336e3178214610a6757610716565b806329d0dcfb146109915780633118adcd146109b75780633260840b146109e057610716565b806314993bc5116106b95780631fc7768f116106935780631fc7768f146108f757806320748ae814610914578063228408b014610940578063266576081461097457610716565b806314993bc51461089a5780631a672b77146108b75780631f275713146108da57610716565b80630c84ee39116106f55780630c84ee39146107a95780631018d55f146107d05780631053db97146107fc5780631060c9c21461087d57610716565b80626e6ad11461071b578063022da63a1461075557806307c30b4d14610784575b600080fd5b6107386004803603602081101561073157600080fd5b5035611903565b60408051921515835260ff90911660208301528051918290030190f35b6107726004803603602081101561076b57600080fd5b50356119ae565b60408051918252519081900360200190f35b6107726004803603604081101561079a57600080fd5b508035906020013515156119bd565b6107ce600480360360408110156107bf57600080fd5b508035906020013515156119e9565b005b610772600480360360608110156107e657600080fd5b508035906020810135906040013560ff16611aa5565b610869600480360360e081101561081257600080fd5b604080518082018252833593602081013593810192909160808301918084019060029083908390808284376000920191909152509194505060ff82351692505063ffffffff60208201358116916040013516611ac2565b604080519115158252519081900360200190f35b6107726004803603602081101561089357600080fd5b5035611c41565b6107ce600480360360208110156108b057600080fd5b5035611c4c565b6107ce600480360360408110156108cd57600080fd5b5080359060200135611d2f565b610772600480360360208110156108f057600080fd5b5035611f7c565b6107726004803603602081101561090d57600080fd5b5035611fcd565b6107726004803603606081101561092a57600080fd5b5060ff8135169060208101359060400135611fd6565b6107726004803603608081101561095657600080fd5b5060ff813581169160208101359160408201359160600135166120f0565b6107726004803603602081101561098a57600080fd5b5035612123565b610772600480360360408110156109a757600080fd5b508035906020013560ff1661218e565b610772600480360360608110156109cd57600080fd5b508035906020810135906040013561219d565b6109fd600480360360208110156109f657600080fd5b50356121d4565b6040805160ff9094168452602084019290925282820152519081900360600190f35b6107726121f0565b6107ce60048036036040811015610a3d57600080fd5b50803590602001356121f7565b61077260048036036020811015610a6057600080fd5b503561226e565b61077260048036036040811015610a7d57600080fd5b50803590602001351515612277565b61077260048036036040811015610aa257600080fd5b50803590602001356122a1565b61077260048036036040811015610ac557600080fd5b508035906020013563ffffffff16612318565b61077260048036036020811015610aee57600080fd5b5035612334565b61086960048036036040811015610b0b57600080fd5b508035906020013560ff16612347565b610869600480360360e0811015610b3157600080fd5b6040805180820182528335936020810135938382013593606083013593918301929160c08301916080840190600290839083908082843760009201919091525091945050503560ff169050612375565b61077260048036036020811015610b9757600080fd5b503561247e565b610bc460048036036040811015610bb457600080fd5b508035906020013560ff16612487565b6040805160ff9485168152928416602084015292168183015290519081900360600190f35b61086960048036036020811015610bff57600080fd5b5035612551565b610c2360048036036020811015610c1c57600080fd5b503561255d565b604080516001600160a01b039092168252519081900360200190f35b61077260048036036020811015610c5557600080fd5b5035612579565b61077260048036036040811015610c7257600080fd5b508035906020013560ff16612587565b61077260048036036040811015610c9857600080fd5b50803590602001351515612602565b6107ce60048036036040811015610cbd57600080fd5b508035906020013561262c565b610ce760048036036020811015610ce057600080fd5b50356126d1565b6040805160ff9092168252519081900360200190f35b61077260048036036020811015610d1357600080fd5b503561274a565b610ce760048036036040811015610d3057600080fd5b508035906020013560ff16612753565b610c2360048036036060811015610d5657600080fd5b5060ff8135169060208101359060400135612763565b61077260048036036080811015610d8257600080fd5b5080359063ffffffff6020820135169060ff604082013581169160600135166127c0565b61077260048036036040811015610dbc57600080fd5b5060ff8135169060200135612800565b6107ce600480360360e0811015610de257600080fd5b50803590602081013590604081013590606081013590608081019060c0013560ff16612853565b61077260048036036080811015610e1f57600080fd5b5080359060208101359063ffffffff60408201358116916060013516612982565b6107ce600480360360a0811015610e5657600080fd5b508035906020810135906040810135906060810135906080013560ff166129cf565b61077260048036036040811015610e8e57600080fd5b5080359060200135612bc2565b61077260048036036060811015610eb157600080fd5b5060ff8135169060208101359060400135612bee565b610772612c2b565b61077260048036036040811015610ee557600080fd5b5060ff8135169060200135612c2f565b61077260048036036020811015610f0b57600080fd5b5035612c42565b61086960048036036060811015610f2857600080fd5b5060ff8135169060208101359060400135612c63565b61086960048036036020811015610f5457600080fd5b5035612c79565b610ce760048036036020811015610f7157600080fd5b5035612c8d565b61086960048036036020811015610f8e57600080fd5b5035612c96565b61086960048036036060811015610fab57600080fd5b5060ff8135169060208101359060400135612ca2565b61077260048036036020811015610fd757600080fd5b503560ff16612cc2565b610c23612cdc565b6107ce600480360360e0811015610fff57600080fd5b50803590602081013590604081019060ff6080820135169063ffffffff60a082013581169160c0013516612cec565b6107726004803603608081101561104457600080fd5b5080359060ff6020820135169060408101359060600135612e2d565b610869600480360360a081101561107657600080fd5b506001600160a01b038135169060208101359060ff6040820135169060608101359060800135612e5f565b610869600480360360e08110156110b757600080fd5b604080518082018252833593602081013593810192909160808301918084019060029083908390808284376000920191909152509194505060ff82351692505063ffffffff60208201358116916040013516612ee7565b610bc4613062565b6108696004803603602081101561112c57600080fd5b5035613089565b6107726004803603608081101561114957600080fd5b50803590602081013590604081013590606001356130ba565b6107ce6004803603604081101561117857600080fd5b508035906020013515156130f8565b6107726004803603604081101561119d57600080fd5b508035906020013563ffffffff16613170565b610c23600480360360208110156111c657600080fd5b503561318a565b610772600480360360208110156111e357600080fd5b503561319d565b6107ce6004803603602081101561120057600080fd5b50356131a6565b6107726004803603608081101561121d57600080fd5b5080359060208101359063ffffffff60408201358116916060013516613362565b6108696004803603604081101561125457600080fd5b508035906020013560ff166133ef565b610ce76004803603602081101561127a57600080fd5b503561341a565b611289613430565b60408051938452602084019290925282820152519081900360600190f35b610869600480360360208110156112bd57600080fd5b5035613443565b6107ce600480360360e08110156112da57600080fd5b50803590602081013590604081019060ff6080820135169063ffffffff60a082013581169160c001351661346c565b6107ce6004803603606081101561131f57600080fd5b50803590602081013563ffffffff16906040013560ff166135c3565b6107ce6004803603602081101561135157600080fd5b50356001600160a01b03166136fa565b6107726004803603604081101561137757600080fd5b508035906020013560ff16613777565b6107726004803603604081101561139d57600080fd5b50803590602001356137aa565b610c2361381c565b610869600480360360208110156113c857600080fd5b503561382c565b610772600480360360608110156113e557600080fd5b5060ff81358116916020810135909116906040013561384d565b6107ce600480360360e081101561141557600080fd5b50803590602081013590604081013590606081019060a081013560ff169060c001356001600160a01b03166138af565b6107726004803603604081101561145b57600080fd5b5060ff81351690602001356139dc565b6107726004803603602081101561148157600080fd5b50356139f2565b6107726004803603604081101561149e57600080fd5b50803590602001356139fb565b610bc4613a69565b610772600480360360208110156114c957600080fd5b5035613aa1565b610772600480360360408110156114e657600080fd5b50803590602001351515613aae565b6108696004803603602081101561150b57600080fd5b5035613ad8565b6108696004803603604081101561152857600080fd5b5060ff8135169060200135613ae4565b610869600480360360e081101561154e57600080fd5b60408051808201825283359360208101359383820135939082019260a0830191606084019060029083908390808284376000920191909152509194505050803560ff169150602001356001600160a01b0316613afe565b610c23613b82565b610869600480360360208110156115c357600080fd5b5035613b92565b610869600480360360208110156115e057600080fd5b5035613bb2565b610772600480360360208110156115fd57600080fd5b5035613bbe565b6108696004803603602081101561161a57600080fd5b503560ff16613bcc565b6108696004803603602081101561163a57600080fd5b5035613be7565b610c23613c0c565b6107726004803603604081101561165f57600080fd5b508035906020013560ff16613c1c565b610ce76004803603602081101561168557600080fd5b5035613c33565b610772600480360360408110156116a257600080fd5b50803590602001351515613c46565b610c23613c70565b610869600480360360208110156116cf57600080fd5b5035613c80565b610869600480360360208110156116ec57600080fd5b5035613ca8565b610c236004803603608081101561170957600080fd5b5080359060ff6020820135169060408101359060600135613cb4565b6108696004803603602081101561173b57600080fd5b5035613d20565b610ce76004803603602081101561175857600080fd5b5035613da5565b61177c6004803603602081101561177557600080fd5b5035613dae565b604051808261032080838360005b838110156117a257818101518382015260200161178a565b5050505090500191505060405180910390f35b610772600480360360208110156117cb57600080fd5b5035613ee8565b610772600480360360208110156117e857600080fd5b5035613ef1565b6108696004803603602081101561180557600080fd5b5035613f42565b6107726004803603602081101561182257600080fd5b5035613f4e565b6107726004803603604081101561183f57600080fd5b5060ff8135169060200135613f58565b6107726004803603604081101561186557600080fd5b508035906020013560ff16613f66565b6107726004803603604081101561188b57600080fd5b5080359060200135613fd8565b6118be600480360360408110156118ae57600080fd5b508035906020013560ff16613fe9565b6040805163ffffffff9092168252519081900360200190f35b610869600480360360608110156118ed57600080fd5b5060ff8135169060208101359060400135613ff9565b600081815261100e60205260408120548190806119275750600091508190506119a9565b60ff60005b600660ff8216101561198a576119428382612347565b6119825760006119528483612753565b905060ff811661196e575060019450600093506119a992505050565b8260ff168160ff161015611980578092505b505b60010161192c565b508060ff1660ff1461199e576001816119a2565b6000805b9350935050505b915091565b6507ffffffffff81165b919050565b600081156119d95750600160ad1b198216600160ad1b176119e3565b50600160ad1b1982165b92915050565b611008546001600160a01b03163314611a49576040805162461bcd60e51b815260206004820181905260248201527f4f6e6c792043727970746f4d61726b657420697320617574686f72697a65642e604482015290519081900360640190fd5b600082815261100c6020908152604091829020805460ff191684151590811790915582518581529182015281517fb7ce5589b9d7d14ddd7d38ffad339a1f67c8b46b7138bff70736dab1bc1660ff929181900390910190a15050565b60ff811660140282811b620fffff90911b198416175b9392505050565b600080611ace87613ef1565b9050611ad981612c79565b15611b155760405162461bcd60e51b81526004018080602001828103825260298152602001806145a16029913960400191505060405180910390fd5b63ffffffff8316611b3057428463ffffffff16119150611b56565b428363ffffffff16118015611b53575082600a0163ffffffff168463ffffffff16115b91505b818015611b695750611b6787613c80565b155b8015611b7f57506205460042018463ffffffff16105b91506000611b8c826119ae565b90506001811415611bb857828015611baf5750611005546001600160a01b031633145b92505050611c37565b6000611bc38261255d565b90506000611bd38b8b8989612982565b9050848015611be85750611be683613d20565b155b8015611bfc57506001600160a01b03821615155b8015611c3057508851611c1b9082908a908c60015b6020020151613cb4565b6001600160a01b0316826001600160a01b0316145b9450505050505b9695505050505050565b60b51c6207ffff1690565b611006546001600160a01b03163314611ca6576040805162461bcd60e51b815260206004820152601760248201527627b7363c9021a7a79034b99030baba3437b934bd32b21760491b604482015290519081900360640190fd5b611018548110611ce75760405162461bcd60e51b81526004018080602001828103825260248152602001806146466024913960400191505060405180910390fd5b6110188190556110195460408051838152602081019290925280517f3c5524b3679943102e2392091f80fbd1cfe6f2b820f975d4da3252a75327f37e9281900390910190a150565b611005546001600160a01b0316331480611d545750611007546001600160a01b031633145b611d8f5760405162461bcd60e51b815260040180806020018281038252602481526020018061446a6024913960400191505060405180910390fd5b6001611d9a83612334565b14611dd65760405162461bcd60e51b815260040180806020018281038252602c815260200180614412602c913960400191505060405180910390fd5b61101854611de383611c41565b10611e1f5760405162461bcd60e51b815260040180806020018281038252603481526020018061450c6034913960400191505060405180910390fd5b611e2881613089565b15611e7a576040805162461bcd60e51b815260206004820152601c60248201527f63616e6e6f74207472616e7366657220746f20626f74207465616d7300000000604482015290519081900360640190fd5b6000818152611011602052604090205460ff1615611ec95760405162461bcd60e51b815260040180806020018281038252602481526020018061466a6024913960400191505060405180910390fd5b6001811415611f095760405162461bcd60e51b81526004018080602001828103825260328152602001806144da6032913960400191505060405180910390fd5b600080611f1583611903565b91509150818015611f27575060ff8116155b15611f635760405162461bcd60e51b815260040180806020018281038252604c8152602001806143a5604c913960600191505060405180910390fd5b611f6d8484614012565b611f7683614177565b50505050565b604080517f19457468657265756d205369676e6564204d6573736167653a0a333200000000602080830191909152603c8083019490945282518083039094018452605c909101909152815191012090565b607e1c60071690565b600060208460ff1610612028576040805162461bcd60e51b81526020600482015260156024820152741d1a5b595e9bdb99481bdd5d081bd988189bdd5b99605a1b604482015290519081900360640190fd5b610400831061207e576040805162461bcd60e51b815260206004820152601b60248201527f636f756e747279496478496e545a206f7574206f6620626f756e640000000000604482015290519081900360640190fd5b631000000082106120d6576040805162461bcd60e51b815260206004820152601a60248201527f76616c20746f20656e636f6465206f7574206f6620626f756e64000000000000604482015290519081900360640190fd5b5060269290921b653fc00000000016601c9190911b171790565b6000601260ff8316106121055750600061211b565b61211885856012860260ff861601611fd6565b90505b949350505050565b600061212e82612551565b156121495761214260016000806000612e2d565b90506119b8565b6000806000612157856121d4565b9194509250905060128104600061216f858584611fd6565b9050601283066121828282600080612e2d565b98975050505050505050565b60ff166014021c620fffff1690565b6040805160208082019590955280820193909352606080840192909252805180840390920182526080909201909152805191012090565b602681901c601f1691601c82901c6103ff1691630fffffff1690565b6110095481565b611008546001600160a01b03163314612257576040805162461bcd60e51b815260206004820181905260248201527f4f6e6c792043727970746f4d61726b657420697320617574686f72697a65642e604482015290519081900360640190fd5b6122618282614012565b61226a81614177565b5050565b607b1c60071690565b600081156122935750600160d51b198216600160d51b176119e3565b50600160d51b1982166119e3565b60006507ffffffffff8211156122fe576040805162461bcd60e51b815260206004820152601a60248201527f707265764c6561677565496478206f7574206f6620626f756e64000000000000604482015290519081900360640190fd5b5060301b6b07ffffffffff00000000000019919091161790565b60b51b63ffffffff60b51b166207ffff60b51b19919091161790565b60006119e361234283613ef1565b6119ae565b6000806123548484613fe9565b905063ffffffff8116158061211b5750428163ffffffff1610949350505050565b600080600061238386611903565b91509150818015612395575060ff8116155b156123a557600092505050611c37565b60006123ba6123b58b8a8a61219d565b611f7c565b905060006123c78861255d565b905060006123d48b613ef1565b90506123df81612c79565b1580156123f457506123f0816119ae565b8914155b801561240857506001600160a01b03821615155b8015612430575060008b815261100b60209081526040909120546001600160d81b038e16911c145b801561245e5750875161244990849089908b6001611c11565b6001600160a01b0316826001600160a01b0316145b801561246e575061246e8b613be7565b9c9b505050505050505050505050565b60741c600f1690565b600080806003851660248280600284108015906124a357508289105b156124bc57506000955085945084935061254a92505050565b60028410156124f95760046060858b0306048860ff16019150606060ff16848960ff1684036004028b0303600202816124f157fe5b049050612532565b60046060848b0306048860ff16019150606060ff16838960ff1684036004028b03036002028161252557fe5b0460010190506002840393505b83945061253e82613c33565b9650600e900694505050505b9250925092565b60cc1c60019081161490565b600090815261101660205260409020546001600160a01b031690565b60301c6507ffffffffff1690565b6000601f8260ff1611156125e2576040805162461bcd60e51b815260206004820152601c60248201527f63757272656e7453686972744e756d206f7574206f6620626f756e6400000000604482015290519081900360640190fd5b5065f800000000001991909116602b9190911b6607f80000000000161790565b6000811561261e5750600160b41b198216600160b41b176119e3565b50600160b41b1982166119e3565b611006546001600160a01b03163314612686576040805162461bcd60e51b815260206004820152601760248201527627b7363c9021a7a79034b99030baba3437b934bd32b21760491b604482015290519081900360640190fd5b611018829055611019819055604080518381526020810183905281517f3c5524b3679943102e2392091f80fbd1cfe6f2b820f975d4da3252a75327f37e929181900390910190a15050565b600060185b60ff81161561271d576000838152611015602052604090206127089060ff83166019811061270057fe5b0154826133ef565b156127145790506119b8565b600019016126d6565b5060008281526110156020526040812054612737916133ef565b6127425760196119e3565b506000919050565b60cd1c60ff1690565b60240260200160ff161c600f1690565b600061276e84613bcc565b1580612781575061277f8484613ae4565b155b1561278e57506000611abb565b611016600061279e868686611fd6565b81526020810191909152604001600020546001600160a01b0316949350505050565b60008160240260200160ff168360ff16901b8260240260ff168563ffffffff16901b8360240260ff16640fffffffff901b19871617179050949350505050565b600061280b83613bcc565b158061281e575061281c8383613ae4565b155b1561282b575060006119e3565b611012600061283c85856000611fd6565b815260200190815260200160002054905092915050565b611005546001600160a01b031633146128a1576040805162461bcd60e51b815260206004820181905260248201526000805160206144ba833981519152604482015290519081900360640190fd5b6128d9868686868660028060200260405190810160405280929190826002602002808284376000920191909152508891506123759050565b6129145760405162461bcd60e51b815260040180806020018281038252602c81526020018061448e602c913960400191505060405180910390fd5b61291e8584614012565b600085815261100b602052604090206001905561293a83614177565b604080518681526001602082015260008183015290517f44b30f34d8f6f8c3cc8737fe3476b3bfd6fff21e03ef669b48b787a213b1f1109181900360600190a1505050505050565b60408051602080820187905281830186905263ffffffff808616606084015284166080808401919091528351808403909101815260a0909201909252805191012060009061211890611f7c565b611005546001600160a01b03163314612a1d576040805162461bcd60e51b815260206004820181905260248201526000805160206144ba833981519152604482015290519081900360640190fd5b6000612a2885613ef1565b90506000612a35826119ae565b90506000612a428261255d565b90506000612a7d8989604051602001808381526020018281526020019250505060405160208183030381529060405280519060200120611f7c565b90508842108015612a945750612a9288613c80565b155b8015612aa65750612aa483613d20565b155b8015612aba57506001600160a01b03821615155b8015612ae25750612acd81868989613cb4565b6001600160a01b0316826001600160a01b0316145b8015612af2575062054600420189105b612b2d5760405162461bcd60e51b815260040180806020018281038252602881526020018061435c6028913960400191505060405180910390fd5b6000612b3885613ee8565b6000858152611015602052604090209091506001908260198110612b5857fe5b0155612b65856019612587565b60008a815261100a602090815260409182902083905581518c815290810183905281519297507f65a4d4a8a0afb474d2e9465a6a1a41bb88fd04f41152ba070421f1b3771f15d8929081900390910190a150505050505050505050565b604080516020808201949094528082019290925280518083038201815260609092019052805191012090565b6040805160ff8516602080830191909152818301859052606080830185905283518084039091018152608090920190925280519101209392505050565b4290565b6000611013600061283c85856000611fd6565b6000612c4d82612551565b612c5f57612c5a82613bbe565b6119e3565b5090565b6000612c6f84846139dc565b9091109392505050565b6000601a612c8683613ee8565b1492915050565b60b11c60071690565b60d61c60019081161490565b600080612cb0858585612763565b6001600160a01b031614949350505050565b61101e5461101f546000916119e391849160ff169061384d565b611005546001600160a01b031690565b611005546001600160a01b03163314612d3a576040805162461bcd60e51b815260206004820181905260248201526000805160206144ba833981519152604482015290519081900360640190fd5b604080518082018252612d6d91889188918890600290839083908082843760009201919091525088915087905086611ac2565b612da85760405162461bcd60e51b81526004018080602001828103825260218152602001806143f16021913960400191505060405180910390fd5b6000612db687878585613362565b600087815261100b602090815260409182902063ffffffff8716640100000000600160f81b0385841b16019081905582518a81529182015260018183015290519192507f44b30f34d8f6f8c3cc8737fe3476b3bfd6fff21e03ef669b48b787a213b1f110919081900360600190a150505050505050565b600080612e3b6000876139fb565b9050612e478186612587565b9050612e5381856122a1565b9050611c3781846137aa565b6000856001600160a01b031660018686868660405160008152602001604052604051808581526020018460ff1660ff1681526020018381526020018281526020019450505050506020604051602081039080840390855afa158015612ec8573d6000803e3d6000fd5b505050602060405103516001600160a01b031614905095945050505050565b600080612ef38761255d565b905063ffffffff8316612f1057428463ffffffff16119150612f36565b428363ffffffff16118015612f3357508260b40163ffffffff168463ffffffff16115b91505b6000612f4489898787612982565b9050828015612f595750612f5788613d20565b155b8015612f6d57506001600160a01b03821615155b8015612f9b57508651612f8690829088908a6001611c11565b6001600160a01b0316826001600160a01b0316145b8015612fb157506205460042018563ffffffff16105b925082612fc357600092505050611c37565b6001881415612fd757600192505050611c37565b612fdf61433c565b612fe889613dae565b905060005b601960ff8216101561305457613016828260ff166019811061300b57fe5b6020020151826133ef565b15801561303a575061303a828260ff166019811061303057fe5b6020020151613c80565b1561304c576000945050505050611c37565b600101612fed565b505050509695505050505050565b61101f5461101e546000918291829161307d9160ff16612487565b9250925092505b909192565b6000600182141561309c575060006119b8565b50600090815261101660205260409020546001600160a01b03161590565b604080516020808201969096528082019490945260608401929092526080808401919091528151808403909101815260a09092019052805191012090565b6131018261255d565b6001600160a01b0316336001600160a01b0316146131505760405162461bcd60e51b815260040180806020018281038252602c81526020018061443e602c913960400191505060405180910390fd5b60009182526110116020526040909120805460ff19169115919091179055565b60cd1b63ffffffff60cd1b1660ff60cd1b19919091161790565b60006119e361319883612334565b61255d565b600160cc1b1790565b60006131b182613ef1565b90506131bc81612c79565b613205576040805162461bcd60e51b81526020600482015260156024820152741c1b185e595c881b9bdd081a5b881d1c985b9cda5d605a1b604482015290519081900360640190fd5b6000613210826119ae565b905080613264576040805162461bcd60e51b815260206004820152601a60248201527f746172676574207465616d2063616e6e6f74206265206e756c6c000000000000604482015290519081900360640190fd5b600061326f826126d1565b9050601960ff8216106132b35760405162461bcd60e51b815260040180806020018281038252603f815260200180614540603f913960400191505060405180910390fd5b6132c66132c084846139fb565b82612587565b600085815261100a602090815260408083208490558583526110159091529020909350849060ff8316601981106132f957fe5b015560008281526110106020908152604091829020805460ff19811660ff91821660001901909116179055815186815290810185905281517f65a4d4a8a0afb474d2e9465a6a1a41bb88fd04f41152ba070421f1b3771f15d8929181900390910190a150505050565b600063ffffffff8216156133ae5760408051602080820188905281830187905263ffffffff85166060808401919091528351808403909101815260809092019092528051910120612118565b5050604080516020808201959095528082019390935263ffffffff919091166060808401919091528151808403909101815260809092019052805191012090565b6000601260ff831610613410578215806134095750600183145b90506119e3565b50600182146119e3565b6000908152611010602052604090205460ff1690565b611018546110195461101c549192909190565b600080600080613452856121d4565b925092509250613463838383612c63565b95945050505050565b611005546001600160a01b031633146134ba576040805162461bcd60e51b815260206004820181905260248201526000805160206144ba833981519152604482015290519081900360640190fd5b6040805180820182526134ed91889188918890600290839083908082843760009201919091525088915087905086612ee7565b61353e576040805162461bcd60e51b815260206004820152601f60248201527f467265657a655465616d20726571756972656d656e7473206e6f74206d657400604482015290519081900360640190fd5b600061354c87878585613362565b600087815261100d602090815260409182902063ffffffff8716640100000000600160f81b0385841b16019081905582518a81529182015260018183015290519192507fbe5cb47c7008dd92757f872cf47b2f27eae3e4d3efbba0bd54969ed71c927d0e919081900360600190a150505050505050565b611006546001600160a01b0316331461361d576040805162461bcd60e51b815260206004820152601760248201527627b7363c9021a7a79034b99030baba3437b934bd32b21760491b604482015290519081900360640190fd5b60008160ff161161365f5760405162461bcd60e51b81526004018080602001828103825260378152602001806145ca6037913960400191505060405180910390fd5b600083815261100e602052604081205490805b600660ff821610156136b6576136888382612347565b156136ae57613699838686846127c0565b600087815261100e6020526040902055600191505b600101613672565b50806136f35760405162461bcd60e51b81526004018080602001828103825260458152602001806146016045913960600191505060405180910390fd5b5050505050565b611006546001600160a01b03163314613754576040805162461bcd60e51b815260206004820152601760248201527627b7363c9021a7a79034b99030baba3437b934bd32b21760491b604482015290519081900360640190fd5b61100880546001600160a01b0319166001600160a01b0392909216919091179055565b6000806137848484612753565b600f60ff60206024870201811691821b19871660001990930116901b1791505092915050565b60006407ffffffff821115613806576040805162461bcd60e51b815260206004820152601a60248201527f6c61737453616c65426c6f636b206f7574206f6620626f756e64000000000000604482015290519081900360640190fd5b50605b1b6407ffffffff605b1b19919091161790565b611007546001600160a01b031690565b60008061383883613ef1565b9050601961384582613ee8565b149392505050565b60006102a082101561386157506000611abb565b6102a08204600060ff808616908716101561388157848660180103613885565b8486035b60ff169050600481026102a08302018410156138a75750600019019050611abb565b509050611abb565b611005546001600160a01b031633146138fd576040805162461bcd60e51b815260206004820181905260248201526000805160206144ba833981519152604482015290519081900360640190fd5b6000613937878787876002806020026040519081016040528092919082600260200280828437600092019190915250899150889050613afe565b9050806139755760405162461bcd60e51b815260040180806020018281038252602c81526020018061448e602c913960400191505060405180910390fd5b61397f86836141d9565b600086815261100d6020908152604080832060019081905581518a8152928301528181019290925290517fbe5cb47c7008dd92757f872cf47b2f27eae3e4d3efbba0bd54969ed71c927d0e9181900360600190a150505050505050565b600060086139ea8484613f58565b029392505050565b60781c60071690565b60006507ffffffffff821115613a58576040805162461bcd60e51b815260206004820152601b60248201527f63757272656e745465616d496478206f7574206f6620626f756e640000000000604482015290519081900360640190fd5b506507ffffffffff19919091161790565b600080600061101f5460001415613a8857506000915081905080613084565b61101f5461101e5461307d91600019019060ff16612487565b605b1c6407ffffffff1690565b60008115613aca5750600160d61b198216600160d61b176119e3565b50600160d61b1982166119e3565b60ad1c60019081161490565b60ff91909116600090815261101760205260409020541190565b600080613b0e6123b58988612bc2565b90506001600160a01b03831615801590613b4a57508451613b359082908690886001611c11565b6001600160a01b0316836001600160a01b0316145b8015613b725750600087815261100d60209081526040909120546001600160d81b038a16911c145b8015612182575061218287613d20565b611008546001600160a01b031690565b600080600080613ba1856121d4565b925092509250613463838383613ff9565b60d51c60019081161490565b60811c6507ffffffffff1690565b600060ff8216158015906119e3575050601960ff9091161090565b600081815261100b60205260409020544263ffffffff919091166202a3000111919050565b61102f546001600160a01b031681565b60b11b60ff60b11b16600760b11b19919091161790565b6000601860178301066001019050919050565b60008115613c625750600160ac1b198216600160ac1b176119e3565b50600160ac1b1982166119e3565b611006546001600160a01b031690565b6000613c8b82613be7565b806119e3575050600090815261100c602052604090205460ff1690565b60b41c60019081161490565b604080516000808252602080830180855288905260ff87168385015260608301869052608083018590529251909260019260a080820193601f1981019281900390910190855afa158015613d0c573d6000803e3d6000fd5b5050604051601f1901519695505050505050565b60006001821415613d33575060006119b8565b613d3c82613443565b613d7f576040805162461bcd60e51b815260206004820152600f60248201526e756e6578697374656e74207465616d60881b604482015290519081900360640190fd5b50600081815261100d60205260409020544263ffffffff919091166202a3000111919050565b60ae1c60071690565b613db661433c565b6000806000613dc4856121d4565b925092509250613dd5838383612c63565b613e18576040805162461bcd60e51b815260206004820152600f60248201526e1a5b9d985b1a59081d19585b481a59608a1b604482015290519081900360640190fd5b613e23838383612ca2565b15613e655760005b601960ff82161015613e5f57613e43848484846120f0565b858260ff1660198110613e5257fe5b6020020152600101613e2b565b50613ee0565b60005b601960ff82161015613ede5760008681526110156020526040812060ff831660198110613e9157fe5b0154905080613ebf57613ea6858585856120f0565b868360ff1660198110613eb557fe5b6020020152613ed5565b80868360ff1660198110613ecf57fe5b60200201525b50600101613e68565b505b505050919050565b602b1c601f1690565b600081815261100a60205260408120548015613f0e5790506119b8565b613f1783612551565b158015613f2a5750613f2883613b92565b155b15613f395760009150506119b8565b611abb83612123565b60ac1c60019081161490565b60641c61ffff1690565b600060106139ea8484612800565b600060088260ff1610613fc0576040805162461bcd60e51b815260206004820152601d60248201527f67616d65734e6f6e53746f7070696e67206f7574206f6620626f756e64000000604482015290519081900360640190fd5b5060ae1b60ff60ae1b16600760ae1b19919091161790565b60741b600f60741b19919091161790565b60240260ff161c63ffffffff1690565b6000601261400785856139dc565b029091109392505050565b600061401d83613ef1565b9050600061402a826119ae565b90506001811461406b57600061403f83613ee8565b90506019811461406957600082815261101560205260409020600190826019811061406657fe5b01555b505b60018314156140865761407f8260016139fb565b9150614123565b6000614091846126d1565b9050601960ff821610156140e4576140bb6140b56140af85876139fb565b83612587565b436137aa565b600085815261101560205260409020909350859060ff8316601981106140dd57fe5b0155614121565b600084815261101060205260409020805460ff8082166001011660ff1990911617905561411e6140b561411785876139fb565b601a612587565b92505b505b600084815261100a6020908152604091829020849055815186815290810184905281517f65a4d4a8a0afb474d2e9465a6a1a41bb88fd04f41152ba070421f1b3771f15d8929181900390910190a150505050565b600081815261100e60205260409020548061419257506141d6565b60005b600660ff821610156141c4576141ab8282612347565b6141bc576141b98282613777565b91505b600101614195565b50600082815261100e60205260409020555b50565b6141e282613089565b15614234576040805162461bcd60e51b815260206004820152601a60248201527f63616e6e6f74207472616e73666572206120626f74207465616d000000000000604482015290519081900360640190fd5b6001600160a01b0381166142795760405162461bcd60e51b81526004018080602001828103825260218152602001806143846021913960400191505060405180910390fd5b600082815261101660205260409020546001600160a01b03828116911614156142d35760405162461bcd60e51b815260040180806020018281038252602281526020018061457f6022913960400191505060405180910390fd5b6000828152611016602090815260409182902080546001600160a01b0319166001600160a01b03851690811790915582518581529182015281517f77b66eb1e6d2bc131b79be4213ae7f08f29351c01060e10bcc0302278067bf38929181900390910190a15050565b604051806103200160405280601990602082028036833750919291505056fe636f6e646974696f6e7320746f206469736d69737320706c6179657220617265206e6f74206d657463616e6e6f74207472616e7366657220746f2061206e756c6c2061646472657373747279696e6720746f206163636570742061206275794e6f7720706c617965722c20627574207465616d206973206275737920696e20636f6e73747261696e656420667269656e646c696573467265657a65506c6179657220726571756972656d656e7473206e6f74206d65746f6e6c792041636164656d7920706c61796572732063616e20626520736f6c6420766961206275792d6e6f776f6e6c79206f776e6572206f66207465616d2063616e206368616e67652069734275794e6f77416c6c6f65644f6e6c79206d61726b6574206f722072656c61792061726520617574686f72697a65642e726571756972656d656e747320746f20636f6d706c6574652061756374696f6e20617265206e6f74206d65744f6e6c79206d61726b6574206f776e657220697320617574686f72697a65642e7461726765745465616d206f66206275794e6f7720706c617965722063616e6e6f742062652041636164656d79205465616d627579206e6f7720706c61796572206861732073756d206f6620736b696c6c73206c6172676572207468616e20616c6c6f77656463616e6e6f7420636f6d706c65746520706c61796572207472616e7369742062656361757365207461726765745465616d206973207374696c6c2066756c6c627579657220616e642073656c6c657220617265207468652073616d65206164647263616e6e6f7420667265657a65206120706c61796572207468617420697320696e207472616e7369746e52656d61696e203d20302c20776869636820646f6573206e6f74206d616b652073656e736520666f72206120636f6e73747261696e7474686973207465616d20697320616c7265616479207369676e656420757020696e203720636f6e747261696e656420667269656e646c79206368616d70696f6e73686970736e65774d617853756d206973206e6f74206c6f776572207468616e2070726576696f75737573657220686173206578706c696369746c7920666f7262696464656e206275794e6f77a26469706673582212201f6e65311c0daaf6499e1920f217697fe9571d7425d999407b108654196a04f064736f6c63430006030033",
  "source": "pragma solidity >= 0.6.3;\n\nimport \"./MarketView.sol\";\n\n/**\n @title Storage writers for changing ownership of assets, and managing bids and auctions, in FIAT.\n @author Freeverse.io, www.freeverse.io\n @dev Auctions are operated by first Freezing the asset (only seller signature required)\n @dev and then by CompleAuction the sale (owner required).\n @dev If the payment was in FIAT, the CompleteAuction TX requires the company signture too.\n @dev Only BuyNow players can be offered by the company without auction. \n @dev These \"BuyNow\" players have limited max skills.\n @dev If a team acquires more than 25 players, the extra ones remain with shirtNum = 26 = IN_TRANSIT_SHIRTNUM\n @dev until some of the 25 are sold or retired.\n @dev The serialized structs appearing here are \"AcquisitonConstraints\" and \"AuctionData\"\n @dev Both use validUntil (in seconds) which uses 32b, hence allowing 2**32/(3600*24*365) = 136 years after 1970\n @dev AuctionData encodes, (8b of zeroes, 216 for auctionId, 32b for validUntil \n @dev   where auctionId has the leftmost 40 bit killed, \n @dev   => validUntil + (uint256(auctionId) << 40)) >> 8;\n @dev \"Constraints\" can be added to teams that participate in \"Top Critical\" championships, where\n @dev they want to make sure that they can't change their teams too much since the moment they sign up.\n @dev AcquisitonConstraints: serializes the number of trades left (4b), and until when, for the 6 possible constraints\n @dev   => (n5, validUntil5, n4, validUntil4,... n0, validUntil0), \n @dev   => so it leaves the leftmost 256 - 6 * 36 = 40b free\n*/\n\n/// Warning: This contract must ALWAYS inherit MarketView first, so that it ends up inheriting Storage before any other contract.\ncontract Market is MarketView {\n    event PlayerFreeze(uint256 playerId, uint256 auctionData, bool frozen);\n    event PlayerFreezeCrypto(uint256 playerId, bool frozen);\n    event TeamFreeze(uint256 teamId, uint256 auctionData, bool frozen);\n    event PlayerStateChange(uint256 playerId, uint256 state);\n    event ProposedNewMaxSumSkillsBuyNowPlayer(uint256 newSumSkills, uint256 newLapseTime);\n    event UpdatedNewMaxSumSkillsBuyNowPlayer(uint256 newSumSkills, uint256 newLapseTime);\n\n    /// Only the authorized contract can operate assets in Crypto: \n    modifier onlyCryptoMarket() {\n        require(msg.sender == _cryptoMktAddr, \"Only CryptoMarket is authorized.\");\n        _;\n    }\n\n    function setCryptoMarketAddress(address addr) external onlyCOO {\n        _cryptoMktAddr = addr;\n    }\n    \n    /// By default, the company can transfer a BuyNow player without forcing\n    /// the blockchain to check the owner's signature. This is to safe gas.\n    /// The company has obviously checked it off-chain, and receiving a player is\n    /// always a good thing.\n    /// However, Users can opt-out from allowing the company to put BuyNow players in their teams:\n    function setIsBuyNowAllowedByOwner(uint256 teamId, bool isAllowed) external {\n        require(msg.sender == getOwnerTeam(teamId), \"only owner of team can change isBuyNowAlloed\");\n        _teamIdToIsBuyNowForbidden[teamId] = !isAllowed;\n    }\n    \n    /// When the player has been frozen in the crypto market, \n    /// it won't be available in the FIAT market (or in any other) until auction finises\n    function setIsPlayerFrozenCrypto(uint256 playerId, bool isFrozen) external onlyCryptoMarket {\n        _playerIdToIsFrozenCrypto[playerId] = isFrozen;\n        emit PlayerFreezeCrypto(playerId, isFrozen);\n    }\n\n    /// Changing the MaxSkills allowed for BuyNow players is not instant, to prevent manipulating matches\n    /// by suddenly offering amazing players to some user.\n    /// The company must let everyone know the new value first (propose), and then wait\n    /// for some time (Lapse) until it can be made effective.\n    // function proposeNewMaxSumSkillsBuyNowPlayer(uint256 newSumSkills, uint256 newLapseTime) external onlyCOO{\n    //     _maxSumSkillsBuyNowPlayerProposed = newSumSkills;\n    //     _maxSumSkillsBuyNowPlayerMinLapseProposed = newLapseTime;\n    //     _maxSumSkillsBuyNowPlayerLastUpdate = now;\n    //     emit ProposedNewMaxSumSkillsBuyNowPlayer(newSumSkills, newLapseTime);\n    // }\n\n    /// maxSumSkills can only grow if enough time has passed \n    function setNewMaxSumSkillsBuyNowPlayer(uint256 newSumSkills, uint256 newLapseTime) external onlyCOO {\n        _maxSumSkillsBuyNowPlayer = newSumSkills;\n        _maxSumSkillsBuyNowPlayerMinLapse = newLapseTime;\n        emit UpdatedNewMaxSumSkillsBuyNowPlayer(newSumSkills, newLapseTime);\n    }\n    \n    /// Lowering maxSumSkills can always be made instantly, as this restricts the company further.\n    function lowerNewMaxSumSkillsBuyNowPlayer(uint256 newMaxSum) external onlyCOO {\n        require (newMaxSum < _maxSumSkillsBuyNowPlayer, \"newMaxSum is not lower than previous\");\n        _maxSumSkillsBuyNowPlayer = newMaxSum;\n        emit UpdatedNewMaxSumSkillsBuyNowPlayer(newMaxSum, _maxSumSkillsBuyNowPlayerMinLapse);\n    }\n    \n    /// TODO: require signature from team owner\n    function addAcquisitionConstraint(uint256 teamId, uint32 validUntil, uint8 nRemain) external onlyCOO {\n        require(nRemain > 0, \"nRemain = 0, which does not make sense for a constraint\");\n        uint256 remainingAcqs = _teamIdToRemainingAcqs[teamId];\n        bool success;\n        for (uint8 acq = 0; acq < MAX_ACQUISITON_CONSTAINTS; acq++) {\n            if (isAcquisitionFree(remainingAcqs, acq)) {\n                _teamIdToRemainingAcqs[teamId] = setAcquisitionConstraint(remainingAcqs, validUntil, nRemain, acq);\n                success = true;\n                continue;\n            }\n        }\n        require(success, \"this team is already signed up in 7 contrained friendly championships\");\n    }\n    \n    /// Freezes the player, preventing it from trading in any other market for \"validUntil\" time.\n    /// This is suposed to be triggered only when a valid buyer has been found.\n    /// If offerValindUntil != 0 => the put for sale comes from an offer. \n    ///     - Then, although the seller specified validUntil too (!=0), we set auctionId = hash(sellerHidden, playerId, offerValidUntil)\n    /// If offerValindUntil = 0 => the put for sale comes out of the blue. Then, auctionId = hash(sellerHidden, playerId, validUntil)\n    function freezePlayer(\n        bytes32 sellerHiddenPrice,\n        uint256 playerId,\n        bytes32[2] calldata sig,\n        uint8 sigV,\n        uint32 validUntil,\n        uint32 offerValidUntil\n    ) \n        external \n        onlyMarket \n    {\n        require(areFreezePlayerRequirementsOK(sellerHiddenPrice, playerId, sig, sigV, validUntil, offerValidUntil), \"FreezePlayer requirements not met\");\n        bytes32 auctionId = computeAuctionId(sellerHiddenPrice, playerId, validUntil, offerValidUntil);\n        _playerIdToAuctionData[playerId] = validUntil + ((uint256(auctionId) << 40) >> 8);\n        emit PlayerFreeze(playerId, _playerIdToAuctionData[playerId], true);\n    }\n\n    function transferBuyNowPlayer(\n        uint256 playerId,\n        uint256 targetTeamId\n     ) \n        external \n    {\n        require((msg.sender == _market) || (msg.sender == _relay), \"Only market or relay are authorized.\");\n        /// isAcademy checks that player isSpecial, and not written.\n        require(getCurrentTeamIdFromPlayerId(playerId) == ACADEMY_TEAM, \"only Academy players can be sold via buy-now\");\n        require(getSumOfSkills(playerId) < _maxSumSkillsBuyNowPlayer, \"buy now player has sum of skills larger than allowed\");\n        require(!isBotTeam(targetTeamId), \"cannot transfer to bot teams\");\n        require(!_teamIdToIsBuyNowForbidden[targetTeamId], \"user has explicitly forbidden buyNow\");\n        require(targetTeamId != ACADEMY_TEAM, \"targetTeam of buyNow player cannot be Academy Team\");\n\n        /// note that wasTeamCreatedVirtually(targetTeamId) &  !isBotTeam(targetTeamId) => already part of transferPlayer\n        (bool isConstrained, uint8 nRemain) = getMaxAllowedAcquisitions(targetTeamId);\n        require(!(isConstrained && (nRemain == 0)), \"trying to accept a buyNow player, but team is busy in constrained friendlies\");\n        transferPlayer(playerId, targetTeamId);\n        decreaseMaxAllowedAcquisitions(targetTeamId);\n    }\n    \n    function transferPlayerFromCryptoMkt(\n        uint256 playerId,\n        uint256 targetTeamId\n    ) \n        external \n        onlyCryptoMarket \n    {\n        transferPlayer(playerId, targetTeamId);\n        decreaseMaxAllowedAcquisitions(targetTeamId);\n    }\n    \n    function completePlayerAuction(\n        bytes32 auctionId,\n        uint256 playerId,\n        bytes32 buyerHiddenPrice,\n        uint256 buyerTeamId,\n        bytes32[2] calldata sig,\n        uint8 sigV\n     ) \n        external \n        onlyMarket \n    {\n        require(areCompletePlayerAuctionRequirementsOK(\n            auctionId,\n            playerId,\n            buyerHiddenPrice,\n            buyerTeamId,\n            sig,\n            sigV\n            ), \"requirements to complete auction are not met\"    \n        );\n        transferPlayer(playerId, buyerTeamId);\n        _playerIdToAuctionData[playerId] = 1;\n        decreaseMaxAllowedAcquisitions(buyerTeamId);\n        emit PlayerFreeze(playerId, 1, false);\n    }\n\n    /// Teams follow the same pattern as players \n    function freezeTeam(\n        bytes32 sellerHiddenPrice,\n        uint256 teamId,\n        bytes32[2] calldata sig,\n        uint8 sigV,\n        uint32 validUntil,\n        uint32 offerValidUntil\n    ) \n        external \n        onlyMarket \n    {\n        require(areFreezeTeamRequirementsOK(sellerHiddenPrice, teamId, sig, sigV, validUntil, offerValidUntil), \"FreezeTeam requirements not met\");\n        bytes32 auctionId = computeAuctionId(sellerHiddenPrice, teamId, validUntil, offerValidUntil);\n        _teamIdToAuctionData[teamId] = validUntil + ((uint256(auctionId) << 40) >> 8);\n        emit TeamFreeze(teamId, _teamIdToAuctionData[teamId], true);\n    }\n\n    function completeTeamAuction(\n        bytes32 auctionId,\n        uint256 teamId,\n        bytes32 buyerHiddenPrice,\n        bytes32[2] calldata sig,\n        uint8 sigV,\n        address buyerAddress\n    ) \n        external \n        onlyMarket \n    {\n        bool ok = areCompleteTeamAuctionRequirementsOK(\n            auctionId,\n            teamId,\n            buyerHiddenPrice,\n            sig,\n            sigV,\n            buyerAddress\n        );\n        require(ok, \"requirements to complete auction are not met\");\n        transferTeam(teamId, buyerAddress);\n        _teamIdToAuctionData[teamId] = 1;\n        emit TeamFreeze(teamId, 1, false);\n    }\n    \n    /// Main function for a user to immeditely remove a player from his/her team\n    /// It can either return it to the Academy (potentially resold again by the Academy owner)\n    /// Or retire the player forever, remaining in the original team, but not occupying\n    /// one of the 25 players slots.\n    function dismissPlayer(\n        uint256 validUntil,\n        uint256 playerId,\n        bytes32 sigR,\n        bytes32 sigS,\n        uint8 sigV\n    ) \n        external \n        onlyMarket \n    {\n        uint256 state = getPlayerState(playerId);\n        uint256 teamIdOrigin = getCurrentTeamIdFromPlayerState(state);\n        address owner = getOwnerTeam(teamIdOrigin);\n        bytes32 msgHash = prefixed(keccak256(abi.encode(validUntil, playerId)));\n        require (\n            /// check validUntil has not expired\n            (now < validUntil) &&\n            /// check player is not already frozen\n            (!isPlayerFrozenInAnyMarket(playerId)) &&  \n            /// check that the team it belongs to not already frozen\n            !isTeamFrozen(teamIdOrigin) &&\n            /// check asset is owned by legit address\n            (owner != address(0)) && \n            /// check signatures are valid by requiring that they own the asset:\n            (owner == recoverAddr(msgHash, sigV, sigR, sigS)) &&    \n            /// check that auction time is less that the required 32 bit\n            (validUntil < now + MAX_VALID_UNTIL),\n            \"conditions to dismiss player are not met\"\n        );  \n        uint256 shirtOrigin = getCurrentShirtNum(state);\n        _teamIdToPlayerIds[teamIdOrigin][shirtOrigin] = FREE_PLAYER_ID;\n        state = setCurrentShirtNum(state, PLAYERS_PER_TEAM_MAX);\n        _playerIdToState[playerId] = state;\n        emit PlayerStateChange(playerId, state);\n    }\n\n    /// When a player has been put in IN_TRANSIT (due to more than 25 players in a team)\n    /// Then it can be given to the target team executing this function, if at least one slot is available.\n    /// This function can be called by anyone who wants to pay the gas\n    function completePlayerTransit(uint256 playerId) external  {\n        uint256 state = getPlayerState(playerId);\n        require(getIsInTransitFromState(state), \"player not in transit\");\n        uint256 teamIdTarget = getCurrentTeamIdFromPlayerState(state);\n        require(teamIdTarget != 0, \"target team cannot be null\");\n        uint8 shirtTarget = getFreeShirt(teamIdTarget);\n        require(shirtTarget < PLAYERS_PER_TEAM_MAX, \"cannot complete player transit because targetTeam is still full\");\n        state = setCurrentShirtNum(\n                    setCurrentTeamId(\n                        state, teamIdTarget\n                    ), \n                shirtTarget);\n        _playerIdToState[playerId] = state;\n        _teamIdToPlayerIds[teamIdTarget][shirtTarget] = playerId;\n        _nPlayersInTransitInTeam[teamIdTarget] -= 1;\n        emit PlayerStateChange(playerId, state);\n    }\n\n    /// Private functions\n\n    function transferPlayer(uint256 playerId, uint256 teamIdTarget) private  {\n        /// warning: check of ownership of players and teams should be done before calling this function\n        /// so in this function, both teams are asumed to exist, be different, and belong to the rightful (nonBot) owners\n\n        /// part related to origin team:\n        uint256 state = getPlayerState(playerId);\n        uint256 teamIdOrigin = getCurrentTeamIdFromPlayerState(state);\n    \n        if (teamIdOrigin != ACADEMY_TEAM) {\n            uint256 shirtOrigin = getCurrentShirtNum(state);\n            // if shirtOrigin == PLAYER_PER_TEAM_MAX => player had been dismissed\n            if (shirtOrigin != PLAYERS_PER_TEAM_MAX) { _teamIdToPlayerIds[teamIdOrigin][shirtOrigin] = FREE_PLAYER_ID; }\n        }\n\n        /// part related to target team:\n        /// - determine new state of player\n        /// - if not Academy, write playerId in target team's shirt\n        if (teamIdTarget == ACADEMY_TEAM) {\n            state = setCurrentTeamId(state, ACADEMY_TEAM);\n        } else {\n            uint8 shirtTarget = getFreeShirt(teamIdTarget);\n            if (shirtTarget < PLAYERS_PER_TEAM_MAX) {\n                state = setLastSaleBlock(\n                            setCurrentShirtNum(\n                                setCurrentTeamId(\n                                    state, teamIdTarget\n                                ), shirtTarget\n                            ), block.number\n                        );\n                _teamIdToPlayerIds[teamIdTarget][shirtTarget] = playerId;\n            } else {\n                _nPlayersInTransitInTeam[teamIdTarget] += 1;\n                state = setLastSaleBlock(\n                            setCurrentShirtNum(\n                                setCurrentTeamId(\n                                    state, teamIdTarget\n                                ), \n                            IN_TRANSIT_SHIRTNUM),\n                        block.number);\n            }\n        }\n        _playerIdToState[playerId] = state;\n        emit PlayerStateChange(playerId, state);\n    }\n    \n    function transferTeam(uint256 teamId, address addr) private {\n        /// requiring that team is not bot already ensures that tz and countryIdxInTz exist \n        require(!isBotTeam(teamId), \"cannot transfer a bot team\");\n        require(addr != NULL_ADDR, \"cannot transfer to a null address\");\n        require(_teamIdToOwner[teamId] != addr, \"buyer and seller are the same addr\");\n        _teamIdToOwner[teamId] = addr;\n        emit TeamTransfer(teamId, addr);\n    }\n    \n    function decreaseMaxAllowedAcquisitions(uint256 teamId) private {\n        uint256 remainingAcqs = _teamIdToRemainingAcqs[teamId];\n        if (remainingAcqs == 0) return;\n        for (uint8 acq = 0; acq < MAX_ACQUISITON_CONSTAINTS; acq++) {\n            if (!isAcquisitionFree(remainingAcqs, acq)) {\n                remainingAcqs = decreaseAcquisitionConstraint(remainingAcqs, acq);\n            }\n        }\n        _teamIdToRemainingAcqs[teamId] = remainingAcqs;\n    }\n    \n}\n",
  "sourcePath": "/Users/jurgenkudla/proyects/laos/laos-goal-revolution/goalrev-ganache/contracts/storage/Market.sol",
  "compiler": {
    "name": "solc",
    "version": "0.6.3+commit.8dda9521.Emscripten.clang"
  },
  "schemaVersion": "3.0.23",
  "updatedAt": "2024-10-18T06:45:39.801Z",
  "networkType": "ethereum",
  "devdoc": {
    "methods": {
      "encodeTZCountryAndVal(uint8,uint256,uint256)": {
        "details": "PlayerId and TeamId both serialize a total of 43 bits:     timeZone        = 5 bits     countryIdxInTZ  = 10 bits     val             = 28 bits (either  (playerIdxInCountry or teamIdxInCountry)*"
      }
    }
  },
  "userdoc": {
    "methods": {
      "addAcquisitionConstraint(uint256,uint32,uint8)": {
        "notice": "TODO: require signature from team owner"
      },
      "completePlayerTransit(uint256)": {
        "notice": "When a player has been put in IN_TRANSIT (due to more than 25 players in a team) Then it can be given to the target team executing this function, if at least one slot is available. This function can be called by anyone who wants to pay the gas"
      },
      "dismissPlayer(uint256,uint256,bytes32,bytes32,uint8)": {
        "notice": "Main function for a user to immeditely remove a player from his/her team It can either return it to the Academy (potentially resold again by the Academy owner) Or retire the player forever, remaining in the original team, but not occupying one of the 25 players slots."
      },
      "freezePlayer(bytes32,uint256,bytes32[2],uint8,uint32,uint32)": {
        "notice": "Freezes the player, preventing it from trading in any other market for \"validUntil\" time. This is suposed to be triggered only when a valid buyer has been found. If offerValindUntil != 0 => the put for sale comes from an offer.      - Then, although the seller specified validUntil too (!=0), we set auctionId = hash(sellerHidden, playerId, offerValidUntil) If offerValindUntil = 0 => the put for sale comes out of the blue. Then, auctionId = hash(sellerHidden, playerId, validUntil)"
      },
      "freezeTeam(bytes32,uint256,bytes32[2],uint8,uint32,uint32)": {
        "notice": "Teams follow the same pattern as players "
      },
      "getOwnerTeamInCountry(uint8,uint256,uint256)": {
        "notice": "returns NULL_ADDR if team is bot"
      },
      "getPlayerIdsInTeam(uint256)": {
        "notice": "TODO: we really don't need this function. Only for external use. Consider removal"
      },
      "hashPrivateMsg(uint8,uint256,uint256)": {
        "notice": "this function is not used in the contract. It's only for external helps"
      },
      "isBotTeamInCountry(uint8,uint256,uint256)": {
        "notice": "Rest of view/pure functions "
      },
      "isSigned(address,bytes32,uint8,bytes32,bytes32)": {
        "notice": "(currently not used) checks if the signature of a message says that it was signed by the provided address"
      },
      "lowerNewMaxSumSkillsBuyNowPlayer(uint256)": {
        "notice": "Lowering maxSumSkills can always be made instantly, as this restricts the company further."
      },
      "nextTimeZoneToUpdate()": {
        "notice": "each day has 24 hours, each with 4 verses => 96 verses per day. day = 0,..13 turnInDay = 0, 1, 2, 3 so for each TZ, we go from (day, turn) = (0, 0) ... (13,3) => a total of 14*4 = 56 turns per tz from these, all map easily to timeZones"
      },
      "prefixed(bytes32)": {
        "notice": "Builds a prefixed hash to mimic the behavior of eth_sign."
      },
      "recoverAddr(bytes32,uint8,bytes32,bytes32)": {
        "notice": "FUNCTIONS FOR SIGNATURE MANAGEMENT retrieves the addr that signed a message"
      },
      "setIsBuyNowAllowedByOwner(uint256,bool)": {
        "notice": "By default, the company can transfer a BuyNow player without forcing the blockchain to check the owner's signature. This is to safe gas. The company has obviously checked it off-chain, and receiving a player is always a good thing. However, Users can opt-out from allowing the company to put BuyNow players in their teams:"
      },
      "setIsPlayerFrozenCrypto(uint256,bool)": {
        "notice": "When the player has been frozen in the crypto market,  it won't be available in the FIAT market (or in any other) until auction finises"
      },
      "setNewMaxSumSkillsBuyNowPlayer(uint256,uint256)": {
        "notice": "maxSumSkills can only grow if enough time has passed "
      },
      "timeZoneToUpdatePure(uint256,uint8)": {
        "notice": "tz0  : v = 0, V_DAY, 2 * V_DAY... tzN  : v = 4N + V_DAY * day,  day = 0,...6 tzN  : v = 4N + V_DAY * day,  day = 0,...6  => tzN - tz0 = (v - V_DAY*day)  => 4 tzN = 4 tz0 + v % VERSES_PER_DAY last : v = V_DAY + DELTA + V_DAY * 6  Imagine 2 tzs: 0:00 - tz0; 0:30 - NUL; 1:00 - tz1; 1:30 - tz0; 0:00 - tz0; 0:30 - tz1; So the last"
      }
    },
    "notice": "Warning: This contract must ALWAYS inherit MarketView first, so that it ends up inheriting Storage before any other contract."
  }
}