{
  "contractName": "MarketView",
  "abi": [
    {
      "anonymous": false,
      "inputs": [
        {
          "indexed": false,
          "internalType": "uint256",
          "name": "teamId",
          "type": "uint256"
        },
        {
          "indexed": false,
          "internalType": "address",
          "name": "to",
          "type": "address"
        }
      ],
      "name": "TeamTransfer",
      "type": "event"
    },
    {
      "inputs": [],
      "name": "COO",
      "outputs": [
        {
          "internalType": "address",
          "name": "",
          "type": "address"
        }
      ],
      "stateMutability": "view",
      "type": "function"
    },
    {
      "inputs": [],
      "name": "_stakers",
      "outputs": [
        {
          "internalType": "contract Stakers",
          "name": "",
          "type": "address"
        }
      ],
      "stateMutability": "view",
      "type": "function"
    },
    {
      "inputs": [
        {
          "internalType": "uint256",
          "name": "encodedSkills",
          "type": "uint256"
        }
      ],
      "name": "addIsSpecial",
      "outputs": [
        {
          "internalType": "uint256",
          "name": "",
          "type": "uint256"
        }
      ],
      "stateMutability": "pure",
      "type": "function"
    },
    {
      "inputs": [
        {
          "internalType": "uint8",
          "name": "timeZone",
          "type": "uint8"
        },
        {
          "internalType": "uint256",
          "name": "countryIdxInTZ",
          "type": "uint256"
        }
      ],
      "name": "countryInTZExists",
      "outputs": [
        {
          "internalType": "bool",
          "name": "",
          "type": "bool"
        }
      ],
      "stateMutability": "view",
      "type": "function"
    },
    {
      "inputs": [],
      "name": "cryptoMktAddr",
      "outputs": [
        {
          "internalType": "address",
          "name": "",
          "type": "address"
        }
      ],
      "stateMutability": "view",
      "type": "function"
    },
    {
      "inputs": [
        {
          "internalType": "uint256",
          "name": "encoded",
          "type": "uint256"
        }
      ],
      "name": "decodeTZCountryAndVal",
      "outputs": [
        {
          "internalType": "uint8",
          "name": "",
          "type": "uint8"
        },
        {
          "internalType": "uint256",
          "name": "",
          "type": "uint256"
        },
        {
          "internalType": "uint256",
          "name": "",
          "type": "uint256"
        }
      ],
      "stateMutability": "pure",
      "type": "function"
    },
    {
      "inputs": [
        {
          "internalType": "uint256",
          "name": "currentTeamId",
          "type": "uint256"
        },
        {
          "internalType": "uint8",
          "name": "currentShirtNum",
          "type": "uint8"
        },
        {
          "internalType": "uint256",
          "name": "prevPlayerTeamId",
          "type": "uint256"
        },
        {
          "internalType": "uint256",
          "name": "lastSaleBlock",
          "type": "uint256"
        }
      ],
      "name": "encodePlayerState",
      "outputs": [
        {
          "internalType": "uint256",
          "name": "",
          "type": "uint256"
        }
      ],
      "stateMutability": "pure",
      "type": "function"
    },
    {
      "inputs": [
        {
          "internalType": "uint8",
          "name": "timeZone",
          "type": "uint8"
        },
        {
          "internalType": "uint256",
          "name": "countryIdxInTZ",
          "type": "uint256"
        },
        {
          "internalType": "uint256",
          "name": "val",
          "type": "uint256"
        }
      ],
      "name": "encodeTZCountryAndVal",
      "outputs": [
        {
          "internalType": "uint256",
          "name": "",
          "type": "uint256"
        }
      ],
      "stateMutability": "pure",
      "type": "function"
    },
    {
      "inputs": [],
      "name": "gameDeployDay",
      "outputs": [
        {
          "internalType": "uint256",
          "name": "",
          "type": "uint256"
        }
      ],
      "stateMutability": "view",
      "type": "function"
    },
    {
      "inputs": [
        {
          "internalType": "uint256",
          "name": "encodedSkills",
          "type": "uint256"
        }
      ],
      "name": "getAggressiveness",
      "outputs": [
        {
          "internalType": "uint256",
          "name": "",
          "type": "uint256"
        }
      ],
      "stateMutability": "pure",
      "type": "function"
    },
    {
      "inputs": [
        {
          "internalType": "uint256",
          "name": "encodedSkills",
          "type": "uint256"
        }
      ],
      "name": "getAlignedEndOfFirstHalf",
      "outputs": [
        {
          "internalType": "bool",
          "name": "",
          "type": "bool"
        }
      ],
      "stateMutability": "pure",
      "type": "function"
    },
    {
      "inputs": [
        {
          "internalType": "uint256",
          "name": "encodedSkills",
          "type": "uint256"
        }
      ],
      "name": "getBirthDay",
      "outputs": [
        {
          "internalType": "uint256",
          "name": "",
          "type": "uint256"
        }
      ],
      "stateMutability": "pure",
      "type": "function"
    },
    {
      "inputs": [
        {
          "internalType": "uint8",
          "name": "tz",
          "type": "uint8"
        }
      ],
      "name": "getCurrentRound",
      "outputs": [
        {
          "internalType": "uint256",
          "name": "",
          "type": "uint256"
        }
      ],
      "stateMutability": "view",
      "type": "function"
    },
    {
      "inputs": [
        {
          "internalType": "uint8",
          "name": "tz",
          "type": "uint8"
        },
        {
          "internalType": "uint8",
          "name": "tz1",
          "type": "uint8"
        },
        {
          "internalType": "uint256",
          "name": "verse",
          "type": "uint256"
        }
      ],
      "name": "getCurrentRoundPure",
      "outputs": [
        {
          "internalType": "uint256",
          "name": "",
          "type": "uint256"
        }
      ],
      "stateMutability": "pure",
      "type": "function"
    },
    {
      "inputs": [
        {
          "internalType": "uint256",
          "name": "playerState",
          "type": "uint256"
        }
      ],
      "name": "getCurrentShirtNum",
      "outputs": [
        {
          "internalType": "uint256",
          "name": "",
          "type": "uint256"
        }
      ],
      "stateMutability": "pure",
      "type": "function"
    },
    {
      "inputs": [
        {
          "internalType": "uint256",
          "name": "playerState",
          "type": "uint256"
        }
      ],
      "name": "getCurrentTeamIdFromPlayerState",
      "outputs": [
        {
          "internalType": "uint256",
          "name": "",
          "type": "uint256"
        }
      ],
      "stateMutability": "pure",
      "type": "function"
    },
    {
      "inputs": [
        {
          "internalType": "uint256",
          "name": "encodedSkills",
          "type": "uint256"
        }
      ],
      "name": "getForwardness",
      "outputs": [
        {
          "internalType": "uint256",
          "name": "",
          "type": "uint256"
        }
      ],
      "stateMutability": "pure",
      "type": "function"
    },
    {
      "inputs": [
        {
          "internalType": "uint256",
          "name": "encodedSkills",
          "type": "uint256"
        }
      ],
      "name": "getGamesNonStopping",
      "outputs": [
        {
          "internalType": "uint8",
          "name": "",
          "type": "uint8"
        }
      ],
      "stateMutability": "pure",
      "type": "function"
    },
    {
      "inputs": [
        {
          "internalType": "uint256",
          "name": "encodedSkills",
          "type": "uint256"
        }
      ],
      "name": "getGeneration",
      "outputs": [
        {
          "internalType": "uint256",
          "name": "",
          "type": "uint256"
        }
      ],
      "stateMutability": "pure",
      "type": "function"
    },
    {
      "inputs": [
        {
          "internalType": "uint256",
          "name": "encodedSkills",
          "type": "uint256"
        }
      ],
      "name": "getInjuryWeeksLeft",
      "outputs": [
        {
          "internalType": "uint8",
          "name": "",
          "type": "uint8"
        }
      ],
      "stateMutability": "pure",
      "type": "function"
    },
    {
      "inputs": [
        {
          "internalType": "uint256",
          "name": "encodedSkills",
          "type": "uint256"
        }
      ],
      "name": "getInternalPlayerId",
      "outputs": [
        {
          "internalType": "uint256",
          "name": "",
          "type": "uint256"
        }
      ],
      "stateMutability": "pure",
      "type": "function"
    },
    {
      "inputs": [
        {
          "internalType": "uint256",
          "name": "state",
          "type": "uint256"
        }
      ],
      "name": "getIsInTransitFromState",
      "outputs": [
        {
          "internalType": "bool",
          "name": "",
          "type": "bool"
        }
      ],
      "stateMutability": "pure",
      "type": "function"
    },
    {
      "inputs": [
        {
          "internalType": "uint256",
          "name": "encodedSkills",
          "type": "uint256"
        }
      ],
      "name": "getIsSpecial",
      "outputs": [
        {
          "internalType": "bool",
          "name": "",
          "type": "bool"
        }
      ],
      "stateMutability": "pure",
      "type": "function"
    },
    {
      "inputs": [
        {
          "internalType": "uint256",
          "name": "playerState",
          "type": "uint256"
        }
      ],
      "name": "getLastSaleBlock",
      "outputs": [
        {
          "internalType": "uint256",
          "name": "",
          "type": "uint256"
        }
      ],
      "stateMutability": "pure",
      "type": "function"
    },
    {
      "inputs": [
        {
          "internalType": "uint256",
          "name": "encodedSkills",
          "type": "uint256"
        }
      ],
      "name": "getLeftishness",
      "outputs": [
        {
          "internalType": "uint256",
          "name": "",
          "type": "uint256"
        }
      ],
      "stateMutability": "pure",
      "type": "function"
    },
    {
      "inputs": [
        {
          "internalType": "uint8",
          "name": "timeZone",
          "type": "uint8"
        },
        {
          "internalType": "uint256",
          "name": "countryIdxInTZ",
          "type": "uint256"
        }
      ],
      "name": "getNDivisionsInCountry",
      "outputs": [
        {
          "internalType": "uint256",
          "name": "",
          "type": "uint256"
        }
      ],
      "stateMutability": "view",
      "type": "function"
    },
    {
      "inputs": [
        {
          "internalType": "uint8",
          "name": "timeZone",
          "type": "uint8"
        },
        {
          "internalType": "uint256",
          "name": "countryIdxInTZ",
          "type": "uint256"
        }
      ],
      "name": "getNHumansInCountry",
      "outputs": [
        {
          "internalType": "uint256",
          "name": "",
          "type": "uint256"
        }
      ],
      "stateMutability": "view",
      "type": "function"
    },
    {
      "inputs": [
        {
          "internalType": "uint8",
          "name": "timeZone",
          "type": "uint8"
        },
        {
          "internalType": "uint256",
          "name": "countryIdxInTZ",
          "type": "uint256"
        }
      ],
      "name": "getNLeaguesInCountry",
      "outputs": [
        {
          "internalType": "uint256",
          "name": "",
          "type": "uint256"
        }
      ],
      "stateMutability": "view",
      "type": "function"
    },
    {
      "inputs": [
        {
          "internalType": "uint8",
          "name": "timeZone",
          "type": "uint8"
        },
        {
          "internalType": "uint256",
          "name": "countryIdxInTZ",
          "type": "uint256"
        }
      ],
      "name": "getNTeamsInCountry",
      "outputs": [
        {
          "internalType": "uint256",
          "name": "",
          "type": "uint256"
        }
      ],
      "stateMutability": "view",
      "type": "function"
    },
    {
      "inputs": [
        {
          "internalType": "uint256",
          "name": "encodedSkills",
          "type": "uint256"
        }
      ],
      "name": "getOutOfGameFirstHalf",
      "outputs": [
        {
          "internalType": "bool",
          "name": "",
          "type": "bool"
        }
      ],
      "stateMutability": "pure",
      "type": "function"
    },
    {
      "inputs": [
        {
          "internalType": "uint8",
          "name": "timeZone",
          "type": "uint8"
        },
        {
          "internalType": "uint256",
          "name": "countryIdxInTZ",
          "type": "uint256"
        },
        {
          "internalType": "uint256",
          "name": "teamIdxInCountry",
          "type": "uint256"
        }
      ],
      "name": "getOwnerTeamInCountry",
      "outputs": [
        {
          "internalType": "address",
          "name": "",
          "type": "address"
        }
      ],
      "stateMutability": "view",
      "type": "function"
    },
    {
      "inputs": [
        {
          "internalType": "uint256",
          "name": "encodedSkills",
          "type": "uint256"
        }
      ],
      "name": "getPlayerIdFromSkills",
      "outputs": [
        {
          "internalType": "uint256",
          "name": "",
          "type": "uint256"
        }
      ],
      "stateMutability": "pure",
      "type": "function"
    },
    {
      "inputs": [
        {
          "internalType": "uint256",
          "name": "encodedSkills",
          "type": "uint256"
        }
      ],
      "name": "getPotential",
      "outputs": [
        {
          "internalType": "uint256",
          "name": "",
          "type": "uint256"
        }
      ],
      "stateMutability": "pure",
      "type": "function"
    },
    {
      "inputs": [
        {
          "internalType": "uint256",
          "name": "playerState",
          "type": "uint256"
        }
      ],
      "name": "getPrevPlayerTeamId",
      "outputs": [
        {
          "internalType": "uint256",
          "name": "",
          "type": "uint256"
        }
      ],
      "stateMutability": "pure",
      "type": "function"
    },
    {
      "inputs": [
        {
          "internalType": "uint256",
          "name": "encodedSkills",
          "type": "uint256"
        }
      ],
      "name": "getRedCardLastGame",
      "outputs": [
        {
          "internalType": "bool",
          "name": "",
          "type": "bool"
        }
      ],
      "stateMutability": "pure",
      "type": "function"
    },
    {
      "inputs": [
        {
          "internalType": "uint256",
          "name": "encodedSkills",
          "type": "uint256"
        },
        {
          "internalType": "uint8",
          "name": "skillIdx",
          "type": "uint8"
        }
      ],
      "name": "getSkill",
      "outputs": [
        {
          "internalType": "uint256",
          "name": "",
          "type": "uint256"
        }
      ],
      "stateMutability": "pure",
      "type": "function"
    },
    {
      "inputs": [
        {
          "internalType": "uint256",
          "name": "encodedSkills",
          "type": "uint256"
        }
      ],
      "name": "getSubstitutedFirstHalf",
      "outputs": [
        {
          "internalType": "bool",
          "name": "",
          "type": "bool"
        }
      ],
      "stateMutability": "pure",
      "type": "function"
    },
    {
      "inputs": [
        {
          "internalType": "uint256",
          "name": "encodedSkills",
          "type": "uint256"
        }
      ],
      "name": "getSumOfSkills",
      "outputs": [
        {
          "internalType": "uint256",
          "name": "",
          "type": "uint256"
        }
      ],
      "stateMutability": "pure",
      "type": "function"
    },
    {
      "inputs": [
        {
          "internalType": "uint256",
          "name": "encodedSkills",
          "type": "uint256"
        }
      ],
      "name": "getYellowCardFirstHalf",
      "outputs": [
        {
          "internalType": "bool",
          "name": "",
          "type": "bool"
        }
      ],
      "stateMutability": "pure",
      "type": "function"
    },
    {
      "inputs": [
        {
          "internalType": "uint256",
          "name": "teamId",
          "type": "uint256"
        }
      ],
      "name": "isBotTeam",
      "outputs": [
        {
          "internalType": "bool",
          "name": "",
          "type": "bool"
        }
      ],
      "stateMutability": "view",
      "type": "function"
    },
    {
      "inputs": [
        {
          "internalType": "uint8",
          "name": "timeZone",
          "type": "uint8"
        },
        {
          "internalType": "uint256",
          "name": "countryIdxInTZ",
          "type": "uint256"
        },
        {
          "internalType": "uint256",
          "name": "teamIdxInCountry",
          "type": "uint256"
        }
      ],
      "name": "isBotTeamInCountry",
      "outputs": [
        {
          "internalType": "bool",
          "name": "",
          "type": "bool"
        }
      ],
      "stateMutability": "view",
      "type": "function"
    },
    {
      "inputs": [],
      "name": "market",
      "outputs": [
        {
          "internalType": "address",
          "name": "",
          "type": "address"
        }
      ],
      "stateMutability": "view",
      "type": "function"
    },
    {
      "inputs": [],
      "name": "nextTimeZoneToUpdate",
      "outputs": [
        {
          "internalType": "uint8",
          "name": "tz",
          "type": "uint8"
        },
        {
          "internalType": "uint8",
          "name": "day",
          "type": "uint8"
        },
        {
          "internalType": "uint8",
          "name": "turnInDay",
          "type": "uint8"
        }
      ],
      "stateMutability": "view",
      "type": "function"
    },
    {
      "inputs": [
        {
          "internalType": "uint256",
          "name": "tz",
          "type": "uint256"
        }
      ],
      "name": "normalizeTZ",
      "outputs": [
        {
          "internalType": "uint8",
          "name": "",
          "type": "uint8"
        }
      ],
      "stateMutability": "pure",
      "type": "function"
    },
    {
      "inputs": [],
      "name": "prevTimeZoneToUpdate",
      "outputs": [
        {
          "internalType": "uint8",
          "name": "tz",
          "type": "uint8"
        },
        {
          "internalType": "uint8",
          "name": "day",
          "type": "uint8"
        },
        {
          "internalType": "uint8",
          "name": "turnInDay",
          "type": "uint8"
        }
      ],
      "stateMutability": "view",
      "type": "function"
    },
    {
      "inputs": [],
      "name": "relay",
      "outputs": [
        {
          "internalType": "address",
          "name": "",
          "type": "address"
        }
      ],
      "stateMutability": "view",
      "type": "function"
    },
    {
      "inputs": [
        {
          "internalType": "uint256",
          "name": "encodedSkills",
          "type": "uint256"
        },
        {
          "internalType": "bool",
          "name": "val",
          "type": "bool"
        }
      ],
      "name": "setAlignedEndOfFirstHalf",
      "outputs": [
        {
          "internalType": "uint256",
          "name": "",
          "type": "uint256"
        }
      ],
      "stateMutability": "pure",
      "type": "function"
    },
    {
      "inputs": [
        {
          "internalType": "uint256",
          "name": "state",
          "type": "uint256"
        },
        {
          "internalType": "uint8",
          "name": "currentShirtNum",
          "type": "uint8"
        }
      ],
      "name": "setCurrentShirtNum",
      "outputs": [
        {
          "internalType": "uint256",
          "name": "",
          "type": "uint256"
        }
      ],
      "stateMutability": "pure",
      "type": "function"
    },
    {
      "inputs": [
        {
          "internalType": "uint256",
          "name": "playerState",
          "type": "uint256"
        },
        {
          "internalType": "uint256",
          "name": "teamId",
          "type": "uint256"
        }
      ],
      "name": "setCurrentTeamId",
      "outputs": [
        {
          "internalType": "uint256",
          "name": "",
          "type": "uint256"
        }
      ],
      "stateMutability": "pure",
      "type": "function"
    },
    {
      "inputs": [
        {
          "internalType": "uint256",
          "name": "encodedSkills",
          "type": "uint256"
        },
        {
          "internalType": "uint8",
          "name": "val",
          "type": "uint8"
        }
      ],
      "name": "setGamesNonStopping",
      "outputs": [
        {
          "internalType": "uint256",
          "name": "",
          "type": "uint256"
        }
      ],
      "stateMutability": "pure",
      "type": "function"
    },
    {
      "inputs": [
        {
          "internalType": "uint256",
          "name": "encodedSkills",
          "type": "uint256"
        },
        {
          "internalType": "uint32",
          "name": "val",
          "type": "uint32"
        }
      ],
      "name": "setGeneration",
      "outputs": [
        {
          "internalType": "uint256",
          "name": "",
          "type": "uint256"
        }
      ],
      "stateMutability": "pure",
      "type": "function"
    },
    {
      "inputs": [
        {
          "internalType": "uint256",
          "name": "encodedSkills",
          "type": "uint256"
        },
        {
          "internalType": "uint8",
          "name": "val",
          "type": "uint8"
        }
      ],
      "name": "setInjuryWeeksLeft",
      "outputs": [
        {
          "internalType": "uint256",
          "name": "",
          "type": "uint256"
        }
      ],
      "stateMutability": "pure",
      "type": "function"
    },
    {
      "inputs": [
        {
          "internalType": "uint256",
          "name": "state",
          "type": "uint256"
        },
        {
          "internalType": "uint256",
          "name": "lastSaleBlock",
          "type": "uint256"
        }
      ],
      "name": "setLastSaleBlock",
      "outputs": [
        {
          "internalType": "uint256",
          "name": "",
          "type": "uint256"
        }
      ],
      "stateMutability": "pure",
      "type": "function"
    },
    {
      "inputs": [
        {
          "internalType": "uint256",
          "name": "encodedSkills",
          "type": "uint256"
        },
        {
          "internalType": "bool",
          "name": "val",
          "type": "bool"
        }
      ],
      "name": "setOutOfGameFirstHalf",
      "outputs": [
        {
          "internalType": "uint256",
          "name": "",
          "type": "uint256"
        }
      ],
      "stateMutability": "pure",
      "type": "function"
    },
    {
      "inputs": [
        {
          "internalType": "uint256",
          "name": "encodedSkills",
          "type": "uint256"
        },
        {
          "internalType": "uint256",
          "name": "val",
          "type": "uint256"
        }
      ],
      "name": "setPotential",
      "outputs": [
        {
          "internalType": "uint256",
          "name": "",
          "type": "uint256"
        }
      ],
      "stateMutability": "pure",
      "type": "function"
    },
    {
      "inputs": [
        {
          "internalType": "uint256",
          "name": "state",
          "type": "uint256"
        },
        {
          "internalType": "uint256",
          "name": "value",
          "type": "uint256"
        }
      ],
      "name": "setPrevPlayerTeamId",
      "outputs": [
        {
          "internalType": "uint256",
          "name": "",
          "type": "uint256"
        }
      ],
      "stateMutability": "pure",
      "type": "function"
    },
    {
      "inputs": [
        {
          "internalType": "uint256",
          "name": "encodedSkills",
          "type": "uint256"
        },
        {
          "internalType": "bool",
          "name": "val",
          "type": "bool"
        }
      ],
      "name": "setRedCardLastGame",
      "outputs": [
        {
          "internalType": "uint256",
          "name": "",
          "type": "uint256"
        }
      ],
      "stateMutability": "pure",
      "type": "function"
    },
    {
      "inputs": [
        {
          "internalType": "uint256",
          "name": "encodedSkills",
          "type": "uint256"
        },
        {
          "internalType": "uint256",
          "name": "val",
          "type": "uint256"
        },
        {
          "internalType": "uint8",
          "name": "skillIdx",
          "type": "uint8"
        }
      ],
      "name": "setSkill",
      "outputs": [
        {
          "internalType": "uint256",
          "name": "",
          "type": "uint256"
        }
      ],
      "stateMutability": "pure",
      "type": "function"
    },
    {
      "inputs": [
        {
          "internalType": "uint256",
          "name": "encodedSkills",
          "type": "uint256"
        },
        {
          "internalType": "bool",
          "name": "val",
          "type": "bool"
        }
      ],
      "name": "setSubstitutedFirstHalf",
      "outputs": [
        {
          "internalType": "uint256",
          "name": "",
          "type": "uint256"
        }
      ],
      "stateMutability": "pure",
      "type": "function"
    },
    {
      "inputs": [
        {
          "internalType": "uint256",
          "name": "encodedSkills",
          "type": "uint256"
        },
        {
          "internalType": "uint32",
          "name": "val",
          "type": "uint32"
        }
      ],
      "name": "setSumOfSkills",
      "outputs": [
        {
          "internalType": "uint256",
          "name": "",
          "type": "uint256"
        }
      ],
      "stateMutability": "pure",
      "type": "function"
    },
    {
      "inputs": [
        {
          "internalType": "uint256",
          "name": "encodedSkills",
          "type": "uint256"
        },
        {
          "internalType": "bool",
          "name": "val",
          "type": "bool"
        }
      ],
      "name": "setYellowCardFirstHalf",
      "outputs": [
        {
          "internalType": "uint256",
          "name": "",
          "type": "uint256"
        }
      ],
      "stateMutability": "pure",
      "type": "function"
    },
    {
      "inputs": [
        {
          "internalType": "uint8",
          "name": "timeZone",
          "type": "uint8"
        },
        {
          "internalType": "uint256",
          "name": "countryIdxInTZ",
          "type": "uint256"
        },
        {
          "internalType": "uint256",
          "name": "teamIdxInCountry",
          "type": "uint256"
        }
      ],
      "name": "teamExistsInCountry",
      "outputs": [
        {
          "internalType": "bool",
          "name": "",
          "type": "bool"
        }
      ],
      "stateMutability": "view",
      "type": "function"
    },
    {
      "inputs": [
        {
          "internalType": "uint256",
          "name": "verse",
          "type": "uint256"
        },
        {
          "internalType": "uint8",
          "name": "TZForRound1",
          "type": "uint8"
        }
      ],
      "name": "timeZoneToUpdatePure",
      "outputs": [
        {
          "internalType": "uint8",
          "name": "timezone",
          "type": "uint8"
        },
        {
          "internalType": "uint8",
          "name": "day",
          "type": "uint8"
        },
        {
          "internalType": "uint8",
          "name": "turnInDay",
          "type": "uint8"
        }
      ],
      "stateMutability": "pure",
      "type": "function"
    },
    {
      "inputs": [
        {
          "internalType": "uint8",
          "name": "timeZone",
          "type": "uint8"
        }
      ],
      "name": "tzExists",
      "outputs": [
        {
          "internalType": "bool",
          "name": "",
          "type": "bool"
        }
      ],
      "stateMutability": "pure",
      "type": "function"
    },
    {
      "inputs": [
        {
          "internalType": "uint8",
          "name": "timeZone",
          "type": "uint8"
        },
        {
          "internalType": "uint256",
          "name": "countryIdxInTZ",
          "type": "uint256"
        },
        {
          "internalType": "uint256",
          "name": "playerIdxInCountry",
          "type": "uint256"
        }
      ],
      "name": "wasPlayerCreatedInCountry",
      "outputs": [
        {
          "internalType": "bool",
          "name": "",
          "type": "bool"
        }
      ],
      "stateMutability": "view",
      "type": "function"
    },
    {
      "inputs": [
        {
          "internalType": "uint256",
          "name": "playerId",
          "type": "uint256"
        }
      ],
      "name": "wasPlayerCreatedVirtually",
      "outputs": [
        {
          "internalType": "bool",
          "name": "",
          "type": "bool"
        }
      ],
      "stateMutability": "view",
      "type": "function"
    },
    {
      "inputs": [
        {
          "internalType": "uint256",
          "name": "teamId",
          "type": "uint256"
        }
      ],
      "name": "wasTeamCreatedVirtually",
      "outputs": [
        {
          "internalType": "bool",
          "name": "",
          "type": "bool"
        }
      ],
      "stateMutability": "view",
      "type": "function"
    },
    {
      "inputs": [
        {
          "internalType": "uint256",
          "name": "teamId",
          "type": "uint256"
        }
      ],
      "name": "getMaxAllowedAcquisitions",
      "outputs": [
        {
          "internalType": "bool",
          "name": "isConstrained",
          "type": "bool"
        },
        {
          "internalType": "uint8",
          "name": "",
          "type": "uint8"
        }
      ],
      "stateMutability": "view",
      "type": "function"
    },
    {
      "inputs": [
        {
          "internalType": "uint256",
          "name": "remainingAcqs",
          "type": "uint256"
        },
        {
          "internalType": "uint8",
          "name": "acq",
          "type": "uint8"
        }
      ],
      "name": "isAcquisitionFree",
      "outputs": [
        {
          "internalType": "bool",
          "name": "",
          "type": "bool"
        }
      ],
      "stateMutability": "view",
      "type": "function"
    },
    {
      "inputs": [
        {
          "internalType": "uint256",
          "name": "remainingAcqs",
          "type": "uint256"
        },
        {
          "internalType": "uint8",
          "name": "acq",
          "type": "uint8"
        }
      ],
      "name": "getAcquisitionConstraintValidUntil",
      "outputs": [
        {
          "internalType": "uint32",
          "name": "",
          "type": "uint32"
        }
      ],
      "stateMutability": "pure",
      "type": "function"
    },
    {
      "inputs": [
        {
          "internalType": "uint256",
          "name": "remainingAcqs",
          "type": "uint256"
        },
        {
          "internalType": "uint8",
          "name": "acq",
          "type": "uint8"
        }
      ],
      "name": "getAcquisitionConstraintNRemain",
      "outputs": [
        {
          "internalType": "uint8",
          "name": "",
          "type": "uint8"
        }
      ],
      "stateMutability": "pure",
      "type": "function"
    },
    {
      "inputs": [
        {
          "internalType": "uint256",
          "name": "remainingAcqs",
          "type": "uint256"
        },
        {
          "internalType": "uint32",
          "name": "validUntil",
          "type": "uint32"
        },
        {
          "internalType": "uint8",
          "name": "nRemain",
          "type": "uint8"
        },
        {
          "internalType": "uint8",
          "name": "acq",
          "type": "uint8"
        }
      ],
      "name": "setAcquisitionConstraint",
      "outputs": [
        {
          "internalType": "uint256",
          "name": "",
          "type": "uint256"
        }
      ],
      "stateMutability": "pure",
      "type": "function"
    },
    {
      "inputs": [
        {
          "internalType": "uint256",
          "name": "remainingAcqs",
          "type": "uint256"
        },
        {
          "internalType": "uint8",
          "name": "acq",
          "type": "uint8"
        }
      ],
      "name": "decreaseAcquisitionConstraint",
      "outputs": [
        {
          "internalType": "uint256",
          "name": "",
          "type": "uint256"
        }
      ],
      "stateMutability": "pure",
      "type": "function"
    },
    {
      "inputs": [
        {
          "internalType": "bytes32",
          "name": "sellerHiddenPrice",
          "type": "bytes32"
        },
        {
          "internalType": "uint256",
          "name": "teamId",
          "type": "uint256"
        },
        {
          "internalType": "bytes32[2]",
          "name": "sig",
          "type": "bytes32[2]"
        },
        {
          "internalType": "uint8",
          "name": "sigV",
          "type": "uint8"
        },
        {
          "internalType": "uint32",
          "name": "validUntil",
          "type": "uint32"
        },
        {
          "internalType": "uint32",
          "name": "offerValidUntil",
          "type": "uint32"
        }
      ],
      "name": "areFreezeTeamRequirementsOK",
      "outputs": [
        {
          "internalType": "bool",
          "name": "ok",
          "type": "bool"
        }
      ],
      "stateMutability": "view",
      "type": "function"
    },
    {
      "inputs": [
        {
          "internalType": "bytes32",
          "name": "auctionId",
          "type": "bytes32"
        },
        {
          "internalType": "uint256",
          "name": "teamId",
          "type": "uint256"
        },
        {
          "internalType": "bytes32",
          "name": "buyerHiddenPrice",
          "type": "bytes32"
        },
        {
          "internalType": "bytes32[2]",
          "name": "sig",
          "type": "bytes32[2]"
        },
        {
          "internalType": "uint8",
          "name": "sigV",
          "type": "uint8"
        },
        {
          "internalType": "address",
          "name": "buyerAddress",
          "type": "address"
        }
      ],
      "name": "areCompleteTeamAuctionRequirementsOK",
      "outputs": [
        {
          "internalType": "bool",
          "name": "ok",
          "type": "bool"
        }
      ],
      "stateMutability": "view",
      "type": "function"
    },
    {
      "inputs": [
        {
          "internalType": "bytes32",
          "name": "auctionId",
          "type": "bytes32"
        },
        {
          "internalType": "uint256",
          "name": "playerId",
          "type": "uint256"
        },
        {
          "internalType": "bytes32",
          "name": "buyerHiddenPrice",
          "type": "bytes32"
        },
        {
          "internalType": "uint256",
          "name": "buyerTeamId",
          "type": "uint256"
        },
        {
          "internalType": "bytes32[2]",
          "name": "sig",
          "type": "bytes32[2]"
        },
        {
          "internalType": "uint8",
          "name": "sigV",
          "type": "uint8"
        }
      ],
      "name": "areCompletePlayerAuctionRequirementsOK",
      "outputs": [
        {
          "internalType": "bool",
          "name": "ok",
          "type": "bool"
        }
      ],
      "stateMutability": "view",
      "type": "function"
    },
    {
      "inputs": [
        {
          "internalType": "bytes32",
          "name": "sellerHiddenPrice",
          "type": "bytes32"
        },
        {
          "internalType": "uint256",
          "name": "playerId",
          "type": "uint256"
        },
        {
          "internalType": "bytes32[2]",
          "name": "sig",
          "type": "bytes32[2]"
        },
        {
          "internalType": "uint8",
          "name": "sigV",
          "type": "uint8"
        },
        {
          "internalType": "uint32",
          "name": "validUntil",
          "type": "uint32"
        },
        {
          "internalType": "uint32",
          "name": "offerValidUntil",
          "type": "uint32"
        }
      ],
      "name": "areFreezePlayerRequirementsOK",
      "outputs": [
        {
          "internalType": "bool",
          "name": "ok",
          "type": "bool"
        }
      ],
      "stateMutability": "view",
      "type": "function"
    },
    {
      "inputs": [
        {
          "internalType": "uint8",
          "name": "currencyId",
          "type": "uint8"
        },
        {
          "internalType": "uint256",
          "name": "price",
          "type": "uint256"
        },
        {
          "internalType": "uint256",
          "name": "rnd",
          "type": "uint256"
        }
      ],
      "name": "hashPrivateMsg",
      "outputs": [
        {
          "internalType": "bytes32",
          "name": "",
          "type": "bytes32"
        }
      ],
      "stateMutability": "pure",
      "type": "function"
    },
    {
      "inputs": [
        {
          "internalType": "uint256",
          "name": "extraPrice",
          "type": "uint256"
        },
        {
          "internalType": "uint256",
          "name": "rnd",
          "type": "uint256"
        }
      ],
      "name": "hashBidHiddenPrice",
      "outputs": [
        {
          "internalType": "bytes32",
          "name": "",
          "type": "bytes32"
        }
      ],
      "stateMutability": "pure",
      "type": "function"
    },
    {
      "inputs": [
        {
          "internalType": "bytes32",
          "name": "hiddenPrice",
          "type": "bytes32"
        },
        {
          "internalType": "uint256",
          "name": "assetId",
          "type": "uint256"
        },
        {
          "internalType": "uint32",
          "name": "validUntil",
          "type": "uint32"
        },
        {
          "internalType": "uint32",
          "name": "offerValidUntil",
          "type": "uint32"
        }
      ],
      "name": "computeAuctionId",
      "outputs": [
        {
          "internalType": "bytes32",
          "name": "",
          "type": "bytes32"
        }
      ],
      "stateMutability": "pure",
      "type": "function"
    },
    {
      "inputs": [
        {
          "internalType": "bytes32",
          "name": "hiddenPrice",
          "type": "bytes32"
        },
        {
          "internalType": "uint256",
          "name": "assetId",
          "type": "uint256"
        },
        {
          "internalType": "uint32",
          "name": "validUntil",
          "type": "uint32"
        },
        {
          "internalType": "uint32",
          "name": "offerValidUntil",
          "type": "uint32"
        }
      ],
      "name": "computePutAssetForSaleDigest",
      "outputs": [
        {
          "internalType": "bytes32",
          "name": "",
          "type": "bytes32"
        }
      ],
      "stateMutability": "pure",
      "type": "function"
    },
    {
      "inputs": [
        {
          "internalType": "bytes32",
          "name": "hiddenPrice",
          "type": "bytes32"
        },
        {
          "internalType": "uint256",
          "name": "validUntil",
          "type": "uint256"
        },
        {
          "internalType": "uint256",
          "name": "playerId",
          "type": "uint256"
        },
        {
          "internalType": "uint256",
          "name": "buyerTeamId",
          "type": "uint256"
        }
      ],
      "name": "buildOfferToBuyTxMsg",
      "outputs": [
        {
          "internalType": "bytes32",
          "name": "",
          "type": "bytes32"
        }
      ],
      "stateMutability": "pure",
      "type": "function"
    },
    {
      "inputs": [
        {
          "internalType": "bytes32",
          "name": "auctionId",
          "type": "bytes32"
        },
        {
          "internalType": "bytes32",
          "name": "buyerHiddenPrice",
          "type": "bytes32"
        },
        {
          "internalType": "uint256",
          "name": "buyerTeamId",
          "type": "uint256"
        }
      ],
      "name": "buildAgreeToBuyPlayerTxMsg",
      "outputs": [
        {
          "internalType": "bytes32",
          "name": "",
          "type": "bytes32"
        }
      ],
      "stateMutability": "pure",
      "type": "function"
    },
    {
      "inputs": [
        {
          "internalType": "bytes32",
          "name": "auctionId",
          "type": "bytes32"
        },
        {
          "internalType": "bytes32",
          "name": "buyerHiddenPrice",
          "type": "bytes32"
        }
      ],
      "name": "buildAgreeToBuyTeamTxMsg",
      "outputs": [
        {
          "internalType": "bytes32",
          "name": "",
          "type": "bytes32"
        }
      ],
      "stateMutability": "pure",
      "type": "function"
    },
    {
      "inputs": [
        {
          "internalType": "bytes32",
          "name": "msgHash",
          "type": "bytes32"
        },
        {
          "internalType": "uint8",
          "name": "v",
          "type": "uint8"
        },
        {
          "internalType": "bytes32",
          "name": "r",
          "type": "bytes32"
        },
        {
          "internalType": "bytes32",
          "name": "s",
          "type": "bytes32"
        }
      ],
      "name": "recoverAddr",
      "outputs": [
        {
          "internalType": "address",
          "name": "",
          "type": "address"
        }
      ],
      "stateMutability": "pure",
      "type": "function"
    },
    {
      "inputs": [
        {
          "internalType": "address",
          "name": "_addr",
          "type": "address"
        },
        {
          "internalType": "bytes32",
          "name": "msgHash",
          "type": "bytes32"
        },
        {
          "internalType": "uint8",
          "name": "v",
          "type": "uint8"
        },
        {
          "internalType": "bytes32",
          "name": "r",
          "type": "bytes32"
        },
        {
          "internalType": "bytes32",
          "name": "s",
          "type": "bytes32"
        }
      ],
      "name": "isSigned",
      "outputs": [
        {
          "internalType": "bool",
          "name": "",
          "type": "bool"
        }
      ],
      "stateMutability": "pure",
      "type": "function"
    },
    {
      "inputs": [
        {
          "internalType": "bytes32",
          "name": "hash",
          "type": "bytes32"
        }
      ],
      "name": "prefixed",
      "outputs": [
        {
          "internalType": "bytes32",
          "name": "",
          "type": "bytes32"
        }
      ],
      "stateMutability": "pure",
      "type": "function"
    },
    {
      "inputs": [],
      "name": "getBlockchainNowTime",
      "outputs": [
        {
          "internalType": "uint256",
          "name": "",
          "type": "uint256"
        }
      ],
      "stateMutability": "view",
      "type": "function"
    },
    {
      "inputs": [
        {
          "internalType": "uint256",
          "name": "playerId",
          "type": "uint256"
        }
      ],
      "name": "isPlayerFrozenInAnyMarket",
      "outputs": [
        {
          "internalType": "bool",
          "name": "",
          "type": "bool"
        }
      ],
      "stateMutability": "view",
      "type": "function"
    },
    {
      "inputs": [
        {
          "internalType": "uint256",
          "name": "playerId",
          "type": "uint256"
        }
      ],
      "name": "isPlayerFrozenFiat",
      "outputs": [
        {
          "internalType": "bool",
          "name": "",
          "type": "bool"
        }
      ],
      "stateMutability": "view",
      "type": "function"
    },
    {
      "inputs": [
        {
          "internalType": "uint256",
          "name": "teamId",
          "type": "uint256"
        }
      ],
      "name": "isTeamFrozen",
      "outputs": [
        {
          "internalType": "bool",
          "name": "",
          "type": "bool"
        }
      ],
      "stateMutability": "view",
      "type": "function"
    },
    {
      "inputs": [
        {
          "internalType": "uint256",
          "name": "teamId",
          "type": "uint256"
        }
      ],
      "name": "getOwnerTeam",
      "outputs": [
        {
          "internalType": "address",
          "name": "",
          "type": "address"
        }
      ],
      "stateMutability": "view",
      "type": "function"
    },
    {
      "inputs": [
        {
          "internalType": "uint256",
          "name": "playerId",
          "type": "uint256"
        }
      ],
      "name": "getPlayerStateAtBirth",
      "outputs": [
        {
          "internalType": "uint256",
          "name": "",
          "type": "uint256"
        }
      ],
      "stateMutability": "pure",
      "type": "function"
    },
    {
      "inputs": [
        {
          "internalType": "uint256",
          "name": "playerId",
          "type": "uint256"
        }
      ],
      "name": "getPlayerState",
      "outputs": [
        {
          "internalType": "uint256",
          "name": "",
          "type": "uint256"
        }
      ],
      "stateMutability": "view",
      "type": "function"
    },
    {
      "inputs": [
        {
          "internalType": "uint256",
          "name": "teamId",
          "type": "uint256"
        }
      ],
      "name": "getPlayerIdsInTeam",
      "outputs": [
        {
          "internalType": "uint256[25]",
          "name": "playerIds",
          "type": "uint256[25]"
        }
      ],
      "stateMutability": "view",
      "type": "function"
    },
    {
      "inputs": [
        {
          "internalType": "uint256",
          "name": "playerId",
          "type": "uint256"
        }
      ],
      "name": "getCurrentTeamIdFromPlayerId",
      "outputs": [
        {
          "internalType": "uint256",
          "name": "",
          "type": "uint256"
        }
      ],
      "stateMutability": "view",
      "type": "function"
    },
    {
      "inputs": [
        {
          "internalType": "uint256",
          "name": "teamId",
          "type": "uint256"
        }
      ],
      "name": "getFreeShirt",
      "outputs": [
        {
          "internalType": "uint8",
          "name": "",
          "type": "uint8"
        }
      ],
      "stateMutability": "view",
      "type": "function"
    },
    {
      "inputs": [
        {
          "internalType": "uint256",
          "name": "playerId",
          "type": "uint256"
        },
        {
          "internalType": "uint8",
          "name": "shirtNum",
          "type": "uint8"
        }
      ],
      "name": "isFreeShirt",
      "outputs": [
        {
          "internalType": "bool",
          "name": "",
          "type": "bool"
        }
      ],
      "stateMutability": "pure",
      "type": "function"
    },
    {
      "inputs": [
        {
          "internalType": "uint8",
          "name": "timeZone",
          "type": "uint8"
        },
        {
          "internalType": "uint256",
          "name": "countryIdxInTZ",
          "type": "uint256"
        },
        {
          "internalType": "uint256",
          "name": "teamIdxInCountry",
          "type": "uint256"
        },
        {
          "internalType": "uint8",
          "name": "shirtNum",
          "type": "uint8"
        }
      ],
      "name": "getDefaultPlayerIdForTeamInCountry",
      "outputs": [
        {
          "internalType": "uint256",
          "name": "",
          "type": "uint256"
        }
      ],
      "stateMutability": "pure",
      "type": "function"
    },
    {
      "inputs": [
        {
          "internalType": "uint256",
          "name": "playerId",
          "type": "uint256"
        }
      ],
      "name": "getOwnerPlayer",
      "outputs": [
        {
          "internalType": "address",
          "name": "",
          "type": "address"
        }
      ],
      "stateMutability": "view",
      "type": "function"
    },
    {
      "inputs": [
        {
          "internalType": "uint256",
          "name": "teamId",
          "type": "uint256"
        }
      ],
      "name": "getNPlayersInTransitInTeam",
      "outputs": [
        {
          "internalType": "uint8",
          "name": "",
          "type": "uint8"
        }
      ],
      "stateMutability": "view",
      "type": "function"
    },
    {
      "inputs": [],
      "name": "getNewMaxSumSkillsBuyNowPlayer",
      "outputs": [
        {
          "internalType": "uint256",
          "name": "sumSkills",
          "type": "uint256"
        },
        {
          "internalType": "uint256",
          "name": "minLapseTime",
          "type": "uint256"
        },
        {
          "internalType": "uint256",
          "name": "lastUpdate",
          "type": "uint256"
        }
      ],
      "stateMutability": "view",
      "type": "function"
    },
    {
      "inputs": [
        {
          "internalType": "uint256",
          "name": "playerId",
          "type": "uint256"
        }
      ],
      "name": "isPlayerDismissed",
      "outputs": [
        {
          "internalType": "bool",
          "name": "",
          "type": "bool"
        }
      ],
      "stateMutability": "view",
      "type": "function"
    }
  ],
  "bytecode": "0x608060405234801561001057600080fd5b50612d03806100206000396000f3fe608060405234801561001057600080fd5b50600436106105ec5760003560e01c80638a89148c1161031b578063d02254a5116101a8578063e7ff8b0e116100f4578063f2dc657f116100ad578063facec57311610087578063facec57314611499578063fc27bf4a146114bf578063fcb8bb92146114e2578063fcf9b3be14611521576105ec565b8063f2dc657f14611456578063f7fdc82714610c2c578063f9d0723d14611473576105ec565b8063e7ff8b0e1461136f578063e804e5191461138c578063eabf6a4b146113a9578063eb78b7b7146113ff578063ec7ecec51461141c578063f2c3576414611439576105ec565b8063db43151d11610161578063e1b27e6b1161013b578063e1b27e6b146112fb578063e2424cf814611303578063e37528bb14611320578063e5df669f1461133d576105ec565b8063db43151d14611293578063dcadab5c146112b9578063dcc9ee3f146112d6576105ec565b8063d02254a5146111f7578063d1b3d8fd14611214578063d2f7967d14611231578063d403fabd1461124e578063d64844eb1461126e578063d8f73c3c1461128b576105ec565b8063b59589d111610267578063c395d7a811610220578063cc7d473b116101fa578063cc7d473b1461113f578063ce506ec51461115c578063cead46d914611182578063cebc43a6146111ef576105ec565b8063c395d7a8146110f5578063c566b5bc146110fd578063c5aedd2c1461111a576105ec565b8063b59589d11461103a578063b94615ce14611042578063bbb117801461105f578063c04f6d531461108f578063c2bc41cd146110b5578063c37b1c25146110d2576105ec565b806395c94c4d116102d4578063a160324b116102ae578063a160324b14610fae578063a21ef9fa14610fd4578063acd742d314610ff1578063af76cd0114611017576105ec565b806395c94c4d14610f34578063963fcc8014610f6b57806398bccd5614610f91576105ec565b80638a89148c14610e7d5780638cc9a8d514610e855780638cfd312514610ea25780638de97f4f14610ed15780638f9da21414610efa578063920bee2f14610f17576105ec565b8063492afc6911610499578063663c2e4b116103e55780637ffa3a2e1161039e57806380f556051161037857806380f5560514610d955780638608ff4314610d9d5780638677ebe814610dcf57806388660fbe14610e10576105ec565b80637ffa3a2e14610d2c57806380bac70914610d4957806380c794ce14610d75576105ec565b8063663c2e4b14610c7b5780636a6cb69f14610c835780636f6c2ae014610ca957806376c2d96014610cc65780637933e88314610cf257806379e7659714610d0f576105ec565b806358ee321b116104525780635adb40f51161042c5780635adb40f514610bcf5780635f794c2214610bf557806361c5d9ad14610c2c57806363ef746014610c4f576105ec565b806358ee321b14610b43578063595ef25b14610b6957806359d9703814610b95576105ec565b8063492afc6914610a525780634bea2a6914610a8b5780634db989fd14610aa85780634e905ea214610ace578063507b172314610af357806356e3df9714610b26576105ec565b80633118adcd1161055857806338897858116105115780633dbf3505116104eb5780633dbf350514610967578063434807ad146109cd578063471d6e80146109ea57806347524b6014610a35576105ec565b806338897858146108fb57806338c96b5c1461092457806339d16fe314610941576105ec565b80633118adcd146108265780633260840b1461084f578063332b8ea31461088e5780633518dd1d1461089657806336e31782146108b357806337a86302146108d8576105ec565b80631f275713116105aa5780631f275713146107495780631fc7768f1461076657806320748ae814610783578063228408b0146107af57806326657608146107e357806329d0dcfb14610800576105ec565b80626e6ad1146105f1578063022da63a1461062b57806307c30b4d1461065a5780631018d55f1461067f5780631053db97146106ab5780631060c9c21461072c575b600080fd5b61060e6004803603602081101561060757600080fd5b503561154d565b60408051921515835260ff90911660208301528051918290030190f35b6106486004803603602081101561064157600080fd5b50356115f8565b60408051918252519081900360200190f35b6106486004803603604081101561067057600080fd5b50803590602001351515611607565b6106486004803603606081101561069557600080fd5b508035906020810135906040013560ff16611633565b610718600480360360e08110156106c157600080fd5b604080518082018252833593602081013593810192909160808301918084019060029083908390808284376000920191909152509194505060ff82351692505063ffffffff60208201358116916040013516611650565b604080519115158252519081900360200190f35b6106486004803603602081101561074257600080fd5b50356117cf565b6106486004803603602081101561075f57600080fd5b50356117da565b6106486004803603602081101561077c57600080fd5b503561182b565b6106486004803603606081101561079957600080fd5b5060ff8135169060208101359060400135611834565b610648600480360360808110156107c557600080fd5b5060ff8135811691602081013591604082013591606001351661194e565b610648600480360360208110156107f957600080fd5b5035611981565b6106486004803603604081101561081657600080fd5b508035906020013560ff166119ec565b6106486004803603606081101561083c57600080fd5b50803590602081013590604001356119fb565b61086c6004803603602081101561086557600080fd5b5035611a32565b6040805160ff9094168452602084019290925282820152519081900360600190f35b610648611a4e565b610648600480360360208110156108ac57600080fd5b5035611a55565b610648600480360360408110156108c957600080fd5b50803590602001351515611a5e565b610648600480360360408110156108ee57600080fd5b5080359060200135611a88565b6106486004803603604081101561091157600080fd5b508035906020013563ffffffff16611aff565b6106486004803603602081101561093a57600080fd5b5035611b1b565b6107186004803603604081101561095757600080fd5b508035906020013560ff16611b2e565b610718600480360360e081101561097d57600080fd5b6040805180820182528335936020810135938382013593606083013593918301929160c08301916080840190600290839083908082843760009201919091525091945050503560ff169050611b5c565b610648600480360360208110156109e357600080fd5b5035611c65565b610a1060048036036040811015610a0057600080fd5b508035906020013560ff16611c6e565b6040805160ff9485168152928416602084015292168183015290519081900360600190f35b61071860048036036020811015610a4b57600080fd5b5035611d38565b610a6f60048036036020811015610a6857600080fd5b5035611d44565b604080516001600160a01b039092168252519081900360200190f35b61064860048036036020811015610aa157600080fd5b5035611d60565b61064860048036036040811015610abe57600080fd5b508035906020013560ff16611d6e565b61064860048036036040811015610ae457600080fd5b50803590602001351515611de9565b610b1060048036036020811015610b0957600080fd5b5035611e13565b6040805160ff9092168252519081900360200190f35b61064860048036036020811015610b3c57600080fd5b5035611e8c565b610b1060048036036040811015610b5957600080fd5b508035906020013560ff16611e95565b610a6f60048036036060811015610b7f57600080fd5b5060ff8135169060208101359060400135611ea5565b61064860048036036080811015610bab57600080fd5b5080359063ffffffff6020820135169060ff60408201358116916060013516611f02565b61064860048036036040811015610be557600080fd5b5060ff8135169060200135611f42565b61064860048036036080811015610c0b57600080fd5b5080359060208101359063ffffffff60408201358116916060013516611f95565b61064860048036036040811015610c4257600080fd5b5080359060200135611fe2565b61064860048036036060811015610c6557600080fd5b5060ff813516906020810135906040013561200e565b61064861204b565b61064860048036036040811015610c9957600080fd5b5060ff813516906020013561204f565b61064860048036036020811015610cbf57600080fd5b5035612062565b61071860048036036060811015610cdc57600080fd5b5060ff8135169060208101359060400135612083565b61071860048036036020811015610d0857600080fd5b5035612099565b610b1060048036036020811015610d2557600080fd5b50356120ad565b61071860048036036020811015610d4257600080fd5b50356120b6565b61071860048036036060811015610d5f57600080fd5b5060ff81351690602081013590604001356120c2565b61064860048036036020811015610d8b57600080fd5b503560ff166120e2565b610a6f6120fc565b61064860048036036080811015610db357600080fd5b5080359060ff602082013516906040810135906060013561210c565b610718600480360360a0811015610de557600080fd5b506001600160a01b038135169060208101359060ff604082013516906060810135906080013561213e565b610718600480360360e0811015610e2657600080fd5b604080518082018252833593602081013593810192909160808301918084019060029083908390808284376000920191909152509194505060ff82351692505063ffffffff602082013581169160400135166121c6565b610a10612341565b61071860048036036020811015610e9b57600080fd5b5035612368565b61064860048036036080811015610eb857600080fd5b5080359060208101359060408101359060600135612399565b61064860048036036040811015610ee757600080fd5b508035906020013563ffffffff166123d7565b610a6f60048036036020811015610f1057600080fd5b50356123f1565b61064860048036036020811015610f2d57600080fd5b5035612404565b61064860048036036080811015610f4a57600080fd5b5080359060208101359063ffffffff6040820135811691606001351661240d565b61071860048036036040811015610f8157600080fd5b508035906020013560ff1661249a565b610b1060048036036020811015610fa757600080fd5b50356124c5565b610fb66124db565b60408051938452602084019290925282820152519081900360600190f35b61071860048036036020811015610fea57600080fd5b50356124ee565b6106486004803603604081101561100757600080fd5b508035906020013560ff16612517565b6106486004803603604081101561102d57600080fd5b508035906020013561254a565b610a6f6125bc565b6107186004803603602081101561105857600080fd5b50356125cc565b6106486004803603606081101561107557600080fd5b5060ff8135811691602081013590911690604001356125ed565b610648600480360360408110156110a557600080fd5b5060ff813516906020013561264f565b610648600480360360208110156110cb57600080fd5b5035612665565b610648600480360360408110156110e857600080fd5b508035906020013561266e565b610a106126dc565b6106486004803603602081101561111357600080fd5b5035612714565b6106486004803603604081101561113057600080fd5b50803590602001351515612721565b6107186004803603602081101561115557600080fd5b503561274b565b6107186004803603604081101561117257600080fd5b5060ff8135169060200135612757565b610718600480360360e081101561119857600080fd5b60408051808201825283359360208101359383820135939082019260a0830191606084019060029083908390808284376000920191909152509194505050803560ff169150602001356001600160a01b0316612771565b610a6f6127f5565b6107186004803603602081101561120d57600080fd5b5035612805565b6107186004803603602081101561122a57600080fd5b5035612825565b6106486004803603602081101561124757600080fd5b5035612831565b6107186004803603602081101561126457600080fd5b503560ff1661283f565b6107186004803603602081101561128457600080fd5b503561285a565b610a6f61287f565b610648600480360360408110156112a957600080fd5b508035906020013560ff1661288f565b610b10600480360360208110156112cf57600080fd5b50356128a6565b610648600480360360408110156112ec57600080fd5b508035906020013515156128b9565b610a6f6128e3565b6107186004803603602081101561131957600080fd5b50356128f3565b6107186004803603602081101561133657600080fd5b503561291b565b610a6f6004803603608081101561135357600080fd5b5080359060ff6020820135169060408101359060600135612927565b6107186004803603602081101561138557600080fd5b5035612993565b610b10600480360360208110156113a257600080fd5b5035612a18565b6113c6600480360360208110156113bf57600080fd5b5035612a21565b604051808261032080838360005b838110156113ec5781810151838201526020016113d4565b5050505090500191505060405180910390f35b6106486004803603602081101561141557600080fd5b5035612b5b565b6106486004803603602081101561143257600080fd5b5035612b64565b6107186004803603602081101561144f57600080fd5b5035612bb5565b6106486004803603602081101561146c57600080fd5b5035612bc1565b6106486004803603604081101561148957600080fd5b5060ff8135169060200135612bcb565b610648600480360360408110156114af57600080fd5b508035906020013560ff16612bd9565b610648600480360360408110156114d557600080fd5b5080359060200135612c4b565b611508600480360360408110156114f857600080fd5b508035906020013560ff16612c5c565b6040805163ffffffff9092168252519081900360200190f35b6107186004803603606081101561153757600080fd5b5060ff8135169060208101359060400135612c6c565b600081815261100e60205260408120548190806115715750600091508190506115f3565b60ff60005b600660ff821610156115d45761158c8382611b2e565b6115cc57600061159c8483611e95565b905060ff81166115b8575060019450600093506115f392505050565b8260ff168160ff1610156115ca578092505b505b600101611576565b508060ff1660ff146115e8576001816115ec565b6000805b9350935050505b915091565b6507ffffffffff81165b919050565b600081156116235750600160ad1b198216600160ad1b1761162d565b50600160ad1b1982165b92915050565b60ff811660140282811b620fffff90911b198416175b9392505050565b60008061165c87612b64565b905061166781612099565b156116a35760405162461bcd60e51b8152600401808060200182810382526029815260200180612ca56029913960400191505060405180910390fd5b63ffffffff83166116be57428463ffffffff161191506116e4565b428363ffffffff161180156116e1575082600a0163ffffffff168463ffffffff16115b91505b8180156116f757506116f5876128f3565b155b801561170d57506205460042018463ffffffff16105b9150600061171a826115f8565b905060018114156117465782801561173d5750611005546001600160a01b031633145b925050506117c5565b600061175182611d44565b905060006117618b8b8989611f95565b9050848015611776575061177483612993565b155b801561178a57506001600160a01b03821615155b80156117be575088516117a99082908a908c60015b6020020151612927565b6001600160a01b0316826001600160a01b0316145b9450505050505b9695505050505050565b60b51c6207ffff1690565b604080517f19457468657265756d205369676e6564204d6573736167653a0a333200000000602080830191909152603c8083019490945282518083039094018452605c909101909152815191012090565b607e1c60071690565b600060208460ff1610611886576040805162461bcd60e51b81526020600482015260156024820152741d1a5b595e9bdb99481bdd5d081bd988189bdd5b99605a1b604482015290519081900360640190fd5b61040083106118dc576040805162461bcd60e51b815260206004820152601b60248201527f636f756e747279496478496e545a206f7574206f6620626f756e640000000000604482015290519081900360640190fd5b63100000008210611934576040805162461bcd60e51b815260206004820152601a60248201527f76616c20746f20656e636f6465206f7574206f6620626f756e64000000000000604482015290519081900360640190fd5b5060269290921b653fc00000000016601c9190911b171790565b6000601260ff83161061196357506000611979565b61197685856012860260ff861601611834565b90505b949350505050565b600061198c82611d38565b156119a7576119a06001600080600061210c565b9050611602565b60008060006119b585611a32565b919450925090506012810460006119cd858584611834565b9050601283066119e0828260008061210c565b98975050505050505050565b60ff166014021c620fffff1690565b6040805160208082019590955280820193909352606080840192909252805180840390920182526080909201909152805191012090565b602681901c601f1691601c82901c6103ff1691630fffffff1690565b6110095481565b607b1c60071690565b60008115611a7a5750600160d51b198216600160d51b1761162d565b50600160d51b19821661162d565b60006507ffffffffff821115611ae5576040805162461bcd60e51b815260206004820152601a60248201527f707265764c6561677565496478206f7574206f6620626f756e64000000000000604482015290519081900360640190fd5b5060301b6b07ffffffffff00000000000019919091161790565b60b51b63ffffffff60b51b166207ffff60b51b19919091161790565b600061162d611b2983612b64565b6115f8565b600080611b3b8484612c5c565b905063ffffffff811615806119795750428163ffffffff1610949350505050565b6000806000611b6a8661154d565b91509150818015611b7c575060ff8116155b15611b8c576000925050506117c5565b6000611ba1611b9c8b8a8a6119fb565b6117da565b90506000611bae88611d44565b90506000611bbb8b612b64565b9050611bc681612099565b158015611bdb5750611bd7816115f8565b8914155b8015611bef57506001600160a01b03821615155b8015611c17575060008b815261100b60209081526040909120546001600160d81b038e16911c145b8015611c4557508751611c3090849089908b600161179f565b6001600160a01b0316826001600160a01b0316145b8015611c555750611c558b61285a565b9c9b505050505050505050505050565b60741c600f1690565b60008080600385166024828060028410801590611c8a57508289105b15611ca3575060009550859450849350611d3192505050565b6002841015611ce05760046060858b0306048860ff16019150606060ff16848960ff1684036004028b030360020281611cd857fe5b049050611d19565b60046060848b0306048860ff16019150606060ff16838960ff1684036004028b030360020281611d0c57fe5b0460010190506002840393505b839450611d25826128a6565b9650600e900694505050505b9250925092565b60cc1c60019081161490565b600090815261101660205260409020546001600160a01b031690565b60301c6507ffffffffff1690565b6000601f8260ff161115611dc9576040805162461bcd60e51b815260206004820152601c60248201527f63757272656e7453686972744e756d206f7574206f6620626f756e6400000000604482015290519081900360640190fd5b5065f800000000001991909116602b9190911b6607f80000000000161790565b60008115611e055750600160b41b198216600160b41b1761162d565b50600160b41b19821661162d565b600060185b60ff811615611e5f57600083815261101560205260409020611e4a9060ff831660198110611e4257fe5b01548261249a565b15611e56579050611602565b60001901611e18565b5060008281526110156020526040812054611e799161249a565b611e8457601961162d565b506000919050565b60cd1c60ff1690565b60240260200160ff161c600f1690565b6000611eb08461283f565b1580611ec35750611ec18484612757565b155b15611ed057506000611649565b6110166000611ee0868686611834565b81526020810191909152604001600020546001600160a01b0316949350505050565b60008160240260200160ff168360ff16901b8260240260ff168563ffffffff16901b8360240260ff16640fffffffff901b19871617179050949350505050565b6000611f4d8361283f565b1580611f605750611f5e8383612757565b155b15611f6d5750600061162d565b6110126000611f7e85856000611834565b815260200190815260200160002054905092915050565b60408051602080820187905281830186905263ffffffff808616606084015284166080808401919091528351808403909101815260a09092019092528051910120600090611976906117da565b604080516020808201949094528082019290925280518083038201815260609092019052805191012090565b6040805160ff8516602080830191909152818301859052606080830185905283518084039091018152608090920190925280519101209392505050565b4290565b60006110136000611f7e85856000611834565b600061206d82611d38565b61207f5761207a82612831565b61162d565b5090565b600061208f848461264f565b9091109392505050565b6000601a6120a683612b5b565b1492915050565b60b11c60071690565b60d61c60019081161490565b6000806120d0858585611ea5565b6001600160a01b031614949350505050565b61101e5461101f5460009161162d91849160ff16906125ed565b611005546001600160a01b031690565b60008061211a60008761266e565b90506121268186611d6e565b90506121328185611a88565b90506117c5818461254a565b6000856001600160a01b031660018686868660405160008152602001604052604051808581526020018460ff1660ff1681526020018381526020018281526020019450505050506020604051602081039080840390855afa1580156121a7573d6000803e3d6000fd5b505050602060405103516001600160a01b031614905095945050505050565b6000806121d287611d44565b905063ffffffff83166121ef57428463ffffffff16119150612215565b428363ffffffff1611801561221257508260b40163ffffffff168463ffffffff16115b91505b600061222389898787611f95565b9050828015612238575061223688612993565b155b801561224c57506001600160a01b03821615155b801561227a5750865161226590829088908a600161179f565b6001600160a01b0316826001600160a01b0316145b801561229057506205460042018563ffffffff16105b9250826122a2576000925050506117c5565b60018814156122b6576001925050506117c5565b6122be612c85565b6122c789612a21565b905060005b601960ff82161015612333576122f5828260ff16601981106122ea57fe5b60200201518261249a565b1580156123195750612319828260ff166019811061230f57fe5b60200201516128f3565b1561232b5760009450505050506117c5565b6001016122cc565b505050509695505050505050565b61101f5461101e546000918291829161235c9160ff16611c6e565b9250925092505b909192565b6000600182141561237b57506000611602565b50600090815261101660205260409020546001600160a01b03161590565b604080516020808201969096528082019490945260608401929092526080808401919091528151808403909101815260a09092019052805191012090565b60cd1b63ffffffff60cd1b1660ff60cd1b19919091161790565b600061162d6123ff83611b1b565b611d44565b600160cc1b1790565b600063ffffffff8216156124595760408051602080820188905281830187905263ffffffff85166060808401919091528351808403909101815260809092019092528051910120611976565b5050604080516020808201959095528082019390935263ffffffff919091166060808401919091528151808403909101815260809092019052805191012090565b6000601260ff8316106124bb578215806124b45750600183145b905061162d565b506001821461162d565b6000908152611010602052604090205460ff1690565b611018546110195461101c549192909190565b6000806000806124fd85611a32565b92509250925061250e838383612083565b95945050505050565b6000806125248484611e95565b600f60ff60206024870201811691821b19871660001990930116901b1791505092915050565b60006407ffffffff8211156125a6576040805162461bcd60e51b815260206004820152601a60248201527f6c61737453616c65426c6f636b206f7574206f6620626f756e64000000000000604482015290519081900360640190fd5b50605b1b6407ffffffff605b1b19919091161790565b611007546001600160a01b031690565b6000806125d883612b64565b905060196125e582612b5b565b149392505050565b60006102a082101561260157506000611649565b6102a08204600060ff808616908716101561262157848660180103612625565b8486035b60ff169050600481026102a08302018410156126475750600019019050611649565b509050611649565b6000600861265d8484612bcb565b029392505050565b60781c60071690565b60006507ffffffffff8211156126cb576040805162461bcd60e51b815260206004820152601b60248201527f63757272656e745465616d496478206f7574206f6620626f756e640000000000604482015290519081900360640190fd5b506507ffffffffff19919091161790565b600080600061101f54600014156126fb57506000915081905080612363565b61101f5461101e5461235c91600019019060ff16611c6e565b605b1c6407ffffffff1690565b6000811561273d5750600160d61b198216600160d61b1761162d565b50600160d61b19821661162d565b60ad1c60019081161490565b60ff91909116600090815261101760205260409020541190565b600080612781611b9c8988611fe2565b90506001600160a01b038316158015906127bd575084516127a8908290869088600161179f565b6001600160a01b0316836001600160a01b0316145b80156127e55750600087815261100d60209081526040909120546001600160d81b038a16911c145b80156119e057506119e087612993565b611008546001600160a01b031690565b60008060008061281485611a32565b92509250925061250e838383612c6c565b60d51c60019081161490565b60811c6507ffffffffff1690565b600060ff82161580159061162d575050601960ff9091161090565b600081815261100b60205260409020544263ffffffff919091166202a3000111919050565b61102f546001600160a01b031681565b60b11b60ff60b11b16600760b11b19919091161790565b6000601860178301066001019050919050565b600081156128d55750600160ac1b198216600160ac1b1761162d565b50600160ac1b19821661162d565b611006546001600160a01b031690565b60006128fe8261285a565b8061162d575050600090815261100c602052604090205460ff1690565b60b41c60019081161490565b604080516000808252602080830180855288905260ff87168385015260608301869052608083018590529251909260019260a080820193601f1981019281900390910190855afa15801561297f573d6000803e3d6000fd5b5050604051601f1901519695505050505050565b600060018214156129a657506000611602565b6129af826124ee565b6129f2576040805162461bcd60e51b815260206004820152600f60248201526e756e6578697374656e74207465616d60881b604482015290519081900360640190fd5b50600081815261100d60205260409020544263ffffffff919091166202a3000111919050565b60ae1c60071690565b612a29612c85565b6000806000612a3785611a32565b925092509250612a48838383612083565b612a8b576040805162461bcd60e51b815260206004820152600f60248201526e1a5b9d985b1a59081d19585b481a59608a1b604482015290519081900360640190fd5b612a968383836120c2565b15612ad85760005b601960ff82161015612ad257612ab68484848461194e565b858260ff1660198110612ac557fe5b6020020152600101612a9e565b50612b53565b60005b601960ff82161015612b515760008681526110156020526040812060ff831660198110612b0457fe5b0154905080612b3257612b198585858561194e565b868360ff1660198110612b2857fe5b6020020152612b48565b80868360ff1660198110612b4257fe5b60200201525b50600101612adb565b505b505050919050565b602b1c601f1690565b600081815261100a60205260408120548015612b81579050611602565b612b8a83611d38565b158015612b9d5750612b9b83612805565b155b15612bac576000915050611602565b61164983611981565b60ac1c60019081161490565b60641c61ffff1690565b6000601061265d8484611f42565b600060088260ff1610612c33576040805162461bcd60e51b815260206004820152601d60248201527f67616d65734e6f6e53746f7070696e67206f7574206f6620626f756e64000000604482015290519081900360640190fd5b5060ae1b60ff60ae1b16600760ae1b19919091161790565b60741b600f60741b19919091161790565b60240260ff161c63ffffffff1690565b60006012612c7a858561264f565b029091109392505050565b604051806103200160405280601990602082028036833750919291505056fe63616e6e6f7420667265657a65206120706c61796572207468617420697320696e207472616e736974a264697066735822122076899be75344addc8326e93c14b28872b654a2c45c471528361d184ee795498464736f6c63430006030033",
  "source": "pragma solidity >= 0.6.3;\n\nimport \"./UniverseInfo.sol\";\nimport \"../encoders/EncodingState.sol\";\nimport \"../encoders/EncodingSkillsSetters.sol\";\n\n/**\n @title View and Pure functions inherited by Market\n @author Freeverse.io, www.freeverse.io\n*/\n\n/// Warning: This contract must ALWAYS inherit UniverseInfo first, so that it ends up inheriting Storage before any other contract.\ncontract MarketView is UniverseInfo, EncodingSkillsSetters, EncodingState {\n    \n    function getMaxAllowedAcquisitions(uint256 teamId) public view returns (bool isConstrained, uint8) {\n        uint256 remainingAcqs = _teamIdToRemainingAcqs[teamId];\n        if (remainingAcqs == 0) return (false, 0);\n        uint8 nRemain = 255;\n        for (uint8 acq = 0; acq < MAX_ACQUISITON_CONSTAINTS; acq++) {\n            if (!isAcquisitionFree(remainingAcqs, acq)) {\n                uint8 thisNRemain = getAcquisitionConstraintNRemain(remainingAcqs, acq);\n                if (thisNRemain == 0) return (true, 0);\n                if (thisNRemain < nRemain) nRemain = thisNRemain;\n                \n            }\n        }\n        return (nRemain == 255) ? (false, 0) : (true, nRemain);\n    }    \n    \n    function isAcquisitionFree(uint256 remainingAcqs, uint8 acq) public view returns (bool) {\n        uint32 validUntil = getAcquisitionConstraintValidUntil(remainingAcqs, acq);\n        return (validUntil == 0) || (validUntil < now);\n    }\n    \n    function getAcquisitionConstraintValidUntil(uint256 remainingAcqs, uint8 acq) public pure returns (uint32) {\n        return uint32((remainingAcqs >> 36 * acq) & (2**32-1)) ; \n    }\n\n    function getAcquisitionConstraintNRemain(uint256 remainingAcqs, uint8 acq) public pure returns (uint8) {\n        return uint8((remainingAcqs >> 32 + 36 * acq) & 15); \n    }\n    \n    function setAcquisitionConstraint(uint256 remainingAcqs, uint32 validUntil, uint8 nRemain, uint8 acq) public pure returns (uint256) {\n        return  (remainingAcqs & ~(uint256(2**36-1) << (36 * acq)))\n                | (uint256(validUntil) << (36 * acq))\n                | (uint256(nRemain) << (32 + 36 * acq));\n    }\n\n    function decreaseAcquisitionConstraint(uint256 remainingAcqs, uint8 acq) public pure returns (uint256) {\n        uint8 nRemain = getAcquisitionConstraintNRemain(remainingAcqs, acq);\n        return (remainingAcqs & ~(uint256(15) << (32 + 36 * acq))) | (uint256(nRemain-1) << (32 + 36 * acq));\n    }\n    \n    function areFreezeTeamRequirementsOK(\n        bytes32 sellerHiddenPrice,\n        uint256 teamId,\n        bytes32[2] memory sig,\n        uint8 sigV,\n        uint32 validUntil,\n        uint32 offerValidUntil\n    ) \n        public \n        view \n        returns (bool ok)\n    {\n        address teamOwner = getOwnerTeam(teamId);\n        if (offerValidUntil == 0) {\n            /// check validUntil has not expired\n            ok = (validUntil > now);\n        } else {\n            /// check offerValidUntil has not expired, and that validUntil is at least 3min larger\n            ok = (offerValidUntil > now) && (validUntil > offerValidUntil + 180);\n        }\n        bytes32 sellerDigest = computePutAssetForSaleDigest(sellerHiddenPrice, teamId, validUntil, offerValidUntil);\n        ok =    ok &&\n                /// check player is not already frozen\n                (!isTeamFrozen(teamId)) &&  \n                /// check asset is owned by legit address\n                (teamOwner != NULL_ADDR) && \n                /// check signatures are valid by requiring that they own the asset:\n                (teamOwner == recoverAddr(sellerDigest, sigV, sig[IDX_r], sig[IDX_s])) &&    \n                /// check that auction time is less that the required 32 bit (2^32 - 1)\n                (validUntil < now + MAX_VALID_UNTIL);\n        if (!ok) return false;\n        if (teamId == ACADEMY_TEAM) return true;\n        \n        /// check that the team itself does not have players already for sale:   \n        uint256[PLAYERS_PER_TEAM_MAX] memory playerIds = getPlayerIdsInTeam(teamId);\n        for (uint8 p = 0; p < PLAYERS_PER_TEAM_MAX; p++) {\n            if (!isFreeShirt(playerIds[p], p) && isPlayerFrozenInAnyMarket(playerIds[p])) return false;\n        }\n    }\n\n    function areCompleteTeamAuctionRequirementsOK(\n        bytes32 auctionId,\n        uint256 teamId,\n        bytes32 buyerHiddenPrice,\n        bytes32[2] memory sig,\n        uint8 sigV,\n        address buyerAddress\n     ) \n        public\n        view\n        returns(bool ok) \n    {\n        /// the next line will verify that the teamId is the same that was used by the seller to sign\n        bytes32 msgHash = prefixed(buildAgreeToBuyTeamTxMsg(auctionId, buyerHiddenPrice));\n        ok =    /// check buyerAddress is legit and signature is valid\n                (buyerAddress != address(0)) && \n                /// /// check that they signed what they input data says they signed:\n                (buyerAddress == recoverAddr(msgHash, sigV, sig[IDX_r], sig[IDX_s])) && \n                /// check buyer and seller refer to the exact same auction\n                ((uint256(auctionId) & KILL_LEFTMOST_40BIT_MASK) == (_teamIdToAuctionData[teamId] >> 32)) &&\n                /// /// check player is still frozen\n                isTeamFrozen(teamId);\n    }\n\n    function areCompletePlayerAuctionRequirementsOK(\n        bytes32 auctionId,\n        uint256 playerId,\n        bytes32 buyerHiddenPrice,\n        uint256 buyerTeamId,\n        bytes32[2] memory sig,\n        uint8 sigV\n     ) \n        public\n        view\n        returns(bool ok) \n    {\n        /// the next line will verify that the playerId is the same that was used by the seller to sign\n        (bool isConstrained, uint8 nRemain) = getMaxAllowedAcquisitions(buyerTeamId);\n        if (isConstrained && nRemain == 0) return false;\n        bytes32 msgHash = prefixed(buildAgreeToBuyPlayerTxMsg(auctionId, buyerHiddenPrice, buyerTeamId));\n        address buyerTeamOwner = getOwnerTeam(buyerTeamId);\n        uint256 state = getPlayerState(playerId);\n        ok =    /// cannot be a player in transit\n                !getIsInTransitFromState(state) &&\n                /// origin and target teams must be different\n                buyerTeamId != getCurrentTeamIdFromPlayerState(state) &&\n                /// check asset is owned by buyer\n                (buyerTeamOwner != NULL_ADDR) && \n                /// check buyer and seller refer to the exact same auction\n                ((uint256(auctionId) & KILL_LEFTMOST_40BIT_MASK) == (_playerIdToAuctionData[playerId] >> 32)) &&\n                /// check signatures are valid by requiring that they own the asset:\n                (buyerTeamOwner == recoverAddr(msgHash, sigV, sig[IDX_r], sig[IDX_s])) &&\n                /// check player is still frozen\n                isPlayerFrozenFiat(playerId);\n    }\n\n    function areFreezePlayerRequirementsOK(\n        bytes32 sellerHiddenPrice,\n        uint256 playerId,\n        bytes32[2] memory sig,\n        uint8 sigV,\n        uint32 validUntil,\n        uint32 offerValidUntil\n    ) \n        public \n        view \n        returns (bool ok)\n    {\n        uint256 state = getPlayerState(playerId);\n        require(!getIsInTransitFromState(state), \"cannot freeze a player that is in transit\");\n        if (offerValidUntil == 0) {\n            /// check validUntil has not expired\n            ok = (validUntil > now);\n        } else {\n            /// check offerValidUntil has not expired, and that validUntil is at least 10sec larger\n            ok = (offerValidUntil > now) && (validUntil > offerValidUntil + 10);\n        }\n        ok = ok &&\n            /// check player is not already frozen\n            (!isPlayerFrozenInAnyMarket(playerId)) &&  \n            /// check that auction time is less that the required 32 bit\n            (validUntil < now + MAX_VALID_UNTIL);\n        \n        /// If this is an academy player, just check that the msg arrives from the owner of the Academy.\n        uint256 currentTeamId = getCurrentTeamIdFromPlayerState(state);\n        if (currentTeamId == ACADEMY_TEAM) { return(ok && (msg.sender == _market)); }\n\n        /// Otherwise, check that the signature is from the owner, and that the team is OK.\n        address prevOwner = getOwnerTeam(currentTeamId);\n        bytes32 sellerDigest = computePutAssetForSaleDigest(sellerHiddenPrice, playerId, validUntil, offerValidUntil);\n        ok = ok &&\n            /// check that the team it belongs to not already frozen\n            !isTeamFrozen(currentTeamId) &&\n            /// check asset is owned by legit address\n            (prevOwner != address(0)) && \n            /// check signatures are valid by requiring that they own the asset:\n            (prevOwner == recoverAddr(sellerDigest, sigV, sig[IDX_r], sig[IDX_s]));\n    }\n    \n    /// this function is not used in the contract. It's only for external helps\n    function hashPrivateMsg(uint8 currencyId, uint256 price, uint256 rnd) external pure returns (bytes32) {\n        return keccak256(abi.encode(currencyId, price, rnd));\n    }\n\n    function hashBidHiddenPrice(uint256 extraPrice, uint256 rnd) external pure returns (bytes32) {\n        return keccak256(abi.encode(extraPrice, rnd));\n    }\n\n    function computeAuctionId(bytes32 hiddenPrice, uint256 assetId, uint32 validUntil, uint32 offerValidUntil) public pure returns (bytes32) {\n        return (offerValidUntil == 0) ? keccak256(abi.encode(hiddenPrice, assetId, validUntil)) : keccak256(abi.encode(hiddenPrice, assetId, offerValidUntil));\n    }\n\n    function computePutAssetForSaleDigest(bytes32 hiddenPrice, uint256 assetId, uint32 validUntil, uint32 offerValidUntil) public pure returns (bytes32) {\n        return prefixed(keccak256(abi.encode(hiddenPrice, assetId, validUntil, offerValidUntil)));\n    }\n\n    function buildOfferToBuyTxMsg(bytes32 hiddenPrice, uint256 validUntil, uint256 playerId, uint256 buyerTeamId) public pure returns (bytes32) {\n        return keccak256(abi.encode(hiddenPrice, validUntil, playerId, buyerTeamId));\n    }\n\n    function buildAgreeToBuyPlayerTxMsg(bytes32 auctionId, bytes32 buyerHiddenPrice, uint256 buyerTeamId) public pure returns (bytes32) {\n        return keccak256(abi.encode(auctionId, buyerHiddenPrice, buyerTeamId));\n    }\n\n    function buildAgreeToBuyTeamTxMsg(bytes32 auctionId, bytes32 buyerHiddenPrice) public pure returns (bytes32) {\n        return keccak256(abi.encode(auctionId, buyerHiddenPrice));\n    }\n\n    /// FUNCTIONS FOR SIGNATURE MANAGEMENT\n    /// retrieves the addr that signed a message\n    function recoverAddr(bytes32 msgHash, uint8 v, bytes32 r, bytes32 s) public pure returns (address) {\n        return ecrecover(msgHash, v, r, s);\n    }\n\n    /// (currently not used) checks if the signature of a message says that it was signed by the provided address\n    function isSigned(address _addr, bytes32 msgHash, uint8 v, bytes32 r, bytes32 s) public pure returns (bool) {\n        return ecrecover(msgHash, v, r, s) == _addr;\n    }\n\n    /// Builds a prefixed hash to mimic the behavior of eth_sign.\n    function prefixed(bytes32 hash) public pure returns (bytes32) {\n        return keccak256(abi.encodePacked(\"\\x19Ethereum Signed Message:\\n32\", hash));\n    }\n\n    function getBlockchainNowTime() external view returns (uint) {\n        return now;\n    }\n\n    function isPlayerFrozenInAnyMarket(uint256 playerId) public view returns (bool) {\n        return isPlayerFrozenFiat(playerId) || _playerIdToIsFrozenCrypto[playerId];\n    }\n\n    function isPlayerFrozenFiat(uint256 playerId) public view returns (bool) {\n        return (_playerIdToAuctionData[playerId] & VALID_UNTIL_MASK) + POST_AUCTION_TIME > now;\n    }\n\n    function isTeamFrozen(uint256 teamId) public view returns (bool) {\n        if (teamId == ACADEMY_TEAM) return false;\n        require(wasTeamCreatedVirtually(teamId), \"unexistent team\");\n        return (_teamIdToAuctionData[teamId] & VALID_UNTIL_MASK) + POST_AUCTION_TIME > now;\n    }\n    \n    function getOwnerTeam(uint256 teamId) public view returns(address) {\n        return _teamIdToOwner[teamId];\n    }\n\n    function getPlayerStateAtBirth(uint256 playerId) public pure returns (uint256) {\n        if (getIsSpecial(playerId)) return encodePlayerState(ACADEMY_TEAM, 0, 0, 0);\n        (uint8 timeZone, uint256 countryIdxInTZ, uint256 playerIdxInCountry) = decodeTZCountryAndVal(playerId);\n        uint256 teamIdxInCountry = playerIdxInCountry / PLAYERS_PER_TEAM_INIT;\n        uint256 currentTeamId = encodeTZCountryAndVal(timeZone, countryIdxInTZ, teamIdxInCountry);\n        uint8 shirtNum = uint8(playerIdxInCountry % PLAYERS_PER_TEAM_INIT);\n        return encodePlayerState(currentTeamId, shirtNum, 0, 0);\n    }\n\n    function getPlayerState(uint256 playerId) public view returns (uint256) {\n        uint256 state = _playerIdToState[playerId];\n        if (state != 0) return state;\n        if (!getIsSpecial(playerId) && !wasPlayerCreatedVirtually(playerId)) return 0;\n        return getPlayerStateAtBirth(playerId);\n    }\n    \n    /// TODO: we really don't need this function. Only for external use. Consider removal\n    function getPlayerIdsInTeam(uint256 teamId) public view returns (uint256[PLAYERS_PER_TEAM_MAX] memory playerIds) {\n        (uint8 timeZone, uint256 countryIdxInTZ, uint256 teamIdxInCountry) = decodeTZCountryAndVal(teamId);\n        require(teamExistsInCountry(timeZone, countryIdxInTZ, teamIdxInCountry), \"invalid team id\");\n        if (isBotTeamInCountry(timeZone, countryIdxInTZ, teamIdxInCountry)) {\n            for (uint8 shirtNum = 0 ; shirtNum < PLAYERS_PER_TEAM_MAX ; shirtNum++){\n                playerIds[shirtNum] = getDefaultPlayerIdForTeamInCountry(timeZone, countryIdxInTZ, teamIdxInCountry, shirtNum);\n            }\n        } else {\n            for (uint8 shirtNum = 0 ; shirtNum < PLAYERS_PER_TEAM_MAX ; shirtNum++){\n                uint256 writtenId = _teamIdToPlayerIds[teamId][shirtNum];\n                if (writtenId == 0) {\n                    playerIds[shirtNum] = getDefaultPlayerIdForTeamInCountry(timeZone, countryIdxInTZ, teamIdxInCountry, shirtNum);\n                } else {\n                    playerIds[shirtNum] = writtenId;\n                }\n            }\n        }\n    }\n    \n    function getCurrentTeamIdFromPlayerId(uint256 playerId) public view returns(uint256) {\n        return getCurrentTeamIdFromPlayerState(getPlayerState(playerId));\n    }\n\n    function getFreeShirt(uint256 teamId) public view returns(uint8) {\n        /// already assumes that there was a previous check that this team is not a bot\n        for (uint8 shirtNum = PLAYERS_PER_TEAM_MAX-1; shirtNum > 0; shirtNum--) {\n            if (isFreeShirt(_teamIdToPlayerIds[teamId][shirtNum], shirtNum)) { return shirtNum; }\n        }\n        return isFreeShirt(_teamIdToPlayerIds[teamId][0], 0) ? 0 : PLAYERS_PER_TEAM_MAX;\n    }\n    \n    function isFreeShirt(uint256 playerId, uint8 shirtNum) public pure returns(bool) {\n        if (shirtNum >= PLAYERS_PER_TEAM_INIT) {\n            return (playerId == 0 || playerId == FREE_PLAYER_ID);\n        } else {\n            return (playerId == FREE_PLAYER_ID);\n        }\n    }\n\n    function getDefaultPlayerIdForTeamInCountry(\n        uint8 timeZone,\n        uint256 countryIdxInTZ,\n        uint256 teamIdxInCountry,\n        uint8 shirtNum\n    )\n        public\n        pure\n        returns(uint256)\n    {\n        if (shirtNum >= PLAYERS_PER_TEAM_INIT) {\n            return 0;\n        } else {\n            return encodeTZCountryAndVal(timeZone, countryIdxInTZ, teamIdxInCountry * PLAYERS_PER_TEAM_INIT + shirtNum);\n        }\n    }\n       \n    function getOwnerPlayer(uint256 playerId) public view returns(address) {\n        return getOwnerTeam(getCurrentTeamIdFromPlayerId(playerId));\n    }\n    \n    function getNPlayersInTransitInTeam(uint256 teamId) public view returns (uint8) { return _nPlayersInTransitInTeam[teamId]; }        \n\n    function getNewMaxSumSkillsBuyNowPlayer() public view returns(uint256 sumSkills, uint256 minLapseTime, uint256 lastUpdate) {\n        sumSkills = _maxSumSkillsBuyNowPlayer;\n        minLapseTime = _maxSumSkillsBuyNowPlayerMinLapse;\n        lastUpdate = _maxSumSkillsBuyNowPlayerLastUpdate;\n    } \n\n    function isPlayerDismissed(uint256 playerId) public view returns(bool) {\n        uint256 state = getPlayerState(playerId);\n        return getCurrentShirtNum(state) == PLAYERS_PER_TEAM_MAX;\n    }\n\n}\n",
  "sourcePath": "/Users/jurgenkudla/proyects/laos/laos-goal-revolution/goalrev-ganache/contracts/storage/MarketView.sol",
  "compiler": {
    "name": "solc",
    "version": "0.6.3+commit.8dda9521.Emscripten.clang"
  },
  "schemaVersion": "3.0.23",
  "updatedAt": "2024-10-18T06:09:35.484Z",
  "devdoc": {
    "methods": {
      "encodeTZCountryAndVal(uint8,uint256,uint256)": {
        "details": "PlayerId and TeamId both serialize a total of 43 bits:     timeZone        = 5 bits     countryIdxInTZ  = 10 bits     val             = 28 bits (either  (playerIdxInCountry or teamIdxInCountry)*"
      }
    }
  },
  "userdoc": {
    "methods": {
      "getOwnerTeamInCountry(uint8,uint256,uint256)": {
        "notice": "returns NULL_ADDR if team is bot"
      },
      "getPlayerIdsInTeam(uint256)": {
        "notice": "TODO: we really don't need this function. Only for external use. Consider removal"
      },
      "hashPrivateMsg(uint8,uint256,uint256)": {
        "notice": "this function is not used in the contract. It's only for external helps"
      },
      "isBotTeamInCountry(uint8,uint256,uint256)": {
        "notice": "Rest of view/pure functions "
      },
      "isSigned(address,bytes32,uint8,bytes32,bytes32)": {
        "notice": "(currently not used) checks if the signature of a message says that it was signed by the provided address"
      },
      "nextTimeZoneToUpdate()": {
        "notice": "each day has 24 hours, each with 4 verses => 96 verses per day. day = 0,..13 turnInDay = 0, 1, 2, 3 so for each TZ, we go from (day, turn) = (0, 0) ... (13,3) => a total of 14*4 = 56 turns per tz from these, all map easily to timeZones"
      },
      "prefixed(bytes32)": {
        "notice": "Builds a prefixed hash to mimic the behavior of eth_sign."
      },
      "recoverAddr(bytes32,uint8,bytes32,bytes32)": {
        "notice": "FUNCTIONS FOR SIGNATURE MANAGEMENT retrieves the addr that signed a message"
      },
      "timeZoneToUpdatePure(uint256,uint8)": {
        "notice": "tz0  : v = 0, V_DAY, 2 * V_DAY... tzN  : v = 4N + V_DAY * day,  day = 0,...6 tzN  : v = 4N + V_DAY * day,  day = 0,...6  => tzN - tz0 = (v - V_DAY*day)  => 4 tzN = 4 tz0 + v % VERSES_PER_DAY last : v = V_DAY + DELTA + V_DAY * 6  Imagine 2 tzs: 0:00 - tz0; 0:30 - NUL; 1:00 - tz1; 1:30 - tz0; 0:00 - tz0; 0:30 - tz1; So the last"
      }
    },
    "notice": "Warning: This contract must ALWAYS inherit UniverseInfo first, so that it ends up inheriting Storage before any other contract."
  }
}