{
  "contractName": "Merkle",
  "abi": [
    {
      "inputs": [
        {
          "internalType": "bytes32[]",
          "name": "leafs",
          "type": "bytes32[]"
        },
        {
          "internalType": "uint256",
          "name": "nLevels",
          "type": "uint256"
        }
      ],
      "name": "merkleRoot",
      "outputs": [
        {
          "internalType": "bytes32",
          "name": "",
          "type": "bytes32"
        }
      ],
      "stateMutability": "pure",
      "type": "function",
      "constant": true
    },
    {
      "inputs": [
        {
          "internalType": "bytes32",
          "name": "left",
          "type": "bytes32"
        },
        {
          "internalType": "bytes32",
          "name": "right",
          "type": "bytes32"
        }
      ],
      "name": "hash_node",
      "outputs": [
        {
          "internalType": "bytes32",
          "name": "hash",
          "type": "bytes32"
        }
      ],
      "stateMutability": "pure",
      "type": "function",
      "constant": true
    },
    {
      "inputs": [
        {
          "internalType": "bytes32",
          "name": "root",
          "type": "bytes32"
        },
        {
          "internalType": "bytes32[]",
          "name": "proof",
          "type": "bytes32[]"
        },
        {
          "internalType": "bytes32",
          "name": "leafHash",
          "type": "bytes32"
        },
        {
          "internalType": "uint256",
          "name": "leafPos",
          "type": "uint256"
        }
      ],
      "name": "verify",
      "outputs": [
        {
          "internalType": "bool",
          "name": "",
          "type": "bool"
        }
      ],
      "stateMutability": "pure",
      "type": "function",
      "constant": true
    },
    {
      "inputs": [
        {
          "internalType": "uint256",
          "name": "leafPos",
          "type": "uint256"
        },
        {
          "internalType": "bytes32[]",
          "name": "leafs",
          "type": "bytes32[]"
        },
        {
          "internalType": "uint256",
          "name": "nLevels",
          "type": "uint256"
        }
      ],
      "name": "buildProof",
      "outputs": [
        {
          "internalType": "bytes32[]",
          "name": "proof",
          "type": "bytes32[]"
        }
      ],
      "stateMutability": "pure",
      "type": "function",
      "constant": true
    }
  ],
  "bytecode": "0x608060405234801561001057600080fd5b50610699806100206000396000f3fe608060405234801561001057600080fd5b506004361061004c5760003560e01c80633033951d146100515780635f2d1f8d14610086578063adc72df71461012b578063b6cacec614610227575b600080fd5b6100746004803603604081101561006757600080fd5b50803590602001356102ea565b60408051918252519081900360200190f35b6100746004803603604081101561009c57600080fd5b8101906020810181356401000000008111156100b757600080fd5b8201836020820111156100c957600080fd5b803590602001918460208302840111640100000000831117156100eb57600080fd5b919080806020026020016040519081016040528093929190818152602001838360200280828437600092019190915250929550509135925061031b915050565b6101d76004803603606081101561014157600080fd5b8135919081019060408101602082013564010000000081111561016357600080fd5b82018360208201111561017557600080fd5b8035906020019184602083028401116401000000008311171561019757600080fd5b919080806020026020016040519081016040528093929190818152602001838360200280828437600092019190915250929550509135925061041b915050565b60408051602080825283518183015283519192839290830191858101910280838360005b838110156102135781810151838201526020016101fb565b505050509050019250505060405180910390f35b6102d66004803603608081101561023d57600080fd5b8135919081019060408101602082013564010000000081111561025f57600080fd5b82018360208201111561027157600080fd5b8035906020019184602083028401116401000000008311171561029357600080fd5b91908080602002602001604051908101604052809392919081815260200183836020028082843760009201919091525092955050823593505050602001356105c5565b604080519115158252519081900360200190f35b6000811580156102f8575082155b1561030557506000610315565b5060008281526020829052604090205b92915050565b8151600090600283900a90825b848160ff1610156103fb57600283049250600282061561034e5760028204600101610353565b600282045b915082821115610361578291505b60005b828110156103c4576103a587826002028151811061037e57fe5b602002602001015188836002026001018151811061039857fe5b60200260200101516102ea565b8782815181106103b157fe5b6020908102919091010152600101610364565b50815b838110156103f2576000801b8782815181106103df57fe5b60209081029190910101526001016103c7565b50600101610328565b508460008151811061040957fe5b60200260200101519250505092915050565b606060008260020a9050808451146104645760405162461bcd60e51b815260040180806020018281038252602781526020018061063d6027913960400191505060405180910390fd5b8260405190808252806020026020018201604052801561048e578160200160208202803683370190505b50915060028506156104b6578360018603815181106104a957fe5b60200260200101516104ce565b8385600101815181106104c557fe5b60200260200101515b826000815181106104db57fe5b602090810291909101015260005b600184038160ff1610156105bc5760028204915060028604955060005b828110156105595761053a86826002028151811061052057fe5b602002602001015187836002026001018151811061039857fe5b86828151811061054657fe5b6020908102919091010152600101610506565b50600286061561057f5784600187038151811061057257fe5b6020026020010151610597565b84866001018151811061058e57fe5b60200260200101515b838260010160ff16815181106105a957fe5b60209081029190910101526001016104e9565b50509392505050565b6000805b84518163ffffffff16101561063157600283066105fd576105f684868363ffffffff168151811061039857fe5b9350610623565b610620858263ffffffff168151811061061257fe5b6020026020010151856102ea565b93505b6002830492506001016105c9565b50505090911491905056fe6e756d626572206f66206c65616673206973206e6f74203d20706f7728322c6e4c6576656c7329a264697066735822122011c36dee73876f7ed68a2f91d56947d3a2ab6b4416a284db43847846fcf1235e64736f6c63430006030033",
  "source": "pragma solidity >= 0.6.3;\n\n/**\n @title Standard Merkle Tree functions\n @author Freeverse.io, www.freeverse.io\n*/\n\ncontract Merkle {\n    \n    bytes32 constant private NULL_BYTES32 = bytes32(0);\n\n    /// This function will revert if nLevels = 0.\n    /// nLeafs = 2**nLevels\n    ///  nLevels = 1 => 3 leafs = lev1 - root /// lev0 - 2 leafs\n    ///  nLevels = 2 => 7 leafs = lev2 - root /// lev1 - 2 leafs /// lev0 - 4 leafs\n    function merkleRoot(bytes32[] memory leafs, uint256 nLevels) public pure returns(bytes32) {\n        uint256 nLeafs = 2**nLevels;\n        uint256 nLeafsNonNull = leafs.length;\n\n        for (uint8 level = 0; level < nLevels; level++) {\n            nLeafs /= 2;\n            nLeafsNonNull = (nLeafsNonNull % 2 == 0) ? (nLeafsNonNull / 2) : ((nLeafsNonNull / 2) + 1);\n            if (nLeafsNonNull > nLeafs) nLeafsNonNull = nLeafs;\n\n            for (uint256 pos = 0; pos < nLeafsNonNull; pos++) {\n                leafs[pos] = hash_node(leafs[2 * pos], leafs[2 * pos + 1]);      \n            }\n            for (uint256 pos = nLeafsNonNull; pos < nLeafs; pos++) {\n                leafs[pos] = NULL_BYTES32;      \n            }\n        }\n        return leafs[0];\n    }\n  \n    function hash_node(bytes32 left, bytes32 right) public pure returns (bytes32 hash) {\n        if ((right == NULL_BYTES32) && (left == NULL_BYTES32)) return NULL_BYTES32;\n        assembly {\n            mstore(0x00, left)\n            mstore(0x20, right)\n            hash := keccak256(0x00, 0x40)\n        }\n        return hash;\n    }\n\n    /// if nLevels = 1, we need 1 element in the proof\n    /// if nLevels = 2, we need 2 elements...\n    ///        .\n    ///     ..   ..\n    ///   .. .. .. ..\n    ///   01 23 45 67\n    \n    function verify(bytes32 root, bytes32[] memory proof, bytes32 leafHash, uint256 leafPos) public pure returns(bool) {\n        for (uint32 pos = 0; pos < proof.length; pos++) {\n            if ((leafPos % 2) == 0) {\n                leafHash = hash_node(leafHash, proof[pos]);\n            } else {\n                leafHash = hash_node(proof[pos], leafHash);\n            }\n            leafPos /= 2;\n        }     \n        return root == leafHash;   \n    }\n    \n    function buildProof(uint256 leafPos, bytes32[] memory leafs, uint256 nLevels) public pure returns(bytes32[] memory proof) {\n        uint256 nLeafs = 2**nLevels;\n        require(leafs.length == nLeafs, \"number of leafs is not = pow(2,nLevels)\");\n        proof = new bytes32[](nLevels);\n        /// The 1st element is just its pair\n        proof[0] = ((leafPos % 2) == 0) ? leafs[leafPos+1] : leafs[leafPos-1];\n        /// The rest requires computing all hashes\n        for (uint8 level = 0; level < nLevels-1; level++) {\n            nLeafs /= 2;\n            leafPos /= 2; \n            for (uint256 pos = 0; pos < nLeafs; pos++) {\n                leafs[pos] = hash_node(leafs[2 * pos], leafs[2 * pos + 1]);      \n            }\n            proof[level + 1] = ((leafPos % 2) == 0) ? leafs[leafPos+1] : leafs[leafPos-1];\n        }\n    }\n    \n}\n",
  "sourcePath": "/Users/jurgenkudla/proyects/laos/laos-goal-revolution/goalrev-ganache/contracts/storage/Merkle.sol",
  "compiler": {
    "name": "solc",
    "version": "0.6.3+commit.8dda9521.Emscripten.clang"
  },
  "schemaVersion": "3.0.23",
  "updatedAt": "2024-10-18T06:45:39.996Z",
  "networkType": "ethereum",
  "devdoc": {
    "author": "Freeverse.io, www.freeverse.io",
    "methods": {},
    "title": "Standard Merkle Tree functions"
  },
  "userdoc": {
    "methods": {
      "merkleRoot(bytes32[],uint256)": {
        "notice": "This function will revert if nLevels = 0. nLeafs = 2**nLevels  nLevels = 1 => 3 leafs = lev1 - root /// lev0 - 2 leafs  nLevels = 2 => 7 leafs = lev2 - root /// lev1 - 2 leafs /// lev0 - 4 leafs"
      },
      "verify(bytes32,bytes32[],bytes32,uint256)": {
        "notice": "if nLevels = 1, we need 1 element in the proof if nLevels = 2, we need 2 elements...        .     ..   ..   .. .. .. ..   01 23 45 67"
      }
    }
  }
}