{
  "contractName": "PlayAndEvolve",
  "abi": [
    {
      "inputs": [
        {
          "internalType": "address",
          "name": "trainingAddr",
          "type": "address"
        },
        {
          "internalType": "address",
          "name": "evolutionAddr",
          "type": "address"
        },
        {
          "internalType": "address",
          "name": "engineAddr",
          "type": "address"
        }
      ],
      "stateMutability": "nonpayable",
      "type": "constructor"
    },
    {
      "inputs": [],
      "name": "NO_SUBST",
      "outputs": [
        {
          "internalType": "uint8",
          "name": "",
          "type": "uint8"
        }
      ],
      "stateMutability": "view",
      "type": "function",
      "constant": true
    },
    {
      "inputs": [],
      "name": "PLAYERS_PER_TEAM_MAX",
      "outputs": [
        {
          "internalType": "uint8",
          "name": "",
          "type": "uint8"
        }
      ],
      "stateMutability": "view",
      "type": "function",
      "constant": true
    },
    {
      "inputs": [],
      "name": "ROUNDS_PER_MATCH",
      "outputs": [
        {
          "internalType": "uint8",
          "name": "",
          "type": "uint8"
        }
      ],
      "stateMutability": "view",
      "type": "function",
      "constant": true
    },
    {
      "inputs": [
        {
          "internalType": "uint256",
          "name": "log",
          "type": "uint256"
        },
        {
          "internalType": "uint8",
          "name": "player",
          "type": "uint8"
        },
        {
          "internalType": "uint8",
          "name": "pos",
          "type": "uint8"
        }
      ],
      "name": "addAssister",
      "outputs": [
        {
          "internalType": "uint256",
          "name": "",
          "type": "uint256"
        }
      ],
      "stateMutability": "pure",
      "type": "function",
      "constant": true
    },
    {
      "inputs": [
        {
          "internalType": "uint256",
          "name": "log",
          "type": "uint256"
        },
        {
          "internalType": "uint8",
          "name": "player",
          "type": "uint8"
        },
        {
          "internalType": "uint8",
          "name": "pos",
          "type": "uint8"
        }
      ],
      "name": "addForwardPos",
      "outputs": [
        {
          "internalType": "uint256",
          "name": "",
          "type": "uint256"
        }
      ],
      "stateMutability": "pure",
      "type": "function",
      "constant": true
    },
    {
      "inputs": [
        {
          "internalType": "uint256",
          "name": "encodedSkills",
          "type": "uint256"
        }
      ],
      "name": "addIsSpecial",
      "outputs": [
        {
          "internalType": "uint256",
          "name": "",
          "type": "uint256"
        }
      ],
      "stateMutability": "pure",
      "type": "function",
      "constant": true
    },
    {
      "inputs": [
        {
          "internalType": "uint256",
          "name": "log",
          "type": "uint256"
        },
        {
          "internalType": "uint8",
          "name": "nDefs",
          "type": "uint8"
        },
        {
          "internalType": "bool",
          "name": "is2ndHalf",
          "type": "bool"
        }
      ],
      "name": "addNGKAndDefs",
      "outputs": [
        {
          "internalType": "uint256",
          "name": "",
          "type": "uint256"
        }
      ],
      "stateMutability": "pure",
      "type": "function",
      "constant": true
    },
    {
      "inputs": [
        {
          "internalType": "uint256",
          "name": "log",
          "type": "uint256"
        },
        {
          "internalType": "uint8",
          "name": "player",
          "type": "uint8"
        },
        {
          "internalType": "uint8",
          "name": "pos",
          "type": "uint8"
        }
      ],
      "name": "addShooter",
      "outputs": [
        {
          "internalType": "uint256",
          "name": "",
          "type": "uint256"
        }
      ],
      "stateMutability": "pure",
      "type": "function",
      "constant": true
    },
    {
      "inputs": [
        {
          "internalType": "uint256",
          "name": "log",
          "type": "uint256"
        },
        {
          "internalType": "uint8",
          "name": "winner",
          "type": "uint8"
        }
      ],
      "name": "addWinner",
      "outputs": [
        {
          "internalType": "uint256",
          "name": "",
          "type": "uint256"
        }
      ],
      "stateMutability": "pure",
      "type": "function",
      "constant": true
    },
    {
      "inputs": [
        {
          "internalType": "uint256[2]",
          "name": "logs",
          "type": "uint256[2]"
        },
        {
          "internalType": "uint8",
          "name": "winner",
          "type": "uint8"
        }
      ],
      "name": "addWinnerToBothLogs",
      "outputs": [
        {
          "internalType": "uint256[2]",
          "name": "",
          "type": "uint256[2]"
        }
      ],
      "stateMutability": "pure",
      "type": "function",
      "constant": true
    },
    {
      "inputs": [
        {
          "internalType": "uint8[3]",
          "name": "substitutions",
          "type": "uint8[3]"
        },
        {
          "internalType": "uint8[3]",
          "name": "subsRounds",
          "type": "uint8[3]"
        },
        {
          "internalType": "uint8[14]",
          "name": "lineup",
          "type": "uint8[14]"
        },
        {
          "internalType": "bool[10]",
          "name": "extraAttack",
          "type": "bool[10]"
        },
        {
          "internalType": "uint8",
          "name": "tacticsId",
          "type": "uint8"
        }
      ],
      "name": "encodeTactics",
      "outputs": [
        {
          "internalType": "uint256",
          "name": "",
          "type": "uint256"
        }
      ],
      "stateMutability": "pure",
      "type": "function",
      "constant": true
    },
    {
      "inputs": [
        {
          "internalType": "uint256",
          "name": "encodedSkills",
          "type": "uint256"
        }
      ],
      "name": "getAggressiveness",
      "outputs": [
        {
          "internalType": "uint256",
          "name": "",
          "type": "uint256"
        }
      ],
      "stateMutability": "pure",
      "type": "function",
      "constant": true
    },
    {
      "inputs": [
        {
          "internalType": "uint256",
          "name": "encodedSkills",
          "type": "uint256"
        }
      ],
      "name": "getAlignedEndOfFirstHalf",
      "outputs": [
        {
          "internalType": "bool",
          "name": "",
          "type": "bool"
        }
      ],
      "stateMutability": "pure",
      "type": "function",
      "constant": true
    },
    {
      "inputs": [
        {
          "internalType": "uint256",
          "name": "encodedSkills",
          "type": "uint256"
        }
      ],
      "name": "getBirthDay",
      "outputs": [
        {
          "internalType": "uint256",
          "name": "",
          "type": "uint256"
        }
      ],
      "stateMutability": "pure",
      "type": "function",
      "constant": true
    },
    {
      "inputs": [
        {
          "internalType": "uint256",
          "name": "log",
          "type": "uint256"
        }
      ],
      "name": "getChangesAtHalfTime",
      "outputs": [
        {
          "internalType": "uint8",
          "name": "nChanges",
          "type": "uint8"
        }
      ],
      "stateMutability": "pure",
      "type": "function",
      "constant": true
    },
    {
      "inputs": [
        {
          "internalType": "uint256",
          "name": "encodedSkills",
          "type": "uint256"
        }
      ],
      "name": "getForwardness",
      "outputs": [
        {
          "internalType": "uint256",
          "name": "",
          "type": "uint256"
        }
      ],
      "stateMutability": "pure",
      "type": "function",
      "constant": true
    },
    {
      "inputs": [
        {
          "internalType": "uint256",
          "name": "encodedSkills",
          "type": "uint256"
        }
      ],
      "name": "getGamesNonStopping",
      "outputs": [
        {
          "internalType": "uint8",
          "name": "",
          "type": "uint8"
        }
      ],
      "stateMutability": "pure",
      "type": "function",
      "constant": true
    },
    {
      "inputs": [
        {
          "internalType": "uint256",
          "name": "encodedSkills",
          "type": "uint256"
        }
      ],
      "name": "getGeneration",
      "outputs": [
        {
          "internalType": "uint256",
          "name": "",
          "type": "uint256"
        }
      ],
      "stateMutability": "pure",
      "type": "function",
      "constant": true
    },
    {
      "inputs": [
        {
          "internalType": "uint256",
          "name": "log",
          "type": "uint256"
        },
        {
          "internalType": "uint8",
          "name": "posInHalf",
          "type": "uint8"
        },
        {
          "internalType": "bool",
          "name": "is2ndHalf",
          "type": "bool"
        }
      ],
      "name": "getInGameSubsHappened",
      "outputs": [
        {
          "internalType": "uint8",
          "name": "",
          "type": "uint8"
        }
      ],
      "stateMutability": "pure",
      "type": "function",
      "constant": true
    },
    {
      "inputs": [
        {
          "internalType": "uint256",
          "name": "encodedSkills",
          "type": "uint256"
        }
      ],
      "name": "getInjuryWeeksLeft",
      "outputs": [
        {
          "internalType": "uint8",
          "name": "",
          "type": "uint8"
        }
      ],
      "stateMutability": "pure",
      "type": "function",
      "constant": true
    },
    {
      "inputs": [
        {
          "internalType": "uint256",
          "name": "encodedSkills",
          "type": "uint256"
        }
      ],
      "name": "getInternalPlayerId",
      "outputs": [
        {
          "internalType": "uint256",
          "name": "",
          "type": "uint256"
        }
      ],
      "stateMutability": "pure",
      "type": "function",
      "constant": true
    },
    {
      "inputs": [
        {
          "internalType": "uint256",
          "name": "log",
          "type": "uint256"
        }
      ],
      "name": "getIsCancelled",
      "outputs": [
        {
          "internalType": "bool",
          "name": "",
          "type": "bool"
        }
      ],
      "stateMutability": "pure",
      "type": "function",
      "constant": true
    },
    {
      "inputs": [
        {
          "internalType": "uint256",
          "name": "encodedSkills",
          "type": "uint256"
        }
      ],
      "name": "getIsSpecial",
      "outputs": [
        {
          "internalType": "bool",
          "name": "",
          "type": "bool"
        }
      ],
      "stateMutability": "pure",
      "type": "function",
      "constant": true
    },
    {
      "inputs": [
        {
          "internalType": "uint256",
          "name": "encodedSkills",
          "type": "uint256"
        }
      ],
      "name": "getLeftishness",
      "outputs": [
        {
          "internalType": "uint256",
          "name": "",
          "type": "uint256"
        }
      ],
      "stateMutability": "pure",
      "type": "function",
      "constant": true
    },
    {
      "inputs": [
        {
          "internalType": "uint256",
          "name": "log",
          "type": "uint256"
        }
      ],
      "name": "getNGoals",
      "outputs": [
        {
          "internalType": "uint8",
          "name": "",
          "type": "uint8"
        }
      ],
      "stateMutability": "pure",
      "type": "function",
      "constant": true
    },
    {
      "inputs": [
        {
          "internalType": "uint256",
          "name": "encodedSkills",
          "type": "uint256"
        }
      ],
      "name": "getOutOfGameFirstHalf",
      "outputs": [
        {
          "internalType": "bool",
          "name": "",
          "type": "bool"
        }
      ],
      "stateMutability": "pure",
      "type": "function",
      "constant": true
    },
    {
      "inputs": [
        {
          "internalType": "uint256",
          "name": "encodedSkills",
          "type": "uint256"
        }
      ],
      "name": "getPlayerIdFromSkills",
      "outputs": [
        {
          "internalType": "uint256",
          "name": "",
          "type": "uint256"
        }
      ],
      "stateMutability": "pure",
      "type": "function",
      "constant": true
    },
    {
      "inputs": [
        {
          "internalType": "uint256",
          "name": "encodedSkills",
          "type": "uint256"
        }
      ],
      "name": "getPotential",
      "outputs": [
        {
          "internalType": "uint256",
          "name": "",
          "type": "uint256"
        }
      ],
      "stateMutability": "pure",
      "type": "function",
      "constant": true
    },
    {
      "inputs": [
        {
          "internalType": "uint256",
          "name": "encodedSkills",
          "type": "uint256"
        }
      ],
      "name": "getRedCardLastGame",
      "outputs": [
        {
          "internalType": "bool",
          "name": "",
          "type": "bool"
        }
      ],
      "stateMutability": "pure",
      "type": "function",
      "constant": true
    },
    {
      "inputs": [
        {
          "internalType": "uint256",
          "name": "encodedSkills",
          "type": "uint256"
        },
        {
          "internalType": "uint8",
          "name": "skillIdx",
          "type": "uint8"
        }
      ],
      "name": "getSkill",
      "outputs": [
        {
          "internalType": "uint256",
          "name": "",
          "type": "uint256"
        }
      ],
      "stateMutability": "pure",
      "type": "function",
      "constant": true
    },
    {
      "inputs": [
        {
          "internalType": "uint256",
          "name": "encodedSkills",
          "type": "uint256"
        }
      ],
      "name": "getSubstitutedFirstHalf",
      "outputs": [
        {
          "internalType": "bool",
          "name": "",
          "type": "bool"
        }
      ],
      "stateMutability": "pure",
      "type": "function",
      "constant": true
    },
    {
      "inputs": [
        {
          "internalType": "uint256",
          "name": "encodedSkills",
          "type": "uint256"
        }
      ],
      "name": "getSumOfSkills",
      "outputs": [
        {
          "internalType": "uint256",
          "name": "",
          "type": "uint256"
        }
      ],
      "stateMutability": "pure",
      "type": "function",
      "constant": true
    },
    {
      "inputs": [
        {
          "internalType": "uint256",
          "name": "encodedSkills",
          "type": "uint256"
        }
      ],
      "name": "getYellowCardFirstHalf",
      "outputs": [
        {
          "internalType": "bool",
          "name": "",
          "type": "bool"
        }
      ],
      "stateMutability": "pure",
      "type": "function",
      "constant": true
    },
    {
      "inputs": [
        {
          "internalType": "uint256",
          "name": "encodedSkills",
          "type": "uint256"
        },
        {
          "internalType": "bool",
          "name": "val",
          "type": "bool"
        }
      ],
      "name": "setAlignedEndOfFirstHalf",
      "outputs": [
        {
          "internalType": "uint256",
          "name": "",
          "type": "uint256"
        }
      ],
      "stateMutability": "pure",
      "type": "function",
      "constant": true
    },
    {
      "inputs": [
        {
          "internalType": "uint256",
          "name": "log",
          "type": "uint256"
        },
        {
          "internalType": "uint8",
          "name": "nChanges",
          "type": "uint8"
        }
      ],
      "name": "setChangesAtHalfTime",
      "outputs": [
        {
          "internalType": "uint256",
          "name": "",
          "type": "uint256"
        }
      ],
      "stateMutability": "pure",
      "type": "function",
      "constant": true
    },
    {
      "inputs": [
        {
          "internalType": "uint256",
          "name": "encodedSkills",
          "type": "uint256"
        },
        {
          "internalType": "uint8",
          "name": "val",
          "type": "uint8"
        }
      ],
      "name": "setGamesNonStopping",
      "outputs": [
        {
          "internalType": "uint256",
          "name": "",
          "type": "uint256"
        }
      ],
      "stateMutability": "pure",
      "type": "function",
      "constant": true
    },
    {
      "inputs": [
        {
          "internalType": "uint256",
          "name": "encodedSkills",
          "type": "uint256"
        },
        {
          "internalType": "uint32",
          "name": "val",
          "type": "uint32"
        }
      ],
      "name": "setGeneration",
      "outputs": [
        {
          "internalType": "uint256",
          "name": "",
          "type": "uint256"
        }
      ],
      "stateMutability": "pure",
      "type": "function",
      "constant": true
    },
    {
      "inputs": [
        {
          "internalType": "uint256",
          "name": "encodedSkills",
          "type": "uint256"
        },
        {
          "internalType": "uint8",
          "name": "val",
          "type": "uint8"
        }
      ],
      "name": "setInjuryWeeksLeft",
      "outputs": [
        {
          "internalType": "uint256",
          "name": "",
          "type": "uint256"
        }
      ],
      "stateMutability": "pure",
      "type": "function",
      "constant": true
    },
    {
      "inputs": [
        {
          "internalType": "uint256",
          "name": "log",
          "type": "uint256"
        },
        {
          "internalType": "bool",
          "name": "val",
          "type": "bool"
        }
      ],
      "name": "setIsCancelled",
      "outputs": [
        {
          "internalType": "uint256",
          "name": "",
          "type": "uint256"
        }
      ],
      "stateMutability": "pure",
      "type": "function",
      "constant": true
    },
    {
      "inputs": [
        {
          "internalType": "uint256",
          "name": "log",
          "type": "uint256"
        },
        {
          "internalType": "bool",
          "name": "val",
          "type": "bool"
        }
      ],
      "name": "setIsHomeStadium",
      "outputs": [
        {
          "internalType": "uint256",
          "name": "",
          "type": "uint256"
        }
      ],
      "stateMutability": "pure",
      "type": "function",
      "constant": true
    },
    {
      "inputs": [
        {
          "internalType": "uint256",
          "name": "encodedSkills",
          "type": "uint256"
        },
        {
          "internalType": "bool",
          "name": "val",
          "type": "bool"
        }
      ],
      "name": "setOutOfGameFirstHalf",
      "outputs": [
        {
          "internalType": "uint256",
          "name": "",
          "type": "uint256"
        }
      ],
      "stateMutability": "pure",
      "type": "function",
      "constant": true
    },
    {
      "inputs": [
        {
          "internalType": "uint256",
          "name": "encodedSkills",
          "type": "uint256"
        },
        {
          "internalType": "uint256",
          "name": "val",
          "type": "uint256"
        }
      ],
      "name": "setPotential",
      "outputs": [
        {
          "internalType": "uint256",
          "name": "",
          "type": "uint256"
        }
      ],
      "stateMutability": "pure",
      "type": "function",
      "constant": true
    },
    {
      "inputs": [
        {
          "internalType": "uint256",
          "name": "encodedSkills",
          "type": "uint256"
        },
        {
          "internalType": "bool",
          "name": "val",
          "type": "bool"
        }
      ],
      "name": "setRedCardLastGame",
      "outputs": [
        {
          "internalType": "uint256",
          "name": "",
          "type": "uint256"
        }
      ],
      "stateMutability": "pure",
      "type": "function",
      "constant": true
    },
    {
      "inputs": [
        {
          "internalType": "uint256",
          "name": "encodedSkills",
          "type": "uint256"
        },
        {
          "internalType": "uint256",
          "name": "val",
          "type": "uint256"
        },
        {
          "internalType": "uint8",
          "name": "skillIdx",
          "type": "uint8"
        }
      ],
      "name": "setSkill",
      "outputs": [
        {
          "internalType": "uint256",
          "name": "",
          "type": "uint256"
        }
      ],
      "stateMutability": "pure",
      "type": "function",
      "constant": true
    },
    {
      "inputs": [
        {
          "internalType": "uint256",
          "name": "encodedSkills",
          "type": "uint256"
        },
        {
          "internalType": "bool",
          "name": "val",
          "type": "bool"
        }
      ],
      "name": "setSubstitutedFirstHalf",
      "outputs": [
        {
          "internalType": "uint256",
          "name": "",
          "type": "uint256"
        }
      ],
      "stateMutability": "pure",
      "type": "function",
      "constant": true
    },
    {
      "inputs": [
        {
          "internalType": "uint256",
          "name": "encodedSkills",
          "type": "uint256"
        },
        {
          "internalType": "uint32",
          "name": "val",
          "type": "uint32"
        }
      ],
      "name": "setSumOfSkills",
      "outputs": [
        {
          "internalType": "uint256",
          "name": "",
          "type": "uint256"
        }
      ],
      "stateMutability": "pure",
      "type": "function",
      "constant": true
    },
    {
      "inputs": [
        {
          "internalType": "uint256",
          "name": "encodedSkills",
          "type": "uint256"
        },
        {
          "internalType": "bool",
          "name": "val",
          "type": "bool"
        }
      ],
      "name": "setYellowCardFirstHalf",
      "outputs": [
        {
          "internalType": "uint256",
          "name": "",
          "type": "uint256"
        }
      ],
      "stateMutability": "pure",
      "type": "function",
      "constant": true
    },
    {
      "inputs": [
        {
          "internalType": "bytes32",
          "name": "seed",
          "type": "bytes32"
        },
        {
          "internalType": "uint256[2]",
          "name": "teamIds",
          "type": "uint256[2]"
        }
      ],
      "name": "generateMatchSeed",
      "outputs": [
        {
          "internalType": "uint256",
          "name": "",
          "type": "uint256"
        }
      ],
      "stateMutability": "pure",
      "type": "function",
      "constant": true
    },
    {
      "inputs": [
        {
          "internalType": "bytes32",
          "name": "verseSeed",
          "type": "bytes32"
        },
        {
          "internalType": "uint256",
          "name": "matchStartTime",
          "type": "uint256"
        },
        {
          "internalType": "uint256[25][2]",
          "name": "skills",
          "type": "uint256[25][2]"
        },
        {
          "internalType": "uint256[2]",
          "name": "teamIds",
          "type": "uint256[2]"
        },
        {
          "internalType": "uint256[2]",
          "name": "tactics",
          "type": "uint256[2]"
        },
        {
          "internalType": "uint256[2]",
          "name": "matchLogs",
          "type": "uint256[2]"
        },
        {
          "internalType": "bool[5]",
          "name": "matchBools",
          "type": "bool[5]"
        },
        {
          "internalType": "uint256[2]",
          "name": "assignedTPs",
          "type": "uint256[2]"
        }
      ],
      "name": "play1stHalfAndEvolve",
      "outputs": [
        {
          "internalType": "uint256[25][2]",
          "name": "",
          "type": "uint256[25][2]"
        },
        {
          "internalType": "uint256[62]",
          "name": "matchLogsAndEvents",
          "type": "uint256[62]"
        },
        {
          "internalType": "uint8",
          "name": "err",
          "type": "uint8"
        }
      ],
      "stateMutability": "view",
      "type": "function",
      "constant": true
    },
    {
      "inputs": [
        {
          "internalType": "bytes32",
          "name": "verseSeed",
          "type": "bytes32"
        },
        {
          "internalType": "uint256",
          "name": "matchStartTime",
          "type": "uint256"
        },
        {
          "internalType": "uint256[25][2]",
          "name": "skills",
          "type": "uint256[25][2]"
        },
        {
          "internalType": "uint256[2]",
          "name": "teamIds",
          "type": "uint256[2]"
        },
        {
          "internalType": "uint256[2]",
          "name": "tactics",
          "type": "uint256[2]"
        },
        {
          "internalType": "uint256[2]",
          "name": "matchLogs",
          "type": "uint256[2]"
        },
        {
          "internalType": "bool[5]",
          "name": "matchBools",
          "type": "bool[5]"
        }
      ],
      "name": "play2ndHalfAndEvolve",
      "outputs": [
        {
          "internalType": "uint256[25][2]",
          "name": "",
          "type": "uint256[25][2]"
        },
        {
          "internalType": "uint256[62]",
          "name": "matchLogsAndEvents",
          "type": "uint256[62]"
        },
        {
          "internalType": "uint8",
          "name": "err",
          "type": "uint8"
        }
      ],
      "stateMutability": "view",
      "type": "function",
      "constant": true
    },
    {
      "inputs": [],
      "name": "getBotTactics",
      "outputs": [
        {
          "internalType": "uint256",
          "name": "",
          "type": "uint256"
        }
      ],
      "stateMutability": "pure",
      "type": "function",
      "constant": true
    },
    {
      "inputs": [
        {
          "internalType": "uint256[25][2]",
          "name": "skills",
          "type": "uint256[25][2]"
        },
        {
          "internalType": "bool",
          "name": "is2ndHalf",
          "type": "bool"
        },
        {
          "internalType": "uint8",
          "name": "error",
          "type": "uint8"
        }
      ],
      "name": "cancelHalf",
      "outputs": [
        {
          "internalType": "uint256[25][2]",
          "name": "",
          "type": "uint256[25][2]"
        },
        {
          "internalType": "uint256[62]",
          "name": "",
          "type": "uint256[62]"
        },
        {
          "internalType": "uint8",
          "name": "",
          "type": "uint8"
        }
      ],
      "stateMutability": "pure",
      "type": "function",
      "constant": true
    }
  ],
  "bytecode": "0x608060405234801561001057600080fd5b5060405161284d38038061284d8339818101604052606081101561003357600080fd5b5080516020820151604090920151600080546001600160a01b039384166001600160a01b03199182161790915560018054948416948216949094179093556002805492909116919092161790556127be8061008f6000396000f3fe608060405234801561001057600080fd5b506004361061030c5760003560e01c80637ffa3a2e1161019d578063c6481855116100e9578063dcc9ee3f116100a2578063f2c357641161007c578063f2c3576414610e94578063f2dc657f14610eb1578063facec57314610ece578063fc27bf4a14610ef45761030c565b8063dcc9ee3f14610e35578063e37528bb14610e5a578063e804e51914610e775761030c565b8063c648185514610d64578063cbbfac6614610d8a578063cc7d473b14610db8578063d1b3d8fd14610dd5578063d2f7967d14610df2578063db43151d14610e0f5761030c565b80639f7d3b7f11610156578063bf8bf71911610130578063bf8bf71914610ca1578063c2bc41cd14610ccf578063c388e17a14610cec578063c5aedd2c14610d3f5761030c565b80639f7d3b7f14610c30578063a7d0238a14610c56578063ba8dfa4614610c845761030c565b80637ffa3a2e1461094457806387037b9d146109615780638adddc9d14610a3a5780638de97f4f14610a42578063920bee2f14610a6b57806395f71f3f14610a885761030c565b8063434807ad1161025c5780635efe8f6f116102155780636f30b06f116101ef5780636f30b06f146108115780636f6c2ae0146108ed57806379e765971461090a5780637d3921cd146109275761030c565b80635efe8f6f14610624578063658d2da51461062c5780636c42fc4d146106495761030c565b8063434807ad1461053857806347524b60146105555780634e905ea21461058657806356e3df97146105ab5780635ac78b11146105c85780635bdc6b58146105f65761030c565b806323a37a15116102c95780633518dd1d116102a35780633518dd1d146104c557806336e31782146104e257806338897858146105075780633c233064146105305761030c565b806323a37a15146103f857806329d0dcfb146104165780632eb7cfa71461043c5761030c565b806307c30b4d146103115780630f14aef4146103485780631018d55f1461036d5780631060c9c214610399578063185e456f146103b65780631fc7768f146103db575b600080fd5b6103366004803603604081101561032757600080fd5b50803590602001351515610f17565b60408051918252519081900360200190f35b6103366004803603604081101561035e57600080fd5b50803590602001351515610f43565b6103366004803603606081101561038357600080fd5b508035906020810135906040013560ff16610f6d565b610336600480360360208110156103af57600080fd5b5035610f86565b610336600480360360408110156103cc57600080fd5b50803590602001351515610f91565b610336600480360360208110156103f157600080fd5b5035610fbb565b610400610fc4565b6040805160ff9092168252519081900360200190f35b6103366004803603604081101561042c57600080fd5b508035906020013560ff16610fc9565b61048a6004803603606081101561045257600080fd5b6040805180820182529183019291818301918390600290839083908082843760009201919091525091945050503560ff169050610fd8565b6040518082600260200280838360005b838110156104b257818101518382015260200161049a565b5050505090500191505060405180910390f35b610336600480360360208110156104db57600080fd5b5035611016565b610336600480360360408110156104f857600080fd5b5080359060200135151561101f565b6103366004803603604081101561051d57600080fd5b508035906020013563ffffffff16611049565b610400611065565b6103366004803603602081101561054e57600080fd5b503561106a565b6105726004803603602081101561056b57600080fd5b5035611073565b604080519115158252519081900360200190f35b6103366004803603604081101561059c57600080fd5b5080359060200135151561107f565b610336600480360360208110156105c157600080fd5b50356110a9565b610336600480360360608110156105de57600080fd5b5080359060ff602082013581169160400135166110b2565b6104006004803603606081101561060c57600080fd5b5080359060ff602082013516906040013515156110c7565b6103366110f7565b6105726004803603602081101561064257600080fd5b5035611201565b61077d60048036036107e081101561066057600080fd5b6040805180820182528335936020810135938101929091610680830191830160026000835b828210156106c7576040805161032081810190925290808402860190601990839083908082843760009201919091525050508152600190910190602001610685565b5050604080518082018252939695948181019493509150600290839083908082843760009201919091525050604080518082018252929594938181019392509060029083908390808284376000920191909152505060408051808201825292959493818101939250906002908390839080828437600092019190915250506040805160a08181019092529295949381810193925090600590839083908082843760009201919091525091945061120d9350505050565b6040516000846002835b818410156107c8576020840283015161032080838360005b838110156107b757818101518382015260200161079f565b505050509050019260010192610787565b9250505083603e60200280838360005b838110156107f05781810151838201526020016107d8565b505050509050018260ff1660ff168152602001935050505060405180910390f35b61033660048036036103e081101561082857600080fd5b8101908080606001906003806020026040519081016040528092919082600360200280828437600092019190915250506040805160608181019092529295949381810193925090600390839083908082843760009201919091525050604080516101c08181019092529295949381810193925090600e90839083908082843760009201919091525050604080516101408181019092529295949381810193925090600a90839083908082843760009201919091525091945050503560ff169050611744565b6103366004803603602081101561090357600080fd5b5035611a68565b6104006004803603602081101561092057600080fd5b5035611a89565b6104006004803603602081101561093d57600080fd5b5035611a92565b6105726004803603602081101561095a57600080fd5b5035611a98565b6109ef600480360361068081101561097857600080fd5b6040805180820190915290820191906106408201908260026000835b828210156109d6576040805161032081810190925290808402860190601990839083908082843760009201919091525050508152600190910190602001610994565b509295505050508035151591506020013560ff16611aa4565b6040516000846002835b818410156107c8576020840283015161032080838360005b83811015610a29578181015183820152602001610a11565b5050505090500192600101926109f9565b610400611e3e565b61033660048036036040811015610a5857600080fd5b508035906020013563ffffffff16611e43565b61033660048036036020811015610a8157600080fd5b5035611e5d565b610be56004803603610820811015610a9f57600080fd5b6040805180820182528335936020810135938101929091610680830191830160026000835b82821015610b06576040805161032081810190925290808402860190601990839083908082843760009201919091525050508152600190910190602001610ac4565b5050604080518082018252939695948181019493509150600290839083908082843760009201919091525050604080518082018252929594938181019392509060029083908390808284376000920191909152505060408051808201825292959493818101939250906002908390839080828437600092019190915250506040805160a0818101909252929594938181019392509060059083908390808284376000920191909152505060408051808201825292959493818101939250906002908390839080828437600092019190915250919450611e669350505050565b6040516000846002835b818410156107c8576020840283015161032080838360005b83811015610c1f578181015183820152602001610c07565b505050509050019260010192610bef565b61033660048036036040811015610c4657600080fd5b508035906020013560ff166124c5565b61033660048036036060811015610c6c57600080fd5b5080359060ff602082013581169160400135166124d2565b61040060048036036020811015610c9a57600080fd5b50356124e8565b61033660048036036060811015610cb757600080fd5b5080359060ff602082013516906040013515156124f1565b61033660048036036020811015610ce557600080fd5b503561251c565b61033660048036036060811015610d0257600080fd5b6040805180820182528335939283019291606083019190602084019060029083908390808284376000920191909152509194506125259350505050565b61033660048036036040811015610d5557600080fd5b50803590602001351515612561565b61033660048036036040811015610d7a57600080fd5b508035906020013560ff1661258b565b61033660048036036060811015610da057600080fd5b5080359060ff602082013581169160400135166125a4565b61057260048036036020811015610dce57600080fd5b50356125ba565b61057260048036036020811015610deb57600080fd5b50356125c6565b61033660048036036020811015610e0857600080fd5b50356125d2565b61033660048036036040811015610e2557600080fd5b508035906020013560ff166125e0565b61033660048036036040811015610e4b57600080fd5b508035906020013515156125f7565b61057260048036036020811015610e7057600080fd5b5035612621565b61040060048036036020811015610e8d57600080fd5b503561262d565b61057260048036036020811015610eaa57600080fd5b5035612636565b61033660048036036020811015610ec757600080fd5b5035612642565b61033660048036036040811015610ee457600080fd5b508035906020013560ff1661264c565b61033660048036036040811015610f0a57600080fd5b50803590602001356126be565b60008115610f335750600160ad1b198216600160ad1b17610f3d565b50600160ad1b1982165b92915050565b600060fb82610f53576000610f56565b60015b60ff16901b60fb6001901b19841617905092915050565b60ff1660140290811b620fffff90911b19919091161790565b60b51c6207ffff1690565b600060f882610fa1576000610fa4565b60015b60ff16901b60f86001901b19841617905092915050565b607e1c60071690565b600c81565b60ff166014021c620fffff1690565b610fe06126cf565b6040805180820190915280610ffd8560005b6020020151856124c5565b815260200161100d856001610ff2565b90529392505050565b607b1c60071690565b6000811561103b5750600160d51b198216600160d51b17610f3d565b50600160d51b198216610f3d565b60b51b63ffffffff60b51b166207ffff60b51b19919091161790565b600b81565b60741c600f1690565b60cc1c60019081161490565b6000811561109b5750600160b41b198216600160b41b17610f3d565b50600160b41b198216610f3d565b60cd1c60ff1690565b60ff91821660049182029091019091161b1790565b600080826110d65760006110d9565b60035b840160020260a70190508060ff1685901c6003169150509392505050565b6040805160608082018352600b808352602080840182905283850182905284518084018652600080825281830181905281870181905286516101c0810188528181526003818501526004818901526005818701526006608080830191909152600760a080840191909152600860c080850191909152600960e080860191909152600a610100808701919091526101208087019a909a52600c610140808801919091526019610160880181905261018088018190526101a08801528d519081018e528781529889018790529b8801869052988701859052918601849052850183905284018290529483018190529582018690529181018590526111fc9392906001611744565b905090565b60fb1c60019081161490565b6112156126ed565b61121d61271a565b825160009061123157508691506001611737565b6112428560005b6020020151611201565b806112535750611253856001611238565b15611270576112658860016012611aa4565b925092509250611737565b60005b60028160ff1610156112c057848160030160ff166005811061129157fe5b6020020151156112b8576112a36110f7565b878260ff16600281106112b257fe5b60200201525b600101611273565b506002546001600160a01b031663665d00e26112dc8c8a612525565b8b8b8a8a8a6040518763ffffffff1660e01b8152600401808781526020018681526020018560026000925b81841015611348576020840283015161032080838360005b8381101561133757818101518382015260200161131f565b505050509050019260010192611307565b9250505084600260200280838360005b83811015611370578181015183820152602001611358565b5050505090500183600260200280838360005b8381101561139b578181015183820152602001611383565b5050505090500182600560200280838360005b838110156113c65781810151838201526020016113ae565b5050505090500196505050505050506107e06040518083038186803b1580156113ee57600080fd5b505afa158015611402573d6000803e3d6000fd5b505050506040513d601f19601f820116820180604052506107e081101561142857600080fd5b506107c0810151909250905060ff8116156114495761126588600183611aa4565b60005b60028160ff16101561169b576001546001600160a01b031663cc644f308a60ff84166002811061147857fe5b6020020151858460ff16603e811061148c57fe5b60200201518a8560ff16600281106114a057fe5b602002015160018a8760030160ff16600581106114b957fe5b60200201516040516001600160e01b031960e088901b168152600401808661032080838360005b838110156114f85781810151838201526020016114e0565b505050509050018581526020018481526020018315151515815260200182151515158152602001955050505050506103406040518083038186803b15801561153f57600080fd5b505afa158015611553573d6000803e3d6000fd5b505050506040513d601f19601f8201168201806040525061034081101561157957600080fd5b506103208101518a60ff84166002811061158f57fe5b6020020191909152915060ff8216156115ba576115ae89600184611aa4565b93509350935050611737565b6001546001600160a01b031663b51941968460ff8416603e81106115da57fe5b60200201518b8460ff16600281106115ee57fe5b60200201516040518363ffffffff1660e01b81526004018083815260200182601960200280838360005b83811015611630578181015183820152602001611618565b505050509050019250505060206040518083038186803b15801561165357600080fd5b505afa158015611667573d6000803e3d6000fd5b505050506040513d602081101561167d57600080fd5b50518360ff8316603e811061168e57fe5b602002015260010161144c565b506000548251602084015160408051630fd15ccf60e21b81526004810193909352602483019190915280516001600160a01b0390931692633f45733c926044808201939291829003018186803b1580156116f457600080fd5b505afa158015611708573d6000803e3d6000fd5b505050506040513d604081101561171e57600080fd5b5080516020918201519184019190915282525086915060005b9750975097945050505050565b600060408260ff161061179e576040805162461bcd60e51b815260206004820152601e60248201527f7461637469637349642073686f756c642066697420696e203634206269740000604482015290519081900360640190fd5b60ff821660005b600a8160ff1610156117ec578060060160ff16858260ff16600a81106117c757fe5b60200201516117d75760006117da565b60015b60ff16901b91909117906001016117a5565b5060005b600b8160ff1610156118915760198660ff8316600e811061180d57fe5b602002015160ff161115611861576040805162461bcd60e51b8152602060048201526016602482015275696e636f7272656374206c696e65757020656e74727960501b604482015290519081900360640190fd5b8060050260100160ff16868260ff16600e811061187a57fe5b602002015160ff16901b91909117906001016117f0565b5060005b60038160ff161015611a5d57600c888260ff16600381106118b257fe5b602002015160ff1610611905576040805162461bcd60e51b8152602060048201526016602482015275696e636f7272656374206c696e65757020656e74727960501b604482015290519081900360640190fd5b600c878260ff166003811061191657fe5b602002015160ff1610611962576040805162461bcd60e51b815260206004820152600f60248201526e1a5b98dbdc9c9958dd081c9bdd5b99608a1b604482015290519081900360640190fd5b600b8860ff83166003811061197357fe5b602002015160ff1614156119d957601986600b830160ff16600e811061199557fe5b602002015160ff16146119d95760405162461bcd60e51b81526004018080602001828103825260308152602001806127596030913960400191505060405180910390fd5b80600b0160050260100160ff168682600b0160ff16600e81106119f857fe5b602002015160ff16901b821791508060040260560160ff16888260ff1660038110611a1f57fe5b602002015160ff16901b821791508060040260620160ff16878260ff1660038110611a4657fe5b602002015160ff16901b9190911790600101611895565b509695505050505050565b6000611a7382611073565b611a8557611a80826125d2565b610f3d565b5090565b60b11c60071690565b600f1690565b60d61c60019081161490565b611aac6126ed565b611ab461271a565b6000611abe61271a565b60005b60028160ff161015611e335760005b601960ff82161015611dbf57888260ff1660028110611aeb57fe5b60200201518160ff1660198110611afe57fe5b602002015115611db757611b39898360ff1660028110611b1a57fe5b60200201518260ff1660198110611b2d57fe5b602002015160006125f7565b898360ff1660028110611b4857fe5b60200201518260ff1660198110611b5b57fe5b6020020152611b918960ff841660028110611b7257fe5b60200201518260ff1660198110611b8557fe5b6020020151600061107f565b898360ff1660028110611ba057fe5b60200201518260ff1660198110611bb357fe5b6020020152611be98960ff841660028110611bca57fe5b60200201518260ff1660198110611bdd57fe5b6020020151600061101f565b898360ff1660028110611bf857fe5b60200201518260ff1660198110611c0b57fe5b6020020152611c418960ff841660028110611c2257fe5b60200201518260ff1660198110611c3557fe5b60200201516000612561565b898360ff1660028110611c5057fe5b60200201518260ff1660198110611c6357fe5b6020020152611c998960ff841660028110611c7a57fe5b60200201518260ff1660198110611c8d57fe5b60200201516000610f17565b898360ff1660028110611ca857fe5b60200201518260ff1660198110611cbb57fe5b6020020152611cf18960ff841660028110611cd257fe5b60200201518260ff1660198110611ce557fe5b6020020151600061264c565b898360ff1660028110611d0057fe5b60200201518260ff1660198110611d1357fe5b60200201528715611db7576000611d4f8a8460ff1660028110611d3257fe5b60200201518360ff1660198110611d4557fe5b6020020151611a89565b905060ff811615611db557611d8d8a8460ff1660028110611d6c57fe5b60200201518360ff1660198110611d7f57fe5b6020020151600183036125e0565b8a8460ff1660028110611d9c57fe5b60200201518360ff1660198110611daf57fe5b60200201525b505b600101611ad0565b50611dde828260ff16603e8110611dd257fe5b60200201516001610f43565b828260ff16603e8110611ded57fe5b60200201528615611e2b57611e16828260ff16603e8110611e0a57fe5b602002015160026124c5565b828260ff16603e8110611e2557fe5b60200201525b600101611ac1565b509596939450505050565b601981565b60cd1b63ffffffff60cd1b1660ff60cd1b19919091161790565b600160cc1b1790565b611e6e6126ed565b611e7661271a565b835160009015611e8b575087915060016124b7565b60005b60028160ff16101561219757858160030160ff1660058110611eac57fe5b602002015115611fad57611ebe6110f7565b888260ff1660028110611ecd57fe5b60200201526000546001600160a01b0316639cd33b658b60ff841660028110611ef257fe5b60200201518d6040518363ffffffff1660e01b81526004018083601960200280838360005b83811015611f2f578181015183820152602001611f17565b50505050905001828152602001925050506103206040518083038186803b158015611f5957600080fd5b505afa158015611f6d573d6000803e3d6000fd5b505050506040513d601f19601f82011682018060405250610320811015611f9357600080fd5b508a60ff831660028110611fa357fe5b602002015261218f565b6000546001600160a01b031663219048618b60ff841660028110611fcd57fe5b6020020151878460ff1660028110611fe157fe5b60200201518b8560ff1660028110611ff557fe5b60200201518f600160009054906101000a90046001600160a01b03166001600160a01b031663ce9681648e8960ff166002811061202e57fe5b60200201516040518263ffffffff1660e01b81526004018082815260200191505060206040518083038186803b15801561206757600080fd5b505afa15801561207b573d6000803e3d6000fd5b505050506040513d602081101561209157600080fd5b50516040516001600160e01b031960e088901b168152600401808661032080838360005b838110156120cd5781810151838201526020016120b5565b505050509050018581526020018481526020018381526020018261ffff1661ffff168152602001955050505050506103406040518083038186803b15801561211457600080fd5b505afa158015612128573d6000803e3d6000fd5b505050506040513d601f19601f8201168201806040525061034081101561214e57600080fd5b506103208101518b60ff84166002811061216457fe5b6020020191909152915060ff82161561218f576121838a600084611aa4565b935093509350506124b7565b600101611e8e565b506002546001600160a01b031663665d00e26121b38d8b612525565b8c8c8b60405180604001604052806000815260200160008152508b6040518763ffffffff1660e01b8152600401808781526020018681526020018560026000925b81841015612235576020840283015161032080838360005b8381101561222457818101518382015260200161220c565b5050505090500192600101926121f4565b9250505084600260200280838360005b8381101561225d578181015183820152602001612245565b5050505090500183600260200280838360005b83811015612288578181015183820152602001612270565b5050505090500182600560200280838360005b838110156122b357818101518382015260200161229b565b5050505090500196505050505050506107e06040518083038186803b1580156122db57600080fd5b505afa1580156122ef573d6000803e3d6000fd5b505050506040513d601f19601f820116820180604052506107e081101561231557600080fd5b506107c0810151909250905060ff8116156123415761233689600083611aa4565b9250925092506124b7565b60005b60028160ff1610156124ae576001546001600160a01b031663cc644f308b60ff84166002811061237057fe5b6020020151858460ff16603e811061238457fe5b60200201518b8560ff166002811061239857fe5b602002015160008b8760030160ff16600581106123b157fe5b60200201516040516001600160e01b031960e088901b168152600401808661032080838360005b838110156123f05781810151838201526020016123d8565b505050509050018581526020018481526020018315151515815260200182151515158152602001955050505050506103406040518083038186803b15801561243757600080fd5b505afa15801561244b573d6000803e3d6000fd5b505050506040513d601f19601f8201168201806040525061034081101561247157600080fd5b506103208101518b60ff84166002811061248757fe5b6020020191909152915060ff8216156124a6576121838a600084611aa4565b600101612344565b50889250600090505b985098509895505050505050565b60d21b60ff60d21b161790565b60ff9182166004919091026034019091161b1790565b60f91c60031690565b6000816124ff576000612502565b60015b60040260c20160ff168360ff16901b841790509392505050565b60781c60071690565b80516020918201516040805180850195909552848101929092526060808501919091528151808503909101815260809093019052815191012090565b6000811561257d5750600160d61b198216600160d61b17610f3d565b50600160d61b198216610f3d565b60f91b607f60f91b166001607d60f91b03919091161790565b60ff9182166002919091026064019091161b1790565b60ad1c60019081161490565b60d51c60019081161490565b60811c6507ffffffffff1690565b60b11b60ff60b11b16600760b11b19919091161790565b600081156126135750600160ac1b198216600160ac1b17610f3d565b50600160ac1b198216610f3d565b60b41c60019081161490565b60ae1c60071690565b60ac1c60019081161490565b60641c61ffff1690565b600060088260ff16106126a6576040805162461bcd60e51b815260206004820152601d60248201527f67616d65734e6f6e53746f7070696e67206f7574206f6620626f756e64000000604482015290519081900360640190fd5b5060ae1b60ff60ae1b16600760ae1b19919091161790565b60741b600f60741b19919091161790565b60405180604001604052806002906020820280368337509192915050565b60405180604001604052806002905b612704612739565b8152602001906001900390816126fc5790505090565b604051806107c00160405280603e906020820280368337509192915050565b604051806103200160405280601990602082028036833750919291505056fe696e636f7272656374206c696e65757020656e74727920666f72206e6f20737562737469747574656420706c61796572a2646970667358221220ecb53cd828e2f351988d7d4d524e024635cde8d4cf5ba94df19f51bb789e35d064736f6c63430006030033",
  "source": "pragma solidity >= 0.6.3;\n\nimport \"./TrainingPoints.sol\";\nimport \"./Evolution.sol\";\nimport \"./Engine.sol\";\nimport \"../gameEngine/ErrorCodes.sol\";\nimport \"../encoders/EncodingTacticsBase1.sol\";\nimport \"../encoders/EncodingSkillsSetters.sol\";\nimport \"../encoders/EncodingSkillsGetters.sol\";\nimport \"../encoders/EncodingMatchLogBase3.sol\";\n\n\n/**\n @title Main entry point for backend. Plays 1st and 2nd half and evolves players.\n @author Freeverse.io, www.freeverse.io\n @dev All functions are basically pure, but some had to be made view\n @dev because they use a storage pointer to other contracts.\n*/\n\ncontract PlayAndEvolve is ErrorCodes, EncodingTacticsBase1, EncodingSkillsSetters, EncodingSkillsGetters, EncodingMatchLogBase3 {\n\n    uint8 constant public PLAYERS_PER_TEAM_MAX = 25;\n    uint8 private constant IDX_IS_2ND_HALF = 0; \n    uint8 public constant ROUNDS_PER_MATCH = 12;   /// Number of relevant actions that happen during a game (12 equals one per 3.7 min)\n    uint8 private constant IDX_IS_BOT_HOME = 3; \n    uint8 private constant IDX_IS_BOT_AWAY = 4; \n    uint8 private constant WINNER_DRAW = 2;\n    \n    TrainingPoints private training;\n    Evolution private evo;\n    Engine private engine;\n\n    constructor(address trainingAddr, address evolutionAddr, address engineAddr) public {\n        training = TrainingPoints(trainingAddr);\n        evo = Evolution(evolutionAddr);\n        engine = Engine(engineAddr);\n    }\n\n    function generateMatchSeed(bytes32 seed, uint256[2] memory teamIds) public pure returns (uint256) {\n        return uint256(keccak256(abi.encode(seed, teamIds[0], teamIds[1])));\n    }\n\n    /// In a 1st half we need to:\n    ///      1. applyTrainingPoints: (oldSkills, assignedTPs) => (newSkills)\n    ///      2. playHalfMatch: (newSkills) => (matchLogs, events)\n    ///      3. updateSkillsAfterPlayHalf: (newSkills, matchLogs) => finalSkills\n    /// Output: (finalSkills, matchLogsAndEvents)\n    function play1stHalfAndEvolve(\n        bytes32 verseSeed,\n        uint256 matchStartTime,\n        uint256[PLAYERS_PER_TEAM_MAX][2] memory skills,\n        uint256[2] memory teamIds,\n        uint256[2] memory tactics,\n        uint256[2] memory matchLogs,\n        bool[5] memory matchBools, /// [is2ndHalf, isHomeStadium, isPlayoff, isBotHome, isBotAway]\n        uint256[2] memory assignedTPs\n    )\n        public \n        view \n        returns \n    (\n        uint256[PLAYERS_PER_TEAM_MAX][2] memory, \n        uint256[2+5*ROUNDS_PER_MATCH] memory matchLogsAndEvents,\n        uint8 err\n    )\n    {\n        if (matchBools[IDX_IS_2ND_HALF]) { return (skills, matchLogsAndEvents, ERR_IS2NDHALF); }\n\n        for (uint8 team = 0; team < 2; team++) {\n            if (matchBools[IDX_IS_BOT_HOME + team]) {\n                tactics[team] = getBotTactics();\n                skills[team] = training.evolveBot(skills[team], matchStartTime);\n            } else {\n                (skills[team], err) = training.applyTrainingPoints(skills[team], assignedTPs[team], tactics[team], matchStartTime, evo.getTrainingPoints(matchLogs[team]));\n                if (err > 0) return cancelHalf(skills, false, err);\n                // TODO: when we support shop, enable these 2 lines:\n                // err = shop.validateItemsInTactics(tactics[team]);\n                // if (err > 0) return (skills, matchLogsAndEvents, err);\n            }\n        }\n            \n        /// Note that the following call does not change de values of \"skills\" because it calls a separate contract.\n        /// It would do so if playHalfMatch was part of this contract code.\n        (matchLogsAndEvents, err) = engine.playHalfMatch(\n            generateMatchSeed(verseSeed, teamIds), \n            matchStartTime, \n            skills, \n            tactics, \n            [uint256(0),uint256(0)], \n            matchBools\n        );\n        if (err > 0) return cancelHalf(skills, false, err);\n\n        for (uint8 team = 0; team < 2; team++) {\n            (skills[team], err) = evo.updateSkillsAfterPlayHalf(skills[team], matchLogsAndEvents[team], tactics[team], false, matchBools[IDX_IS_BOT_HOME + team]);\n            if (err > 0) return cancelHalf(skills, false, err);\n        }\n\n        return (skills, matchLogsAndEvents, 0);\n    }\n    \n    \n    /// In a 2nd half we need to:\n    ///      1. playHalfMatch: (oldSkills, matchLogsHalf1) => (matchLogsHalf2, events)\n    ///      2. updateSkillsAfterPlayHalf: (oldSkills, matchLogsHalf2) => newSkills\n    ///      3. computeTrainingPoints: (matchLogsHalf2) => (matchLogsHalf2 with TPs)\n    /// Output: (newSkills, matchLogsAndEvents with TPs)\n    function play2ndHalfAndEvolve(\n        bytes32 verseSeed,\n        uint256 matchStartTime,\n        uint256[PLAYERS_PER_TEAM_MAX][2] memory skills,\n        uint256[2] memory teamIds,\n        uint256[2] memory tactics,\n        uint256[2] memory matchLogs,\n        bool[5] memory matchBools /// [is2ndHalf, isHomeStadium, isPlayoff, isBotHomeTeam, isBotAwayTeam]\n    )\n        public \n        view \n        returns\n    (\n        uint256[PLAYERS_PER_TEAM_MAX][2] memory, \n        uint256[2+5*ROUNDS_PER_MATCH] memory matchLogsAndEvents,\n        uint8 err\n    )\n    {\n        if (!matchBools[IDX_IS_2ND_HALF]) { return (skills, matchLogsAndEvents, ERR_IS2NDHALF); }\n        if (getIsCancelled(matchLogs[0]) || getIsCancelled(matchLogs[1])) {\n            return cancelHalf(skills, true, ERR_2NDHALF_CANCELLED_DUE_TO_1STHALF_CANCELLED);\n        }\n\n        for (uint8 team = 0; team < 2; team++) {\n            if (matchBools[IDX_IS_BOT_HOME + team]) {\n                tactics[team] = getBotTactics();\n            } else {\n                // TODO: when we support shop, enable these 2 lines:\n                // err = shop.validateItemsInTactics(tactics[team]);\n                // if (err > 0) return (skills, matchLogsAndEvents, err);\n            }\n        }\n\n        /// Note that the following call does not change de values of \"skills\" because it calls a separate contract.\n        /// It would do so if playHalfMatch was part of this contract code.\n        (matchLogsAndEvents, err) = engine.playHalfMatch(\n            generateMatchSeed(verseSeed, teamIds), \n            matchStartTime, \n            skills, \n            tactics, \n            matchLogs, \n            matchBools\n        );\n        if (err > 0) return cancelHalf(skills, true, err);\n\n        for (uint8 team = 0; team < 2; team++) {\n            (skills[team], err) = evo.updateSkillsAfterPlayHalf(skills[team], matchLogsAndEvents[team], tactics[team], true, matchBools[IDX_IS_BOT_HOME + team]);\n            if (err > 0) return cancelHalf(skills, true, err);\n            // warning: the following line would change skills if it was not an external contract call!\n            matchLogsAndEvents[team] = evo.addTeamSumSkillsToLog(matchLogsAndEvents[team], skills[team]);\n        }\n\n        (matchLogsAndEvents[0], matchLogsAndEvents[1]) = training.computeTrainingPoints(matchLogsAndEvents[0], matchLogsAndEvents[1]);\n\n        return (skills, matchLogsAndEvents, 0);\n    }\n\n    function getBotTactics() public pure returns(uint256) { \n        return encodeTactics(\n            [NO_SUBST, NO_SUBST, NO_SUBST], // no substitutions\n            [0, 0, 0], // subRounds don't matter\n            [0, 3, 4, 5, 6, 7, 8, 9, 10, 11, 12, 25, 25, 25], // consecutive lineup, with one single GK \n            [false, false, false, false, false, false, false, false, false, false], // no extra attack\n            1 // tacticsId = 1 = 5-4-1\n        );\n    }\n\n    /// sets skills as \"noone played this match\", and returns almost-null matchLog:\n    /// - no events, no goals, no TPs\n    /// - except for is2ndHalf, in which case it returns DRAW\n    /// In 2nd half, it also resets all \"games non stopping\" for all players, and redCardsLastGame to false. \n    function cancelHalf(\n        uint256[PLAYERS_PER_TEAM_MAX][2] memory skills, \n        bool is2ndHalf,\n        uint8 error\n    ) \n        public \n        pure\n        returns \n    (\n        uint256[PLAYERS_PER_TEAM_MAX][2] memory, \n        uint256[2+5*ROUNDS_PER_MATCH] memory, \n        uint8\n    ) \n    {\n        uint256[2+5*ROUNDS_PER_MATCH] memory matchLogsAndEvents;\n        for (uint8 team = 0; team < 2; team++) {\n            for (uint8 p = 0; p < PLAYERS_PER_TEAM_MAX; p++) {\n                if (skills[team][p] != 0) {\n                    skills[team][p] = setAlignedEndOfFirstHalf(skills[team][p], false);\n                    skills[team][p] = setSubstitutedFirstHalf(skills[team][p], false);\n                    skills[team][p] = setOutOfGameFirstHalf(skills[team][p], false);\n                    skills[team][p] = setYellowCardFirstHalf(skills[team][p], false);\n                    skills[team][p] = setRedCardLastGame(skills[team][p], false); \n                    skills[team][p] = setGamesNonStopping(skills[team][p], 0);        \n                    if (is2ndHalf) {\n                        uint8 injuryWeeksLeft = getInjuryWeeksLeft(skills[team][p]);\n                        if (injuryWeeksLeft > 0) {\n                            skills[team][p] = setInjuryWeeksLeft(skills[team][p], injuryWeeksLeft-1);\n                        }\n                    }\n                }\n            }\n            matchLogsAndEvents[team] = setIsCancelled(matchLogsAndEvents[team], true);\n            if (is2ndHalf) { matchLogsAndEvents[team] = addWinner(matchLogsAndEvents[team], WINNER_DRAW); }\n        }\n        return (skills, matchLogsAndEvents, error);\n    }\n\n}\n\n",
  "sourcePath": "/Users/jurgenkudla/proyects/laos/laos-goal-revolution/truffle-core/contracts/gameEngine/PlayAndEvolve.sol",
  "compiler": {
    "name": "solc",
    "version": "0.6.3+commit.8dda9521.Emscripten.clang"
  },
  "schemaVersion": "3.0.23",
  "updatedAt": "2024-10-16T08:58:34.581Z",
  "networkType": "ethereum",
  "devdoc": {
    "author": "Freeverse.io, www.freeverse.io",
    "details": "All functions are basically pure, but some had to be made viewbecause they use a storage pointer to other contracts.",
    "methods": {},
    "title": "Main entry point for backend. Plays 1st and 2nd half and evolves players."
  },
  "userdoc": {
    "methods": {
      "cancelHalf(uint256[25][2],bool,uint8)": {
        "notice": "sets skills as \"noone played this match\", and returns almost-null matchLog: - no events, no goals, no TPs - except for is2ndHalf, in which case it returns DRAW In 2nd half, it also resets all \"games non stopping\" for all players, and redCardsLastGame to false. "
      },
      "play1stHalfAndEvolve(bytes32,uint256,uint256[25][2],uint256[2],uint256[2],uint256[2],bool[5],uint256[2])": {
        "notice": "In a 1st half we need to:      1. applyTrainingPoints: (oldSkills, assignedTPs) => (newSkills)      2. playHalfMatch: (newSkills) => (matchLogs, events)      3. updateSkillsAfterPlayHalf: (newSkills, matchLogs) => finalSkills Output: (finalSkills, matchLogsAndEvents)"
      },
      "play2ndHalfAndEvolve(bytes32,uint256,uint256[25][2],uint256[2],uint256[2],uint256[2],bool[5])": {
        "notice": "In a 2nd half we need to:      1. playHalfMatch: (oldSkills, matchLogsHalf1) => (matchLogsHalf2, events)      2. updateSkillsAfterPlayHalf: (oldSkills, matchLogsHalf2) => newSkills      3. computeTrainingPoints: (matchLogsHalf2) => (matchLogsHalf2 with TPs) Output: (newSkills, matchLogsAndEvents with TPs)"
      }
    }
  }
}