{
  "contractName": "Privileged",
  "abi": [
    {
      "inputs": [],
      "name": "MAX_RND",
      "outputs": [
        {
          "internalType": "uint256",
          "name": "",
          "type": "uint256"
        }
      ],
      "stateMutability": "view",
      "type": "function",
      "constant": true
    },
    {
      "inputs": [
        {
          "internalType": "uint256",
          "name": "encodedSkills",
          "type": "uint256"
        }
      ],
      "name": "addIsSpecial",
      "outputs": [
        {
          "internalType": "uint256",
          "name": "",
          "type": "uint256"
        }
      ],
      "stateMutability": "pure",
      "type": "function",
      "constant": true
    },
    {
      "inputs": [
        {
          "internalType": "uint256",
          "name": "teamId",
          "type": "uint256"
        },
        {
          "internalType": "uint8",
          "name": "shirtNum",
          "type": "uint8"
        },
        {
          "internalType": "uint8",
          "name": "potential",
          "type": "uint8"
        }
      ],
      "name": "computeSkills",
      "outputs": [
        {
          "internalType": "uint32[5]",
          "name": "",
          "type": "uint32[5]"
        },
        {
          "internalType": "uint8[4]",
          "name": "",
          "type": "uint8[4]"
        },
        {
          "internalType": "uint32",
          "name": "",
          "type": "uint32"
        }
      ],
      "stateMutability": "pure",
      "type": "function",
      "constant": true
    },
    {
      "inputs": [
        {
          "internalType": "uint256",
          "name": "encoded",
          "type": "uint256"
        }
      ],
      "name": "decodeTZCountryAndVal",
      "outputs": [
        {
          "internalType": "uint8",
          "name": "",
          "type": "uint8"
        },
        {
          "internalType": "uint256",
          "name": "",
          "type": "uint256"
        },
        {
          "internalType": "uint256",
          "name": "",
          "type": "uint256"
        }
      ],
      "stateMutability": "pure",
      "type": "function",
      "constant": true
    },
    {
      "inputs": [
        {
          "internalType": "uint32[5]",
          "name": "skills",
          "type": "uint32[5]"
        },
        {
          "internalType": "uint256",
          "name": "dayOfBirth",
          "type": "uint256"
        },
        {
          "internalType": "uint8",
          "name": "generation",
          "type": "uint8"
        },
        {
          "internalType": "uint256",
          "name": "playerId",
          "type": "uint256"
        },
        {
          "internalType": "uint8[4]",
          "name": "birthTraits",
          "type": "uint8[4]"
        },
        {
          "internalType": "bool",
          "name": "alignedEndOfLastHalf",
          "type": "bool"
        },
        {
          "internalType": "bool",
          "name": "redCardLastGame",
          "type": "bool"
        },
        {
          "internalType": "uint8",
          "name": "gamesNonStopping",
          "type": "uint8"
        },
        {
          "internalType": "uint8",
          "name": "injuryWeeksLeft",
          "type": "uint8"
        },
        {
          "internalType": "bool",
          "name": "substitutedFirstHalf",
          "type": "bool"
        },
        {
          "internalType": "uint32",
          "name": "sumSkills",
          "type": "uint32"
        }
      ],
      "name": "encodePlayerSkills",
      "outputs": [
        {
          "internalType": "uint256",
          "name": "encoded",
          "type": "uint256"
        }
      ],
      "stateMutability": "pure",
      "type": "function",
      "constant": true
    },
    {
      "inputs": [
        {
          "internalType": "uint8",
          "name": "timeZone",
          "type": "uint8"
        },
        {
          "internalType": "uint256",
          "name": "countryIdxInTZ",
          "type": "uint256"
        },
        {
          "internalType": "uint256",
          "name": "val",
          "type": "uint256"
        }
      ],
      "name": "encodeTZCountryAndVal",
      "outputs": [
        {
          "internalType": "uint256",
          "name": "",
          "type": "uint256"
        }
      ],
      "stateMutability": "pure",
      "type": "function",
      "constant": true
    },
    {
      "inputs": [
        {
          "internalType": "uint256",
          "name": "encodedSkills",
          "type": "uint256"
        }
      ],
      "name": "getAggressiveness",
      "outputs": [
        {
          "internalType": "uint256",
          "name": "",
          "type": "uint256"
        }
      ],
      "stateMutability": "pure",
      "type": "function",
      "constant": true
    },
    {
      "inputs": [
        {
          "internalType": "uint256",
          "name": "encodedSkills",
          "type": "uint256"
        }
      ],
      "name": "getAlignedEndOfFirstHalf",
      "outputs": [
        {
          "internalType": "bool",
          "name": "",
          "type": "bool"
        }
      ],
      "stateMutability": "pure",
      "type": "function",
      "constant": true
    },
    {
      "inputs": [
        {
          "internalType": "uint256",
          "name": "encodedSkills",
          "type": "uint256"
        }
      ],
      "name": "getBirthDay",
      "outputs": [
        {
          "internalType": "uint256",
          "name": "",
          "type": "uint256"
        }
      ],
      "stateMutability": "pure",
      "type": "function",
      "constant": true
    },
    {
      "inputs": [
        {
          "internalType": "uint256",
          "name": "encodedSkills",
          "type": "uint256"
        }
      ],
      "name": "getForwardness",
      "outputs": [
        {
          "internalType": "uint256",
          "name": "",
          "type": "uint256"
        }
      ],
      "stateMutability": "pure",
      "type": "function",
      "constant": true
    },
    {
      "inputs": [
        {
          "internalType": "uint256",
          "name": "encodedSkills",
          "type": "uint256"
        }
      ],
      "name": "getGamesNonStopping",
      "outputs": [
        {
          "internalType": "uint8",
          "name": "",
          "type": "uint8"
        }
      ],
      "stateMutability": "pure",
      "type": "function",
      "constant": true
    },
    {
      "inputs": [
        {
          "internalType": "uint256",
          "name": "encodedSkills",
          "type": "uint256"
        }
      ],
      "name": "getGeneration",
      "outputs": [
        {
          "internalType": "uint256",
          "name": "",
          "type": "uint256"
        }
      ],
      "stateMutability": "pure",
      "type": "function",
      "constant": true
    },
    {
      "inputs": [
        {
          "internalType": "uint256",
          "name": "encodedSkills",
          "type": "uint256"
        }
      ],
      "name": "getInjuryWeeksLeft",
      "outputs": [
        {
          "internalType": "uint8",
          "name": "",
          "type": "uint8"
        }
      ],
      "stateMutability": "pure",
      "type": "function",
      "constant": true
    },
    {
      "inputs": [
        {
          "internalType": "uint256",
          "name": "encodedSkills",
          "type": "uint256"
        }
      ],
      "name": "getInternalPlayerId",
      "outputs": [
        {
          "internalType": "uint256",
          "name": "",
          "type": "uint256"
        }
      ],
      "stateMutability": "pure",
      "type": "function",
      "constant": true
    },
    {
      "inputs": [
        {
          "internalType": "uint256",
          "name": "encodedSkills",
          "type": "uint256"
        }
      ],
      "name": "getIsSpecial",
      "outputs": [
        {
          "internalType": "bool",
          "name": "",
          "type": "bool"
        }
      ],
      "stateMutability": "pure",
      "type": "function",
      "constant": true
    },
    {
      "inputs": [
        {
          "internalType": "uint256",
          "name": "encodedSkills",
          "type": "uint256"
        }
      ],
      "name": "getLeftishness",
      "outputs": [
        {
          "internalType": "uint256",
          "name": "",
          "type": "uint256"
        }
      ],
      "stateMutability": "pure",
      "type": "function",
      "constant": true
    },
    {
      "inputs": [
        {
          "internalType": "uint256",
          "name": "encodedSkills",
          "type": "uint256"
        }
      ],
      "name": "getOutOfGameFirstHalf",
      "outputs": [
        {
          "internalType": "bool",
          "name": "",
          "type": "bool"
        }
      ],
      "stateMutability": "pure",
      "type": "function",
      "constant": true
    },
    {
      "inputs": [
        {
          "internalType": "uint256",
          "name": "encodedSkills",
          "type": "uint256"
        }
      ],
      "name": "getPlayerIdFromSkills",
      "outputs": [
        {
          "internalType": "uint256",
          "name": "",
          "type": "uint256"
        }
      ],
      "stateMutability": "pure",
      "type": "function",
      "constant": true
    },
    {
      "inputs": [
        {
          "internalType": "uint256",
          "name": "encodedSkills",
          "type": "uint256"
        }
      ],
      "name": "getPotential",
      "outputs": [
        {
          "internalType": "uint256",
          "name": "",
          "type": "uint256"
        }
      ],
      "stateMutability": "pure",
      "type": "function",
      "constant": true
    },
    {
      "inputs": [
        {
          "internalType": "uint256",
          "name": "encodedSkills",
          "type": "uint256"
        }
      ],
      "name": "getRedCardLastGame",
      "outputs": [
        {
          "internalType": "bool",
          "name": "",
          "type": "bool"
        }
      ],
      "stateMutability": "pure",
      "type": "function",
      "constant": true
    },
    {
      "inputs": [
        {
          "internalType": "uint256",
          "name": "encodedSkills",
          "type": "uint256"
        },
        {
          "internalType": "uint8",
          "name": "skillIdx",
          "type": "uint8"
        }
      ],
      "name": "getSkill",
      "outputs": [
        {
          "internalType": "uint256",
          "name": "",
          "type": "uint256"
        }
      ],
      "stateMutability": "pure",
      "type": "function",
      "constant": true
    },
    {
      "inputs": [
        {
          "internalType": "uint256",
          "name": "encodedSkills",
          "type": "uint256"
        }
      ],
      "name": "getSubstitutedFirstHalf",
      "outputs": [
        {
          "internalType": "bool",
          "name": "",
          "type": "bool"
        }
      ],
      "stateMutability": "pure",
      "type": "function",
      "constant": true
    },
    {
      "inputs": [
        {
          "internalType": "uint256",
          "name": "encodedSkills",
          "type": "uint256"
        }
      ],
      "name": "getSumOfSkills",
      "outputs": [
        {
          "internalType": "uint256",
          "name": "",
          "type": "uint256"
        }
      ],
      "stateMutability": "pure",
      "type": "function",
      "constant": true
    },
    {
      "inputs": [
        {
          "internalType": "uint256",
          "name": "encodedSkills",
          "type": "uint256"
        }
      ],
      "name": "getYellowCardFirstHalf",
      "outputs": [
        {
          "internalType": "bool",
          "name": "",
          "type": "bool"
        }
      ],
      "stateMutability": "pure",
      "type": "function",
      "constant": true
    },
    {
      "inputs": [
        {
          "internalType": "uint256",
          "name": "encodedSkills",
          "type": "uint256"
        },
        {
          "internalType": "bool",
          "name": "val",
          "type": "bool"
        }
      ],
      "name": "setAlignedEndOfFirstHalf",
      "outputs": [
        {
          "internalType": "uint256",
          "name": "",
          "type": "uint256"
        }
      ],
      "stateMutability": "pure",
      "type": "function",
      "constant": true
    },
    {
      "inputs": [
        {
          "internalType": "uint256",
          "name": "encodedSkills",
          "type": "uint256"
        },
        {
          "internalType": "uint8",
          "name": "val",
          "type": "uint8"
        }
      ],
      "name": "setGamesNonStopping",
      "outputs": [
        {
          "internalType": "uint256",
          "name": "",
          "type": "uint256"
        }
      ],
      "stateMutability": "pure",
      "type": "function",
      "constant": true
    },
    {
      "inputs": [
        {
          "internalType": "uint256",
          "name": "encodedSkills",
          "type": "uint256"
        },
        {
          "internalType": "uint32",
          "name": "val",
          "type": "uint32"
        }
      ],
      "name": "setGeneration",
      "outputs": [
        {
          "internalType": "uint256",
          "name": "",
          "type": "uint256"
        }
      ],
      "stateMutability": "pure",
      "type": "function",
      "constant": true
    },
    {
      "inputs": [
        {
          "internalType": "uint256",
          "name": "encodedSkills",
          "type": "uint256"
        },
        {
          "internalType": "uint8",
          "name": "val",
          "type": "uint8"
        }
      ],
      "name": "setInjuryWeeksLeft",
      "outputs": [
        {
          "internalType": "uint256",
          "name": "",
          "type": "uint256"
        }
      ],
      "stateMutability": "pure",
      "type": "function",
      "constant": true
    },
    {
      "inputs": [
        {
          "internalType": "uint256",
          "name": "encodedSkills",
          "type": "uint256"
        },
        {
          "internalType": "bool",
          "name": "val",
          "type": "bool"
        }
      ],
      "name": "setOutOfGameFirstHalf",
      "outputs": [
        {
          "internalType": "uint256",
          "name": "",
          "type": "uint256"
        }
      ],
      "stateMutability": "pure",
      "type": "function",
      "constant": true
    },
    {
      "inputs": [
        {
          "internalType": "uint256",
          "name": "encodedSkills",
          "type": "uint256"
        },
        {
          "internalType": "uint256",
          "name": "val",
          "type": "uint256"
        }
      ],
      "name": "setPotential",
      "outputs": [
        {
          "internalType": "uint256",
          "name": "",
          "type": "uint256"
        }
      ],
      "stateMutability": "pure",
      "type": "function",
      "constant": true
    },
    {
      "inputs": [
        {
          "internalType": "uint256",
          "name": "encodedSkills",
          "type": "uint256"
        },
        {
          "internalType": "bool",
          "name": "val",
          "type": "bool"
        }
      ],
      "name": "setRedCardLastGame",
      "outputs": [
        {
          "internalType": "uint256",
          "name": "",
          "type": "uint256"
        }
      ],
      "stateMutability": "pure",
      "type": "function",
      "constant": true
    },
    {
      "inputs": [
        {
          "internalType": "uint256",
          "name": "encodedSkills",
          "type": "uint256"
        },
        {
          "internalType": "uint256",
          "name": "val",
          "type": "uint256"
        },
        {
          "internalType": "uint8",
          "name": "skillIdx",
          "type": "uint8"
        }
      ],
      "name": "setSkill",
      "outputs": [
        {
          "internalType": "uint256",
          "name": "",
          "type": "uint256"
        }
      ],
      "stateMutability": "pure",
      "type": "function",
      "constant": true
    },
    {
      "inputs": [
        {
          "internalType": "uint256",
          "name": "encodedSkills",
          "type": "uint256"
        },
        {
          "internalType": "bool",
          "name": "val",
          "type": "bool"
        }
      ],
      "name": "setSubstitutedFirstHalf",
      "outputs": [
        {
          "internalType": "uint256",
          "name": "",
          "type": "uint256"
        }
      ],
      "stateMutability": "pure",
      "type": "function",
      "constant": true
    },
    {
      "inputs": [
        {
          "internalType": "uint256",
          "name": "encodedSkills",
          "type": "uint256"
        },
        {
          "internalType": "uint32",
          "name": "val",
          "type": "uint32"
        }
      ],
      "name": "setSumOfSkills",
      "outputs": [
        {
          "internalType": "uint256",
          "name": "",
          "type": "uint256"
        }
      ],
      "stateMutability": "pure",
      "type": "function",
      "constant": true
    },
    {
      "inputs": [
        {
          "internalType": "uint256",
          "name": "encodedSkills",
          "type": "uint256"
        },
        {
          "internalType": "bool",
          "name": "val",
          "type": "bool"
        }
      ],
      "name": "setYellowCardFirstHalf",
      "outputs": [
        {
          "internalType": "uint256",
          "name": "",
          "type": "uint256"
        }
      ],
      "stateMutability": "pure",
      "type": "function",
      "constant": true
    },
    {
      "inputs": [
        {
          "internalType": "uint32[5]",
          "name": "skillsVec",
          "type": "uint32[5]"
        },
        {
          "internalType": "uint256",
          "name": "ageInSecs",
          "type": "uint256"
        },
        {
          "internalType": "uint8[4]",
          "name": "birthTraits",
          "type": "uint8[4]"
        },
        {
          "internalType": "uint256",
          "name": "playerId",
          "type": "uint256"
        },
        {
          "internalType": "uint256",
          "name": "nowInSecs",
          "type": "uint256"
        }
      ],
      "name": "createSpecialPlayer",
      "outputs": [
        {
          "internalType": "uint256",
          "name": "",
          "type": "uint256"
        }
      ],
      "stateMutability": "pure",
      "type": "function",
      "constant": true
    },
    {
      "inputs": [
        {
          "internalType": "uint256",
          "name": "ageYears",
          "type": "uint256"
        }
      ],
      "name": "ageModifier",
      "outputs": [
        {
          "internalType": "uint256",
          "name": "",
          "type": "uint256"
        }
      ],
      "stateMutability": "pure",
      "type": "function",
      "constant": true
    },
    {
      "inputs": [
        {
          "internalType": "uint256",
          "name": "potential",
          "type": "uint256"
        }
      ],
      "name": "potentialModifier",
      "outputs": [
        {
          "internalType": "uint256",
          "name": "",
          "type": "uint256"
        }
      ],
      "stateMutability": "pure",
      "type": "function",
      "constant": true
    },
    {
      "inputs": [
        {
          "internalType": "uint256",
          "name": "playerValue",
          "type": "uint256"
        },
        {
          "internalType": "uint256",
          "name": "ageYears",
          "type": "uint256"
        },
        {
          "internalType": "uint8",
          "name": "potential",
          "type": "uint8"
        }
      ],
      "name": "computeAvgSkills",
      "outputs": [
        {
          "internalType": "uint256",
          "name": "",
          "type": "uint256"
        }
      ],
      "stateMutability": "pure",
      "type": "function",
      "constant": true
    },
    {
      "inputs": [
        {
          "internalType": "uint256",
          "name": "playerValue",
          "type": "uint256"
        },
        {
          "internalType": "uint8",
          "name": "maxPotential",
          "type": "uint8"
        },
        {
          "internalType": "uint256",
          "name": "seed",
          "type": "uint256"
        },
        {
          "internalType": "uint8",
          "name": "forwardPos",
          "type": "uint8"
        },
        {
          "internalType": "uint8",
          "name": "tz",
          "type": "uint8"
        },
        {
          "internalType": "uint256",
          "name": "countryIdxInTZ",
          "type": "uint256"
        }
      ],
      "name": "createBuyNowPlayerIdPure",
      "outputs": [
        {
          "internalType": "uint32[5]",
          "name": "skillsVec",
          "type": "uint32[5]"
        },
        {
          "internalType": "uint256",
          "name": "ageYears",
          "type": "uint256"
        },
        {
          "internalType": "uint8[4]",
          "name": "birthTraits",
          "type": "uint8[4]"
        },
        {
          "internalType": "uint256",
          "name": "internalPlayerId",
          "type": "uint256"
        }
      ],
      "stateMutability": "pure",
      "type": "function",
      "constant": true
    },
    {
      "inputs": [
        {
          "internalType": "uint256",
          "name": "playerValue",
          "type": "uint256"
        },
        {
          "internalType": "uint8",
          "name": "maxPotential",
          "type": "uint8"
        },
        {
          "internalType": "uint256",
          "name": "seed",
          "type": "uint256"
        },
        {
          "internalType": "uint8",
          "name": "forwardPos",
          "type": "uint8"
        },
        {
          "internalType": "uint256",
          "name": "epochInDays",
          "type": "uint256"
        },
        {
          "internalType": "uint8",
          "name": "tz",
          "type": "uint8"
        },
        {
          "internalType": "uint256",
          "name": "countryIdxInTZ",
          "type": "uint256"
        }
      ],
      "name": "createBuyNowPlayerId",
      "outputs": [
        {
          "internalType": "uint256",
          "name": "playerId",
          "type": "uint256"
        },
        {
          "internalType": "uint32[5]",
          "name": "skillsVec",
          "type": "uint32[5]"
        },
        {
          "internalType": "uint16",
          "name": "dayOfBirth",
          "type": "uint16"
        },
        {
          "internalType": "uint8[4]",
          "name": "birthTraits",
          "type": "uint8[4]"
        },
        {
          "internalType": "uint256",
          "name": "internalPlayerId",
          "type": "uint256"
        }
      ],
      "stateMutability": "pure",
      "type": "function",
      "constant": true
    },
    {
      "inputs": [
        {
          "internalType": "uint256",
          "name": "playerValue",
          "type": "uint256"
        },
        {
          "internalType": "uint8",
          "name": "maxPotential",
          "type": "uint8"
        },
        {
          "internalType": "uint256",
          "name": "seed",
          "type": "uint256"
        },
        {
          "internalType": "uint8[4]",
          "name": "nPlayersPerForwardPos",
          "type": "uint8[4]"
        },
        {
          "internalType": "uint256",
          "name": "epochInDays",
          "type": "uint256"
        },
        {
          "internalType": "uint8",
          "name": "tz",
          "type": "uint8"
        },
        {
          "internalType": "uint256",
          "name": "countryIdxInTZ",
          "type": "uint256"
        }
      ],
      "name": "createBuyNowPlayerIdBatch",
      "outputs": [
        {
          "internalType": "uint256[]",
          "name": "playerIdArray",
          "type": "uint256[]"
        },
        {
          "internalType": "uint32[5][]",
          "name": "skillsVecArray",
          "type": "uint32[5][]"
        },
        {
          "internalType": "uint16[]",
          "name": "dayOfBirthArray",
          "type": "uint16[]"
        },
        {
          "internalType": "uint8[4][]",
          "name": "birthTraitsArray",
          "type": "uint8[4][]"
        },
        {
          "internalType": "uint256[]",
          "name": "internalPlayerIdArray",
          "type": "uint256[]"
        }
      ],
      "stateMutability": "pure",
      "type": "function",
      "constant": true
    },
    {
      "inputs": [
        {
          "internalType": "uint256",
          "name": "playerId",
          "type": "uint256"
        }
      ],
      "name": "getTZandCountryIdxFromPlayerId",
      "outputs": [
        {
          "internalType": "uint8",
          "name": "tz",
          "type": "uint8"
        },
        {
          "internalType": "uint256",
          "name": "countryIdxInTZ",
          "type": "uint256"
        }
      ],
      "stateMutability": "pure",
      "type": "function",
      "constant": true
    },
    {
      "inputs": [
        {
          "internalType": "uint32[2]",
          "name": "levelRanges",
          "type": "uint32[2]"
        },
        {
          "internalType": "uint32[10]",
          "name": "potentialWeights",
          "type": "uint32[10]"
        },
        {
          "internalType": "uint256",
          "name": "seed",
          "type": "uint256"
        },
        {
          "internalType": "uint8",
          "name": "forwardPos",
          "type": "uint8"
        },
        {
          "internalType": "uint8",
          "name": "tz",
          "type": "uint8"
        },
        {
          "internalType": "uint256",
          "name": "countryIdxInTZ",
          "type": "uint256"
        }
      ],
      "name": "createBuyNowPlayerIdPureV2",
      "outputs": [
        {
          "internalType": "uint32[5]",
          "name": "skillsVec",
          "type": "uint32[5]"
        },
        {
          "internalType": "uint256",
          "name": "ageYears",
          "type": "uint256"
        },
        {
          "internalType": "uint8[4]",
          "name": "birthTraits",
          "type": "uint8[4]"
        },
        {
          "internalType": "uint256",
          "name": "internalPlayerId",
          "type": "uint256"
        }
      ],
      "stateMutability": "pure",
      "type": "function",
      "constant": true
    },
    {
      "inputs": [
        {
          "internalType": "uint256",
          "name": "numerator",
          "type": "uint256"
        },
        {
          "internalType": "uint256",
          "name": "denominator",
          "type": "uint256"
        }
      ],
      "name": "divideAndCeil",
      "outputs": [
        {
          "internalType": "uint256",
          "name": "",
          "type": "uint256"
        }
      ],
      "stateMutability": "pure",
      "type": "function",
      "constant": true
    },
    {
      "inputs": [
        {
          "internalType": "uint32[5]",
          "name": "skillsVec",
          "type": "uint32[5]"
        },
        {
          "internalType": "uint256",
          "name": "targetLevel",
          "type": "uint256"
        },
        {
          "internalType": "uint256",
          "name": "seed",
          "type": "uint256"
        }
      ],
      "name": "recascaleToTarget",
      "outputs": [],
      "stateMutability": "pure",
      "type": "function",
      "constant": true
    },
    {
      "inputs": [
        {
          "internalType": "uint32[2]",
          "name": "levelRanges",
          "type": "uint32[2]"
        },
        {
          "internalType": "uint32[10]",
          "name": "potentialWeights",
          "type": "uint32[10]"
        },
        {
          "internalType": "uint256",
          "name": "seed",
          "type": "uint256"
        },
        {
          "internalType": "uint8",
          "name": "forwardPos",
          "type": "uint8"
        },
        {
          "internalType": "uint256",
          "name": "epochInDays",
          "type": "uint256"
        },
        {
          "internalType": "uint8",
          "name": "tz",
          "type": "uint8"
        },
        {
          "internalType": "uint256",
          "name": "countryIdxInTZ",
          "type": "uint256"
        }
      ],
      "name": "createBuyNowPlayerIdV2",
      "outputs": [
        {
          "internalType": "uint256",
          "name": "playerId",
          "type": "uint256"
        },
        {
          "internalType": "uint32[5]",
          "name": "skillsVec",
          "type": "uint32[5]"
        },
        {
          "internalType": "uint16",
          "name": "dayOfBirth",
          "type": "uint16"
        },
        {
          "internalType": "uint8[4]",
          "name": "birthTraits",
          "type": "uint8[4]"
        },
        {
          "internalType": "uint256",
          "name": "internalPlayerId",
          "type": "uint256"
        }
      ],
      "stateMutability": "pure",
      "type": "function",
      "constant": true
    },
    {
      "inputs": [
        {
          "internalType": "uint32[2]",
          "name": "levelRanges",
          "type": "uint32[2]"
        },
        {
          "internalType": "uint32[10]",
          "name": "potentialWeights",
          "type": "uint32[10]"
        },
        {
          "internalType": "uint256",
          "name": "seed",
          "type": "uint256"
        },
        {
          "internalType": "uint8[4]",
          "name": "nPlayersPerForwardPos",
          "type": "uint8[4]"
        },
        {
          "internalType": "uint256",
          "name": "epochInDays",
          "type": "uint256"
        },
        {
          "internalType": "uint8",
          "name": "tz",
          "type": "uint8"
        },
        {
          "internalType": "uint256",
          "name": "countryIdxInTZ",
          "type": "uint256"
        }
      ],
      "name": "createBuyNowPlayerIdBatchV2",
      "outputs": [
        {
          "internalType": "uint256[]",
          "name": "playerIdArray",
          "type": "uint256[]"
        },
        {
          "internalType": "uint32[5][]",
          "name": "skillsVecArray",
          "type": "uint32[5][]"
        },
        {
          "internalType": "uint16[]",
          "name": "dayOfBirthArray",
          "type": "uint16[]"
        },
        {
          "internalType": "uint8[4][]",
          "name": "birthTraitsArray",
          "type": "uint8[4][]"
        },
        {
          "internalType": "uint256[]",
          "name": "internalPlayerIdArray",
          "type": "uint256[]"
        }
      ],
      "stateMutability": "pure",
      "type": "function",
      "constant": true
    }
  ],
  "bytecode": "0x608060405234801561001057600080fd5b50612726806100206000396000f3fe608060405234801561001057600080fd5b50600436106102a05760003560e01c80637ffa3a2e11610167578063d2f7967d116100ce578063e804e51911610087578063e804e51914611008578063ec5229ed14611025578063f2c357641461106d578063f2dc657f1461108a578063facec573146110a7578063fc27bf4a146110cd576102a0565b8063d2f7967d14610de2578063d559bfa014610dff578063d9ef14c214610e90578063db43151d14610fa0578063dcc9ee3f14610fc6578063e37528bb14610feb576102a0565b8063b2c217ba11610120578063b2c217ba14610b74578063b6d700b414610d2c578063c2bc41cd14610d66578063c5aedd2c14610d83578063cc7d473b14610da8578063d1b3d8fd14610dc5576102a0565b80637ffa3a2e14610a125780638725d18314610a2f5780638c6a1fef14610a5b5780638de97f4f14610b11578063920bee2f14610b3a5780639385797f14610b57576102a0565b80633518dd1d1161020b5780634e905ea2116101c45780634e905ea2146106cf57806356e3df97146106f45780636f6c2ae0146107115780637222a8c71461072e578063757caabe1461078757806379e76597146109df576102a0565b80633518dd1d146105f957806336e3178214610616578063388978581461063b578063434807ad14610664578063445382111461068157806347524b601461069e576102a0565b806320748ae81161025d57806320748ae81461040a57806327efac121461043657806329d0dcfb146104c55780632bdc66a0146104eb5780632ead0553146104f35780633260840b146105ba576102a0565b806303e5a3d9146102a557806307c30b4d146102da5780631018d55f146102ff5780631060c9c21461032b578063127f05e0146103485780631fc7768f146103ed575b600080fd5b6102c8600480360360408110156102bb57600080fd5b50803590602001356110f0565b60408051918252519081900360200190f35b6102c8600480360360408110156102f057600080fd5b5080359060200135151561111d565b6102c86004803603606081101561031557600080fd5b508035906020810135906040013560ff16611147565b6102c86004803603602081101561034157600080fd5b5035611160565b6103766004803603606081101561035e57600080fd5b5080359060ff6020820135811691604001351661116b565b604051808460a080838360005b8381101561039b578181015183820152602001610383565b5050505090500183600460200280838360005b838110156103c65781810151838201526020016103ae565b505050509050018263ffffffff1663ffffffff168152602001935050505060405180910390f35b6102c86004803603602081101561040357600080fd5b503561141a565b6102c86004803603606081101561042057600080fd5b5060ff8135169060208101359060400135611423565b6102c8600480360361018081101561044d57600080fd5b810190808060a0019060058060200260405190810160405280929190826005602002808284376000920191909152505060408051608081810190925292958435959094909360a0820193509160209091019060049083908390808284376000920191909152509194505081359250506020013561153d565b6102c8600480360360408110156104db57600080fd5b508035906020013560ff166115ac565b6102c86115bb565b6102c8600480360361024081101561050a57600080fd5b810190808060a001906005806020026040519081016040528092919082600560200280828437600092019190915250506040805160808181018352939685359660ff6020880135169693840135959194509260e081019291606090910190600490839083908082843760009201919091525091945050508035151591506020810135151590604081013560ff90811691606081013590911690608081013515159060a0013563ffffffff166115c4565b6105d7600480360360208110156105d057600080fd5b50356119a1565b6040805160ff9094168452602084019290925282820152519081900360600190f35b6102c86004803603602081101561060f57600080fd5b50356119bd565b6102c86004803603604081101561062c57600080fd5b508035906020013515156119c6565b6102c86004803603604081101561065157600080fd5b508035906020013563ffffffff166119f0565b6102c86004803603602081101561067a57600080fd5b5035611a0c565b6102c86004803603602081101561069757600080fd5b5035611a15565b6106bb600480360360208110156106b457600080fd5b5035611a40565b604080519115158252519081900360200190f35b6102c8600480360360408110156106e557600080fd5b50803590602001351515611a4c565b6102c86004803603602081101561070a57600080fd5b5035611a76565b6102c86004803603602081101561072757600080fd5b5035611a7f565b610785600480360360e081101561074457600080fd5b810190808060a00190600580602002604051908101604052809291908260056020028082843760009201919091525091945050813592505060200135611aa0565b005b610845600480360361028081101561079e57600080fd5b6040805180820182529183019291818301918390600290839083908082843760009201919091525050604080516101408181019092529295949381810193925090600a9083908390808284376000920191909152505060408051608081810190925292958435959094909360a08201935091602090910190600490839083908082843760009201919091525091945050813592505060ff6020820135169060400135611beb565b60405180806020018060200180602001806020018060200186810386528b818151815260200191508051906020019060200280838360005b8381101561089557818101518382015260200161087d565b5050505090500186810385528a8181518152602001915080516000925b818410156108f45760208085028401015160a080838360005b838110156108e35781810151838201526020016108cb565b5050505090500192600101926108b2565b89810387528c5181528c5160209182019450818e01935002905080838360005b8381101561092c578181015183820152602001610914565b505050509050018681038352888181518152602001915080516000925b8184101561098b57602080850284010151608080838360005b8381101561097a578181015183820152602001610962565b505050509050019260010192610949565b89810385528a5181528a5160209182019450818c01935002905080838360005b838110156109c35781810151838201526020016109ab565b505050509050019a505050505050505050505060405180910390f35b6109fc600480360360208110156109f557600080fd5b5035611e65565b6040805160ff9092168252519081900360200190f35b6106bb60048036036020811015610a2857600080fd5b5035611e6e565b6102c860048036036060811015610a4557600080fd5b508035906020810135906040013560ff16611e7a565b610a9f600480360360c0811015610a7157600080fd5b5080359060ff6020820135811691604081013591606082013581169160808101359091169060a00135611ea9565b604051808560a080838360005b83811015610ac4578181015183820152602001610aac565b5050505090500184815260200183600460200280838360005b83811015610af5578181015183820152602001610add565b5050505090500182815260200194505050505060405180910390f35b6102c860048036036040811015610b2757600080fd5b508035906020013563ffffffff1661203e565b6102c860048036036020811015610b5057600080fd5b5035612058565b6102c860048036036020811015610b6d57600080fd5b5035612061565b610be66004803603610140811015610b8b57600080fd5b604080516080818101835284359460ff602082013516949381013593810192909160e0830191906060840190600490839083908082843760009201919091525091945050813592505060ff602082013516906040013561206c565b60405180806020018060200180602001806020018060200186810386528b818151815260200191508051906020019060200280838360005b83811015610c36578181015183820152602001610c1e565b5050505090500186810385528a8181518152602001915080516000925b81841015610c955760208085028401015160a080838360005b83811015610c84578181015183820152602001610c6c565b505050509050019260010192610c53565b89810387528c5181528c5160209182019450818e01935002905080838360005b83811015610ccd578181015183820152602001610cb5565b505050509050018681038352888181518152602001915080516000925b8184101561098b57602080850284010151608080838360005b83811015610d1b578181015183820152602001610d03565b505050509050019260010192610cea565b610d4960048036036020811015610d4257600080fd5b50356122d5565b6040805160ff909316835260208301919091528051918290030190f35b6102c860048036036020811015610d7c57600080fd5b50356122f4565b6102c860048036036040811015610d9957600080fd5b508035906020013515156122fd565b6106bb60048036036020811015610dbe57600080fd5b5035612327565b6106bb60048036036020811015610ddb57600080fd5b5035612333565b6102c860048036036020811015610df857600080fd5b503561233f565b610a9f6004803603610200811015610e1657600080fd5b6040805180820182529183019291818301918390600290839083908082843760009201919091525050604080516101408181019092529295949381810193925090600a90839083908082843760009201919091525091945050813592505060ff60208201358116916040810135909116906060013561234d565b610f256004803603610220811015610ea757600080fd5b6040805180820182529183019291818301918390600290839083908082843760009201919091525050604080516101408181019092529295949381810193925090600a90839083908082843760009201919091525091945050813592505060ff6020820135811691604081013591606082013516906080013561244e565b604051858152602081018560a080838360005b83811015610f50578181015183820152602001610f38565b5050505061ffff871692019182525060200183608080838360005b83811015610f83578181015183820152602001610f6b565b505050509050018281526020019550505050505060405180910390f35b6102c860048036036040811015610fb657600080fd5b508035906020013560ff166124b2565b6102c860048036036040811015610fdc57600080fd5b508035906020013515156124c9565b6106bb6004803603602081101561100157600080fd5b50356124f3565b6109fc6004803603602081101561101e57600080fd5b50356124ff565b610f25600480360360e081101561103b57600080fd5b5080359060ff6020820135811691604081013591606082013581169160808101359160a0820135169060c00135612508565b6106bb6004803603602081101561108357600080fd5b503561252d565b6102c8600480360360208110156110a057600080fd5b5035612539565b6102c8600480360360408110156110bd57600080fd5b508035906020013560ff16612543565b6102c8600480360360408110156110e357600080fd5b50803590602001356125b5565b6000808284816110fc57fe5b04905082810284146111115780600101611113565b805b9150505b92915050565b600081156111395750600160ad1b198216600160ad1b17611117565b50600160ad1b198216611117565b60ff1660140290811b620fffff90911b19919091161790565b60b51c6207ffff1690565b611173612668565b61117b612686565b6000611185612668565b61118d612668565b6040805160208082018b905260ff8a1682840181905283518084038501815260609093019093528151910120600281811c92600092839260039091169110156111e757600e855260066040860152600092508291506112af565b60078b60ff161015611211576004855260106060860152600192506007845b0660010191506112af565b600a8b60ff161015611230576010604086015260029250600784611206565b600c8b60ff16101561125257600d604086015260078086526004935084611206565b600e8b60ff16101561127857600d60408601526007606086018190526005935084611206565b60108b60ff16101561129c57601085526005606086015260039250600691506112af565b6010855260056060860152600392508291505b60039390931c926000805b600560ff8216101561137b57868160ff16600581106112d557fe5b602002015161130b57610320860661ffff16888260ff16600581106112f657fe5b63ffffffff9092166020929092020152611353565b600a878260ff166005811061131c57fe5b60200201516103208806028161132e57fe5b0461ffff16888260ff166005811061134257fe5b63ffffffff90921660209290920201525b878160ff166005811061136257fe5b6020020151600a9690961c9591909101906001016112ba565b50600561138882900363ffffffff160460005b600560ff821610156113d75781898260ff16600581106113aa57fe5b602002015101898260ff16600581106113bf57fe5b63ffffffff909216602092909202015260010161138e565b506040805160808101825260ff9d8e168152958d166020870152938c169385019390935299166060830152939a9099506005909302909601965090945050505050565b607e1c60071690565b600060208460ff1610611475576040805162461bcd60e51b81526020600482015260156024820152741d1a5b595e9bdb99481bdd5d081bd988189bdd5b99605a1b604482015290519081900360640190fd5b61040083106114cb576040805162461bcd60e51b815260206004820152601b60248201527f636f756e747279496478496e545a206f7574206f6620626f756e640000000000604482015290519081900360640190fd5b63100000008210611523576040805162461bcd60e51b815260206004820152601a60248201527f76616c20746f20656e636f6465206f7574206f6620626f756e64000000000000604482015290519081900360640190fd5b5060269290921b653fc00000000016601c9190911b171790565b600062015180600e860483030481805b600560ff8216101561157a57888160ff166005811061156857fe5b6020020151919091019060010161154d565b50600061159489846000898b60008060008060008c6115c4565b905061159f81612058565b9998505050505050505050565b60ff166014021c620fffff1690565b640fffffffff81565b8651600090600a60ff9091161061161b576040805162461bcd60e51b81526020600482015260166024820152751c1bdd195b9d1a585b081bdd5d081bd988189bdd5b9960521b604482015290519081900360640190fd5b6006886001602002015160ff161061167a576040805162461bcd60e51b815260206004820152601860248201527f666f72776172646e657373206f7574206f6620626f756e640000000000000000604482015290519081900360640190fd5b6008886002602002015160ff16106116d9576040805162461bcd60e51b815260206004820152601860248201527f6c6566697473686e657373206f7574206f6620626f756e640000000000000000604482015290519081900360640190fd5b6008886003602002015160ff1610611738576040805162461bcd60e51b815260206004820152601b60248201527f616767726573736976656e657373206f7574206f6620626f756e640000000000604482015290519081900360640190fd5b604088015160ff1661178857602088015160ff16156117885760405162461bcd60e51b815260040180806020018281038252602b8152602001806126a5602b913960400191505060405180910390fd5b60088560ff16106117e0576040805162461bcd60e51b815260206004820152601d60248201527f67616d65734e6f6e53746f7070696e67206f7574206f6620626f756e64000000604482015290519081900360640190fd5b620100008b106118215760405162461bcd60e51b81526004018080602001828103825260218152602001806126d06021913960400191505060405180910390fd5b60008911801561183657506508000000000089105b61187f576040805162461bcd60e51b81526020600482015260156024820152741c1b185e595c9259081bdd5d081bd988189bdd5b99605a1b604482015290519081900360640190fd5b60005b600561ffff821610156118c1578060140261ffff168d8261ffff16600581106118a757fe5b602002015163ffffffff16901b9190911790600101611882565b5060648b901b176074886000602002015160ff16901b176078886001602002015160ff16901b17607b886002602002015160ff16901b17607e886003602002015160ff16901b81179050608189901b8117905060ac87611922576000611925565b60015b60ff16901b1760ad8661193957600061193c565b60015b60ff16901b8117905060ae8560ff16901b8117905060b18460ff16901b8117905060b48361196b57600061196e565b60015b60ff16901b8117905060b58263ffffffff16901b8117905060cd8a60ff16901b811790509b9a5050505050505050505050565b602681901c601f1691601c82901c6103ff1691630fffffff1690565b607b1c60071690565b600081156119e25750600160d51b198216600160d51b17611117565b50600160d51b198216611117565b60b51b63ffffffff60b51b166207ffff60b51b19919091161790565b60741c600f1690565b6000601f8210611a3057601f82036103200261271003611117565b50600f19016101d2026142680390565b60cc1c60019081161490565b60008115611a685750600160b41b198216600160b41b17611117565b50600160b41b198216611117565b60cd1c60ff1690565b6000611a8a82611a40565b611a9c57611a978261233f565b611117565b5090565b6000805b600560ff82161015611ad757848160ff1660058110611abf57fe5b602002015163ffffffff169190910190600101611aa4565b506000805b600560ff82161015611b61578285878360ff1660058110611af957fe5b602002015163ffffffff16026103e80281611b1057fe5b04868260ff1660058110611b2057fe5b63ffffffff9092166020929092020152611b558660ff831660058110611b4257fe5b602002015163ffffffff166103e86110f0565b90910190600101611adc565b506005830660005b8583118015611b7b575060068160ff16105b15611be257610514878360ff1660058110611b9257fe5b602002015163ffffffff161115611bd0576103e8878360ff1660058110611bb557fe5b6020020180519190910363ffffffff16905260001992909201915b600560ff600193840116069101611b69565b50505050505050565b6060808080806000805b60048160ff161015611c25578a8160ff1660048110611c1057fe5b602002015160ff169190910190600101611bf5565b508061ffff16604051908082528060200260200182016040528015611c54578160200160208202803683370190505b5095508061ffff16604051908082528060200260200182016040528015611c9557816020015b611c82612668565b815260200190600190039081611c7a5790505b5094508061ffff16604051908082528060200260200182016040528015611cc6578160200160208202803683370190505b5093508061ffff16604051908082528060200260200182016040528015611d0757816020015b611cf4612686565b815260200190600190039081611cec5790505b5092508061ffff16604051908082528060200260200182016040528015611d38578160200160208202803683370190505b50915060009050805b60048160ff161015611e545760005b8b8260ff1660048110611d5f57fe5b602002015160ff168161ffff161015611e4b576040805160208082019f909f5261ffff831681830152815180820383018152606090910190915280519d019c909c209b611db18f8f8f858f8f8f61244e565b8c518d9061ffff8a16908110611dc357fe5b602002602001018c8961ffff1681518110611dda57fe5b602002602001018c8a61ffff1681518110611df157fe5b602002602001018c8b61ffff1681518110611e0857fe5b602002602001018c8c61ffff1681518110611e1f57fe5b60209081029190910101949094529390925261ffff909316909152919091525260019283019201611d50565b50600101611d41565b505097509750975097509792505050565b60b11c60071690565b60d61c60019081161490565b6000611e888260ff16612061565b611e9184611a15565b02846305f5e1000281611ea057fe5b04949350505050565b611eb1612668565b6000611ebb612686565b6000600a8960ff1610611f0e576040805162461bcd60e51b8152602060048201526016602482015275706f74656e7469616c206f7574206f6620626f75647360501b604482015290519081900360640190fd5b60008960010160ff168981611f1f57fe5b069050600a8904985060148906601001935060148981611f3b57fe5b049850600060ff8916611f52575060018916611f98565b60ff891660011415611f6b5750600260058a0601611f98565b60ff891660021415611f8357506007808a0601611f98565b60ff891660031415611f985750600e60038a16015b60088a049950611fa98a828461116b565b50909650935060005b600560ff8216101561201a576103e8611fcc8e8886611e7a565b888360ff1660058110611fdb57fe5b602002015163ffffffff160281611fee57fe5b0461ffff16878260ff166005811061200257fe5b63ffffffff9092166020929092020152600101611fb2565b5061202d8888630fffffff8d5b06611423565b925050509650965096509692505050565b60cd1b63ffffffff60cd1b1660ff60cd1b19919091161790565b600160cc1b1790565b6104b0026113880190565b6060808080806000805b60048160ff1610156120a6578a8160ff166004811061209157fe5b602002015160ff169190910190600101612076565b508061ffff166040519080825280602002602001820160405280156120d5578160200160208202803683370190505b5095508061ffff1660405190808252806020026020018201604052801561211657816020015b612103612668565b8152602001906001900390816120fb5790505b5094508061ffff16604051908082528060200260200182016040528015612147578160200160208202803683370190505b5093508061ffff1660405190808252806020026020018201604052801561218857816020015b612175612686565b81526020019060019003908161216d5790505b5092508061ffff166040519080825280602002602001820160405280156121b9578160200160208202803683370190505b50915060009050805b60048160ff161015611e545760005b8b8260ff16600481106121e057fe5b602002015160ff168161ffff1610156122cc576040805160208082019f909f5261ffff831681830152815180820383018152606090910190915280519d019c909c209b6122328f8f8f858f8f8f612508565b8c518d9061ffff8a1690811061224457fe5b602002602001018c8961ffff168151811061225b57fe5b602002602001018c8a61ffff168151811061227257fe5b602002602001018c8b61ffff168151811061228957fe5b602002602001018c8c61ffff16815181106122a057fe5b60209081029190910101949094529390925261ffff9093169091529190915252600192830192016121d1565b506001016121c2565b6000806122e96122e48461233f565b6119a1565b509094909350915050565b60781c60071690565b600081156123195750600160d61b198216600160d61b17611117565b50600160d61b198216611117565b60ad1c60019081161490565b60d51c60019081161490565b60811c6507ffffffffff1690565b612355612668565b600061235f612686565b6000806123738a640fffffffff8b066125c6565b9050600a890498506014890660100193506014898161238e57fe5b049850600060ff89166123a55750600189166123eb565b60ff8916600114156123be5750600260058a06016123eb565b60ff8916600214156123d657506007808a06016123eb565b60ff8916600314156123eb5750600e60038a16015b60088a0499506123fc8a828461116b565b508d5160208f0151929850909550620f424063ffffffff928290038316818e06020491160161242c87828d611aa0565b61243c8989630fffffff8e612027565b93505050509650965096509692505050565b6000612458612668565b6000612462612686565b6000806124738d8d8d8d8c8c61234d565b92975094509092509050612495856301e1338083028585620151808e0261153d565b95506124a086612539565b93505097509750975097509792505050565b60b11b60ff60b11b16600760b11b19919091161790565b600081156124e55750600160ac1b198216600160ac1b17611117565b50600160ac1b198216611117565b60b41c60019081161490565b60ae1c60071690565b6000612512612668565b600061251c612686565b6000806124738d8d8d8d8c8c611ea9565b60ac1c60019081161490565b60641c61ffff1690565b600060088260ff161061259d576040805162461bcd60e51b815260206004820152601d60248201527f67616d65734e6f6e53746f7070696e67206f7574206f6620626f756e64000000604482015290519081900360640190fd5b5060ae1b60ff60ae1b16600760ae1b19919091161790565b60741b600f60741b19919091161790565b6000805b600a8260ff1610156125fc57838260ff16600a81106125e557fe5b602002015160019092019163ffffffff16016125ca565b8061260c575050600a8106611117565b600091508202641000000000825b600960ff8516101561265f57858460ff16600a811061263557fe5b602002015163ffffffff16018181028310156126545750611117915050565b60019093019261261a565b50505092915050565b6040518060a001604052806005906020820280368337509192915050565b6040518060800160405280600490602082028036833750919291505056fe6c6566746973686e65732063616e206f6e6c79206265207a65726f20666f7220676f616c6b6565706572736461794f664269727468496e556e697854696d65206f7574206f6620626f756e64a264697066735822122069badaec4e469b7c29d8267d09b8a403eefa877bd9b3d013fee4b2750e792fc364736f6c63430006030033",
  "source": "pragma solidity >= 0.6.3;\n\n/**\n @title Library of pure functions used by company to compute useful data\n @author Freeverse.io, www.freeverse.io\n @dev The name Privileged is due to expectation that this is only valid for later,\n @dev as the company, use the returned data to, e.g. offer BuyNow or Special players.\n*/\n\nimport \"../storage/ComputeSkills.sol\";\nimport \"../encoders/EncodingSkills.sol\";\nimport \"../encoders/EncodingSkillsGetters.sol\";\nimport \"../encoders/EncodingSkillsSetters.sol\";\nimport \"../encoders/EncodingIDs.sol\";\n\ncontract Privileged is ComputeSkills, EncodingSkills, EncodingSkillsGetters, EncodingSkillsSetters, EncodingIDs {\n    \n    uint256 public constant MAX_RND = 68719476735; /// Max random number used in throwDice\n\n    /// order of idxs:\n    /// skills: shoot, speed, pass, defence, endurance\n    /// birthTraits: potential, forwardness, leftishness, aggressiveness\n    /// prefPosition: GoalKeeper, Defender, Midfielder, Forward, MidDefender, MidAttacker\n    /// leftishness:   0: 000, 1: 001, 2: 010, 3: 011, 4: 100, 5: 101, 6: 110, 7: 111\n\n    function createSpecialPlayer(\n        uint32[N_SKILLS] memory skillsVec,\n        uint256 ageInSecs,\n        uint8[4] memory birthTraits,\n        uint256 playerId,\n        uint256 nowInSecs\n    ) \n        public \n        pure \n        returns (uint256) \n    {\n        uint256 dayOfBirth = (nowInSecs - ageInSecs/INGAMETIME_VS_REALTIME)/86400; /// 86400 = secsInDay\n        uint32 sumSkills;\n        for (uint8 s = 0; s < N_SKILLS; s++) sumSkills += skillsVec[s];\n        uint256 skills = encodePlayerSkills(\n            skillsVec, \n            dayOfBirth, \n            0,\n            playerId, \n            birthTraits, \n            false, \n            false, \n            0, \n            0, \n            false, \n            sumSkills\n        );\n        return addIsSpecial(skills);\n    }\n    \n    /// returns a value relative to 10000\n    /// Relative to 1, it would be = age < 31) ? 1.7 - 0.7/15 * (age - 16) : 1 - 0.08 * (age - 31)\n    function ageModifier(uint256 ageYears) public pure returns(uint256) {\n        return (ageYears < 31) ? 17000 - 466 * (ageYears - 16) : 10000 - 800 * (ageYears - 31);\n    }\n\n    /// returns a value relative to 10000\n    /// relative to 1 it would be = 0.5 + 1.5 * potential * ( so that it ranges in [0.5, 2]\n    /// relative to 1e4: 5000+10000*p*1.2/10 = 5000+1200*p\n    function potentialModifier(uint256 potential) public pure returns(uint256) {\n        return (5000 + 1200 * potential);\n    }\n    \n    function computeAvgSkills(uint256 playerValue, uint256 ageYears, uint8 potential) public pure returns (uint256) {\n        return (playerValue * 100000000)/(ageModifier(ageYears) * potentialModifier(potential));\n    }\n    \n    function createBuyNowPlayerIdPure(\n        uint256 playerValue, \n        uint8 maxPotential,\n        uint256 seed, \n        uint8 forwardPos,\n        uint8 tz,\n        uint256 countryIdxInTZ\n    ) \n        public \n        pure \n        returns(uint32[N_SKILLS] memory skillsVec, uint256 ageYears, uint8[4] memory birthTraits, uint256 internalPlayerId) \n    {\n        require(maxPotential < 10, \"potential out of bouds\");\n        uint8 potential = uint8(seed % (maxPotential+1));\n        seed /= 10;\n        ageYears = 16 + (seed % 20);\n        seed /= 20;\n        uint8 shirtNum;\n        if (forwardPos == IDX_GK) {\n            shirtNum = uint8(seed % 2);\n        } else if (forwardPos == IDX_D) {\n            shirtNum = 2 + uint8(seed % 5);\n        } else if (forwardPos == IDX_M) {\n            shirtNum = 7 + uint8(seed % 7);\n        } else if (forwardPos == IDX_F) {\n            shirtNum = 14 + uint8(seed % 4);\n        }\n        seed /= 8;\n        (skillsVec, birthTraits, ) = computeSkills(seed, shirtNum, potential);\n        for (uint8 sk = 0; sk < N_SKILLS; sk++) {\n            skillsVec[sk] = uint16(\n                (uint256(skillsVec[sk]) * computeAvgSkills(playerValue, ageYears, potential))/uint256(1000)\n            );\n        }\n        internalPlayerId = encodeTZCountryAndVal(tz, countryIdxInTZ, seed % 268435455); /// maxPlayerIdxInCountry (28b) = 2**28 - 1 = 268435455\n    }\n\n    /// birthTraits = [potential, forwardness, leftishness, aggressiveness]\n    function createBuyNowPlayerId(\n        uint256 playerValue, \n        uint8 maxPotential,\n        uint256 seed, \n        uint8 forwardPos,\n        uint256 epochInDays,\n        uint8 tz,\n        uint256 countryIdxInTZ\n    ) \n        public \n        pure \n        returns\n    (\n        uint256 playerId,\n        uint32[N_SKILLS] memory skillsVec, \n        uint16 dayOfBirth, \n        uint8[4] memory birthTraits, \n        uint256 internalPlayerId\n    )\n    {\n        uint256 ageYears;\n        (skillsVec, ageYears, birthTraits, internalPlayerId) = createBuyNowPlayerIdPure(playerValue, maxPotential, seed, forwardPos, tz, countryIdxInTZ);\n        /// 1 year = 31536000 sec\n        playerId = createSpecialPlayer(skillsVec, ageYears * 31536000, birthTraits, internalPlayerId, epochInDays*24*3600);\n        dayOfBirth = uint16(getBirthDay(playerId));\n    }\n    \n    function createBuyNowPlayerIdBatch(\n        uint256 playerValue, \n        uint8 maxPotential,\n        uint256 seed, \n        uint8[4] memory nPlayersPerForwardPos,\n        uint256 epochInDays,\n        uint8 tz,\n        uint256 countryIdxInTZ\n    ) \n        public \n        pure \n        returns\n    (\n        uint256[] memory playerIdArray,\n        uint32[N_SKILLS][] memory skillsVecArray, \n        uint16[] memory dayOfBirthArray, \n        uint8[4][] memory birthTraitsArray, \n        uint256[] memory internalPlayerIdArray\n    )\n    {\n        uint16 counter;\n        for (uint8 pos = 0; pos < 4; pos++) { counter += nPlayersPerForwardPos[pos]; }\n\n        playerIdArray = new uint256[](counter);\n        skillsVecArray = new uint32[N_SKILLS][](counter);\n        dayOfBirthArray = new uint16[](counter);\n        birthTraitsArray = new uint8[4][](counter);\n        internalPlayerIdArray = new uint256[](counter);\n\n        counter = 0;\n        for (uint8 pos = 0; pos < 4; pos++) { \n            for (uint16 n = 0; n < nPlayersPerForwardPos[pos]; n++) {\n                seed = uint256(keccak256(abi.encode(seed, n)));\n                (playerIdArray[counter], skillsVecArray[counter], dayOfBirthArray[counter], birthTraitsArray[counter], internalPlayerIdArray[counter]) =\n                    createBuyNowPlayerId(playerValue, maxPotential, seed, pos, epochInDays, tz, countryIdxInTZ);\n                counter++;\n            }\n        }\n    }\n    \n    function getTZandCountryIdxFromPlayerId(uint256 playerId) public pure returns (uint8 tz, uint256 countryIdxInTZ) {\n        (tz, countryIdxInTZ, ) = decodeTZCountryAndVal(getInternalPlayerId(playerId));\n    } \n\n    function createBuyNowPlayerIdPureV2(\n        uint32[2] memory levelRanges, \n        uint32[10] memory potentialWeights,\n        uint256 seed, \n        uint8 forwardPos,\n        uint8 tz,\n        uint256 countryIdxInTZ\n    ) \n        public \n        pure \n        returns(uint32[N_SKILLS] memory skillsVec, uint256 ageYears, uint8[4] memory birthTraits, uint256 internalPlayerId) \n    {\n        uint8 potential = throwDiceArray(potentialWeights, seed % MAX_RND);  \n        seed /= 10;\n        ageYears = 16 + (seed % 20);\n        seed /= 20;\n        uint8 shirtNum;\n        if (forwardPos == IDX_GK) {\n            shirtNum = uint8(seed % 2);\n        } else if (forwardPos == IDX_D) {\n            shirtNum = 2 + uint8(seed % 5);\n        } else if (forwardPos == IDX_M) {\n            shirtNum = 7 + uint8(seed % 7);\n        } else if (forwardPos == IDX_F) {\n            shirtNum = 14 + uint8(seed % 4);\n        }\n        seed /= 8;\n        (skillsVec, birthTraits, ) = computeSkills(seed, shirtNum, potential);\n        uint256 targetLevel = uint256(levelRanges[0]) + ((seed % 1000000) * uint256(levelRanges[1]- levelRanges[0])) / 1000000;\n        recascaleToTarget(skillsVec, targetLevel, seed);\n        internalPlayerId = encodeTZCountryAndVal(tz, countryIdxInTZ, seed % 268435455); /// maxPlayerIdxInCountry (28b) = 2**28 - 1 = 268435455\n    }\n\n    function divideAndCeil(uint256 numerator, uint256 denominator) public pure returns (uint256) {\n        uint256 quotient = numerator / denominator;\n        return (numerator == quotient * denominator) ? quotient : (quotient + 1);\n    }\n\n    function recascaleToTarget(uint32[N_SKILLS] memory skillsVec, uint256 targetLevel, uint256 seed) public pure {\n        uint256 level;\n        for (uint8 sk = 0; sk < N_SKILLS; sk++) { level += skillsVec[sk]; }\n\n        uint256 tempLevel;\n        for (uint8 sk = 0; sk < N_SKILLS; sk++) {\n            skillsVec[sk] = uint32((uint256(skillsVec[sk]) * targetLevel * 1000) / level);\n            tempLevel += divideAndCeil(uint256(skillsVec[sk]), 1000);\n        }\n\n        // It could be that we reached a level up to +5 from target due to use of ceiling.\n        // If so, decrease by 1000 some skills, starting with a random skill, until you reach correct level.\n        // Do not repeat attempts more than 5 times.\n        uint8 skToFineTune = uint8(seed % N_SKILLS);\n        uint8 attempts = 0;\n\n        while((tempLevel > targetLevel) && (attempts < 6)) {\n            if (skillsVec[skToFineTune] > 1300) {\n                skillsVec[skToFineTune] -= 1000;\n                tempLevel -= 1;\n            }\n            skToFineTune = (skToFineTune + 1) % N_SKILLS;\n            attempts++;\n        }\n        return;\n    }\n\n    /// birthTraits = [potential, forwardness, leftishness, aggressiveness]\n    function createBuyNowPlayerIdV2(\n        uint32[2] memory levelRanges, \n        uint32[10] memory potentialWeights,\n        uint256 seed, \n        uint8 forwardPos,\n        uint256 epochInDays,\n        uint8 tz,\n        uint256 countryIdxInTZ\n    ) \n        public \n        pure \n        returns\n    (\n        uint256 playerId,\n        uint32[N_SKILLS] memory skillsVec, \n        uint16 dayOfBirth, \n        uint8[4] memory birthTraits, \n        uint256 internalPlayerId\n    )\n    {\n        uint256 ageYears;\n        (skillsVec, ageYears, birthTraits, internalPlayerId) = createBuyNowPlayerIdPureV2(levelRanges, potentialWeights, seed, forwardPos, tz, countryIdxInTZ);\n        /// 1 year = 31536000 sec\n        playerId = createSpecialPlayer(skillsVec, ageYears * 31536000, birthTraits, internalPlayerId, epochInDays*24*3600);\n        dayOfBirth = uint16(getBirthDay(playerId));\n    }\n\n    function createBuyNowPlayerIdBatchV2(\n        uint32[2] memory levelRanges, \n        uint32[10] memory potentialWeights, \n        uint256 seed, \n        uint8[4] memory nPlayersPerForwardPos,\n        uint256 epochInDays,\n        uint8 tz,\n        uint256 countryIdxInTZ\n    ) \n        public \n        pure \n        returns\n    (\n        uint256[] memory playerIdArray,\n        uint32[N_SKILLS][] memory skillsVecArray, \n        uint16[] memory dayOfBirthArray, \n        uint8[4][] memory birthTraitsArray, \n        uint256[] memory internalPlayerIdArray\n    )\n    {\n        uint16 counter;\n        for (uint8 pos = 0; pos < 4; pos++) { counter += nPlayersPerForwardPos[pos]; }\n\n        playerIdArray = new uint256[](counter);\n        skillsVecArray = new uint32[N_SKILLS][](counter);\n        dayOfBirthArray = new uint16[](counter);\n        birthTraitsArray = new uint8[4][](counter);\n        internalPlayerIdArray = new uint256[](counter);\n\n        counter = 0;\n        for (uint8 pos = 0; pos < 4; pos++) { \n            for (uint16 n = 0; n < nPlayersPerForwardPos[pos]; n++) {\n                seed = uint256(keccak256(abi.encode(seed, n)));\n                (playerIdArray[counter], skillsVecArray[counter], dayOfBirthArray[counter], birthTraitsArray[counter], internalPlayerIdArray[counter]) =\n                    createBuyNowPlayerIdV2(levelRanges, potentialWeights, seed, pos, epochInDays, tz, countryIdxInTZ);\n                counter++;\n            }\n        }\n    }\n    \n    //// @dev Throws any number of dice and returns the winner's idx.\n    //// @dev Following the explanation above, consider this limits:\n    function throwDiceArray(uint32[10] memory weights, uint256 rndNum) private pure returns(uint8 w) {\n        uint256 uniformRndInSumOfWeights;\n        for (w = 0; w < weights.length; w++) {\n            uniformRndInSumOfWeights += uint256(weights[w]);\n        }\n        /// if all weights are null, return uniform chance\n        if (uniformRndInSumOfWeights == 0) return uint8(rndNum % weights.length);\n\n        uniformRndInSumOfWeights *= rndNum;\n        uint256 maxRndPlusOne = MAX_RND + 1;\n        uint256 cumSum = 0;\n        for (w = 0; w < weights.length-1; w++) {\n            cumSum += uint256(weights[w]);\n            if( uniformRndInSumOfWeights < ( cumSum * maxRndPlusOne)) {\n                return w;\n            }\n        }\n        return w;\n    }\n}\n",
  "sourcePath": "/Users/jurgenkudla/proyects/laos/laos-goal-revolution/goalrev-ganache/contracts/interfaces/Privileged.sol",
  "compiler": {
    "name": "solc",
    "version": "0.6.3+commit.8dda9521.Emscripten.clang"
  },
  "schemaVersion": "3.0.23",
  "updatedAt": "2024-10-18T06:45:39.961Z",
  "networkType": "ethereum",
  "devdoc": {
    "methods": {
      "encodeTZCountryAndVal(uint8,uint256,uint256)": {
        "details": "PlayerId and TeamId both serialize a total of 43 bits:     timeZone        = 5 bits     countryIdxInTZ  = 10 bits     val             = 28 bits (either  (playerIdxInCountry or teamIdxInCountry)*"
      }
    }
  },
  "userdoc": {
    "methods": {
      "ageModifier(uint256)": {
        "notice": "returns a value relative to 10000 Relative to 1, it would be = age < 31) ? 1.7 - 0.7/15 * (age - 16) : 1 - 0.08 * (age - 31)"
      },
      "computeSkills(uint256,uint8,uint8)": {
        "notice": "/ Compute the pseudorandom skills, sum of the skills is 5K (1K each skill on average) / skills have currently, 16bits each, and there are 5 of them / potential is a number between 0 and 9 => takes 4 bit / 0: 000, 1: 001, 2: 010, 3: 011, 4: 100, 5: 101, 6: 110, 7: 111"
      },
      "createBuyNowPlayerId(uint256,uint8,uint256,uint8,uint256,uint8,uint256)": {
        "notice": "birthTraits = [potential, forwardness, leftishness, aggressiveness]"
      },
      "createBuyNowPlayerIdV2(uint32[2],uint32[10],uint256,uint8,uint256,uint8,uint256)": {
        "notice": "birthTraits = [potential, forwardness, leftishness, aggressiveness]"
      },
      "createSpecialPlayer(uint32[5],uint256,uint8[4],uint256,uint256)": {
        "notice": "Max random number used in throwDice order of idxs: skills: shoot, speed, pass, defence, endurance birthTraits: potential, forwardness, leftishness, aggressiveness prefPosition: GoalKeeper, Defender, Midfielder, Forward, MidDefender, MidAttacker leftishness:   0: 000, 1: 001, 2: 010, 3: 011, 4: 100, 5: 101, 6: 110, 7: 111"
      },
      "potentialModifier(uint256)": {
        "notice": "returns a value relative to 10000 relative to 1 it would be = 0.5 + 1.5 * potential * ( so that it ranges in [0.5, 2] relative to 1e4: 5000+10000*p*1.2/10 = 5000+1200*p"
      }
    }
  }
}