{
  "contractName": "Proxy",
  "abi": [
    {
      "inputs": [
        {
          "internalType": "address",
          "name": "companyOwner",
          "type": "address"
        },
        {
          "internalType": "address",
          "name": "superUser",
          "type": "address"
        },
        {
          "internalType": "bytes4[]",
          "name": "proxySelectors",
          "type": "bytes4[]"
        }
      ],
      "stateMutability": "nonpayable",
      "type": "constructor"
    },
    {
      "anonymous": false,
      "inputs": [
        {
          "indexed": false,
          "internalType": "uint256",
          "name": "contractId",
          "type": "uint256"
        },
        {
          "indexed": false,
          "internalType": "bytes32",
          "name": "name",
          "type": "bytes32"
        },
        {
          "indexed": false,
          "internalType": "bytes4[]",
          "name": "selectors",
          "type": "bytes4[]"
        }
      ],
      "name": "ContractAdded",
      "type": "event"
    },
    {
      "anonymous": false,
      "inputs": [
        {
          "indexed": false,
          "internalType": "uint256[]",
          "name": "contractIds",
          "type": "uint256[]"
        },
        {
          "indexed": false,
          "internalType": "uint256",
          "name": "time",
          "type": "uint256"
        }
      ],
      "name": "ContractsActivated",
      "type": "event"
    },
    {
      "anonymous": false,
      "inputs": [
        {
          "indexed": false,
          "internalType": "uint256[]",
          "name": "contractIds",
          "type": "uint256[]"
        },
        {
          "indexed": false,
          "internalType": "uint256",
          "name": "time",
          "type": "uint256"
        }
      ],
      "name": "ContractsDeactivated",
      "type": "event"
    },
    {
      "anonymous": false,
      "inputs": [
        {
          "indexed": false,
          "internalType": "address",
          "name": "addr",
          "type": "address"
        }
      ],
      "name": "NewDirectory",
      "type": "event"
    },
    {
      "stateMutability": "payable",
      "type": "fallback",
      "payable": true
    },
    {
      "inputs": [
        {
          "internalType": "address",
          "name": "addr",
          "type": "address"
        }
      ],
      "name": "proposeCompany",
      "outputs": [],
      "stateMutability": "nonpayable",
      "type": "function"
    },
    {
      "inputs": [],
      "name": "acceptCompany",
      "outputs": [],
      "stateMutability": "nonpayable",
      "type": "function"
    },
    {
      "inputs": [
        {
          "internalType": "address",
          "name": "addr",
          "type": "address"
        }
      ],
      "name": "setSuperUser",
      "outputs": [],
      "stateMutability": "nonpayable",
      "type": "function"
    },
    {
      "inputs": [
        {
          "internalType": "uint256[]",
          "name": "contractIds",
          "type": "uint256[]"
        },
        {
          "internalType": "address[]",
          "name": "addrs",
          "type": "address[]"
        },
        {
          "internalType": "uint16[]",
          "name": "nSelectorsPerContract",
          "type": "uint16[]"
        },
        {
          "internalType": "bytes4[]",
          "name": "selectors",
          "type": "bytes4[]"
        },
        {
          "internalType": "bytes32[]",
          "name": "names",
          "type": "bytes32[]"
        }
      ],
      "name": "addContracts",
      "outputs": [],
      "stateMutability": "nonpayable",
      "type": "function"
    },
    {
      "inputs": [
        {
          "internalType": "uint256[]",
          "name": "deactContractIds",
          "type": "uint256[]"
        },
        {
          "internalType": "uint256[]",
          "name": "actContractIds",
          "type": "uint256[]"
        },
        {
          "internalType": "address",
          "name": "newDirectory",
          "type": "address"
        }
      ],
      "name": "upgrade",
      "outputs": [],
      "stateMutability": "nonpayable",
      "type": "function"
    },
    {
      "inputs": [
        {
          "internalType": "uint256[]",
          "name": "contractIds",
          "type": "uint256[]"
        }
      ],
      "name": "activateContracts",
      "outputs": [],
      "stateMutability": "nonpayable",
      "type": "function"
    },
    {
      "inputs": [
        {
          "internalType": "uint256[]",
          "name": "contractIds",
          "type": "uint256[]"
        }
      ],
      "name": "deactivateContracts",
      "outputs": [],
      "stateMutability": "nonpayable",
      "type": "function"
    },
    {
      "inputs": [
        {
          "internalType": "address",
          "name": "addr",
          "type": "address"
        }
      ],
      "name": "setDirectory",
      "outputs": [],
      "stateMutability": "nonpayable",
      "type": "function"
    },
    {
      "inputs": [
        {
          "internalType": "address",
          "name": "contractAddress",
          "type": "address"
        }
      ],
      "name": "assertPointsToContract",
      "outputs": [],
      "stateMutability": "view",
      "type": "function",
      "constant": true
    },
    {
      "inputs": [],
      "name": "countContracts",
      "outputs": [
        {
          "internalType": "uint256",
          "name": "",
          "type": "uint256"
        }
      ],
      "stateMutability": "view",
      "type": "function",
      "constant": true
    },
    {
      "inputs": [
        {
          "internalType": "uint256",
          "name": "contractId",
          "type": "uint256"
        }
      ],
      "name": "countSelectorsInContract",
      "outputs": [
        {
          "internalType": "uint256",
          "name": "",
          "type": "uint256"
        }
      ],
      "stateMutability": "view",
      "type": "function",
      "constant": true
    },
    {
      "inputs": [
        {
          "internalType": "bytes4",
          "name": "selector",
          "type": "bytes4"
        }
      ],
      "name": "getContractAddressForSelector",
      "outputs": [
        {
          "internalType": "address",
          "name": "",
          "type": "address"
        }
      ],
      "stateMutability": "view",
      "type": "function",
      "constant": true
    },
    {
      "inputs": [
        {
          "internalType": "uint256",
          "name": "contractId",
          "type": "uint256"
        }
      ],
      "name": "getContractInfo",
      "outputs": [
        {
          "internalType": "address",
          "name": "",
          "type": "address"
        },
        {
          "internalType": "bytes32",
          "name": "",
          "type": "bytes32"
        },
        {
          "internalType": "bytes4[]",
          "name": "",
          "type": "bytes4[]"
        },
        {
          "internalType": "bool",
          "name": "",
          "type": "bool"
        }
      ],
      "stateMutability": "view",
      "type": "function",
      "constant": true
    },
    {
      "inputs": [],
      "name": "company",
      "outputs": [
        {
          "internalType": "address",
          "name": "",
          "type": "address"
        }
      ],
      "stateMutability": "view",
      "type": "function",
      "constant": true
    },
    {
      "inputs": [],
      "name": "proposedCompany",
      "outputs": [
        {
          "internalType": "address",
          "name": "",
          "type": "address"
        }
      ],
      "stateMutability": "view",
      "type": "function",
      "constant": true
    },
    {
      "inputs": [],
      "name": "superUser",
      "outputs": [
        {
          "internalType": "address",
          "name": "",
          "type": "address"
        }
      ],
      "stateMutability": "view",
      "type": "function",
      "constant": true
    },
    {
      "inputs": [],
      "name": "directory",
      "outputs": [
        {
          "internalType": "address",
          "name": "",
          "type": "address"
        }
      ],
      "stateMutability": "view",
      "type": "function",
      "constant": true
    }
  ],
  "bytecode": "0x60806040523480156200001157600080fd5b506040516200204c3803806200204c833981810160405260608110156200003757600080fd5b815160208301516040808501805191519395929483019291846401000000008211156200006357600080fd5b9083019060208201858111156200007957600080fd5b82518660208202830111640100000000821117156200009757600080fd5b82525081516020918201928201910280838360005b83811015620000c6578181015183820152602001620000ac565b505060038054336001600160a01b03199182161790915592909401608081016040908152600180835260208084018c81526450726f787960d81b9385019390935260006060850181905280549283018155805283517f290decd9548b62a8d60345a988386fc84ba6bc95484008f6362f93160ef3e563600490930292830180549097166001600160a01b0390911617865591518051939a509498506200019997507f290decd9548b62a8d60345a988386fc84ba6bc95484008f6362f93160ef3e564019550929092019250620005c59050565b5060408281015160028301556060909201516003909101805460ff191691151591909117905580516001808252818301909252620001ee9160208083019080368337019050506001600160e01b036200025316565b6200022b837f233d36e267af25e9763c5ca9ee4b9df85d8450ad52191618b089fa4a1a46bfc560001b620005c160201b620016eb1790919060201c565b50600380546001600160a01b0319166001600160a01b0392909216919091179055506200069f565b6003546001600160a01b03163314620002b3576040805162461bcd60e51b815260206004820152601d60248201527f4f6e6c792073757065727573657220697320617574686f72697a65642e000000604482015290519081900360640190fd5b60005b81518110156200053f576000828281518110620002cf57fe5b6020026020010151905060008181548110620002e757fe5b600091825260209091206003600490920201015460ff16156200033c5760405162461bcd60e51b81526004018080602001828103825260318152602001806200201b6031913960400191505060405180910390fd5b6060600082815481106200034c57fe5b9060005260206000209060040201600101805480602002602001604051908101604052809291908181526020018280548015620003d657602002820191906000526020600020906000905b82829054906101000a900460e01b6001600160e01b03191681526020019060040190602082600301049283019260010382029150808411620003975790505b505050505090506000808381548110620003ec57fe5b600091825260208220600490910201546001600160a01b031691505b8251811015620005005760006001600160a01b0316600160008584815181106200042e57fe5b6020908102919091018101516001600160e01b0319168252810191909152604001600020546001600160a01b031614620004a3576040805162461bcd60e51b81526020600482015260116024820152702337bab73210309031b7b63634b9b4b7b760791b604482015290519081900360640190fd5b8160016000858481518110620004b557fe5b6020908102919091018101516001600160e01b031916825281019190915260400160002080546001600160a01b0319166001600160a01b039290921691909117905560010162000408565b506001600084815481106200051157fe5b60009182526020909120600490910201600301805460ff1916911515919091179055505050600101620002b6565b507ebf1b25d05b79479b747eea1ec17a4da9b9ec10cd453a815622cd8a31b3c97981426040518080602001838152602001828103825284818151815260200191508051906020019060200280838360005b83811015620005aa57818101518382015260200162000590565b50505050905001935050505060405180910390a150565b9055565b82805482825590600052602060002090600701600890048101928215620006665791602002820160005b838211156200063257835183826101000a81548163ffffffff021916908360e01c02179055509260200192600401602081600301049283019260010302620005ef565b8015620006645782816101000a81549063ffffffff021916905560040160208160030104928301926001030262000632565b505b506200067492915062000678565b5090565b6200069c91905b808211156200067457805463ffffffff191681556001016200067f565b90565b61196c80620006af6000396000f3fe6080604052600436106100fe5760003560e01c806388c5bab311610095578063a902134311610064578063a9021343146106e4578063b17dc3ab14610792578063b65c630b146107b9578063c41c2f24146107ce578063d0b55438146107e3576100fe565b806388c5bab31461051f5780638aa3e011146105f35780638cd9ed991461069c578063a0aa562e146106cf576100fe565b8063668900ec116100d1578063668900ec146104545780636904c94d146104875780636e91818a146104b85780637d358b15146104eb576100fe565b8063134f02ce146101a1578063318588b91461035e5780633fc3526a1461039157806363fba44a1461043f575b600080356001600160e01b0319168152600160205260409020546001600160a01b03168061015d5760405162461bcd60e51b815260040180806020018281038252603581526020018061189e6035913960400191505060405180910390fd5b61019e816000368080601f01602080910402602001604051908101604052809392919081815260200183838082843760009201919091525061080d92505050565b50005b3480156101ad57600080fd5b5061035c600480360360a08110156101c457600080fd5b810190602081018135600160201b8111156101de57600080fd5b8201836020820111156101f057600080fd5b803590602001918460208302840111600160201b8311171561021157600080fd5b919390929091602081019035600160201b81111561022e57600080fd5b82018360208201111561024057600080fd5b803590602001918460208302840111600160201b8311171561026157600080fd5b919390929091602081019035600160201b81111561027e57600080fd5b82018360208201111561029057600080fd5b803590602001918460208302840111600160201b831117156102b157600080fd5b919390929091602081019035600160201b8111156102ce57600080fd5b8201836020820111156102e057600080fd5b803590602001918460208302840111600160201b8311171561030157600080fd5b919390929091602081019035600160201b81111561031e57600080fd5b82018360208201111561033057600080fd5b803590602001918460208302840111600160201b8311171561035157600080fd5b509092509050610831565b005b34801561036a57600080fd5b5061035c6004803603602081101561038157600080fd5b50356001600160a01b03166109cb565b34801561039d57600080fd5b5061035c600480360360208110156103b457600080fd5b810190602081018135600160201b8111156103ce57600080fd5b8201836020820111156103e057600080fd5b803590602001918460208302840111600160201b8311171561040157600080fd5b919080806020026020016040519081016040528093929190818152602001838360200280828437600092019190915250929550610a51945050505050565b34801561044b57600080fd5b5061035c610d13565b34801561046057600080fd5b5061035c6004803603602081101561047757600080fd5b50356001600160a01b0316610dab565b34801561049357600080fd5b5061049c610e3a565b604080516001600160a01b039092168252519081900360200190f35b3480156104c457600080fd5b5061035c600480360360208110156104db57600080fd5b50356001600160a01b0316610e6b565b3480156104f757600080fd5b5061049c6004803603602081101561050e57600080fd5b50356001600160e01b031916610f0c565b34801561052b57600080fd5b5061035c6004803603606081101561054257600080fd5b810190602081018135600160201b81111561055c57600080fd5b82018360208201111561056e57600080fd5b803590602001918460208302840111600160201b8311171561058f57600080fd5b919390929091602081019035600160201b8111156105ac57600080fd5b8201836020820111156105be57600080fd5b803590602001918460208302840111600160201b831117156105df57600080fd5b9193509150356001600160a01b0316610f31565b3480156105ff57600080fd5b5061061d6004803603602081101561061657600080fd5b5035611006565b60405180856001600160a01b03166001600160a01b031681526020018481526020018060200183151515158152602001828103825284818151815260200191508051906020019060200280838360005b8381101561068557818101518382015260200161066d565b505050509050019550505050505060405180910390f35b3480156106a857600080fd5b5061035c600480360360208110156106bf57600080fd5b50356001600160a01b0316611122565b3480156106db57600080fd5b5061049c6111b1565b3480156106f057600080fd5b5061035c6004803603602081101561070757600080fd5b810190602081018135600160201b81111561072157600080fd5b82018360208201111561073357600080fd5b803590602001918460208302840111600160201b8311171561075457600080fd5b9190808060200260200160405190810160405280939291908181526020018383602002808284376000920191909152509295506111c0945050505050565b34801561079e57600080fd5b506107a76114f1565b60408051918252519081900360200190f35b3480156107c557600080fd5b5061049c6114f7565b3480156107da57600080fd5b5061049c611506565b3480156107ef57600080fd5b506107a76004803603602081101561080657600080fd5b5035611515565b600080825160208401855af43d604051816000823e82801561082d578282f35b8282fd5b6003546001600160a01b0316331461087e576040805162461bcd60e51b815260206004820152601d60248201526000805160206118d3833981519152604482015290519081900360640190fd5b6000805b8a8110156109bd57606088888381811061089857fe5b9050602002013561ffff1661ffff166040519080825280602002602001820160405280156108d0578160200160208202803683370190505b50905060005b8989848181106108e257fe5b9050602002013561ffff1661ffff16811015610948578787828661ffff160181811061090a57fe5b905060200201356001600160e01b03191682828151811061092757fe5b6001600160e01b0319909216602092830291909101909101526001016108d6565b506109948d8d8481811061095857fe5b905060200201358c8c8581811061096b57fe5b905060200201356001600160a01b03168388888781811061098857fe5b9050602002013561153d565b8888838181106109a057fe5b9050602002013561ffff1683019250508080600101915050610882565b505050505050505050505050565b803f7fc5d2460186f7233c927e7db2dcc703c0e500b653ca82273b7bfad8045d85a47081148015906109fc57508015155b610a4d576040805162461bcd60e51b815260206004820181905260248201527f706f696e74657220746f2061206e6f6e20436f6e747261637420666f756e6421604482015290519081900360640190fd5b5050565b6003546001600160a01b03163314610a9e576040805162461bcd60e51b815260206004820152601d60248201526000805160206118d3833981519152604482015290519081900360640190fd5b60005b8151811015610c92576000828281518110610ab857fe5b602002602001015190508060001415610b025760405162461bcd60e51b81526004018080602001828103825260318152602001806118496031913960400191505060405180910390fd5b60008181548110610b0f57fe5b600091825260209091206003600490920201015460ff16610b615760405162461bcd60e51b815260040180806020018281038252602f81526020018061181a602f913960400191505060405180910390fd5b606060008281548110610b7057fe5b9060005260206000209060040201600101805480602002602001604051908101604052809291908181526020018280548015610bf857602002820191906000526020600020906000905b82829054906101000a900460e01b6001600160e01b03191681526020019060040190602082600301049283019260010382029150808411610bba5790505b50939450600093505050505b8151811015610c575760016000838381518110610c1d57fe5b6020908102919091018101516001600160e01b031916825281019190915260400160002080546001600160a01b0319169055600101610c04565b506000808381548110610c6657fe5b60009182526020909120600490910201600301805460ff19169115159190911790555050600101610aa1565b507fc2174dead889d1275dc328a54f60404bc5f59b5bd1e221b24cde2540075d120c81426040518080602001838152602001828103825284818151815260200191508051906020019060200280838360005b83811015610cfc578181015183820152602001610ce4565b50505050905001935050505060405180910390a150565b6002546001600160a01b03163314610d5c5760405162461bcd60e51b815260040180806020018281038252602481526020018061187a6024913960400191505060405180910390fd5b600254610d99907f233d36e267af25e9763c5ca9ee4b9df85d8450ad52191618b089fa4a1a46bfc5906001600160a01b031663ffffffff6116eb16565b600280546001600160a01b0319169055565b610db3610e3a565b6001600160a01b0316336001600160a01b031614610e18576040805162461bcd60e51b815260206004820152601b60248201527f4f6e6c7920636f6d70616e7920697320617574686f72697a65642e0000000000604482015290519081900360640190fd5b600280546001600160a01b0319166001600160a01b0392909216919091179055565b6000610e657f233d36e267af25e9763c5ca9ee4b9df85d8450ad52191618b089fa4a1a46bfc56116ef565b90505b90565b6003546001600160a01b03163314610eb8576040805162461bcd60e51b815260206004820152601d60248201526000805160206118d3833981519152604482015290519081900360640190fd5b600480546001600160a01b0383166001600160a01b0319909116811790915560408051918252517fa76523eacc34f9525272e606a64d8fdd1d289a9b31061b19af6c7650b2e252599181900360200190a150565b6001600160e01b0319166000908152600160205260409020546001600160a01b031690565b6003546001600160a01b03163314610f7e576040805162461bcd60e51b815260206004820152601d60248201526000805160206118d3833981519152604482015290519081900360640190fd5b610fba858580806020026020016040519081016040528093929190818152602001838360200280828437600092019190915250610a5192505050565b610ff68383808060200260200160405190810160405280939291908181526020018383602002808284376000920191909152506111c092505050565b610fff81610e6b565b5050505050565b6000806060600080858154811061101957fe5b6000918252602082206004909102015481546001600160a01b0390911691908790811061104257fe5b9060005260206000209060040201600201546000878154811061106157fe5b90600052602060002090600402016001016000888154811061107f57fe5b6000918252602091829020600360049092020101548254604080518285028101850190915281815260ff9092169284919083018282801561110c57602002820191906000526020600020906000905b82829054906101000a900460e01b6001600160e01b031916815260200190600401906020826003010492830192600103820291508084116110ce5790505b5050505050915093509350935093509193509193565b61112a610e3a565b6001600160a01b0316336001600160a01b03161461118f576040805162461bcd60e51b815260206004820152601b60248201527f4f6e6c7920636f6d70616e7920697320617574686f72697a65642e0000000000604482015290519081900360640190fd5b600380546001600160a01b0319166001600160a01b0392909216919091179055565b6002546001600160a01b031690565b6003546001600160a01b0316331461120d576040805162461bcd60e51b815260206004820152601d60248201526000805160206118d3833981519152604482015290519081900360640190fd5b60005b815181101561148957600082828151811061122757fe5b602002602001015190506000818154811061123e57fe5b600091825260209091206003600490920201015460ff16156112915760405162461bcd60e51b81526004018080602001828103825260318152602001806117e96031913960400191505060405180910390fd5b6060600082815481106112a057fe5b906000526020600020906004020160010180548060200260200160405190810160405280929190818152602001828054801561132857602002820191906000526020600020906000905b82829054906101000a900460e01b6001600160e01b031916815260200190600401906020826003010492830192600103820291508084116112ea5790505b50505050509050600080838154811061133d57fe5b600091825260208220600490910201546001600160a01b031691505b825181101561144c5760006001600160a01b03166001600085848151811061137d57fe5b6020908102919091018101516001600160e01b0319168252810191909152604001600020546001600160a01b0316146113f1576040805162461bcd60e51b81526020600482015260116024820152702337bab73210309031b7b63634b9b4b7b760791b604482015290519081900360640190fd5b816001600085848151811061140257fe5b6020908102919091018101516001600160e01b031916825281019190915260400160002080546001600160a01b0319166001600160a01b0392909216919091179055600101611359565b5060016000848154811061145c57fe5b60009182526020909120600490910201600301805460ff1916911515919091179055505050600101611210565b507ebf1b25d05b79479b747eea1ec17a4da9b9ec10cd453a815622cd8a31b3c979814260405180806020018381526020018281038252848181518152602001915080519060200190602002808383600083811015610cfc578181015183820152602001610ce4565b60005490565b6003546001600160a01b031690565b6004546001600160a01b031690565b600080828154811061152357fe5b600091825260209091206001600490920201015492915050565b600054841461157d5760405162461bcd60e51b81526004018080602001828103825260448152602001806118f36044913960600191505060405180910390fd5b611586836109cb565b61158e6116f3565b6001600160a01b038481168252604082018390526000606083018190526020808401868152825460018101845592805284517f290decd9548b62a8d60345a988386fc84ba6bc95484008f6362f93160ef3e563600490940293840180546001600160a01b03191691909516178455518051859493611632937f290decd9548b62a8d60345a988386fc84ba6bc95484008f6362f93160ef3e56490910192019061171b565b506040820151816002015560608201518160030160006101000a81548160ff02191690831515021790555050507f752824e46ff52a52ca3cb4e33614cd19db347a6d16d88fcd73b5995b1d8314c08583856040518084815260200183815260200180602001828103825283818151815260200191508051906020019060200280838360005b838110156116cf5781810151838201526020016116b7565b5050505090500194505050505060405180910390a15050505050565b9055565b5490565b6040805160808101825260008082526060602083018190529282018190529181019190915290565b828054828255906000526020600020906007016008900481019282156117b75791602002820160005b8382111561178557835183826101000a81548163ffffffff021916908360e01c02179055509260200192600401602081600301049283019260010302611744565b80156117b55782816101000a81549063ffffffff0219169055600401602081600301049283019260010302611785565b505b506117c39291506117c7565b5090565b610e6891905b808211156117c357805463ffffffff191681556001016117cd56fe63616e6e6f74206163746976617465206120636f6e7472616374207468617420697320616c72656164792041637469766563616e6e6f742064656163746976617465206120636f6e74726163742074686174206973206e6f742061637469766563616e6e6f742064656163746976617465207468652070726f787920636f6e74726163742c2077697468206964203d20306f6e6c792070726f706f736564206f776e65722063616e206265636f6d65206f776e657266756e6374696f6e2073656c6563746f72206973206e6f742061737369676e656420746f20612076616c696420636f6e74726163744f6e6c792073757065727573657220697320617574686f72697a65642e000000747279696e6720746f206164642061206e657720636f6e747261637420746f206120636f6e747261637449642074686174206973206e6f6e2d636f6e7365637574697665a2646970667358221220559f6a9b748fb4ba2bf036e718c6a26dfa0f82edf2d40203a0c8f0e3ee18ec1164736f6c6343000603003363616e6e6f74206163746976617465206120636f6e7472616374207468617420697320616c726561647920416374697665",
  "source": "pragma solidity >= 0.6.3;\n\nimport \"./ProxyStorage.sol\";\n/**\n @title Holds all storage for all assets, and manages who to delegate the calls\n @author Freeverse.io, www.freeverse.io\n @dev Pattern: first, contracts-to-delegate-to info are added to this contract.\n @dev Part of this info informs which function selector maps to each contract address.\n @dev Second, in one atomic TX, we deactivate previous contracts, and activate newly added ones.\n*/\n\ncontract Proxy is ProxyStorage {\n\n    using Bytes32AddressLib for bytes32;\n\n    // COMPANY_SLOT = keccak256(\"freeverse.private.addresses.company\")\n    bytes32 constant private COMPANY_SLOT = 0x233d36e267af25e9763c5ca9ee4b9df85d8450ad52191618b089fa4a1a46bfc5;\n    address constant private PROXY_DUMMY_ADDR = address(1);\n    bytes32 constant private EMPTY_CONTRACT_HASH = 0xc5d2460186f7233c927e7db2dcc703c0e500b653ca82273b7bfad8045d85a470;\n\n    event ContractAdded(uint256 contractId, bytes32 name, bytes4[] selectors);\n    event ContractsActivated(uint256[] contractIds, uint256 time);\n    event ContractsDeactivated(uint256[] contractIds, uint256 time);\n    event NewDirectory(address addr);\n\n    modifier onlyCompany() {\n        require(msg.sender == company(), \"Only company is authorized.\");\n        _;\n    }\n    \n    /**\n    * @dev Sets CompanyOwner and SuperUser\n    * @dev Stores proxy selectors in _contractsInfo[0], pointing to PROXY_DUMMY_ADDR\n    */\n    constructor(address companyOwner, address superUser, bytes4[] memory proxySelectors) public {\n        _superUser = msg.sender;\n        _contractsInfo.push(ContractInfo(PROXY_DUMMY_ADDR, proxySelectors, \"Proxy\", false));\n        activateContracts(new uint256[](1));\n        COMPANY_SLOT.setStorageAddress(companyOwner);\n        _superUser = superUser;\n    }\n    \n    /**\n    * @dev execute a delegate call via fallback function\n    */\n    fallback() external payable {\n        address contractAddr = _selectorToContractAddr[msg.sig];\n        require(contractAddr != address(0x0), \"function selector is not assigned to a valid contract\");\n        _delegate(contractAddr, msg.data);\n    } \n    \n    /**\n    * @dev Delegates call. It returns the entire context execution\n    * @dev NOTE: does not check if the implementation (code) address is a contract,\n    *      so having an incorrect implementation could lead to unexpected results\n    * @param _target Target address to perform the delegatecall\n    * @param _calldata Calldata for the delegatecall\n    */\n    function _delegate(address _target, bytes memory _calldata) private {\n        assembly {\n            // let result := delegatecall(sub(gas(), fwdGasLimit), _target, add(_calldata, 0x20), mload(_calldata), 0, 0)\n            let result := delegatecall(gas(), _target, add(_calldata, 0x20), mload(_calldata), 0, 0)\n            let size := returndatasize()\n            let ptr := mload(0x40)\n            returndatacopy(ptr, 0, size)\n\n            /// revert instead of invalid() bc if the underlying call failed with invalid() it already wasted gas.\n            /// if the call returned error data, forward it\n            switch result case 0 { revert(ptr, size) }\n            default { return(ptr, size) }\n        }\n    }\n    \n    /**\n    * @dev Proposes a new owner, who needs to later accept it\n    */\n    function proposeCompany(address addr) external onlyCompany {\n        _proposedCompany = addr;\n    }\n\n    /**\n    * @dev The proposed owner uses this function to become the new owner\n    */\n    function acceptCompany() external  {\n        require(msg.sender == _proposedCompany, \"only proposed owner can become owner\");\n        COMPANY_SLOT.setStorageAddress(_proposedCompany);\n        _proposedCompany = address(0);\n    }\n\n    /// SuperUser manages the proxy contract. No need to propose/accept, since it can be changed by company.\n    function setSuperUser(address addr) external onlyCompany {\n        _superUser = addr;\n    }\n\n    function addContracts(\n        uint256[] calldata contractIds, \n        address[] calldata addrs, \n        uint16[] calldata nSelectorsPerContract, \n        bytes4[] calldata selectors,\n        bytes32[] calldata names\n    ) \n        external \n        onlySuperUser \n    {\n        uint16 lastSelector;\n        for (uint256 c = 0; c < contractIds.length; c++) {\n            bytes4[] memory thisSelectors = new bytes4[](nSelectorsPerContract[c]);\n            for (uint256 s = 0; s < nSelectorsPerContract[c]; s++) {\n                thisSelectors[s] = selectors[lastSelector + s];\n            }\n            _addContract(contractIds[c], addrs[c], thisSelectors, names[c]);\n            lastSelector += nSelectorsPerContract[c];\n        }\n    }\n    \n    /**\n    * @dev  Deactivates a set of contracts, and then activates another set,\n    *       in one single atomic transaction. \n    *       Note: it only removes the mapped selectors, not the contract info. \n    * @param deactContractIds The ids of the contracts to be de-activated\n    * @param actContractIds The ids of the contracts to be activated\n    */\n    function upgrade(uint256[] calldata deactContractIds, uint256[] calldata actContractIds, address newDirectory) external onlySuperUser {\n        deactivateContracts(deactContractIds);\n        activateContracts(actContractIds);\n        setDirectory(newDirectory);\n    }\n\n    /**\n    * @dev  Activates a set of contracts, by adding an entry in the \n    *       _selectorToContractAddr mapping for each selector of the contract. \n    * @param contractIds The ids of the contracts to be activated\n    */\n    function activateContracts(uint256[] memory contractIds) public onlySuperUser {\n        for (uint256 c = 0; c < contractIds.length; c++) {\n            uint256 contractId = contractIds[c];\n            require(!_contractsInfo[contractId].isActive, \"cannot activate a contract that is already Active\");\n            bytes4[] memory selectors = _contractsInfo[contractId].selectors;\n            address addr = _contractsInfo[contractId].addr;\n            for (uint256 s = 0; s < selectors.length; s++) {\n                require(_selectorToContractAddr[selectors[s]] == address(0x0), \"Found a collision\");\n                _selectorToContractAddr[selectors[s]] = addr;\n            }\n            _contractsInfo[contractId].isActive = true;\n        }\n        emit ContractsActivated(contractIds, now);        \n    }\n\n    /**\n    * @dev  De-activates a set of contracts, by adding an entry in the \n    *       _selectorToContractAddr mapping for each selector of the contract. \n    * @param contractIds The ids of the contracts to be activated\n    */\n    function deactivateContracts(uint256[] memory contractIds) public onlySuperUser {\n        for (uint256 c = 0; c < contractIds.length; c++) {\n            uint256 contractId = contractIds[c];\n            require(contractId != 0, \"cannot deactivate the proxy contract, with id = 0\");\n            require(_contractsInfo[contractId].isActive, \"cannot deactivate a contract that is not active\");\n            bytes4[] memory selectors = _contractsInfo[contractId].selectors;\n            for (uint256 s = 0; s < selectors.length; s++) {\n                delete _selectorToContractAddr[selectors[s]];\n            }\n            _contractsInfo[contractId].isActive = false;\n        }\n        emit ContractsDeactivated(contractIds, now);        \n    }\n\n    /// Directory is just an external contract used by synchornizers to\n    /// read the addresses of all other contracts. The proxy just informs about\n    /// the location of this contract, which is typically changed in an upgrade.\n    function setDirectory(address addr) public onlySuperUser {\n        _directory = addr;\n        emit NewDirectory(addr);\n    }\n\n    /**\n    * @dev Stores the info about a contract to be later called via delegate call,\n    * @dev by pushing to the _contractsInfo array, and emits an event with all the info.\n    * @dev NOTE: it does not activate it until \"activateContracts\" is invoked\n    * @param contractId The index in the array _contractsInfo where this contract should be placed\n    *   It must be equal to the next available idx in the array. Although not strictly necessary, \n    *   it allows the external caller to ensure that the idx is as expected without parsing the event.\n    * @param addr Address of the contract that will be used in the delegate call\n    * @param selectors An array of all selectors needed inside the contract\n    * @param name The name of the added contract, only for reference\n    */\n    function _addContract(uint256 contractId, address addr, bytes4[] memory selectors, bytes32 name) private {\n        /// we require that the contract gets assigned an Id that is as specified from outside, \n        /// to make deployment more predictable, and avoid having to parse the emitted event to get contractId:\n        require(contractId == _contractsInfo.length, \"trying to add a new contract to a contractId that is non-consecutive\");\n        assertPointsToContract(addr);\n        ContractInfo memory info;\n        info.addr = addr;\n        info.name = name;\n        info.isActive = false;\n        info.selectors = selectors;\n        _contractsInfo.push(info);\n        emit ContractAdded(contractId, name, selectors);        \n    }\n   \n   /**\n    * @dev Reverts unless contractAddress points to a legit contract.\n    *      Makes sure that the hash of the external code is neither 0x0 (not-yet created),\n    *       nor an account without code: keccak256('') = 0xc5d2460186f7233c927e7db2dcc703c0e500b653ca82273b7bfad8045d85a470\n    *      See EIP-1052 for more info\n    *      This check is important to avoid delegateCall returning OK when delegating to nowhere\n    */\n    function assertPointsToContract(address contractAddress) public view {\n        bytes32 codeHashAtContractAddress;\n        assembly { codeHashAtContractAddress := extcodehash(contractAddress) }\n        require(codeHashAtContractAddress != EMPTY_CONTRACT_HASH && codeHashAtContractAddress != 0x0, \"pointer to a non Contract found!\");\n    }\n\n\n    /**\n    * @dev  Standard getters\n    */\n    function countContracts() external view returns(uint256) { return _contractsInfo.length; }\n    function countSelectorsInContract(uint256 contractId) external view returns(uint256) { \n        return _contractsInfo[contractId].selectors.length; \n    }\n    function getContractAddressForSelector(bytes4 selector) external view returns(address) { \n        return _selectorToContractAddr[selector]; \n    }\n    function getContractInfo(uint256 contractId) external view returns (address, bytes32, bytes4[] memory, bool) {\n        return (\n            _contractsInfo[contractId].addr,\n            _contractsInfo[contractId].name,\n            _contractsInfo[contractId].selectors,\n            _contractsInfo[contractId].isActive\n        );\n    }\n\n    function company() public view returns (address) { return COMPANY_SLOT.getStorageAddress(); }\n    function proposedCompany() public view returns (address) { return _proposedCompany; }\n    function superUser() public view returns (address) { return _superUser; }\n    function directory() public view returns (address) { return _directory; }\n}",
  "sourcePath": "/Users/jurgenkudla/proyects/laos/laos-goal-revolution/truffle-core/contracts/storage/Proxy.sol",
  "compiler": {
    "name": "solc",
    "version": "0.6.3+commit.8dda9521.Emscripten.clang"
  },
  "schemaVersion": "3.0.23",
  "updatedAt": "2024-10-16T08:58:34.612Z",
  "networkType": "ethereum",
  "devdoc": {
    "author": "Freeverse.io, www.freeverse.io",
    "details": "Pattern: first, contracts-to-delegate-to info are added to this contract.Part of this info informs which function selector maps to each contract address.Second, in one atomic TX, we deactivate previous contracts, and activate newly added ones.",
    "methods": {
      "acceptCompany()": {
        "details": "The proposed owner uses this function to become the new owner"
      },
      "activateContracts(uint256[])": {
        "details": "Activates a set of contracts, by adding an entry in the       _selectorToContractAddr mapping for each selector of the contract. ",
        "params": {
          "contractIds": "The ids of the contracts to be activated"
        }
      },
      "assertPointsToContract(address)": {
        "details": "Reverts unless contractAddress points to a legit contract.     Makes sure that the hash of the external code is neither 0x0 (not-yet created),      nor an account without code: keccak256('') = 0xc5d2460186f7233c927e7db2dcc703c0e500b653ca82273b7bfad8045d85a470     See EIP-1052 for more info     This check is important to avoid delegateCall returning OK when delegating to nowhere"
      },
      "constructor": {
        "details": "Sets CompanyOwner and SuperUserStores proxy selectors in _contractsInfo[0], pointing to PROXY_DUMMY_ADDR"
      },
      "countContracts()": {
        "details": "Standard getters"
      },
      "deactivateContracts(uint256[])": {
        "details": "De-activates a set of contracts, by adding an entry in the       _selectorToContractAddr mapping for each selector of the contract. ",
        "params": {
          "contractIds": "The ids of the contracts to be activated"
        }
      },
      "proposeCompany(address)": {
        "details": "Proposes a new owner, who needs to later accept it"
      },
      "upgrade(uint256[],uint256[],address)": {
        "details": "Deactivates a set of contracts, and then activates another set,      in one single atomic transaction.       Note: it only removes the mapped selectors, not the contract info. ",
        "params": {
          "actContractIds": "The ids of the contracts to be activated",
          "deactContractIds": "The ids of the contracts to be de-activated"
        }
      }
    },
    "title": "Holds all storage for all assets, and manages who to delegate the calls"
  },
  "userdoc": {
    "methods": {
      "setDirectory(address)": {
        "notice": "Directory is just an external contract used by synchornizers to read the addresses of all other contracts. The proxy just informs about the location of this contract, which is typically changed in an upgrade."
      },
      "setSuperUser(address)": {
        "notice": "SuperUser manages the proxy contract. No need to propose/accept, since it can be changed by company."
      }
    }
  }
}