{
  "contractName": "Shop",
  "abi": [
    {
      "inputs": [
        {
          "internalType": "address",
          "name": "assetsAddress",
          "type": "address"
        }
      ],
      "stateMutability": "nonpayable",
      "type": "constructor"
    },
    {
      "anonymous": false,
      "inputs": [
        {
          "indexed": false,
          "internalType": "uint16",
          "name": "itemId",
          "type": "uint16"
        },
        {
          "indexed": false,
          "internalType": "uint256",
          "name": "countriesRoot",
          "type": "uint256"
        },
        {
          "indexed": false,
          "internalType": "uint256",
          "name": "championshipsRoot",
          "type": "uint256"
        },
        {
          "indexed": false,
          "internalType": "uint256",
          "name": "teamsRoot",
          "type": "uint256"
        },
        {
          "indexed": false,
          "internalType": "uint16",
          "name": "itemsRemaining",
          "type": "uint16"
        },
        {
          "indexed": false,
          "internalType": "uint32",
          "name": "encodedBoost",
          "type": "uint32"
        },
        {
          "indexed": false,
          "internalType": "uint8",
          "name": "matchesDuration",
          "type": "uint8"
        },
        {
          "indexed": false,
          "internalType": "uint8",
          "name": "onlyTopInChampioniship",
          "type": "uint8"
        },
        {
          "indexed": false,
          "internalType": "string",
          "name": "uri",
          "type": "string"
        }
      ],
      "name": "ItemOffered",
      "type": "event"
    },
    {
      "inputs": [],
      "name": "N_SKILLS",
      "outputs": [
        {
          "internalType": "uint8",
          "name": "",
          "type": "uint8"
        }
      ],
      "stateMutability": "view",
      "type": "function",
      "constant": true
    },
    {
      "inputs": [],
      "name": "SK_DEF",
      "outputs": [
        {
          "internalType": "uint8",
          "name": "",
          "type": "uint8"
        }
      ],
      "stateMutability": "view",
      "type": "function",
      "constant": true
    },
    {
      "inputs": [],
      "name": "SK_END",
      "outputs": [
        {
          "internalType": "uint8",
          "name": "",
          "type": "uint8"
        }
      ],
      "stateMutability": "view",
      "type": "function",
      "constant": true
    },
    {
      "inputs": [],
      "name": "SK_PAS",
      "outputs": [
        {
          "internalType": "uint8",
          "name": "",
          "type": "uint8"
        }
      ],
      "stateMutability": "view",
      "type": "function",
      "constant": true
    },
    {
      "inputs": [],
      "name": "SK_SHO",
      "outputs": [
        {
          "internalType": "uint8",
          "name": "",
          "type": "uint8"
        }
      ],
      "stateMutability": "view",
      "type": "function",
      "constant": true
    },
    {
      "inputs": [],
      "name": "SK_SPE",
      "outputs": [
        {
          "internalType": "uint8",
          "name": "",
          "type": "uint8"
        }
      ],
      "stateMutability": "view",
      "type": "function",
      "constant": true
    },
    {
      "inputs": [
        {
          "internalType": "uint256",
          "name": "encodedSkills",
          "type": "uint256"
        }
      ],
      "name": "addIsSpecial",
      "outputs": [
        {
          "internalType": "uint256",
          "name": "",
          "type": "uint256"
        }
      ],
      "stateMutability": "pure",
      "type": "function",
      "constant": true
    },
    {
      "inputs": [
        {
          "internalType": "uint32",
          "name": "encoded",
          "type": "uint32"
        }
      ],
      "name": "decodeBoosts",
      "outputs": [
        {
          "internalType": "uint8[6]",
          "name": "skillsBoost",
          "type": "uint8[6]"
        }
      ],
      "stateMutability": "pure",
      "type": "function",
      "constant": true
    },
    {
      "inputs": [
        {
          "internalType": "uint8[6]",
          "name": "skillsBoost",
          "type": "uint8[6]"
        }
      ],
      "name": "encodeBoosts",
      "outputs": [
        {
          "internalType": "uint32",
          "name": "encoded",
          "type": "uint32"
        }
      ],
      "stateMutability": "pure",
      "type": "function",
      "constant": true
    },
    {
      "inputs": [
        {
          "internalType": "uint256",
          "name": "tactics",
          "type": "uint256"
        }
      ],
      "name": "getItemsData",
      "outputs": [
        {
          "internalType": "uint8[25]",
          "name": "staminas",
          "type": "uint8[25]"
        },
        {
          "internalType": "uint16",
          "name": "",
          "type": "uint16"
        },
        {
          "internalType": "uint32",
          "name": "",
          "type": "uint32"
        }
      ],
      "stateMutability": "pure",
      "type": "function",
      "constant": true
    },
    {
      "inputs": [
        {
          "internalType": "uint256",
          "name": "encodedSkills",
          "type": "uint256"
        },
        {
          "internalType": "bool",
          "name": "val",
          "type": "bool"
        }
      ],
      "name": "setAlignedEndOfFirstHalf",
      "outputs": [
        {
          "internalType": "uint256",
          "name": "",
          "type": "uint256"
        }
      ],
      "stateMutability": "pure",
      "type": "function",
      "constant": true
    },
    {
      "inputs": [
        {
          "internalType": "uint256",
          "name": "encodedSkills",
          "type": "uint256"
        },
        {
          "internalType": "uint8",
          "name": "val",
          "type": "uint8"
        }
      ],
      "name": "setGamesNonStopping",
      "outputs": [
        {
          "internalType": "uint256",
          "name": "",
          "type": "uint256"
        }
      ],
      "stateMutability": "pure",
      "type": "function",
      "constant": true
    },
    {
      "inputs": [
        {
          "internalType": "uint256",
          "name": "encodedSkills",
          "type": "uint256"
        },
        {
          "internalType": "uint32",
          "name": "val",
          "type": "uint32"
        }
      ],
      "name": "setGeneration",
      "outputs": [
        {
          "internalType": "uint256",
          "name": "",
          "type": "uint256"
        }
      ],
      "stateMutability": "pure",
      "type": "function",
      "constant": true
    },
    {
      "inputs": [
        {
          "internalType": "uint256",
          "name": "encodedSkills",
          "type": "uint256"
        },
        {
          "internalType": "uint8",
          "name": "val",
          "type": "uint8"
        }
      ],
      "name": "setInjuryWeeksLeft",
      "outputs": [
        {
          "internalType": "uint256",
          "name": "",
          "type": "uint256"
        }
      ],
      "stateMutability": "pure",
      "type": "function",
      "constant": true
    },
    {
      "inputs": [
        {
          "internalType": "uint256",
          "name": "tactics",
          "type": "uint256"
        },
        {
          "internalType": "uint32",
          "name": "val",
          "type": "uint32"
        }
      ],
      "name": "setItemBoost",
      "outputs": [
        {
          "internalType": "uint256",
          "name": "",
          "type": "uint256"
        }
      ],
      "stateMutability": "pure",
      "type": "function",
      "constant": true
    },
    {
      "inputs": [
        {
          "internalType": "uint256",
          "name": "tactics",
          "type": "uint256"
        },
        {
          "internalType": "uint16",
          "name": "val",
          "type": "uint16"
        }
      ],
      "name": "setItemId",
      "outputs": [
        {
          "internalType": "uint256",
          "name": "",
          "type": "uint256"
        }
      ],
      "stateMutability": "pure",
      "type": "function",
      "constant": true
    },
    {
      "inputs": [
        {
          "internalType": "uint256",
          "name": "encodedSkills",
          "type": "uint256"
        },
        {
          "internalType": "bool",
          "name": "val",
          "type": "bool"
        }
      ],
      "name": "setOutOfGameFirstHalf",
      "outputs": [
        {
          "internalType": "uint256",
          "name": "",
          "type": "uint256"
        }
      ],
      "stateMutability": "pure",
      "type": "function",
      "constant": true
    },
    {
      "inputs": [
        {
          "internalType": "uint256",
          "name": "encodedSkills",
          "type": "uint256"
        },
        {
          "internalType": "uint256",
          "name": "val",
          "type": "uint256"
        }
      ],
      "name": "setPotential",
      "outputs": [
        {
          "internalType": "uint256",
          "name": "",
          "type": "uint256"
        }
      ],
      "stateMutability": "pure",
      "type": "function",
      "constant": true
    },
    {
      "inputs": [
        {
          "internalType": "uint256",
          "name": "encodedSkills",
          "type": "uint256"
        },
        {
          "internalType": "bool",
          "name": "val",
          "type": "bool"
        }
      ],
      "name": "setRedCardLastGame",
      "outputs": [
        {
          "internalType": "uint256",
          "name": "",
          "type": "uint256"
        }
      ],
      "stateMutability": "pure",
      "type": "function",
      "constant": true
    },
    {
      "inputs": [
        {
          "internalType": "uint256",
          "name": "encodedSkills",
          "type": "uint256"
        },
        {
          "internalType": "uint256",
          "name": "val",
          "type": "uint256"
        },
        {
          "internalType": "uint8",
          "name": "skillIdx",
          "type": "uint8"
        }
      ],
      "name": "setSkill",
      "outputs": [
        {
          "internalType": "uint256",
          "name": "",
          "type": "uint256"
        }
      ],
      "stateMutability": "pure",
      "type": "function",
      "constant": true
    },
    {
      "inputs": [
        {
          "internalType": "uint256",
          "name": "tactics",
          "type": "uint256"
        },
        {
          "internalType": "uint8[25]",
          "name": "vals",
          "type": "uint8[25]"
        }
      ],
      "name": "setStaminaRecovery",
      "outputs": [
        {
          "internalType": "uint256",
          "name": "",
          "type": "uint256"
        }
      ],
      "stateMutability": "pure",
      "type": "function",
      "constant": true
    },
    {
      "inputs": [
        {
          "internalType": "uint256",
          "name": "encodedSkills",
          "type": "uint256"
        },
        {
          "internalType": "bool",
          "name": "val",
          "type": "bool"
        }
      ],
      "name": "setSubstitutedFirstHalf",
      "outputs": [
        {
          "internalType": "uint256",
          "name": "",
          "type": "uint256"
        }
      ],
      "stateMutability": "pure",
      "type": "function",
      "constant": true
    },
    {
      "inputs": [
        {
          "internalType": "uint256",
          "name": "encodedSkills",
          "type": "uint256"
        },
        {
          "internalType": "uint32",
          "name": "val",
          "type": "uint32"
        }
      ],
      "name": "setSumOfSkills",
      "outputs": [
        {
          "internalType": "uint256",
          "name": "",
          "type": "uint256"
        }
      ],
      "stateMutability": "pure",
      "type": "function",
      "constant": true
    },
    {
      "inputs": [
        {
          "internalType": "uint256",
          "name": "encodedSkills",
          "type": "uint256"
        },
        {
          "internalType": "bool",
          "name": "val",
          "type": "bool"
        }
      ],
      "name": "setYellowCardFirstHalf",
      "outputs": [
        {
          "internalType": "uint256",
          "name": "",
          "type": "uint256"
        }
      ],
      "stateMutability": "pure",
      "type": "function",
      "constant": true
    },
    {
      "inputs": [
        {
          "internalType": "uint8[6]",
          "name": "skillsBoost",
          "type": "uint8[6]"
        },
        {
          "internalType": "uint256",
          "name": "countriesRoot",
          "type": "uint256"
        },
        {
          "internalType": "uint256",
          "name": "championshipsRoot",
          "type": "uint256"
        },
        {
          "internalType": "uint256",
          "name": "teamsRoot",
          "type": "uint256"
        },
        {
          "internalType": "uint16",
          "name": "itemsRemaining",
          "type": "uint16"
        },
        {
          "internalType": "uint8",
          "name": "matchesDuration",
          "type": "uint8"
        },
        {
          "internalType": "uint8",
          "name": "onlyTopInChampioniship",
          "type": "uint8"
        },
        {
          "internalType": "string",
          "name": "uri",
          "type": "string"
        }
      ],
      "name": "offerItem",
      "outputs": [],
      "stateMutability": "nonpayable",
      "type": "function"
    },
    {
      "inputs": [
        {
          "internalType": "uint16",
          "name": "itemId",
          "type": "uint16"
        },
        {
          "internalType": "uint16",
          "name": "newItemsRemaining",
          "type": "uint16"
        }
      ],
      "name": "reduceItemsRemaining",
      "outputs": [],
      "stateMutability": "nonpayable",
      "type": "function"
    },
    {
      "inputs": [
        {
          "internalType": "uint256",
          "name": "tactics",
          "type": "uint256"
        },
        {
          "internalType": "uint16",
          "name": "itemId",
          "type": "uint16"
        },
        {
          "internalType": "uint8[25]",
          "name": "staminaRecovery",
          "type": "uint8[25]"
        }
      ],
      "name": "addItemsToTactics",
      "outputs": [
        {
          "internalType": "uint256",
          "name": "",
          "type": "uint256"
        }
      ],
      "stateMutability": "view",
      "type": "function",
      "constant": true
    },
    {
      "inputs": [
        {
          "internalType": "uint256",
          "name": "tactics",
          "type": "uint256"
        }
      ],
      "name": "validateItemsInTactics",
      "outputs": [
        {
          "internalType": "uint8",
          "name": "",
          "type": "uint8"
        }
      ],
      "stateMutability": "view",
      "type": "function",
      "constant": true
    },
    {
      "inputs": [
        {
          "internalType": "uint16",
          "name": "itemId",
          "type": "uint16"
        }
      ],
      "name": "getEncodedBoost",
      "outputs": [
        {
          "internalType": "uint32",
          "name": "",
          "type": "uint32"
        }
      ],
      "stateMutability": "view",
      "type": "function",
      "constant": true
    },
    {
      "inputs": [
        {
          "internalType": "uint16",
          "name": "itemId",
          "type": "uint16"
        }
      ],
      "name": "getCountriesRoot",
      "outputs": [
        {
          "internalType": "uint256",
          "name": "",
          "type": "uint256"
        }
      ],
      "stateMutability": "view",
      "type": "function",
      "constant": true
    },
    {
      "inputs": [
        {
          "internalType": "uint16",
          "name": "itemId",
          "type": "uint16"
        }
      ],
      "name": "getChampionshipsRoot",
      "outputs": [
        {
          "internalType": "uint256",
          "name": "",
          "type": "uint256"
        }
      ],
      "stateMutability": "view",
      "type": "function",
      "constant": true
    },
    {
      "inputs": [
        {
          "internalType": "uint16",
          "name": "itemId",
          "type": "uint16"
        }
      ],
      "name": "getTeamsRoot",
      "outputs": [
        {
          "internalType": "uint256",
          "name": "",
          "type": "uint256"
        }
      ],
      "stateMutability": "view",
      "type": "function",
      "constant": true
    },
    {
      "inputs": [
        {
          "internalType": "uint16",
          "name": "itemId",
          "type": "uint16"
        }
      ],
      "name": "getItemsRemaining",
      "outputs": [
        {
          "internalType": "uint16",
          "name": "",
          "type": "uint16"
        }
      ],
      "stateMutability": "view",
      "type": "function",
      "constant": true
    },
    {
      "inputs": [
        {
          "internalType": "uint16",
          "name": "itemId",
          "type": "uint16"
        }
      ],
      "name": "getMatchesDuration",
      "outputs": [
        {
          "internalType": "uint8",
          "name": "",
          "type": "uint8"
        }
      ],
      "stateMutability": "view",
      "type": "function",
      "constant": true
    },
    {
      "inputs": [
        {
          "internalType": "uint16",
          "name": "itemId",
          "type": "uint16"
        }
      ],
      "name": "getOnlyTopInChampioniship",
      "outputs": [
        {
          "internalType": "uint8",
          "name": "",
          "type": "uint8"
        }
      ],
      "stateMutability": "view",
      "type": "function",
      "constant": true
    },
    {
      "inputs": [
        {
          "internalType": "uint16",
          "name": "itemId",
          "type": "uint16"
        }
      ],
      "name": "getUri",
      "outputs": [
        {
          "internalType": "string",
          "name": "",
          "type": "string"
        }
      ],
      "stateMutability": "view",
      "type": "function",
      "constant": true
    },
    {
      "inputs": [
        {
          "internalType": "uint8",
          "name": "newVal",
          "type": "uint8"
        }
      ],
      "name": "setMaxPercentPerSkill",
      "outputs": [],
      "stateMutability": "nonpayable",
      "type": "function"
    },
    {
      "inputs": [
        {
          "internalType": "uint8",
          "name": "newVal",
          "type": "uint8"
        }
      ],
      "name": "setMaxIncreasePotential",
      "outputs": [],
      "stateMutability": "nonpayable",
      "type": "function"
    },
    {
      "inputs": [
        {
          "internalType": "uint8",
          "name": "newVal",
          "type": "uint8"
        }
      ],
      "name": "setMaxMatchesDuration",
      "outputs": [],
      "stateMutability": "nonpayable",
      "type": "function"
    },
    {
      "inputs": [
        {
          "internalType": "uint16",
          "name": "newVal",
          "type": "uint16"
        }
      ],
      "name": "setMaxItemsInOneOffering",
      "outputs": [],
      "stateMutability": "nonpayable",
      "type": "function"
    }
  ],
  "bytecode": "0x608060405260028054610100603260ff199092169190911761ff0019161762ff00001916620e00001764ffff00000019166427100000001790553480156200004657600080fd5b50604051620020e4380380620020e4833981810160405260208110156200006c57600080fd5b5051600080546001600160a01b0319166001600160a01b03831617815560408051610100810182528281526020808201848152828401858152606084018681526080850187815260a0860188815260c08701898152885180880190995289895260e088019889526001805480820182559a5287517fb10e2d527612073b26eecdfd717e6a320cf44b4afac2b0732d9fcbe2b7fa0cf66005909b029a8b0190815595517fb10e2d527612073b26eecdfd717e6a320cf44b4afac2b0732d9fcbe2b7fa0cf78b015593517fb10e2d527612073b26eecdfd717e6a320cf44b4afac2b0732d9fcbe2b7fa0cf88a015591517fb10e2d527612073b26eecdfd717e6a320cf44b4afac2b0732d9fcbe2b7fa0cf98901805492519351945161ffff1990931661ffff9092169190911765ffffffff000019166201000063ffffffff909416939093029290921760ff60301b1916660100000000000060ff948516021760ff60381b1916670100000000000000939091169290920291909117905592518051929462000222937fb10e2d527612073b26eecdfd717e6a320cf44b4afac2b0732d9fcbe2b7fa0cfa90910192919091019062000452565b5050506200022f620004d7565b60005b600560ff8216101562000267576014828260ff16600681106200025157fe5b60ff909216602092909202015260010162000232565b50600160a0820181905260408051610100810182526000808252602082018190529181019190915261012c606082015260808101620002af846001600160e01b03620003c116565b63ffffffff908116825260076020808401919091526000604080850182905280518082018252601081526f7777772e6672656576657273652e696f60801b81850152606095860152865460018082018955978352918390208651600590930201918255858301519682019690965594840151600286015591830151600385018054608086015160a087015160c088015161ffff1990931661ffff9095169490941765ffffffff000019166201000091909516029390931760ff60301b1916660100000000000060ff938416021760ff60381b1916670100000000000000929093169190910291909117905560e08201518051929392620003b6926004850192019062000452565b505050505062000515565b60006004826005602002015160ff16106200040e5760405162461bcd60e51b815260040180806020018281038252602f815260200180620020b5602f913960400191505060405180910390fd5b60005b600560ff8216116200044c578060060260ff16838260ff16600681106200043457fe5b602002015160ff16901b919091179060010162000411565b50919050565b828054600181600116156101000203166002900490600052602060002090601f016020900481019282601f106200049557805160ff1916838001178555620004c5565b82800160010185558215620004c5579182015b82811115620004c5578251825591602001919060010190620004a8565b50620004d3929150620004f5565b5090565b6040518060c001604052806006906020820280368337509192915050565b6200051291905b80821115620004d35760008155600101620004fc565b90565b611b9080620005256000396000f3fe608060405234801561001057600080fd5b50600436106102485760003560e01c8063920bee2f1161013b578063db43151d116100b8578063f8ef7b9e1161007c578063f8ef7b9e1461091a578063fa3c251d14610922578063facec57314610943578063fadc51d514610969578063fc27bf4a1461098a57610248565b8063db43151d1461088a578063dcc9ee3f146108b0578063e0480cae146108d5578063e1d64785146108f2578063e81e21bb1461091257610248565b8063b8100e57116100ff578063b8100e5714610715578063be8fcecb1461073e578063c22ee27d14610797578063c5aedd2c1461082d578063cec273851461085257610248565b8063920bee2f14610666578063976daaac14610683578063a3533a4b1461068b578063a69f53b9146106ac578063ab1b7c5e1461070d57610248565b80634e905ea2116101c95780637db8c1891161018d5780637db8c1891461053157806383f19d9814610552578063851baea7146105735780638de97f4f146105945780639159114c146105bd57610248565b80634e905ea2146103fc57806358a2398814610421578063625bd2701461044a578063638a530714610484578063755bfe0d146104df57610248565b80632777d02a116102105780632777d02a1461035f5780632f7c14031461038657806336e31782146103a657806338897858146103cb57806340cd05fd146103f457610248565b806307c30b4d1461024d5780631018d55f1461028457806310bca22c146102b05780631719e3721461031f5780631884332c14610341575b600080fd5b6102726004803603604081101561026357600080fd5b508035906020013515156109ad565b60408051918252519081900360200190f35b6102726004803603606081101561029a57600080fd5b508035906020810135906040013560ff166109d9565b6102cd600480360360208110156102c657600080fd5b50356109f2565b604051808461032080838360005b838110156102f35781810151838201526020016102db565b50505061ffff90961692019182525063ffffffff90921660208301525060408051918290030192509050f35b61033f6004803603602081101561033557600080fd5b503560ff16610a5b565b005b610349610a71565b6040805160ff9092168252519081900360200190f35b6102726004803603604081101561037557600080fd5b508035906020013561ffff16610a76565b61033f6004803603602081101561039c57600080fd5b503560ff16610aec565b610272600480360360408110156103bc57600080fd5b50803590602001351515610b0a565b610272600480360360408110156103e157600080fd5b508035906020013563ffffffff16610b34565b610349610b50565b6102726004803603604081101561041257600080fd5b50803590602001351515610b55565b61033f6004803603604081101561043757600080fd5b5061ffff81358116916020013516610b7f565b61046b6004803603602081101561046057600080fd5b503561ffff16610d4d565b6040805163ffffffff9092168252519081900360200190f35b6104a76004803603602081101561049a57600080fd5b503563ffffffff16610d8a565b604051808260c080838360005b838110156104cc5781810151838201526020016104b4565b5050505090500191505060405180910390f35b61046b600480360360c08110156104f557600080fd5b810190808060c001906006806020026040519081016040528092919082600660200280828437600092019190915250919450610ddd9350505050565b61033f6004803603602081101561054757600080fd5b503561ffff16610e63565b6102726004803603602081101561056857600080fd5b503561ffff16610e85565b6102726004803603602081101561058957600080fd5b503561ffff16610eb1565b610272600480360360408110156105aa57600080fd5b508035906020013563ffffffff16610edd565b61033f60048036036101a08110156105d457600080fd5b60c08201359060e0830135906101008401359061ffff610120860135169060ff610140870135811691610160880135909116908701876101a0810161018082013564010000000081111561062757600080fd5b82018360208201111561063957600080fd5b8035906020019184600183028401116401000000008311171561065b57600080fd5b509092509050610ef7565b6102726004803603602081101561067c57600080fd5b503561145d565b610349611466565b610349600480360360208110156106a157600080fd5b503561ffff1661146b565b61027260048036036103608110156106c357600080fd5b60408051610320818101835284359461ffff602082013516948101939092610360840192909184019060199083908390808284376000920191909152509194506114a59350505050565b610349611563565b6102726004803603604081101561072b57600080fd5b508035906020013563ffffffff16611568565b610272600480360361034081101561075557600080fd5b60408051610320818101909252833593928301929161034083019190602084019060199083908390808284376000920191909152509194506115859350505050565b6107b8600480360360208110156107ad57600080fd5b503561ffff16611644565b6040805160208082528351818301528351919283929083019185019080838360005b838110156107f25781810151838201526020016107da565b50505050905090810190601f16801561081f5780820380516001836020036101000a031916815260200191505b509250505060405180910390f35b6102726004803603604081101561084357600080fd5b508035906020013515156116f9565b6108736004803603602081101561086857600080fd5b503561ffff16611723565b6040805161ffff9092168252519081900360200190f35b610272600480360360408110156108a057600080fd5b508035906020013560ff16611754565b610272600480360360408110156108c657600080fd5b5080359060200135151561176b565b610349600480360360208110156108eb57600080fd5b5035611795565b61033f6004803603602081101561090857600080fd5b503560ff1661182a565b610349611846565b61034961184b565b6103496004803603602081101561093857600080fd5b503561ffff16611850565b6102726004803603604081101561095957600080fd5b508035906020013560ff16611887565b6102726004803603602081101561097f57600080fd5b503561ffff166118f9565b610272600480360360408110156109a057600080fd5b5080359060200135611925565b600081156109c95750600160ad1b198216600160ad1b176109d3565b50600160ad1b1982165b92915050565b60ff1660140290811b620fffff90911b19919091161790565b6109fa611936565b600080805b601960ff82161015610a3f5780600202606e0160ff1685901c600316848260ff1660198110610a2a57fe5b60ff90921660209290920201526001016109ff565b50919360a084901c611fff169360ad1c63ffffffff1692509050565b6002805460ff191660ff92909216919091179055565b600481565b60006120008261ffff1610610ad2576040805162461bcd60e51b815260206004820152601f60248201527f7374616d696e615265636f76657279206d757374206265203c20322a2a313300604482015290519081900360640190fd5b5060a01b61ffff60a01b16611fff60a01b19919091161790565b6002805460ff909216620100000262ff000019909216919091179055565b60008115610b265750600160d51b198216600160d51b176109d3565b50600160d51b1982166109d3565b60b51b63ffffffff60b51b166207ffff60b51b19919091161790565b600081565b60008115610b715750600160b41b198216600160b41b176109d3565b50600160b41b1982166109d3565b6000546040805163e1b27e6b60e01b8152905133926001600160a01b03169163e1b27e6b916004808301926020929190829003018186803b158015610bc357600080fd5b505afa158015610bd7573d6000803e3d6000fd5b505050506040513d6020811015610bed57600080fd5b50516001600160a01b031614610c4a576040805162461bcd60e51b815260206004820181905260248201527f4f6e6c7920434f4f2063616e2063616c6c20746869732066756e6374696f6e2e604482015290519081900360640190fd5b60015461ffff831610610c9d576040805162461bcd60e51b815260206004820152601660248201527506974656d206e6f7420666f756e6420696e2073686f760541b604482015290519081900360640190fd5b600060018361ffff1681548110610cb057fe5b600091825260209091206003600590920201015461ffff908116915082168111610d0b5760405162461bcd60e51b8152600401808060200182810382526052815260200180611ab06052913960600191505060405180910390fd5b8160018461ffff1681548110610d1d57fe5b906000526020600020906005020160030160006101000a81548161ffff021916908361ffff160217905550505050565b600060018261ffff1681548110610d6057fe5b906000526020600020906005020160030160029054906101000a900463ffffffff1690505b919050565b610d92611955565b60005b600560ff821611610dd7578060060260ff168363ffffffff16901c603f16828260ff1660068110610dc257fe5b60ff9092166020929092020152600101610d95565b50919050565b60006004826005602002015160ff1610610e285760405162461bcd60e51b815260040180806020018281038252602f815260200180611b2c602f913960400191505060405180910390fd5b60005b600560ff821611610dd7578060060260ff16838260ff1660068110610e4c57fe5b602002015160ff16901b9190911790600101610e2b565b6002805461ffff90921663010000000264ffff00000019909216919091179055565b600060018261ffff1681548110610e9857fe5b9060005260206000209060050201600101549050919050565b600060018261ffff1681548110610ec457fe5b9060005260206000209060050201600001549050919050565b60cd1b63ffffffff60cd1b1660ff60cd1b19919091161790565b6000546040805163e1b27e6b60e01b8152905133926001600160a01b03169163e1b27e6b916004808301926020929190829003018186803b158015610f3b57600080fd5b505afa158015610f4f573d6000803e3d6000fd5b505050506040513d6020811015610f6557600080fd5b50516001600160a01b031614610fc2576040805162461bcd60e51b815260206004820181905260248201527f4f6e6c7920434f4f2063616e2063616c6c20746869732066756e6374696f6e2e604482015290519081900360640190fd5b60015461ffff116110045760405162461bcd60e51b815260040180806020018281038252602a815260200180611a3e602a913960400191505060405180910390fd5b60005b600560ff8216101561107a5760025460ff908116908b9083166006811061102a57fe5b602002013560ff1660ff1611156110725760405162461bcd60e51b815260040180806020018281038252602f815260200180611a0f602f913960400191505060405180910390fd5b600101611007565b5060025460ff610100909104811660a08b013590911611156110cd5760405162461bcd60e51b815260040180806020018281038252602f815260200180611b2c602f913960400191505060405180910390fd5b60008561ffff161161111d576040805162461bcd60e51b815260206004820152601460248201527363616e6e6f74206f666665722030206974656d7360601b604482015290519081900360640190fd5b60025461ffff63010000009091048116908616111561116d5760405162461bcd60e51b8152600401808060200182810382526024815260200180611a8c6024913960400191505060405180910390fd5b60008460ff16116111af5760405162461bcd60e51b8152600401808060200182810382526024815260200180611a686024913960400191505060405180910390fd5b60025460ff62010000909104811690851611156111fd5760405162461bcd60e51b815260040180806020018281038252602a815260200180611b02602a913960400191505060405180910390fd5b60006112318a6006806020026040519081016040528092919082600660200280828437600092019190915250610ddd915050565b905060016040518061010001604052808b81526020018a81526020018981526020018861ffff1681526020018363ffffffff1681526020018760ff1681526020018660ff16815260200185858080601f016020809104026020016040519081016040528093929190818152602001838380828437600092018290525093909452505083546001808201865594825260209182902084516005909202019081558382015194810194909455604083015160028501556060830151600385018054608086015160a087015160c088015161ffff1990931661ffff9095169490941765ffffffff000019166201000063ffffffff909216919091021766ff0000000000001916660100000000000060ff948516021767ff000000000000001916600160381b939091169290920291909117905560e0830151805193949361137f935060048501929190910190611973565b5050507f65b4cdf3ea8b08f4484bae0ad7e36df34bf1c22a850f1248b430ccfc7b1541e360018080549050038a8a8a8a868b8b8b8b604051808b61ffff1661ffff1681526020018a81526020018981526020018881526020018761ffff1661ffff1681526020018663ffffffff1663ffffffff1681526020018560ff1660ff1681526020018460ff1660ff168152602001806020018281038252848482818152602001925080828437600083820152604051601f909101601f19169092018290039d50909b505050505050505050505050a150505050505050505050565b600160cc1b1790565b600581565b600060018261ffff168154811061147e57fe5b60009182526020909120600590910201600301546601000000000000900460ff1692915050565b60006114b18483611585565b935061ffff83161561155b5760015461ffff841610611510576040805162461bcd60e51b815260206004820152601660248201527506974656d206e6f7420666f756e6420696e2073686f760541b604482015290519081900360640190fd5b61151a8484610a76565b93506115588460018561ffff168154811061153157fe5b906000526020600020906005020160030160029054906101000a900463ffffffff16611568565b93505b509192915050565b600281565b60ad1b63ffffffff60ad1b1663ffffffff60ad1b19919091161790565b6000805b601960ff8216101561155b576004838260ff16601981106115a657fe5b602002015160ff1610611600576040805162461bcd60e51b815260206004820152601b60248201527f7374616d696e615265636f76657279206d757374206265203c20340000000000604482015290519081900360640190fd5b80600202606e0160ff16838260ff166019811061161957fe5b602002015160ff16901b81600202606e0160ff166003901b1985161793508080600101915050611589565b606060018261ffff168154811061165757fe5b6000918252602091829020600460059092020101805460408051601f60026000196101006001871615020190941693909304928301859004850281018501909152818152928301828280156116ed5780601f106116c2576101008083540402835291602001916116ed565b820191906000526020600020905b8154815290600101906020018083116116d057829003601f168201915b50505050509050919050565b600081156117155750600160d61b198216600160d61b176109d3565b50600160d61b1982166109d3565b600060018261ffff168154811061173657fe5b600091825260209091206005909102016003015461ffff1692915050565b60b11b60ff60b11b16600760b11b19919091161790565b600081156117875750600160ac1b198216600160ac1b176109d3565b50600160ac1b1982166109d3565b60008060006117a3846109f2565b92509250508161ffff16600014156117c057600092505050610d85565b60015461ffff8316106117d857600b92505050610d85565b8063ffffffff1660018361ffff16815481106117f057fe5b600091825260209091206005909102016003015462010000900463ffffffff161461182057600b92505050610d85565b5060009392505050565b6002805460ff9092166101000261ff0019909216919091179055565b600381565b600181565b600060018261ffff168154811061186357fe5b6000918252602090912060059091020160030154600160381b900460ff1692915050565b600060088260ff16106118e1576040805162461bcd60e51b815260206004820152601d60248201527f67616d65734e6f6e53746f7070696e67206f7574206f6620626f756e64000000604482015290519081900360640190fd5b5060ae1b60ff60ae1b16600760ae1b19919091161790565b600060018261ffff168154811061190c57fe5b9060005260206000209060050201600201549050919050565b60741b600f60741b19919091161790565b6040518061032001604052806019906020820280368337509192915050565b6040518060c001604052806006906020820280368337509192915050565b828054600181600116156101000203166002900490600052602060002090601f016020900481019282601f106119b457805160ff19168380011785556119e1565b828001600101855582156119e1579182015b828111156119e15782518255916020019190600101906119c6565b506119ed9291506119f1565b5090565b611a0b91905b808211156119ed57600081556001016119f7565b9056fe63616e6e6f74206f66666572206974656d73207468617420626f6f7374206f6e6520736b696c6c20736f206d75636873686f702063616e6e6f7420616363657074206d6f7265207468616e20322a2a31362d31206974656d7363616e6e6f74206f66666572206974656d732074686174206c61737420302067616d657363616e6e6f74206f6666657220736f206d616e79206974656d7320696e206f6e6520676f6e65772076616c756520666f72206974656d7352656d61696e696e67206973206c6172676572207468616e2070726576696f75732076616c75652c207965742063616c6c696e67206974207265647563653f63616e6e6f74206f66666572206974656d732074686174206c61737420736f206d616e792067616d657363616e6e6f74206f66666572206974656d73207468617420626f6f737420706f74656e7469616c20736f206d756368a2646970667358221220b0bfcce85d47869081fa6358636186747421c8cfd49ce9520508c9c50921aaec64736f6c6343000603003363616e6e6f74206f66666572206974656d73207468617420626f6f737420706f74656e7469616c20736f206d756368",
  "source": "pragma solidity >= 0.6.3;\n\nimport \"../encoders/EncodingSkillsSetters.sol\";\nimport \"../encoders/EncodingTacticsBase2.sol\";\nimport \"../storage/Assets.sol\";\nimport \"../gameEngine/ErrorCodes.sol\";\n\n/**\n @title Manages items in shop\n @author Freeverse.io, www.freeverse.io\n*/\n\ncontract Shop is EncodingSkillsSetters, EncodingTacticsBase2, ErrorCodes{\n\n    event ItemOffered(\n        uint16 itemId,\n        uint256 countriesRoot,\n        uint256 championshipsRoot,\n        uint256 teamsRoot,\n        uint16 itemsRemaining,\n        uint32 encodedBoost,\n        uint8 matchesDuration,\n        uint8 onlyTopInChampioniship,\n        string uri\n    );\n\n    uint8 constant public SK_SHO = 0;\n    uint8 constant public SK_SPE = 1;\n    uint8 constant public SK_PAS = 2;\n    uint8 constant public SK_DEF = 3;\n    uint8 constant public SK_END = 4;\n    uint8 constant public N_SKILLS = 5;\n    uint8 constant private PLAYERS_PER_TEAM_MAX = 25;\n\n    struct ShopItem {\n        /// boosts from [0,..4] -> in percentage, order: shoot, speed, pass, defence, endurance\n        /// boosts[5] in units, for potential\n        uint256 countriesRoot;\n        uint256 championshipsRoot;\n        uint256 teamsRoot;\n        uint16 itemsRemaining;\n        uint32 encodedBoost;\n        uint8 matchesDuration;\n        uint8 onlyTopInChampioniship;\n        string uri;\n    }        \n\n    Assets private _assets;\n    ShopItem[] private _shopItems;\n    uint8 maxPercentPerSkill = 50;\n    uint8 maxIncreasePotential = 1;\n    uint8 maxMatchesDuration = 14;\n    uint16 maxItemsInOneOffering = 10000;\n\n    modifier onlyCOO {\n        require( _assets.COO() == msg.sender, \"Only COO can call this function.\");\n            _;\n    }\n  \n    constructor(address assetsAddress) public {\n        _assets = Assets(assetsAddress);\n        _shopItems.push(ShopItem(0, 0, 0, 0, 0, 0, 0, \"\"));\n        /// Adding one item for testing only. TODO: remove from production.\n        uint8[N_SKILLS+1] memory skillsBoost;\n        for (uint8 sk = 0; sk < N_SKILLS; sk++) skillsBoost[sk] = 20;\n        skillsBoost[N_SKILLS] = 1;\n        _shopItems.push(ShopItem(0, 0, 0, 300, encodeBoosts(skillsBoost), 7, 0, \"www.freeverse.io\"));\n    }\n\n    function offerItem(\n        uint8[N_SKILLS+1] calldata skillsBoost,\n        uint256 countriesRoot,\n        uint256 championshipsRoot,\n        uint256 teamsRoot,\n        uint16 itemsRemaining,\n        uint8 matchesDuration,\n        uint8 onlyTopInChampioniship,\n        string calldata uri\n    ) \n        external \n        onlyCOO\n    {\n        require(_shopItems.length < 2**16 - 1, \"shop cannot accept more than 2**16-1 items\");\n        for (uint8 sk = 0; sk < N_SKILLS; sk++) {\n            require(skillsBoost[sk] <= maxPercentPerSkill, \"cannot offer items that boost one skill so much\");\n        }\n        require(skillsBoost[N_SKILLS] <= maxIncreasePotential, \"cannot offer items that boost potential so much\");\n        require(itemsRemaining > 0, \"cannot offer 0 items\");\n        require(itemsRemaining <= maxItemsInOneOffering, \"cannot offer so many items in one go\");\n        require(matchesDuration > 0, \"cannot offer items that last 0 games\");\n        require(matchesDuration <= maxMatchesDuration, \"cannot offer items that last so many games\");\n        uint32 encodedBoost = encodeBoosts(skillsBoost);\n        _shopItems.push(ShopItem(\n            countriesRoot,\n            championshipsRoot,\n            teamsRoot,\n            itemsRemaining,\n            encodedBoost,\n            matchesDuration,\n            onlyTopInChampioniship,\n            uri\n        ));\n        emit ItemOffered(\n            uint16(_shopItems.length - 1),\n            countriesRoot,\n            championshipsRoot,\n            teamsRoot,\n            itemsRemaining,\n            encodedBoost,\n            matchesDuration,\n            onlyTopInChampioniship,\n            uri\n        );\n    }\n    \n    function reduceItemsRemaining(uint16 itemId, uint16 newItemsRemaining) public onlyCOO {\n        require(itemId < _shopItems.length, \"item not found in shop\");\n        uint16 prevItemsRemaining = _shopItems[itemId].itemsRemaining;\n        require(newItemsRemaining < prevItemsRemaining, \"new value for itemsRemaining is larger than previous value, yet calling it reduce?\");\n        _shopItems[itemId].itemsRemaining = newItemsRemaining;\n    }\n    \n    /// View functions\n    \n    function addItemsToTactics(uint256 tactics, uint16 itemId, uint8[PLAYERS_PER_TEAM_MAX] memory staminaRecovery) public view returns(uint256) {\n        tactics = setStaminaRecovery(tactics, staminaRecovery);\n        if (itemId > 0) {\n            require(itemId < _shopItems.length, \"item not found in shop\");\n            tactics = setItemId(tactics, itemId);\n            tactics = setItemBoost(tactics, _shopItems[itemId].encodedBoost);\n        }\n        return tactics;\n    }\n    \n    function validateItemsInTactics(uint256 tactics) public view returns(uint8) {\n        ( , uint16 itemId, uint32 boost) = getItemsData(tactics);\n        if (itemId == 0) return 0;\n        if (itemId >= _shopItems.length) return ERR_SHOP; // item not found in shop\n        if (_shopItems[itemId].encodedBoost != boost) return ERR_SHOP; // tactics refer to an item with mismatching boost properties\n        return 0;\n    }\n    \n    function getEncodedBoost(uint16 itemId) public view returns (uint32) { return _shopItems[itemId].encodedBoost; }\n    function getCountriesRoot(uint16 itemId) public view returns (uint256) { return _shopItems[itemId].countriesRoot; }\n    function getChampionshipsRoot(uint16 itemId) public view returns (uint256) { return _shopItems[itemId].championshipsRoot; }\n    function getTeamsRoot(uint16 itemId) public view returns (uint256) { return _shopItems[itemId].teamsRoot; }\n    function getItemsRemaining(uint16 itemId) public view returns (uint16) { return _shopItems[itemId].itemsRemaining; }\n    function getMatchesDuration(uint16 itemId) public view returns (uint8) { return _shopItems[itemId].matchesDuration; }\n    function getOnlyTopInChampioniship(uint16 itemId) public view returns (uint8) { return _shopItems[itemId].onlyTopInChampioniship; }\n    function getUri(uint16 itemId) public view returns (string memory) { return _shopItems[itemId].uri; }\n    function setMaxPercentPerSkill(uint8 newVal) public { maxPercentPerSkill = newVal; } \n    function setMaxIncreasePotential(uint8 newVal) public { maxIncreasePotential = newVal; } \n    function setMaxMatchesDuration(uint8 newVal) public { maxMatchesDuration = newVal; } \n    function setMaxItemsInOneOffering(uint16 newVal) public { maxItemsInOneOffering = newVal; } \n}\n",
  "sourcePath": "/Users/jurgenkudla/proyects/laos/laos-goal-revolution/truffle-core/contracts/gameEngine/Shop.sol",
  "compiler": {
    "name": "solc",
    "version": "0.6.3+commit.8dda9521.Emscripten.clang"
  },
  "schemaVersion": "3.0.23",
  "updatedAt": "2024-10-16T08:58:34.537Z",
  "networkType": "ethereum",
  "devdoc": {
    "author": "Freeverse.io, www.freeverse.io",
    "methods": {},
    "title": "Manages items in shop"
  },
  "userdoc": {
    "methods": {
      "addItemsToTactics(uint256,uint16,uint8[25])": {
        "notice": "View functions"
      },
      "encodeBoosts(uint8[6])": {
        "notice": "bits: 5 skills * 6b per skill (max 64) + 2b for potential = 32b"
      }
    }
  }
}