{
  "contractName": "SortIdxs",
  "abi": [
    {
      "inputs": [
        {
          "internalType": "uint256[8]",
          "name": "data",
          "type": "uint256[8]"
        },
        {
          "internalType": "uint8[8]",
          "name": "idxs",
          "type": "uint8[8]"
        }
      ],
      "name": "sortIdxs",
      "outputs": [
        {
          "internalType": "uint8[8]",
          "name": "",
          "type": "uint8[8]"
        }
      ],
      "stateMutability": "pure",
      "type": "function"
    },
    {
      "inputs": [
        {
          "internalType": "uint256[8]",
          "name": "arr",
          "type": "uint256[8]"
        },
        {
          "internalType": "uint8[8]",
          "name": "idxs",
          "type": "uint8[8]"
        },
        {
          "internalType": "int256",
          "name": "left",
          "type": "int256"
        },
        {
          "internalType": "int256",
          "name": "right",
          "type": "int256"
        }
      ],
      "name": "quickSort",
      "outputs": [],
      "stateMutability": "pure",
      "type": "function"
    }
  ],
  "bytecode": "0x608060405234801561001057600080fd5b50610350806100206000396000f3fe608060405234801561001057600080fd5b50600436106100365760003560e01c80634743be6c1461003b5780638a5e654f146100c3575b600080fd5b6100c1600480360361024081101561005257600080fd5b8101908080610100019060088060200260405190810160405280929190826008602002808284376000920191909152505060408051610100818101909252929594938181019392509060089083908390808284376000920191909152509194505081359250506020013561017d565b005b61014460048036036102008110156100da57600080fd5b8101908080610100019060088060200260405190810160405280929190826008602002808284376000920191909152505060408051610100818101909252929594938181019392509060089083908390808284376000920191909152509194506102df9350505050565b604051808261010080838360005b8381101561016a578181015183820152602001610152565b5050505090500191505060405180910390f35b81818082141561018e5750506102d9565b6000866002868603058601600881106101a357fe5b602002015190505b8183136102ad575b808784600881106101c057fe5b602002015111156101d6576001909201916101b3565b8682600881106101e257fe5b60200201518111156101fa57600019909101906101d6565b8183136102a85786826008811061020d57fe5b602002015187846008811061021e57fe5b602002015188856008811061022f57fe5b6020020189856008811061023f57fe5b60200201919091525285826008811061025457fe5b602002015186846008811061026557fe5b602002015187856008811061027657fe5b6020020188856008811061028657fe5b60ff938416602091909102919091015291169052600190920191600019909101905b6101ab565b818512156102c1576102c18787878561017d565b838312156102d5576102d58787858761017d565b5050505b50505050565b6102e76102fb565b6102f583836000600761017d565b50919050565b604051806101000160405280600890602082028036833750919291505056fea26469706673582212209f98fdf8f8e4623969c8016fd33e1a6bf62edbaa7953e24617a7222df6a13f9464736f6c63430006030033",
  "source": "pragma solidity >= 0.6.3;\n\n/**\n @title Minimal library to sort a set of 8 Indices\n @author Freeverse.io, www.freeverse.io\n*/\n\ncontract SortIdxs {\n    \n    uint256 constant private N_IDXS = 8;\n    \n    function sortIdxs(uint256[N_IDXS] memory data, uint8[N_IDXS] memory idxs) public pure returns(uint8[N_IDXS] memory) {\n       quickSort(data, idxs, int(0), int(N_IDXS - 1));\n       return idxs;\n    }\n    \n    function quickSort(uint256[N_IDXS] memory arr, uint8[N_IDXS] memory idxs, int left, int right) public pure {\n        int i = left;\n        int j = right;\n        if(i==j) return;\n        uint pivot = arr[uint(left + (right - left) / 2)];\n        while (i <= j) {\n            while (arr[uint(i)] > pivot) i++;\n            while (pivot > arr[uint(j)]) j--;\n            if (i <= j) {\n                (arr[uint(i)], arr[uint(j)]) = (arr[uint(j)], arr[uint(i)]);\n                (idxs[uint(i)], idxs[uint(j)]) = (idxs[uint(j)], idxs[uint(i)]);\n                i++;\n                j--;\n            }\n        }\n        if (left < j)\n            quickSort(arr, idxs, left, j);\n        if (i < right)\n            quickSort(arr, idxs, i, right);\n    }\n\n}\n\n",
  "sourcePath": "/Users/jurgenkudla/proyects/laos/laos-goal-revolution/goalrev-ganache/contracts/gameEngine/SortIdxs.sol",
  "compiler": {
    "name": "solc",
    "version": "0.6.3+commit.8dda9521.Emscripten.clang"
  },
  "schemaVersion": "3.0.23",
  "updatedAt": "2024-10-18T06:09:35.404Z",
  "devdoc": {
    "author": "Freeverse.io, www.freeverse.io",
    "methods": {},
    "title": "Minimal library to sort a set of 8 Indices"
  },
  "userdoc": {
    "methods": {}
  }
}