{
  "contractName": "SortValues",
  "abi": [
    {
      "inputs": [
        {
          "internalType": "uint8[14]",
          "name": "data",
          "type": "uint8[14]"
        }
      ],
      "name": "sort14",
      "outputs": [
        {
          "internalType": "uint8[14]",
          "name": "",
          "type": "uint8[14]"
        }
      ],
      "stateMutability": "pure",
      "type": "function"
    },
    {
      "inputs": [
        {
          "internalType": "uint8[14]",
          "name": "arr",
          "type": "uint8[14]"
        },
        {
          "internalType": "int256",
          "name": "left",
          "type": "int256"
        },
        {
          "internalType": "int256",
          "name": "right",
          "type": "int256"
        }
      ],
      "name": "quickSort14",
      "outputs": [],
      "stateMutability": "pure",
      "type": "function"
    }
  ],
  "bytecode": "0x608060405234801561001057600080fd5b506102b2806100206000396000f3fe608060405234801561001057600080fd5b50600436106100365760003560e01c806352e550131461003b578063b190da54146100c8575b600080fd5b61008f60048036036101c081101561005257600080fd5b81019080806101c00190600e806020026040519081016040528092919082600e602002808284376000920191909152509194506101239350505050565b60405180826101c080838360005b838110156100b557818101518382015260200161009d565b5050505090500191505060405180910390f35b61012160048036036102008110156100df57600080fd5b81019080806101c00190600e806020026040519081016040528092919082600e602002808284376000920191909152509194505081359250506020013561013c565b005b61012b61025d565b610138826000600d61013c565b5090565b81818082141561014d575050610258565b6000856002868603058601600e811061016257fe5b602002015160ff1690505b81831361022e575b808684600e811061018257fe5b602002015160ff16111561019b57600190920191610175565b8582600e81106101a757fe5b602002015160ff168111156101c2576000199091019061019b565b818313610229578582600e81106101d557fe5b60200201518684600e81106101e657fe5b60200201518785600e81106101f757fe5b602002018885600e811061020757fe5b60ff938416602091909102919091015291169052600190920191600019909101905b61016d565b818512156102415761024186868461013c565b838312156102545761025486848661013c565b5050505b505050565b604051806101c00160405280600e90602082028036833750919291505056fea2646970667358221220590c967e693943094d7c64b6c4eccc3d5ba2faa5e3fba54aee8f41172d5fd17864736f6c63430006030033",
  "source": "pragma solidity >= 0.6.3;\n\n/**\n @title Minimal library to sort a set of 14 values\n @author Freeverse.io, www.freeverse.io\n*/\n\ncontract SortValues {\n    \n    function sort14(uint8[14] memory data) public pure returns(uint8[14] memory) {\n       quickSort14(data, int(0), int(13));\n       return data;\n    }\n    \n    function quickSort14(uint8[14] memory arr, int left, int right) public pure {\n        int i = left;\n        int j = right;\n        if(i==j) return;\n        uint pivot = arr[uint(left + (right - left) / 2)];\n        while (i <= j) {\n            while (arr[uint(i)] > pivot) i++;\n            while (pivot > arr[uint(j)]) j--;\n            if (i <= j) {\n                (arr[uint(i)], arr[uint(j)]) = (arr[uint(j)], arr[uint(i)]);\n                i++;\n                j--;\n            }\n        }\n        if (left < j)\n            quickSort14(arr, left, j);\n        if (i < right)\n            quickSort14(arr, i, right);\n    }\n\n}\n\n",
  "sourcePath": "/Users/jurgenkudla/proyects/laos/laos-goal-revolution/truffle-core/contracts/gameEngine/SortValues.sol",
  "compiler": {
    "name": "solc",
    "version": "0.6.3+commit.8dda9521.Emscripten.clang"
  },
  "schemaVersion": "3.0.23",
  "updatedAt": "2024-10-16T06:02:47.938Z",
  "devdoc": {
    "author": "Freeverse.io, www.freeverse.io",
    "methods": {},
    "title": "Minimal library to sort a set of 14 values"
  },
  "userdoc": {
    "methods": {}
  }
}