{
  "contractName": "SortValues25",
  "abi": [
    {
      "inputs": [
        {
          "internalType": "uint256[25]",
          "name": "data",
          "type": "uint256[25]"
        }
      ],
      "name": "sort25",
      "outputs": [
        {
          "internalType": "uint256[25]",
          "name": "",
          "type": "uint256[25]"
        }
      ],
      "stateMutability": "pure",
      "type": "function"
    },
    {
      "inputs": [
        {
          "internalType": "uint256[25]",
          "name": "arr",
          "type": "uint256[25]"
        },
        {
          "internalType": "int256",
          "name": "left",
          "type": "int256"
        },
        {
          "internalType": "int256",
          "name": "right",
          "type": "int256"
        }
      ],
      "name": "quickSort25",
      "outputs": [],
      "stateMutability": "pure",
      "type": "function"
    }
  ],
  "bytecode": "0x608060405234801561001057600080fd5b5061029e806100206000396000f3fe608060405234801561001057600080fd5b50600436106100365760003560e01c806320ba0fab1461003b57806388438b0014610096575b600080fd5b610094600480360361036081101561005257600080fd5b81019080806103200190601980602002604051908101604052809291908260196020028082843760009201919091525091945050813592505060200135610123565b005b6100ea60048036036103208110156100ad57600080fd5b8101908080610320019060198060200260405190810160405280929190826019602002808284376000920191909152509194506102309350505050565b604051808261032080838360005b838110156101105781810151838201526020016100f8565b5050505090500191505060405180910390f35b81818082141561013457505061022b565b60008560028686030586016019811061014957fe5b602002015190505b818313610201575b8086846019811061016657fe5b6020020151111561017c57600190920191610159565b85826019811061018857fe5b60200201518111156101a0576000199091019061017c565b8183136101fc578582601981106101b357fe5b60200201518684601981106101c457fe5b60200201518785601981106101d557fe5b602002018885601981106101e557fe5b602002019190915252600190920191600019909101905b610151565b8185121561021457610214868684610123565b8383121561022757610227868486610123565b5050505b505050565b610238610249565b6102458260006018610123565b5090565b604051806103200160405280601990602082028036833750919291505056fea2646970667358221220b6d6b3cb843302a42969bd238c9e1610073fe0bb423ee2e073f1133cf4e6fdeb64736f6c63430006030033",
  "source": "pragma solidity >= 0.6.3;\n\n/**\n @title Minimal library to sort a set of 25 values\n @author Freeverse.io, www.freeverse.io\n*/\n\ncontract SortValues25 {\n    \n    function sort25(uint256[25] memory data) public pure returns(uint256[25] memory) {\n       quickSort25(data, int(0), int(24));\n       return data;\n    }\n    \n    function quickSort25(uint256[25] memory arr, int left, int right) public pure {\n        int i = left;\n        int j = right;\n        if(i==j) return;\n        uint pivot = arr[uint(left + (right - left) / 2)];\n        while (i <= j) {\n            while (arr[uint(i)] > pivot) i++;\n            while (pivot > arr[uint(j)]) j--;\n            if (i <= j) {\n                (arr[uint(i)], arr[uint(j)]) = (arr[uint(j)], arr[uint(i)]);\n                i++;\n                j--;\n            }\n        }\n        if (left < j)\n            quickSort25(arr, left, j);\n        if (i < right)\n            quickSort25(arr, i, right);\n    }\n\n}\n\n",
  "sourcePath": "/Users/jurgenkudla/proyects/laos/laos-goal-revolution/goalrev-ganache/contracts/gameEngine/SortValues25.sol",
  "compiler": {
    "name": "solc",
    "version": "0.6.3+commit.8dda9521.Emscripten.clang"
  },
  "schemaVersion": "3.0.23",
  "updatedAt": "2024-10-18T06:09:35.410Z",
  "devdoc": {
    "author": "Freeverse.io, www.freeverse.io",
    "methods": {},
    "title": "Minimal library to sort a set of 25 values"
  },
  "userdoc": {
    "methods": {}
  }
}