{
  "contractName": "SortIdxsAnySize",
  "abi": [
    {
      "inputs": [
        {
          "internalType": "uint256[]",
          "name": "data",
          "type": "uint256[]"
        },
        {
          "internalType": "uint8[]",
          "name": "idxs",
          "type": "uint8[]"
        }
      ],
      "name": "sortIdxs",
      "outputs": [
        {
          "internalType": "uint8[]",
          "name": "",
          "type": "uint8[]"
        }
      ],
      "stateMutability": "pure",
      "type": "function"
    },
    {
      "inputs": [
        {
          "internalType": "uint256[]",
          "name": "arr",
          "type": "uint256[]"
        },
        {
          "internalType": "uint8[]",
          "name": "idxs",
          "type": "uint8[]"
        },
        {
          "internalType": "int256",
          "name": "left",
          "type": "int256"
        },
        {
          "internalType": "int256",
          "name": "right",
          "type": "int256"
        }
      ],
      "name": "quickSort",
      "outputs": [],
      "stateMutability": "pure",
      "type": "function"
    }
  ],
  "bytecode": "0x608060405234801561001057600080fd5b506104ac806100206000396000f3fe608060405234801561001057600080fd5b50600436106100365760003560e01c806306e70ea31461003b5780630c368af8146101ae575b600080fd5b61015e6004803603604081101561005157600080fd5b810190602081018135600160201b81111561006b57600080fd5b82018360208201111561007d57600080fd5b803590602001918460208302840111600160201b8311171561009e57600080fd5b9190808060200260200160405190810160405280939291908181526020018383602002808284376000920191909152509295949360208101935035915050600160201b8111156100ed57600080fd5b8201836020820111156100ff57600080fd5b803590602001918460208302840111600160201b8311171561012057600080fd5b9190808060200260200160405190810160405280939291908181526020018383602002808284376000920191909152509295506102d8945050505050565b60408051602080825283518183015283519192839290830191858101910280838360005b8381101561019a578181015183820152602001610182565b505050509050019250505060405180910390f35b6102d6600480360360808110156101c457600080fd5b810190602081018135600160201b8111156101de57600080fd5b8201836020820111156101f057600080fd5b803590602001918460208302840111600160201b8311171561021157600080fd5b9190808060200260200160405190810160405280939291908181526020018383602002808284376000920191909152509295949360208101935035915050600160201b81111561026057600080fd5b82018360208201111561027257600080fd5b803590602001918460208302840111600160201b8311171561029357600080fd5b91908080602002602001604051908101604052809392919081815260200183836020028082843760009201919091525092955050823593505050602001356102f1565b005b60606102eb8383600060018751036102f1565b50919050565b818180821415610302575050610470565b60008660028686030586018151811061031757fe5b602002602001015190505b818313610444575b8087848151811061033757fe5b602002602001015111156103505760019092019161032a565b86828151811061035c57fe5b60200260200101518111156103775760001990910190610350565b81831361043f5786828151811061038a57fe5b602002602001015187848151811061039e57fe5b60200260200101518885815181106103b257fe5b602002602001018985815181106103c557fe5b60200260200101828152508281525050508582815181106103e257fe5b60200260200101518684815181106103f657fe5b602002602001015187858151811061040a57fe5b6020026020010188858151811061041d57fe5b60ff938416602091820292909201015291169052600190920191600019909101905b610322565b8185121561045857610458878787856102f1565b8383121561046c5761046c878785876102f1565b5050505b5050505056fea2646970667358221220f2e2dcabe350aeb472f521a51be7b2fc3d69a8a5ece68b92afbd89138f59e1c164736f6c63430006030033",
  "source": "pragma solidity >= 0.6.3;\n\n/**\n @title Minimal library to sort an arbitrary number Indices\n @author Freeverse.io, www.freeverse.io\n*/\n\ncontract SortIdxsAnySize {\n    \n    function sortIdxs(uint256[] memory data, uint8[] memory idxs) public pure returns(uint8[] memory) {\n       quickSort(data, idxs, int(0), int(data.length - 1));\n       return idxs;\n    }\n    \n    function quickSort(uint256[] memory arr, uint8[] memory idxs, int left, int right) public pure {\n        int i = left;\n        int j = right;\n        if(i==j) return;\n        uint pivot = arr[uint(left + (right - left) / 2)];\n        while (i <= j) {\n            while (arr[uint(i)] > pivot) i++;\n            while (pivot > arr[uint(j)]) j--;\n            if (i <= j) {\n                (arr[uint(i)], arr[uint(j)]) = (arr[uint(j)], arr[uint(i)]);\n                (idxs[uint(i)], idxs[uint(j)]) = (idxs[uint(j)], idxs[uint(i)]);\n                i++;\n                j--;\n            }\n        }\n        if (left < j)\n            quickSort(arr, idxs, left, j);\n        if (i < right)\n            quickSort(arr, idxs, i, right);\n    }\n\n}\n\n",
  "sourcePath": "/Users/jurgenkudla/proyects/laos/laos-goal-revolution/truffle-core/contracts/gameEngine/SortIdxsAnySize.sol",
  "compiler": {
    "name": "solc",
    "version": "0.6.3+commit.8dda9521.Emscripten.clang"
  },
  "schemaVersion": "3.0.23",
  "updatedAt": "2024-10-16T06:02:47.935Z",
  "devdoc": {
    "author": "Freeverse.io, www.freeverse.io",
    "methods": {},
    "title": "Minimal library to sort an arbitrary number Indices"
  },
  "userdoc": {
    "methods": {}
  }
}