{
  "contractName": "Stakers",
  "abi": [
    {
      "inputs": [
        {
          "internalType": "address",
          "name": "_assetsAddress",
          "type": "address"
        },
        {
          "internalType": "uint256",
          "name": "_stake",
          "type": "uint256"
        }
      ],
      "stateMutability": "nonpayable",
      "type": "constructor"
    },
    {
      "anonymous": false,
      "inputs": [
        {
          "indexed": false,
          "internalType": "address",
          "name": "staker",
          "type": "address"
        }
      ],
      "name": "AddedRewardToUpdater",
      "type": "event"
    },
    {
      "anonymous": false,
      "inputs": [
        {
          "indexed": false,
          "internalType": "address",
          "name": "party",
          "type": "address"
        }
      ],
      "name": "AddedTrustedParty",
      "type": "event"
    },
    {
      "anonymous": false,
      "inputs": [],
      "name": "FinalizedGameRound",
      "type": "event"
    },
    {
      "anonymous": false,
      "inputs": [
        {
          "indexed": false,
          "internalType": "address",
          "name": "staker",
          "type": "address"
        }
      ],
      "name": "NewEnrol",
      "type": "event"
    },
    {
      "anonymous": false,
      "inputs": [
        {
          "indexed": false,
          "internalType": "uint16",
          "name": "level",
          "type": "uint16"
        }
      ],
      "name": "NewGameLevel",
      "type": "event"
    },
    {
      "anonymous": false,
      "inputs": [
        {
          "indexed": false,
          "internalType": "address",
          "name": "newOwner",
          "type": "address"
        }
      ],
      "name": "NewGameOwner",
      "type": "event"
    },
    {
      "anonymous": false,
      "inputs": [
        {
          "indexed": false,
          "internalType": "address",
          "name": "staker",
          "type": "address"
        }
      ],
      "name": "NewUnenrol",
      "type": "event"
    },
    {
      "anonymous": false,
      "inputs": [
        {
          "indexed": false,
          "internalType": "uint256",
          "name": "newBalance",
          "type": "uint256"
        }
      ],
      "name": "PotBalanceChange",
      "type": "event"
    },
    {
      "anonymous": false,
      "inputs": [],
      "name": "RewardsExecuted",
      "type": "event"
    },
    {
      "anonymous": false,
      "inputs": [
        {
          "indexed": false,
          "internalType": "address",
          "name": "slashedStaker",
          "type": "address"
        },
        {
          "indexed": false,
          "internalType": "address",
          "name": "goodStaker",
          "type": "address"
        }
      ],
      "name": "SlashedBy",
      "type": "event"
    },
    {
      "inputs": [],
      "name": "gameOwner",
      "outputs": [
        {
          "internalType": "address",
          "name": "",
          "type": "address"
        }
      ],
      "stateMutability": "view",
      "type": "function",
      "constant": true
    },
    {
      "inputs": [
        {
          "internalType": "address",
          "name": "",
          "type": "address"
        }
      ],
      "name": "howManyUpdates",
      "outputs": [
        {
          "internalType": "uint256",
          "name": "",
          "type": "uint256"
        }
      ],
      "stateMutability": "view",
      "type": "function",
      "constant": true
    },
    {
      "inputs": [
        {
          "internalType": "address",
          "name": "",
          "type": "address"
        }
      ],
      "name": "isSlashed",
      "outputs": [
        {
          "internalType": "bool",
          "name": "",
          "type": "bool"
        }
      ],
      "stateMutability": "view",
      "type": "function",
      "constant": true
    },
    {
      "inputs": [
        {
          "internalType": "address",
          "name": "",
          "type": "address"
        }
      ],
      "name": "isStaker",
      "outputs": [
        {
          "internalType": "bool",
          "name": "",
          "type": "bool"
        }
      ],
      "stateMutability": "view",
      "type": "function",
      "constant": true
    },
    {
      "inputs": [
        {
          "internalType": "address",
          "name": "",
          "type": "address"
        }
      ],
      "name": "isTrustedParty",
      "outputs": [
        {
          "internalType": "bool",
          "name": "",
          "type": "bool"
        }
      ],
      "stateMutability": "view",
      "type": "function",
      "constant": true
    },
    {
      "inputs": [],
      "name": "nStakers",
      "outputs": [
        {
          "internalType": "uint256",
          "name": "",
          "type": "uint256"
        }
      ],
      "stateMutability": "view",
      "type": "function",
      "constant": true
    },
    {
      "inputs": [
        {
          "internalType": "address",
          "name": "",
          "type": "address"
        }
      ],
      "name": "pendingWithdrawals",
      "outputs": [
        {
          "internalType": "uint256",
          "name": "",
          "type": "uint256"
        }
      ],
      "stateMutability": "view",
      "type": "function",
      "constant": true
    },
    {
      "inputs": [],
      "name": "potBalance",
      "outputs": [
        {
          "internalType": "uint256",
          "name": "",
          "type": "uint256"
        }
      ],
      "stateMutability": "view",
      "type": "function",
      "constant": true
    },
    {
      "inputs": [],
      "name": "requiredStake",
      "outputs": [
        {
          "internalType": "uint256",
          "name": "",
          "type": "uint256"
        }
      ],
      "stateMutability": "view",
      "type": "function",
      "constant": true
    },
    {
      "inputs": [
        {
          "internalType": "address",
          "name": "",
          "type": "address"
        }
      ],
      "name": "stakes",
      "outputs": [
        {
          "internalType": "uint256",
          "name": "",
          "type": "uint256"
        }
      ],
      "stateMutability": "view",
      "type": "function",
      "constant": true
    },
    {
      "inputs": [
        {
          "internalType": "uint256",
          "name": "",
          "type": "uint256"
        }
      ],
      "name": "toBeRewarded",
      "outputs": [
        {
          "internalType": "address",
          "name": "",
          "type": "address"
        }
      ],
      "stateMutability": "view",
      "type": "function",
      "constant": true
    },
    {
      "inputs": [],
      "name": "totalNumUpdates",
      "outputs": [
        {
          "internalType": "uint256",
          "name": "",
          "type": "uint256"
        }
      ],
      "stateMutability": "view",
      "type": "function",
      "constant": true
    },
    {
      "inputs": [
        {
          "internalType": "uint256",
          "name": "",
          "type": "uint256"
        }
      ],
      "name": "updaters",
      "outputs": [
        {
          "internalType": "address",
          "name": "",
          "type": "address"
        }
      ],
      "stateMutability": "view",
      "type": "function",
      "constant": true
    },
    {
      "inputs": [
        {
          "internalType": "address",
          "name": "_address",
          "type": "address"
        }
      ],
      "name": "setGameOwner",
      "outputs": [],
      "stateMutability": "nonpayable",
      "type": "function"
    },
    {
      "inputs": [],
      "name": "executeReward",
      "outputs": [],
      "stateMutability": "nonpayable",
      "type": "function"
    },
    {
      "inputs": [],
      "name": "withdraw",
      "outputs": [],
      "stateMutability": "nonpayable",
      "type": "function"
    },
    {
      "inputs": [
        {
          "internalType": "address",
          "name": "_addr",
          "type": "address"
        }
      ],
      "name": "assertGoodCandidate",
      "outputs": [],
      "stateMutability": "view",
      "type": "function",
      "constant": true
    },
    {
      "inputs": [
        {
          "internalType": "address",
          "name": "_staker",
          "type": "address"
        }
      ],
      "name": "addTrustedParty",
      "outputs": [],
      "stateMutability": "nonpayable",
      "type": "function"
    },
    {
      "inputs": [],
      "name": "enrol",
      "outputs": [],
      "stateMutability": "payable",
      "type": "function",
      "payable": true
    },
    {
      "inputs": [],
      "name": "unEnroll",
      "outputs": [],
      "stateMutability": "nonpayable",
      "type": "function"
    },
    {
      "inputs": [
        {
          "internalType": "uint16",
          "name": "_level",
          "type": "uint16"
        },
        {
          "internalType": "address",
          "name": "_staker",
          "type": "address"
        }
      ],
      "name": "update",
      "outputs": [],
      "stateMutability": "nonpayable",
      "type": "function"
    },
    {
      "inputs": [],
      "name": "finalize",
      "outputs": [],
      "stateMutability": "nonpayable",
      "type": "function"
    },
    {
      "inputs": [],
      "name": "addRewardToPot",
      "outputs": [],
      "stateMutability": "payable",
      "type": "function",
      "payable": true
    },
    {
      "inputs": [
        {
          "internalType": "address",
          "name": "_address",
          "type": "address"
        }
      ],
      "name": "alreadyDidUpdate",
      "outputs": [
        {
          "internalType": "bool",
          "name": "",
          "type": "bool"
        }
      ],
      "stateMutability": "view",
      "type": "function",
      "constant": true
    },
    {
      "inputs": [],
      "name": "level",
      "outputs": [
        {
          "internalType": "uint16",
          "name": "",
          "type": "uint16"
        }
      ],
      "stateMutability": "view",
      "type": "function",
      "constant": true
    }
  ],
  "bytecode": "0x608060405234801561001057600080fd5b50604051611a8c380380611a8c8339818101604052604081101561003357600080fd5b508051602090910151600080546001600160a01b0319166001600160a01b03909316929092178255600955611a1e90819061006e90396000f3fe6080604052600436106101665760003560e01c806374f819af116100d1578063b799036c1161008a578063d7dc80cf11610064578063d7dc80cf146104a7578063d976a4ea146104bc578063f3f43703146104ef578063f6b12f281461052257610166565b8063b799036c14610417578063be6165591461044a578063cf3ec0931461047457610166565b806374f819af1461033957806375fe1c801461036c57806382cb6229146103815780638345b248146103c75780639db37cca146103dc578063b0f8a7e91461040f57610166565b80634111a197116101235780634111a197146102365780634bb278f31461024b5780634f74501a14610260578063693a064e146102935780636f1e8533146102c65780636fd5ae151461030d57610166565b8063061978c41461016b57806316934fc4146101aa57806319cb355d146101ef5780632413118e1461020457806324b4f2d21461020c5780633ccfd60b14610221575b600080fd5b34801561017757600080fd5b506101a86004803603604081101561018e57600080fd5b50803561ffff1690602001356001600160a01b0316610537565b005b3480156101b657600080fd5b506101dd600480360360208110156101cd57600080fd5b50356001600160a01b03166107a2565b60408051918252519081900360200190f35b3480156101fb57600080fd5b506101dd6107b4565b6101a86107ba565b34801561021857600080fd5b506101a86108de565b34801561022d57600080fd5b506101a8610a06565b34801561024257600080fd5b506101dd610a91565b34801561025757600080fd5b506101a8610a97565b34801561026c57600080fd5b506101dd6004803603602081101561028357600080fd5b50356001600160a01b0316610c0e565b34801561029f57600080fd5b506101a8600480360360208110156102b657600080fd5b50356001600160a01b0316610c20565b3480156102d257600080fd5b506102f9600480360360208110156102e957600080fd5b50356001600160a01b0316610d50565b604080519115158252519081900360200190f35b34801561031957600080fd5b50610322610d65565b6040805161ffff9092168252519081900360200190f35b34801561034557600080fd5b506101a86004803603602081101561035c57600080fd5b50356001600160a01b0316610d6c565b34801561037857600080fd5b506101a8610edc565b34801561038d57600080fd5b506103ab600480360360208110156103a457600080fd5b50356110f7565b604080516001600160a01b039092168252519081900360200190f35b3480156103d357600080fd5b506101dd61111e565b3480156103e857600080fd5b506102f9600480360360208110156103ff57600080fd5b50356001600160a01b0316611124565b6101a8611181565b34801561042357600080fd5b506102f96004803603602081101561043a57600080fd5b50356001600160a01b0316611214565b34801561045657600080fd5b506103ab6004803603602081101561046d57600080fd5b5035611229565b34801561048057600080fd5b506101a86004803603602081101561049757600080fd5b50356001600160a01b0316611236565b3480156104b357600080fd5b506101dd6113bd565b3480156104c857600080fd5b506102f9600480360360208110156104df57600080fd5b50356001600160a01b03166113c3565b3480156104fb57600080fd5b506101dd6004803603602081101561051257600080fd5b50356001600160a01b03166113d8565b34801561052e57600080fd5b506103ab6113ea565b6001546001600160a01b03163314801561055b57506001546001600160a01b031615155b6105965760405162461bcd60e51b81526004018080602001828103825260268152602001806118466026913960400191505060405180910390fd5b61059e610d65565b61ffff168261ffff1611156105fa576040805162461bcd60e51b815260206004820152601d60248201527f6661696c656420746f207570646174653a2077726f6e67206c6576656c000000604482015290519081900360640190fd5b6001600160a01b03811660009081526002602052604090205460ff166106515760405162461bcd60e51b81526004018080602001828103825260278152602001806117816027913960400191505060405180910390fd5b61065a81611124565b156106965760405162461bcd60e51b81526004018080602001828103825260248152602001806117d56024913960400191505060405180910390fd5b61069e610d65565b61ffff168261ffff161015610714576002826106b8610d65565b0361ffff16816106c457fe5b0661ffff166000146107075760405162461bcd60e51b81526004018080602001828103825260278152602001806117f96027913960400191505060405180910390fd5b61070f6113f9565b610696565b600d80546001810182556000919091527fd7b6990105719101dabeb77144f2a3385c8033acd3af97e9423a695e81ad1eb50180546001600160a01b0319166001600160a01b0383161790557f7161625581e4ce55b71c65d1c5bd9b8c2bfadbb3604a2bcf5718f59c6fe74a12610788610d65565b6040805161ffff9092168252519081900360200190a15050565b60056020526000908152604090205481565b60095481565b6107c333610c20565b60095434146108035760405162461bcd60e51b81526004018080602001828103825260238152602001806119c66023913960400191505060405180910390fd5b3360009081526004602052604090205460ff166108515760405162461bcd60e51b815260040180806020018281038252602c8152602001806118b4602c913960400191505060405180910390fd5b61085a33611424565b6108955760405162461bcd60e51b81526004018080602001828103825260228152602001806118926022913960400191505060405180910390fd5b33600081815260056020908152604091829020349055815192835290517f8754e3ccdd21de68029e60570e57457c932805ad6f0a8f191f7852bfcaa98aa09281900390910190a1565b6108e733611124565b156109235760405162461bcd60e51b815260040180806020018281038252602d8152602001806117a8602d913960400191505060405180910390fd5b61092c33611496565b610972576040805162461bcd60e51b815260206004820152601260248201527119985a5b1959081d1bc81d5b995b9c9bdb1b60721b604482015290519081900360640190fd5b336000908152600560208181526040808420805460068452918520805490869055939092529290550180156109d057604051339082156108fc029083906000818181858888f193505050501580156109ce573d6000803e3d6000fd5b505b6040805133815290517f3deb547c3f72beb451d0548a94c7452bfc0c5dbc021623c770804ba52808be769181900360200190a150565b3360009081526006602052604090205480610a525760405162461bcd60e51b81526004018080602001828103825260268152602001806118206026913960400191505060405180910390fd5b336000818152600660205260408082208290555183156108fc0291849190818181858888f19350505050158015610a8d573d6000803e3d6000fd5b5050565b600a5481565b6001546001600160a01b031633148015610abb57506001546001600160a01b031615155b610af65760405162461bcd60e51b81526004018080602001828103825260268152602001806118466026913960400191505060405180910390fd5b6000610b00610d65565b61ffff1611610b56576040805162461bcd60e51b815260206004820152601f60248201527f6661696c656420746f2066696e616c697a653a2077726f6e67206c6576656c00604482015290519081900360640190fd5b6001610b60610d65565b61ffff161115610b7757610b726113f9565b610b56565b610b7f610d65565b61ffff1660011415610b9b57610b9b610b96611505565b6115a2565b610ba3610d65565b61ffff1615610be35760405162461bcd60e51b81526004018080602001828103825260358152602001806119156035913960400191505060405180910390fd5b6040517f0dc294e41643a528de7c56878244da89327e2164ace6cc787d5caec63a5cebf890600090a1565b60076020526000908152604090205481565b6001600160a01b038116610c74576040805162461bcd60e51b815260206004820152601660248201527531b0b73234b230ba329034b990373ab6361030b2323960511b604482015290519081900360640190fd5b6001600160a01b03811660009081526003602052604090205460ff1615610ce2576040805162461bcd60e51b815260206004820181905260248201527f63616e6469646174652077617320736c61736865642070726576696f75736c79604482015290519081900360640190fd5b6001600160a01b03811660009081526005602052604090205415610d4d576040805162461bcd60e51b815260206004820152601d60248201527f63616e64696461746520616c7265616479206861732061207374616b65000000604482015290519081900360640190fd5b50565b60026020526000908152604090205460ff1681565b600d545b90565b6000546040805163e1b27e6b60e01b8152905133926001600160a01b03169163e1b27e6b916004808301926020929190829003018186803b158015610db057600080fd5b505afa158015610dc4573d6000803e3d6000fd5b505050506040513d6020811015610dda57600080fd5b50516001600160a01b031614610e37576040805162461bcd60e51b815260206004820181905260248201527f4f6e6c7920434f4f2063616e2063616c6c20746869732066756e6374696f6e2e604482015290519081900360640190fd5b6001600160a01b038116610e88576040805162461bcd60e51b81526020600482015260136024820152720696e76616c696420616464726573732030783606c1b604482015290519081900360640190fd5b600180546001600160a01b0383166001600160a01b0319909116811790915560408051918252517f48b704ae901d313bf2fe5ee30367d744f7237999aca34bd006bc5be1690698b49181900360200190a150565b6000546040805163e1b27e6b60e01b8152905133926001600160a01b03169163e1b27e6b916004808301926020929190829003018186803b158015610f2057600080fd5b505afa158015610f34573d6000803e3d6000fd5b505050506040513d6020811015610f4a57600080fd5b50516001600160a01b031614610fa7576040805162461bcd60e51b815260206004820181905260248201527f4f6e6c7920434f4f2063616e2063616c6c20746869732066756e6374696f6e2e604482015290519081900360640190fd5b600c54610fe55760405162461bcd60e51b815260040180806020018281038252602681526020018061186c6026913960400191505060405180910390fd5b600c54600a5410156110285760405162461bcd60e51b815260040180806020018281038252603681526020018061194a6036913960400191505060405180910390fd5b60005b600c548110156110b5576000600c828154811061104457fe5b6000918252602080832090910154600b546001600160a01b039091168084526007909252604090922054600a54919350028161107c57fe5b6001600160a01b03909216600090815260066020908152604080832080549490950493909301909355600790925281205560010161102b565b506110c2600c6000611749565b6000600a819055600b8190556040517f3b54817e68795fca04f7bee42f7ada13abe9e51df11662408cbb383be27840609190a1565b600d818154811061110457fe5b6000918252602090912001546001600160a01b0316905081565b600b5481565b6000805b600d5481101561117657826001600160a01b0316600d828154811061114957fe5b6000918252602090912001546001600160a01b0316141561116e57600191505061117c565b600101611128565b50600090505b919050565b600034116111d6576040805162461bcd60e51b815260206004820152601c60248201527f6661696c656420746f2061646420726577617264206f66207a65726f00000000604482015290519081900360640190fd5b600a805434019081905560408051918252517fd63275b631798d647b5ae4eb8ac90c68e9b5454f677ee296c4a0f66aa78e3e959181900360200190a1565b60036020526000908152604090205460ff1681565b600c818154811061110457fe5b6000546040805163e1b27e6b60e01b8152905133926001600160a01b03169163e1b27e6b916004808301926020929190829003018186803b15801561127a57600080fd5b505afa15801561128e573d6000803e3d6000fd5b505050506040513d60208110156112a457600080fd5b50516001600160a01b031614611301576040805162461bcd60e51b815260206004820181905260248201527f4f6e6c7920434f4f2063616e2063616c6c20746869732066756e6374696f6e2e604482015290519081900360640190fd5b61130a33610c20565b6001600160a01b03811660009081526004602052604090205460ff16156113625760405162461bcd60e51b81526004018080602001828103825260358152602001806118e06035913960400191505060405180910390fd5b6001600160a01b038116600081815260046020908152604091829020805460ff19166001179055815192835290517faf1c3680297892e1644af7b2bd21650b8ad8e2ba17ef4a31bac868a858a05cb59281900390910190a150565b60085481565b60046020526000908152604090205460ff1681565b60066020526000908152604090205481565b6001546001600160a01b031681565b6000611403611505565b9050600061140f611505565b905061141b828261166e565b610a8d816116e1565b60006001600160a01b03821661143c5750600061117c565b6001600160a01b03821660009081526002602052604090205460ff16156114655750600061117c565b506001600160a01b03166000908152600260205260409020805460ff19166001908117909155600880548201905590565b60006001600160a01b0382166114ae5750600061117c565b6001600160a01b03821660009081526002602052604090205460ff166114d65750600061117c565b506001600160a01b03166000908152600260205260409020805460ff1916905560088054600019019055600190565b600d54600090806115475760405162461bcd60e51b81526004018080602001828103825260258152602001806119806025913960400191505060405180910390fd5b600d600182038154811061155757fe5b600091825260209091200154600d80546001600160a01b039092169350908061157c57fe5b600082815260209020810160001990810180546001600160a01b03191690550190555090565b6001600160a01b03811660009081526007602052604090205461160b57600c80546001810182556000919091527fdf6966c971051c3d54ec59162606531493a51404a002842f56009d7e5cf4a8c70180546001600160a01b0319166001600160a01b0383161790555b6001600160a01b03811660008181526007602090815260409182902080546001908101909155600b80549091019055815192835290517f682847f475cba4cbd304d31ea219fb592c34053bb753d89c8b2d080d9a1e79c99281900390910190a150565b6001600160a01b038082166000818152600560209081526040808320805490849055948716808452600683529281902080548601905580519384529083019190915280517fb8e11ff3a80a431d90417a4485036b266b179e9a8f8246169241d9cab7488dc69281900390910190a1505050565b6116ea81611496565b6117255760405162461bcd60e51b81526004018080602001828103825260218152602001806119a56021913960400191505060405180910390fd5b6001600160a01b03166000908152600360205260409020805460ff19166001179055565b5080546000825590600052602060002090810190610d4d9190610d6991905b8082111561177c5760008155600101611768565b509056fe6661696c656420746f207570646174653a207374616b6572206e6f7420726567697374657265646661696c656420746f20756e656e726f6c6c3a207374616b65722063757272656e746c79207570646174696e677374616b65722068617320616c7265616479207570646174656420746869732067616d656661696c656420746f207570646174653a207265736f6c76696e672077726f6e67206c6576656c6e6f7468696e6720746f2077697468647261772062792074686973206d73672e73656e6465724f6e6c792067616d654f776e65722063616e2063616c6c20746869732066756e6374696f6e2e6661696c656420746f206578656375746520726577617264733a20656d7074792061727261796661696c656420746f20656e726f6c3a2063616e6e6f7420616464207374616b65726661696c656420746f20656e726f6c3a207374616b6572206973206e6f742074727573746564207061727479747279696e6720746f2061646420612074727573746564207061727479207468617420697320616c726561647920747275737465646661696c656420746f2066696e616c697a653a206e6f2075706461746572732073686f756c642068617665206265656e206c6566746661696c656420746f206578656375746520726577617264733a204e6f7420656e6f7567682062616c616e636520746f20736861726563616e6e6f7420706f702066726f6d20616e20656d7074792041646472657373537461636b6661696c656420746f20736c6173683a207374616b6572206e6f7420666f756e646661696c656420746f20656e726f6c3a2077726f6e67207374616b6520616d6f756e74a264697066735822122092d57b576ccb8ca361e49b0620dc12466fab995b1a05fde9c54f0ea7005c5aea64736f6c63430006030033",
  "source": "pragma solidity >= 0.6.3;\n\nimport \"./Assets.sol\";\nimport \"@openzeppelin/contracts/math/SafeMath.sol\";\n\n/**\n @title Manages Stakers and their deposits. Agnostic of the rules behind the game.\n @author Freeverse.io, www.freeverse.io\n @dev All source of truth regarding updates & challenges comes from the GameOwner contract\n @dev This contract's convention: prepend _ to function inputs only.\n*/\n \n\ncontract Stakers {\n  using SafeMath for uint256;\n  \n  address constant internal NULL_ADDR = address(0x0);\n\n  event PotBalanceChange(uint256 newBalance);\n  event RewardsExecuted();\n  event AddedTrustedParty(address party);\n  event NewGameOwner(address newOwner);\n  event NewEnrol(address staker);\n  event NewUnenrol(address staker);\n  event SlashedBy(address slashedStaker, address goodStaker);\n  event AddedRewardToUpdater(address staker);\n  event FinalizedGameRound();\n  event NewGameLevel(uint16 level);\n\n  Assets private assets;\n\n  address public gameOwner;\n\n  mapping (address => bool) public isStaker;\n  mapping (address => bool) public isSlashed;\n  mapping (address => bool) public isTrustedParty;\n\n  mapping (address => uint256) public stakes;\n  mapping (address => uint256) public pendingWithdrawals;\n  mapping (address => uint256) public howManyUpdates;\n  \n  uint256 public nStakers;  \n  uint256 public requiredStake;\n  uint256 public potBalance;\n  uint256 public totalNumUpdates;\n  address [] public toBeRewarded;\n  address[] public updaters;\n\n  /// Permission handling\n  \n  modifier onlyGame {\n    require(msg.sender == gameOwner && gameOwner != NULL_ADDR,\n            \"Only gameOwner can call this function.\");\n    _;\n  }\n\n  modifier onlyCOO {\n      require( assets.COO() == msg.sender, \"Only COO can call this function.\");\n          _;\n  }\n  \n  constructor(address _assetsAddress, uint256 _stake) public {\n    assets = Assets(_assetsAddress);\n    requiredStake = _stake;\n  }\n    \n  /// External / Public Functions\n\n  /// sets the address of the external contract that interacts with this contract\n  function setGameOwner(address _address) external onlyCOO {\n    require (_address != NULL_ADDR, \"invalid address 0x0\");\n    gameOwner = _address;\n    emit NewGameOwner(_address);\n  }\n  \n\n  /// executes rewards\n  function executeReward() external onlyCOO {\n    require (toBeRewarded.length > 0, \"failed to execute rewards: empty array\");\n    require (potBalance >= toBeRewarded.length, \"failed to execute rewards: Not enough balance to share\");\n    for (uint256 i = 0; i < toBeRewarded.length; i++) {\n      address who = toBeRewarded[i];\n      /// better to multiply, and then divide, each time, to minimize rounding errors.\n      pendingWithdrawals[who] += (potBalance * howManyUpdates[who]) / totalNumUpdates;\n      howManyUpdates[who] = 0;\n    }\n    delete toBeRewarded;\n    potBalance = 0; /// there could be a negligible loss of funds in the Pot.\n    totalNumUpdates = 0;\n    emit RewardsExecuted();\n  }  \n\n  /// transfers pendingWithdrawals to the calling staker; the stake remains until unenrol is called\n  function withdraw() external {\n    /// no need to require (isStaker[msg.sender], \"failed to withdraw: staker not registered\");\n    uint256 amount = pendingWithdrawals[msg.sender];\n    require(amount > 0, \"nothing to withdraw by this msg.sender\");\n    pendingWithdrawals[msg.sender] = 0;\n    msg.sender.transfer(amount);\n  }\n\n  function assertGoodCandidate(address _addr) public view {\n    require(_addr != NULL_ADDR, \"candidate is null addr\");\n    require(!isSlashed[_addr], \"candidate was slashed previously\");\n    require(stakes[_addr] == 0, \"candidate already has a stake\");\n  }\n\n  /// adds address as trusted party\n  function addTrustedParty(address _staker) external onlyCOO {\n    assertGoodCandidate(msg.sender);\n    require(!isTrustedParty[_staker], \"trying to add a trusted party that is already trusted\");\n    isTrustedParty[_staker] = true;\n    emit AddedTrustedParty(_staker);\n  }\n\n  /// registers a new staker\n  function enrol() external payable {\n    assertGoodCandidate(msg.sender);\n    require (msg.value == requiredStake, \"failed to enrol: wrong stake amount\");\n    require (isTrustedParty[msg.sender], \"failed to enrol: staker is not trusted party\");\n    require (addStaker(msg.sender), \"failed to enrol: cannot add staker\");\n    stakes[msg.sender] = msg.value;\n    emit NewEnrol(msg.sender);\n  }\n\n  /// unregisters a new staker and transfers all earnings, and pot\n  function unEnroll() external {\n    require (!alreadyDidUpdate(msg.sender), \"failed to unenroll: staker currently updating\");\n    require (removeStaker(msg.sender), \"failed to unenroll\");\n    uint256 amount = pendingWithdrawals[msg.sender] + stakes[msg.sender];\n    pendingWithdrawals[msg.sender] = 0;\n    stakes[msg.sender]  = 0;\n    if (amount > 0) { msg.sender.transfer(amount); }\n    emit NewUnenrol(msg.sender);\n  }\n\n  /// update to a new level\n  //// @param _level to which update\n  //// @param _staker address of the staker that reports this update\n  //// @dev This function will also resolve previous updates when\n  ///       level is below current or level has reached the end\n  function update(uint16 _level, address _staker) external onlyGame {\n    require (_level <= level(),        \"failed to update: wrong level\");\n    require (isStaker[_staker],        \"failed to update: staker not registered\");\n    //require (!isSlashed(_staker),      \"failed to update: staker was slashed\"); /// also covered by not being part of stakers, because slashing removes address from stakers\n    require(!alreadyDidUpdate(_staker), \"staker has already updated this game\");\n\n    while (_level < level()) {\n        /// If level is below current, it means the challenge\n        /// period has passed, so last updater told the truth.\n        /// The last updater should be rewarded, the one before\n        /// last should be slashed and level moves back two positions\n        require ((level() -_level) % 2 == 0, \"failed to update: resolving wrong level\");\n        resolve();\n    }\n    updaters.push(_staker);\n    emit NewGameLevel(level());\n  }\n\n  /// finalize current game, get ready for next one.\n  //// @dev current state will be resolved at this point.\n  //// If called from level 1, then staker is rewarded.\n  //// When called from any other level, means that every\n  //// other staker told the truth but the one in between\n  //// lied.\n  function finalize() external onlyGame {\n    require (level() > 0, \"failed to finalize: wrong level\");\n    while (level() > 1) {\n      resolve();\n    }\n    if (level() == 1) {\n      addRewardToUpdater(popUpdaters());\n    }\n    require (level() == 0, \"failed to finalize: no updaters should have been left\");\n    emit FinalizedGameRound();\n  }\n\n\n  function addRewardToPot() external payable {\n    require (msg.value > 0, \"failed to add reward of zero\");\n    potBalance += msg.value;\n    emit PotBalanceChange(potBalance);\n  }\n\n  /// Private Functions\n\n  function addStaker(address _staker) private returns (bool) {\n    if (_staker == NULL_ADDR) return false; /// prevent null addr\n    if (isStaker[_staker]) return false; /// staker already registered\n    isStaker[_staker] = true;\n    nStakers++;\n    return true;\n  }\n\n  function removeStaker(address _staker) private returns (bool){\n    if (_staker == NULL_ADDR) return false; /// prevent null addr\n    if (!isStaker[_staker]) return false; /// staker not registered\n    isStaker[_staker] = false;\n    nStakers--;\n    return true;\n  }\n\n  function resolve() private {\n    address goodStaker = popUpdaters();\n    address badStaker = popUpdaters();\n    earnStake(goodStaker, badStaker);\n    slash(badStaker);\n  }\n\n  function slash(address _staker) private {\n    require (removeStaker(_staker), \"failed to slash: staker not found\");\n    isSlashed[_staker] = true;\n  }\n\n  /// the slashed stake goes into the \"pendingWithdrawals\" of the good staker,\n  /// not to his \"stake\". This way, he can cash it without unenrolling.\n  function earnStake(address _goodStaker, address _badStaker) private {\n    uint256 amount = stakes[_badStaker];\n    stakes[_badStaker] = 0;\n    pendingWithdrawals[_goodStaker] += amount;\n    emit SlashedBy(_badStaker, _goodStaker);\n    /// TODO: alternatively it has been proposed to burn stake, and reward true tellers with the monthly pool.\n    /// The idea behind it, is not to promote interest in stealing someone else's stake\n    /// NULL_ADDR.transfer(requiredStake); /// burn stake\n  }\n  \n\n\n  function addRewardToUpdater(address _addr) private {\n    if (howManyUpdates[_addr] == 0) {\n      toBeRewarded.push(_addr);\n    }\n    howManyUpdates[_addr] += 1;\n    totalNumUpdates++;\n    emit AddedRewardToUpdater(_addr);\n  }\n\n  function popUpdaters() private returns (address _address) {\n    uint256 updatersLength = updaters.length;\n    require (updatersLength > 0, \"cannot pop from an empty AddressStack\");\n    _address = updaters[updatersLength - 1];\n    updaters.pop();\n  }\n\n\n  /// View Functions\n\n  /// this function iterates over a storage array, but of max length 4.\n  function alreadyDidUpdate(address _address) public view returns (bool) {\n    for (uint256 i = 0; i < updaters.length; i++) {\n      if (updaters[i] == _address) {\n        return true;\n      }\n    }\n    return false;\n  }\n  \n  /// get the current level\n  function level() public view returns (uint16) {\n    return uint16(updaters.length);\n  }\n\n}\n\n",
  "sourcePath": "/Users/jurgenkudla/proyects/laos/laos-goal-revolution/goalrev-ganache/contracts/storage/Stakers.sol",
  "compiler": {
    "name": "solc",
    "version": "0.6.3+commit.8dda9521.Emscripten.clang"
  },
  "schemaVersion": "3.0.23",
  "updatedAt": "2024-10-18T06:45:40.031Z",
  "networkType": "ethereum",
  "devdoc": {
    "author": "Freeverse.io, www.freeverse.io",
    "details": "All source of truth regarding updates & challenges comes from the GameOwner contractThis contract's convention: prepend _ to function inputs only.",
    "methods": {
      "finalize()": {
        "details": "current state will be resolved at this point. / If called from level 1, then staker is rewarded. / When called from any other level, means that every / other staker told the truth but the one in between / lied."
      },
      "update(uint16,address)": {
        "details": "This function will also resolve previous updates when       level is below current or level has reached the end",
        "params": {
          "_level": "to which update",
          "_staker": "address of the staker that reports this update"
        }
      }
    },
    "title": "Manages Stakers and their deposits. Agnostic of the rules behind the game."
  },
  "userdoc": {
    "methods": {
      "addTrustedParty(address)": {
        "notice": "adds address as trusted party"
      },
      "alreadyDidUpdate(address)": {
        "notice": "View Functions this function iterates over a storage array, but of max length 4."
      },
      "enrol()": {
        "notice": "registers a new staker"
      },
      "executeReward()": {
        "notice": "executes rewards"
      },
      "finalize()": {
        "notice": "finalize current game, get ready for next one."
      },
      "level()": {
        "notice": "get the current level"
      },
      "setGameOwner(address)": {
        "notice": "External / Public Functions sets the address of the external contract that interacts with this contract"
      },
      "unEnroll()": {
        "notice": "unregisters a new staker and transfers all earnings, and pot"
      },
      "update(uint16,address)": {
        "notice": "update to a new level"
      },
      "withdraw()": {
        "notice": "transfers pendingWithdrawals to the calling staker; the stake remains until unenrol is called"
      }
    }
  }
}