{
  "contractName": "Storage",
  "abi": [
    {
      "inputs": [],
      "name": "_stakers",
      "outputs": [
        {
          "internalType": "contract Stakers",
          "name": "",
          "type": "address"
        }
      ],
      "stateMutability": "view",
      "type": "function"
    },
    {
      "inputs": [],
      "name": "gameDeployDay",
      "outputs": [
        {
          "internalType": "uint256",
          "name": "",
          "type": "uint256"
        }
      ],
      "stateMutability": "view",
      "type": "function"
    }
  ],
  "bytecode": "0x608060405234801561001057600080fd5b5060be8061001f6000396000f3fe6080604052348015600f57600080fd5b506004361060325760003560e01c8063332b8ea3146037578063d8f73c3c14604f575b600080fd5b603d6071565b60408051918252519081900360200190f35b60556078565b604080516001600160a01b039092168252519081900360200190f35b6110095481565b61102f546001600160a01b03168156fea26469706673582212200aef8b70b4cd58a162d5d74692f7eef14673429fc41625195d20a52f7f3e287764736f6c63430006030033",
  "source": "pragma solidity >= 0.6.3;\n\nimport \"./ProxyStorage.sol\";\nimport \"./Stakers.sol\";\n\n/**\n @title Storage for all assets.\n @author Freeverse.io, www.freeverse.io\n @dev Treat with great care. All additions must go below the last line\n @dev of the previous version\n*/\n\n/**\nWarning:\n- This contract must ALWAYS inherit ProxyStorage first, to preserve order of slots.\n- Never alter the order of variables, never remove one.\n- Variables that need to be added must always go at the bottom of this file, and once deployed, remain in the introced order.\n- Avoid inheriting Constants, specially if these constants determine the size of the storage variables (e.g. length of arrays)\n- ...because a change in Constants would change the Storage allocation order.\n*/\ncontract Storage is ProxyStorage {\n\n    uint256[2**12] _slotReserve;\n\n    /// Roles\n    address internal _market;\n    address internal _COO;\n    address internal _relay;\n    address internal _cryptoMktAddr;\n    \n    /// Assets Storage\n    uint256 public gameDeployDay;\n    mapping(uint256 => uint256) internal _playerIdToState;\n    mapping (uint256 => uint256) internal _playerIdToAuctionData;\n    mapping (uint256 => bool) internal _playerIdToIsFrozenCrypto;\n    mapping (uint256 => uint256) internal _teamIdToAuctionData;\n    mapping (uint256 => uint256) internal _teamIdToRemainingAcqs;\n    mapping (uint256 => uint256) internal _playerInTransitToTeam;\n    mapping (uint256 => uint8) internal _nPlayersInTransitInTeam;\n    mapping (uint256 => bool) internal _teamIdToIsBuyNowForbidden;\n    mapping (uint256 => uint256) internal _countryIdToNDivisions;\n    mapping (uint256 => uint256) internal _countryIdToNHumanTeams;\n    mapping (uint256 => uint256) internal _divisionIdToRound;\n    mapping (uint256 => uint256[25]) internal _teamIdToPlayerIds;\n    mapping (uint256 => address) internal _teamIdToOwner;\n    mapping (uint8 => uint256) internal _tzToNCountries;\n\n    /// Used for restricting skills of players offered via BuyNow pattern\n    uint256 internal _maxSumSkillsBuyNowPlayer;\n    uint256 internal _maxSumSkillsBuyNowPlayerMinLapse;\n    uint256 internal _maxSumSkillsBuyNowPlayerProposed;\n    uint256 internal _maxSumSkillsBuyNowPlayerMinLapseProposed;\n    uint256 internal _maxSumSkillsBuyNowPlayerLastUpdate;\n\n    /// Storage required by Updates/Challenges games\n    /// Time is often measured in verses\n    /// A new verse starts with a userActions submission, \n    /// one every 15min\n    uint256 internal _nextVerseTimestamp;\n    uint8 internal _timeZoneForRound1;\n    uint256 internal _currentVerse;\n    bytes32 internal _currentVerseSeed;\n\n    uint256 internal _firstVerseTimeStamp;\n    uint16 internal _levelsInOneChallenge;\n    uint16 internal _leafsInLeague;\n    uint16 internal _levelsInLastChallenge;\n    uint256 internal _challengeTime;\n    bool internal _allowChallenges;\n    mapping (uint256 => bytes32[2]) _actionsRoot;\n    mapping (uint256 => bytes32[2]) _activeTeamsPerCountryRoot;\n    mapping (uint256 => bytes32[2]) _orgMapRoot;\n    mapping (uint256 => uint8[2]) _levelVerifiableByBC;\n    mapping (uint256 => bytes32[6][2]) _roots;\n    mapping (uint256 => uint8[2]) _challengeLevel;\n    mapping (uint256 => uint8) _newestOrgMapIdx;\n    mapping (uint256 => uint8) _newestRootsIdx;\n    mapping (uint256 => uint256) _lastActionsSubmissionTime;\n    mapping (uint256 => uint256) _lastUpdateTime;\n \n    /// The update/challenge game needs to call the external\n    /// Stakers contract, that only manages deposits, slashes, etc.\n    Stakers public _stakers;\n\n    // Last line of this contract as of Thursday, July 23rd, midday UTC+2 \n    // Any new storage variables, add below this line.\n}",
  "sourcePath": "/Users/jurgenkudla/proyects/laos/laos-goal-revolution/truffle-core/contracts/storage/Storage.sol",
  "compiler": {
    "name": "solc",
    "version": "0.6.3+commit.8dda9521.Emscripten.clang"
  },
  "schemaVersion": "3.0.23",
  "updatedAt": "2024-10-16T06:02:48.038Z",
  "devdoc": {
    "methods": {}
  },
  "userdoc": {
    "methods": {},
    "notice": "Warning: - This contract must ALWAYS inherit ProxyStorage first, to preserve order of slots. - Never alter the order of variables, never remove one. - Variables that need to be added must always go at the bottom of this file, and once deployed, remain in the introced order. - Avoid inheriting Constants, specially if these constants determine the size of the storage variables (e.g. length of arrays) - ...because a change in Constants would change the Storage allocation order."
  }
}