{
  "contractName": "TrainingPoints",
  "abi": [
    {
      "inputs": [],
      "name": "MAX_PERCENT",
      "outputs": [
        {
          "internalType": "uint256",
          "name": "",
          "type": "uint256"
        }
      ],
      "stateMutability": "view",
      "type": "function",
      "constant": true
    },
    {
      "inputs": [],
      "name": "MAX_RND",
      "outputs": [
        {
          "internalType": "uint256",
          "name": "",
          "type": "uint256"
        }
      ],
      "stateMutability": "view",
      "type": "function",
      "constant": true
    },
    {
      "inputs": [],
      "name": "NO_PLAYER",
      "outputs": [
        {
          "internalType": "uint8",
          "name": "",
          "type": "uint8"
        }
      ],
      "stateMutability": "view",
      "type": "function",
      "constant": true
    },
    {
      "inputs": [
        {
          "internalType": "uint256",
          "name": "log",
          "type": "uint256"
        },
        {
          "internalType": "uint8",
          "name": "player",
          "type": "uint8"
        },
        {
          "internalType": "uint8",
          "name": "pos",
          "type": "uint8"
        }
      ],
      "name": "addAssister",
      "outputs": [
        {
          "internalType": "uint256",
          "name": "",
          "type": "uint256"
        }
      ],
      "stateMutability": "pure",
      "type": "function",
      "constant": true
    },
    {
      "inputs": [
        {
          "internalType": "uint256",
          "name": "log",
          "type": "uint256"
        },
        {
          "internalType": "uint8",
          "name": "player",
          "type": "uint8"
        },
        {
          "internalType": "uint8",
          "name": "pos",
          "type": "uint8"
        }
      ],
      "name": "addForwardPos",
      "outputs": [
        {
          "internalType": "uint256",
          "name": "",
          "type": "uint256"
        }
      ],
      "stateMutability": "pure",
      "type": "function",
      "constant": true
    },
    {
      "inputs": [
        {
          "internalType": "uint256",
          "name": "log",
          "type": "uint256"
        },
        {
          "internalType": "uint8",
          "name": "player",
          "type": "uint8"
        },
        {
          "internalType": "uint8",
          "name": "pos",
          "type": "uint8"
        }
      ],
      "name": "addHalfTimeSubs",
      "outputs": [
        {
          "internalType": "uint256",
          "name": "",
          "type": "uint256"
        }
      ],
      "stateMutability": "pure",
      "type": "function",
      "constant": true
    },
    {
      "inputs": [
        {
          "internalType": "uint256",
          "name": "encodedSkills",
          "type": "uint256"
        }
      ],
      "name": "addIsSpecial",
      "outputs": [
        {
          "internalType": "uint256",
          "name": "",
          "type": "uint256"
        }
      ],
      "stateMutability": "pure",
      "type": "function",
      "constant": true
    },
    {
      "inputs": [
        {
          "internalType": "uint256",
          "name": "log",
          "type": "uint256"
        },
        {
          "internalType": "uint8",
          "name": "nDefs",
          "type": "uint8"
        },
        {
          "internalType": "bool",
          "name": "is2ndHalf",
          "type": "bool"
        }
      ],
      "name": "addNGKAndDefs",
      "outputs": [
        {
          "internalType": "uint256",
          "name": "",
          "type": "uint256"
        }
      ],
      "stateMutability": "pure",
      "type": "function",
      "constant": true
    },
    {
      "inputs": [
        {
          "internalType": "uint256",
          "name": "log",
          "type": "uint256"
        },
        {
          "internalType": "uint8",
          "name": "goals",
          "type": "uint8"
        }
      ],
      "name": "addNGoals",
      "outputs": [
        {
          "internalType": "uint256",
          "name": "",
          "type": "uint256"
        }
      ],
      "stateMutability": "pure",
      "type": "function",
      "constant": true
    },
    {
      "inputs": [
        {
          "internalType": "uint256",
          "name": "log",
          "type": "uint256"
        },
        {
          "internalType": "uint8",
          "name": "nTot",
          "type": "uint8"
        },
        {
          "internalType": "bool",
          "name": "is2ndHalf",
          "type": "bool"
        }
      ],
      "name": "addNTot",
      "outputs": [
        {
          "internalType": "uint256",
          "name": "",
          "type": "uint256"
        }
      ],
      "stateMutability": "pure",
      "type": "function",
      "constant": true
    },
    {
      "inputs": [
        {
          "internalType": "uint256",
          "name": "log",
          "type": "uint256"
        },
        {
          "internalType": "uint8",
          "name": "pos",
          "type": "uint8"
        }
      ],
      "name": "addScoredPenalty",
      "outputs": [
        {
          "internalType": "uint256",
          "name": "",
          "type": "uint256"
        }
      ],
      "stateMutability": "pure",
      "type": "function",
      "constant": true
    },
    {
      "inputs": [
        {
          "internalType": "uint256",
          "name": "log",
          "type": "uint256"
        },
        {
          "internalType": "uint8",
          "name": "player",
          "type": "uint8"
        },
        {
          "internalType": "uint8",
          "name": "pos",
          "type": "uint8"
        }
      ],
      "name": "addShooter",
      "outputs": [
        {
          "internalType": "uint256",
          "name": "",
          "type": "uint256"
        }
      ],
      "stateMutability": "pure",
      "type": "function",
      "constant": true
    },
    {
      "inputs": [
        {
          "internalType": "uint256",
          "name": "log",
          "type": "uint256"
        },
        {
          "internalType": "uint256",
          "name": "extraSumSkills",
          "type": "uint256"
        }
      ],
      "name": "addTeamSumSkills",
      "outputs": [
        {
          "internalType": "uint256",
          "name": "",
          "type": "uint256"
        }
      ],
      "stateMutability": "pure",
      "type": "function",
      "constant": true
    },
    {
      "inputs": [
        {
          "internalType": "uint256",
          "name": "log",
          "type": "uint256"
        },
        {
          "internalType": "uint256",
          "name": "points",
          "type": "uint256"
        }
      ],
      "name": "addTrainingPoints",
      "outputs": [
        {
          "internalType": "uint256",
          "name": "",
          "type": "uint256"
        }
      ],
      "stateMutability": "pure",
      "type": "function",
      "constant": true
    },
    {
      "inputs": [
        {
          "internalType": "uint256",
          "name": "log",
          "type": "uint256"
        },
        {
          "internalType": "uint8",
          "name": "winner",
          "type": "uint8"
        }
      ],
      "name": "addWinner",
      "outputs": [
        {
          "internalType": "uint256",
          "name": "",
          "type": "uint256"
        }
      ],
      "stateMutability": "pure",
      "type": "function",
      "constant": true
    },
    {
      "inputs": [
        {
          "internalType": "uint256[2]",
          "name": "logs",
          "type": "uint256[2]"
        },
        {
          "internalType": "uint8",
          "name": "winner",
          "type": "uint8"
        }
      ],
      "name": "addWinnerToBothLogs",
      "outputs": [
        {
          "internalType": "uint256[2]",
          "name": "",
          "type": "uint256[2]"
        }
      ],
      "stateMutability": "pure",
      "type": "function",
      "constant": true
    },
    {
      "inputs": [
        {
          "internalType": "uint256",
          "name": "log",
          "type": "uint256"
        },
        {
          "internalType": "uint8",
          "name": "player",
          "type": "uint8"
        },
        {
          "internalType": "uint8",
          "name": "posInHaf",
          "type": "uint8"
        },
        {
          "internalType": "bool",
          "name": "is2ndHalf",
          "type": "bool"
        }
      ],
      "name": "addYellowCard",
      "outputs": [
        {
          "internalType": "uint256",
          "name": "",
          "type": "uint256"
        }
      ],
      "stateMutability": "pure",
      "type": "function",
      "constant": true
    },
    {
      "inputs": [
        {
          "internalType": "uint256",
          "name": "teamId",
          "type": "uint256"
        },
        {
          "internalType": "uint8",
          "name": "shirtNum",
          "type": "uint8"
        },
        {
          "internalType": "uint8",
          "name": "potential",
          "type": "uint8"
        }
      ],
      "name": "computeSkills",
      "outputs": [
        {
          "internalType": "uint32[5]",
          "name": "",
          "type": "uint32[5]"
        },
        {
          "internalType": "uint8[4]",
          "name": "",
          "type": "uint8[4]"
        },
        {
          "internalType": "uint32",
          "name": "",
          "type": "uint32"
        }
      ],
      "stateMutability": "pure",
      "type": "function",
      "constant": true
    },
    {
      "inputs": [
        {
          "internalType": "uint32",
          "name": "encoded",
          "type": "uint32"
        }
      ],
      "name": "decodeBoosts",
      "outputs": [
        {
          "internalType": "uint8[6]",
          "name": "skillsBoost",
          "type": "uint8[6]"
        }
      ],
      "stateMutability": "pure",
      "type": "function",
      "constant": true
    },
    {
      "inputs": [
        {
          "internalType": "uint256",
          "name": "encoded",
          "type": "uint256"
        }
      ],
      "name": "decodeTP",
      "outputs": [
        {
          "internalType": "uint16[25]",
          "name": "TPperSkill",
          "type": "uint16[25]"
        },
        {
          "internalType": "uint8",
          "name": "specialPlayer",
          "type": "uint8"
        },
        {
          "internalType": "uint16",
          "name": "TP",
          "type": "uint16"
        },
        {
          "internalType": "uint8",
          "name": "",
          "type": "uint8"
        }
      ],
      "stateMutability": "pure",
      "type": "function",
      "constant": true
    },
    {
      "inputs": [
        {
          "internalType": "uint8[6]",
          "name": "skillsBoost",
          "type": "uint8[6]"
        }
      ],
      "name": "encodeBoosts",
      "outputs": [
        {
          "internalType": "uint32",
          "name": "encoded",
          "type": "uint32"
        }
      ],
      "stateMutability": "pure",
      "type": "function",
      "constant": true
    },
    {
      "inputs": [
        {
          "internalType": "uint32[5]",
          "name": "skills",
          "type": "uint32[5]"
        },
        {
          "internalType": "uint256",
          "name": "dayOfBirth",
          "type": "uint256"
        },
        {
          "internalType": "uint8",
          "name": "generation",
          "type": "uint8"
        },
        {
          "internalType": "uint256",
          "name": "playerId",
          "type": "uint256"
        },
        {
          "internalType": "uint8[4]",
          "name": "birthTraits",
          "type": "uint8[4]"
        },
        {
          "internalType": "bool",
          "name": "alignedEndOfLastHalf",
          "type": "bool"
        },
        {
          "internalType": "bool",
          "name": "redCardLastGame",
          "type": "bool"
        },
        {
          "internalType": "uint8",
          "name": "gamesNonStopping",
          "type": "uint8"
        },
        {
          "internalType": "uint8",
          "name": "injuryWeeksLeft",
          "type": "uint8"
        },
        {
          "internalType": "bool",
          "name": "substitutedFirstHalf",
          "type": "bool"
        },
        {
          "internalType": "uint32",
          "name": "sumSkills",
          "type": "uint32"
        }
      ],
      "name": "encodePlayerSkills",
      "outputs": [
        {
          "internalType": "uint256",
          "name": "encoded",
          "type": "uint256"
        }
      ],
      "stateMutability": "pure",
      "type": "function",
      "constant": true
    },
    {
      "inputs": [
        {
          "internalType": "uint16",
          "name": "TP",
          "type": "uint16"
        },
        {
          "internalType": "uint16[25]",
          "name": "TPperSkill",
          "type": "uint16[25]"
        },
        {
          "internalType": "uint8",
          "name": "specialPlayer",
          "type": "uint8"
        }
      ],
      "name": "encodeTP",
      "outputs": [
        {
          "internalType": "uint256",
          "name": "encoded",
          "type": "uint256"
        }
      ],
      "stateMutability": "pure",
      "type": "function",
      "constant": true
    },
    {
      "inputs": [
        {
          "internalType": "uint256",
          "name": "encodedSkills",
          "type": "uint256"
        }
      ],
      "name": "getAggressiveness",
      "outputs": [
        {
          "internalType": "uint256",
          "name": "",
          "type": "uint256"
        }
      ],
      "stateMutability": "pure",
      "type": "function",
      "constant": true
    },
    {
      "inputs": [
        {
          "internalType": "uint256",
          "name": "encodedSkills",
          "type": "uint256"
        }
      ],
      "name": "getAlignedEndOfFirstHalf",
      "outputs": [
        {
          "internalType": "bool",
          "name": "",
          "type": "bool"
        }
      ],
      "stateMutability": "pure",
      "type": "function",
      "constant": true
    },
    {
      "inputs": [
        {
          "internalType": "uint256",
          "name": "log",
          "type": "uint256"
        },
        {
          "internalType": "uint8",
          "name": "pos",
          "type": "uint8"
        }
      ],
      "name": "getAssister",
      "outputs": [
        {
          "internalType": "uint8",
          "name": "",
          "type": "uint8"
        }
      ],
      "stateMutability": "pure",
      "type": "function",
      "constant": true
    },
    {
      "inputs": [
        {
          "internalType": "uint256",
          "name": "encodedSkills",
          "type": "uint256"
        }
      ],
      "name": "getBirthDay",
      "outputs": [
        {
          "internalType": "uint256",
          "name": "",
          "type": "uint256"
        }
      ],
      "stateMutability": "pure",
      "type": "function",
      "constant": true
    },
    {
      "inputs": [
        {
          "internalType": "uint256",
          "name": "log",
          "type": "uint256"
        }
      ],
      "name": "getChangesAtHalfTime",
      "outputs": [
        {
          "internalType": "uint8",
          "name": "nChanges",
          "type": "uint8"
        }
      ],
      "stateMutability": "pure",
      "type": "function",
      "constant": true
    },
    {
      "inputs": [
        {
          "internalType": "uint256",
          "name": "tactics",
          "type": "uint256"
        },
        {
          "internalType": "uint8",
          "name": "p",
          "type": "uint8"
        }
      ],
      "name": "getExtraAttack",
      "outputs": [
        {
          "internalType": "bool",
          "name": "",
          "type": "bool"
        }
      ],
      "stateMutability": "pure",
      "type": "function",
      "constant": true
    },
    {
      "inputs": [
        {
          "internalType": "uint256",
          "name": "log",
          "type": "uint256"
        },
        {
          "internalType": "uint8",
          "name": "pos",
          "type": "uint8"
        }
      ],
      "name": "getForwardPos",
      "outputs": [
        {
          "internalType": "uint8",
          "name": "",
          "type": "uint8"
        }
      ],
      "stateMutability": "pure",
      "type": "function",
      "constant": true
    },
    {
      "inputs": [
        {
          "internalType": "uint256",
          "name": "encodedSkills",
          "type": "uint256"
        }
      ],
      "name": "getForwardness",
      "outputs": [
        {
          "internalType": "uint256",
          "name": "",
          "type": "uint256"
        }
      ],
      "stateMutability": "pure",
      "type": "function",
      "constant": true
    },
    {
      "inputs": [
        {
          "internalType": "uint256",
          "name": "tactics",
          "type": "uint256"
        }
      ],
      "name": "getFullExtraAttack",
      "outputs": [
        {
          "internalType": "bool[10]",
          "name": "extraAttack",
          "type": "bool[10]"
        }
      ],
      "stateMutability": "pure",
      "type": "function",
      "constant": true
    },
    {
      "inputs": [
        {
          "internalType": "uint256",
          "name": "tactics",
          "type": "uint256"
        }
      ],
      "name": "getFullLineUp",
      "outputs": [
        {
          "internalType": "uint8[14]",
          "name": "lineup",
          "type": "uint8[14]"
        }
      ],
      "stateMutability": "pure",
      "type": "function",
      "constant": true
    },
    {
      "inputs": [
        {
          "internalType": "uint256",
          "name": "encodedSkills",
          "type": "uint256"
        }
      ],
      "name": "getGamesNonStopping",
      "outputs": [
        {
          "internalType": "uint8",
          "name": "",
          "type": "uint8"
        }
      ],
      "stateMutability": "pure",
      "type": "function",
      "constant": true
    },
    {
      "inputs": [
        {
          "internalType": "uint256",
          "name": "encodedSkills",
          "type": "uint256"
        }
      ],
      "name": "getGeneration",
      "outputs": [
        {
          "internalType": "uint256",
          "name": "",
          "type": "uint256"
        }
      ],
      "stateMutability": "pure",
      "type": "function",
      "constant": true
    },
    {
      "inputs": [
        {
          "internalType": "uint256",
          "name": "log",
          "type": "uint256"
        },
        {
          "internalType": "uint8",
          "name": "pos",
          "type": "uint8"
        }
      ],
      "name": "getHalfTimeSubs",
      "outputs": [
        {
          "internalType": "uint8",
          "name": "",
          "type": "uint8"
        }
      ],
      "stateMutability": "pure",
      "type": "function",
      "constant": true
    },
    {
      "inputs": [
        {
          "internalType": "uint256",
          "name": "log",
          "type": "uint256"
        },
        {
          "internalType": "uint8",
          "name": "posInHalf",
          "type": "uint8"
        },
        {
          "internalType": "bool",
          "name": "is2ndHalf",
          "type": "bool"
        }
      ],
      "name": "getInGameSubsHappened",
      "outputs": [
        {
          "internalType": "uint8",
          "name": "",
          "type": "uint8"
        }
      ],
      "stateMutability": "pure",
      "type": "function",
      "constant": true
    },
    {
      "inputs": [
        {
          "internalType": "uint256",
          "name": "encodedSkills",
          "type": "uint256"
        }
      ],
      "name": "getInjuryWeeksLeft",
      "outputs": [
        {
          "internalType": "uint8",
          "name": "",
          "type": "uint8"
        }
      ],
      "stateMutability": "pure",
      "type": "function",
      "constant": true
    },
    {
      "inputs": [
        {
          "internalType": "uint256",
          "name": "encodedSkills",
          "type": "uint256"
        }
      ],
      "name": "getInternalPlayerId",
      "outputs": [
        {
          "internalType": "uint256",
          "name": "",
          "type": "uint256"
        }
      ],
      "stateMutability": "pure",
      "type": "function",
      "constant": true
    },
    {
      "inputs": [
        {
          "internalType": "uint256",
          "name": "log",
          "type": "uint256"
        }
      ],
      "name": "getIsCancelled",
      "outputs": [
        {
          "internalType": "bool",
          "name": "",
          "type": "bool"
        }
      ],
      "stateMutability": "pure",
      "type": "function",
      "constant": true
    },
    {
      "inputs": [
        {
          "internalType": "uint256",
          "name": "log",
          "type": "uint256"
        }
      ],
      "name": "getIsHomeStadium",
      "outputs": [
        {
          "internalType": "bool",
          "name": "",
          "type": "bool"
        }
      ],
      "stateMutability": "pure",
      "type": "function",
      "constant": true
    },
    {
      "inputs": [
        {
          "internalType": "uint256",
          "name": "encodedSkills",
          "type": "uint256"
        }
      ],
      "name": "getIsSpecial",
      "outputs": [
        {
          "internalType": "bool",
          "name": "",
          "type": "bool"
        }
      ],
      "stateMutability": "pure",
      "type": "function",
      "constant": true
    },
    {
      "inputs": [
        {
          "internalType": "uint256",
          "name": "tactics",
          "type": "uint256"
        }
      ],
      "name": "getItemsData",
      "outputs": [
        {
          "internalType": "uint8[25]",
          "name": "staminas",
          "type": "uint8[25]"
        },
        {
          "internalType": "uint16",
          "name": "",
          "type": "uint16"
        },
        {
          "internalType": "uint32",
          "name": "",
          "type": "uint32"
        }
      ],
      "stateMutability": "pure",
      "type": "function",
      "constant": true
    },
    {
      "inputs": [
        {
          "internalType": "uint256",
          "name": "encodedSkills",
          "type": "uint256"
        }
      ],
      "name": "getLeftishness",
      "outputs": [
        {
          "internalType": "uint256",
          "name": "",
          "type": "uint256"
        }
      ],
      "stateMutability": "pure",
      "type": "function",
      "constant": true
    },
    {
      "inputs": [
        {
          "internalType": "uint256",
          "name": "tactics",
          "type": "uint256"
        },
        {
          "internalType": "uint8",
          "name": "p",
          "type": "uint8"
        }
      ],
      "name": "getLinedUp",
      "outputs": [
        {
          "internalType": "uint8",
          "name": "",
          "type": "uint8"
        }
      ],
      "stateMutability": "pure",
      "type": "function",
      "constant": true
    },
    {
      "inputs": [
        {
          "internalType": "uint8[9]",
          "name": "playersPerZone",
          "type": "uint8[9]"
        }
      ],
      "name": "getNAttackers",
      "outputs": [
        {
          "internalType": "uint8",
          "name": "",
          "type": "uint8"
        }
      ],
      "stateMutability": "pure",
      "type": "function",
      "constant": true
    },
    {
      "inputs": [
        {
          "internalType": "uint8[9]",
          "name": "playersPerZone",
          "type": "uint8[9]"
        }
      ],
      "name": "getNDefenders",
      "outputs": [
        {
          "internalType": "uint8",
          "name": "",
          "type": "uint8"
        }
      ],
      "stateMutability": "pure",
      "type": "function",
      "constant": true
    },
    {
      "inputs": [
        {
          "internalType": "uint256",
          "name": "tactics",
          "type": "uint256"
        }
      ],
      "name": "getNDefendersFromTactics",
      "outputs": [
        {
          "internalType": "uint8",
          "name": "",
          "type": "uint8"
        }
      ],
      "stateMutability": "pure",
      "type": "function",
      "constant": true
    },
    {
      "inputs": [
        {
          "internalType": "uint256",
          "name": "log",
          "type": "uint256"
        },
        {
          "internalType": "bool",
          "name": "is2ndHalf",
          "type": "bool"
        }
      ],
      "name": "getNGKAndDefs",
      "outputs": [
        {
          "internalType": "uint8",
          "name": "",
          "type": "uint8"
        }
      ],
      "stateMutability": "pure",
      "type": "function",
      "constant": true
    },
    {
      "inputs": [
        {
          "internalType": "uint256",
          "name": "log",
          "type": "uint256"
        }
      ],
      "name": "getNGoals",
      "outputs": [
        {
          "internalType": "uint8",
          "name": "",
          "type": "uint8"
        }
      ],
      "stateMutability": "pure",
      "type": "function",
      "constant": true
    },
    {
      "inputs": [
        {
          "internalType": "uint8[9]",
          "name": "playersPerZone",
          "type": "uint8[9]"
        }
      ],
      "name": "getNMidfielders",
      "outputs": [
        {
          "internalType": "uint8",
          "name": "",
          "type": "uint8"
        }
      ],
      "stateMutability": "pure",
      "type": "function",
      "constant": true
    },
    {
      "inputs": [
        {
          "internalType": "uint256",
          "name": "seed",
          "type": "uint256"
        },
        {
          "internalType": "uint8",
          "name": "nRnds",
          "type": "uint8"
        }
      ],
      "name": "getNRandsFromSeed",
      "outputs": [
        {
          "internalType": "uint64[]",
          "name": "",
          "type": "uint64[]"
        }
      ],
      "stateMutability": "pure",
      "type": "function",
      "constant": true
    },
    {
      "inputs": [
        {
          "internalType": "uint256",
          "name": "log",
          "type": "uint256"
        },
        {
          "internalType": "bool",
          "name": "is2ndHalf",
          "type": "bool"
        }
      ],
      "name": "getNTot",
      "outputs": [
        {
          "internalType": "uint8",
          "name": "",
          "type": "uint8"
        }
      ],
      "stateMutability": "pure",
      "type": "function",
      "constant": true
    },
    {
      "inputs": [
        {
          "internalType": "uint256",
          "name": "encodedSkills",
          "type": "uint256"
        }
      ],
      "name": "getOutOfGameFirstHalf",
      "outputs": [
        {
          "internalType": "bool",
          "name": "",
          "type": "bool"
        }
      ],
      "stateMutability": "pure",
      "type": "function",
      "constant": true
    },
    {
      "inputs": [
        {
          "internalType": "uint256",
          "name": "log",
          "type": "uint256"
        },
        {
          "internalType": "bool",
          "name": "is2ndHalf",
          "type": "bool"
        }
      ],
      "name": "getOutOfGamePlayer",
      "outputs": [
        {
          "internalType": "uint256",
          "name": "",
          "type": "uint256"
        }
      ],
      "stateMutability": "pure",
      "type": "function",
      "constant": true
    },
    {
      "inputs": [
        {
          "internalType": "uint256",
          "name": "log",
          "type": "uint256"
        },
        {
          "internalType": "bool",
          "name": "is2ndHalf",
          "type": "bool"
        }
      ],
      "name": "getOutOfGameRound",
      "outputs": [
        {
          "internalType": "uint256",
          "name": "",
          "type": "uint256"
        }
      ],
      "stateMutability": "pure",
      "type": "function",
      "constant": true
    },
    {
      "inputs": [
        {
          "internalType": "uint256",
          "name": "log",
          "type": "uint256"
        },
        {
          "internalType": "bool",
          "name": "is2ndHalf",
          "type": "bool"
        }
      ],
      "name": "getOutOfGameType",
      "outputs": [
        {
          "internalType": "uint256",
          "name": "",
          "type": "uint256"
        }
      ],
      "stateMutability": "pure",
      "type": "function",
      "constant": true
    },
    {
      "inputs": [
        {
          "internalType": "uint256",
          "name": "log",
          "type": "uint256"
        },
        {
          "internalType": "uint8",
          "name": "pos",
          "type": "uint8"
        }
      ],
      "name": "getPenalty",
      "outputs": [
        {
          "internalType": "bool",
          "name": "",
          "type": "bool"
        }
      ],
      "stateMutability": "pure",
      "type": "function",
      "constant": true
    },
    {
      "inputs": [
        {
          "internalType": "uint256",
          "name": "encodedSkills",
          "type": "uint256"
        }
      ],
      "name": "getPlayerIdFromSkills",
      "outputs": [
        {
          "internalType": "uint256",
          "name": "",
          "type": "uint256"
        }
      ],
      "stateMutability": "pure",
      "type": "function",
      "constant": true
    },
    {
      "inputs": [
        {
          "internalType": "uint256",
          "name": "tactics",
          "type": "uint256"
        }
      ],
      "name": "getPlayersPerZone",
      "outputs": [
        {
          "internalType": "uint8[9]",
          "name": "",
          "type": "uint8[9]"
        }
      ],
      "stateMutability": "pure",
      "type": "function",
      "constant": true
    },
    {
      "inputs": [
        {
          "internalType": "uint256",
          "name": "encodedSkills",
          "type": "uint256"
        }
      ],
      "name": "getPotential",
      "outputs": [
        {
          "internalType": "uint256",
          "name": "",
          "type": "uint256"
        }
      ],
      "stateMutability": "pure",
      "type": "function",
      "constant": true
    },
    {
      "inputs": [
        {
          "internalType": "uint256",
          "name": "encodedSkills",
          "type": "uint256"
        }
      ],
      "name": "getRedCardLastGame",
      "outputs": [
        {
          "internalType": "bool",
          "name": "",
          "type": "bool"
        }
      ],
      "stateMutability": "pure",
      "type": "function",
      "constant": true
    },
    {
      "inputs": [
        {
          "internalType": "uint256",
          "name": "log",
          "type": "uint256"
        },
        {
          "internalType": "uint8",
          "name": "pos",
          "type": "uint8"
        }
      ],
      "name": "getShooter",
      "outputs": [
        {
          "internalType": "uint8",
          "name": "",
          "type": "uint8"
        }
      ],
      "stateMutability": "pure",
      "type": "function",
      "constant": true
    },
    {
      "inputs": [
        {
          "internalType": "uint256",
          "name": "encodedSkills",
          "type": "uint256"
        },
        {
          "internalType": "uint8",
          "name": "skillIdx",
          "type": "uint8"
        }
      ],
      "name": "getSkill",
      "outputs": [
        {
          "internalType": "uint256",
          "name": "",
          "type": "uint256"
        }
      ],
      "stateMutability": "pure",
      "type": "function",
      "constant": true
    },
    {
      "inputs": [
        {
          "internalType": "uint256",
          "name": "tactics",
          "type": "uint256"
        },
        {
          "internalType": "uint8",
          "name": "p",
          "type": "uint8"
        }
      ],
      "name": "getSubsRound",
      "outputs": [
        {
          "internalType": "uint8",
          "name": "",
          "type": "uint8"
        }
      ],
      "stateMutability": "pure",
      "type": "function",
      "constant": true
    },
    {
      "inputs": [
        {
          "internalType": "uint256",
          "name": "encodedSkills",
          "type": "uint256"
        }
      ],
      "name": "getSubstitutedFirstHalf",
      "outputs": [
        {
          "internalType": "bool",
          "name": "",
          "type": "bool"
        }
      ],
      "stateMutability": "pure",
      "type": "function",
      "constant": true
    },
    {
      "inputs": [
        {
          "internalType": "uint256",
          "name": "tactics",
          "type": "uint256"
        },
        {
          "internalType": "uint8",
          "name": "p",
          "type": "uint8"
        }
      ],
      "name": "getSubstitution",
      "outputs": [
        {
          "internalType": "uint8",
          "name": "",
          "type": "uint8"
        }
      ],
      "stateMutability": "pure",
      "type": "function",
      "constant": true
    },
    {
      "inputs": [
        {
          "internalType": "uint256",
          "name": "encodedSkills",
          "type": "uint256"
        }
      ],
      "name": "getSumOfSkills",
      "outputs": [
        {
          "internalType": "uint256",
          "name": "",
          "type": "uint256"
        }
      ],
      "stateMutability": "pure",
      "type": "function",
      "constant": true
    },
    {
      "inputs": [
        {
          "internalType": "uint256",
          "name": "tactics",
          "type": "uint256"
        }
      ],
      "name": "getTacticsId",
      "outputs": [
        {
          "internalType": "uint8",
          "name": "",
          "type": "uint8"
        }
      ],
      "stateMutability": "pure",
      "type": "function",
      "constant": true
    },
    {
      "inputs": [
        {
          "internalType": "uint256",
          "name": "log",
          "type": "uint256"
        }
      ],
      "name": "getTeamSumSkills",
      "outputs": [
        {
          "internalType": "uint256",
          "name": "",
          "type": "uint256"
        }
      ],
      "stateMutability": "pure",
      "type": "function",
      "constant": true
    },
    {
      "inputs": [
        {
          "internalType": "uint256",
          "name": "log",
          "type": "uint256"
        }
      ],
      "name": "getTrainingPoints",
      "outputs": [
        {
          "internalType": "uint16",
          "name": "",
          "type": "uint16"
        }
      ],
      "stateMutability": "pure",
      "type": "function",
      "constant": true
    },
    {
      "inputs": [
        {
          "internalType": "uint256",
          "name": "log",
          "type": "uint256"
        }
      ],
      "name": "getWinner",
      "outputs": [
        {
          "internalType": "uint8",
          "name": "",
          "type": "uint8"
        }
      ],
      "stateMutability": "pure",
      "type": "function",
      "constant": true
    },
    {
      "inputs": [
        {
          "internalType": "uint256",
          "name": "log",
          "type": "uint256"
        },
        {
          "internalType": "uint8",
          "name": "posInHaf",
          "type": "uint8"
        },
        {
          "internalType": "bool",
          "name": "is2ndHalf",
          "type": "bool"
        }
      ],
      "name": "getYellowCard",
      "outputs": [
        {
          "internalType": "uint8",
          "name": "",
          "type": "uint8"
        }
      ],
      "stateMutability": "pure",
      "type": "function",
      "constant": true
    },
    {
      "inputs": [
        {
          "internalType": "uint256",
          "name": "encodedSkills",
          "type": "uint256"
        }
      ],
      "name": "getYellowCardFirstHalf",
      "outputs": [
        {
          "internalType": "bool",
          "name": "",
          "type": "bool"
        }
      ],
      "stateMutability": "pure",
      "type": "function",
      "constant": true
    },
    {
      "inputs": [
        {
          "internalType": "uint256",
          "name": "encodedSkills",
          "type": "uint256"
        },
        {
          "internalType": "bool",
          "name": "val",
          "type": "bool"
        }
      ],
      "name": "setAlignedEndOfFirstHalf",
      "outputs": [
        {
          "internalType": "uint256",
          "name": "",
          "type": "uint256"
        }
      ],
      "stateMutability": "pure",
      "type": "function",
      "constant": true
    },
    {
      "inputs": [
        {
          "internalType": "uint256",
          "name": "log",
          "type": "uint256"
        },
        {
          "internalType": "uint8",
          "name": "nChanges",
          "type": "uint8"
        }
      ],
      "name": "setChangesAtHalfTime",
      "outputs": [
        {
          "internalType": "uint256",
          "name": "",
          "type": "uint256"
        }
      ],
      "stateMutability": "pure",
      "type": "function",
      "constant": true
    },
    {
      "inputs": [
        {
          "internalType": "uint256",
          "name": "encodedSkills",
          "type": "uint256"
        },
        {
          "internalType": "uint8",
          "name": "val",
          "type": "uint8"
        }
      ],
      "name": "setGamesNonStopping",
      "outputs": [
        {
          "internalType": "uint256",
          "name": "",
          "type": "uint256"
        }
      ],
      "stateMutability": "pure",
      "type": "function",
      "constant": true
    },
    {
      "inputs": [
        {
          "internalType": "uint256",
          "name": "encodedSkills",
          "type": "uint256"
        },
        {
          "internalType": "uint32",
          "name": "val",
          "type": "uint32"
        }
      ],
      "name": "setGeneration",
      "outputs": [
        {
          "internalType": "uint256",
          "name": "",
          "type": "uint256"
        }
      ],
      "stateMutability": "pure",
      "type": "function",
      "constant": true
    },
    {
      "inputs": [
        {
          "internalType": "uint256",
          "name": "log",
          "type": "uint256"
        },
        {
          "internalType": "uint8",
          "name": "happenedType",
          "type": "uint8"
        },
        {
          "internalType": "uint8",
          "name": "posInHalf",
          "type": "uint8"
        },
        {
          "internalType": "bool",
          "name": "is2ndHalf",
          "type": "bool"
        }
      ],
      "name": "setInGameSubsHappened",
      "outputs": [
        {
          "internalType": "uint256",
          "name": "",
          "type": "uint256"
        }
      ],
      "stateMutability": "pure",
      "type": "function",
      "constant": true
    },
    {
      "inputs": [
        {
          "internalType": "uint256",
          "name": "encodedSkills",
          "type": "uint256"
        },
        {
          "internalType": "uint8",
          "name": "val",
          "type": "uint8"
        }
      ],
      "name": "setInjuryWeeksLeft",
      "outputs": [
        {
          "internalType": "uint256",
          "name": "",
          "type": "uint256"
        }
      ],
      "stateMutability": "pure",
      "type": "function",
      "constant": true
    },
    {
      "inputs": [
        {
          "internalType": "uint256",
          "name": "log",
          "type": "uint256"
        },
        {
          "internalType": "bool",
          "name": "val",
          "type": "bool"
        }
      ],
      "name": "setIsCancelled",
      "outputs": [
        {
          "internalType": "uint256",
          "name": "",
          "type": "uint256"
        }
      ],
      "stateMutability": "pure",
      "type": "function",
      "constant": true
    },
    {
      "inputs": [
        {
          "internalType": "uint256",
          "name": "log",
          "type": "uint256"
        },
        {
          "internalType": "bool",
          "name": "val",
          "type": "bool"
        }
      ],
      "name": "setIsHomeStadium",
      "outputs": [
        {
          "internalType": "uint256",
          "name": "",
          "type": "uint256"
        }
      ],
      "stateMutability": "pure",
      "type": "function",
      "constant": true
    },
    {
      "inputs": [
        {
          "internalType": "uint256",
          "name": "tactics",
          "type": "uint256"
        },
        {
          "internalType": "uint32",
          "name": "val",
          "type": "uint32"
        }
      ],
      "name": "setItemBoost",
      "outputs": [
        {
          "internalType": "uint256",
          "name": "",
          "type": "uint256"
        }
      ],
      "stateMutability": "pure",
      "type": "function",
      "constant": true
    },
    {
      "inputs": [
        {
          "internalType": "uint256",
          "name": "tactics",
          "type": "uint256"
        },
        {
          "internalType": "uint16",
          "name": "val",
          "type": "uint16"
        }
      ],
      "name": "setItemId",
      "outputs": [
        {
          "internalType": "uint256",
          "name": "",
          "type": "uint256"
        }
      ],
      "stateMutability": "pure",
      "type": "function",
      "constant": true
    },
    {
      "inputs": [
        {
          "internalType": "uint256",
          "name": "log",
          "type": "uint256"
        },
        {
          "internalType": "uint8",
          "name": "player",
          "type": "uint8"
        },
        {
          "internalType": "uint8",
          "name": "round",
          "type": "uint8"
        },
        {
          "internalType": "uint8",
          "name": "typeOfOutOfGame",
          "type": "uint8"
        },
        {
          "internalType": "bool",
          "name": "is2ndHalf",
          "type": "bool"
        }
      ],
      "name": "setOutOfGame",
      "outputs": [
        {
          "internalType": "uint256",
          "name": "",
          "type": "uint256"
        }
      ],
      "stateMutability": "pure",
      "type": "function",
      "constant": true
    },
    {
      "inputs": [
        {
          "internalType": "uint256",
          "name": "encodedSkills",
          "type": "uint256"
        },
        {
          "internalType": "bool",
          "name": "val",
          "type": "bool"
        }
      ],
      "name": "setOutOfGameFirstHalf",
      "outputs": [
        {
          "internalType": "uint256",
          "name": "",
          "type": "uint256"
        }
      ],
      "stateMutability": "pure",
      "type": "function",
      "constant": true
    },
    {
      "inputs": [
        {
          "internalType": "uint256",
          "name": "encodedSkills",
          "type": "uint256"
        },
        {
          "internalType": "uint256",
          "name": "val",
          "type": "uint256"
        }
      ],
      "name": "setPotential",
      "outputs": [
        {
          "internalType": "uint256",
          "name": "",
          "type": "uint256"
        }
      ],
      "stateMutability": "pure",
      "type": "function",
      "constant": true
    },
    {
      "inputs": [
        {
          "internalType": "uint256",
          "name": "encodedSkills",
          "type": "uint256"
        },
        {
          "internalType": "bool",
          "name": "val",
          "type": "bool"
        }
      ],
      "name": "setRedCardLastGame",
      "outputs": [
        {
          "internalType": "uint256",
          "name": "",
          "type": "uint256"
        }
      ],
      "stateMutability": "pure",
      "type": "function",
      "constant": true
    },
    {
      "inputs": [
        {
          "internalType": "uint256",
          "name": "encodedSkills",
          "type": "uint256"
        },
        {
          "internalType": "uint256",
          "name": "val",
          "type": "uint256"
        },
        {
          "internalType": "uint8",
          "name": "skillIdx",
          "type": "uint8"
        }
      ],
      "name": "setSkill",
      "outputs": [
        {
          "internalType": "uint256",
          "name": "",
          "type": "uint256"
        }
      ],
      "stateMutability": "pure",
      "type": "function",
      "constant": true
    },
    {
      "inputs": [
        {
          "internalType": "uint256",
          "name": "tactics",
          "type": "uint256"
        },
        {
          "internalType": "uint8[25]",
          "name": "vals",
          "type": "uint8[25]"
        }
      ],
      "name": "setStaminaRecovery",
      "outputs": [
        {
          "internalType": "uint256",
          "name": "",
          "type": "uint256"
        }
      ],
      "stateMutability": "pure",
      "type": "function",
      "constant": true
    },
    {
      "inputs": [
        {
          "internalType": "uint256",
          "name": "encodedSkills",
          "type": "uint256"
        },
        {
          "internalType": "bool",
          "name": "val",
          "type": "bool"
        }
      ],
      "name": "setSubstitutedFirstHalf",
      "outputs": [
        {
          "internalType": "uint256",
          "name": "",
          "type": "uint256"
        }
      ],
      "stateMutability": "pure",
      "type": "function",
      "constant": true
    },
    {
      "inputs": [
        {
          "internalType": "uint256",
          "name": "encodedSkills",
          "type": "uint256"
        },
        {
          "internalType": "uint32",
          "name": "val",
          "type": "uint32"
        }
      ],
      "name": "setSumOfSkills",
      "outputs": [
        {
          "internalType": "uint256",
          "name": "",
          "type": "uint256"
        }
      ],
      "stateMutability": "pure",
      "type": "function",
      "constant": true
    },
    {
      "inputs": [
        {
          "internalType": "uint256",
          "name": "encodedSkills",
          "type": "uint256"
        },
        {
          "internalType": "bool",
          "name": "val",
          "type": "bool"
        }
      ],
      "name": "setYellowCardFirstHalf",
      "outputs": [
        {
          "internalType": "uint256",
          "name": "",
          "type": "uint256"
        }
      ],
      "stateMutability": "pure",
      "type": "function",
      "constant": true
    },
    {
      "inputs": [
        {
          "internalType": "uint256",
          "name": "weight0",
          "type": "uint256"
        },
        {
          "internalType": "uint256",
          "name": "weight1",
          "type": "uint256"
        },
        {
          "internalType": "uint256",
          "name": "rndNum",
          "type": "uint256"
        }
      ],
      "name": "throwDice",
      "outputs": [
        {
          "internalType": "uint8",
          "name": "",
          "type": "uint8"
        }
      ],
      "stateMutability": "pure",
      "type": "function",
      "constant": true
    },
    {
      "inputs": [
        {
          "internalType": "uint256[]",
          "name": "weights",
          "type": "uint256[]"
        },
        {
          "internalType": "uint256",
          "name": "rndNum",
          "type": "uint256"
        }
      ],
      "name": "throwDiceArray",
      "outputs": [
        {
          "internalType": "uint8",
          "name": "w",
          "type": "uint8"
        }
      ],
      "stateMutability": "pure",
      "type": "function",
      "constant": true
    },
    {
      "inputs": [
        {
          "internalType": "uint256",
          "name": "matchLog0",
          "type": "uint256"
        },
        {
          "internalType": "uint256",
          "name": "matchLog1",
          "type": "uint256"
        }
      ],
      "name": "computeTrainingPoints",
      "outputs": [
        {
          "internalType": "uint256",
          "name": "",
          "type": "uint256"
        },
        {
          "internalType": "uint256",
          "name": "",
          "type": "uint256"
        }
      ],
      "stateMutability": "pure",
      "type": "function",
      "constant": true
    },
    {
      "inputs": [
        {
          "internalType": "uint256",
          "name": "matchLog",
          "type": "uint256"
        }
      ],
      "name": "pointsPerCleanSheet",
      "outputs": [
        {
          "internalType": "uint256",
          "name": "",
          "type": "uint256"
        }
      ],
      "stateMutability": "pure",
      "type": "function",
      "constant": true
    },
    {
      "inputs": [
        {
          "internalType": "uint256",
          "name": "matchLog",
          "type": "uint256"
        },
        {
          "internalType": "uint256",
          "name": "nGoals",
          "type": "uint256"
        }
      ],
      "name": "pointsPerWhoScoredGoalsAndAssists",
      "outputs": [
        {
          "internalType": "uint256",
          "name": "points",
          "type": "uint256"
        }
      ],
      "stateMutability": "pure",
      "type": "function",
      "constant": true
    },
    {
      "inputs": [
        {
          "internalType": "uint256[25]",
          "name": "teamSkills",
          "type": "uint256[25]"
        },
        {
          "internalType": "uint256",
          "name": "matchStartTime",
          "type": "uint256"
        }
      ],
      "name": "evolveBot",
      "outputs": [
        {
          "internalType": "uint256[25]",
          "name": "",
          "type": "uint256[25]"
        }
      ],
      "stateMutability": "pure",
      "type": "function",
      "constant": true
    },
    {
      "inputs": [
        {
          "internalType": "uint256[25]",
          "name": "teamSkills",
          "type": "uint256[25]"
        },
        {
          "internalType": "uint256",
          "name": "assignedTPs",
          "type": "uint256"
        },
        {
          "internalType": "uint256",
          "name": "tactics",
          "type": "uint256"
        },
        {
          "internalType": "uint256",
          "name": "matchStartTime",
          "type": "uint256"
        },
        {
          "internalType": "uint16",
          "name": "earnedTPs",
          "type": "uint16"
        }
      ],
      "name": "applyTrainingPoints",
      "outputs": [
        {
          "internalType": "uint256[25]",
          "name": "",
          "type": "uint256[25]"
        },
        {
          "internalType": "uint8",
          "name": "err",
          "type": "uint8"
        }
      ],
      "stateMutability": "pure",
      "type": "function",
      "constant": true
    },
    {
      "inputs": [
        {
          "internalType": "uint8",
          "name": "p",
          "type": "uint8"
        },
        {
          "internalType": "uint8",
          "name": "specialPlayer",
          "type": "uint8"
        },
        {
          "internalType": "uint256",
          "name": "forwardness",
          "type": "uint256"
        }
      ],
      "name": "getOffset",
      "outputs": [
        {
          "internalType": "uint8",
          "name": "offset",
          "type": "uint8"
        }
      ],
      "stateMutability": "pure",
      "type": "function",
      "constant": true
    },
    {
      "inputs": [
        {
          "internalType": "uint256",
          "name": "skills",
          "type": "uint256"
        },
        {
          "internalType": "uint16[5]",
          "name": "TPperSkill",
          "type": "uint16[5]"
        },
        {
          "internalType": "uint256",
          "name": "matchStartTime",
          "type": "uint256"
        }
      ],
      "name": "evolvePlayer",
      "outputs": [
        {
          "internalType": "uint256",
          "name": "",
          "type": "uint256"
        }
      ],
      "stateMutability": "pure",
      "type": "function",
      "constant": true
    },
    {
      "inputs": [
        {
          "internalType": "uint256",
          "name": "skills",
          "type": "uint256"
        },
        {
          "internalType": "uint8",
          "name": "stamina",
          "type": "uint8"
        }
      ],
      "name": "reduceGamesNonStopping",
      "outputs": [
        {
          "internalType": "uint256",
          "name": "",
          "type": "uint256"
        },
        {
          "internalType": "uint8",
          "name": "",
          "type": "uint8"
        }
      ],
      "stateMutability": "pure",
      "type": "function",
      "constant": true
    },
    {
      "inputs": [
        {
          "internalType": "uint256",
          "name": "oldSkill",
          "type": "uint256"
        },
        {
          "internalType": "uint16",
          "name": "TPthisSkill",
          "type": "uint16"
        },
        {
          "internalType": "uint256",
          "name": "numerator",
          "type": "uint256"
        },
        {
          "internalType": "uint256",
          "name": "denominator",
          "type": "uint256"
        },
        {
          "internalType": "uint256",
          "name": "deltaNeg",
          "type": "uint256"
        }
      ],
      "name": "getNewSkill",
      "outputs": [
        {
          "internalType": "uint256",
          "name": "",
          "type": "uint256"
        }
      ],
      "stateMutability": "pure",
      "type": "function",
      "constant": true
    },
    {
      "inputs": [
        {
          "internalType": "uint256",
          "name": "skills",
          "type": "uint256"
        },
        {
          "internalType": "uint256",
          "name": "ageInSecs",
          "type": "uint256"
        },
        {
          "internalType": "uint256",
          "name": "matchStartTime",
          "type": "uint256"
        }
      ],
      "name": "generateChildIfNeeded",
      "outputs": [
        {
          "internalType": "uint256",
          "name": "",
          "type": "uint256"
        }
      ],
      "stateMutability": "pure",
      "type": "function",
      "constant": true
    },
    {
      "inputs": [
        {
          "internalType": "uint256",
          "name": "seed",
          "type": "uint256"
        },
        {
          "internalType": "uint256",
          "name": "forwardPos",
          "type": "uint256"
        }
      ],
      "name": "forwardnessToShirtNum",
      "outputs": [
        {
          "internalType": "uint8",
          "name": "shirtNum",
          "type": "uint8"
        }
      ],
      "stateMutability": "pure",
      "type": "function",
      "constant": true
    }
  ],
  "bytecode": "0x608060405234801561001057600080fd5b5061408e806100206000396000f3fe608060405234801561001057600080fd5b506004361061063e5760003560e01c806390652b1e11610336578063ca7678fb116101c3578063e37528bb1161010f578063f2dc657f116100ad578063f996b1d411610087578063f996b1d414611a0d578063facec57314611a36578063fb98536914611a5c578063fc27bf4a14611b015761063e565b8063f2dc657f14611976578063f780e88514611993578063f81c7a45146119e75761063e565b8063e9b66454116100e9578063e9b66454146118e8578063eed314281461190e578063f0789df614611933578063f2c35764146119595761063e565b8063e37528bb14611888578063e4eec4be146118a5578063e804e519146118cb5761063e565b8063d2f7967d1161017c578063db43151d11610156578063db43151d146117d1578063dcc9ee3f146117f7578063df1beecb1461181c578063df225a9e1461184f5761063e565b8063d2f7967d14611737578063d5a4d6c014611754578063d7590c45146117795761063e565b8063ca7678fb1461162a578063cb8bd14e1461167e578063cbbfac661461169b578063cc7d473b146116c9578063ce968164146116e6578063d1b3d8fd1461171a5761063e565b8063ae59df9d11610282578063ba8dfa461161023b578063c2bc41cd11610215578063c2bc41cd14611562578063c5aedd2c1461157f578063c6481855146115a4578063c847d9c2146115ca5761063e565b8063ba8dfa46146114be578063be8fcecb146114db578063bf8bf719146115345761063e565b8063ae59df9d146113c3578063af15ace3146113e9578063b1c2c8a314611406578063b2a0425614611434578063b8100e5714611472578063b9aef3f41461149b5761063e565b80639c669166116102ef5780639f7d3b7f116102c95780639f7d3b7f14611319578063a12dd1401461133f578063a5ca434814611372578063a7d0238a146113955761063e565b80639c6691661461125f5780639cd33b65146112885780639e8530ff146112f45761063e565b806390652b1e14611159578063919e276214611189578063920bee2f146111c157806394ee9bf1146111de578063989aa2221461121f57806399dfedb4146112425761063e565b806338897858116104cf5780635fc4f9f41161041b57806376f96f42116103b95780637d3921cd116103935780637d3921cd146110c35780637ffa3a2e146110e05780638b6f120f146110fd5780638de97f4f146111305761063e565b806376f96f421461105257806379e76597146110805780637a8409b31461109d5761063e565b8063658d2da5116103f5578063658d2da514610f875780636f6c2ae014610fa4578063754b7cf414610fc1578063755bfe0d14610fe75761063e565b80635fc4f9f414610f245780636223304514610f2c578063638a530714610f4f5761063e565b80634c0b044a1161048857806356e3df971161046257806356e3df9714610e57578063573ca8f814610e745780635ac78b1114610ec85780635bdc6b5814610ef65761063e565b80634c0b044a14610dde5780634cc3e34f14610e0c5780634e905ea214610e325761063e565b80633889785814610cfd5780633f45733c14610d265780634129b2c914610d62578063434807ad14610d7f57806347524b6014610d9c578063494dd3f414610db95761063e565b80631fc7768f1161058e5780632df8e167116105475780633518dd1d116105215780633518dd1d14610c7857806335515f7814610c9557806335b6ab7a14610cb257806336e3178214610cd85761063e565b80632df8e16714610ab05780632ead055314610b285780632eb7cfa714610bef5761063e565b80631fc7768f1461096a57806321904861146109875780632777d02a14610a3657806329d0dcfb14610a5d5780632a3328f614610a835780632bdc66a014610aa85761063e565b80631036bbe2116105fb578063127f05e0116105d5578063127f05e014610849578063185e456f146108ee578063190e5f8c146109135780631d1e84de146109445761063e565b80631036bbe2146107b55780631060c9c2146107bd57806310bca22c146107da5761063e565b806305f0bb7b1461064357806307c30b4d1461067f5780630ae78a39146106b65780630b489b02146106ee5780630f14aef4146107645780631018d55f14610789575b600080fd5b6106696004803603604081101561065957600080fd5b508035906020013560ff16611b24565b6040805160ff9092168252519081900360200190f35b6106a46004803603604081101561069557600080fd5b50803590602001351515611b3b565b60408051918252519081900360200190f35b6106a4600480360360808110156106cc57600080fd5b5080359060ff6020820135811691604081013590911690606001351515611b65565b6107146004803603604081101561070457600080fd5b508035906020013560ff16611ba2565b60408051602080825283518183015283519192839290830191858101910280838360005b83811015610750578181015183820152602001610738565b505050509050019250505060405180910390f35b6106a46004803603604081101561077a57600080fd5b50803590602001351515611c97565b6106a46004803603606081101561079f57600080fd5b508035906020810135906040013560ff16611cc1565b6106a4611cde565b6106a4600480360360208110156107d357600080fd5b5035611ce3565b6107f7600480360360208110156107f057600080fd5b5035611cf3565b604051808461032080838360005b8381101561081d578181015183820152602001610805565b50505061ffff90961692019182525063ffffffff90921660208301525060408051918290030192509050f35b6108776004803603606081101561085f57600080fd5b5080359060ff60208201358116916040013516611d5c565b604051808460a080838360005b8381101561089c578181015183820152602001610884565b5050505090500183600460200280838360005b838110156108c75781810151838201526020016108af565b505050509050018263ffffffff1663ffffffff168152602001935050505060405180910390f35b6106a46004803603604081101561090457600080fd5b5080359060200135151561200b565b6109306004803603602081101561092957600080fd5b5035612035565b604080519115158252519081900360200190f35b6106696004803603604081101561095a57600080fd5b508035906020013560ff16612041565b6106a46004803603602081101561098057600080fd5b5035612051565b6109f060048036036103a081101561099e57600080fd5b8101908080610320019060198060200260405190810160405280929190826019602002808284376000920191909152509194505081359250506020810135906040810135906060013561ffff1661205a565b604051808361032080838360005b83811015610a165781810151838201526020016109fe565b505050509050018260ff1660ff1681526020019250505060405180910390f35b6106a460048036036040811015610a4c57600080fd5b508035906020013561ffff1661220c565b6106a460048036036040811015610a7357600080fd5b508035906020013560ff16612282565b6106a460048036036040811015610a9957600080fd5b50803590602001351515612291565b6106a46122b4565b610acd60048036036020811015610ac657600080fd5b50356122bd565b604051808561032080838360005b83811015610af3578181015183820152602001610adb565b50505060ff97881693909101928352505061ffff90931660208401525090911660408083019190915251908190036060019150f35b6106a46004803603610240811015610b3f57600080fd5b810190808060a001906005806020026040519081016040528092919082600560200280828437600092019190915250506040805160808181018352939685359660ff6020880135169693840135959194509260e081019291606090910190600490839083908082843760009201919091525091945050508035151591506020810135151590604081013560ff90811691606081013590911690608081013515159060a0013563ffffffff166123dd565b610c3d60048036036060811015610c0557600080fd5b6040805180820182529183019291818301918390600290839083908082843760009201919091525091945050503560ff1690506127ba565b6040518082600260200280838360005b83811015610c65578181015183820152602001610c4d565b5050505090500191505060405180910390f35b6106a460048036036020811015610c8e57600080fd5b50356127f8565b61066960048036036020811015610cab57600080fd5b5035612801565b61093060048036036040811015610cc857600080fd5b508035906020013560ff16612807565b6106a460048036036040811015610cee57600080fd5b50803590602001351515612817565b6106a460048036036040811015610d1357600080fd5b508035906020013563ffffffff16612841565b610d4960048036036040811015610d3c57600080fd5b508035906020013561285d565b6040805192835260208301919091528051918290030190f35b61066960048036036020811015610d7857600080fd5b5035612bb6565b6106a460048036036020811015610d9557600080fd5b5035612bbf565b61093060048036036020811015610db257600080fd5b5035612bc8565b6106a460048036036040811015610dcf57600080fd5b50803590602001351515612bd4565b6106a460048036036060811015610df457600080fd5b5080359060ff60208201351690604001351515612bfe565b6106a460048036036040811015610e2257600080fd5b508035906020013560ff16612c26565b6106a460048036036040811015610e4857600080fd5b50803590602001351515612c36565b6106a460048036036020811015610e6d57600080fd5b5035612c60565b6106696004803603610120811015610e8b57600080fd5b810190808061012001906009806020026040519081016040528092919082600960200280828437600092019190915250919450612c699350505050565b6106a460048036036060811015610ede57600080fd5b5080359060ff60208201358116916040013516612c83565b61066960048036036060811015610f0c57600080fd5b5080359060ff60208201351690604001351515612c98565b610669612cc8565b6106a460048036036040811015610f4257600080fd5b5080359060200135612ccd565b610f7260048036036020811015610f6557600080fd5b503563ffffffff16612cd4565b60405181518152808260c08083836020610c4d565b61093060048036036020811015610f9d57600080fd5b5035612d27565b6106a460048036036020811015610fba57600080fd5b5035612d33565b61066960048036036040811015610fd757600080fd5b508035906020013560ff16612d54565b611039600480360360c0811015610ffd57600080fd5b810190808060c001906006806020026040519081016040528092919082600660200280828437600092019190915250919450612d649350505050565b6040805163ffffffff9092168252519081900360200190f35b6106a46004803603606081101561106857600080fd5b5080359060ff60208201358116916040013516612dea565b6106696004803603602081101561109657600080fd5b5035612e00565b610669600480360360408110156110b357600080fd5b508035906020013560ff16612e09565b610669600480360360208110156110d957600080fd5b5035612e19565b610930600480360360208110156110f657600080fd5b5035612e1f565b61111a6004803603602081101561111357600080fd5b5035612e2b565b6040518151815280826101c08083836020610c4d565b6106a46004803603604081101561114657600080fd5b508035906020013563ffffffff16612e76565b6106696004803603606081101561116f57600080fd5b5060ff813581169160208101359091169060400135612e90565b6106a46004803603608081101561119f57600080fd5b5080359060ff6020820135811691604081013590911690606001351515612ee1565b6106a4600480360360208110156111d757600080fd5b5035612f0f565b611204600480360360408110156111f457600080fd5b508035906020013560ff16612f18565b6040805192835260ff90911660208301528051918290030190f35b6106a46004803603604081101561123557600080fd5b5080359060200135612fa7565b6106a46004803603602081101561125857600080fd5b5035612fae565b6106696004803603606081101561127557600080fd5b5080359060208101359060400135612fb9565b6112de600480360361034081101561129f57600080fd5b8101908080610320019060198060200260405190810160405280929190826019602002808284376000920191909152509194505090359150612ff99050565b6040518151815280826103208083836020610c4d565b6106696004803603604081101561130a57600080fd5b5080359060200135151561307c565b6106a46004803603604081101561132f57600080fd5b508035906020013560ff166130a4565b61135c6004803603602081101561135557600080fd5b50356130b1565b6040518151815280826101208083836020610c4d565b6106696004803603604081101561138857600080fd5b508035906020013561340a565b6106a4600480360360608110156113ab57600080fd5b5080359060ff60208201358116916040013516613451565b610669600480360360408110156113d957600080fd5b508035906020013560ff16613467565b610669600480360360208110156113ff57600080fd5b5035613477565b6106696004803603606081101561141c57600080fd5b5080359060ff6020820135169060400135151561349c565b6106a4600480360360a081101561144a57600080fd5b5080359060ff60208201358116916040810135821691606082013516906080013515156134c9565b6106a46004803603604081101561148857600080fd5b508035906020013563ffffffff16613517565b6106a4600480360360408110156114b157600080fd5b5080359060200135613534565b610669600480360360208110156114d457600080fd5b50356135b9565b6106a460048036036103408110156114f257600080fd5b60408051610320818101909252833593928301929161034083019190602084019060199083908390808284376000920191909152509194506135c29350505050565b6106a46004803603606081101561154a57600080fd5b5080359060ff60208201351690604001351515613681565b6106a46004803603602081101561157857600080fd5b50356136ac565b6106a46004803603604081101561159557600080fd5b508035906020013515156136b5565b6106a4600480360360408110156115ba57600080fd5b508035906020013560ff166136df565b6106a460048036036103608110156115e157600080fd5b6040805161032081810190925261ffff843516939283019291610340830191906020840190601990839083908082843760009201919091525091945050503560ff1690506136f8565b610669600480360361012081101561164157600080fd5b8101908080610120019060098060200260405190810160405280929190826009602002808284376000920191909152509194506138cc9350505050565b6106a46004803603602081101561169457600080fd5b50356138dc565b6106a4600480360360608110156116b157600080fd5b5080359060ff60208201358116916040013516613917565b610930600480360360208110156116df57600080fd5b503561392d565b611703600480360360208110156116fc57600080fd5b5035613939565b6040805161ffff9092168252519081900360200190f35b6109306004803603602081101561173057600080fd5b5035613943565b6106a46004803603602081101561174d57600080fd5b503561394f565b6106a46004803603604081101561176a57600080fd5b5080359060200135151561395d565b6106a4600480360360e081101561178f57600080fd5b6040805160a0818101909252833593928301929160c0830191906020840190600590839083908082843760009201919091525091945050903591506139879050565b6106a4600480360360408110156117e757600080fd5b508035906020013560ff16613aa5565b6106a46004803603604081101561180d57600080fd5b50803590602001351515613abc565b6118396004803603602081101561183257600080fd5b5035613ae6565b6040518151815280826101408083836020610c4d565b6106a4600480360360a081101561186557600080fd5b5080359061ffff6020820135169060408101359060608101359060800135613b3c565b6109306004803603602081101561189e57600080fd5b5035613b86565b610669600480360360408110156118bb57600080fd5b508035906020013560ff16613b92565b610669600480360360208110156118e157600080fd5b5035613ba2565b610930600480360360408110156118fe57600080fd5b508035906020013560ff16613bab565b6106696004803603604081101561192457600080fd5b50803590602001351515613bd1565b6106696004803603604081101561194957600080fd5b508035906020013560ff16613bf6565b6109306004803603602081101561196f57600080fd5b5035613c06565b6106a46004803603602081101561198c57600080fd5b5035613c12565b61066960048036036101208110156119aa57600080fd5b810190808061012001906009806020026040519081016040528092919082600960200280828437600092019190915250919450613c1c9350505050565b6106a4600480360360408110156119fd57600080fd5b508035906020013560ff16613c2c565b6106a460048036036060811015611a2357600080fd5b5080359060208101359060400135613c33565b6106a460048036036040811015611a4c57600080fd5b508035906020013560ff16613d73565b61066960048036036040811015611a7257600080fd5b810190602081018135640100000000811115611a8d57600080fd5b820183602082011115611a9f57600080fd5b80359060200191846020830284011164010000000083111715611ac157600080fd5b9190808060200260200160405190810160405280939291908181526020018383602002808284376000920191909152509295505091359250613de5915050565b6106a460048036036040811015611b1757600080fd5b5080359060200135613e92565b601f60ff601060058402011683901c165b92915050565b60008115611b575750600160ad1b198216600160ad1b17611b35565b50600160ad1b198216611b35565b60008082611b74576000611b77565b60035b840160020260a70190508060ff168560ff16901b8160ff166003901b19871617915050949350505050565b60408051602080820185905282518083038201815282840180855281519183019190912060ff868116808452938402909401606090810190955292918491908015611bf7578160200160208202803683370190505b50905060005b8560ff168160ff161015611c8d57602460ff84161015611c47576040805160208082018a905260ff8085168385015283518084038501815260609093019093528151910120945092505b640fffffffff8416828260ff1681518110611c5e57fe5b67ffffffffffffffff9092166020928302919091019091015260249390931c9260231990920191600101611bfd565b5095945050505050565b600060fb82611ca7576000611caa565b60015b60ff16901b60fb6001901b19841617905092915050565b60ff811660140282811b620fffff90911b198416175b9392505050565b603c81565b6207ffff60b582901c165b919050565b611cfb613ea3565b600080805b601960ff82161015611d405780600202606e0160ff1685901c600316848260ff1660198110611d2b57fe5b60ff9092166020929092020152600101611d00565b50919360a084901c611fff169360ad1c63ffffffff1692509050565b611d64613ec2565b611d6c613ee0565b6000611d76613ec2565b611d7e613ec2565b6040805160208082018b905260ff8a1682840181905283518084038501815260609093019093528151910120600281811c9260009283926003909116911015611dd857600e85526006604086015260009250829150611ea0565b60078b60ff161015611e02576004855260106060860152600192506007845b066001019150611ea0565b600a8b60ff161015611e21576010604086015260029250600784611df7565b600c8b60ff161015611e4357600d604086015260078086526004935084611df7565b600e8b60ff161015611e6957600d60408601526007606086018190526005935084611df7565b60108b60ff161015611e8d5760108552600560608601526003925060069150611ea0565b6010855260056060860152600392508291505b60039390931c926000805b600560ff82161015611f6c57868160ff1660058110611ec657fe5b6020020151611efc57610320860661ffff16888260ff1660058110611ee757fe5b63ffffffff9092166020929092020152611f44565b600a878260ff1660058110611f0d57fe5b602002015161032088060281611f1f57fe5b0461ffff16888260ff1660058110611f3357fe5b63ffffffff90921660209290920201525b878160ff1660058110611f5357fe5b6020020151600a9690961c959190910190600101611eab565b50600561138882900363ffffffff160460005b600560ff82161015611fc85781898260ff1660058110611f9b57fe5b602002015101898260ff1660058110611fb057fe5b63ffffffff9092166020929092020152600101611f7f565b506040805160808101825260ff9d8e168152958d166020870152938c169385019390935299166060830152939a9099506005909302909601965090945050505050565b600060f88261201b57600061201e565b60015b60ff16901b60f86001901b19841617905092915050565b60f81c60019081161490565b60040260340160ff161c600f1690565b607e1c60071690565b612062613ea3565b600061206c613ea3565b60008088156120bf5761207e896122bd565b96509194509250905060ff84161561209c5750889350612202915050565b8061ffff168661ffff16146120ba5789600594509450505050612202565b6120c4565b601991505b6120cc613ec2565b6120d4613ea3565b6120dd8a611cf3565b50909150600090505b601960ff821610156121f45760008d8260ff166019811061210357fe5b602002015190508061211557506121ec565b6000838360ff166019811061212657fe5b602002015160ff16111561216e5761215181848460ff166019811061214757fe5b6020020151612f18565b9850905060ff88161561216e57508c975061220295505050505050565b60005b60058160ff1610156121ca578781612192858a61218d876136ac565b612e90565b0160ff16601981106121a057fe5b6020020151858260ff16600581106121b457fe5b61ffff9092166020929092020152600101612171565b506121d681858d613987565b8e8360ff16601981106121e557fe5b6020020152505b6001016120e6565b508b96506000955050505050505b9550959350505050565b60006120008261ffff1610612268576040805162461bcd60e51b815260206004820152601f60248201527f7374616d696e615265636f76657279206d757374206265203c20322a2a313300604482015290519081900360640190fd5b5060a01b61ffff60a01b16611fff60a01b19919091161790565b60ff166014021c620fffff1690565b600080826122a05760836122a3565b608d5b60ff169390931c600f169392505050565b640fffffffff81565b6122c5613ea3565b601f60ea83901c166101ff60e184901c1660008160198411156122ec5750600290506123d6565b6000600482106122ff5781603c02612304565b816064025b905060005b60058160ff1610156123d2578060ff166004141561234357600a600b84020492506004831061233b5782603c02612340565b826064025b91505b6000600582025b8260010160050260ff168160ff1610156123b2576101ff60ff60098302168b901c16606481028510156123875750600395506123d6945050505050565b808a8360ff166019811061239757fe5b61ffff9092166020929092020152919091019060010161234a565b50838111156123c95750600493506123d692505050565b50600101612309565b5050505b9193509193565b8651600090600a60ff90911610612434576040805162461bcd60e51b81526020600482015260166024820152751c1bdd195b9d1a585b081bdd5d081bd988189bdd5b9960521b604482015290519081900360640190fd5b6006886001602002015160ff1610612493576040805162461bcd60e51b815260206004820152601860248201527f666f72776172646e657373206f7574206f6620626f756e640000000000000000604482015290519081900360640190fd5b6008886002602002015160ff16106124f2576040805162461bcd60e51b815260206004820152601860248201527f6c6566697473686e657373206f7574206f6620626f756e640000000000000000604482015290519081900360640190fd5b6008886003602002015160ff1610612551576040805162461bcd60e51b815260206004820152601b60248201527f616767726573736976656e657373206f7574206f6620626f756e640000000000604482015290519081900360640190fd5b604088015160ff166125a157602088015160ff16156125a15760405162461bcd60e51b815260040180806020018281038252602b815260200180613fde602b913960400191505060405180910390fd5b60088560ff16106125f9576040805162461bcd60e51b815260206004820152601d60248201527f67616d65734e6f6e53746f7070696e67206f7574206f6620626f756e64000000604482015290519081900360640190fd5b620100008b1061263a5760405162461bcd60e51b81526004018080602001828103825260218152602001806140096021913960400191505060405180910390fd5b60008911801561264f57506508000000000089105b612698576040805162461bcd60e51b81526020600482015260156024820152741c1b185e595c9259081bdd5d081bd988189bdd5b99605a1b604482015290519081900360640190fd5b60005b600561ffff821610156126da578060140261ffff168d8261ffff16600581106126c057fe5b602002015163ffffffff16901b919091179060010161269b565b5060648b901b176074886000602002015160ff16901b176078886001602002015160ff16901b17607b886002602002015160ff16901b17607e886003602002015160ff16901b81179050608189901b8117905060ac8761273b57600061273e565b60015b60ff16901b1760ad86612752576000612755565b60015b60ff16901b8117905060ae8560ff16901b8117905060b18460ff16901b8117905060b483612784576000612787565b60015b60ff16901b8117905060b58263ffffffff16901b8117905060cd8a60ff16901b811790509b9a5050505050505050505050565b6127c2613efe565b60408051808201909152806127df8560005b6020020151856130a4565b81526020016127ef8560016127d4565b90529392505050565b607b1c60071690565b603f1690565b607c0160ff161c60019081161490565b600081156128335750600160d51b198216600160d51b17611b35565b50600160d51b198216611b35565b60b51b63ffffffff60b51b166207ffff60b51b19919091161790565b600080600061286b85612e19565b60ff169050600061287b85612e19565b60ff169050612888613efe565b600a808252602082015261289b87612bb6565b60ff166128c9576128ab87612035565b6128b65760166128b9565b600b5b815160ff91909116018152612906565b6128d287612bb6565b60ff1660011415612906576128e687612035565b6128f15760166128f4565b60165b60ff1681600160200201805190910190525b6129108784613534565b815101815261291f8683613534565b6020820180519190910190528161293f57612939876138dc565b81510181525b8261295a5761294d866138dc565b6020820180519190910190525b612962613efe565b8281526020810184905260005b60028160ff161015612a7557600060ff82161561298c578861298e565b895b9050600e61299e8260018061349c565b60ff16106129ad5760006129b0565b60015b600e6129bf836000600161349c565b60ff16106129ce5760006129d1565b60015b600e6129e0846001600061349c565b60ff16106129ef5760006129f2565b60015b600e612a008560008061349c565b60ff1610612a0f576000612a12565b60015b6003612a1f866001612bd4565b14612a2b576000612a2e565b60035b6003612a3b876000612bd4565b14612a47576000612a4a565b60035b010101010160ff16838360ff1660028110612a6157fe5b60200201805190910190525060010161296f565b508051825111612a86576000612a8c565b80518251035b82526020818101519083015111612aa4576000612ab0565b60208082015190830151035b60208301526000612ac089612fae565b90506000612acd89612fae565b9050811580612ada575080155b15612aee57600a8085526020850152612b38565b81600302811115612aff5750600381025b80600302821115612b11578060030291505b83518290820281612b1e57fe5b04845260208401518190830281612b3157fe5b0460208501525b835160961015612b4757609684525b602084015160961015612b5c57609660208501525b8351600a1115612b6b57600a84525b6020840151600a1115612b8057600a60208501525b612b928a8560005b6020020151612ccd565b9950612ba089856001612b88565b98508989975097505050505050505b9250929050565b60d21c60031690565b60741c600f1690565b60cc1c60019081161490565b60008082612be3576083612be6565b608d5b90508060040160ff1684901c60031691505092915050565b600081612c0c576000612c0f565b60045b60ca0160ff168360ff16901b841790509392505050565b6001607c9190910160ff161b1790565b60008115612c525750600160b41b198216600160b41b17611b35565b50600160b41b198216611b35565b60cd1c60ff1690565b602081015160009082825b60200201516002020192915050565b60ff91821660049182029091019091161b1790565b60008082612ca7576000612caa565b60035b840160020260a70190508060ff1685901c6003169150509392505050565b601981565b60ec1b1790565b612cdc613f1c565b60005b600560ff821611612d21578060060260ff168363ffffffff16901c603f16828260ff1660068110612d0c57fe5b60ff9092166020929092020152600101612cdf565b50919050565b60fb1c60019081161490565b6000612d3e82612bc8565b612d5057612d4b8261394f565b611b35565b5090565b60050260b30160ff161c601f1690565b60006004826005602002015160ff1610612daf5760405162461bcd60e51b815260040180806020018281038252602f81526020018061402a602f913960400191505060405180910390fd5b60005b600560ff821611612d21578060060260ff16838260ff1660068110612dd357fe5b602002015160ff16901b9190911790600101612db2565b60ff91821660059190910260b3019091161b1790565b60b11c60071690565b60040260620160ff161c600f1690565b600f1690565b60d61c60019081161490565b612e33613f3a565b60005b600e8160ff161015612d21578060050260100160ff1683901c601f16828260ff16600e8110612e6157fe5b60ff9092166020929092020152600101612e36565b60cd1b63ffffffff60cd1b1660ff60cd1b19919091161790565b60008260ff168460ff161415612ea857506014611cd7565b81612eb557506000611cd7565b6001821415612ec657506005611cd7565b6003821415612ed75750600f611cd7565b50600a9392505050565b6000808360040283612ef4576097612ef7565b609f5b60ff87811692909101161b8617915050949350505050565b600160cc1b1790565b60008060048360ff1610612f325750600090506006612baf565b6000612f3d85613ba2565b905060ff8116612f54575083915060009050612baf565b8360ff1660031480612f6f57508360020260ff168160ff1611155b15612f8c57612f7f856000613d73565b925060009150612baf9050565b612f9b85856002028303613d73565b95600095509350505050565b60d41b1790565b60d41c62ffffff1690565b600083158015612fc7575082155b15612fd6575060018116611cd7565b641000000000840283850183021015612ff157506000611cd7565b506001611cd7565b613001613ea3565b60005b601960ff82161015613074576000848260ff166019811061302157fe5b6020020151905080613033575061306c565b60006201518061304283613c12565b028503600e029050613055828287613c33565b868460ff166019811061306457fe5b602002015250505b600101613004565b509192915050565b60008161308a57600061308d565b60015b60040260c20160ff1683901c600f16905092915050565b60d21b60ff60d21b161790565b6130b9613f59565b60006130c483612801565b905060ff811661312157505060408051610120810182526001808252600260208301819052928201819052606082018190526080820183905260a0820152600060c0820181905260e0820192909252610100810191909152611cee565b8060ff16600114156131805750506040805161012081018252600180825260036020830152918101829052606081018290526002608082015260a08101829052600060c0820181905260e0820192909252610100810191909152611cee565b8060ff16600214156131dc5750506040805161012081018252600180825260026020830152918101829052606081018290526080810182905260a0810182905260c0810182905260e08101829052610100810191909152611cee565b8060ff166003141561323b5750506040805161012081018252600180825260026020830152918101829052606081018290526003608082015260a08101829052600060c0820181905260e0820192909252610100810191909152611cee565b8060ff16600414156132975750506040805161012081018252600180825260208201819052918101829052606081018290526002608082015260a0810182905260c0810182905260e08101829052610100810191909152611cee565b8060ff16600514156132f35750506040805161012081018252600180825260208201819052918101829052606081018290526003608082015260a0810191909152600060c08201819052600260e0830152610100820152611cee565b8060ff166006141561334f5750506040805161012081018252600180825260208201819052918101829052606081018290526080810182905260a0810182905260c08101829052600260e0820152610100810191909152611cee565b8060ff16600714156133ae575050604080516101208101825260018082526002602083018190529282018190526000606083018190526080830184905260a083015260c0820181905260e0820192909252610100810191909152611cee565b8060ff1660081415612d215750506040805161012081018252600080825260026020830152918101919091526001606082018190526003608083015260a0820181905260c0820181905260e08201819052610100820152611cee565b60008161341b575060018216611b35565b6001821415613431575060026005830601611b35565b60028214156134465750600780830601611b35565b5050600316600e0190565b60ff9182166004919091026034019091161b1790565b60020260640160ff161c60031690565b6000613481613f59565b61348a836130b1565b60208101519051600202019392505050565b60008083600402836134af5760976134b2565b609f5b0190508060ff1685901c600f169150509392505050565b600080826134d85760836134db565b608d5b6103ff60ff82811691821b1999909916888a1690911b17858916600483018a161b17978681166006909201161b87179150505b95945050505050565b60ad1b63ffffffff60ad1b1663ffffffff60ad1b19919091161790565b6000805b828160ff1610156135b257600061354f8583613467565b60ff169050600281101561356857600683019250613583565b806002141561357c57600583019250613583565b6004830192505b61358d8583613bf6565b60ff1661359a8684612041565b60ff16146135a9576003830192505b50600101613538565b5092915050565b60f91c60031690565b6000805b601960ff82161015613074576004838260ff16601981106135e357fe5b602002015160ff161061363d576040805162461bcd60e51b815260206004820152601b60248201527f7374616d696e615265636f76657279206d757374206265203c20340000000000604482015290519081900360640190fd5b80600202606e0160ff16838260ff166019811061365657fe5b602002015160ff16901b81600202606e0160ff166003901b19851617935080806001019150506135c6565b60008161368f576000613692565b60015b60040260c20160ff168360ff16901b841790509392505050565b60781c60071690565b600081156136d15750600160d61b198216600160d61b17611b35565b50600160d61b198216611b35565b60f91b607f60f91b166001607d60f91b03919091161790565b6000601960ff83161115613753576040805162461bcd60e51b815260206004820152601d60248201527f7370656369616c506c617965722076616c756520746f6f206c61726765000000604482015290519081900360640190fd5b5060ff60ea1b60ea82901b1661ffff60e11b60e185901b161761ffff84166000600482106137845781603c02613789565b816064025b9050600060ff851660191461379f5760056137a2565b60045b905060005b8160ff168160ff1610156138c1578060ff16600414156137e357600a600b8502049350600484106137db5783603c026137e0565b836064025b92505b6000600582025b8260010160050260ff168160ff161015613878576000898260ff166019811061380f57fe5b602002015161ffff1690508581606402111561385c5760405162461bcd60e51b8152600401808060200182810382526024815260200180613fba6024913960400191505060405180910390fd5b60ff600983021681901b979097179691909101906001016137ea565b50848111156138b85760405162461bcd60e51b8152600401808060200182810382526022815260200180613f986022913960400191505060405180910390fd5b506001016137a7565b505050509392505050565b6080810151600090826003612c74565b60006138e982600161307c565b6138f483600061307c565b6138ff846001613bd1565b61390a856000613bd1565b01010160ff169050919050565b60ff9182166002919091026064019091161b1790565b60ad1c60019081161490565b60ec1c610fff1690565b60d51c60019081161490565b60811c6507ffffffffff1690565b6000808261396c57608361396f565b608d5b90508060060160ff1684901c600f1691505092915050565b6000806201518061399786613c12565b028303600e02905060006342baa4408211156139c457506301e1338063386408ff198201601002046139e0565b63386409008211156139e057506301e1338063386408ff198201045b6000826003026139ef88612bbf565b630f099c0002635a39a800011115613a225782600302613a0e88612bbf565b630f099c0002635a39a80001039050613a26565b5060005b6000805b600560ff82161015613a81576000613a65613a458b84612282565b8a8460ff1660058110613a5457fe5b602002015186630b47350089613b3c565b9050613a728a8284611cc1565b99509190910190600101613a2a565b50613a8c8882612841565b9750613a99888588613c33565b98975050505050505050565b60b11b60ff60b11b16600760b11b19919091161790565b60008115613ad85750600160ac1b198216600160ac1b17611b35565b50600160ac1b198216611b35565b613aee613f78565b60005b600a8160ff161015612d21578060060160ff1683901c600116600114613b18576000613b1b565b60015b828260ff16600a8110613b2a57fe5b91151560209092020152600101613af1565b60008083858761ffff160281613b4e57fe5b0490508561ffff168111613b63575061ffff85165b828188011115613b79578601829003905061350e565b5060019695505050505050565b60b41c60019081161490565b60040260560160ff161c600f1690565b60ae1c60071690565b60008160060160ff1683901c600116600114613bc8576000611cd7565b60019392505050565b600081613bdf576000613be2565b60045b60ca0160ff1683901c600f16905092915050565b60049081020160ff161c600f1690565b60ac1c60019081161490565b60641c61ffff1690565b60e0810151600090826006612c74565b60ff160190565b600063458c7180831015613c48575082611cd7565b60408051602080820187905281830186905282518083038401815260609092019092528051910120600080600483061190506303c267008206631e133800019450613c91613ec2565b613c99613ee0565b6000613cb885613cb187613cac8d6136ac565b61340a565b6000611d5c565b925092509250838015613cd357506009613cd18a612bbf565b105b15613cee57613ce189612bbf565b60010160ff168252613cf5565b6007851682525b6000613d478462015180600e8c048b030487613d12576020613d15565b60005b60ff166020613d238f612c60565b81613d2a57fe5b0660010101613d388e61394f565b8760008060008060008c6123dd565b9050613d528a612bc8565b613d5c5780613d65565b613d6581612f0f565b9a9950505050505050505050565b600060088260ff1610613dcd576040805162461bcd60e51b815260206004820152601d60248201527f67616d65734e6f6e53746f7070696e67206f7574206f6620626f756e64000000604482015290519081900360640190fd5b5060ae1b60ff60ae1b16600760ae1b19919091161790565b6000805b83518260ff161015613e1b57838260ff1681518110613e0457fe5b602090810291909101015160019092019101613de9565b80613e335783518381613e2a57fe5b06915050611b35565b600091508202641000000000825b60018651038460ff161015613e8957858460ff1681518110613e5f57fe5b602002602001015181019050818102831015613e7e5750611b35915050565b600190930192613e41565b50505092915050565b60741b600f60741b19919091161790565b6040518061032001604052806019906020820280368337509192915050565b6040518060a001604052806005906020820280368337509192915050565b60405180608001604052806004906020820280368337509192915050565b60405180604001604052806002906020820280368337509192915050565b6040518060c001604052806006906020820280368337509192915050565b604051806101c00160405280600e906020820280368337509192915050565b6040518061012001604052806009906020820280368337509192915050565b604051806101400160405280600a90602082028036833750919291505056fe73756d206f66205472616e696e6720506f696e747320697320746f6f206c617267656f6e65206f66207468652061737369676e65642054507320697320746f6f206c617267656c6566746973686e65732063616e206f6e6c79206265207a65726f20666f7220676f616c6b6565706572736461794f664269727468496e556e697854696d65206f7574206f6620626f756e6463616e6e6f74206f66666572206974656d73207468617420626f6f737420706f74656e7469616c20736f206d756368a26469706673582212206d64a30aa903c5d37fc470987857f681d1dbe6cacb109624eb576aca26d97a9e64736f6c63430006030033",
  "source": "pragma solidity >= 0.6.3;\n\nimport \"../storage/ComputeSkills.sol\";\nimport \"./EngineLib.sol\";\nimport \"../encoders/EncodingMatchLog.sol\";\nimport \"../encoders/EncodingTPAssignment.sol\";\nimport \"../encoders/EncodingSkills.sol\";\nimport \"../encoders/EncodingSkillsSetters.sol\";\nimport \"../encoders/EncodingTacticsBase2.sol\";\n\n/**\n @title Computes training points given a matchLog, and applies them given a TP assignment by user\n @author Freeverse.io, www.freeverse.io\n @dev all functions are pure except for several ones, that had to be made view to access the Assets code.\n @dev Inheriting Assets led to too-large-to-deploy \n*/\n\ncontract TrainingPoints is EncodingMatchLog, EngineLib, EncodingTPAssignment, EncodingSkills, EncodingSkillsSetters, EncodingTacticsBase2, ComputeSkills {\n    \n    /// a set of constants that make the formulas below more readable\n    uint256 constant internal YEARS_30  = 946080000; /// 30 years in sec\n    uint256 constant internal YEARS_35h = 1119528000; /// 35.5 years in sec\n    uint256 constant internal YEARS_1   = 31536000; /// 1 year in sec\n    uint256 constant internal YEARS_2   = 63072000; /// 2 year in sec\n    uint256 constant internal YEARS_16  = 504576000; /// 16 year in sec\n    uint256 constant internal DAYS_1    = 86400; /// 1 day in sec\n\n    function computeTrainingPoints(uint256 matchLog0, uint256 matchLog1) public pure returns (uint256, uint256)\n    {\n        /// +11 point for winning at home, +22 points for winning\n        /// away, or in a cup match. 0 points for drawing.\n        uint256 nGoals0 = getNGoals(matchLog0);\n        uint256 nGoals1 = getNGoals(matchLog1);\n        uint256[2] memory points;\n        points[0] = POINTS_FOR_HAVING_PLAYED;\n        points[1] = POINTS_FOR_HAVING_PLAYED;\n\n        if (getWinner(matchLog0)==0) { /// we can get winner from [0] or [1], they are the same   \n            points[0] += (getIsHomeStadium(matchLog0) ? 11 : 22); /// we can get homeStadium from [0] or [1], they are the same   \n        } else if (getWinner(matchLog0)==1) {\n            points[1] += (getIsHomeStadium(matchLog0) ? 22 : 22);    \n        }\n        \n        /// +6 for goal scored by GK/D; +5 for midfielder; +4 for attacker; +3 for each assist\n        points[0] += pointsPerWhoScoredGoalsAndAssists(matchLog0, nGoals0);\n        points[1] += pointsPerWhoScoredGoalsAndAssists(matchLog1, nGoals1);\n\n        /// if clean-sheet (opponent did not score):\n        /// +2 per half played by GK/D, +1 per half played for Mids and Atts\n        if (nGoals1 == 0) points[0] += pointsPerCleanSheet(matchLog0);\n        if (nGoals0 == 0) points[1] += pointsPerCleanSheet(matchLog1);\n\n        uint256[2] memory pointsNeg;\n        /// -1 for each opponent goal\n        pointsNeg[0] = nGoals1;\n        pointsNeg[1] = nGoals0;\n        /// -3 for redCards, -1 for yellows\n        for (uint8 team = 0; team < 2; team++) {\n            uint256 thisLog = (team == 0 ? matchLog0 : matchLog1);\n            pointsNeg[team] += \n                    (getOutOfGameType(thisLog, false) == RED_CARD ? 3 : 0)\n                +   (getOutOfGameType(thisLog, true)  == RED_CARD ? 3 : 0)\n                +   ((getYellowCard(thisLog, 0, false) < NO_OUT_OF_GAME_PLAYER) ? 1 : 0) \n                +   ((getYellowCard(thisLog, 1, false) < NO_OUT_OF_GAME_PLAYER) ? 1 : 0)\n                +   ((getYellowCard(thisLog, 0, true)  < NO_OUT_OF_GAME_PLAYER) ? 1 : 0) \n                +   ((getYellowCard(thisLog, 1, true)  < NO_OUT_OF_GAME_PLAYER) ? 1 : 0);\n        }\n        \n        /// subtract points, keeping them always non-negativre\n        points[0] = (points[0] > pointsNeg[0]) ? (points[0] - pointsNeg[0]) : 0;\n        points[1] = (points[1] > pointsNeg[1]) ? (points[1] - pointsNeg[1]) : 0;\n        \n        /// +10% for each extra 50 points of lack of balance between teams\n        uint256 teamSumSkills0 = getTeamSumSkills(matchLog0);\n        uint256 teamSumSkills1 = getTeamSumSkills(matchLog1);\n\n        if ((teamSumSkills0 == 0) || (teamSumSkills1 == 0)) {\n            points[0] = POINTS_FOR_HAVING_PLAYED;\n            points[1] = POINTS_FOR_HAVING_PLAYED;\n        } else {\n            if (teamSumSkills1 > 3 * teamSumSkills0) teamSumSkills1 = 3 * teamSumSkills0;\n            if (teamSumSkills0 > 3 * teamSumSkills1) teamSumSkills0 = 3 * teamSumSkills1;\n            points[0] = (points[0] * teamSumSkills1) / (teamSumSkills0);\n            points[1] = (points[1] * teamSumSkills0) / (teamSumSkills1);\n        }\n\n        if (points[0] > MAX_POINTS_PER_GAME) points[0] = MAX_POINTS_PER_GAME;\n        if (points[1] > MAX_POINTS_PER_GAME) points[1] = MAX_POINTS_PER_GAME;\n\n        if (points[0] < POINTS_FOR_HAVING_PLAYED) points[0] = POINTS_FOR_HAVING_PLAYED;\n        if (points[1] < POINTS_FOR_HAVING_PLAYED) points[1] = POINTS_FOR_HAVING_PLAYED;\n        \n        matchLog0 = addTrainingPoints(matchLog0, points[0]);\n        matchLog1 = addTrainingPoints(matchLog1, points[1]);\n        return (matchLog0, matchLog1);\n    }\n    \n    /// if clean-sheet (opponent did not score):\n    /// +2 per half played by GK/D, +1 per half played for Mids and Atts\n    function pointsPerCleanSheet(uint256 matchLog) public pure returns (uint256) {\n        /// formula: (note that for a given half: nGK + nDef + nMid + nAtt = nTot)\n        ///      pointsPerHalf   = 2 (nGK + nDef) + nMid + nAtt \n        ///                      = 2 (nGK + nDef) + nTot - nDef - nGK = \n        ///                      = nTot + nGk + nDef\n        return getNTot(matchLog, false) + getNTot(matchLog, true) + getNGKAndDefs(matchLog, false) + getNGKAndDefs(matchLog, true) ;\n    }\n    \n    /// +6 for goal scored by GK/D; +5 for midfielder; +4 for attacker; +3 for each assist\n    function pointsPerWhoScoredGoalsAndAssists(uint256 matchLog, uint256 nGoals) public pure returns(uint256 points) {\n        for (uint8 goal = 0; goal < nGoals; goal++) {\n            uint256 fwdPos = getForwardPos(matchLog, goal);\n            if (fwdPos < 2) {points += 6;}\n            else if (fwdPos == 2) {points += 5;}\n            else {points += 4;}\n            /// if assister is different the shooter, it was a true assist\n            if (getShooter(matchLog, goal) != getAssister(matchLog, goal)) {points += 3;}\n        }\n    }\n\n    // bot evolution is restricted to generating children if needed, to avoid assigning teams with very old players\n    function evolveBot(\n        uint256[PLAYERS_PER_TEAM_MAX] memory teamSkills, \n        uint256 matchStartTime\n    ) \n        public\n        pure\n        returns (uint256[PLAYERS_PER_TEAM_MAX] memory)\n    {\n        for (uint8 p = 0; p < PLAYERS_PER_TEAM_MAX; p++) {\n            uint256 thisSkills = teamSkills[p];\n            if (thisSkills == 0) continue; \n            uint256 ageInSecs = INGAMETIME_VS_REALTIME * (matchStartTime - getBirthDay(thisSkills) * DAYS_1); \n            teamSkills[p] = generateChildIfNeeded(thisSkills, ageInSecs, matchStartTime);\n        }\n        return teamSkills;\n    }\n\n    function applyTrainingPoints(\n        uint256[PLAYERS_PER_TEAM_MAX] memory teamSkills, \n        uint256 assignedTPs,\n        uint256 tactics,\n        uint256 matchStartTime,\n        uint16 earnedTPs\n    ) \n        public\n        pure\n        returns (uint256[PLAYERS_PER_TEAM_MAX] memory, uint8 err)\n    {\n        uint16[25] memory TPperSkill;\n        uint8 specialPlayer; \n        uint16 TP; \n        \n        /// even if assignedTPs = 0, players can get older, and use stamina pills to reduce nGamesNonStopping\n        if (assignedTPs != 0) {\n            (TPperSkill, specialPlayer, TP, err) = decodeTP(assignedTPs);\n            if (err > 0) return (teamSkills, err);\n            if (earnedTPs != TP) return (teamSkills, ERR_TRAINING_PREVMATCH); // assignedTPs used an amount of TP that does not match the earned TPs in previous match\n        } else {\n            specialPlayer = NO_PLAYER;\n        }\n        \n        uint16[5] memory singleTPperSkill;\n        (uint8[PLAYERS_PER_TEAM_MAX] memory staminas,,) = getItemsData(tactics);\n                \n        /// note that if no special player was selected => specialPlayer = PLAYERS_PER_TEAM_MAX \n        /// ==> it will never be processed in this loop\n        for (uint8 p = 0; p < PLAYERS_PER_TEAM_MAX; p++) {\n            uint256 thisSkills = teamSkills[p];\n            if (thisSkills == 0) continue; \n            if (staminas[p] > 0) {\n                (thisSkills, err) = reduceGamesNonStopping(thisSkills, staminas[p]);\n                if (err > 0) return (teamSkills, err);\n            }\n            for (uint8 s = 0; s < 5; s++) singleTPperSkill[s] = TPperSkill[getOffset(p, specialPlayer, getForwardness(thisSkills)) + s];\n            teamSkills[p] = evolvePlayer(thisSkills, singleTPperSkill, matchStartTime);\n        }    \n        return (teamSkills, 0);\n    }\n    \n    function getOffset(uint8 p, uint8 specialPlayer, uint256 forwardness) public pure returns (uint8 offset) {\n        if (p == specialPlayer) offset = 20; \n        else if(forwardness == IDX_GK) offset = 0;\n        else if(forwardness == IDX_D) offset = 5;\n        else if(forwardness == IDX_F) offset = 15;\n        else offset = 10;\n    }\n    \n    /// deltaS(i)    = max[ TP(i), TP(i) * (pot * 4/3 - (age-16)/2) ] - max(0,(age-31)*f), where f = 1 for slow, 16 for fast\n    /// If age is in days, define Yd = year2days\n    /// deltaS(i)    = max[ TP(i), TP(i) * (pot * 8 * Yd - 3 * ageDays + 48 Yd)/ (6 Yd)] - max(0,(ageDays-31)*f/Yd)\n    /// If age is in secs, define Ys = year2secs\n    /// deltaS(i)    = max[ TP(i), TP(i) * (pot * 8 * Ys - 3 * ageInSecs + 48 Ys)/ (6 Ys)] - max(0,(ageInSecs-31)*f/Ys)\n    /// skill(i)     = max(0, skill(i) + deltaS(i))\n    /// deltaS(i)    = max[ TP(i), TP(i) * numerator / denominator] - max(0,(ageInSecs-31)*f/Ys)\n    /// skill(i)     = max(0, skill(i) + deltaS(i))\n    /// shoot, speed, pass, defence, endurance\n    function evolvePlayer(uint256 skills, uint16[5] memory TPperSkill, uint256 matchStartTime) public pure returns(uint256) {\n        uint256 ageInSecs = INGAMETIME_VS_REALTIME * (matchStartTime - getBirthDay(skills) * DAYS_1); \n        uint256 deltaNeg;\n        if (ageInSecs > YEARS_35h) {\n            deltaNeg = ((ageInSecs-YEARS_30) * 16)/YEARS_1;\n        } else if (ageInSecs > YEARS_30) {\n            deltaNeg = (ageInSecs-YEARS_30)/YEARS_1;\n        }\n        uint256 numerator;\n        if (getPotential(skills) * 252288000 + 1513728000 > 3 * ageInSecs) {  /// 252288000 = 8 Ys,  1513728000 = 48 Ys, 189216000 = 6 Ys\n            numerator = (getPotential(skills) * 252288000 + 1513728000 - 3 * ageInSecs);\n        } else {\n            numerator = 0;\n        }\n        uint256 sum;\n        for (uint8 sk = 0; sk < N_SKILLS; sk++) {\n            uint256 newSkill = getNewSkill(getSkill(skills, sk), TPperSkill[sk], numerator, 189216000, deltaNeg);\n            skills = setSkill(skills, newSkill, sk);\n            sum += newSkill;\n        }\n        skills = setSumOfSkills(skills, uint32(sum));\n        return generateChildIfNeeded(skills, ageInSecs, matchStartTime);\n    } \n    \n    /// stamina = 0 => do not reduce\n    /// stamina = 1 => reduce 2 games\n    /// stamina = 2 => reduce 4 games\n    /// stamina = 3 => full recovery\n    function reduceGamesNonStopping(uint256 skills, uint8 stamina) public pure returns (uint256, uint8) {\n        if (stamina >= 4) return (0, ERR_TRAINING_STAMINA); // stamina value too large;\n        uint8 gamesNonStopping = getGamesNonStopping(skills);\n        if (gamesNonStopping == 0) return (skills, 0);\n        if ((stamina == 3) || (gamesNonStopping <= 2 * stamina)) return (setGamesNonStopping(skills, 0), 0);\n        return (setGamesNonStopping(skills, gamesNonStopping - 2 * stamina), 0);\n    }\n\n    function getNewSkill(uint256 oldSkill, uint16 TPthisSkill, uint256 numerator, uint256 denominator, uint256 deltaNeg) public pure returns (uint256) {\n        uint256 term1 = (uint256(TPthisSkill)*numerator) / denominator;\n        if (term1 <= TPthisSkill) { term1 = uint256(TPthisSkill); }\n        if ((oldSkill + term1) > deltaNeg) return oldSkill + term1 - deltaNeg;\n        return 1;\n    }\n\n    function generateChildIfNeeded(uint256 skills, uint256 ageInSecs, uint256 matchStartTime) public pure returns (uint256) {\n        if (ageInSecs < 1166832000) { return skills; }   /// 1166832000 = 37 * Ys\n\n        /// 75% chances to lead to a child, 25% to lead to academy player:\n        uint256 dna = uint256(keccak256(abi.encode(skills, ageInSecs)));\n        bool isChild = (dna % 4) > 0;\n        \n        /// Generation syntax: 0, 1, 2, 3... but with +32 if is not a child, so it can go: 0, 1, 32+2, 32+3, 4, 32+5,...\n        ///  - which would mean that 1 was child, 2 was child, 33 is Academy, etc...\n        ///  - we will start having uint8 overflow at generation 32 (after 64 years of real gameplay), and even then it'll look like a new player\n        ///  - Formula copied directly to avoid stack overflow: uint8 generation = uint8((getGeneration(skills) % 32) + 1 + (isChild ? 0 : 32));\n\n        /// AGe determination: age is a random between 16 and 18.\n        ///  - Formula copied directly to avoid stack overflow: uint256 dayOfBirth = (matchStartTime - ageInSecs / INGAMETIME_VS_REALTIME) / DAYS_1; \n        ageInSecs = YEARS_16 + (dna % YEARS_2);\n\n        (uint32[N_SKILLS] memory newSkills, uint8[4] memory birthTraits, uint32 sumSkills) = computeSkills(\n            dna, \n            forwardnessToShirtNum(dna, getForwardness(skills)), /// ensure they play in the same pos in field:\n            0\n        );\n        /// Potential determination:\n        ///  - if child, ensure potential is potential(father) + 1, otherwise, random\n        ///  - this rewards users that keep the same player over many years\n        if (isChild && (getPotential(skills) < 9)) {\n            birthTraits[IDX_POT] = uint8(getPotential(skills)) + 1;\n        } else {\n            birthTraits[IDX_POT] = uint8(dna % (MAX_POTENTIAL_AT_BIRTH+1));\n        }\n\n        uint256 finalSkills = encodePlayerSkills(\n            newSkills, \n            (matchStartTime - ageInSecs / INGAMETIME_VS_REALTIME) / DAYS_1, /// day of Birth, formula above\n            uint8(1 + (getGeneration(skills) % 32) + (isChild ? 0 : 32)), /// generation, formula above\n            getInternalPlayerId(skills), \n            birthTraits, \n            false, false, 0, 0, false, sumSkills\n        );\n        return (getIsSpecial(skills)) ? addIsSpecial(finalSkills) : finalSkills;\n    }\n    \n    function forwardnessToShirtNum(uint256 seed, uint256 forwardPos) public pure returns(uint8 shirtNum) {\n        if (forwardPos == IDX_GK) {\n            shirtNum = uint8(seed % 2);\n        } else if (forwardPos == IDX_D) {\n            shirtNum = 2 + uint8(seed % 5);\n        } else if (forwardPos == IDX_M) {\n            shirtNum = 7 + uint8(seed % 7);\n        } else {\n            shirtNum = 14 + uint8(seed % 4);\n        }\n    }\n}",
  "sourcePath": "/Users/jurgenkudla/proyects/laos/laos-goal-revolution/truffle-core/contracts/gameEngine/TrainingPoints.sol",
  "compiler": {
    "name": "solc",
    "version": "0.6.3+commit.8dda9521.Emscripten.clang"
  },
  "schemaVersion": "3.0.23",
  "updatedAt": "2024-10-16T08:58:34.466Z",
  "networkType": "ethereum",
  "devdoc": {
    "author": "Freeverse.io, www.freeverse.io",
    "details": "all functions are pure except for several ones, that had to be made view to access the Assets code.Inheriting Assets led to too-large-to-deploy ",
    "methods": {
      "throwDiceArray(uint256[],uint256)": {
        "details": "Generalization of the previous to any number of input weightsIt therefore throws any number of dice and returns the winner's idx.Following the explanation above, consider this limits:"
      }
    },
    "title": "Computes training points given a matchLog, and applies them given a TP assignment by user"
  },
  "userdoc": {
    "methods": {
      "addHalfTimeSubs(uint256,uint8,uint8)": {
        "notice": "recall that 0 means no subs, and we store here lineUp[p]+1 (where lineUp[p] = player shirt in the 25 that was substituted)"
      },
      "computeSkills(uint256,uint8,uint8)": {
        "notice": "/ Compute the pseudorandom skills, sum of the skills is 5K (1K each skill on average) / skills have currently, 16bits each, and there are 5 of them / potential is a number between 0 and 9 => takes 4 bit / 0: 000, 1: 001, 2: 010, 3: 011, 4: 100, 5: 101, 6: 110, 7: 111"
      },
      "computeTrainingPoints(uint256,uint256)": {
        "notice": "1 day in sec"
      },
      "encodeBoosts(uint8[6])": {
        "notice": "bits: 5 skills * 6b per skill (max 64) + 2b for potential = 32b"
      },
      "encodeTP(uint16,uint16[25],uint8)": {
        "notice": "No player chosen"
      },
      "evolvePlayer(uint256,uint16[5],uint256)": {
        "notice": "deltaS(i)    = max[ TP(i), TP(i) * (pot * 4/3 - (age-16)/2) ] - max(0,(age-31)*f), where f = 1 for slow, 16 for fast If age is in days, define Yd = year2days deltaS(i)    = max[ TP(i), TP(i) * (pot * 8 * Yd - 3 * ageDays + 48 Yd)/ (6 Yd)] - max(0,(ageDays-31)*f/Yd) If age is in secs, define Ys = year2secs deltaS(i)    = max[ TP(i), TP(i) * (pot * 8 * Ys - 3 * ageInSecs + 48 Ys)/ (6 Ys)] - max(0,(ageInSecs-31)*f/Ys) skill(i)     = max(0, skill(i) + deltaS(i)) deltaS(i)    = max[ TP(i), TP(i) * numerator / denominator] - max(0,(ageInSecs-31)*f/Ys) skill(i)     = max(0, skill(i) + deltaS(i)) shoot, speed, pass, defence, endurance"
      },
      "getHalfTimeSubs(uint256,uint8)": {
        "notice": "recall that 0 means no subs, and we store here p+1 (where p = player in the starting 11 that was substituted)"
      },
      "getPlayersPerZone(uint256)": {
        "notice": "TODO: can this be expressed as translates from a high level tacticsId (e.g. 442) to a format that describes how many players play in each of the 9 zones in the field (Def, Mid, Forw) x (L, C, R),  We impose left-right symmetry: DR = DL, MR = ML, FR = FL. So we only manage 6 numbers: [DL, DM, ML, MM, FL, FM], and force "
      },
      "pointsPerCleanSheet(uint256)": {
        "notice": "if clean-sheet (opponent did not score): +2 per half played by GK/D, +1 per half played for Mids and Atts"
      },
      "pointsPerWhoScoredGoalsAndAssists(uint256,uint256)": {
        "notice": "+6 for goal scored by GK/D; +5 for midfielder; +4 for attacker; +3 for each assist"
      },
      "reduceGamesNonStopping(uint256,uint8)": {
        "notice": "stamina = 0 => do not reduce stamina = 1 => reduce 2 games stamina = 2 => reduce 4 games stamina = 3 => full recovery"
      },
      "throwDice(uint256,uint256,uint256)": {
        "notice": "24 * 3600  / Throws a dice that returns 0 with probability weight0/(weight0+weight1), and 1 otherwise. / So, returning 0 has semantics: \"the responsible for weight0 is selected\". / We return a uint8, not bool, to allow the return to be used as an idx in an array by the callee. / The formula is derived as follows. Consider a segment which is the union of a segment of length w0, and one of length w1.      0, 1, ... w0-1 | w0 ... w0+w1-1  We want to get a random number in that segment: (w0+w1) * R/(maxR + 1)  w0 wins if (w0+w1) * R/(maxR + 1) < w0 => (w0+w1) * R < w0 * (maxR + 1)  w1 wins otherwise  Limits:  (w0 = 0, w1 != 0) => w0 never wins;   (w0 ! 0, w1 = 0) => w1 never wins;     MAX_RND controls the resolution or fine-graining of the algorithm."
      }
    }
  }
}