{
  "contractName": "UniverseInfo",
  "abi": [
    {
      "anonymous": false,
      "inputs": [
        {
          "indexed": false,
          "internalType": "uint256",
          "name": "teamId",
          "type": "uint256"
        },
        {
          "indexed": false,
          "internalType": "address",
          "name": "to",
          "type": "address"
        }
      ],
      "name": "TeamTransfer",
      "type": "event"
    },
    {
      "inputs": [],
      "name": "_stakers",
      "outputs": [
        {
          "internalType": "contract Stakers",
          "name": "",
          "type": "address"
        }
      ],
      "stateMutability": "view",
      "type": "function"
    },
    {
      "inputs": [
        {
          "internalType": "uint256",
          "name": "encoded",
          "type": "uint256"
        }
      ],
      "name": "decodeTZCountryAndVal",
      "outputs": [
        {
          "internalType": "uint8",
          "name": "",
          "type": "uint8"
        },
        {
          "internalType": "uint256",
          "name": "",
          "type": "uint256"
        },
        {
          "internalType": "uint256",
          "name": "",
          "type": "uint256"
        }
      ],
      "stateMutability": "pure",
      "type": "function"
    },
    {
      "inputs": [
        {
          "internalType": "uint8",
          "name": "timeZone",
          "type": "uint8"
        },
        {
          "internalType": "uint256",
          "name": "countryIdxInTZ",
          "type": "uint256"
        },
        {
          "internalType": "uint256",
          "name": "val",
          "type": "uint256"
        }
      ],
      "name": "encodeTZCountryAndVal",
      "outputs": [
        {
          "internalType": "uint256",
          "name": "",
          "type": "uint256"
        }
      ],
      "stateMutability": "pure",
      "type": "function"
    },
    {
      "inputs": [],
      "name": "gameDeployDay",
      "outputs": [
        {
          "internalType": "uint256",
          "name": "",
          "type": "uint256"
        }
      ],
      "stateMutability": "view",
      "type": "function"
    },
    {
      "inputs": [
        {
          "internalType": "uint256",
          "name": "encodedSkills",
          "type": "uint256"
        }
      ],
      "name": "getAggressiveness",
      "outputs": [
        {
          "internalType": "uint256",
          "name": "",
          "type": "uint256"
        }
      ],
      "stateMutability": "pure",
      "type": "function"
    },
    {
      "inputs": [
        {
          "internalType": "uint256",
          "name": "encodedSkills",
          "type": "uint256"
        }
      ],
      "name": "getAlignedEndOfFirstHalf",
      "outputs": [
        {
          "internalType": "bool",
          "name": "",
          "type": "bool"
        }
      ],
      "stateMutability": "pure",
      "type": "function"
    },
    {
      "inputs": [
        {
          "internalType": "uint256",
          "name": "encodedSkills",
          "type": "uint256"
        }
      ],
      "name": "getBirthDay",
      "outputs": [
        {
          "internalType": "uint256",
          "name": "",
          "type": "uint256"
        }
      ],
      "stateMutability": "pure",
      "type": "function"
    },
    {
      "inputs": [
        {
          "internalType": "uint256",
          "name": "encodedSkills",
          "type": "uint256"
        }
      ],
      "name": "getForwardness",
      "outputs": [
        {
          "internalType": "uint256",
          "name": "",
          "type": "uint256"
        }
      ],
      "stateMutability": "pure",
      "type": "function"
    },
    {
      "inputs": [
        {
          "internalType": "uint256",
          "name": "encodedSkills",
          "type": "uint256"
        }
      ],
      "name": "getGamesNonStopping",
      "outputs": [
        {
          "internalType": "uint8",
          "name": "",
          "type": "uint8"
        }
      ],
      "stateMutability": "pure",
      "type": "function"
    },
    {
      "inputs": [
        {
          "internalType": "uint256",
          "name": "encodedSkills",
          "type": "uint256"
        }
      ],
      "name": "getGeneration",
      "outputs": [
        {
          "internalType": "uint256",
          "name": "",
          "type": "uint256"
        }
      ],
      "stateMutability": "pure",
      "type": "function"
    },
    {
      "inputs": [
        {
          "internalType": "uint256",
          "name": "encodedSkills",
          "type": "uint256"
        }
      ],
      "name": "getInjuryWeeksLeft",
      "outputs": [
        {
          "internalType": "uint8",
          "name": "",
          "type": "uint8"
        }
      ],
      "stateMutability": "pure",
      "type": "function"
    },
    {
      "inputs": [
        {
          "internalType": "uint256",
          "name": "encodedSkills",
          "type": "uint256"
        }
      ],
      "name": "getInternalPlayerId",
      "outputs": [
        {
          "internalType": "uint256",
          "name": "",
          "type": "uint256"
        }
      ],
      "stateMutability": "pure",
      "type": "function"
    },
    {
      "inputs": [
        {
          "internalType": "uint256",
          "name": "encodedSkills",
          "type": "uint256"
        }
      ],
      "name": "getIsSpecial",
      "outputs": [
        {
          "internalType": "bool",
          "name": "",
          "type": "bool"
        }
      ],
      "stateMutability": "pure",
      "type": "function"
    },
    {
      "inputs": [
        {
          "internalType": "uint256",
          "name": "encodedSkills",
          "type": "uint256"
        }
      ],
      "name": "getLeftishness",
      "outputs": [
        {
          "internalType": "uint256",
          "name": "",
          "type": "uint256"
        }
      ],
      "stateMutability": "pure",
      "type": "function"
    },
    {
      "inputs": [
        {
          "internalType": "uint256",
          "name": "encodedSkills",
          "type": "uint256"
        }
      ],
      "name": "getOutOfGameFirstHalf",
      "outputs": [
        {
          "internalType": "bool",
          "name": "",
          "type": "bool"
        }
      ],
      "stateMutability": "pure",
      "type": "function"
    },
    {
      "inputs": [
        {
          "internalType": "uint256",
          "name": "encodedSkills",
          "type": "uint256"
        }
      ],
      "name": "getPlayerIdFromSkills",
      "outputs": [
        {
          "internalType": "uint256",
          "name": "",
          "type": "uint256"
        }
      ],
      "stateMutability": "pure",
      "type": "function"
    },
    {
      "inputs": [
        {
          "internalType": "uint256",
          "name": "encodedSkills",
          "type": "uint256"
        }
      ],
      "name": "getPotential",
      "outputs": [
        {
          "internalType": "uint256",
          "name": "",
          "type": "uint256"
        }
      ],
      "stateMutability": "pure",
      "type": "function"
    },
    {
      "inputs": [
        {
          "internalType": "uint256",
          "name": "encodedSkills",
          "type": "uint256"
        }
      ],
      "name": "getRedCardLastGame",
      "outputs": [
        {
          "internalType": "bool",
          "name": "",
          "type": "bool"
        }
      ],
      "stateMutability": "pure",
      "type": "function"
    },
    {
      "inputs": [
        {
          "internalType": "uint256",
          "name": "encodedSkills",
          "type": "uint256"
        },
        {
          "internalType": "uint8",
          "name": "skillIdx",
          "type": "uint8"
        }
      ],
      "name": "getSkill",
      "outputs": [
        {
          "internalType": "uint256",
          "name": "",
          "type": "uint256"
        }
      ],
      "stateMutability": "pure",
      "type": "function"
    },
    {
      "inputs": [
        {
          "internalType": "uint256",
          "name": "encodedSkills",
          "type": "uint256"
        }
      ],
      "name": "getSubstitutedFirstHalf",
      "outputs": [
        {
          "internalType": "bool",
          "name": "",
          "type": "bool"
        }
      ],
      "stateMutability": "pure",
      "type": "function"
    },
    {
      "inputs": [
        {
          "internalType": "uint256",
          "name": "encodedSkills",
          "type": "uint256"
        }
      ],
      "name": "getSumOfSkills",
      "outputs": [
        {
          "internalType": "uint256",
          "name": "",
          "type": "uint256"
        }
      ],
      "stateMutability": "pure",
      "type": "function"
    },
    {
      "inputs": [
        {
          "internalType": "uint256",
          "name": "encodedSkills",
          "type": "uint256"
        }
      ],
      "name": "getYellowCardFirstHalf",
      "outputs": [
        {
          "internalType": "bool",
          "name": "",
          "type": "bool"
        }
      ],
      "stateMutability": "pure",
      "type": "function"
    },
    {
      "inputs": [
        {
          "internalType": "uint8",
          "name": "timeZone",
          "type": "uint8"
        },
        {
          "internalType": "uint256",
          "name": "countryIdxInTZ",
          "type": "uint256"
        },
        {
          "internalType": "uint256",
          "name": "teamIdxInCountry",
          "type": "uint256"
        }
      ],
      "name": "isBotTeamInCountry",
      "outputs": [
        {
          "internalType": "bool",
          "name": "",
          "type": "bool"
        }
      ],
      "stateMutability": "view",
      "type": "function"
    },
    {
      "inputs": [
        {
          "internalType": "uint256",
          "name": "teamId",
          "type": "uint256"
        }
      ],
      "name": "isBotTeam",
      "outputs": [
        {
          "internalType": "bool",
          "name": "",
          "type": "bool"
        }
      ],
      "stateMutability": "view",
      "type": "function"
    },
    {
      "inputs": [
        {
          "internalType": "uint8",
          "name": "timeZone",
          "type": "uint8"
        },
        {
          "internalType": "uint256",
          "name": "countryIdxInTZ",
          "type": "uint256"
        },
        {
          "internalType": "uint256",
          "name": "teamIdxInCountry",
          "type": "uint256"
        }
      ],
      "name": "getOwnerTeamInCountry",
      "outputs": [
        {
          "internalType": "address",
          "name": "",
          "type": "address"
        }
      ],
      "stateMutability": "view",
      "type": "function"
    },
    {
      "inputs": [
        {
          "internalType": "uint8",
          "name": "timeZone",
          "type": "uint8"
        },
        {
          "internalType": "uint256",
          "name": "countryIdxInTZ",
          "type": "uint256"
        },
        {
          "internalType": "uint256",
          "name": "teamIdxInCountry",
          "type": "uint256"
        }
      ],
      "name": "teamExistsInCountry",
      "outputs": [
        {
          "internalType": "bool",
          "name": "",
          "type": "bool"
        }
      ],
      "stateMutability": "view",
      "type": "function"
    },
    {
      "inputs": [
        {
          "internalType": "uint256",
          "name": "teamId",
          "type": "uint256"
        }
      ],
      "name": "wasTeamCreatedVirtually",
      "outputs": [
        {
          "internalType": "bool",
          "name": "",
          "type": "bool"
        }
      ],
      "stateMutability": "view",
      "type": "function"
    },
    {
      "inputs": [
        {
          "internalType": "uint8",
          "name": "timeZone",
          "type": "uint8"
        },
        {
          "internalType": "uint256",
          "name": "countryIdxInTZ",
          "type": "uint256"
        }
      ],
      "name": "getNDivisionsInCountry",
      "outputs": [
        {
          "internalType": "uint256",
          "name": "",
          "type": "uint256"
        }
      ],
      "stateMutability": "view",
      "type": "function"
    },
    {
      "inputs": [
        {
          "internalType": "uint8",
          "name": "timeZone",
          "type": "uint8"
        },
        {
          "internalType": "uint256",
          "name": "countryIdxInTZ",
          "type": "uint256"
        }
      ],
      "name": "getNLeaguesInCountry",
      "outputs": [
        {
          "internalType": "uint256",
          "name": "",
          "type": "uint256"
        }
      ],
      "stateMutability": "view",
      "type": "function"
    },
    {
      "inputs": [
        {
          "internalType": "uint8",
          "name": "timeZone",
          "type": "uint8"
        },
        {
          "internalType": "uint256",
          "name": "countryIdxInTZ",
          "type": "uint256"
        }
      ],
      "name": "getNTeamsInCountry",
      "outputs": [
        {
          "internalType": "uint256",
          "name": "",
          "type": "uint256"
        }
      ],
      "stateMutability": "view",
      "type": "function"
    },
    {
      "inputs": [
        {
          "internalType": "uint8",
          "name": "timeZone",
          "type": "uint8"
        },
        {
          "internalType": "uint256",
          "name": "countryIdxInTZ",
          "type": "uint256"
        }
      ],
      "name": "getNHumansInCountry",
      "outputs": [
        {
          "internalType": "uint256",
          "name": "",
          "type": "uint256"
        }
      ],
      "stateMutability": "view",
      "type": "function"
    },
    {
      "inputs": [
        {
          "internalType": "uint256",
          "name": "playerId",
          "type": "uint256"
        }
      ],
      "name": "wasPlayerCreatedVirtually",
      "outputs": [
        {
          "internalType": "bool",
          "name": "",
          "type": "bool"
        }
      ],
      "stateMutability": "view",
      "type": "function"
    },
    {
      "inputs": [
        {
          "internalType": "uint8",
          "name": "tz",
          "type": "uint8"
        }
      ],
      "name": "getCurrentRound",
      "outputs": [
        {
          "internalType": "uint256",
          "name": "",
          "type": "uint256"
        }
      ],
      "stateMutability": "view",
      "type": "function"
    },
    {
      "inputs": [
        {
          "internalType": "uint8",
          "name": "tz",
          "type": "uint8"
        },
        {
          "internalType": "uint8",
          "name": "tz1",
          "type": "uint8"
        },
        {
          "internalType": "uint256",
          "name": "verse",
          "type": "uint256"
        }
      ],
      "name": "getCurrentRoundPure",
      "outputs": [
        {
          "internalType": "uint256",
          "name": "",
          "type": "uint256"
        }
      ],
      "stateMutability": "pure",
      "type": "function"
    },
    {
      "inputs": [
        {
          "internalType": "uint8",
          "name": "timeZone",
          "type": "uint8"
        },
        {
          "internalType": "uint256",
          "name": "countryIdxInTZ",
          "type": "uint256"
        }
      ],
      "name": "countryInTZExists",
      "outputs": [
        {
          "internalType": "bool",
          "name": "",
          "type": "bool"
        }
      ],
      "stateMutability": "view",
      "type": "function"
    },
    {
      "inputs": [
        {
          "internalType": "uint8",
          "name": "timeZone",
          "type": "uint8"
        },
        {
          "internalType": "uint256",
          "name": "countryIdxInTZ",
          "type": "uint256"
        },
        {
          "internalType": "uint256",
          "name": "playerIdxInCountry",
          "type": "uint256"
        }
      ],
      "name": "wasPlayerCreatedInCountry",
      "outputs": [
        {
          "internalType": "bool",
          "name": "",
          "type": "bool"
        }
      ],
      "stateMutability": "view",
      "type": "function"
    },
    {
      "inputs": [],
      "name": "nextTimeZoneToUpdate",
      "outputs": [
        {
          "internalType": "uint8",
          "name": "tz",
          "type": "uint8"
        },
        {
          "internalType": "uint8",
          "name": "day",
          "type": "uint8"
        },
        {
          "internalType": "uint8",
          "name": "turnInDay",
          "type": "uint8"
        }
      ],
      "stateMutability": "view",
      "type": "function"
    },
    {
      "inputs": [],
      "name": "prevTimeZoneToUpdate",
      "outputs": [
        {
          "internalType": "uint8",
          "name": "tz",
          "type": "uint8"
        },
        {
          "internalType": "uint8",
          "name": "day",
          "type": "uint8"
        },
        {
          "internalType": "uint8",
          "name": "turnInDay",
          "type": "uint8"
        }
      ],
      "stateMutability": "view",
      "type": "function"
    },
    {
      "inputs": [
        {
          "internalType": "uint256",
          "name": "verse",
          "type": "uint256"
        },
        {
          "internalType": "uint8",
          "name": "TZForRound1",
          "type": "uint8"
        }
      ],
      "name": "timeZoneToUpdatePure",
      "outputs": [
        {
          "internalType": "uint8",
          "name": "timezone",
          "type": "uint8"
        },
        {
          "internalType": "uint8",
          "name": "day",
          "type": "uint8"
        },
        {
          "internalType": "uint8",
          "name": "turnInDay",
          "type": "uint8"
        }
      ],
      "stateMutability": "pure",
      "type": "function"
    },
    {
      "inputs": [
        {
          "internalType": "uint256",
          "name": "tz",
          "type": "uint256"
        }
      ],
      "name": "normalizeTZ",
      "outputs": [
        {
          "internalType": "uint8",
          "name": "",
          "type": "uint8"
        }
      ],
      "stateMutability": "pure",
      "type": "function"
    },
    {
      "inputs": [],
      "name": "market",
      "outputs": [
        {
          "internalType": "address",
          "name": "",
          "type": "address"
        }
      ],
      "stateMutability": "view",
      "type": "function"
    },
    {
      "inputs": [],
      "name": "COO",
      "outputs": [
        {
          "internalType": "address",
          "name": "",
          "type": "address"
        }
      ],
      "stateMutability": "view",
      "type": "function"
    },
    {
      "inputs": [],
      "name": "relay",
      "outputs": [
        {
          "internalType": "address",
          "name": "",
          "type": "address"
        }
      ],
      "stateMutability": "view",
      "type": "function"
    },
    {
      "inputs": [],
      "name": "cryptoMktAddr",
      "outputs": [
        {
          "internalType": "address",
          "name": "",
          "type": "address"
        }
      ],
      "stateMutability": "view",
      "type": "function"
    },
    {
      "inputs": [
        {
          "internalType": "uint8",
          "name": "timeZone",
          "type": "uint8"
        }
      ],
      "name": "tzExists",
      "outputs": [
        {
          "internalType": "bool",
          "name": "",
          "type": "bool"
        }
      ],
      "stateMutability": "pure",
      "type": "function"
    }
  ],
  "bytecode": "0x608060405234801561001057600080fd5b50610e81806100206000396000f3fe608060405234801561001057600080fd5b506004361061027f5760003560e01c80638cc9a8d51161015c578063d1b3d8fd116100ce578063e37528bb11610087578063e37528bb14610771578063e804e5191461078e578063f2c35764146107ab578063f2dc657f146107c8578063f9d0723d146107e5578063fcf9b3be1461080b5761027f565b8063d1b3d8fd146106ea578063d2f7967d14610707578063d403fabd14610724578063d8f73c3c14610744578063dcadab5c1461074c578063e1b27e6b146107695761027f565b8063c2bc41cd11610120578063c2bc41cd1461065d578063c395d7a81461067a578063cc7d473b14610682578063ce506ec51461069f578063cebc43a6146106c5578063d02254a5146106cd5761027f565b80638cc9a8d5146105c5578063a21ef9fa146105e2578063b59589d1146105ff578063bbb1178014610607578063c04f6d53146106375761027f565b8063595ef25b116101f557806379e76597116101b957806379e76597146105195780637ffa3a2e1461054c57806380bac7091461056957806380c794ce1461059557806380f55605146105b55780638a89148c146105bd5761027f565b8063595ef25b1461043c5780635adb40f5146104845780636a6cb69f146104aa5780636f6c2ae0146104d057806376c2d960146104ed5761027f565b8063332b8ea311610247578063332b8ea3146103615780633518dd1d14610369578063434807ad14610386578063471d6e80146103a357806347524b60146103ee57806356e3df971461041f5761027f565b80631060c9c2146102845780631fc7768f146102b357806320748ae8146102d057806329d0dcfb146102fc5780633260840b14610322575b600080fd5b6102a16004803603602081101561029a57600080fd5b5035610837565b60408051918252519081900360200190f35b6102a1600480360360208110156102c957600080fd5b5035610847565b6102a1600480360360608110156102e657600080fd5b5060ff8135169060208101359060400135610850565b6102a16004803603604081101561031257600080fd5b508035906020013560ff1661096e565b61033f6004803603602081101561033857600080fd5b5035610984565b6040805160ff9094168452602084019290925282820152519081900360600190f35b6102a16109a0565b6102a16004803603602081101561037f57600080fd5b50356109a7565b6102a16004803603602081101561039c57600080fd5b50356109b0565b6103c9600480360360408110156103b957600080fd5b508035906020013560ff166109b9565b6040805160ff9485168152928416602084015292168183015290519081900360600190f35b61040b6004803603602081101561040457600080fd5b5035610a83565b604080519115158252519081900360200190f35b6102a16004803603602081101561043557600080fd5b5035610a8f565b6104686004803603606081101561045257600080fd5b5060ff8135169060208101359060400135610a98565b604080516001600160a01b039092168252519081900360200190f35b6102a16004803603604081101561049a57600080fd5b5060ff8135169060200135610af5565b6102a1600480360360408110156104c057600080fd5b5060ff8135169060200135610b48565b6102a1600480360360208110156104e657600080fd5b5035610b5b565b61040b6004803603606081101561050357600080fd5b5060ff8135169060208101359060400135610b7c565b6105366004803603602081101561052f57600080fd5b5035610b92565b6040805160ff9092168252519081900360200190f35b61040b6004803603602081101561056257600080fd5b5035610b9b565b61040b6004803603606081101561057f57600080fd5b5060ff8135169060208101359060400135610ba7565b6102a1600480360360208110156105ab57600080fd5b503560ff16610bc7565b610468610be1565b6103c9610bf1565b61040b600480360360208110156105db57600080fd5b5035610c18565b61040b600480360360208110156105f857600080fd5b5035610c49565b610468610c72565b6102a16004803603606081101561061d57600080fd5b5060ff813581169160208101359091169060400135610c82565b6102a16004803603604081101561064d57600080fd5b5060ff8135169060200135610ce4565b6102a16004803603602081101561067357600080fd5b5035610cfa565b6103c9610d03565b61040b6004803603602081101561069857600080fd5b5035610d3b565b61040b600480360360408110156106b557600080fd5b5060ff8135169060200135610d47565b610468610d61565b61040b600480360360208110156106e357600080fd5b5035610d71565b61040b6004803603602081101561070057600080fd5b5035610d91565b6102a16004803603602081101561071d57600080fd5b5035610d9d565b61040b6004803603602081101561073a57600080fd5b503560ff16610dab565b610468610dc6565b6105366004803603602081101561076257600080fd5b5035610dd6565b610468610de9565b61040b6004803603602081101561078757600080fd5b5035610df9565b610536600480360360208110156107a457600080fd5b5035610e05565b61040b600480360360208110156107c157600080fd5b5035610e0e565b6102a1600480360360208110156107de57600080fd5b5035610e1a565b6102a1600480360360408110156107fb57600080fd5b5060ff8135169060200135610e24565b61040b6004803603606081101561082157600080fd5b5060ff8135169060208101359060400135610e32565b6207ffff60b582901c165b919050565b607e1c60071690565b600060208460ff16106108a2576040805162461bcd60e51b81526020600482015260156024820152741d1a5b595e9bdb99481bdd5d081bd988189bdd5b99605a1b604482015290519081900360640190fd5b61040083106108f8576040805162461bcd60e51b815260206004820152601b60248201527f636f756e747279496478496e545a206f7574206f6620626f756e640000000000604482015290519081900360640190fd5b63100000008210610950576040805162461bcd60e51b815260206004820152601a60248201527f76616c20746f20656e636f6465206f7574206f6620626f756e64000000000000604482015290519081900360640190fd5b50601c82901b653fc000000000602685901b161781175b9392505050565b620fffff601460ff83160283901c165b92915050565b602681901c601f1691601c82901c6103ff1691630fffffff1690565b6110095481565b607b1c60071690565b60741c600f1690565b600080806003851660248280600284108015906109d557508289105b156109ee575060009550859450849350610a7c92505050565b6002841015610a2b5760046060858b0306048860ff16019150606060ff16848960ff1684036004028b030360020281610a2357fe5b049050610a64565b60046060848b0306048860ff16019150606060ff16838960ff1684036004028b030360020281610a5757fe5b0460010190506002840393505b839450610a7082610dd6565b9650600e900694505050505b9250925092565b60cc1c60019081161490565b60cd1c60ff1690565b6000610aa384610dab565b1580610ab65750610ab48484610d47565b155b15610ac357506000610967565b6110166000610ad3868686610850565b81526020810191909152604001600020546001600160a01b0316949350505050565b6000610b0083610dab565b1580610b135750610b118383610d47565b155b15610b205750600061097e565b6110126000610b3185856000610850565b815260200190815260200160002054905092915050565b60006110136000610b3185856000610850565b6000610b6682610a83565b610b7857610b7382610d9d565b61097e565b5090565b6000610b888484610ce4565b9091109392505050565b60b11c60071690565b60d61c60019081161490565b600080610bb5858585610a98565b6001600160a01b031614949350505050565b61101e5461101f5460009161097e91849160ff1690610c82565b611005546001600160a01b031690565b61101f5461101e5460009182918291610c0c9160ff166109b9565b9250925092505b909192565b60006001821415610c2b57506000610842565b50600090815261101660205260409020546001600160a01b03161590565b600080600080610c5885610984565b925092509250610c69838383610b7c565b95945050505050565b611007546001600160a01b031690565b60006102a0821015610c9657506000610967565b6102a08204600060ff8086169087161015610cb657848660180103610cba565b8486035b60ff169050600481026102a0830201841015610cdc5750600019019050610967565b509050610967565b60006008610cf28484610e24565b029392505050565b60781c60071690565b600080600061101f5460001415610d2257506000915081905080610c13565b61101f5461101e54610c0c91600019019060ff166109b9565b60ad1c60019081161490565b60ff91909116600090815261101760205260409020541190565b611008546001600160a01b031690565b600080600080610d8085610984565b925092509250610c69838383610e32565b60d51c60019081161490565b60811c6507ffffffffff1690565b600060ff82161580159061097e575050601960ff9091161090565b61102f546001600160a01b031681565b6000601860178301066001019050919050565b611006546001600160a01b031690565b60b41c60019081161490565b60ae1c60071690565b60ac1c60019081161490565b60641c61ffff1690565b60006010610cf28484610af5565b60006012610e408585610ce4565b02909110939250505056fea264697066735822122052534be34adbb986c1b1a4fe645e8928bd6d4bd0deef72c5f5cc34b4bf5f783f64736f6c63430006030033",
  "source": "pragma solidity >= 0.6.3;\n\nimport \"./Constants.sol\";\nimport \"./Storage.sol\";\nimport \"../encoders/EncodingIDs.sol\";\nimport \"../encoders/EncodingSkillsGetters.sol\";\n\n/**\n @title Library of View/Pure functions to needed by game assets and market\n @author Freeverse.io, www.freeverse.io\n*/\n\n/// Warning: This contract must ALWAYS inherit Storage first, so that it ends up inheriting the correct order in storage slots\ncontract UniverseInfo is Storage, EncodingSkillsGetters, EncodingIDs, Constants {\n    \n    event TeamTransfer(uint256 teamId, address to);\n\n    /// Modifiers for all functions that write to Storage\n    \n    modifier onlyMarket() {\n        require(msg.sender == _market, \"Only market owner is authorized.\");\n        _;\n    }\n\n    modifier onlyRelay() {\n        require(msg.sender == _relay, \"Only Relay owner is authorized.\");\n        _;\n    }\n    \n    modifier onlyCOO() {\n        require(msg.sender == _COO, \"Only COO is authorized.\");\n        _;\n    }\n    \n    /// Rest of view/pure functions \n    \n    function isBotTeamInCountry(uint8 timeZone, uint256 countryIdxInTZ, uint256 teamIdxInCountry) public view returns(bool) {\n        return getOwnerTeamInCountry(timeZone, countryIdxInTZ, teamIdxInCountry) == NULL_ADDR;\n    }\n\n    function isBotTeam(uint256 teamId) public view returns(bool) {\n        if (teamId == ACADEMY_TEAM) return false;\n        return _teamIdToOwner[teamId] == NULL_ADDR;\n    }\n\n    /// returns NULL_ADDR if team is bot\n    function getOwnerTeamInCountry(uint8 timeZone, uint256 countryIdxInTZ, uint256 teamIdxInCountry) public view returns(address) {\n        if (!tzExists(timeZone) || !countryInTZExists(timeZone, countryIdxInTZ)) return NULL_ADDR;\n        return _teamIdToOwner[encodeTZCountryAndVal(timeZone, countryIdxInTZ, teamIdxInCountry)];\n    }\n    \n    function teamExistsInCountry(uint8 timeZone, uint256 countryIdxInTZ, uint256 teamIdxInCountry) public view returns(bool) {\n        return (teamIdxInCountry < getNTeamsInCountry(timeZone, countryIdxInTZ));\n    }\n\n    function wasTeamCreatedVirtually(uint256 teamId) public view returns (bool) {\n        (uint8 timeZone, uint256 countryIdxInTZ, uint256 teamIdxInCountry) = decodeTZCountryAndVal(teamId);\n        return teamExistsInCountry(timeZone, countryIdxInTZ, teamIdxInCountry);\n    }\n    \n    function getNDivisionsInCountry(uint8 timeZone, uint256 countryIdxInTZ) public view returns(uint256) {\n        if (!tzExists(timeZone) || !countryInTZExists(timeZone, countryIdxInTZ)) return 0;\n        return _countryIdToNDivisions[encodeTZCountryAndVal(timeZone, countryIdxInTZ, 0)];\n    }\n\n    function getNLeaguesInCountry(uint8 timeZone, uint256 countryIdxInTZ) public view returns(uint256) {\n        return getNDivisionsInCountry(timeZone, countryIdxInTZ) * LEAGUES_PER_DIV;\n    }\n\n    function getNTeamsInCountry(uint8 timeZone, uint256 countryIdxInTZ) public view returns(uint256) {\n        return getNLeaguesInCountry(timeZone, countryIdxInTZ) * TEAMS_PER_LEAGUE;\n    }\n\n    function getNHumansInCountry(uint8 timeZone, uint256 countryIdxInTZ) public view returns(uint256) {\n        return _countryIdToNHumanTeams[encodeTZCountryAndVal(timeZone, countryIdxInTZ, 0)];\n    }\n    \n    function wasPlayerCreatedVirtually(uint256 playerId) public view returns(bool) {\n        (uint8 timeZone, uint256 countryIdxInTZ, uint256 playerIdxInCountry) = decodeTZCountryAndVal(playerId);\n        return wasPlayerCreatedInCountry(timeZone, countryIdxInTZ, playerIdxInCountry);\n    }\n\n    function getCurrentRound(uint8 tz) public view returns (uint256) {\n        return getCurrentRoundPure(tz, _timeZoneForRound1, _currentVerse);\n    }\n\n    function getCurrentRoundPure(uint8 tz, uint8 tz1, uint256 verse) public pure returns (uint256) { \n        /// first, compute \"roundTZ1\" for the first timezone that played a match\n        /// first, ensure that round is always >= 1.\n        if (verse < VERSES_PER_ROUND) return 0;\n        uint256 roundTZ1 = verse / VERSES_PER_ROUND;\n        /// Next, note that verses where this tz plays first matches of rounds:\n        ///   verses(round) = deltaN * 4 + VERSES_PER_ROUND * round\n        uint256 deltaN = (tz >= tz1) ? (tz - tz1) : ((tz + 24) - tz1);\n        if (verse < 4 * deltaN + roundTZ1 * VERSES_PER_ROUND) {\n            return roundTZ1 - 1;\n        } else {\n            return roundTZ1;\n        }\n    }\n    \n    function countryInTZExists(uint8 timeZone, uint256 countryIdxInTZ) public view returns(bool) {\n        return(countryIdxInTZ < _tzToNCountries[timeZone]);\n    }\n\n    function wasPlayerCreatedInCountry(uint8 timeZone, uint256 countryIdxInTZ, uint256 playerIdxInCountry) public view returns(bool) {\n        return (playerIdxInCountry < getNTeamsInCountry(timeZone, countryIdxInTZ) * PLAYERS_PER_TEAM_INIT);\n    }\n    \n    /// each day has 24 hours, each with 4 verses => 96 verses per day.\n    /// day = 0,..13\n    /// turnInDay = 0, 1, 2, 3\n    /// so for each TZ, we go from (day, turn) = (0, 0) ... (13,3) => a total of 14*4 = 56 turns per tz\n    /// from these, all map easily to timeZones\n    function nextTimeZoneToUpdate() public view returns (uint8 tz, uint8 day, uint8 turnInDay) {\n        return timeZoneToUpdatePure(_currentVerse, _timeZoneForRound1);\n    }\n\n    function prevTimeZoneToUpdate() public view returns (uint8 tz, uint8 day, uint8 turnInDay) {\n        if (_currentVerse == 0) {\n            return (NULL_TIMEZONE, 0, 0);\n        }\n        return timeZoneToUpdatePure(_currentVerse - 1, _timeZoneForRound1);\n    }\n\n    /// tz0  : v = 0, V_DAY, 2 * V_DAY...\n    /// tzN  : v = 4N + V_DAY * day,  day = 0,...6\n    /// tzN  : v = 4N + V_DAY * day,  day = 0,...6\n    ///  => tzN - tz0 = (v - V_DAY*day)\n    ///  => 4 tzN = 4 tz0 + v % VERSES_PER_DAY\n    /// last : v = V_DAY + DELTA + V_DAY * 6 \n    /// Imagine 2 tzs:\n    /// 0:00 - tz0; 0:30 - NUL; 1:00 - tz1; 1:30 - tz0; 0:00 - tz0; 0:30 - tz1;\n    /// So the last\n    function timeZoneToUpdatePure(uint256 verse, uint8 TZForRound1) public pure returns (uint8 timezone, uint8 day, uint8 turnInDay) {\n        /// if _currentVerse = 0, we should be updating _timeZoneForRound1\n        /// recall that timeZones range from 1...24 (not from 0...24)\n        uint256 turn = verse % 4;\n        uint256 delta = 9 * 4 + turnInDay;\n        uint256 tz;\n        uint256 dia;        \n        if (turn >= 2 && verse < delta) return (NULL_TIMEZONE, 0, 0);\n        if (turn < 2) {\n            tz = TZForRound1 + ((verse - turn) % VERSES_PER_DAY)/4;\n            dia = 2 * (verse - 4 * (tz - TZForRound1) - turn)/VERSES_PER_DAY;\n        } else {\n            tz = TZForRound1 + ((verse - delta) % VERSES_PER_DAY)/4;\n            dia = 1 + 2 * (verse - 4 * (tz - TZForRound1) - delta)/VERSES_PER_DAY;\n            turn -= 2;\n        }\n        turnInDay = uint8(turn);\n        timezone = normalizeTZ(tz);\n        day = uint8(dia % MATCHDAYS_PER_ROUND);\n    }\n    \n    function normalizeTZ(uint256 tz) public pure returns (uint8) {\n        return uint8(1 + ((24 + tz - 1)% 24));\n    }\n\n    function market() public view returns (address) { return _market; }\n    function COO() public view returns (address) { return _COO; }\n    function relay() public view returns (address) { return _relay; }\n    function cryptoMktAddr() public view returns (address) { return _cryptoMktAddr; }\n    \n    function tzExists(uint8 timeZone) public pure returns(bool) {\n        return(timeZone > NULL_TIMEZONE && timeZone < 25);\n    }\n}\n",
  "sourcePath": "/Users/jurgenkudla/proyects/laos/laos-goal-revolution/goalrev-ganache/contracts/storage/UniverseInfo.sol",
  "compiler": {
    "name": "solc",
    "version": "0.6.3+commit.8dda9521.Emscripten.clang"
  },
  "schemaVersion": "3.0.23",
  "updatedAt": "2024-10-18T06:45:40.038Z",
  "networkType": "ethereum",
  "devdoc": {
    "methods": {
      "encodeTZCountryAndVal(uint8,uint256,uint256)": {
        "details": "PlayerId and TeamId both serialize a total of 43 bits:     timeZone        = 5 bits     countryIdxInTZ  = 10 bits     val             = 28 bits (either  (playerIdxInCountry or teamIdxInCountry)*"
      }
    }
  },
  "userdoc": {
    "methods": {
      "getOwnerTeamInCountry(uint8,uint256,uint256)": {
        "notice": "returns NULL_ADDR if team is bot"
      },
      "isBotTeamInCountry(uint8,uint256,uint256)": {
        "notice": "Rest of view/pure functions "
      },
      "nextTimeZoneToUpdate()": {
        "notice": "each day has 24 hours, each with 4 verses => 96 verses per day. day = 0,..13 turnInDay = 0, 1, 2, 3 so for each TZ, we go from (day, turn) = (0, 0) ... (13,3) => a total of 14*4 = 56 turns per tz from these, all map easily to timeZones"
      },
      "timeZoneToUpdatePure(uint256,uint8)": {
        "notice": "tz0  : v = 0, V_DAY, 2 * V_DAY... tzN  : v = 4N + V_DAY * day,  day = 0,...6 tzN  : v = 4N + V_DAY * day,  day = 0,...6  => tzN - tz0 = (v - V_DAY*day)  => 4 tzN = 4 tz0 + v % VERSES_PER_DAY last : v = V_DAY + DELTA + V_DAY * 6  Imagine 2 tzs: 0:00 - tz0; 0:30 - NUL; 1:00 - tz1; 1:30 - tz0; 0:00 - tz0; 0:30 - tz1; So the last"
      }
    },
    "notice": "Warning: This contract must ALWAYS inherit Storage first, so that it ends up inheriting the correct order in storage slots"
  }
}