{
  "contractName": "UpdatesBase",
  "abi": [
    {
      "anonymous": false,
      "inputs": [
        {
          "indexed": false,
          "internalType": "uint8",
          "name": "tz",
          "type": "uint8"
        },
        {
          "indexed": false,
          "internalType": "uint8",
          "name": "resolvedLevel",
          "type": "uint8"
        },
        {
          "indexed": false,
          "internalType": "bool",
          "name": "isSuccessful",
          "type": "bool"
        }
      ],
      "name": "ChallengeResolved",
      "type": "event"
    },
    {
      "anonymous": false,
      "inputs": [
        {
          "indexed": false,
          "internalType": "uint256",
          "name": "teamId",
          "type": "uint256"
        },
        {
          "indexed": false,
          "internalType": "address",
          "name": "to",
          "type": "address"
        }
      ],
      "name": "TeamTransfer",
      "type": "event"
    },
    {
      "inputs": [],
      "name": "COO",
      "outputs": [
        {
          "internalType": "address",
          "name": "",
          "type": "address"
        }
      ],
      "stateMutability": "view",
      "type": "function"
    },
    {
      "inputs": [],
      "name": "_stakers",
      "outputs": [
        {
          "internalType": "contract Stakers",
          "name": "",
          "type": "address"
        }
      ],
      "stateMutability": "view",
      "type": "function"
    },
    {
      "inputs": [
        {
          "internalType": "uint256",
          "name": "leafPos",
          "type": "uint256"
        },
        {
          "internalType": "bytes32[]",
          "name": "leafs",
          "type": "bytes32[]"
        },
        {
          "internalType": "uint256",
          "name": "nLevels",
          "type": "uint256"
        }
      ],
      "name": "buildProof",
      "outputs": [
        {
          "internalType": "bytes32[]",
          "name": "proof",
          "type": "bytes32[]"
        }
      ],
      "stateMutability": "pure",
      "type": "function"
    },
    {
      "inputs": [
        {
          "internalType": "uint8",
          "name": "timeZone",
          "type": "uint8"
        },
        {
          "internalType": "uint256",
          "name": "countryIdxInTZ",
          "type": "uint256"
        }
      ],
      "name": "countryInTZExists",
      "outputs": [
        {
          "internalType": "bool",
          "name": "",
          "type": "bool"
        }
      ],
      "stateMutability": "view",
      "type": "function"
    },
    {
      "inputs": [],
      "name": "cryptoMktAddr",
      "outputs": [
        {
          "internalType": "address",
          "name": "",
          "type": "address"
        }
      ],
      "stateMutability": "view",
      "type": "function"
    },
    {
      "inputs": [
        {
          "internalType": "uint256",
          "name": "encoded",
          "type": "uint256"
        }
      ],
      "name": "decodeTZCountryAndVal",
      "outputs": [
        {
          "internalType": "uint8",
          "name": "",
          "type": "uint8"
        },
        {
          "internalType": "uint256",
          "name": "",
          "type": "uint256"
        },
        {
          "internalType": "uint256",
          "name": "",
          "type": "uint256"
        }
      ],
      "stateMutability": "pure",
      "type": "function"
    },
    {
      "inputs": [
        {
          "internalType": "uint8",
          "name": "timeZone",
          "type": "uint8"
        },
        {
          "internalType": "uint256",
          "name": "countryIdxInTZ",
          "type": "uint256"
        },
        {
          "internalType": "uint256",
          "name": "val",
          "type": "uint256"
        }
      ],
      "name": "encodeTZCountryAndVal",
      "outputs": [
        {
          "internalType": "uint256",
          "name": "",
          "type": "uint256"
        }
      ],
      "stateMutability": "pure",
      "type": "function"
    },
    {
      "inputs": [],
      "name": "gameDeployDay",
      "outputs": [
        {
          "internalType": "uint256",
          "name": "",
          "type": "uint256"
        }
      ],
      "stateMutability": "view",
      "type": "function"
    },
    {
      "inputs": [
        {
          "internalType": "uint256",
          "name": "encodedSkills",
          "type": "uint256"
        }
      ],
      "name": "getAggressiveness",
      "outputs": [
        {
          "internalType": "uint256",
          "name": "",
          "type": "uint256"
        }
      ],
      "stateMutability": "pure",
      "type": "function"
    },
    {
      "inputs": [
        {
          "internalType": "uint256",
          "name": "encodedSkills",
          "type": "uint256"
        }
      ],
      "name": "getAlignedEndOfFirstHalf",
      "outputs": [
        {
          "internalType": "bool",
          "name": "",
          "type": "bool"
        }
      ],
      "stateMutability": "pure",
      "type": "function"
    },
    {
      "inputs": [
        {
          "internalType": "uint8",
          "name": "tz",
          "type": "uint8"
        }
      ],
      "name": "getAllMatchdaysUTCInCurrentRound",
      "outputs": [
        {
          "internalType": "uint256[14]",
          "name": "timesUTC",
          "type": "uint256[14]"
        }
      ],
      "stateMutability": "view",
      "type": "function"
    },
    {
      "inputs": [
        {
          "internalType": "uint8",
          "name": "tz",
          "type": "uint8"
        },
        {
          "internalType": "uint256",
          "name": "round",
          "type": "uint256"
        }
      ],
      "name": "getAllMatchdaysUTCInRound",
      "outputs": [
        {
          "internalType": "uint256[14]",
          "name": "timesUTC",
          "type": "uint256[14]"
        }
      ],
      "stateMutability": "view",
      "type": "function"
    },
    {
      "inputs": [
        {
          "internalType": "uint256",
          "name": "encodedSkills",
          "type": "uint256"
        }
      ],
      "name": "getBirthDay",
      "outputs": [
        {
          "internalType": "uint256",
          "name": "",
          "type": "uint256"
        }
      ],
      "stateMutability": "pure",
      "type": "function"
    },
    {
      "inputs": [
        {
          "internalType": "uint8",
          "name": "tz",
          "type": "uint8"
        },
        {
          "internalType": "bool",
          "name": "current",
          "type": "bool"
        }
      ],
      "name": "getChallengeData",
      "outputs": [
        {
          "internalType": "uint8",
          "name": "",
          "type": "uint8"
        },
        {
          "internalType": "uint8",
          "name": "",
          "type": "uint8"
        },
        {
          "internalType": "uint8",
          "name": "",
          "type": "uint8"
        }
      ],
      "stateMutability": "view",
      "type": "function"
    },
    {
      "inputs": [],
      "name": "getChallengeTime",
      "outputs": [
        {
          "internalType": "uint256",
          "name": "",
          "type": "uint256"
        }
      ],
      "stateMutability": "view",
      "type": "function"
    },
    {
      "inputs": [
        {
          "internalType": "uint8",
          "name": "tz",
          "type": "uint8"
        }
      ],
      "name": "getCurrentRound",
      "outputs": [
        {
          "internalType": "uint256",
          "name": "",
          "type": "uint256"
        }
      ],
      "stateMutability": "view",
      "type": "function"
    },
    {
      "inputs": [
        {
          "internalType": "uint8",
          "name": "tz",
          "type": "uint8"
        },
        {
          "internalType": "uint8",
          "name": "tz1",
          "type": "uint8"
        },
        {
          "internalType": "uint256",
          "name": "verse",
          "type": "uint256"
        }
      ],
      "name": "getCurrentRoundPure",
      "outputs": [
        {
          "internalType": "uint256",
          "name": "",
          "type": "uint256"
        }
      ],
      "stateMutability": "pure",
      "type": "function"
    },
    {
      "inputs": [],
      "name": "getCurrentVerse",
      "outputs": [
        {
          "internalType": "uint256",
          "name": "",
          "type": "uint256"
        }
      ],
      "stateMutability": "view",
      "type": "function"
    },
    {
      "inputs": [],
      "name": "getCurrentVerseSeed",
      "outputs": [
        {
          "internalType": "bytes32",
          "name": "",
          "type": "bytes32"
        }
      ],
      "stateMutability": "view",
      "type": "function"
    },
    {
      "inputs": [
        {
          "internalType": "uint256",
          "name": "encodedSkills",
          "type": "uint256"
        }
      ],
      "name": "getForwardness",
      "outputs": [
        {
          "internalType": "uint256",
          "name": "",
          "type": "uint256"
        }
      ],
      "stateMutability": "pure",
      "type": "function"
    },
    {
      "inputs": [
        {
          "internalType": "uint256",
          "name": "encodedSkills",
          "type": "uint256"
        }
      ],
      "name": "getGamesNonStopping",
      "outputs": [
        {
          "internalType": "uint8",
          "name": "",
          "type": "uint8"
        }
      ],
      "stateMutability": "pure",
      "type": "function"
    },
    {
      "inputs": [
        {
          "internalType": "uint256",
          "name": "encodedSkills",
          "type": "uint256"
        }
      ],
      "name": "getGeneration",
      "outputs": [
        {
          "internalType": "uint256",
          "name": "",
          "type": "uint256"
        }
      ],
      "stateMutability": "pure",
      "type": "function"
    },
    {
      "inputs": [
        {
          "internalType": "uint256",
          "name": "encodedSkills",
          "type": "uint256"
        }
      ],
      "name": "getInjuryWeeksLeft",
      "outputs": [
        {
          "internalType": "uint8",
          "name": "",
          "type": "uint8"
        }
      ],
      "stateMutability": "pure",
      "type": "function"
    },
    {
      "inputs": [
        {
          "internalType": "uint256",
          "name": "encodedSkills",
          "type": "uint256"
        }
      ],
      "name": "getInternalPlayerId",
      "outputs": [
        {
          "internalType": "uint256",
          "name": "",
          "type": "uint256"
        }
      ],
      "stateMutability": "pure",
      "type": "function"
    },
    {
      "inputs": [
        {
          "internalType": "uint256",
          "name": "encodedSkills",
          "type": "uint256"
        }
      ],
      "name": "getIsSpecial",
      "outputs": [
        {
          "internalType": "bool",
          "name": "",
          "type": "bool"
        }
      ],
      "stateMutability": "pure",
      "type": "function"
    },
    {
      "inputs": [
        {
          "internalType": "uint8",
          "name": "tz",
          "type": "uint8"
        }
      ],
      "name": "getLastActionsSubmissionTime",
      "outputs": [
        {
          "internalType": "uint256",
          "name": "",
          "type": "uint256"
        }
      ],
      "stateMutability": "view",
      "type": "function"
    },
    {
      "inputs": [
        {
          "internalType": "uint8",
          "name": "tz",
          "type": "uint8"
        }
      ],
      "name": "getLastUpdateTime",
      "outputs": [
        {
          "internalType": "uint256",
          "name": "",
          "type": "uint256"
        }
      ],
      "stateMutability": "view",
      "type": "function"
    },
    {
      "inputs": [
        {
          "internalType": "uint256",
          "name": "encodedSkills",
          "type": "uint256"
        }
      ],
      "name": "getLeftishness",
      "outputs": [
        {
          "internalType": "uint256",
          "name": "",
          "type": "uint256"
        }
      ],
      "stateMutability": "pure",
      "type": "function"
    },
    {
      "inputs": [
        {
          "internalType": "uint8",
          "name": "tz",
          "type": "uint8"
        },
        {
          "internalType": "uint256",
          "name": "round",
          "type": "uint256"
        },
        {
          "internalType": "uint256",
          "name": "matchDay",
          "type": "uint256"
        }
      ],
      "name": "getMatchUTC",
      "outputs": [
        {
          "internalType": "uint256",
          "name": "timeUTC",
          "type": "uint256"
        }
      ],
      "stateMutability": "view",
      "type": "function"
    },
    {
      "inputs": [
        {
          "internalType": "uint8",
          "name": "tz",
          "type": "uint8"
        },
        {
          "internalType": "uint256",
          "name": "matchDay",
          "type": "uint256"
        }
      ],
      "name": "getMatchUTCInCurrentRound",
      "outputs": [
        {
          "internalType": "uint256",
          "name": "timeUTC",
          "type": "uint256"
        }
      ],
      "stateMutability": "view",
      "type": "function"
    },
    {
      "inputs": [
        {
          "internalType": "uint8",
          "name": "timeZone",
          "type": "uint8"
        },
        {
          "internalType": "uint256",
          "name": "countryIdxInTZ",
          "type": "uint256"
        }
      ],
      "name": "getNDivisionsInCountry",
      "outputs": [
        {
          "internalType": "uint256",
          "name": "",
          "type": "uint256"
        }
      ],
      "stateMutability": "view",
      "type": "function"
    },
    {
      "inputs": [
        {
          "internalType": "uint8",
          "name": "timeZone",
          "type": "uint8"
        },
        {
          "internalType": "uint256",
          "name": "countryIdxInTZ",
          "type": "uint256"
        }
      ],
      "name": "getNHumansInCountry",
      "outputs": [
        {
          "internalType": "uint256",
          "name": "",
          "type": "uint256"
        }
      ],
      "stateMutability": "view",
      "type": "function"
    },
    {
      "inputs": [
        {
          "internalType": "uint8",
          "name": "timeZone",
          "type": "uint8"
        },
        {
          "internalType": "uint256",
          "name": "countryIdxInTZ",
          "type": "uint256"
        }
      ],
      "name": "getNLeaguesInCountry",
      "outputs": [
        {
          "internalType": "uint256",
          "name": "",
          "type": "uint256"
        }
      ],
      "stateMutability": "view",
      "type": "function"
    },
    {
      "inputs": [
        {
          "internalType": "uint8",
          "name": "timeZone",
          "type": "uint8"
        },
        {
          "internalType": "uint256",
          "name": "countryIdxInTZ",
          "type": "uint256"
        }
      ],
      "name": "getNTeamsInCountry",
      "outputs": [
        {
          "internalType": "uint256",
          "name": "",
          "type": "uint256"
        }
      ],
      "stateMutability": "view",
      "type": "function"
    },
    {
      "inputs": [],
      "name": "getNextVerseTimestamp",
      "outputs": [
        {
          "internalType": "uint256",
          "name": "",
          "type": "uint256"
        }
      ],
      "stateMutability": "view",
      "type": "function"
    },
    {
      "inputs": [
        {
          "internalType": "uint256",
          "name": "encodedSkills",
          "type": "uint256"
        }
      ],
      "name": "getOutOfGameFirstHalf",
      "outputs": [
        {
          "internalType": "bool",
          "name": "",
          "type": "bool"
        }
      ],
      "stateMutability": "pure",
      "type": "function"
    },
    {
      "inputs": [
        {
          "internalType": "uint8",
          "name": "timeZone",
          "type": "uint8"
        },
        {
          "internalType": "uint256",
          "name": "countryIdxInTZ",
          "type": "uint256"
        },
        {
          "internalType": "uint256",
          "name": "teamIdxInCountry",
          "type": "uint256"
        }
      ],
      "name": "getOwnerTeamInCountry",
      "outputs": [
        {
          "internalType": "address",
          "name": "",
          "type": "address"
        }
      ],
      "stateMutability": "view",
      "type": "function"
    },
    {
      "inputs": [
        {
          "internalType": "uint256",
          "name": "encodedSkills",
          "type": "uint256"
        }
      ],
      "name": "getPlayerIdFromSkills",
      "outputs": [
        {
          "internalType": "uint256",
          "name": "",
          "type": "uint256"
        }
      ],
      "stateMutability": "pure",
      "type": "function"
    },
    {
      "inputs": [
        {
          "internalType": "uint256",
          "name": "encodedSkills",
          "type": "uint256"
        }
      ],
      "name": "getPotential",
      "outputs": [
        {
          "internalType": "uint256",
          "name": "",
          "type": "uint256"
        }
      ],
      "stateMutability": "pure",
      "type": "function"
    },
    {
      "inputs": [
        {
          "internalType": "uint256",
          "name": "encodedSkills",
          "type": "uint256"
        }
      ],
      "name": "getRedCardLastGame",
      "outputs": [
        {
          "internalType": "bool",
          "name": "",
          "type": "bool"
        }
      ],
      "stateMutability": "pure",
      "type": "function"
    },
    {
      "inputs": [
        {
          "internalType": "uint8",
          "name": "tz",
          "type": "uint8"
        },
        {
          "internalType": "uint8",
          "name": "level",
          "type": "uint8"
        },
        {
          "internalType": "bool",
          "name": "current",
          "type": "bool"
        }
      ],
      "name": "getRoot",
      "outputs": [
        {
          "internalType": "bytes32",
          "name": "",
          "type": "bytes32"
        }
      ],
      "stateMutability": "view",
      "type": "function"
    },
    {
      "inputs": [
        {
          "internalType": "uint256",
          "name": "encodedSkills",
          "type": "uint256"
        },
        {
          "internalType": "uint8",
          "name": "skillIdx",
          "type": "uint8"
        }
      ],
      "name": "getSkill",
      "outputs": [
        {
          "internalType": "uint256",
          "name": "",
          "type": "uint256"
        }
      ],
      "stateMutability": "pure",
      "type": "function"
    },
    {
      "inputs": [
        {
          "internalType": "uint8",
          "name": "tz",
          "type": "uint8"
        },
        {
          "internalType": "bool",
          "name": "current",
          "type": "bool"
        }
      ],
      "name": "getStatus",
      "outputs": [
        {
          "internalType": "uint8",
          "name": "",
          "type": "uint8"
        },
        {
          "internalType": "uint8",
          "name": "",
          "type": "uint8"
        },
        {
          "internalType": "bool",
          "name": "",
          "type": "bool"
        }
      ],
      "stateMutability": "view",
      "type": "function"
    },
    {
      "inputs": [
        {
          "internalType": "uint256",
          "name": "nowTime",
          "type": "uint256"
        },
        {
          "internalType": "uint256",
          "name": "lastUpdate",
          "type": "uint256"
        },
        {
          "internalType": "uint256",
          "name": "challengeTime",
          "type": "uint256"
        },
        {
          "internalType": "uint8",
          "name": "writtenLevel",
          "type": "uint8"
        }
      ],
      "name": "getStatusPure",
      "outputs": [
        {
          "internalType": "uint8",
          "name": "finalLevel",
          "type": "uint8"
        },
        {
          "internalType": "uint8",
          "name": "nJumps",
          "type": "uint8"
        },
        {
          "internalType": "bool",
          "name": "isSettled",
          "type": "bool"
        }
      ],
      "stateMutability": "pure",
      "type": "function"
    },
    {
      "inputs": [
        {
          "internalType": "uint256",
          "name": "encodedSkills",
          "type": "uint256"
        }
      ],
      "name": "getSubstitutedFirstHalf",
      "outputs": [
        {
          "internalType": "bool",
          "name": "",
          "type": "bool"
        }
      ],
      "stateMutability": "pure",
      "type": "function"
    },
    {
      "inputs": [
        {
          "internalType": "uint256",
          "name": "encodedSkills",
          "type": "uint256"
        }
      ],
      "name": "getSumOfSkills",
      "outputs": [
        {
          "internalType": "uint256",
          "name": "",
          "type": "uint256"
        }
      ],
      "stateMutability": "pure",
      "type": "function"
    },
    {
      "inputs": [],
      "name": "getTimeZoneForRound1",
      "outputs": [
        {
          "internalType": "uint8",
          "name": "",
          "type": "uint8"
        }
      ],
      "stateMutability": "view",
      "type": "function"
    },
    {
      "inputs": [
        {
          "internalType": "uint256",
          "name": "encodedSkills",
          "type": "uint256"
        }
      ],
      "name": "getYellowCardFirstHalf",
      "outputs": [
        {
          "internalType": "bool",
          "name": "",
          "type": "bool"
        }
      ],
      "stateMutability": "pure",
      "type": "function"
    },
    {
      "inputs": [
        {
          "internalType": "bytes32",
          "name": "left",
          "type": "bytes32"
        },
        {
          "internalType": "bytes32",
          "name": "right",
          "type": "bytes32"
        }
      ],
      "name": "hash_node",
      "outputs": [
        {
          "internalType": "bytes32",
          "name": "hash",
          "type": "bytes32"
        }
      ],
      "stateMutability": "pure",
      "type": "function"
    },
    {
      "inputs": [
        {
          "internalType": "uint256",
          "name": "teamId",
          "type": "uint256"
        }
      ],
      "name": "isBotTeam",
      "outputs": [
        {
          "internalType": "bool",
          "name": "",
          "type": "bool"
        }
      ],
      "stateMutability": "view",
      "type": "function"
    },
    {
      "inputs": [
        {
          "internalType": "uint8",
          "name": "timeZone",
          "type": "uint8"
        },
        {
          "internalType": "uint256",
          "name": "countryIdxInTZ",
          "type": "uint256"
        },
        {
          "internalType": "uint256",
          "name": "teamIdxInCountry",
          "type": "uint256"
        }
      ],
      "name": "isBotTeamInCountry",
      "outputs": [
        {
          "internalType": "bool",
          "name": "",
          "type": "bool"
        }
      ],
      "stateMutability": "view",
      "type": "function"
    },
    {
      "inputs": [
        {
          "internalType": "uint256",
          "name": "verse",
          "type": "uint256"
        }
      ],
      "name": "isTimeToUpdate",
      "outputs": [
        {
          "internalType": "bool",
          "name": "",
          "type": "bool"
        }
      ],
      "stateMutability": "view",
      "type": "function"
    },
    {
      "inputs": [],
      "name": "market",
      "outputs": [
        {
          "internalType": "address",
          "name": "",
          "type": "address"
        }
      ],
      "stateMutability": "view",
      "type": "function"
    },
    {
      "inputs": [
        {
          "internalType": "bytes32[]",
          "name": "leafs",
          "type": "bytes32[]"
        },
        {
          "internalType": "uint256",
          "name": "nLevels",
          "type": "uint256"
        }
      ],
      "name": "merkleRoot",
      "outputs": [
        {
          "internalType": "bytes32",
          "name": "",
          "type": "bytes32"
        }
      ],
      "stateMutability": "pure",
      "type": "function"
    },
    {
      "inputs": [],
      "name": "nextTimeZoneToUpdate",
      "outputs": [
        {
          "internalType": "uint8",
          "name": "tz",
          "type": "uint8"
        },
        {
          "internalType": "uint8",
          "name": "day",
          "type": "uint8"
        },
        {
          "internalType": "uint8",
          "name": "turnInDay",
          "type": "uint8"
        }
      ],
      "stateMutability": "view",
      "type": "function"
    },
    {
      "inputs": [
        {
          "internalType": "uint256",
          "name": "tz",
          "type": "uint256"
        }
      ],
      "name": "normalizeTZ",
      "outputs": [
        {
          "internalType": "uint8",
          "name": "",
          "type": "uint8"
        }
      ],
      "stateMutability": "pure",
      "type": "function"
    },
    {
      "inputs": [],
      "name": "prevTimeZoneToUpdate",
      "outputs": [
        {
          "internalType": "uint8",
          "name": "tz",
          "type": "uint8"
        },
        {
          "internalType": "uint8",
          "name": "day",
          "type": "uint8"
        },
        {
          "internalType": "uint8",
          "name": "turnInDay",
          "type": "uint8"
        }
      ],
      "stateMutability": "view",
      "type": "function"
    },
    {
      "inputs": [],
      "name": "relay",
      "outputs": [
        {
          "internalType": "address",
          "name": "",
          "type": "address"
        }
      ],
      "stateMutability": "view",
      "type": "function"
    },
    {
      "inputs": [
        {
          "internalType": "uint8",
          "name": "timeZone",
          "type": "uint8"
        },
        {
          "internalType": "uint256",
          "name": "countryIdxInTZ",
          "type": "uint256"
        },
        {
          "internalType": "uint256",
          "name": "teamIdxInCountry",
          "type": "uint256"
        }
      ],
      "name": "teamExistsInCountry",
      "outputs": [
        {
          "internalType": "bool",
          "name": "",
          "type": "bool"
        }
      ],
      "stateMutability": "view",
      "type": "function"
    },
    {
      "inputs": [
        {
          "internalType": "uint256",
          "name": "verse",
          "type": "uint256"
        },
        {
          "internalType": "uint8",
          "name": "TZForRound1",
          "type": "uint8"
        }
      ],
      "name": "timeZoneToUpdatePure",
      "outputs": [
        {
          "internalType": "uint8",
          "name": "timezone",
          "type": "uint8"
        },
        {
          "internalType": "uint8",
          "name": "day",
          "type": "uint8"
        },
        {
          "internalType": "uint8",
          "name": "turnInDay",
          "type": "uint8"
        }
      ],
      "stateMutability": "pure",
      "type": "function"
    },
    {
      "inputs": [
        {
          "internalType": "uint8",
          "name": "timeZone",
          "type": "uint8"
        }
      ],
      "name": "tzExists",
      "outputs": [
        {
          "internalType": "bool",
          "name": "",
          "type": "bool"
        }
      ],
      "stateMutability": "pure",
      "type": "function"
    },
    {
      "inputs": [
        {
          "internalType": "bytes32",
          "name": "root",
          "type": "bytes32"
        },
        {
          "internalType": "bytes32[]",
          "name": "proof",
          "type": "bytes32[]"
        },
        {
          "internalType": "bytes32",
          "name": "leafHash",
          "type": "bytes32"
        },
        {
          "internalType": "uint256",
          "name": "leafPos",
          "type": "uint256"
        }
      ],
      "name": "verify",
      "outputs": [
        {
          "internalType": "bool",
          "name": "",
          "type": "bool"
        }
      ],
      "stateMutability": "pure",
      "type": "function"
    },
    {
      "inputs": [
        {
          "internalType": "uint8",
          "name": "timeZone",
          "type": "uint8"
        },
        {
          "internalType": "uint256",
          "name": "countryIdxInTZ",
          "type": "uint256"
        },
        {
          "internalType": "uint256",
          "name": "playerIdxInCountry",
          "type": "uint256"
        }
      ],
      "name": "wasPlayerCreatedInCountry",
      "outputs": [
        {
          "internalType": "bool",
          "name": "",
          "type": "bool"
        }
      ],
      "stateMutability": "view",
      "type": "function"
    },
    {
      "inputs": [
        {
          "internalType": "uint256",
          "name": "playerId",
          "type": "uint256"
        }
      ],
      "name": "wasPlayerCreatedVirtually",
      "outputs": [
        {
          "internalType": "bool",
          "name": "",
          "type": "bool"
        }
      ],
      "stateMutability": "view",
      "type": "function"
    },
    {
      "inputs": [
        {
          "internalType": "uint256",
          "name": "teamId",
          "type": "uint256"
        }
      ],
      "name": "wasTeamCreatedVirtually",
      "outputs": [
        {
          "internalType": "bool",
          "name": "",
          "type": "bool"
        }
      ],
      "stateMutability": "view",
      "type": "function"
    }
  ],
  "bytecode": "0x608060405234801561001057600080fd5b50611d9c806100206000396000f3fe608060405234801561001057600080fd5b50600436106103db5760003560e01c80638cc9a8d51161020a578063d02254a511610125578063e37528bb116100b8578063f4b34e4411610087578063f4b34e4414610d6c578063f9d0723d14610d9e578063fa80039b14610dc4578063fcf9b3be14610de4578063fd6ff4e414610e10576103db565b8063e37528bb14610cf8578063e804e51914610d15578063f2c3576414610d32578063f2dc657f14610d4f576103db565b8063d7d1b6cf116100f4578063d7d1b6cf14610ca3578063d8f73c3c14610ccb578063dcadab5c14610cd3578063e1b27e6b14610cf0576103db565b8063d02254a514610c2c578063d1b3d8fd14610c49578063d2f7967d14610c66578063d403fabd14610c83576103db565b8063bbb117801161019d578063cc7d473b1161016c578063cc7d473b14610b89578063ce506ec514610ba6578063cebc43a614610bcc578063cf01467714610bd4576103db565b8063bbb1178014610b0e578063c04f6d5314610b3e578063c2bc41cd14610b64578063c395d7a814610b81576103db565b8063adc72df7116101d9578063adc72df714610902578063b01a2aa8146109fe578063b59589d114610a57578063b6cacec614610a5f576103db565b80638cc9a8d5146108b85780638e819245146108d55780638f963e2d146108dd578063a21ef9fa146108e5576103db565b806347524b60116102fa57806376c2d9601161028d57806380bac7091161025c57806380bac7091461085c57806380c794ce1461088857806380f55605146108a85780638a89148c146108b0576103db565b806376c2d960146107ca57806379e76597146107f65780637c38fbdd146108135780637ffa3a2e1461083f576103db565b80635f2d1f8d116102c95780635f2d1f8d146106bc5780636a6cb69f146107615780636f6c2ae01461078757806370ab93b4146107a4576103db565b806347524b601461061457806356e3df9714610631578063595ef25b1461064e5780635adb40f514610696576103db565b80633033951d116103725780633518dd1d116103415780633518dd1d146105ac57806338fa26fa146105c9578063434807ad146105d1578063471d6e80146105ee576103db565b80633033951d146105115780633260840b1461053457806332e573ba14610573578063332b8ea3146105a4576103db565b806321eab316116103ae57806321eab316146104a557806322109151146104ad57806329d0dcfb146104cb5780632d0e08fd146104f1576103db565b80631060c9c2146103e0578063114536ea1461040f5780631fc7768f1461045c57806320748ae814610479575b600080fd5b6103fd600480360360208110156103f657600080fd5b5035610e36565b60408051918252519081900360200190f35b6104376004803603604081101561042557600080fd5b5060ff81351690602001351515610e46565b6040805160ff9485168152928416602084015292168183015290519081900360600190f35b6103fd6004803603602081101561047257600080fd5b5035610f0e565b6103fd6004803603606081101561048f57600080fd5b5060ff8135169060208101359060400135610f17565b6103fd611035565b6104b561103c565b6040805160ff9092168252519081900360200190f35b6103fd600480360360408110156104e157600080fd5b508035906020013560ff16611046565b6103fd6004803603602081101561050757600080fd5b503560ff1661105c565b6103fd6004803603604081101561052757600080fd5b50803590602001356110c3565b6105516004803603602081101561054a57600080fd5b50356110ee565b6040805160ff9094168452602084019290925282820152519081900360600190f35b6105906004803603602081101561058957600080fd5b503561110a565b604080519115158252519081900360200190f35b6103fd611177565b6103fd600480360360208110156105c257600080fd5b503561117e565b6103fd611187565b6103fd600480360360208110156105e757600080fd5b503561118e565b6104376004803603604081101561060457600080fd5b508035906020013560ff16611197565b6105906004803603602081101561062a57600080fd5b5035611261565b6103fd6004803603602081101561064757600080fd5b503561126d565b61067a6004803603606081101561066457600080fd5b5060ff8135169060208101359060400135611276565b604080516001600160a01b039092168252519081900360200190f35b6103fd600480360360408110156106ac57600080fd5b5060ff81351690602001356112d3565b6103fd600480360360408110156106d257600080fd5b8101906020810181356401000000008111156106ed57600080fd5b8201836020820111156106ff57600080fd5b8035906020019184602083028401116401000000008311171561072157600080fd5b9190808060200260200160405190810160405280939291908181526020018383602002808284376000920191909152509295505091359250611326915050565b6103fd6004803603604081101561077757600080fd5b5060ff8135169060200135611426565b6103fd6004803603602081101561079d57600080fd5b5035611439565b6103fd600480360360408110156107ba57600080fd5b5060ff813516906020013561145a565b610590600480360360608110156107e057600080fd5b5060ff813516906020810135906040013561146f565b6104b56004803603602081101561080c57600080fd5b5035611485565b6103fd6004803603606081101561082957600080fd5b5060ff813516906020810135906040013561148e565b6105906004803603602081101561085557600080fd5b5035611572565b6105906004803603606081101561087257600080fd5b5060ff813516906020810135906040013561157e565b6103fd6004803603602081101561089e57600080fd5b503560ff1661159e565b61067a6115b8565b6104376115c8565b610590600480360360208110156108ce57600080fd5b50356115ef565b6103fd611620565b6103fd611627565b610590600480360360208110156108fb57600080fd5b503561162e565b6109ae6004803603606081101561091857600080fd5b8135919081019060408101602082013564010000000081111561093a57600080fd5b82018360208201111561094c57600080fd5b8035906020019184602083028401116401000000008311171561096e57600080fd5b9190808060200260200160405190810160405280939291908181526020018383602002808284376000920191909152509295505091359250611657915050565b60408051602080825283518183015283519192839290830191858101910280838360005b838110156109ea5781810151838201526020016109d2565b505050509050019250505060405180910390f35b610a1e60048036036020811015610a1457600080fd5b503560ff16611801565b60405180826101c080838360005b83811015610a44578181015183820152602001610a2c565b5050505090500191505060405180910390f35b61067a611850565b61059060048036036080811015610a7557600080fd5b81359190810190604081016020820135640100000000811115610a9757600080fd5b820183602082011115610aa957600080fd5b80359060200191846020830284011164010000000083111715610acb57600080fd5b9190808060200260200160405190810160405280939291908181526020018383602002808284376000920191909152509295505082359350505060200135611860565b6103fd60048036036060811015610b2457600080fd5b5060ff8135811691602081013590911690604001356118d7565b6103fd60048036036040811015610b5457600080fd5b5060ff8135169060200135611939565b6103fd60048036036020811015610b7a57600080fd5b503561194f565b610437611958565b61059060048036036020811015610b9f57600080fd5b5035611990565b61059060048036036040811015610bbc57600080fd5b5060ff813516906020013561199c565b61067a6119b6565b610c0660048036036080811015610bea57600080fd5b508035906020810135906040810135906060013560ff166119c6565b6040805160ff948516815292909316602083015215158183015290519081900360600190f35b61059060048036036020811015610c4257600080fd5b5035611a46565b61059060048036036020811015610c5f57600080fd5b5035611a66565b6103fd60048036036020811015610c7c57600080fd5b5035611a72565b61059060048036036020811015610c9957600080fd5b503560ff16611a80565b610c0660048036036040811015610cb957600080fd5b5060ff81351690602001351515611a9b565b61067a611b4d565b6104b560048036036020811015610ce957600080fd5b5035611b5d565b61067a611b70565b61059060048036036020811015610d0e57600080fd5b5035611b80565b6104b560048036036020811015610d2b57600080fd5b5035611b8c565b61059060048036036020811015610d4857600080fd5b5035611b95565b6103fd60048036036020811015610d6557600080fd5b5035611ba1565b6103fd60048036036060811015610d8257600080fd5b5060ff8135811691602081013590911690604001351515611bab565b6103fd60048036036040811015610db457600080fd5b5060ff8135169060200135611c4a565b6103fd60048036036020811015610dda57600080fd5b503560ff16611c58565b61059060048036036060811015610dfa57600080fd5b5060ff8135169060208101359060400135611cbf565b610a1e60048036036040811015610e2657600080fd5b5060ff8135169060200135611cd8565b6207ffff60b582901c165b919050565b60008060008084610e6f5760ff808716600090815261102c602052604090205416600103610e86565b60ff808716600090815261102c6020526040902054165b90508061102a60008860ff1681526020019081526020016000208260ff1660028110610eae57fe5b602091828204019190069054906101000a900460ff1661102860008960ff1681526020019081526020016000208360ff1660028110610ee957fe5b602091828204019190069054906101000a900460ff16935093509350505b9250925092565b607e1c60071690565b600060208460ff1610610f69576040805162461bcd60e51b81526020600482015260156024820152741d1a5b595e9bdb99481bdd5d081bd988189bdd5b99605a1b604482015290519081900360640190fd5b6104008310610fbf576040805162461bcd60e51b815260206004820152601b60248201527f636f756e747279496478496e545a206f7574206f6620626f756e640000000000604482015290519081900360640190fd5b63100000008210611017576040805162461bcd60e51b815260206004820152601a60248201527f76616c20746f20656e636f6465206f7574206f6620626f756e64000000000000604482015290519081900360640190fd5b50601c82901b653fc000000000602685901b161781175b9392505050565b6110205490565b61101e5460ff1690565b620fffff601460ff83160283901c165b92915050565b600061106782611a80565b6110ac576040805162461bcd60e51b81526020600482015260116024820152701d1e88191bd95cc81b9bdd08195e1a5cdd607a1b604482015290519081900360640190fd5b5060ff16600090815261102e602052604090205490565b6000811580156110d1575082155b156110de57506000611056565b5060009182526020526040902090565b602681901c601f1691601c82901c6103ff1691630fffffff1690565b600061101f54821461111e57506000610e41565b6000611128611958565b509091505060ff811661113f576000915050610e41565b61114881611c58565b6111518261105c565b10611160576000915050610e41565b600061116d826001611a9b565b9695505050505050565b6110095481565b607b1c60071690565b61101d5490565b60741c600f1690565b600080806003851660248280600284108015906111b357508289105b156111cc575060009550859450849350610f0792505050565b60028410156112095760046060858b0306048860ff16019150606060ff16848960ff1684036004028b03036002028161120157fe5b049050611242565b60046060848b0306048860ff16019150606060ff16838960ff1684036004028b03036002028161123557fe5b0460010190506002840393505b83945061124e82611b5d565b9650600e81069550505050509250925092565b60cc1c60019081161490565b60cd1c60ff1690565b600061128184611a80565b15806112945750611292848461199c565b155b156112a15750600061102e565b61101660006112b1868686610f17565b81526020810191909152604001600020546001600160a01b0316949350505050565b60006112de83611a80565b15806112f157506112ef838361199c565b155b156112fe57506000611056565b611012600061130f85856000610f17565b815260200190815260200160002054905092915050565b8151600090600283900a90825b848160ff161015611406576002830492506002820615611359576002820460010161135e565b600282045b91508282111561136c578291505b60005b828110156113cf576113b087826002028151811061138957fe5b60200260200101518883600202600101815181106113a357fe5b60200260200101516110c3565b8782815181106113bc57fe5b602090810291909101015260010161136f565b50815b838110156113fd576000801b8782815181106113ea57fe5b60209081029190910101526001016113d2565b50600101611333565b508460008151811061141457fe5b60200260200101519250505092915050565b6000611013600061130f85856000610f17565b600061144482611261565b6114565761145182611a72565b611056565b5090565b600061102e836114698561159e565b8461148e565b600061147b8484611939565b9091109392505050565b60b11c60071690565b6000808460ff161180156114a5575060198460ff16105b6114ee576040805162461bcd60e51b815260206004820152601560248201527474696d657a6f6e65206f7574206f662072616e676560581b604482015290519081900360640190fd5b61101e5460009060ff90811690861610156115145761101e5460ff16850360180161151e565b61101e5460ff1685035b60ff1690506002830661154a578360076018020283600c02820101610e1002611021540191505061102e565b836007603002026001840360180282600202601301010161070802611021540191505061102e565b60d61c60019081161490565b60008061158c858585611276565b6001600160a01b031614949350505050565b61101e5461101f5460009161105691849160ff16906118d7565b611005546001600160a01b031690565b61101f5461101e54600091829182916115e39160ff16611197565b9250925092505b909192565b6000600182141561160257506000610e41565b50600090815261101660205260409020546001600160a01b03161590565b61101f5490565b6110235490565b60008060008061163d856110ee565b92509250925061164e83838361146f565b95945050505050565b606060008260020a9050808451146116a05760405162461bcd60e51b8152600401808060200182810382526027815260200180611d406027913960400191505060405180910390fd5b826040519080825280602002602001820160405280156116ca578160200160208202803683370190505b50915060028506156116f2578360018603815181106116e557fe5b602002602001015161170a565b83856001018151811061170157fe5b60200260200101515b8260008151811061171757fe5b602090810291909101015260005b600184038160ff1610156117f85760028204915060028604955060005b828110156117955761177686826002028151811061175c57fe5b60200260200101518783600202600101815181106113a357fe5b86828151811061178257fe5b6020908102919091010152600101611742565b5060028606156117bb578460018703815181106117ae57fe5b60200260200101516117d3565b8486600101815181106117ca57fe5b60200260200101515b838260010160ff16815181106117e557fe5b6020908102919091010152600101611725565b50509392505050565b611809611d20565b60005b600e8160ff16101561184a5761182e836118258561159e565b8360ff1661148e565b828260ff16600e811061183d57fe5b602002015260010161180c565b50919050565b611007546001600160a01b031690565b6000805b84518163ffffffff1610156118cc57600283066118985761189184868363ffffffff16815181106113a357fe5b93506118be565b6118bb858263ffffffff16815181106118ad57fe5b6020026020010151856110c3565b93505b600283049250600101611864565b505050909114919050565b60006102a08210156118eb5750600061102e565b6102a08204600060ff808616908716101561190b5784866018010361190f565b8486035b60ff169050600481026102a0830201841015611931575060001901905061102e565b50905061102e565b600060086119478484611c4a565b029392505050565b60781c60071690565b600080600061101f5460001415611977575060009150819050806115ea565b61101f5461101e546115e391600019019060ff16611197565b60ad1c60019081161490565b60ff91909116600090815261101760205260409020541190565b611008546001600160a01b031690565b60008080846119df575082915060009050848611611a3c565b60008688116119ef5760006119fc565b85878903816119fa57fe5b045b9050806002028560ff161015611a155760018516611a1f565b806002028560ff16035b9350600260ff85870316049250505060ff60018201168402850186115b9450945094915050565b600080600080611a55856110ee565b92509250925061164e838383611cbf565b60d51c60019081161490565b60811c6507ffffffffff1690565b600060ff821615801590611056575050601960ff9091161090565b60008060008084611ac45760ff808716600090815261102c602052604090205416600103611adb565b60ff808716600090815261102c6020526040902054165b60ff808816600090815261102a602052604081209293509190831660028110611b0057fe5b602091828204019190069054906101000a900460ff169050611b3e4261102e60008a60ff1681526020019081526020016000205461102354846119c6565b94509450945050509250925092565b61102f546001600160a01b031681565b6000601860178301066001019050919050565b611006546001600160a01b031690565b60b41c60019081161490565b60ae1c60071690565b60ac1c60019081161490565b60641c61ffff1690565b600081611bff5760ff80851660009081526110296020908152604080832061102c9092529091205490919081166001031660028110611be657fe5b600602018360ff1660068110611bf857fe5b0154611c42565b60ff80851660009081526110296020908152604080832061102c9092529091205490911660028110611c2d57fe5b600602018360ff1660068110611c3f57fe5b01545b949350505050565b6000601061194784846112d3565b6000611c6382611a80565b611ca8576040805162461bcd60e51b81526020600482015260116024820152701d1e88191bd95cc81b9bdd08195e1a5cdd607a1b604482015290519081900360640190fd5b5060ff16600090815261102d602052604090205490565b60006012611ccd8585611939565b029091109392505050565b611ce0611d20565b60005b600e8160ff161015611d1957611cfd84848360ff1661148e565b828260ff16600e8110611d0c57fe5b6020020152600101611ce3565b5092915050565b604051806101c00160405280600e90602082028036833750919291505056fe6e756d626572206f66206c65616673206973206e6f74203d20706f7728322c6e4c6576656c7329a26469706673582212206f7ca003180d09b47d95a4ee28db33743bf6730390914481aee32d986eac61db64736f6c63430006030033",
  "source": "pragma solidity >= 0.6.3;\n\nimport \"./UpdatesView.sol\";\nimport \"./Merkle.sol\";\n\n/**\n @title Storage-writing Library inherited by both Updates and Challenges contracts\n @author Freeverse.io, www.freeverse.io\n*/\n\ncontract UpdatesBase is UpdatesView, Merkle {\n    \n    event ChallengeResolved(uint8 tz, uint8 resolvedLevel, bool isSuccessful);\n   \n    function _cleanTimeAcceptedChallenges() internal returns (uint8[4] memory intData) {\n        /// intData encapsulates various variables, required due to avoid stack overflow\n        /// intData = [tz, level, levelVerifiable, idx]\n        (intData[0],,) = prevTimeZoneToUpdate();\n        require(intData[0] != NULL_TIMEZONE, \"cannot challenge the null timezone\");\n        (intData[3], intData[1], intData[2]) = getChallengeData(intData[0], true);\n\n        (uint8 finalLevel, uint8 nJumps, bool isSettled) = getStatus(intData[0], true);\n        require(!isSettled, \"challenging time is over for the current timezone\");\n        /// if there was 0 jumps, do nothing\n        if (nJumps == 0) return intData;\n        /// otherwise clean all data except for the lowest level\n        require(intData[1] == finalLevel + 2 * nJumps, \"challenge status: nJumps incompatible with writtenLevel and finalLevel\");\n        uint8 idx = _newestRootsIdx[intData[0]];\n        for (uint8 j = 0; j < nJumps; j++) {\n            uint8 levelAccepted = finalLevel + 2 * (j + 1);\n            _roots[intData[0]][idx][levelAccepted] = 0;\n            _roots[intData[0]][idx][levelAccepted-1] = 0;\n            emit ChallengeResolved(intData[0], levelAccepted, true);\n            emit ChallengeResolved(intData[0], levelAccepted - 1, false);\n        }\n        _challengeLevel[intData[0]][idx] = finalLevel;\n        intData[1] = finalLevel;\n    }\n    \n    function _assertFormallyCorrectChallenge(\n        /// intData encapsulates various variables, required due to avoid stack overflow\n        /// intData = [tz, level, levelVerifiable, idx]\n        uint8[4] memory intData,\n        bytes32 challLeaveVal, \n        uint256 challLeavePos, \n        bytes32[] memory proofChallLeave, \n        bytes32[] memory providedRoots\n    ) \n        internal\n        returns (bytes32)\n    {\n        /// intData = [tz, level, levelVerifiable, idx]\n        intData = _cleanTimeAcceptedChallenges();\n\n        /// build the root of the providedData\n        bytes32 root;\n        if (intData[1] + 2 >= intData[2]) {\n            require(providedRoots.length == _leafsInLeague, \"league leafs must have len 640\");\n            root = merkleRoot(providedRoots, _levelsInLastChallenge);\n        } else {\n            require(providedRoots.length == 2**uint256(_levelsInOneChallenge), \"league leafs must have len 640\");\n            root = merkleRoot(providedRoots, _levelsInOneChallenge);\n        }\n\n        /// We first check that the provided roots are an actual challenge,\n        /// hence leading to a root different from the one provided by previous challenge/update)\n        if (intData[1] == 0) {\n            /// at level 0, the value one challenges is the one written in the BC, so we don't use challLeaveVal (could be anything)\n            /// and we don't need to verifiy that it belonged to a previous commit.\n            require(root != getRoot(intData[0], 0, true), \"provided leafs lead to same root being challenged\");\n        } else if ((intData[1] + 1) == intData[2]) {\n            /// at last level, we just provide the league leaves provided by the last challenger,\n            /// and we verify that they DO match with what is written.\n            require(root == getRoot(intData[0], intData[1], true), \"provided leafs lead to same root being challenged\");\n        } else {\n            /// otherwise we also check that the challVal belonged to a previous commit\n            require(root != challLeaveVal, \"you are declaring that the provided leafs lead to same root being challenged\");\n            bytes32 prevRoot = getRoot(intData[0], intData[1], true);\n            require(verify(prevRoot, proofChallLeave, challLeaveVal, challLeavePos), \"merkle proof not correct\");\n        }\n        return root;        \n    }\n    \n    function _completeSuccessfulVerifiableChallenge(uint8[4] memory intData) internal {\n        /// intData encapsulates various variables, required due to avoid stack overflow\n        /// intData = [tz, level, levelVerifiable, idx]\n        _roots[intData[0]][intData[3]][intData[1]] = 0;\n        _challengeLevel[intData[0]][intData[3]] = intData[1] - 1;\n        emit ChallengeResolved(intData[0], intData[1] + 1, true);\n        emit ChallengeResolved(intData[0], intData[1], false);\n        _stakers.update(intData[1]-1, msg.sender);\n    }\n}\n",
  "sourcePath": "/Users/jurgenkudla/proyects/laos/laos-goal-revolution/goalrev-ganache/contracts/storage/UpdatesBase.sol",
  "compiler": {
    "name": "solc",
    "version": "0.6.3+commit.8dda9521.Emscripten.clang"
  },
  "schemaVersion": "3.0.23",
  "updatedAt": "2024-10-18T06:45:40.058Z",
  "networkType": "ethereum",
  "devdoc": {
    "author": "Freeverse.io, www.freeverse.io",
    "methods": {
      "encodeTZCountryAndVal(uint8,uint256,uint256)": {
        "details": "PlayerId and TeamId both serialize a total of 43 bits:     timeZone        = 5 bits     countryIdxInTZ  = 10 bits     val             = 28 bits (either  (playerIdxInCountry or teamIdxInCountry)*"
      }
    },
    "title": "Storage-writing Library inherited by both Updates and Challenges contracts"
  },
  "userdoc": {
    "methods": {
      "getMatchUTC(uint8,uint256,uint256)": {
        "notice": "tz(n0)   : 11.30 = 0          : 21.00 = 11.30 + 9.30h tz(n)    : 11.30 + (n-n0)*1h          : 21.00 + (n-n0)*1h          : 11.30 + (n-n0)*1h + 24h * day (day = mDay/2)              = 11.30 + ( deltaN + 12 * mDay ) * 1h          : 21.00 + (n-n0) + 24h * day (day = (mDay-1)/2)              = 11.30 + (9.5 + deltaN + 12 * (mDay-1) ) * 1h add round * T_round = round * 7 * 24 * 3600 = round * DAYS_PER_ROUND * 24 * 1h  if even: 11.30 + ( deltaN + 12 * mDay + 24 * round * DAYS_PER_ROUND ) * 1h if odd:  11.30 + (9.5 + deltaN + 12 * (mDay-1) + 24 * round * DAYS_PER_ROUND ) * 1h        = 11.30 + (19 + 2*deltaN + 24 * (mDay-1) + 48 * round * DAYS_PER_ROUND ) * (1h/2)"
      },
      "getOwnerTeamInCountry(uint8,uint256,uint256)": {
        "notice": "returns NULL_ADDR if team is bot"
      },
      "isBotTeamInCountry(uint8,uint256,uint256)": {
        "notice": "Rest of view/pure functions "
      },
      "merkleRoot(bytes32[],uint256)": {
        "notice": "This function will revert if nLevels = 0. nLeafs = 2**nLevels  nLevels = 1 => 3 leafs = lev1 - root /// lev0 - 2 leafs  nLevels = 2 => 7 leafs = lev2 - root /// lev1 - 2 leafs /// lev0 - 4 leafs"
      },
      "nextTimeZoneToUpdate()": {
        "notice": "each day has 24 hours, each with 4 verses => 96 verses per day. day = 0,..13 turnInDay = 0, 1, 2, 3 so for each TZ, we go from (day, turn) = (0, 0) ... (13,3) => a total of 14*4 = 56 turns per tz from these, all map easily to timeZones"
      },
      "timeZoneToUpdatePure(uint256,uint8)": {
        "notice": "tz0  : v = 0, V_DAY, 2 * V_DAY... tzN  : v = 4N + V_DAY * day,  day = 0,...6 tzN  : v = 4N + V_DAY * day,  day = 0,...6  => tzN - tz0 = (v - V_DAY*day)  => 4 tzN = 4 tz0 + v % VERSES_PER_DAY last : v = V_DAY + DELTA + V_DAY * 6  Imagine 2 tzs: 0:00 - tz0; 0:30 - NUL; 1:00 - tz1; 1:30 - tz0; 0:00 - tz0; 0:30 - tz1; So the last"
      },
      "verify(bytes32,bytes32[],bytes32,uint256)": {
        "notice": "if nLevels = 1, we need 1 element in the proof if nLevels = 2, we need 2 elements...        .     ..   ..   .. .. .. ..   01 23 45 67"
      }
    }
  }
}