{
  "contractName": "UpdatesView",
  "abi": [
    {
      "anonymous": false,
      "inputs": [
        {
          "indexed": false,
          "internalType": "uint256",
          "name": "teamId",
          "type": "uint256"
        },
        {
          "indexed": false,
          "internalType": "address",
          "name": "to",
          "type": "address"
        }
      ],
      "name": "TeamTransfer",
      "type": "event"
    },
    {
      "inputs": [],
      "name": "COO",
      "outputs": [
        {
          "internalType": "address",
          "name": "",
          "type": "address"
        }
      ],
      "stateMutability": "view",
      "type": "function"
    },
    {
      "inputs": [],
      "name": "_stakers",
      "outputs": [
        {
          "internalType": "contract Stakers",
          "name": "",
          "type": "address"
        }
      ],
      "stateMutability": "view",
      "type": "function"
    },
    {
      "inputs": [
        {
          "internalType": "uint8",
          "name": "timeZone",
          "type": "uint8"
        },
        {
          "internalType": "uint256",
          "name": "countryIdxInTZ",
          "type": "uint256"
        }
      ],
      "name": "countryInTZExists",
      "outputs": [
        {
          "internalType": "bool",
          "name": "",
          "type": "bool"
        }
      ],
      "stateMutability": "view",
      "type": "function"
    },
    {
      "inputs": [],
      "name": "cryptoMktAddr",
      "outputs": [
        {
          "internalType": "address",
          "name": "",
          "type": "address"
        }
      ],
      "stateMutability": "view",
      "type": "function"
    },
    {
      "inputs": [
        {
          "internalType": "uint256",
          "name": "encoded",
          "type": "uint256"
        }
      ],
      "name": "decodeTZCountryAndVal",
      "outputs": [
        {
          "internalType": "uint8",
          "name": "",
          "type": "uint8"
        },
        {
          "internalType": "uint256",
          "name": "",
          "type": "uint256"
        },
        {
          "internalType": "uint256",
          "name": "",
          "type": "uint256"
        }
      ],
      "stateMutability": "pure",
      "type": "function"
    },
    {
      "inputs": [
        {
          "internalType": "uint8",
          "name": "timeZone",
          "type": "uint8"
        },
        {
          "internalType": "uint256",
          "name": "countryIdxInTZ",
          "type": "uint256"
        },
        {
          "internalType": "uint256",
          "name": "val",
          "type": "uint256"
        }
      ],
      "name": "encodeTZCountryAndVal",
      "outputs": [
        {
          "internalType": "uint256",
          "name": "",
          "type": "uint256"
        }
      ],
      "stateMutability": "pure",
      "type": "function"
    },
    {
      "inputs": [],
      "name": "gameDeployDay",
      "outputs": [
        {
          "internalType": "uint256",
          "name": "",
          "type": "uint256"
        }
      ],
      "stateMutability": "view",
      "type": "function"
    },
    {
      "inputs": [
        {
          "internalType": "uint256",
          "name": "encodedSkills",
          "type": "uint256"
        }
      ],
      "name": "getAggressiveness",
      "outputs": [
        {
          "internalType": "uint256",
          "name": "",
          "type": "uint256"
        }
      ],
      "stateMutability": "pure",
      "type": "function"
    },
    {
      "inputs": [
        {
          "internalType": "uint256",
          "name": "encodedSkills",
          "type": "uint256"
        }
      ],
      "name": "getAlignedEndOfFirstHalf",
      "outputs": [
        {
          "internalType": "bool",
          "name": "",
          "type": "bool"
        }
      ],
      "stateMutability": "pure",
      "type": "function"
    },
    {
      "inputs": [
        {
          "internalType": "uint256",
          "name": "encodedSkills",
          "type": "uint256"
        }
      ],
      "name": "getBirthDay",
      "outputs": [
        {
          "internalType": "uint256",
          "name": "",
          "type": "uint256"
        }
      ],
      "stateMutability": "pure",
      "type": "function"
    },
    {
      "inputs": [
        {
          "internalType": "uint8",
          "name": "tz",
          "type": "uint8"
        }
      ],
      "name": "getCurrentRound",
      "outputs": [
        {
          "internalType": "uint256",
          "name": "",
          "type": "uint256"
        }
      ],
      "stateMutability": "view",
      "type": "function"
    },
    {
      "inputs": [
        {
          "internalType": "uint8",
          "name": "tz",
          "type": "uint8"
        },
        {
          "internalType": "uint8",
          "name": "tz1",
          "type": "uint8"
        },
        {
          "internalType": "uint256",
          "name": "verse",
          "type": "uint256"
        }
      ],
      "name": "getCurrentRoundPure",
      "outputs": [
        {
          "internalType": "uint256",
          "name": "",
          "type": "uint256"
        }
      ],
      "stateMutability": "pure",
      "type": "function"
    },
    {
      "inputs": [
        {
          "internalType": "uint256",
          "name": "encodedSkills",
          "type": "uint256"
        }
      ],
      "name": "getForwardness",
      "outputs": [
        {
          "internalType": "uint256",
          "name": "",
          "type": "uint256"
        }
      ],
      "stateMutability": "pure",
      "type": "function"
    },
    {
      "inputs": [
        {
          "internalType": "uint256",
          "name": "encodedSkills",
          "type": "uint256"
        }
      ],
      "name": "getGamesNonStopping",
      "outputs": [
        {
          "internalType": "uint8",
          "name": "",
          "type": "uint8"
        }
      ],
      "stateMutability": "pure",
      "type": "function"
    },
    {
      "inputs": [
        {
          "internalType": "uint256",
          "name": "encodedSkills",
          "type": "uint256"
        }
      ],
      "name": "getGeneration",
      "outputs": [
        {
          "internalType": "uint256",
          "name": "",
          "type": "uint256"
        }
      ],
      "stateMutability": "pure",
      "type": "function"
    },
    {
      "inputs": [
        {
          "internalType": "uint256",
          "name": "encodedSkills",
          "type": "uint256"
        }
      ],
      "name": "getInjuryWeeksLeft",
      "outputs": [
        {
          "internalType": "uint8",
          "name": "",
          "type": "uint8"
        }
      ],
      "stateMutability": "pure",
      "type": "function"
    },
    {
      "inputs": [
        {
          "internalType": "uint256",
          "name": "encodedSkills",
          "type": "uint256"
        }
      ],
      "name": "getInternalPlayerId",
      "outputs": [
        {
          "internalType": "uint256",
          "name": "",
          "type": "uint256"
        }
      ],
      "stateMutability": "pure",
      "type": "function"
    },
    {
      "inputs": [
        {
          "internalType": "uint256",
          "name": "encodedSkills",
          "type": "uint256"
        }
      ],
      "name": "getIsSpecial",
      "outputs": [
        {
          "internalType": "bool",
          "name": "",
          "type": "bool"
        }
      ],
      "stateMutability": "pure",
      "type": "function"
    },
    {
      "inputs": [
        {
          "internalType": "uint256",
          "name": "encodedSkills",
          "type": "uint256"
        }
      ],
      "name": "getLeftishness",
      "outputs": [
        {
          "internalType": "uint256",
          "name": "",
          "type": "uint256"
        }
      ],
      "stateMutability": "pure",
      "type": "function"
    },
    {
      "inputs": [
        {
          "internalType": "uint8",
          "name": "timeZone",
          "type": "uint8"
        },
        {
          "internalType": "uint256",
          "name": "countryIdxInTZ",
          "type": "uint256"
        }
      ],
      "name": "getNDivisionsInCountry",
      "outputs": [
        {
          "internalType": "uint256",
          "name": "",
          "type": "uint256"
        }
      ],
      "stateMutability": "view",
      "type": "function"
    },
    {
      "inputs": [
        {
          "internalType": "uint8",
          "name": "timeZone",
          "type": "uint8"
        },
        {
          "internalType": "uint256",
          "name": "countryIdxInTZ",
          "type": "uint256"
        }
      ],
      "name": "getNHumansInCountry",
      "outputs": [
        {
          "internalType": "uint256",
          "name": "",
          "type": "uint256"
        }
      ],
      "stateMutability": "view",
      "type": "function"
    },
    {
      "inputs": [
        {
          "internalType": "uint8",
          "name": "timeZone",
          "type": "uint8"
        },
        {
          "internalType": "uint256",
          "name": "countryIdxInTZ",
          "type": "uint256"
        }
      ],
      "name": "getNLeaguesInCountry",
      "outputs": [
        {
          "internalType": "uint256",
          "name": "",
          "type": "uint256"
        }
      ],
      "stateMutability": "view",
      "type": "function"
    },
    {
      "inputs": [
        {
          "internalType": "uint8",
          "name": "timeZone",
          "type": "uint8"
        },
        {
          "internalType": "uint256",
          "name": "countryIdxInTZ",
          "type": "uint256"
        }
      ],
      "name": "getNTeamsInCountry",
      "outputs": [
        {
          "internalType": "uint256",
          "name": "",
          "type": "uint256"
        }
      ],
      "stateMutability": "view",
      "type": "function"
    },
    {
      "inputs": [
        {
          "internalType": "uint256",
          "name": "encodedSkills",
          "type": "uint256"
        }
      ],
      "name": "getOutOfGameFirstHalf",
      "outputs": [
        {
          "internalType": "bool",
          "name": "",
          "type": "bool"
        }
      ],
      "stateMutability": "pure",
      "type": "function"
    },
    {
      "inputs": [
        {
          "internalType": "uint8",
          "name": "timeZone",
          "type": "uint8"
        },
        {
          "internalType": "uint256",
          "name": "countryIdxInTZ",
          "type": "uint256"
        },
        {
          "internalType": "uint256",
          "name": "teamIdxInCountry",
          "type": "uint256"
        }
      ],
      "name": "getOwnerTeamInCountry",
      "outputs": [
        {
          "internalType": "address",
          "name": "",
          "type": "address"
        }
      ],
      "stateMutability": "view",
      "type": "function"
    },
    {
      "inputs": [
        {
          "internalType": "uint256",
          "name": "encodedSkills",
          "type": "uint256"
        }
      ],
      "name": "getPlayerIdFromSkills",
      "outputs": [
        {
          "internalType": "uint256",
          "name": "",
          "type": "uint256"
        }
      ],
      "stateMutability": "pure",
      "type": "function"
    },
    {
      "inputs": [
        {
          "internalType": "uint256",
          "name": "encodedSkills",
          "type": "uint256"
        }
      ],
      "name": "getPotential",
      "outputs": [
        {
          "internalType": "uint256",
          "name": "",
          "type": "uint256"
        }
      ],
      "stateMutability": "pure",
      "type": "function"
    },
    {
      "inputs": [
        {
          "internalType": "uint256",
          "name": "encodedSkills",
          "type": "uint256"
        }
      ],
      "name": "getRedCardLastGame",
      "outputs": [
        {
          "internalType": "bool",
          "name": "",
          "type": "bool"
        }
      ],
      "stateMutability": "pure",
      "type": "function"
    },
    {
      "inputs": [
        {
          "internalType": "uint256",
          "name": "encodedSkills",
          "type": "uint256"
        },
        {
          "internalType": "uint8",
          "name": "skillIdx",
          "type": "uint8"
        }
      ],
      "name": "getSkill",
      "outputs": [
        {
          "internalType": "uint256",
          "name": "",
          "type": "uint256"
        }
      ],
      "stateMutability": "pure",
      "type": "function"
    },
    {
      "inputs": [
        {
          "internalType": "uint256",
          "name": "encodedSkills",
          "type": "uint256"
        }
      ],
      "name": "getSubstitutedFirstHalf",
      "outputs": [
        {
          "internalType": "bool",
          "name": "",
          "type": "bool"
        }
      ],
      "stateMutability": "pure",
      "type": "function"
    },
    {
      "inputs": [
        {
          "internalType": "uint256",
          "name": "encodedSkills",
          "type": "uint256"
        }
      ],
      "name": "getSumOfSkills",
      "outputs": [
        {
          "internalType": "uint256",
          "name": "",
          "type": "uint256"
        }
      ],
      "stateMutability": "pure",
      "type": "function"
    },
    {
      "inputs": [
        {
          "internalType": "uint256",
          "name": "encodedSkills",
          "type": "uint256"
        }
      ],
      "name": "getYellowCardFirstHalf",
      "outputs": [
        {
          "internalType": "bool",
          "name": "",
          "type": "bool"
        }
      ],
      "stateMutability": "pure",
      "type": "function"
    },
    {
      "inputs": [
        {
          "internalType": "uint256",
          "name": "teamId",
          "type": "uint256"
        }
      ],
      "name": "isBotTeam",
      "outputs": [
        {
          "internalType": "bool",
          "name": "",
          "type": "bool"
        }
      ],
      "stateMutability": "view",
      "type": "function"
    },
    {
      "inputs": [
        {
          "internalType": "uint8",
          "name": "timeZone",
          "type": "uint8"
        },
        {
          "internalType": "uint256",
          "name": "countryIdxInTZ",
          "type": "uint256"
        },
        {
          "internalType": "uint256",
          "name": "teamIdxInCountry",
          "type": "uint256"
        }
      ],
      "name": "isBotTeamInCountry",
      "outputs": [
        {
          "internalType": "bool",
          "name": "",
          "type": "bool"
        }
      ],
      "stateMutability": "view",
      "type": "function"
    },
    {
      "inputs": [],
      "name": "market",
      "outputs": [
        {
          "internalType": "address",
          "name": "",
          "type": "address"
        }
      ],
      "stateMutability": "view",
      "type": "function"
    },
    {
      "inputs": [],
      "name": "nextTimeZoneToUpdate",
      "outputs": [
        {
          "internalType": "uint8",
          "name": "tz",
          "type": "uint8"
        },
        {
          "internalType": "uint8",
          "name": "day",
          "type": "uint8"
        },
        {
          "internalType": "uint8",
          "name": "turnInDay",
          "type": "uint8"
        }
      ],
      "stateMutability": "view",
      "type": "function"
    },
    {
      "inputs": [
        {
          "internalType": "uint256",
          "name": "tz",
          "type": "uint256"
        }
      ],
      "name": "normalizeTZ",
      "outputs": [
        {
          "internalType": "uint8",
          "name": "",
          "type": "uint8"
        }
      ],
      "stateMutability": "pure",
      "type": "function"
    },
    {
      "inputs": [],
      "name": "prevTimeZoneToUpdate",
      "outputs": [
        {
          "internalType": "uint8",
          "name": "tz",
          "type": "uint8"
        },
        {
          "internalType": "uint8",
          "name": "day",
          "type": "uint8"
        },
        {
          "internalType": "uint8",
          "name": "turnInDay",
          "type": "uint8"
        }
      ],
      "stateMutability": "view",
      "type": "function"
    },
    {
      "inputs": [],
      "name": "relay",
      "outputs": [
        {
          "internalType": "address",
          "name": "",
          "type": "address"
        }
      ],
      "stateMutability": "view",
      "type": "function"
    },
    {
      "inputs": [
        {
          "internalType": "uint8",
          "name": "timeZone",
          "type": "uint8"
        },
        {
          "internalType": "uint256",
          "name": "countryIdxInTZ",
          "type": "uint256"
        },
        {
          "internalType": "uint256",
          "name": "teamIdxInCountry",
          "type": "uint256"
        }
      ],
      "name": "teamExistsInCountry",
      "outputs": [
        {
          "internalType": "bool",
          "name": "",
          "type": "bool"
        }
      ],
      "stateMutability": "view",
      "type": "function"
    },
    {
      "inputs": [
        {
          "internalType": "uint256",
          "name": "verse",
          "type": "uint256"
        },
        {
          "internalType": "uint8",
          "name": "TZForRound1",
          "type": "uint8"
        }
      ],
      "name": "timeZoneToUpdatePure",
      "outputs": [
        {
          "internalType": "uint8",
          "name": "timezone",
          "type": "uint8"
        },
        {
          "internalType": "uint8",
          "name": "day",
          "type": "uint8"
        },
        {
          "internalType": "uint8",
          "name": "turnInDay",
          "type": "uint8"
        }
      ],
      "stateMutability": "pure",
      "type": "function"
    },
    {
      "inputs": [
        {
          "internalType": "uint8",
          "name": "timeZone",
          "type": "uint8"
        }
      ],
      "name": "tzExists",
      "outputs": [
        {
          "internalType": "bool",
          "name": "",
          "type": "bool"
        }
      ],
      "stateMutability": "pure",
      "type": "function"
    },
    {
      "inputs": [
        {
          "internalType": "uint8",
          "name": "timeZone",
          "type": "uint8"
        },
        {
          "internalType": "uint256",
          "name": "countryIdxInTZ",
          "type": "uint256"
        },
        {
          "internalType": "uint256",
          "name": "playerIdxInCountry",
          "type": "uint256"
        }
      ],
      "name": "wasPlayerCreatedInCountry",
      "outputs": [
        {
          "internalType": "bool",
          "name": "",
          "type": "bool"
        }
      ],
      "stateMutability": "view",
      "type": "function"
    },
    {
      "inputs": [
        {
          "internalType": "uint256",
          "name": "playerId",
          "type": "uint256"
        }
      ],
      "name": "wasPlayerCreatedVirtually",
      "outputs": [
        {
          "internalType": "bool",
          "name": "",
          "type": "bool"
        }
      ],
      "stateMutability": "view",
      "type": "function"
    },
    {
      "inputs": [
        {
          "internalType": "uint256",
          "name": "teamId",
          "type": "uint256"
        }
      ],
      "name": "wasTeamCreatedVirtually",
      "outputs": [
        {
          "internalType": "bool",
          "name": "",
          "type": "bool"
        }
      ],
      "stateMutability": "view",
      "type": "function"
    },
    {
      "inputs": [
        {
          "internalType": "uint8",
          "name": "tz",
          "type": "uint8"
        }
      ],
      "name": "getLastUpdateTime",
      "outputs": [
        {
          "internalType": "uint256",
          "name": "",
          "type": "uint256"
        }
      ],
      "stateMutability": "view",
      "type": "function"
    },
    {
      "inputs": [
        {
          "internalType": "uint8",
          "name": "tz",
          "type": "uint8"
        }
      ],
      "name": "getLastActionsSubmissionTime",
      "outputs": [
        {
          "internalType": "uint256",
          "name": "",
          "type": "uint256"
        }
      ],
      "stateMutability": "view",
      "type": "function"
    },
    {
      "inputs": [],
      "name": "getNextVerseTimestamp",
      "outputs": [
        {
          "internalType": "uint256",
          "name": "",
          "type": "uint256"
        }
      ],
      "stateMutability": "view",
      "type": "function"
    },
    {
      "inputs": [],
      "name": "getTimeZoneForRound1",
      "outputs": [
        {
          "internalType": "uint8",
          "name": "",
          "type": "uint8"
        }
      ],
      "stateMutability": "view",
      "type": "function"
    },
    {
      "inputs": [],
      "name": "getCurrentVerse",
      "outputs": [
        {
          "internalType": "uint256",
          "name": "",
          "type": "uint256"
        }
      ],
      "stateMutability": "view",
      "type": "function"
    },
    {
      "inputs": [],
      "name": "getCurrentVerseSeed",
      "outputs": [
        {
          "internalType": "bytes32",
          "name": "",
          "type": "bytes32"
        }
      ],
      "stateMutability": "view",
      "type": "function"
    },
    {
      "inputs": [
        {
          "internalType": "uint8",
          "name": "tz",
          "type": "uint8"
        },
        {
          "internalType": "uint8",
          "name": "level",
          "type": "uint8"
        },
        {
          "internalType": "bool",
          "name": "current",
          "type": "bool"
        }
      ],
      "name": "getRoot",
      "outputs": [
        {
          "internalType": "bytes32",
          "name": "",
          "type": "bytes32"
        }
      ],
      "stateMutability": "view",
      "type": "function"
    },
    {
      "inputs": [],
      "name": "getChallengeTime",
      "outputs": [
        {
          "internalType": "uint256",
          "name": "",
          "type": "uint256"
        }
      ],
      "stateMutability": "view",
      "type": "function"
    },
    {
      "inputs": [
        {
          "internalType": "uint8",
          "name": "tz",
          "type": "uint8"
        },
        {
          "internalType": "bool",
          "name": "current",
          "type": "bool"
        }
      ],
      "name": "getChallengeData",
      "outputs": [
        {
          "internalType": "uint8",
          "name": "",
          "type": "uint8"
        },
        {
          "internalType": "uint8",
          "name": "",
          "type": "uint8"
        },
        {
          "internalType": "uint8",
          "name": "",
          "type": "uint8"
        }
      ],
      "stateMutability": "view",
      "type": "function"
    },
    {
      "inputs": [
        {
          "internalType": "uint8",
          "name": "tz",
          "type": "uint8"
        },
        {
          "internalType": "bool",
          "name": "current",
          "type": "bool"
        }
      ],
      "name": "getStatus",
      "outputs": [
        {
          "internalType": "uint8",
          "name": "",
          "type": "uint8"
        },
        {
          "internalType": "uint8",
          "name": "",
          "type": "uint8"
        },
        {
          "internalType": "bool",
          "name": "",
          "type": "bool"
        }
      ],
      "stateMutability": "view",
      "type": "function"
    },
    {
      "inputs": [
        {
          "internalType": "uint256",
          "name": "verse",
          "type": "uint256"
        }
      ],
      "name": "isTimeToUpdate",
      "outputs": [
        {
          "internalType": "bool",
          "name": "",
          "type": "bool"
        }
      ],
      "stateMutability": "view",
      "type": "function"
    },
    {
      "inputs": [
        {
          "internalType": "uint256",
          "name": "nowTime",
          "type": "uint256"
        },
        {
          "internalType": "uint256",
          "name": "lastUpdate",
          "type": "uint256"
        },
        {
          "internalType": "uint256",
          "name": "challengeTime",
          "type": "uint256"
        },
        {
          "internalType": "uint8",
          "name": "writtenLevel",
          "type": "uint8"
        }
      ],
      "name": "getStatusPure",
      "outputs": [
        {
          "internalType": "uint8",
          "name": "finalLevel",
          "type": "uint8"
        },
        {
          "internalType": "uint8",
          "name": "nJumps",
          "type": "uint8"
        },
        {
          "internalType": "bool",
          "name": "isSettled",
          "type": "bool"
        }
      ],
      "stateMutability": "pure",
      "type": "function"
    },
    {
      "inputs": [
        {
          "internalType": "uint8",
          "name": "tz",
          "type": "uint8"
        },
        {
          "internalType": "uint256",
          "name": "round",
          "type": "uint256"
        },
        {
          "internalType": "uint256",
          "name": "matchDay",
          "type": "uint256"
        }
      ],
      "name": "getMatchUTC",
      "outputs": [
        {
          "internalType": "uint256",
          "name": "timeUTC",
          "type": "uint256"
        }
      ],
      "stateMutability": "view",
      "type": "function"
    },
    {
      "inputs": [
        {
          "internalType": "uint8",
          "name": "tz",
          "type": "uint8"
        },
        {
          "internalType": "uint256",
          "name": "matchDay",
          "type": "uint256"
        }
      ],
      "name": "getMatchUTCInCurrentRound",
      "outputs": [
        {
          "internalType": "uint256",
          "name": "timeUTC",
          "type": "uint256"
        }
      ],
      "stateMutability": "view",
      "type": "function"
    },
    {
      "inputs": [
        {
          "internalType": "uint8",
          "name": "tz",
          "type": "uint8"
        },
        {
          "internalType": "uint256",
          "name": "round",
          "type": "uint256"
        }
      ],
      "name": "getAllMatchdaysUTCInRound",
      "outputs": [
        {
          "internalType": "uint256[14]",
          "name": "timesUTC",
          "type": "uint256[14]"
        }
      ],
      "stateMutability": "view",
      "type": "function"
    },
    {
      "inputs": [
        {
          "internalType": "uint8",
          "name": "tz",
          "type": "uint8"
        }
      ],
      "name": "getAllMatchdaysUTCInCurrentRound",
      "outputs": [
        {
          "internalType": "uint256[14]",
          "name": "timesUTC",
          "type": "uint256[14]"
        }
      ],
      "stateMutability": "view",
      "type": "function"
    }
  ],
  "bytecode": "0x608060405234801561001057600080fd5b5061178a806100206000396000f3fe608060405234801561001057600080fd5b50600436106103af5760003560e01c80638cc9a8d5116101f4578063d1b3d8fd1161011a578063e804e519116100ad578063f9d0723d1161007c578063f9d0723d14610aff578063fa80039b14610b25578063fcf9b3be14610b45578063fd6ff4e414610b71576103af565b8063e804e51914610a76578063f2c3576414610a93578063f2dc657f14610ab0578063f4b34e4414610acd576103af565b8063d8f73c3c116100e9578063d8f73c3c14610a2c578063dcadab5c14610a34578063e1b27e6b14610a51578063e37528bb14610a59576103af565b8063d1b3d8fd146109aa578063d2f7967d146109c7578063d403fabd146109e4578063d7d1b6cf14610a04576103af565b8063c04f6d5311610192578063ce506ec511610161578063ce506ec514610907578063cebc43a61461092d578063cf01467714610935578063d02254a51461098d576103af565b8063c04f6d531461089f578063c2bc41cd146108c5578063c395d7a8146108e2578063cc7d473b146108ea576103af565b8063a21ef9fa116101ce578063a21ef9fa146107f1578063b01a2aa81461080e578063b59589d114610867578063bbb117801461086f576103af565b80638cc9a8d5146107c45780638e819245146107e15780638f963e2d146107e9576103af565b806347524b60116102d957806376c2d9601161027757806380bac7091161024657806380bac7091461076857806380c794ce1461079457806380f55605146107b45780638a89148c146107bc576103af565b806376c2d960146106d657806379e76597146107025780637c38fbdd1461071f5780637ffa3a2e1461074b576103af565b80635adb40f5116102b35780635adb40f5146106475780636a6cb69f1461066d5780636f6c2ae01461069357806370ab93b4146106b0576103af565b806347524b60146105c557806356e3df97146105e2578063595ef25b146105ff576103af565b80632d0e08fd116103515780633518dd1d116103205780633518dd1d1461055d57806338fa26fa1461057a578063434807ad14610582578063471d6e801461059f576103af565b80632d0e08fd146104c55780633260840b146104e557806332e573ba14610524578063332b8ea314610555576103af565b806320748ae81161038d57806320748ae81461044d57806321eab31614610479578063221091511461048157806329d0dcfb1461049f576103af565b80631060c9c2146103b4578063114536ea146103e35780631fc7768f14610430575b600080fd5b6103d1600480360360208110156103ca57600080fd5b5035610b97565b60408051918252519081900360200190f35b61040b600480360360408110156103f957600080fd5b5060ff81351690602001351515610ba7565b6040805160ff9485168152928416602084015292168183015290519081900360600190f35b6103d16004803603602081101561044657600080fd5b5035610c6f565b6103d16004803603606081101561046357600080fd5b5060ff8135169060208101359060400135610c78565b6103d1610d96565b610489610d9d565b6040805160ff9092168252519081900360200190f35b6103d1600480360360408110156104b557600080fd5b508035906020013560ff16610da7565b6103d1600480360360208110156104db57600080fd5b503560ff16610dbd565b610502600480360360208110156104fb57600080fd5b5035610e24565b6040805160ff9094168452602084019290925282820152519081900360600190f35b6105416004803603602081101561053a57600080fd5b5035610e40565b604080519115158252519081900360200190f35b6103d1610ead565b6103d16004803603602081101561057357600080fd5b5035610eb4565b6103d1610ebd565b6103d16004803603602081101561059857600080fd5b5035610ec4565b61040b600480360360408110156105b557600080fd5b508035906020013560ff16610ecd565b610541600480360360208110156105db57600080fd5b5035610f97565b6103d1600480360360208110156105f857600080fd5b5035610fa3565b61062b6004803603606081101561061557600080fd5b5060ff8135169060208101359060400135610fac565b604080516001600160a01b039092168252519081900360200190f35b6103d16004803603604081101561065d57600080fd5b5060ff8135169060200135611009565b6103d16004803603604081101561068357600080fd5b5060ff813516906020013561105c565b6103d1600480360360208110156106a957600080fd5b503561106f565b6103d1600480360360408110156106c657600080fd5b5060ff8135169060200135611090565b610541600480360360608110156106ec57600080fd5b5060ff81351690602081013590604001356110a5565b6104896004803603602081101561071857600080fd5b50356110bb565b6103d16004803603606081101561073557600080fd5b5060ff81351690602081013590604001356110c4565b6105416004803603602081101561076157600080fd5b50356111a8565b6105416004803603606081101561077e57600080fd5b5060ff81351690602081013590604001356111b4565b6103d1600480360360208110156107aa57600080fd5b503560ff166111d4565b61062b6111ee565b61040b6111fe565b610541600480360360208110156107da57600080fd5b5035611225565b6103d1611256565b6103d161125d565b6105416004803603602081101561080757600080fd5b5035611264565b61082e6004803603602081101561082457600080fd5b503560ff1661128d565b60405180826101c080838360005b8381101561085457818101518382015260200161083c565b5050505090500191505060405180910390f35b61062b6112dc565b6103d16004803603606081101561088557600080fd5b5060ff8135811691602081013590911690604001356112ec565b6103d1600480360360408110156108b557600080fd5b5060ff813516906020013561134e565b6103d1600480360360208110156108db57600080fd5b5035611364565b61040b61136d565b6105416004803603602081101561090057600080fd5b50356113a5565b6105416004803603604081101561091d57600080fd5b5060ff81351690602001356113b1565b61062b6113cb565b6109676004803603608081101561094b57600080fd5b508035906020810135906040810135906060013560ff166113db565b6040805160ff948516815292909316602083015215158183015290519081900360600190f35b610541600480360360208110156109a357600080fd5b503561145b565b610541600480360360208110156109c057600080fd5b503561147b565b6103d1600480360360208110156109dd57600080fd5b5035611487565b610541600480360360208110156109fa57600080fd5b503560ff16611495565b61096760048036036040811015610a1a57600080fd5b5060ff813516906020013515156114b0565b61062b611562565b61048960048036036020811015610a4a57600080fd5b5035611572565b61062b611585565b61054160048036036020811015610a6f57600080fd5b5035611595565b61048960048036036020811015610a8c57600080fd5b50356115a1565b61054160048036036020811015610aa957600080fd5b50356115aa565b6103d160048036036020811015610ac657600080fd5b50356115b6565b6103d160048036036060811015610ae357600080fd5b5060ff81358116916020810135909116906040013515156115c0565b6103d160048036036040811015610b1557600080fd5b5060ff813516906020013561165f565b6103d160048036036020811015610b3b57600080fd5b503560ff1661166d565b61054160048036036060811015610b5b57600080fd5b5060ff81351690602081013590604001356116d4565b61082e60048036036040811015610b8757600080fd5b5060ff81351690602001356116ed565b6207ffff60b582901c165b919050565b60008060008084610bd05760ff808716600090815261102c602052604090205416600103610be7565b60ff808716600090815261102c6020526040902054165b90508061102a60008860ff1681526020019081526020016000208260ff1660028110610c0f57fe5b602091828204019190069054906101000a900460ff1661102860008960ff1681526020019081526020016000208360ff1660028110610c4a57fe5b602091828204019190069054906101000a900460ff16935093509350505b9250925092565b607e1c60071690565b600060208460ff1610610cca576040805162461bcd60e51b81526020600482015260156024820152741d1a5b595e9bdb99481bdd5d081bd988189bdd5b99605a1b604482015290519081900360640190fd5b6104008310610d20576040805162461bcd60e51b815260206004820152601b60248201527f636f756e747279496478496e545a206f7574206f6620626f756e640000000000604482015290519081900360640190fd5b63100000008210610d78576040805162461bcd60e51b815260206004820152601a60248201527f76616c20746f20656e636f6465206f7574206f6620626f756e64000000000000604482015290519081900360640190fd5b50601c82901b653fc000000000602685901b161781175b9392505050565b6110205490565b61101e5460ff1690565b620fffff601460ff83160283901c165b92915050565b6000610dc882611495565b610e0d576040805162461bcd60e51b81526020600482015260116024820152701d1e88191bd95cc81b9bdd08195e1a5cdd607a1b604482015290519081900360640190fd5b5060ff16600090815261102e602052604090205490565b602681901c601f1691601c82901c6103ff1691630fffffff1690565b600061101f548214610e5457506000610ba2565b6000610e5e61136d565b509091505060ff8116610e75576000915050610ba2565b610e7e8161166d565b610e8782610dbd565b10610e96576000915050610ba2565b6000610ea38260016114b0565b9695505050505050565b6110095481565b607b1c60071690565b61101d5490565b60741c600f1690565b60008080600385166024828060028410801590610ee957508289105b15610f02575060009550859450849350610c6892505050565b6002841015610f3f5760046060858b0306048860ff16019150606060ff16848960ff1684036004028b030360020281610f3757fe5b049050610f78565b60046060848b0306048860ff16019150606060ff16838960ff1684036004028b030360020281610f6b57fe5b0460010190506002840393505b839450610f8482611572565b9650600e81069550505050509250925092565b60cc1c60019081161490565b60cd1c60ff1690565b6000610fb784611495565b1580610fca5750610fc884846113b1565b155b15610fd757506000610d8f565b6110166000610fe7868686610c78565b81526020810191909152604001600020546001600160a01b0316949350505050565b600061101483611495565b1580611027575061102583836113b1565b155b1561103457506000610db7565b611012600061104585856000610c78565b815260200190815260200160002054905092915050565b6000611013600061104585856000610c78565b600061107a82610f97565b61108c5761108782611487565b610db7565b5090565b6000610d8f8361109f856111d4565b846110c4565b60006110b1848461134e565b9091109392505050565b60b11c60071690565b6000808460ff161180156110db575060198460ff16105b611124576040805162461bcd60e51b815260206004820152601560248201527474696d657a6f6e65206f7574206f662072616e676560581b604482015290519081900360640190fd5b61101e5460009060ff908116908616101561114a5761101e5460ff168503601801611154565b61101e5460ff1685035b60ff16905060028306611180578360076018020283600c02820101610e10026110215401915050610d8f565b8360076030020260018403601802826002026013010101610708026110215401915050610d8f565b60d61c60019081161490565b6000806111c2858585610fac565b6001600160a01b031614949350505050565b61101e5461101f54600091610db791849160ff16906112ec565b611005546001600160a01b031690565b61101f5461101e54600091829182916112199160ff16610ecd565b9250925092505b909192565b6000600182141561123857506000610ba2565b50600090815261101660205260409020546001600160a01b03161590565b61101f5490565b6110235490565b60008060008061127385610e24565b9250925092506112848383836110a5565b95945050505050565b611295611735565b60005b600e8160ff1610156112d6576112ba836112b1856111d4565b8360ff166110c4565b828260ff16600e81106112c957fe5b6020020152600101611298565b50919050565b611007546001600160a01b031690565b60006102a082101561130057506000610d8f565b6102a08204600060ff808616908716101561132057848660180103611324565b8486035b60ff169050600481026102a08302018410156113465750600019019050610d8f565b509050610d8f565b6000600861135c848461165f565b029392505050565b60781c60071690565b600080600061101f546000141561138c57506000915081905080611220565b61101f5461101e5461121991600019019060ff16610ecd565b60ad1c60019081161490565b60ff91909116600090815261101760205260409020541190565b611008546001600160a01b031690565b60008080846113f4575082915060009050848611611451565b6000868811611404576000611411565b858789038161140f57fe5b045b9050806002028560ff16101561142a5760018516611434565b806002028560ff16035b9350600260ff85870316049250505060ff60018201168402850186115b9450945094915050565b60008060008061146a85610e24565b9250925092506112848383836116d4565b60d51c60019081161490565b60811c6507ffffffffff1690565b600060ff821615801590610db7575050601960ff9091161090565b600080600080846114d95760ff808716600090815261102c6020526040902054166001036114f0565b60ff808716600090815261102c6020526040902054165b60ff808816600090815261102a60205260408120929350919083166002811061151557fe5b602091828204019190069054906101000a900460ff1690506115534261102e60008a60ff1681526020019081526020016000205461102354846113db565b94509450945050509250925092565b61102f546001600160a01b031681565b6000601860178301066001019050919050565b611006546001600160a01b031690565b60b41c60019081161490565b60ae1c60071690565b60ac1c60019081161490565b60641c61ffff1690565b6000816116145760ff80851660009081526110296020908152604080832061102c90925290912054909190811660010316600281106115fb57fe5b600602018360ff166006811061160d57fe5b0154611657565b60ff80851660009081526110296020908152604080832061102c909252909120549091166002811061164257fe5b600602018360ff166006811061165457fe5b01545b949350505050565b6000601061135c8484611009565b600061167882611495565b6116bd576040805162461bcd60e51b81526020600482015260116024820152701d1e88191bd95cc81b9bdd08195e1a5cdd607a1b604482015290519081900360640190fd5b5060ff16600090815261102d602052604090205490565b600060126116e2858561134e565b029091109392505050565b6116f5611735565b60005b600e8160ff16101561172e5761171284848360ff166110c4565b828260ff16600e811061172157fe5b60200201526001016116f8565b5092915050565b604051806101c00160405280600e90602082028036833750919291505056fea264697066735822122005fa7c74af80655f75da97c491a18d3311394d3782911ac1cbccc90a28c1f82e64736f6c63430006030033",
  "source": "pragma solidity >= 0.6.3;\n\nimport \"./UniverseInfo.sol\";\n\n/**\n @title View/Pure functions inherited by both Updates and Challenges contracts\n @author Freeverse.io, www.freeverse.io\n*/\n\n/// Warning: This contract must ALWAYS inherit UniverseInfo first, so that it ends up inheriting Storage first.\ncontract UpdatesView is UniverseInfo {\n\n    function getLastUpdateTime(uint8 tz) public view returns(uint256) {\n        require(tzExists(tz), \"tz does not exist\");\n        return _lastUpdateTime[tz];\n    }\n    \n    function getLastActionsSubmissionTime(uint8 tz) public view returns(uint256) {\n        require(tzExists(tz), \"tz does not exist\");\n        return _lastActionsSubmissionTime[tz];\n    }\n        \n    function getNextVerseTimestamp() public view returns (uint256) { return _nextVerseTimestamp; }\n    function getTimeZoneForRound1() public view returns (uint8) { return _timeZoneForRound1; }\n    function getCurrentVerse() public view returns (uint256) { return _currentVerse; }\n    function getCurrentVerseSeed() public view returns (bytes32) { return _currentVerseSeed; }\n\n    function getRoot(uint8 tz, uint8 level, bool current) public view returns(bytes32) { \n        return (current) ? _roots[tz][_newestRootsIdx[tz]][level] : _roots[tz][1-_newestRootsIdx[tz]][level];\n    }\n\n    function getChallengeTime() public view returns (uint256) { return _challengeTime; }\n\n    function getChallengeData(uint8 tz, bool current) public view returns(uint8, uint8, uint8) { \n        uint8 idx = current ? _newestRootsIdx[tz] : 1 - _newestRootsIdx[tz];\n        return (idx, _challengeLevel[tz][idx], _levelVerifiableByBC[tz][idx]);\n    }\n\n    function getStatus(uint8 tz, bool current) public view returns(uint8, uint8, bool) { \n        uint8 idx = current ? _newestRootsIdx[tz] : 1 - _newestRootsIdx[tz];\n        uint8 writtenLevel = _challengeLevel[tz][idx];\n        return getStatusPure(now, _lastUpdateTime[tz], _challengeTime, writtenLevel);\n    }\n    \n    function isTimeToUpdate(uint256 verse) public view returns(bool) {\n        if (verse != _currentVerse) return false;\n        (uint8 tz,,) = prevTimeZoneToUpdate();\n        if (tz == NULL_TIMEZONE) return false;\n        if (getLastUpdateTime(tz) >= getLastActionsSubmissionTime(tz)) return false;\n        (,, bool isSettled) = getStatus(tz, true);\n        return isSettled;\n    }\n    \n    function getStatusPure(uint256 nowTime, uint256 lastUpdate, uint256 challengeTime, uint8 writtenLevel) public pure returns(uint8 finalLevel, uint8 nJumps, bool isSettled) {\n        if (challengeTime == 0) return (writtenLevel, 0, nowTime > lastUpdate);\n        uint256 numChallPeriods = (nowTime > lastUpdate) ? (nowTime - lastUpdate)/challengeTime : 0;\n        finalLevel = (writtenLevel >= 2 * numChallPeriods) ? uint8(writtenLevel - 2 * numChallPeriods) : (writtenLevel % 2);\n        nJumps = (writtenLevel - finalLevel) / 2;\n        isSettled = nowTime > lastUpdate + (nJumps + 1) * challengeTime;\n    }\n    \n    /// tz(n0)   : 11.30 = 0\n    ///          : 21.00 = 11.30 + 9.30h\n    /// tz(n)    : 11.30 + (n-n0)*1h\n    ///          : 21.00 + (n-n0)*1h\n    ///          : 11.30 + (n-n0)*1h + 24h * day (day = mDay/2)\n    ///              = 11.30 + ( deltaN + 12 * mDay ) * 1h\n    ///          : 21.00 + (n-n0) + 24h * day (day = (mDay-1)/2)\n    ///              = 11.30 + (9.5 + deltaN + 12 * (mDay-1) ) * 1h\n    /// add round * T_round = round * 7 * 24 * 3600 = round * DAYS_PER_ROUND * 24 * 1h\n    /// \n    /// if even: 11.30 + ( deltaN + 12 * mDay + 24 * round * DAYS_PER_ROUND ) * 1h\n    /// if odd:  11.30 + (9.5 + deltaN + 12 * (mDay-1) + 24 * round * DAYS_PER_ROUND ) * 1h\n    ///        = 11.30 + (19 + 2*deltaN + 24 * (mDay-1) + 48 * round * DAYS_PER_ROUND ) * (1h/2)\n    \n    function getMatchUTC(uint8 tz, uint256 round, uint256 matchDay) public view returns(uint256 timeUTC) {\n        require(tz > 0 && tz < 25, \"timezone out of range\");\n        uint256 deltaN = (tz >= _timeZoneForRound1) ? (tz - _timeZoneForRound1) : ((tz + 24) - _timeZoneForRound1);\n        if (matchDay % 2 == 0) {\n            return _firstVerseTimeStamp + (deltaN + 12 * matchDay + 24 * DAYS_PER_ROUND * round) * 3600;\n        } else {\n            return _firstVerseTimeStamp + (19 + 2*deltaN + 24 * (matchDay-1) + 48 * DAYS_PER_ROUND * round) * 1800;\n        }\n    }\n\n    function getMatchUTCInCurrentRound(uint8 tz, uint256 matchDay) public view returns(uint256 timeUTC) {\n        return getMatchUTC(tz, getCurrentRound(tz), matchDay);\n    }\n    \n    function getAllMatchdaysUTCInRound(uint8 tz, uint256 round) public view returns(uint256[MATCHDAYS_PER_ROUND] memory timesUTC) {\n        for (uint8 m = 0; m < MATCHDAYS_PER_ROUND; m++) timesUTC[m] = getMatchUTC(tz, round, m);\n    }\n\n    function getAllMatchdaysUTCInCurrentRound(uint8 tz) public view returns(uint256[MATCHDAYS_PER_ROUND] memory timesUTC) {\n        for (uint8 m = 0; m < MATCHDAYS_PER_ROUND; m++) timesUTC[m] = getMatchUTC(tz, getCurrentRound(tz), m);\n    }\n\n}\n",
  "sourcePath": "/Users/jurgenkudla/proyects/laos/laos-goal-revolution/goalrev-ganache/contracts/storage/UpdatesView.sol",
  "compiler": {
    "name": "solc",
    "version": "0.6.3+commit.8dda9521.Emscripten.clang"
  },
  "schemaVersion": "3.0.23",
  "updatedAt": "2024-10-18T06:09:35.530Z",
  "devdoc": {
    "methods": {
      "encodeTZCountryAndVal(uint8,uint256,uint256)": {
        "details": "PlayerId and TeamId both serialize a total of 43 bits:     timeZone        = 5 bits     countryIdxInTZ  = 10 bits     val             = 28 bits (either  (playerIdxInCountry or teamIdxInCountry)*"
      }
    }
  },
  "userdoc": {
    "methods": {
      "getMatchUTC(uint8,uint256,uint256)": {
        "notice": "tz(n0)   : 11.30 = 0          : 21.00 = 11.30 + 9.30h tz(n)    : 11.30 + (n-n0)*1h          : 21.00 + (n-n0)*1h          : 11.30 + (n-n0)*1h + 24h * day (day = mDay/2)              = 11.30 + ( deltaN + 12 * mDay ) * 1h          : 21.00 + (n-n0) + 24h * day (day = (mDay-1)/2)              = 11.30 + (9.5 + deltaN + 12 * (mDay-1) ) * 1h add round * T_round = round * 7 * 24 * 3600 = round * DAYS_PER_ROUND * 24 * 1h  if even: 11.30 + ( deltaN + 12 * mDay + 24 * round * DAYS_PER_ROUND ) * 1h if odd:  11.30 + (9.5 + deltaN + 12 * (mDay-1) + 24 * round * DAYS_PER_ROUND ) * 1h        = 11.30 + (19 + 2*deltaN + 24 * (mDay-1) + 48 * round * DAYS_PER_ROUND ) * (1h/2)"
      },
      "getOwnerTeamInCountry(uint8,uint256,uint256)": {
        "notice": "returns NULL_ADDR if team is bot"
      },
      "isBotTeamInCountry(uint8,uint256,uint256)": {
        "notice": "Rest of view/pure functions "
      },
      "nextTimeZoneToUpdate()": {
        "notice": "each day has 24 hours, each with 4 verses => 96 verses per day. day = 0,..13 turnInDay = 0, 1, 2, 3 so for each TZ, we go from (day, turn) = (0, 0) ... (13,3) => a total of 14*4 = 56 turns per tz from these, all map easily to timeZones"
      },
      "timeZoneToUpdatePure(uint256,uint8)": {
        "notice": "tz0  : v = 0, V_DAY, 2 * V_DAY... tzN  : v = 4N + V_DAY * day,  day = 0,...6 tzN  : v = 4N + V_DAY * day,  day = 0,...6  => tzN - tz0 = (v - V_DAY*day)  => 4 tzN = 4 tz0 + v % VERSES_PER_DAY last : v = V_DAY + DELTA + V_DAY * 6  Imagine 2 tzs: 0:00 - tz0; 0:30 - NUL; 1:00 - tz1; 1:30 - tz0; 0:00 - tz0; 0:30 - tz1; So the last"
      }
    },
    "notice": "Warning: This contract must ALWAYS inherit UniverseInfo first, so that it ends up inheriting Storage first."
  }
}