{
  "contractName": "Updates",
  "abi": [
    {
      "anonymous": false,
      "inputs": [
        {
          "indexed": false,
          "internalType": "uint256",
          "name": "verse",
          "type": "uint256"
        },
        {
          "indexed": false,
          "internalType": "uint8",
          "name": "timeZone",
          "type": "uint8"
        },
        {
          "indexed": false,
          "internalType": "uint8",
          "name": "day",
          "type": "uint8"
        },
        {
          "indexed": false,
          "internalType": "uint8",
          "name": "turnInDay",
          "type": "uint8"
        },
        {
          "indexed": false,
          "internalType": "bytes32",
          "name": "seed",
          "type": "bytes32"
        },
        {
          "indexed": false,
          "internalType": "uint256",
          "name": "submissionTime",
          "type": "uint256"
        },
        {
          "indexed": false,
          "internalType": "bytes32",
          "name": "root",
          "type": "bytes32"
        },
        {
          "indexed": false,
          "internalType": "string",
          "name": "ipfsCid",
          "type": "string"
        }
      ],
      "name": "ActionsSubmission",
      "type": "event"
    },
    {
      "anonymous": false,
      "inputs": [
        {
          "indexed": false,
          "internalType": "uint8",
          "name": "tz",
          "type": "uint8"
        },
        {
          "indexed": false,
          "internalType": "uint8",
          "name": "newLevel",
          "type": "uint8"
        },
        {
          "indexed": false,
          "internalType": "bytes32",
          "name": "root",
          "type": "bytes32"
        },
        {
          "indexed": false,
          "internalType": "bytes32[]",
          "name": "providedRoots",
          "type": "bytes32[]"
        }
      ],
      "name": "ChallengeAccepted",
      "type": "event"
    },
    {
      "anonymous": false,
      "inputs": [
        {
          "indexed": false,
          "internalType": "uint8",
          "name": "tz",
          "type": "uint8"
        },
        {
          "indexed": false,
          "internalType": "uint8",
          "name": "resolvedLevel",
          "type": "uint8"
        },
        {
          "indexed": false,
          "internalType": "bool",
          "name": "isSuccessful",
          "type": "bool"
        }
      ],
      "name": "ChallengeResolved",
      "type": "event"
    },
    {
      "anonymous": false,
      "inputs": [
        {
          "indexed": false,
          "internalType": "uint256",
          "name": "id",
          "type": "uint256"
        },
        {
          "indexed": false,
          "internalType": "string",
          "name": "content",
          "type": "string"
        }
      ],
      "name": "Inform",
      "type": "event"
    },
    {
      "anonymous": false,
      "inputs": [
        {
          "indexed": false,
          "internalType": "uint256",
          "name": "teamId",
          "type": "uint256"
        },
        {
          "indexed": false,
          "internalType": "address",
          "name": "to",
          "type": "address"
        }
      ],
      "name": "TeamTransfer",
      "type": "event"
    },
    {
      "anonymous": false,
      "inputs": [
        {
          "indexed": false,
          "internalType": "uint256",
          "name": "verse",
          "type": "uint256"
        },
        {
          "indexed": false,
          "internalType": "uint8",
          "name": "timeZone",
          "type": "uint8"
        },
        {
          "indexed": false,
          "internalType": "bytes32",
          "name": "root",
          "type": "bytes32"
        },
        {
          "indexed": false,
          "internalType": "uint256",
          "name": "submissionTime",
          "type": "uint256"
        }
      ],
      "name": "TimeZoneUpdate",
      "type": "event"
    },
    {
      "inputs": [],
      "name": "COO",
      "outputs": [
        {
          "internalType": "address",
          "name": "",
          "type": "address"
        }
      ],
      "stateMutability": "view",
      "type": "function",
      "constant": true
    },
    {
      "inputs": [],
      "name": "_stakers",
      "outputs": [
        {
          "internalType": "contract Stakers",
          "name": "",
          "type": "address"
        }
      ],
      "stateMutability": "view",
      "type": "function",
      "constant": true
    },
    {
      "inputs": [
        {
          "internalType": "uint256",
          "name": "leafPos",
          "type": "uint256"
        },
        {
          "internalType": "bytes32[]",
          "name": "leafs",
          "type": "bytes32[]"
        },
        {
          "internalType": "uint256",
          "name": "nLevels",
          "type": "uint256"
        }
      ],
      "name": "buildProof",
      "outputs": [
        {
          "internalType": "bytes32[]",
          "name": "proof",
          "type": "bytes32[]"
        }
      ],
      "stateMutability": "pure",
      "type": "function",
      "constant": true
    },
    {
      "inputs": [
        {
          "internalType": "uint8",
          "name": "timeZone",
          "type": "uint8"
        },
        {
          "internalType": "uint256",
          "name": "countryIdxInTZ",
          "type": "uint256"
        }
      ],
      "name": "countryInTZExists",
      "outputs": [
        {
          "internalType": "bool",
          "name": "",
          "type": "bool"
        }
      ],
      "stateMutability": "view",
      "type": "function",
      "constant": true
    },
    {
      "inputs": [],
      "name": "cryptoMktAddr",
      "outputs": [
        {
          "internalType": "address",
          "name": "",
          "type": "address"
        }
      ],
      "stateMutability": "view",
      "type": "function",
      "constant": true
    },
    {
      "inputs": [
        {
          "internalType": "uint256",
          "name": "encoded",
          "type": "uint256"
        }
      ],
      "name": "decodeTZCountryAndVal",
      "outputs": [
        {
          "internalType": "uint8",
          "name": "",
          "type": "uint8"
        },
        {
          "internalType": "uint256",
          "name": "",
          "type": "uint256"
        },
        {
          "internalType": "uint256",
          "name": "",
          "type": "uint256"
        }
      ],
      "stateMutability": "pure",
      "type": "function",
      "constant": true
    },
    {
      "inputs": [
        {
          "internalType": "uint8",
          "name": "timeZone",
          "type": "uint8"
        },
        {
          "internalType": "uint256",
          "name": "countryIdxInTZ",
          "type": "uint256"
        },
        {
          "internalType": "uint256",
          "name": "val",
          "type": "uint256"
        }
      ],
      "name": "encodeTZCountryAndVal",
      "outputs": [
        {
          "internalType": "uint256",
          "name": "",
          "type": "uint256"
        }
      ],
      "stateMutability": "pure",
      "type": "function",
      "constant": true
    },
    {
      "inputs": [],
      "name": "gameDeployDay",
      "outputs": [
        {
          "internalType": "uint256",
          "name": "",
          "type": "uint256"
        }
      ],
      "stateMutability": "view",
      "type": "function",
      "constant": true
    },
    {
      "inputs": [
        {
          "internalType": "uint256",
          "name": "encodedSkills",
          "type": "uint256"
        }
      ],
      "name": "getAggressiveness",
      "outputs": [
        {
          "internalType": "uint256",
          "name": "",
          "type": "uint256"
        }
      ],
      "stateMutability": "pure",
      "type": "function",
      "constant": true
    },
    {
      "inputs": [
        {
          "internalType": "uint256",
          "name": "encodedSkills",
          "type": "uint256"
        }
      ],
      "name": "getAlignedEndOfFirstHalf",
      "outputs": [
        {
          "internalType": "bool",
          "name": "",
          "type": "bool"
        }
      ],
      "stateMutability": "pure",
      "type": "function",
      "constant": true
    },
    {
      "inputs": [
        {
          "internalType": "uint8",
          "name": "tz",
          "type": "uint8"
        }
      ],
      "name": "getAllMatchdaysUTCInCurrentRound",
      "outputs": [
        {
          "internalType": "uint256[14]",
          "name": "timesUTC",
          "type": "uint256[14]"
        }
      ],
      "stateMutability": "view",
      "type": "function",
      "constant": true
    },
    {
      "inputs": [
        {
          "internalType": "uint8",
          "name": "tz",
          "type": "uint8"
        },
        {
          "internalType": "uint256",
          "name": "round",
          "type": "uint256"
        }
      ],
      "name": "getAllMatchdaysUTCInRound",
      "outputs": [
        {
          "internalType": "uint256[14]",
          "name": "timesUTC",
          "type": "uint256[14]"
        }
      ],
      "stateMutability": "view",
      "type": "function",
      "constant": true
    },
    {
      "inputs": [
        {
          "internalType": "uint256",
          "name": "encodedSkills",
          "type": "uint256"
        }
      ],
      "name": "getBirthDay",
      "outputs": [
        {
          "internalType": "uint256",
          "name": "",
          "type": "uint256"
        }
      ],
      "stateMutability": "pure",
      "type": "function",
      "constant": true
    },
    {
      "inputs": [
        {
          "internalType": "uint8",
          "name": "tz",
          "type": "uint8"
        },
        {
          "internalType": "bool",
          "name": "current",
          "type": "bool"
        }
      ],
      "name": "getChallengeData",
      "outputs": [
        {
          "internalType": "uint8",
          "name": "",
          "type": "uint8"
        },
        {
          "internalType": "uint8",
          "name": "",
          "type": "uint8"
        },
        {
          "internalType": "uint8",
          "name": "",
          "type": "uint8"
        }
      ],
      "stateMutability": "view",
      "type": "function",
      "constant": true
    },
    {
      "inputs": [],
      "name": "getChallengeTime",
      "outputs": [
        {
          "internalType": "uint256",
          "name": "",
          "type": "uint256"
        }
      ],
      "stateMutability": "view",
      "type": "function",
      "constant": true
    },
    {
      "inputs": [
        {
          "internalType": "uint8",
          "name": "tz",
          "type": "uint8"
        }
      ],
      "name": "getCurrentRound",
      "outputs": [
        {
          "internalType": "uint256",
          "name": "",
          "type": "uint256"
        }
      ],
      "stateMutability": "view",
      "type": "function",
      "constant": true
    },
    {
      "inputs": [
        {
          "internalType": "uint8",
          "name": "tz",
          "type": "uint8"
        },
        {
          "internalType": "uint8",
          "name": "tz1",
          "type": "uint8"
        },
        {
          "internalType": "uint256",
          "name": "verse",
          "type": "uint256"
        }
      ],
      "name": "getCurrentRoundPure",
      "outputs": [
        {
          "internalType": "uint256",
          "name": "",
          "type": "uint256"
        }
      ],
      "stateMutability": "pure",
      "type": "function",
      "constant": true
    },
    {
      "inputs": [],
      "name": "getCurrentVerse",
      "outputs": [
        {
          "internalType": "uint256",
          "name": "",
          "type": "uint256"
        }
      ],
      "stateMutability": "view",
      "type": "function",
      "constant": true
    },
    {
      "inputs": [],
      "name": "getCurrentVerseSeed",
      "outputs": [
        {
          "internalType": "bytes32",
          "name": "",
          "type": "bytes32"
        }
      ],
      "stateMutability": "view",
      "type": "function",
      "constant": true
    },
    {
      "inputs": [
        {
          "internalType": "uint256",
          "name": "encodedSkills",
          "type": "uint256"
        }
      ],
      "name": "getForwardness",
      "outputs": [
        {
          "internalType": "uint256",
          "name": "",
          "type": "uint256"
        }
      ],
      "stateMutability": "pure",
      "type": "function",
      "constant": true
    },
    {
      "inputs": [
        {
          "internalType": "uint256",
          "name": "encodedSkills",
          "type": "uint256"
        }
      ],
      "name": "getGamesNonStopping",
      "outputs": [
        {
          "internalType": "uint8",
          "name": "",
          "type": "uint8"
        }
      ],
      "stateMutability": "pure",
      "type": "function",
      "constant": true
    },
    {
      "inputs": [
        {
          "internalType": "uint256",
          "name": "encodedSkills",
          "type": "uint256"
        }
      ],
      "name": "getGeneration",
      "outputs": [
        {
          "internalType": "uint256",
          "name": "",
          "type": "uint256"
        }
      ],
      "stateMutability": "pure",
      "type": "function",
      "constant": true
    },
    {
      "inputs": [
        {
          "internalType": "uint256",
          "name": "encodedSkills",
          "type": "uint256"
        }
      ],
      "name": "getInjuryWeeksLeft",
      "outputs": [
        {
          "internalType": "uint8",
          "name": "",
          "type": "uint8"
        }
      ],
      "stateMutability": "pure",
      "type": "function",
      "constant": true
    },
    {
      "inputs": [
        {
          "internalType": "uint256",
          "name": "encodedSkills",
          "type": "uint256"
        }
      ],
      "name": "getInternalPlayerId",
      "outputs": [
        {
          "internalType": "uint256",
          "name": "",
          "type": "uint256"
        }
      ],
      "stateMutability": "pure",
      "type": "function",
      "constant": true
    },
    {
      "inputs": [
        {
          "internalType": "uint256",
          "name": "encodedSkills",
          "type": "uint256"
        }
      ],
      "name": "getIsSpecial",
      "outputs": [
        {
          "internalType": "bool",
          "name": "",
          "type": "bool"
        }
      ],
      "stateMutability": "pure",
      "type": "function",
      "constant": true
    },
    {
      "inputs": [
        {
          "internalType": "uint8",
          "name": "tz",
          "type": "uint8"
        }
      ],
      "name": "getLastActionsSubmissionTime",
      "outputs": [
        {
          "internalType": "uint256",
          "name": "",
          "type": "uint256"
        }
      ],
      "stateMutability": "view",
      "type": "function",
      "constant": true
    },
    {
      "inputs": [
        {
          "internalType": "uint8",
          "name": "tz",
          "type": "uint8"
        }
      ],
      "name": "getLastUpdateTime",
      "outputs": [
        {
          "internalType": "uint256",
          "name": "",
          "type": "uint256"
        }
      ],
      "stateMutability": "view",
      "type": "function",
      "constant": true
    },
    {
      "inputs": [
        {
          "internalType": "uint256",
          "name": "encodedSkills",
          "type": "uint256"
        }
      ],
      "name": "getLeftishness",
      "outputs": [
        {
          "internalType": "uint256",
          "name": "",
          "type": "uint256"
        }
      ],
      "stateMutability": "pure",
      "type": "function",
      "constant": true
    },
    {
      "inputs": [
        {
          "internalType": "uint8",
          "name": "tz",
          "type": "uint8"
        },
        {
          "internalType": "uint256",
          "name": "round",
          "type": "uint256"
        },
        {
          "internalType": "uint256",
          "name": "matchDay",
          "type": "uint256"
        }
      ],
      "name": "getMatchUTC",
      "outputs": [
        {
          "internalType": "uint256",
          "name": "timeUTC",
          "type": "uint256"
        }
      ],
      "stateMutability": "view",
      "type": "function",
      "constant": true
    },
    {
      "inputs": [
        {
          "internalType": "uint8",
          "name": "tz",
          "type": "uint8"
        },
        {
          "internalType": "uint256",
          "name": "matchDay",
          "type": "uint256"
        }
      ],
      "name": "getMatchUTCInCurrentRound",
      "outputs": [
        {
          "internalType": "uint256",
          "name": "timeUTC",
          "type": "uint256"
        }
      ],
      "stateMutability": "view",
      "type": "function",
      "constant": true
    },
    {
      "inputs": [
        {
          "internalType": "uint8",
          "name": "timeZone",
          "type": "uint8"
        },
        {
          "internalType": "uint256",
          "name": "countryIdxInTZ",
          "type": "uint256"
        }
      ],
      "name": "getNDivisionsInCountry",
      "outputs": [
        {
          "internalType": "uint256",
          "name": "",
          "type": "uint256"
        }
      ],
      "stateMutability": "view",
      "type": "function",
      "constant": true
    },
    {
      "inputs": [
        {
          "internalType": "uint8",
          "name": "timeZone",
          "type": "uint8"
        },
        {
          "internalType": "uint256",
          "name": "countryIdxInTZ",
          "type": "uint256"
        }
      ],
      "name": "getNHumansInCountry",
      "outputs": [
        {
          "internalType": "uint256",
          "name": "",
          "type": "uint256"
        }
      ],
      "stateMutability": "view",
      "type": "function",
      "constant": true
    },
    {
      "inputs": [
        {
          "internalType": "uint8",
          "name": "timeZone",
          "type": "uint8"
        },
        {
          "internalType": "uint256",
          "name": "countryIdxInTZ",
          "type": "uint256"
        }
      ],
      "name": "getNLeaguesInCountry",
      "outputs": [
        {
          "internalType": "uint256",
          "name": "",
          "type": "uint256"
        }
      ],
      "stateMutability": "view",
      "type": "function",
      "constant": true
    },
    {
      "inputs": [
        {
          "internalType": "uint8",
          "name": "timeZone",
          "type": "uint8"
        },
        {
          "internalType": "uint256",
          "name": "countryIdxInTZ",
          "type": "uint256"
        }
      ],
      "name": "getNTeamsInCountry",
      "outputs": [
        {
          "internalType": "uint256",
          "name": "",
          "type": "uint256"
        }
      ],
      "stateMutability": "view",
      "type": "function",
      "constant": true
    },
    {
      "inputs": [],
      "name": "getNextVerseTimestamp",
      "outputs": [
        {
          "internalType": "uint256",
          "name": "",
          "type": "uint256"
        }
      ],
      "stateMutability": "view",
      "type": "function",
      "constant": true
    },
    {
      "inputs": [
        {
          "internalType": "uint256",
          "name": "encodedSkills",
          "type": "uint256"
        }
      ],
      "name": "getOutOfGameFirstHalf",
      "outputs": [
        {
          "internalType": "bool",
          "name": "",
          "type": "bool"
        }
      ],
      "stateMutability": "pure",
      "type": "function",
      "constant": true
    },
    {
      "inputs": [
        {
          "internalType": "uint8",
          "name": "timeZone",
          "type": "uint8"
        },
        {
          "internalType": "uint256",
          "name": "countryIdxInTZ",
          "type": "uint256"
        },
        {
          "internalType": "uint256",
          "name": "teamIdxInCountry",
          "type": "uint256"
        }
      ],
      "name": "getOwnerTeamInCountry",
      "outputs": [
        {
          "internalType": "address",
          "name": "",
          "type": "address"
        }
      ],
      "stateMutability": "view",
      "type": "function",
      "constant": true
    },
    {
      "inputs": [
        {
          "internalType": "uint256",
          "name": "encodedSkills",
          "type": "uint256"
        }
      ],
      "name": "getPlayerIdFromSkills",
      "outputs": [
        {
          "internalType": "uint256",
          "name": "",
          "type": "uint256"
        }
      ],
      "stateMutability": "pure",
      "type": "function",
      "constant": true
    },
    {
      "inputs": [
        {
          "internalType": "uint256",
          "name": "encodedSkills",
          "type": "uint256"
        }
      ],
      "name": "getPotential",
      "outputs": [
        {
          "internalType": "uint256",
          "name": "",
          "type": "uint256"
        }
      ],
      "stateMutability": "pure",
      "type": "function",
      "constant": true
    },
    {
      "inputs": [
        {
          "internalType": "uint256",
          "name": "encodedSkills",
          "type": "uint256"
        }
      ],
      "name": "getRedCardLastGame",
      "outputs": [
        {
          "internalType": "bool",
          "name": "",
          "type": "bool"
        }
      ],
      "stateMutability": "pure",
      "type": "function",
      "constant": true
    },
    {
      "inputs": [
        {
          "internalType": "uint8",
          "name": "tz",
          "type": "uint8"
        },
        {
          "internalType": "uint8",
          "name": "level",
          "type": "uint8"
        },
        {
          "internalType": "bool",
          "name": "current",
          "type": "bool"
        }
      ],
      "name": "getRoot",
      "outputs": [
        {
          "internalType": "bytes32",
          "name": "",
          "type": "bytes32"
        }
      ],
      "stateMutability": "view",
      "type": "function",
      "constant": true
    },
    {
      "inputs": [
        {
          "internalType": "uint256",
          "name": "encodedSkills",
          "type": "uint256"
        },
        {
          "internalType": "uint8",
          "name": "skillIdx",
          "type": "uint8"
        }
      ],
      "name": "getSkill",
      "outputs": [
        {
          "internalType": "uint256",
          "name": "",
          "type": "uint256"
        }
      ],
      "stateMutability": "pure",
      "type": "function",
      "constant": true
    },
    {
      "inputs": [
        {
          "internalType": "uint8",
          "name": "tz",
          "type": "uint8"
        },
        {
          "internalType": "bool",
          "name": "current",
          "type": "bool"
        }
      ],
      "name": "getStatus",
      "outputs": [
        {
          "internalType": "uint8",
          "name": "",
          "type": "uint8"
        },
        {
          "internalType": "uint8",
          "name": "",
          "type": "uint8"
        },
        {
          "internalType": "bool",
          "name": "",
          "type": "bool"
        }
      ],
      "stateMutability": "view",
      "type": "function",
      "constant": true
    },
    {
      "inputs": [
        {
          "internalType": "uint256",
          "name": "nowTime",
          "type": "uint256"
        },
        {
          "internalType": "uint256",
          "name": "lastUpdate",
          "type": "uint256"
        },
        {
          "internalType": "uint256",
          "name": "challengeTime",
          "type": "uint256"
        },
        {
          "internalType": "uint8",
          "name": "writtenLevel",
          "type": "uint8"
        }
      ],
      "name": "getStatusPure",
      "outputs": [
        {
          "internalType": "uint8",
          "name": "finalLevel",
          "type": "uint8"
        },
        {
          "internalType": "uint8",
          "name": "nJumps",
          "type": "uint8"
        },
        {
          "internalType": "bool",
          "name": "isSettled",
          "type": "bool"
        }
      ],
      "stateMutability": "pure",
      "type": "function",
      "constant": true
    },
    {
      "inputs": [
        {
          "internalType": "uint256",
          "name": "encodedSkills",
          "type": "uint256"
        }
      ],
      "name": "getSubstitutedFirstHalf",
      "outputs": [
        {
          "internalType": "bool",
          "name": "",
          "type": "bool"
        }
      ],
      "stateMutability": "pure",
      "type": "function",
      "constant": true
    },
    {
      "inputs": [
        {
          "internalType": "uint256",
          "name": "encodedSkills",
          "type": "uint256"
        }
      ],
      "name": "getSumOfSkills",
      "outputs": [
        {
          "internalType": "uint256",
          "name": "",
          "type": "uint256"
        }
      ],
      "stateMutability": "pure",
      "type": "function",
      "constant": true
    },
    {
      "inputs": [],
      "name": "getTimeZoneForRound1",
      "outputs": [
        {
          "internalType": "uint8",
          "name": "",
          "type": "uint8"
        }
      ],
      "stateMutability": "view",
      "type": "function",
      "constant": true
    },
    {
      "inputs": [
        {
          "internalType": "uint256",
          "name": "encodedSkills",
          "type": "uint256"
        }
      ],
      "name": "getYellowCardFirstHalf",
      "outputs": [
        {
          "internalType": "bool",
          "name": "",
          "type": "bool"
        }
      ],
      "stateMutability": "pure",
      "type": "function",
      "constant": true
    },
    {
      "inputs": [
        {
          "internalType": "bytes32",
          "name": "left",
          "type": "bytes32"
        },
        {
          "internalType": "bytes32",
          "name": "right",
          "type": "bytes32"
        }
      ],
      "name": "hash_node",
      "outputs": [
        {
          "internalType": "bytes32",
          "name": "hash",
          "type": "bytes32"
        }
      ],
      "stateMutability": "pure",
      "type": "function",
      "constant": true
    },
    {
      "inputs": [
        {
          "internalType": "uint256",
          "name": "teamId",
          "type": "uint256"
        }
      ],
      "name": "isBotTeam",
      "outputs": [
        {
          "internalType": "bool",
          "name": "",
          "type": "bool"
        }
      ],
      "stateMutability": "view",
      "type": "function",
      "constant": true
    },
    {
      "inputs": [
        {
          "internalType": "uint8",
          "name": "timeZone",
          "type": "uint8"
        },
        {
          "internalType": "uint256",
          "name": "countryIdxInTZ",
          "type": "uint256"
        },
        {
          "internalType": "uint256",
          "name": "teamIdxInCountry",
          "type": "uint256"
        }
      ],
      "name": "isBotTeamInCountry",
      "outputs": [
        {
          "internalType": "bool",
          "name": "",
          "type": "bool"
        }
      ],
      "stateMutability": "view",
      "type": "function",
      "constant": true
    },
    {
      "inputs": [
        {
          "internalType": "uint256",
          "name": "verse",
          "type": "uint256"
        }
      ],
      "name": "isTimeToUpdate",
      "outputs": [
        {
          "internalType": "bool",
          "name": "",
          "type": "bool"
        }
      ],
      "stateMutability": "view",
      "type": "function",
      "constant": true
    },
    {
      "inputs": [],
      "name": "market",
      "outputs": [
        {
          "internalType": "address",
          "name": "",
          "type": "address"
        }
      ],
      "stateMutability": "view",
      "type": "function",
      "constant": true
    },
    {
      "inputs": [
        {
          "internalType": "bytes32[]",
          "name": "leafs",
          "type": "bytes32[]"
        },
        {
          "internalType": "uint256",
          "name": "nLevels",
          "type": "uint256"
        }
      ],
      "name": "merkleRoot",
      "outputs": [
        {
          "internalType": "bytes32",
          "name": "",
          "type": "bytes32"
        }
      ],
      "stateMutability": "pure",
      "type": "function",
      "constant": true
    },
    {
      "inputs": [],
      "name": "nextTimeZoneToUpdate",
      "outputs": [
        {
          "internalType": "uint8",
          "name": "tz",
          "type": "uint8"
        },
        {
          "internalType": "uint8",
          "name": "day",
          "type": "uint8"
        },
        {
          "internalType": "uint8",
          "name": "turnInDay",
          "type": "uint8"
        }
      ],
      "stateMutability": "view",
      "type": "function",
      "constant": true
    },
    {
      "inputs": [
        {
          "internalType": "uint256",
          "name": "tz",
          "type": "uint256"
        }
      ],
      "name": "normalizeTZ",
      "outputs": [
        {
          "internalType": "uint8",
          "name": "",
          "type": "uint8"
        }
      ],
      "stateMutability": "pure",
      "type": "function",
      "constant": true
    },
    {
      "inputs": [],
      "name": "prevTimeZoneToUpdate",
      "outputs": [
        {
          "internalType": "uint8",
          "name": "tz",
          "type": "uint8"
        },
        {
          "internalType": "uint8",
          "name": "day",
          "type": "uint8"
        },
        {
          "internalType": "uint8",
          "name": "turnInDay",
          "type": "uint8"
        }
      ],
      "stateMutability": "view",
      "type": "function",
      "constant": true
    },
    {
      "inputs": [],
      "name": "relay",
      "outputs": [
        {
          "internalType": "address",
          "name": "",
          "type": "address"
        }
      ],
      "stateMutability": "view",
      "type": "function",
      "constant": true
    },
    {
      "inputs": [
        {
          "internalType": "uint8",
          "name": "timeZone",
          "type": "uint8"
        },
        {
          "internalType": "uint256",
          "name": "countryIdxInTZ",
          "type": "uint256"
        },
        {
          "internalType": "uint256",
          "name": "teamIdxInCountry",
          "type": "uint256"
        }
      ],
      "name": "teamExistsInCountry",
      "outputs": [
        {
          "internalType": "bool",
          "name": "",
          "type": "bool"
        }
      ],
      "stateMutability": "view",
      "type": "function",
      "constant": true
    },
    {
      "inputs": [
        {
          "internalType": "uint256",
          "name": "verse",
          "type": "uint256"
        },
        {
          "internalType": "uint8",
          "name": "TZForRound1",
          "type": "uint8"
        }
      ],
      "name": "timeZoneToUpdatePure",
      "outputs": [
        {
          "internalType": "uint8",
          "name": "timezone",
          "type": "uint8"
        },
        {
          "internalType": "uint8",
          "name": "day",
          "type": "uint8"
        },
        {
          "internalType": "uint8",
          "name": "turnInDay",
          "type": "uint8"
        }
      ],
      "stateMutability": "pure",
      "type": "function",
      "constant": true
    },
    {
      "inputs": [
        {
          "internalType": "uint8",
          "name": "timeZone",
          "type": "uint8"
        }
      ],
      "name": "tzExists",
      "outputs": [
        {
          "internalType": "bool",
          "name": "",
          "type": "bool"
        }
      ],
      "stateMutability": "pure",
      "type": "function",
      "constant": true
    },
    {
      "inputs": [
        {
          "internalType": "bytes32",
          "name": "root",
          "type": "bytes32"
        },
        {
          "internalType": "bytes32[]",
          "name": "proof",
          "type": "bytes32[]"
        },
        {
          "internalType": "bytes32",
          "name": "leafHash",
          "type": "bytes32"
        },
        {
          "internalType": "uint256",
          "name": "leafPos",
          "type": "uint256"
        }
      ],
      "name": "verify",
      "outputs": [
        {
          "internalType": "bool",
          "name": "",
          "type": "bool"
        }
      ],
      "stateMutability": "pure",
      "type": "function",
      "constant": true
    },
    {
      "inputs": [
        {
          "internalType": "uint8",
          "name": "timeZone",
          "type": "uint8"
        },
        {
          "internalType": "uint256",
          "name": "countryIdxInTZ",
          "type": "uint256"
        },
        {
          "internalType": "uint256",
          "name": "playerIdxInCountry",
          "type": "uint256"
        }
      ],
      "name": "wasPlayerCreatedInCountry",
      "outputs": [
        {
          "internalType": "bool",
          "name": "",
          "type": "bool"
        }
      ],
      "stateMutability": "view",
      "type": "function",
      "constant": true
    },
    {
      "inputs": [
        {
          "internalType": "uint256",
          "name": "playerId",
          "type": "uint256"
        }
      ],
      "name": "wasPlayerCreatedVirtually",
      "outputs": [
        {
          "internalType": "bool",
          "name": "",
          "type": "bool"
        }
      ],
      "stateMutability": "view",
      "type": "function",
      "constant": true
    },
    {
      "inputs": [
        {
          "internalType": "uint256",
          "name": "teamId",
          "type": "uint256"
        }
      ],
      "name": "wasTeamCreatedVirtually",
      "outputs": [
        {
          "internalType": "bool",
          "name": "",
          "type": "bool"
        }
      ],
      "stateMutability": "view",
      "type": "function",
      "constant": true
    },
    {
      "inputs": [
        {
          "internalType": "uint256",
          "name": "id",
          "type": "uint256"
        },
        {
          "internalType": "string",
          "name": "content",
          "type": "string"
        }
      ],
      "name": "inform",
      "outputs": [],
      "stateMutability": "nonpayable",
      "type": "function"
    },
    {
      "inputs": [
        {
          "internalType": "address payable",
          "name": "addr",
          "type": "address"
        }
      ],
      "name": "setStakersAddress",
      "outputs": [],
      "stateMutability": "nonpayable",
      "type": "function"
    },
    {
      "inputs": [
        {
          "internalType": "uint256",
          "name": "newTime",
          "type": "uint256"
        }
      ],
      "name": "setChallengeTime",
      "outputs": [],
      "stateMutability": "nonpayable",
      "type": "function"
    },
    {
      "inputs": [
        {
          "internalType": "uint256",
          "name": "deployTimeInUnixEpochSecs",
          "type": "uint256"
        }
      ],
      "name": "initUpdates",
      "outputs": [],
      "stateMutability": "nonpayable",
      "type": "function"
    },
    {
      "inputs": [
        {
          "internalType": "bytes32",
          "name": "actionsRoot",
          "type": "bytes32"
        },
        {
          "internalType": "bytes32",
          "name": "activeTeamsPerCountryRoot",
          "type": "bytes32"
        },
        {
          "internalType": "bytes32",
          "name": "orgMapRoot",
          "type": "bytes32"
        },
        {
          "internalType": "uint8",
          "name": "levelVerifiableByBC",
          "type": "uint8"
        },
        {
          "internalType": "string",
          "name": "ipfsCid",
          "type": "string"
        }
      ],
      "name": "submitActionsRoot",
      "outputs": [],
      "stateMutability": "nonpayable",
      "type": "function"
    },
    {
      "inputs": [
        {
          "internalType": "uint256",
          "name": "verse",
          "type": "uint256"
        },
        {
          "internalType": "bytes32",
          "name": "root",
          "type": "bytes32"
        }
      ],
      "name": "updateTZ",
      "outputs": [],
      "stateMutability": "nonpayable",
      "type": "function"
    },
    {
      "inputs": [
        {
          "internalType": "bool",
          "name": "areAllowed",
          "type": "bool"
        }
      ],
      "name": "setAllowChallenges",
      "outputs": [],
      "stateMutability": "nonpayable",
      "type": "function"
    },
    {
      "inputs": [
        {
          "internalType": "bytes32",
          "name": "challLeaveVal",
          "type": "bytes32"
        },
        {
          "internalType": "uint256",
          "name": "challLeavePos",
          "type": "uint256"
        },
        {
          "internalType": "bytes32[]",
          "name": "proofChallLeave",
          "type": "bytes32[]"
        },
        {
          "internalType": "bytes32[]",
          "name": "providedRoots",
          "type": "bytes32[]"
        }
      ],
      "name": "challengeTZ",
      "outputs": [],
      "stateMutability": "nonpayable",
      "type": "function"
    },
    {
      "inputs": [
        {
          "internalType": "uint8",
          "name": "newVal",
          "type": "uint8"
        }
      ],
      "name": "setLevelVerifiableByBC",
      "outputs": [],
      "stateMutability": "nonpayable",
      "type": "function"
    },
    {
      "inputs": [
        {
          "internalType": "uint16",
          "name": "levelsInOneChallenge",
          "type": "uint16"
        },
        {
          "internalType": "uint16",
          "name": "leafsInLeague",
          "type": "uint16"
        },
        {
          "internalType": "uint16",
          "name": "levelsInLastChallenge",
          "type": "uint16"
        }
      ],
      "name": "setChallengeLevels",
      "outputs": [],
      "stateMutability": "nonpayable",
      "type": "function"
    }
  ],
  "bytecode": "0x608060405234801561001057600080fd5b506134c8806100206000396000f3fe608060405234801561001057600080fd5b50600436106104495760003560e01c80638e81924511610241578063d2f7967d1161013b578063ead65301116100c3578063f4b34e4411610087578063f4b34e4414611093578063f9d0723d146110c5578063fa80039b146110eb578063fcf9b3be1461110b578063fd6ff4e41461113757610449565b8063ead6530114610f8d578063eb54bb1e14610faa578063f2c3576414611033578063f2dc657f14611050578063f37cac9f1461106d57610449565b8063dcadab5c1161010a578063dcadab5c14610f0b578063de3691eb14610f28578063e1b27e6b14610f4b578063e37528bb14610f53578063e804e51914610f7057610449565b8063d2f7967d14610e9e578063d403fabd14610ebb578063d7d1b6cf14610edb578063d8f73c3c14610f0357610449565b8063bbb11780116101c9578063ce506ec51161018d578063ce506ec514610dde578063cebc43a614610e04578063cf01467714610e0c578063d02254a514610e64578063d1b3d8fd14610e8157610449565b8063bbb1178014610d46578063c04f6d5314610d76578063c2bc41cd14610d9c578063c395d7a814610db9578063cc7d473b14610dc157610449565b8063adc72df711610210578063adc72df714610b0b578063b01a2aa814610c05578063b03e020b14610c5e578063b59589d114610c91578063b6cacec614610c9957610449565b80638e81924514610abe5780638f963e2d14610ac6578063a21ef9fa14610ace578063a542376514610aeb57610449565b806347524b601161035257806370ab93b4116102da57806380bac7091161029e57806380bac70914610a4557806380c794ce14610a7157806380f5560514610a915780638a89148c14610a995780638cc9a8d514610aa157610449565b806370ab93b41461098d57806376c2d960146109b357806379e76597146109df5780637c38fbdd146109fc5780637ffa3a2e14610a2857610449565b80635adb40f5116103215780635adb40f5146108625780635f2d1f8d146108885780636a6cb69f1461092b5780636f6c2ae014610951578063709ed91e1461096e57610449565b806347524b601461076b57806352e0be811461078857806356e3df97146107fd578063595ef25b1461081a57610449565b80632d0e08fd116103d5578063332b8ea3116103a4578063332b8ea3146106fb5780633518dd1d1461070357806338fa26fa14610720578063434807ad14610728578063471d6e801461074557610449565b80632d0e08fd146106485780633033951d146106685780633260840b1461068b57806332e573ba146106ca57610449565b806320748ae81161041c57806320748ae8146105b357806321eab316146105df57806322109151146105e7578063251328251461060557806329d0dcfb1461062257610449565b80631060c9c21461044e578063114536ea1461047d57806312b98ce8146104ca5780631fc7768f14610596575b600080fd5b61046b6004803603602081101561046457600080fd5b503561115d565b60408051918252519081900360200190f35b6104a56004803603604081101561049357600080fd5b5060ff8135169060200135151561116d565b6040805160ff9485168152928416602084015292168183015290519081900360600190f35b610594600480360360808110156104e057600080fd5b813591602081013591810190606081016040820135600160201b81111561050657600080fd5b82018360208201111561051857600080fd5b803590602001918460208302840111600160201b8311171561053957600080fd5b919390929091602081019035600160201b81111561055657600080fd5b82018360208201111561056857600080fd5b803590602001918460208302840111600160201b8311171561058957600080fd5b509092509050611235565b005b61046b600480360360208110156105ac57600080fd5b5035611507565b61046b600480360360608110156105c957600080fd5b5060ff8135169060208101359060400135611510565b61046b61162e565b6105ef611636565b6040805160ff9092168252519081900360200190f35b6105946004803603602081101561061b57600080fd5b5035611640565b61046b6004803603604081101561063857600080fd5b508035906020013560ff166116a0565b61046b6004803603602081101561065e57600080fd5b503560ff166116b6565b61046b6004803603604081101561067e57600080fd5b508035906020013561171d565b6106a8600480360360208110156106a157600080fd5b5035611748565b6040805160ff9094168452602084019290925282820152519081900360600190f35b6106e7600480360360208110156106e057600080fd5b5035611764565b604080519115158252519081900360200190f35b61046b6117d1565b61046b6004803603602081101561071957600080fd5b50356117d8565b61046b6117e1565b61046b6004803603602081101561073e57600080fd5b50356117e8565b6104a56004803603604081101561075b57600080fd5b508035906020013560ff166117f1565b6106e76004803603602081101561078157600080fd5b50356118bb565b6105946004803603604081101561079e57600080fd5b81359190810190604081016020820135600160201b8111156107bf57600080fd5b8201836020820111156107d157600080fd5b803590602001918460018302840111600160201b831117156107f257600080fd5b5090925090506118c7565b61046b6004803603602081101561081357600080fd5b5035611982565b6108466004803603606081101561083057600080fd5b5060ff813516906020810135906040013561198b565b604080516001600160a01b039092168252519081900360200190f35b61046b6004803603604081101561087857600080fd5b5060ff81351690602001356119e8565b61046b6004803603604081101561089e57600080fd5b810190602081018135600160201b8111156108b857600080fd5b8201836020820111156108ca57600080fd5b803590602001918460208302840111600160201b831117156108eb57600080fd5b9190808060200260200160405190810160405280939291908181526020018383602002808284376000920191909152509295505091359250611a3b915050565b61046b6004803603604081101561094157600080fd5b5060ff8135169060200135611b3b565b61046b6004803603602081101561096757600080fd5b5035611b4e565b6105946004803603602081101561098457600080fd5b50351515611b6f565b61046b600480360360408110156109a357600080fd5b5060ff8135169060200135611be2565b6106e7600480360360608110156109c957600080fd5b5060ff8135169060208101359060400135611bf7565b6105ef600480360360208110156109f557600080fd5b5035611c0d565b61046b60048036036060811015610a1257600080fd5b5060ff8135169060208101359060400135611c16565b6106e760048036036020811015610a3e57600080fd5b5035611cfa565b6106e760048036036060811015610a5b57600080fd5b5060ff8135169060208101359060400135611d06565b61046b60048036036020811015610a8757600080fd5b503560ff16611d26565b610846611d40565b6104a5611d50565b6106e760048036036020811015610ab757600080fd5b5035611d77565b61046b611da8565b61046b611daf565b6106e760048036036020811015610ae457600080fd5b5035611db6565b61059460048036036020811015610b0157600080fd5b503560ff16611ddf565b610bb560048036036060811015610b2157600080fd5b81359190810190604081016020820135600160201b811115610b4257600080fd5b820183602082011115610b5457600080fd5b803590602001918460208302840111600160201b83111715610b7557600080fd5b9190808060200260200160405190810160405280939291908181526020018383602002808284376000920191909152509295505091359250611e7a915050565b60408051602080825283518183015283519192839290830191858101910280838360005b83811015610bf1578181015183820152602001610bd9565b505050509050019250505060405180910390f35b610c2560048036036020811015610c1b57600080fd5b503560ff16612024565b60405180826101c080838360005b83811015610c4b578181015183820152602001610c33565b5050505090500191505060405180910390f35b61059460048036036060811015610c7457600080fd5b5061ffff8135811691602081013582169160409091013516612073565b610846612103565b6106e760048036036080811015610caf57600080fd5b81359190810190604081016020820135600160201b811115610cd057600080fd5b820183602082011115610ce257600080fd5b803590602001918460208302840111600160201b83111715610d0357600080fd5b9190808060200260200160405190810160405280939291908181526020018383602002808284376000920191909152509295505082359350505060200135612113565b61046b60048036036060811015610d5c57600080fd5b5060ff81358116916020810135909116906040013561218a565b61046b60048036036040811015610d8c57600080fd5b5060ff81351690602001356121ec565b61046b60048036036020811015610db257600080fd5b5035612202565b6104a561220b565b6106e760048036036020811015610dd757600080fd5b5035612243565b6106e760048036036040811015610df457600080fd5b5060ff813516906020013561224f565b610846612269565b610e3e60048036036080811015610e2257600080fd5b508035906020810135906040810135906060013560ff16612279565b6040805160ff948516815292909316602083015215158183015290519081900360600190f35b6106e760048036036020811015610e7a57600080fd5b50356122f9565b6106e760048036036020811015610e9757600080fd5b5035612319565b61046b60048036036020811015610eb457600080fd5b5035612325565b6106e760048036036020811015610ed157600080fd5b503560ff16612333565b610e3e60048036036040811015610ef157600080fd5b5060ff8135169060200135151561234e565b610846612400565b6105ef60048036036020811015610f2157600080fd5b5035612410565b61059460048036036040811015610f3e57600080fd5b5080359060200135612423565b610846612550565b6106e760048036036020811015610f6957600080fd5b5035612560565b6105ef60048036036020811015610f8657600080fd5b503561256c565b61059460048036036020811015610fa357600080fd5b5035612575565b610594600480360360a0811015610fc057600080fd5b81359160208101359160408201359160ff6060820135169181019060a081016080820135600160201b811115610ff557600080fd5b82018360208201111561100757600080fd5b803590602001918460018302840111600160201b8311171561102857600080fd5b5090925090506126d5565b6106e76004803603602081101561104957600080fd5b5035612a1c565b61046b6004803603602081101561106657600080fd5b5035612a28565b6105946004803603602081101561108357600080fd5b50356001600160a01b0316612a32565b61046b600480360360608110156110a957600080fd5b5060ff8135811691602081013590911690604001351515612ab4565b61046b600480360360408110156110db57600080fd5b5060ff8135169060200135612b53565b61046b6004803603602081101561110157600080fd5b503560ff16612b61565b6106e76004803603606081101561112157600080fd5b5060ff8135169060208101359060400135612bc8565b610c256004803603604081101561114d57600080fd5b5060ff8135169060200135612be1565b6207ffff60b582901c165b919050565b600080600080846111965760ff808716600090815261102c6020526040902054166001036111ad565b60ff808716600090815261102c6020526040902054165b90508061102a60008860ff1681526020019081526020016000208260ff16600281106111d557fe5b602091828204019190069054906101000a900460ff1661102860008960ff1681526020019081526020016000208360ff166002811061121057fe5b602091828204019190069054906101000a900460ff16935093509350505b9250925092565b6110245460ff166112775760405162461bcd60e51b815260040180806020018281038252602481526020018061343e6024913960400191505060405180910390fd5b61127f613265565b611287612c29565b905060006112fb82898989898080602002602001604051908101604052809392919081815260200183836020028082843760009201919091525050604080516020808d0282810182019093528c82529093508c92508b918291850190849080828437600092019190915250612eff92505050565b9050600182600260200201510360ff16826001602002015160ff16106113525760405162461bcd60e51b81526004018080602001828103825260458152602001806132a36045913960600191505060405180910390fd5b602082810151835160ff9081166000908152611029909352604090922060608501516001909201928492166002811061138757fe5b600602018260ff166006811061139957fe5b0155825160ff908116600090815261102a602052604090206060850151839216600281106113c357fe5b602091828204019190066101000a81548160ff021916908360ff1602179055507f0d83ac1eba285c395f2485b19ce56b068be20f1ce15e9c0313bd86a1bd25e1018360006004811061141157fe5b602002015182848888604051808660ff1660ff1681526020018560ff1660ff168152602001848152602001806020018281038252848482818152602001925060200280828437600083820152604051601f909101601f19169092018290039850909650505050505050a1825160ff908116600090815261102e602052604080822042905561102f5481516301865e3160e21b8152938516600485015233602485015290516001600160a01b039091169263061978c492604480830193919282900301818387803b1580156114e457600080fd5b505af11580156114f8573d6000803e3d6000fd5b50505050505050505050505050565b607e1c60071690565b600060208460ff1610611562576040805162461bcd60e51b81526020600482015260156024820152741d1a5b595e9bdb99481bdd5d081bd988189bdd5b99605a1b604482015290519081900360640190fd5b61040083106115b8576040805162461bcd60e51b815260206004820152601b60248201527f636f756e747279496478496e545a206f7574206f6620626f756e640000000000604482015290519081900360640190fd5b63100000008210611610576040805162461bcd60e51b815260206004820152601a60248201527f76616c20746f20656e636f6465206f7574206f6620626f756e64000000000000604482015290519081900360640190fd5b50601c82901b653fc000000000602685901b161781175b9392505050565b611020545b90565b61101e5460ff1690565b611006546001600160a01b0316331461169a576040805162461bcd60e51b815260206004820152601760248201527627b7363c9021a7a79034b99030baba3437b934bd32b21760491b604482015290519081900360640190fd5b61102355565b620fffff601460ff83160283901c165b92915050565b60006116c182612333565b611706576040805162461bcd60e51b81526020600482015260116024820152701d1e88191bd95cc81b9bdd08195e1a5cdd607a1b604482015290519081900360640190fd5b5060ff16600090815261102e602052604090205490565b60008115801561172b575082155b15611738575060006116b0565b5060009182526020526040902090565b602681901c601f1691601c82901c6103ff1691630fffffff1690565b600061101f54821461177857506000611168565b600061178261220b565b509091505060ff8116611799576000915050611168565b6117a281612b61565b6117ab826116b6565b106117ba576000915050611168565b60006117c782600161234e565b9695505050505050565b6110095481565b607b1c60071690565b61101d5490565b60741c600f1690565b6000808060038516602482806002841080159061180d57508289105b1561182657506000955085945084935061122e92505050565b60028410156118635760046060858b0306048860ff16019150606060ff16848960ff1684036004028b03036002028161185b57fe5b04905061189c565b60046060848b0306048860ff16019150606060ff16838960ff1684036004028b03036002028161188f57fe5b0460010190506002840393505b8394506118a882612410565b9650600e81069550505050509250925092565b60cc1c60019081161490565b611007546001600160a01b03163314611915576040805162461bcd60e51b815260206004820152601f60248201526000805160206133d2833981519152604482015290519081900360640190fd5b7f2ab7a084aede78b25a8c3813f448969a7c7fd4f5d429bc9dad1ad3d9790e0d6f83838360405180848152602001806020018281038252848482818152602001925080828437600083820152604051601f909101601f1916909201829003965090945050505050a1505050565b60cd1c60ff1690565b600061199684612333565b15806119a957506119a7848461224f565b155b156119b657506000611627565b61101660006119c6868686611510565b81526020810191909152604001600020546001600160a01b0316949350505050565b60006119f383612333565b1580611a065750611a04838361224f565b155b15611a13575060006116b0565b6110126000611a2485856000611510565b815260200190815260200160002054905092915050565b8151600090600283900a90825b848160ff161015611b1b576002830492506002820615611a6e5760028204600101611a73565b600282045b915082821115611a81578291505b60005b82811015611ae457611ac5878260020281518110611a9e57fe5b6020026020010151888360020260010181518110611ab857fe5b602002602001015161171d565b878281518110611ad157fe5b6020908102919091010152600101611a84565b50815b83811015611b12576000801b878281518110611aff57fe5b6020908102919091010152600101611ae7565b50600101611a48565b5084600081518110611b2957fe5b60200260200101519250505092915050565b60006110136000611a2485856000611510565b6000611b59826118bb565b611b6b57611b6682612325565b6116b0565b5090565b6003546001600160a01b03163314611bce576040805162461bcd60e51b815260206004820152601d60248201527f4f6e6c792073757065727573657220697320617574686f72697a65642e000000604482015290519081900360640190fd5b611024805460ff1916911515919091179055565b600061162783611bf185611d26565b84611c16565b6000611c0384846121ec565b9091109392505050565b60b11c60071690565b6000808460ff16118015611c2d575060198460ff16105b611c76576040805162461bcd60e51b815260206004820152601560248201527474696d657a6f6e65206f7574206f662072616e676560581b604482015290519081900360640190fd5b61101e5460009060ff9081169086161015611c9c5761101e5460ff168503601801611ca6565b61101e5460ff1685035b60ff16905060028306611cd2578360076018020283600c02820101610e10026110215401915050611627565b8360076030020260018403601802826002026013010101610708026110215401915050611627565b60d61c60019081161490565b600080611d1485858561198b565b6001600160a01b031614949350505050565b61101e5461101f546000916116b091849160ff169061218a565b611005546001600160a01b031690565b61101f5461101e5460009182918291611d6b9160ff166117f1565b9250925092505b909192565b60006001821415611d8a57506000611168565b50600090815261101660205260409020546001600160a01b03161590565b61101f5490565b6110235490565b600080600080611dc585611748565b925092509250611dd6838383611bf7565b95945050505050565b611007546001600160a01b03163314611e2d576040805162461bcd60e51b815260206004820152601f60248201526000805160206133d2833981519152604482015290519081900360640190fd5b60015b60198160ff161015611e765760ff818116600090815261102860205260409020805460ff191691841691821761ff00191661010092909202919091179055600101611e30565b5050565b606060008260020a905080845114611ec35760405162461bcd60e51b81526004018080602001828103825260278152602001806133656027913960400191505060405180910390fd5b82604051908082528060200260200182016040528015611eed578160200160208202803683370190505b5091506002850615611f1557836001860381518110611f0857fe5b6020026020010151611f2d565b838560010181518110611f2457fe5b60200260200101515b82600081518110611f3a57fe5b602090810291909101015260005b600184038160ff16101561201b5760028204915060028604955060005b82811015611fb857611f99868260020281518110611f7f57fe5b6020026020010151878360020260010181518110611ab857fe5b868281518110611fa557fe5b6020908102919091010152600101611f65565b506002860615611fde57846001870381518110611fd157fe5b6020026020010151611ff6565b848660010181518110611fed57fe5b60200260200101515b838260010160ff168151811061200857fe5b6020908102919091010152600101611f48565b50509392505050565b61202c613283565b60005b600e8160ff16101561206d576120518361204885611d26565b8360ff16611c16565b828260ff16600e811061206057fe5b602002015260010161202f565b50919050565b611007546001600160a01b031633146120c1576040805162461bcd60e51b815260206004820152601f60248201526000805160206133d2833981519152604482015290519081900360640190fd5b611022805461ffff191661ffff9485161763ffff0000191662010000938516939093029290921765ffff000000001916600160201b9190931602919091179055565b611007546001600160a01b031690565b6000805b84518163ffffffff16101561217f576002830661214b5761214484868363ffffffff1681518110611ab857fe5b9350612171565b61216e858263ffffffff168151811061216057fe5b60200260200101518561171d565b93505b600283049250600101612117565b505050909114919050565b60006102a082101561219e57506000611627565b6102a08204600060ff80861690871610156121be578486601801036121c2565b8486035b60ff169050600481026102a08302018410156121e45750600019019050611627565b509050611627565b600060086121fa8484612b53565b029392505050565b60781c60071690565b600080600061101f546000141561222a57506000915081905080611d72565b61101f5461101e54611d6b91600019019060ff166117f1565b60ad1c60019081161490565b60ff91909116600090815261101760205260409020541190565b611008546001600160a01b031690565b60008080846122925750829150600090508486116122ef565b60008688116122a25760006122af565b85878903816122ad57fe5b045b9050806002028560ff1610156122c857600185166122d2565b806002028560ff16035b9350600260ff85870316049250505060ff60018201168402850186115b9450945094915050565b60008060008061230885611748565b925092509250611dd6838383612bc8565b60d51c60019081161490565b60811c6507ffffffffff1690565b600060ff8216158015906116b0575050601960ff9091161090565b600080600080846123775760ff808716600090815261102c60205260409020541660010361238e565b60ff808716600090815261102c6020526040902054165b60ff808816600090815261102a6020526040812092935091908316600281106123b357fe5b602091828204019190069054906101000a900460ff1690506123f14261102e60008a60ff168152602001908152602001600020546110235484612279565b94509450945050509250925092565b61102f546001600160a01b031681565b6000601860178301066001019050919050565b61242c82611764565b61247d576040805162461bcd60e51b815260206004820152601c60248201527f6974206973206e6f742074696d6520746f207570646174652079657400000000604482015290519081900360640190fd5b600061248761220b565b5050905061249581836131ab565b61101f546040805191825260ff83166020830152818101849052426060830152517facced2da1bd1d00d2d72ae5a5ae57797e79ad3e41df02c4a8f8118eee59246b39181900360800190a161102f54604080516301865e3160e21b815260006004820181905233602483015291516001600160a01b039093169263061978c49260448084019391929182900301818387803b15801561253357600080fd5b505af1158015612547573d6000803e3d6000fd5b50505050505050565b611006546001600160a01b031690565b60b41c60019081161490565b60ae1c60071690565b611006546001600160a01b031633146125cf576040805162461bcd60e51b815260206004820152601760248201527627b7363c9021a7a79034b99030baba3437b934bd32b21760491b604482015290519081900360640190fd5b61101e5460ff1615612628576040805162461bcd60e51b815260206004820152601f60248201527f63616e6e6f7420696e697469616c697a65207570646174657320747769636500604482015290519081900360640190fd5b620151808106610e1080820490603c90820283038181049182029003601b821015612688576126598360ff16612410565b61101e805460ff191660ff92909216919091179055603c818103601d8490039190910286010161101d556126c6565b6126978360010160ff16612410565b61101e805460ff191660ff92909216919091179055603c818103601d84900391909102860101610e100161101d555b505061101d5461102155505050565b611007546001600160a01b03163314612723576040805162461bcd60e51b815260206004820152601f60248201526000805160206133d2833981519152604482015290519081900360640190fd5b61101d54421161277a576040805162461bcd60e51b815260206004820181905260248201527f746f6f206561726c7920746f2061636365707420616374696f6e7320726f6f74604482015290519081900360640190fd5b600061278461220b565b509091505060ff81161561284a57600061279f82600161234e565b92505050806127df5760405162461bcd60e51b815260040180806020018281038252602a815260200180613319602a913960400191505060405180910390fd5b61102f60009054906101000a90046001600160a01b03166001600160a01b0316634bb278f36040518163ffffffff1660e01b8152600401600060405180830381600087803b15801561283057600080fd5b505af1158015612844573d6000803e3d6000fd5b50505050505b600080612855611d50565b9194509250905060ff8316156129355760ff808416600090815261102c60209081526040808320805480861660010395861660ff1990911681179091556110259092529091208b91600281106128a757fe5b015560ff8085166000908152611026602052604090208a918316600281106128cb57fe5b015560ff80851660009081526110276020526040902089918316600281106128ef57fe5b015560ff808516600090815261102860205260409020889183166002811061291357fe5b602091828204019190066101000a81548160ff021916908360ff160217905550505b60ff8316600090815261102d60205260409020429055612953613248565b612960600143034061325f565b7ff1c0cdc02424be857bb13b841a7dc074975759a784948b9388a8c024852b096a61101f548484846001430340428f8c8c604051808a81526020018960ff1660ff1681526020018860ff1660ff1681526020018760ff1660ff168152602001868152602001858152602001848152602001806020018281038252848482818152602001925080828437600083820152604051601f909101601f19169092018290039c50909a5050505050505050505050a1505050505050505050565b60ac1c60019081161490565b60641c61ffff1690565b6003546001600160a01b03163314612a91576040805162461bcd60e51b815260206004820152601d60248201527f4f6e6c792073757065727573657220697320617574686f72697a65642e000000604482015290519081900360640190fd5b61102f80546001600160a01b0319166001600160a01b0392909216919091179055565b600081612b085760ff80851660009081526110296020908152604080832061102c9092529091205490919081166001031660028110612aef57fe5b600602018360ff1660068110612b0157fe5b0154612b4b565b60ff80851660009081526110296020908152604080832061102c9092529091205490911660028110612b3657fe5b600602018360ff1660068110612b4857fe5b01545b949350505050565b600060106121fa84846119e8565b6000612b6c82612333565b612bb1576040805162461bcd60e51b81526020600482015260116024820152701d1e88191bd95cc81b9bdd08195e1a5cdd607a1b604482015290519081900360640190fd5b5060ff16600090815261102d602052604090205490565b60006012612bd685856121ec565b029091109392505050565b612be9613283565b60005b600e8160ff161015612c2257612c0684848360ff16611c16565b828260ff16600e8110612c1557fe5b6020020152600101612bec565b5092915050565b612c31613265565b612c3961220b565b505060ff16808252612c7c5760405162461bcd60e51b81526004018080602001828103825260228152602001806133436022913960400191505060405180910390fd5b8051612c8990600161116d565b60ff90811660408501529081166020840152166060820152805160009081908190612cb590600161234e565b9250925092508015612cf85760405162461bcd60e51b81526004018080602001828103825260318152602001806134626031913960400191505060405180910390fd5b60ff8216612d095750611633915050565b60ff60028302840116846001602002015160ff1614612d595760405162461bcd60e51b815260040180806020018281038252604681526020018061338c6046913960600191505060405180910390fd5b835160ff908116600090815261102c6020526040812054909116905b8360ff168160ff161015612e9857855160ff90811660009081526110296020526040812060026001850181028901938616908110612daf57fe5b600602018260ff1660068110612dc157fe5b0155865160ff9081166000908152611029602052604081209091851660028110612de757fe5b600602016001830360ff1660068110612dfc57fe5b015586516040805160ff92831681529183166020830152600182820152517f7ad96f4b423a7ffee1a2308ae6c93137e8caaa7d5344b881962db266874d151a9181900360600190a186516040805160ff928316815260001984019092166020830152600082820152517f7ad96f4b423a7ffee1a2308ae6c93137e8caaa7d5344b881962db266874d151a9181900360600190a150600101612d75565b50845160ff908116600090815261102a602052604090208591831660028110612ebd57fe5b602091828204019190066101000a81548160ff021916908360ff1602179055508385600160048110612eeb57fe5b60ff90921660209290920201525050505090565b6000612f09612c29565b95506000866002602002015160ff16876001602002015160020160ff1610612faf576110225483516201000090910461ffff1614612f8e576040805162461bcd60e51b815260206004820152601e60248201527f6c6561677565206c65616673206d7573742068617665206c656e203634300000604482015290519081900360640190fd5b61102254612fa8908490600160201b900461ffff16611a3b565b9050613026565b61102254835161ffff90911660020a14613010576040805162461bcd60e51b815260206004820152601e60248201527f6c6561677565206c65616673206d7573742068617665206c656e203634300000604482015290519081900360640190fd5b6110225461302390849061ffff16611a3b565b90505b602087015160ff166130845786516130419060006001612ab4565b81141561307f5760405162461bcd60e51b81526004018080602001828103825260318152602001806132e86031913960400191505060405180910390fd5b6117c7565b6040870151602088015160010160ff908116911614156130f15786516130b4908860015b60200201516001612ab4565b811461307f5760405162461bcd60e51b81526004018080602001828103825260318152602001806132e86031913960400191505060405180910390fd5b858114156131305760405162461bcd60e51b815260040180806020018281038252604c8152602001806133f2604c913960600191505060405180910390fd5b8651600090613141908960016130a8565b905061314f81868989612113565b6131a0576040805162461bcd60e51b815260206004820152601860248201527f6d65726b6c652070726f6f66206e6f7420636f72726563740000000000000000604482015290519081900360640190fd5b509695505050505050565b60ff808316600090815261102c6020908152604080832054611029909252909120911690829082600281106131dc57fe5b600602015560015b600660ff8216101561322e5760ff808516600090815261102960205260408120909184166002811061321257fe5b600602018260ff166006811061322457fe5b01556001016131e4565b50505060ff16600090815261102e60205260409020429055565b61101f8054600101905561101d8054610384019055565b61102055565b60405180608001604052806004906020820280368337509192915050565b604051806101c00160405280600e90602082028036833750919291505056fe746869732066756e6374696f6e206d757374206f6e6c792062652063616c6c656420666f72206e6f6e2d76657269666961626c652d62792d4243206368616c6c656e67657370726f7669646564206c65616673206c65616420746f2073616d6520726f6f74206265696e67206368616c6c656e6765646c617374207665727365206973207374696c6c20756e646572206368616c6c656e676520706572696f6463616e6e6f74206368616c6c656e676520746865206e756c6c2074696d657a6f6e656e756d626572206f66206c65616673206973206e6f74203d20706f7728322c6e4c6576656c73296368616c6c656e6765207374617475733a206e4a756d707320696e636f6d70617469626c652077697468207772697474656e4c6576656c20616e642066696e616c4c6576656c4f6e6c792052656c6179206f776e657220697320617574686f72697a65642e00796f7520617265206465636c6172696e672074686174207468652070726f7669646564206c65616673206c65616420746f2073616d6520726f6f74206265696e67206368616c6c656e6765646368616c6c656e676573206172652063757272656e746c79206e6f7420616c6c6f7765646368616c6c656e67696e672074696d65206973206f76657220666f72207468652063757272656e742074696d657a6f6e65a264697066735822122025dae930939850e11aa44dcc89ef347cc1013d3e622d132d076119c89aa8b19e64736f6c63430006030033",
  "source": "pragma solidity >= 0.6.3;\n\nimport \"./UpdatesBase.sol\";\n\n/**\n @title Manages Updates and Challenges game\n @author Freeverse.io, www.freeverse.io\n @dev It reports updates and challenges to the Stakers contract,\n @dev which is responsible of managing stakes and rewards accordingly\n*/\n\n/// Warning: This contract must ALWAYS inherit UpdatesBase first, so that it ends up inheriting Storage first.\ncontract Updates is UpdatesBase {\n    event ActionsSubmission(uint256 verse, uint8 timeZone, uint8 day, uint8 turnInDay, bytes32 seed, uint256 submissionTime, bytes32 root, string ipfsCid);\n    event TimeZoneUpdate(uint256 verse, uint8 timeZone, bytes32 root, uint256 submissionTime);\n    event ChallengeAccepted(uint8 tz, uint8 newLevel, bytes32 root, bytes32[] providedRoots);\n    event Inform(uint256 id, string content);\n    \n    function inform(uint256 id, string calldata content) external onlyRelay { emit Inform(id, content); }\n\n    function setStakersAddress(address payable addr) external onlySuperUser { _stakers = Stakers(addr); }\n\n    function setChallengeTime(uint256 newTime) external onlyCOO { _challengeTime = newTime; }\n\n    function initUpdates(uint256 deployTimeInUnixEpochSecs) external onlyCOO {\n        require(_timeZoneForRound1 == 0, \"cannot initialize updates twice\");\n        /// the game starts at verse = 0. The transition to verse = 1 will be at the next exact hour.\n        /// that will be the begining of Round = 1. So Round 1 starts at some timezone that depends on\n        /// the call to the contract initTZs() function.\n        /// TZ = 1 => starts at 1:00... TZ = 23 => starts at 23:00, TZ = 24, starts at 0:00\n        uint256 secsOfDay   = deployTimeInUnixEpochSecs % (3600 * 24);\n        uint256 hour        = secsOfDay / 3600;  /// 0, ..., 23\n        uint256 minute      = (secsOfDay - hour * 3600) / 60; /// 0, ..., 59\n        uint256 secs        = (secsOfDay - hour * 3600 - minute * 60); /// 0, ..., 59\n        if (minute < 27) {\n            _timeZoneForRound1 = normalizeTZ(uint8(hour));\n            _nextVerseTimestamp = deployTimeInUnixEpochSecs + (29-minute)*60 + (60 - secs);\n        } else {\n            _timeZoneForRound1 = normalizeTZ(1+uint8(hour));\n            _nextVerseTimestamp = deployTimeInUnixEpochSecs + (29-minute)*60 + (60 - secs) + 3600;\n        }\n        _firstVerseTimeStamp = _nextVerseTimestamp;\n    }\n\n    function submitActionsRoot(\n        bytes32 actionsRoot, \n        bytes32 activeTeamsPerCountryRoot, \n        bytes32 orgMapRoot, \n        uint8 levelVerifiableByBC, \n        string calldata ipfsCid\n    ) \n        external \n        onlyRelay \n    {\n        require(now > _nextVerseTimestamp, \"too early to accept actions root\");\n        /// make sure the last verse is settled\n        (uint8 tz,,) = prevTimeZoneToUpdate();\n        if (tz != NULL_TIMEZONE) {\n            ( , , bool isSettled) = getStatus(tz, true);\n            require(isSettled, \"last verse is still under challenge period\");\n            _stakers.finalize();\n        }\n        uint8 day;\n        uint8 turnInDay;\n        (tz, day, turnInDay) = nextTimeZoneToUpdate();\n        if(tz != NULL_TIMEZONE) {\n            uint8 idx = 1 - _newestRootsIdx[tz];\n            _newestRootsIdx[tz] = idx;\n            _actionsRoot[tz][idx] = actionsRoot;\n            _activeTeamsPerCountryRoot[tz][idx] = activeTeamsPerCountryRoot;\n            _orgMapRoot[tz][idx] = orgMapRoot;\n            _levelVerifiableByBC[tz][idx] = levelVerifiableByBC;\n        }\n        _lastActionsSubmissionTime[tz] = now;\n        _incrementVerse();\n        _setCurrentVerseSeed(blockhash(block.number-1));\n        emit ActionsSubmission(_currentVerse, tz, day, turnInDay, blockhash(block.number-1), now, actionsRoot, ipfsCid);\n    }\n\n    /// accepts an update about the root of the current state of a timezone. \n    /// in order to accept it, either:\n    ///  - timezone is null,\n    ///  - timezone has not been updated yet (lastUpdate < _lastActionsSubmissionTime)\n    function updateTZ(uint256 verse, bytes32 root) public {\n        /// when actionRoots were submitted, nextTimeZone points to the future.\n        /// so the timezone waiting for updates & challenges is provided by prevTimeZoneToUpdate()\n        require(isTimeToUpdate(verse), \"it is not time to update yet\");\n        (uint8 tz,,) = prevTimeZoneToUpdate();\n        _setTZRoot(tz, root); /// first time that we update this TZ\n        emit TimeZoneUpdate(_currentVerse, tz, root, now);\n        _stakers.update(0, msg.sender);\n    }\n\n    function setAllowChallenges(bool areAllowed) external onlySuperUser { _allowChallenges = areAllowed; }\n\n    /// TODO: specify which leaf you challenge!!! And bring Merkle proof!\n    function challengeTZ(bytes32 challLeaveVal, uint256 challLeavePos, bytes32[] calldata proofChallLeave, bytes32[] calldata providedRoots) external {\n        /// intData = [tz, level, levelVerifiable, idx]\n        require(_allowChallenges, \"challenges are currently not allowed\");\n        uint8[4] memory intData = _cleanTimeAcceptedChallenges();\n        bytes32 root = _assertFormallyCorrectChallenge(\n            intData,\n            challLeaveVal, \n            challLeavePos, \n            proofChallLeave, \n            providedRoots\n        );\n        require(intData[1] < intData[2] - 1, \"this function must only be called for non-verifiable-by-BC challenges\");        \n        /// accept the challenge and store new root, or let the BC verify challenge and revert to level - 1\n        uint8 level = intData[1] + 1;\n        _roots[intData[0]][intData[3]][level] = root;\n        _challengeLevel[intData[0]][intData[3]] = level;\n        emit ChallengeAccepted(intData[0], level, root, providedRoots);\n        _lastUpdateTime[intData[0]] = now;\n        _stakers.update(level, msg.sender);\n    }\n\n    /// TODO: remove this test function\n    function setLevelVerifiableByBC(uint8 newVal) external onlyRelay {\n        for (uint8 tz = 1; tz < 25; tz++) {\n            _levelVerifiableByBC[tz][0] = newVal;\n            _levelVerifiableByBC[tz][1] = newVal;\n        }\n    }\n    \n    function setChallengeLevels(uint16 levelsInOneChallenge, uint16 leafsInLeague, uint16 levelsInLastChallenge) external onlyRelay {\n        _levelsInOneChallenge   = levelsInOneChallenge;\n        _leafsInLeague          = leafsInLeague;\n        _levelsInLastChallenge  = levelsInLastChallenge;\n    }\n    \n    function _incrementVerse() private {\n        _currentVerse += 1;\n        _nextVerseTimestamp += SECS_BETWEEN_VERSES;\n    }\n    \n    function _setCurrentVerseSeed(bytes32 seed) private {\n        _currentVerseSeed = seed;\n    }\n\n    function _setTZRoot(uint8 tz, bytes32 root) private {\n        uint8 idx = _newestRootsIdx[tz];\n        _roots[tz][idx][0] = root;\n        for (uint8 level = 1; level < MAX_CHALLENGE_LEVELS; level++) _roots[tz][idx][level] = 0;\n        _lastUpdateTime[tz] = now;\n    }\n}\n",
  "sourcePath": "/Users/jurgenkudla/proyects/laos/laos-goal-revolution/goalrev-ganache/contracts/storage/Updates.sol",
  "compiler": {
    "name": "solc",
    "version": "0.6.3+commit.8dda9521.Emscripten.clang"
  },
  "schemaVersion": "3.0.23",
  "updatedAt": "2024-10-18T06:45:39.942Z",
  "networkType": "ethereum",
  "devdoc": {
    "methods": {
      "encodeTZCountryAndVal(uint8,uint256,uint256)": {
        "details": "PlayerId and TeamId both serialize a total of 43 bits:     timeZone        = 5 bits     countryIdxInTZ  = 10 bits     val             = 28 bits (either  (playerIdxInCountry or teamIdxInCountry)*"
      }
    }
  },
  "userdoc": {
    "methods": {
      "challengeTZ(bytes32,uint256,bytes32[],bytes32[])": {
        "notice": "TODO: specify which leaf you challenge!!! And bring Merkle proof!"
      },
      "getMatchUTC(uint8,uint256,uint256)": {
        "notice": "tz(n0)   : 11.30 = 0          : 21.00 = 11.30 + 9.30h tz(n)    : 11.30 + (n-n0)*1h          : 21.00 + (n-n0)*1h          : 11.30 + (n-n0)*1h + 24h * day (day = mDay/2)              = 11.30 + ( deltaN + 12 * mDay ) * 1h          : 21.00 + (n-n0) + 24h * day (day = (mDay-1)/2)              = 11.30 + (9.5 + deltaN + 12 * (mDay-1) ) * 1h add round * T_round = round * 7 * 24 * 3600 = round * DAYS_PER_ROUND * 24 * 1h  if even: 11.30 + ( deltaN + 12 * mDay + 24 * round * DAYS_PER_ROUND ) * 1h if odd:  11.30 + (9.5 + deltaN + 12 * (mDay-1) + 24 * round * DAYS_PER_ROUND ) * 1h        = 11.30 + (19 + 2*deltaN + 24 * (mDay-1) + 48 * round * DAYS_PER_ROUND ) * (1h/2)"
      },
      "getOwnerTeamInCountry(uint8,uint256,uint256)": {
        "notice": "returns NULL_ADDR if team is bot"
      },
      "isBotTeamInCountry(uint8,uint256,uint256)": {
        "notice": "Rest of view/pure functions "
      },
      "merkleRoot(bytes32[],uint256)": {
        "notice": "This function will revert if nLevels = 0. nLeafs = 2**nLevels  nLevels = 1 => 3 leafs = lev1 - root /// lev0 - 2 leafs  nLevels = 2 => 7 leafs = lev2 - root /// lev1 - 2 leafs /// lev0 - 4 leafs"
      },
      "nextTimeZoneToUpdate()": {
        "notice": "each day has 24 hours, each with 4 verses => 96 verses per day. day = 0,..13 turnInDay = 0, 1, 2, 3 so for each TZ, we go from (day, turn) = (0, 0) ... (13,3) => a total of 14*4 = 56 turns per tz from these, all map easily to timeZones"
      },
      "setLevelVerifiableByBC(uint8)": {
        "notice": "TODO: remove this test function"
      },
      "timeZoneToUpdatePure(uint256,uint8)": {
        "notice": "tz0  : v = 0, V_DAY, 2 * V_DAY... tzN  : v = 4N + V_DAY * day,  day = 0,...6 tzN  : v = 4N + V_DAY * day,  day = 0,...6  => tzN - tz0 = (v - V_DAY*day)  => 4 tzN = 4 tz0 + v % VERSES_PER_DAY last : v = V_DAY + DELTA + V_DAY * 6  Imagine 2 tzs: 0:00 - tz0; 0:30 - NUL; 1:00 - tz1; 1:30 - tz0; 0:00 - tz0; 0:30 - tz1; So the last"
      },
      "updateTZ(uint256,bytes32)": {
        "notice": "accepts an update about the root of the current state of a timezone.  in order to accept it, either:  - timezone is null,  - timezone has not been updated yet (lastUpdate < _lastActionsSubmissionTime)"
      },
      "verify(bytes32,bytes32[],bytes32,uint256)": {
        "notice": "if nLevels = 1, we need 1 element in the proof if nLevels = 2, we need 2 elements...        .     ..   ..   .. .. .. ..   01 23 45 67"
      }
    },
    "notice": "Warning: This contract must ALWAYS inherit UpdatesBase first, so that it ends up inheriting Storage first."
  }
}