{
  "contractName": "Utils",
  "abi": [
    {
      "inputs": [
        {
          "internalType": "uint256",
          "name": "log",
          "type": "uint256"
        },
        {
          "internalType": "uint8",
          "name": "player",
          "type": "uint8"
        },
        {
          "internalType": "uint8",
          "name": "pos",
          "type": "uint8"
        }
      ],
      "name": "addAssister",
      "outputs": [
        {
          "internalType": "uint256",
          "name": "",
          "type": "uint256"
        }
      ],
      "stateMutability": "pure",
      "type": "function",
      "constant": true
    },
    {
      "inputs": [
        {
          "internalType": "uint256",
          "name": "log",
          "type": "uint256"
        },
        {
          "internalType": "uint8",
          "name": "player",
          "type": "uint8"
        },
        {
          "internalType": "uint8",
          "name": "pos",
          "type": "uint8"
        }
      ],
      "name": "addForwardPos",
      "outputs": [
        {
          "internalType": "uint256",
          "name": "",
          "type": "uint256"
        }
      ],
      "stateMutability": "pure",
      "type": "function",
      "constant": true
    },
    {
      "inputs": [
        {
          "internalType": "uint256",
          "name": "log",
          "type": "uint256"
        },
        {
          "internalType": "uint8",
          "name": "player",
          "type": "uint8"
        },
        {
          "internalType": "uint8",
          "name": "pos",
          "type": "uint8"
        }
      ],
      "name": "addHalfTimeSubs",
      "outputs": [
        {
          "internalType": "uint256",
          "name": "",
          "type": "uint256"
        }
      ],
      "stateMutability": "pure",
      "type": "function",
      "constant": true
    },
    {
      "inputs": [
        {
          "internalType": "uint256",
          "name": "log",
          "type": "uint256"
        },
        {
          "internalType": "uint8",
          "name": "nDefs",
          "type": "uint8"
        },
        {
          "internalType": "bool",
          "name": "is2ndHalf",
          "type": "bool"
        }
      ],
      "name": "addNGKAndDefs",
      "outputs": [
        {
          "internalType": "uint256",
          "name": "",
          "type": "uint256"
        }
      ],
      "stateMutability": "pure",
      "type": "function",
      "constant": true
    },
    {
      "inputs": [
        {
          "internalType": "uint256",
          "name": "log",
          "type": "uint256"
        },
        {
          "internalType": "uint8",
          "name": "goals",
          "type": "uint8"
        }
      ],
      "name": "addNGoals",
      "outputs": [
        {
          "internalType": "uint256",
          "name": "",
          "type": "uint256"
        }
      ],
      "stateMutability": "pure",
      "type": "function",
      "constant": true
    },
    {
      "inputs": [
        {
          "internalType": "uint256",
          "name": "log",
          "type": "uint256"
        },
        {
          "internalType": "uint8",
          "name": "nTot",
          "type": "uint8"
        },
        {
          "internalType": "bool",
          "name": "is2ndHalf",
          "type": "bool"
        }
      ],
      "name": "addNTot",
      "outputs": [
        {
          "internalType": "uint256",
          "name": "",
          "type": "uint256"
        }
      ],
      "stateMutability": "pure",
      "type": "function",
      "constant": true
    },
    {
      "inputs": [
        {
          "internalType": "uint256",
          "name": "log",
          "type": "uint256"
        },
        {
          "internalType": "uint8",
          "name": "pos",
          "type": "uint8"
        }
      ],
      "name": "addScoredPenalty",
      "outputs": [
        {
          "internalType": "uint256",
          "name": "",
          "type": "uint256"
        }
      ],
      "stateMutability": "pure",
      "type": "function",
      "constant": true
    },
    {
      "inputs": [
        {
          "internalType": "uint256",
          "name": "log",
          "type": "uint256"
        },
        {
          "internalType": "uint8",
          "name": "player",
          "type": "uint8"
        },
        {
          "internalType": "uint8",
          "name": "pos",
          "type": "uint8"
        }
      ],
      "name": "addShooter",
      "outputs": [
        {
          "internalType": "uint256",
          "name": "",
          "type": "uint256"
        }
      ],
      "stateMutability": "pure",
      "type": "function",
      "constant": true
    },
    {
      "inputs": [
        {
          "internalType": "uint256",
          "name": "log",
          "type": "uint256"
        },
        {
          "internalType": "uint256",
          "name": "extraSumSkills",
          "type": "uint256"
        }
      ],
      "name": "addTeamSumSkills",
      "outputs": [
        {
          "internalType": "uint256",
          "name": "",
          "type": "uint256"
        }
      ],
      "stateMutability": "pure",
      "type": "function",
      "constant": true
    },
    {
      "inputs": [
        {
          "internalType": "uint256",
          "name": "log",
          "type": "uint256"
        },
        {
          "internalType": "uint256",
          "name": "points",
          "type": "uint256"
        }
      ],
      "name": "addTrainingPoints",
      "outputs": [
        {
          "internalType": "uint256",
          "name": "",
          "type": "uint256"
        }
      ],
      "stateMutability": "pure",
      "type": "function",
      "constant": true
    },
    {
      "inputs": [
        {
          "internalType": "uint256",
          "name": "log",
          "type": "uint256"
        },
        {
          "internalType": "uint8",
          "name": "winner",
          "type": "uint8"
        }
      ],
      "name": "addWinner",
      "outputs": [
        {
          "internalType": "uint256",
          "name": "",
          "type": "uint256"
        }
      ],
      "stateMutability": "pure",
      "type": "function",
      "constant": true
    },
    {
      "inputs": [
        {
          "internalType": "uint256[2]",
          "name": "logs",
          "type": "uint256[2]"
        },
        {
          "internalType": "uint8",
          "name": "winner",
          "type": "uint8"
        }
      ],
      "name": "addWinnerToBothLogs",
      "outputs": [
        {
          "internalType": "uint256[2]",
          "name": "",
          "type": "uint256[2]"
        }
      ],
      "stateMutability": "pure",
      "type": "function",
      "constant": true
    },
    {
      "inputs": [
        {
          "internalType": "uint256",
          "name": "log",
          "type": "uint256"
        },
        {
          "internalType": "uint8",
          "name": "player",
          "type": "uint8"
        },
        {
          "internalType": "uint8",
          "name": "posInHaf",
          "type": "uint8"
        },
        {
          "internalType": "bool",
          "name": "is2ndHalf",
          "type": "bool"
        }
      ],
      "name": "addYellowCard",
      "outputs": [
        {
          "internalType": "uint256",
          "name": "",
          "type": "uint256"
        }
      ],
      "stateMutability": "pure",
      "type": "function",
      "constant": true
    },
    {
      "inputs": [
        {
          "internalType": "uint256",
          "name": "encodedSkills",
          "type": "uint256"
        }
      ],
      "name": "getAggressiveness",
      "outputs": [
        {
          "internalType": "uint256",
          "name": "",
          "type": "uint256"
        }
      ],
      "stateMutability": "pure",
      "type": "function",
      "constant": true
    },
    {
      "inputs": [
        {
          "internalType": "uint256",
          "name": "encodedSkills",
          "type": "uint256"
        }
      ],
      "name": "getAlignedEndOfFirstHalf",
      "outputs": [
        {
          "internalType": "bool",
          "name": "",
          "type": "bool"
        }
      ],
      "stateMutability": "pure",
      "type": "function",
      "constant": true
    },
    {
      "inputs": [
        {
          "internalType": "uint256",
          "name": "log",
          "type": "uint256"
        },
        {
          "internalType": "uint8",
          "name": "pos",
          "type": "uint8"
        }
      ],
      "name": "getAssister",
      "outputs": [
        {
          "internalType": "uint8",
          "name": "",
          "type": "uint8"
        }
      ],
      "stateMutability": "pure",
      "type": "function",
      "constant": true
    },
    {
      "inputs": [
        {
          "internalType": "uint256",
          "name": "encodedSkills",
          "type": "uint256"
        }
      ],
      "name": "getBirthDay",
      "outputs": [
        {
          "internalType": "uint256",
          "name": "",
          "type": "uint256"
        }
      ],
      "stateMutability": "pure",
      "type": "function",
      "constant": true
    },
    {
      "inputs": [
        {
          "internalType": "uint256",
          "name": "log",
          "type": "uint256"
        }
      ],
      "name": "getChangesAtHalfTime",
      "outputs": [
        {
          "internalType": "uint8",
          "name": "nChanges",
          "type": "uint8"
        }
      ],
      "stateMutability": "pure",
      "type": "function",
      "constant": true
    },
    {
      "inputs": [
        {
          "internalType": "uint256",
          "name": "tactics",
          "type": "uint256"
        },
        {
          "internalType": "uint8",
          "name": "p",
          "type": "uint8"
        }
      ],
      "name": "getExtraAttack",
      "outputs": [
        {
          "internalType": "bool",
          "name": "",
          "type": "bool"
        }
      ],
      "stateMutability": "pure",
      "type": "function",
      "constant": true
    },
    {
      "inputs": [
        {
          "internalType": "uint256",
          "name": "log",
          "type": "uint256"
        },
        {
          "internalType": "uint8",
          "name": "pos",
          "type": "uint8"
        }
      ],
      "name": "getForwardPos",
      "outputs": [
        {
          "internalType": "uint8",
          "name": "",
          "type": "uint8"
        }
      ],
      "stateMutability": "pure",
      "type": "function",
      "constant": true
    },
    {
      "inputs": [
        {
          "internalType": "uint256",
          "name": "encodedSkills",
          "type": "uint256"
        }
      ],
      "name": "getForwardness",
      "outputs": [
        {
          "internalType": "uint256",
          "name": "",
          "type": "uint256"
        }
      ],
      "stateMutability": "pure",
      "type": "function",
      "constant": true
    },
    {
      "inputs": [
        {
          "internalType": "uint256",
          "name": "tactics",
          "type": "uint256"
        }
      ],
      "name": "getFullExtraAttack",
      "outputs": [
        {
          "internalType": "bool[10]",
          "name": "extraAttack",
          "type": "bool[10]"
        }
      ],
      "stateMutability": "pure",
      "type": "function",
      "constant": true
    },
    {
      "inputs": [
        {
          "internalType": "uint256",
          "name": "tactics",
          "type": "uint256"
        }
      ],
      "name": "getFullLineUp",
      "outputs": [
        {
          "internalType": "uint8[14]",
          "name": "lineup",
          "type": "uint8[14]"
        }
      ],
      "stateMutability": "pure",
      "type": "function",
      "constant": true
    },
    {
      "inputs": [
        {
          "internalType": "uint256",
          "name": "encodedSkills",
          "type": "uint256"
        }
      ],
      "name": "getGamesNonStopping",
      "outputs": [
        {
          "internalType": "uint8",
          "name": "",
          "type": "uint8"
        }
      ],
      "stateMutability": "pure",
      "type": "function",
      "constant": true
    },
    {
      "inputs": [
        {
          "internalType": "uint256",
          "name": "encodedSkills",
          "type": "uint256"
        }
      ],
      "name": "getGeneration",
      "outputs": [
        {
          "internalType": "uint256",
          "name": "",
          "type": "uint256"
        }
      ],
      "stateMutability": "pure",
      "type": "function",
      "constant": true
    },
    {
      "inputs": [
        {
          "internalType": "uint256",
          "name": "log",
          "type": "uint256"
        },
        {
          "internalType": "uint8",
          "name": "pos",
          "type": "uint8"
        }
      ],
      "name": "getHalfTimeSubs",
      "outputs": [
        {
          "internalType": "uint8",
          "name": "",
          "type": "uint8"
        }
      ],
      "stateMutability": "pure",
      "type": "function",
      "constant": true
    },
    {
      "inputs": [
        {
          "internalType": "uint256",
          "name": "log",
          "type": "uint256"
        },
        {
          "internalType": "uint8",
          "name": "posInHalf",
          "type": "uint8"
        },
        {
          "internalType": "bool",
          "name": "is2ndHalf",
          "type": "bool"
        }
      ],
      "name": "getInGameSubsHappened",
      "outputs": [
        {
          "internalType": "uint8",
          "name": "",
          "type": "uint8"
        }
      ],
      "stateMutability": "pure",
      "type": "function",
      "constant": true
    },
    {
      "inputs": [
        {
          "internalType": "uint256",
          "name": "encodedSkills",
          "type": "uint256"
        }
      ],
      "name": "getInjuryWeeksLeft",
      "outputs": [
        {
          "internalType": "uint8",
          "name": "",
          "type": "uint8"
        }
      ],
      "stateMutability": "pure",
      "type": "function",
      "constant": true
    },
    {
      "inputs": [
        {
          "internalType": "uint256",
          "name": "encodedSkills",
          "type": "uint256"
        }
      ],
      "name": "getInternalPlayerId",
      "outputs": [
        {
          "internalType": "uint256",
          "name": "",
          "type": "uint256"
        }
      ],
      "stateMutability": "pure",
      "type": "function",
      "constant": true
    },
    {
      "inputs": [
        {
          "internalType": "uint256",
          "name": "log",
          "type": "uint256"
        }
      ],
      "name": "getIsCancelled",
      "outputs": [
        {
          "internalType": "bool",
          "name": "",
          "type": "bool"
        }
      ],
      "stateMutability": "pure",
      "type": "function",
      "constant": true
    },
    {
      "inputs": [
        {
          "internalType": "uint256",
          "name": "log",
          "type": "uint256"
        }
      ],
      "name": "getIsHomeStadium",
      "outputs": [
        {
          "internalType": "bool",
          "name": "",
          "type": "bool"
        }
      ],
      "stateMutability": "pure",
      "type": "function",
      "constant": true
    },
    {
      "inputs": [
        {
          "internalType": "uint256",
          "name": "encodedSkills",
          "type": "uint256"
        }
      ],
      "name": "getIsSpecial",
      "outputs": [
        {
          "internalType": "bool",
          "name": "",
          "type": "bool"
        }
      ],
      "stateMutability": "pure",
      "type": "function",
      "constant": true
    },
    {
      "inputs": [
        {
          "internalType": "uint256",
          "name": "encodedSkills",
          "type": "uint256"
        }
      ],
      "name": "getLeftishness",
      "outputs": [
        {
          "internalType": "uint256",
          "name": "",
          "type": "uint256"
        }
      ],
      "stateMutability": "pure",
      "type": "function",
      "constant": true
    },
    {
      "inputs": [
        {
          "internalType": "uint256",
          "name": "tactics",
          "type": "uint256"
        },
        {
          "internalType": "uint8",
          "name": "p",
          "type": "uint8"
        }
      ],
      "name": "getLinedUp",
      "outputs": [
        {
          "internalType": "uint8",
          "name": "",
          "type": "uint8"
        }
      ],
      "stateMutability": "pure",
      "type": "function",
      "constant": true
    },
    {
      "inputs": [
        {
          "internalType": "uint256",
          "name": "log",
          "type": "uint256"
        },
        {
          "internalType": "bool",
          "name": "is2ndHalf",
          "type": "bool"
        }
      ],
      "name": "getNGKAndDefs",
      "outputs": [
        {
          "internalType": "uint8",
          "name": "",
          "type": "uint8"
        }
      ],
      "stateMutability": "pure",
      "type": "function",
      "constant": true
    },
    {
      "inputs": [
        {
          "internalType": "uint256",
          "name": "log",
          "type": "uint256"
        }
      ],
      "name": "getNGoals",
      "outputs": [
        {
          "internalType": "uint8",
          "name": "",
          "type": "uint8"
        }
      ],
      "stateMutability": "pure",
      "type": "function",
      "constant": true
    },
    {
      "inputs": [
        {
          "internalType": "uint256",
          "name": "log",
          "type": "uint256"
        },
        {
          "internalType": "bool",
          "name": "is2ndHalf",
          "type": "bool"
        }
      ],
      "name": "getNTot",
      "outputs": [
        {
          "internalType": "uint8",
          "name": "",
          "type": "uint8"
        }
      ],
      "stateMutability": "pure",
      "type": "function",
      "constant": true
    },
    {
      "inputs": [
        {
          "internalType": "uint256",
          "name": "encodedSkills",
          "type": "uint256"
        }
      ],
      "name": "getOutOfGameFirstHalf",
      "outputs": [
        {
          "internalType": "bool",
          "name": "",
          "type": "bool"
        }
      ],
      "stateMutability": "pure",
      "type": "function",
      "constant": true
    },
    {
      "inputs": [
        {
          "internalType": "uint256",
          "name": "log",
          "type": "uint256"
        },
        {
          "internalType": "bool",
          "name": "is2ndHalf",
          "type": "bool"
        }
      ],
      "name": "getOutOfGamePlayer",
      "outputs": [
        {
          "internalType": "uint256",
          "name": "",
          "type": "uint256"
        }
      ],
      "stateMutability": "pure",
      "type": "function",
      "constant": true
    },
    {
      "inputs": [
        {
          "internalType": "uint256",
          "name": "log",
          "type": "uint256"
        },
        {
          "internalType": "bool",
          "name": "is2ndHalf",
          "type": "bool"
        }
      ],
      "name": "getOutOfGameRound",
      "outputs": [
        {
          "internalType": "uint256",
          "name": "",
          "type": "uint256"
        }
      ],
      "stateMutability": "pure",
      "type": "function",
      "constant": true
    },
    {
      "inputs": [
        {
          "internalType": "uint256",
          "name": "log",
          "type": "uint256"
        },
        {
          "internalType": "bool",
          "name": "is2ndHalf",
          "type": "bool"
        }
      ],
      "name": "getOutOfGameType",
      "outputs": [
        {
          "internalType": "uint256",
          "name": "",
          "type": "uint256"
        }
      ],
      "stateMutability": "pure",
      "type": "function",
      "constant": true
    },
    {
      "inputs": [
        {
          "internalType": "uint256",
          "name": "log",
          "type": "uint256"
        },
        {
          "internalType": "uint8",
          "name": "pos",
          "type": "uint8"
        }
      ],
      "name": "getPenalty",
      "outputs": [
        {
          "internalType": "bool",
          "name": "",
          "type": "bool"
        }
      ],
      "stateMutability": "pure",
      "type": "function",
      "constant": true
    },
    {
      "inputs": [
        {
          "internalType": "uint256",
          "name": "encodedSkills",
          "type": "uint256"
        }
      ],
      "name": "getPlayerIdFromSkills",
      "outputs": [
        {
          "internalType": "uint256",
          "name": "",
          "type": "uint256"
        }
      ],
      "stateMutability": "pure",
      "type": "function",
      "constant": true
    },
    {
      "inputs": [
        {
          "internalType": "uint256",
          "name": "encodedSkills",
          "type": "uint256"
        }
      ],
      "name": "getPotential",
      "outputs": [
        {
          "internalType": "uint256",
          "name": "",
          "type": "uint256"
        }
      ],
      "stateMutability": "pure",
      "type": "function",
      "constant": true
    },
    {
      "inputs": [
        {
          "internalType": "uint256",
          "name": "encodedSkills",
          "type": "uint256"
        }
      ],
      "name": "getRedCardLastGame",
      "outputs": [
        {
          "internalType": "bool",
          "name": "",
          "type": "bool"
        }
      ],
      "stateMutability": "pure",
      "type": "function",
      "constant": true
    },
    {
      "inputs": [
        {
          "internalType": "uint256",
          "name": "log",
          "type": "uint256"
        },
        {
          "internalType": "uint8",
          "name": "pos",
          "type": "uint8"
        }
      ],
      "name": "getShooter",
      "outputs": [
        {
          "internalType": "uint8",
          "name": "",
          "type": "uint8"
        }
      ],
      "stateMutability": "pure",
      "type": "function",
      "constant": true
    },
    {
      "inputs": [
        {
          "internalType": "uint256",
          "name": "encodedSkills",
          "type": "uint256"
        },
        {
          "internalType": "uint8",
          "name": "skillIdx",
          "type": "uint8"
        }
      ],
      "name": "getSkill",
      "outputs": [
        {
          "internalType": "uint256",
          "name": "",
          "type": "uint256"
        }
      ],
      "stateMutability": "pure",
      "type": "function",
      "constant": true
    },
    {
      "inputs": [
        {
          "internalType": "uint256",
          "name": "tactics",
          "type": "uint256"
        },
        {
          "internalType": "uint8",
          "name": "p",
          "type": "uint8"
        }
      ],
      "name": "getSubsRound",
      "outputs": [
        {
          "internalType": "uint8",
          "name": "",
          "type": "uint8"
        }
      ],
      "stateMutability": "pure",
      "type": "function",
      "constant": true
    },
    {
      "inputs": [
        {
          "internalType": "uint256",
          "name": "encodedSkills",
          "type": "uint256"
        }
      ],
      "name": "getSubstitutedFirstHalf",
      "outputs": [
        {
          "internalType": "bool",
          "name": "",
          "type": "bool"
        }
      ],
      "stateMutability": "pure",
      "type": "function",
      "constant": true
    },
    {
      "inputs": [
        {
          "internalType": "uint256",
          "name": "tactics",
          "type": "uint256"
        },
        {
          "internalType": "uint8",
          "name": "p",
          "type": "uint8"
        }
      ],
      "name": "getSubstitution",
      "outputs": [
        {
          "internalType": "uint8",
          "name": "",
          "type": "uint8"
        }
      ],
      "stateMutability": "pure",
      "type": "function",
      "constant": true
    },
    {
      "inputs": [
        {
          "internalType": "uint256",
          "name": "encodedSkills",
          "type": "uint256"
        }
      ],
      "name": "getSumOfSkills",
      "outputs": [
        {
          "internalType": "uint256",
          "name": "",
          "type": "uint256"
        }
      ],
      "stateMutability": "pure",
      "type": "function",
      "constant": true
    },
    {
      "inputs": [
        {
          "internalType": "uint256",
          "name": "tactics",
          "type": "uint256"
        }
      ],
      "name": "getTacticsId",
      "outputs": [
        {
          "internalType": "uint8",
          "name": "",
          "type": "uint8"
        }
      ],
      "stateMutability": "pure",
      "type": "function",
      "constant": true
    },
    {
      "inputs": [
        {
          "internalType": "uint256",
          "name": "log",
          "type": "uint256"
        }
      ],
      "name": "getTeamSumSkills",
      "outputs": [
        {
          "internalType": "uint256",
          "name": "",
          "type": "uint256"
        }
      ],
      "stateMutability": "pure",
      "type": "function",
      "constant": true
    },
    {
      "inputs": [
        {
          "internalType": "uint256",
          "name": "log",
          "type": "uint256"
        }
      ],
      "name": "getTrainingPoints",
      "outputs": [
        {
          "internalType": "uint16",
          "name": "",
          "type": "uint16"
        }
      ],
      "stateMutability": "pure",
      "type": "function",
      "constant": true
    },
    {
      "inputs": [
        {
          "internalType": "uint256",
          "name": "log",
          "type": "uint256"
        }
      ],
      "name": "getWinner",
      "outputs": [
        {
          "internalType": "uint8",
          "name": "",
          "type": "uint8"
        }
      ],
      "stateMutability": "pure",
      "type": "function",
      "constant": true
    },
    {
      "inputs": [
        {
          "internalType": "uint256",
          "name": "log",
          "type": "uint256"
        },
        {
          "internalType": "uint8",
          "name": "posInHaf",
          "type": "uint8"
        },
        {
          "internalType": "bool",
          "name": "is2ndHalf",
          "type": "bool"
        }
      ],
      "name": "getYellowCard",
      "outputs": [
        {
          "internalType": "uint8",
          "name": "",
          "type": "uint8"
        }
      ],
      "stateMutability": "pure",
      "type": "function",
      "constant": true
    },
    {
      "inputs": [
        {
          "internalType": "uint256",
          "name": "encodedSkills",
          "type": "uint256"
        }
      ],
      "name": "getYellowCardFirstHalf",
      "outputs": [
        {
          "internalType": "bool",
          "name": "",
          "type": "bool"
        }
      ],
      "stateMutability": "pure",
      "type": "function",
      "constant": true
    },
    {
      "inputs": [
        {
          "internalType": "uint256",
          "name": "log",
          "type": "uint256"
        },
        {
          "internalType": "uint8",
          "name": "nChanges",
          "type": "uint8"
        }
      ],
      "name": "setChangesAtHalfTime",
      "outputs": [
        {
          "internalType": "uint256",
          "name": "",
          "type": "uint256"
        }
      ],
      "stateMutability": "pure",
      "type": "function",
      "constant": true
    },
    {
      "inputs": [
        {
          "internalType": "uint256",
          "name": "log",
          "type": "uint256"
        },
        {
          "internalType": "uint8",
          "name": "happenedType",
          "type": "uint8"
        },
        {
          "internalType": "uint8",
          "name": "posInHalf",
          "type": "uint8"
        },
        {
          "internalType": "bool",
          "name": "is2ndHalf",
          "type": "bool"
        }
      ],
      "name": "setInGameSubsHappened",
      "outputs": [
        {
          "internalType": "uint256",
          "name": "",
          "type": "uint256"
        }
      ],
      "stateMutability": "pure",
      "type": "function",
      "constant": true
    },
    {
      "inputs": [
        {
          "internalType": "uint256",
          "name": "log",
          "type": "uint256"
        },
        {
          "internalType": "bool",
          "name": "val",
          "type": "bool"
        }
      ],
      "name": "setIsCancelled",
      "outputs": [
        {
          "internalType": "uint256",
          "name": "",
          "type": "uint256"
        }
      ],
      "stateMutability": "pure",
      "type": "function",
      "constant": true
    },
    {
      "inputs": [
        {
          "internalType": "uint256",
          "name": "log",
          "type": "uint256"
        },
        {
          "internalType": "bool",
          "name": "val",
          "type": "bool"
        }
      ],
      "name": "setIsHomeStadium",
      "outputs": [
        {
          "internalType": "uint256",
          "name": "",
          "type": "uint256"
        }
      ],
      "stateMutability": "pure",
      "type": "function",
      "constant": true
    },
    {
      "inputs": [
        {
          "internalType": "uint256",
          "name": "log",
          "type": "uint256"
        },
        {
          "internalType": "uint8",
          "name": "player",
          "type": "uint8"
        },
        {
          "internalType": "uint8",
          "name": "round",
          "type": "uint8"
        },
        {
          "internalType": "uint8",
          "name": "typeOfOutOfGame",
          "type": "uint8"
        },
        {
          "internalType": "bool",
          "name": "is2ndHalf",
          "type": "bool"
        }
      ],
      "name": "setOutOfGame",
      "outputs": [
        {
          "internalType": "uint256",
          "name": "",
          "type": "uint256"
        }
      ],
      "stateMutability": "pure",
      "type": "function",
      "constant": true
    },
    {
      "inputs": [
        {
          "internalType": "uint256",
          "name": "log",
          "type": "uint256"
        },
        {
          "internalType": "bool",
          "name": "is2ndHalf",
          "type": "bool"
        }
      ],
      "name": "fullDecodeMatchLog",
      "outputs": [
        {
          "internalType": "uint32[15]",
          "name": "decodedLog",
          "type": "uint32[15]"
        }
      ],
      "stateMutability": "pure",
      "type": "function",
      "constant": true
    },
    {
      "inputs": [
        {
          "internalType": "uint256",
          "name": "encodedSkills",
          "type": "uint256"
        }
      ],
      "name": "fullDecodeSkills",
      "outputs": [
        {
          "internalType": "uint32[5]",
          "name": "skills",
          "type": "uint32[5]"
        },
        {
          "internalType": "uint16",
          "name": "dayOfBirth",
          "type": "uint16"
        },
        {
          "internalType": "uint8[4]",
          "name": "birthTraits",
          "type": "uint8[4]"
        },
        {
          "internalType": "uint256",
          "name": "playerId",
          "type": "uint256"
        },
        {
          "internalType": "bool[5]",
          "name": "aligned1stSubst1stRedCardLastGameOutOfGame1stYellow1st",
          "type": "bool[5]"
        },
        {
          "internalType": "uint8[3]",
          "name": "generationGamesNonStopInjuryWeeks",
          "type": "uint8[3]"
        }
      ],
      "stateMutability": "pure",
      "type": "function",
      "constant": true
    },
    {
      "inputs": [],
      "name": "getNow",
      "outputs": [
        {
          "internalType": "uint256",
          "name": "",
          "type": "uint256"
        }
      ],
      "stateMutability": "view",
      "type": "function",
      "constant": true
    },
    {
      "inputs": [
        {
          "internalType": "uint256",
          "name": "tactics",
          "type": "uint256"
        }
      ],
      "name": "decodeTactics",
      "outputs": [
        {
          "internalType": "uint8[3]",
          "name": "substitutions",
          "type": "uint8[3]"
        },
        {
          "internalType": "uint8[3]",
          "name": "subsRounds",
          "type": "uint8[3]"
        },
        {
          "internalType": "uint8[14]",
          "name": "lineup",
          "type": "uint8[14]"
        },
        {
          "internalType": "bool[10]",
          "name": "extraAttack",
          "type": "bool[10]"
        },
        {
          "internalType": "uint8",
          "name": "tacticsId",
          "type": "uint8"
        }
      ],
      "stateMutability": "pure",
      "type": "function",
      "constant": true
    }
  ],
  "bytecode": "0x608060405234801561001057600080fd5b506119ca806100206000396000f3fe608060405234801561001057600080fd5b50600436106103e65760003560e01c8063919e27621161020a578063cc7d473b11610125578063e6400ac4116100b8578063f0789df611610087578063f0789df614610ece578063f2c3576414610ef4578063f2dc657f14610f11578063f81c7a4514610f2e578063fc4cd37214610f54576103e6565b8063e6400ac414610d80578063e804e51914610e66578063e9b6645414610e83578063eed3142814610ea9576103e6565b8063d5a4d6c0116100f4578063d5a4d6c014610ce5578063df1beecb14610d0a578063e37528bb14610d3d578063e4eec4be14610d5a576103e6565b8063cc7d473b14610c5a578063ce96816414610c77578063d1b3d8fd14610cab578063d2f7967d14610cc8576103e6565b8063b2a042561161019d578063c0853a7c1161016c578063c0853a7c14610b00578063c2bc41cd14610be9578063c648185514610c06578063cbbfac6614610c2c576103e6565b8063b2a0425614610a6f578063ba8dfa4614610aad578063bbe4fd5014610aca578063bf8bf71914610ad2576103e6565b80639f7d3b7f116101d95780639f7d3b7f146109c7578063a7d0238a146109ed578063ae59df9d14610a1b578063b1c2c8a314610a41576103e6565b8063919e27621461092a578063989aa2221461096257806399dfedb4146109855780639e8530ff146109a2576103e6565b806347524b6011610305578063658d2da51161029857806379e765971161026757806379e765971461087a5780637a8409b3146108975780637d3921cd146108bd5780637ffa3a2e146108da5780638b6f120f146108f7576103e6565b8063658d2da5146107ec5780636f6c2ae014610809578063754b7cf41461082657806376f96f421461084c576103e6565b806356e3df97116102d457806356e3df97146107505780635ac78b111461076d5780635bdc6b581461079b57806362233045146107c9576103e6565b806347524b60146106ba578063494dd3f4146106d75780634c0b044a146106fc5780634cc3e34f1461072a576103e6565b806329d0dcfb1161037d57806335515f781161034c57806335515f781461063d57806335b6ab7a1461065a5780634129b2c914610680578063434807ad1461069d576103e6565b806329d0dcfb1461054c5780632a3328f6146105725780632eb7cfa7146105975780633518dd1d14610620576103e6565b8063185e456f116103b9578063185e456f146104b3578063190e5f8c146104d85780631d1e84de146105095780631fc7768f1461052f576103e6565b806305f0bb7b146103eb5780630ae78a39146104275780630f14aef4146104715780631060c9c214610496575b600080fd5b6104116004803603604081101561040157600080fd5b508035906020013560ff16610f8f565b6040805160ff9092168252519081900360200190f35b61045f6004803603608081101561043d57600080fd5b5080359060ff6020820135811691604081013590911690606001351515610f9f565b60408051918252519081900360200190f35b61045f6004803603604081101561048757600080fd5b50803590602001351515610fdc565b61045f600480360360208110156104ac57600080fd5b5035611006565b61045f600480360360408110156104c957600080fd5b50803590602001351515611011565b6104f5600480360360208110156104ee57600080fd5b503561103b565b604080519115158252519081900360200190f35b6104116004803603604081101561051f57600080fd5b508035906020013560ff16611047565b61045f6004803603602081101561054557600080fd5b5035611057565b61045f6004803603604081101561056257600080fd5b508035906020013560ff16611060565b61045f6004803603604081101561058857600080fd5b5080359060200135151561106f565b6105e5600480360360608110156105ad57600080fd5b6040805180820182529183019291818301918390600290839083908082843760009201919091525091945050503560ff169050611092565b6040518082600260200280838360005b8381101561060d5781810151838201526020016105f5565b5050505090500191505060405180910390f35b61045f6004803603602081101561063657600080fd5b50356110d0565b6104116004803603602081101561065357600080fd5b50356110d9565b6104f56004803603604081101561067057600080fd5b508035906020013560ff166110df565b6104116004803603602081101561069657600080fd5b50356110ef565b61045f600480360360208110156106b357600080fd5b50356110f8565b6104f5600480360360208110156106d057600080fd5b5035611101565b61045f600480360360408110156106ed57600080fd5b5080359060200135151561110d565b61045f6004803603606081101561071257600080fd5b5080359060ff60208201351690604001351515611137565b61045f6004803603604081101561074057600080fd5b508035906020013560ff1661115f565b61045f6004803603602081101561076657600080fd5b503561116f565b61045f6004803603606081101561078357600080fd5b5080359060ff60208201358116916040013516611178565b610411600480360360608110156107b157600080fd5b5080359060ff6020820135169060400135151561118d565b61045f600480360360408110156107df57600080fd5b50803590602001356111bd565b6104f56004803603602081101561080257600080fd5b50356111c4565b61045f6004803603602081101561081f57600080fd5b50356111d0565b6104116004803603604081101561083c57600080fd5b508035906020013560ff166111f5565b61045f6004803603606081101561086257600080fd5b5080359060ff60208201358116916040013516611205565b6104116004803603602081101561089057600080fd5b503561121b565b610411600480360360408110156108ad57600080fd5b508035906020013560ff16611224565b610411600480360360208110156108d357600080fd5b5035611234565b6104f5600480360360208110156108f057600080fd5b503561123a565b6109146004803603602081101561090d57600080fd5b5035611246565b6040518151815280826101c080838360206105f5565b61045f6004803603608081101561094057600080fd5b5080359060ff6020820135811691604081013590911690606001351515611297565b61045f6004803603604081101561097857600080fd5b50803590602001356112c5565b61045f6004803603602081101561099b57600080fd5b50356112cc565b610411600480360360408110156109b857600080fd5b508035906020013515156112d7565b61045f600480360360408110156109dd57600080fd5b508035906020013560ff166112ff565b61045f60048036036060811015610a0357600080fd5b5080359060ff6020820135811691604001351661130c565b61041160048036036040811015610a3157600080fd5b508035906020013560ff16611322565b61041160048036036060811015610a5757600080fd5b5080359060ff60208201351690604001351515611332565b61045f600480360360a0811015610a8557600080fd5b5080359060ff602082013581169160408101358216916060820135169060800135151561135f565b61041160048036036020811015610ac357600080fd5b50356113b2565b61045f6113bb565b61045f60048036036060811015610ae857600080fd5b5080359060ff602082013516906040013515156113bf565b610b1d60048036036020811015610b1657600080fd5b50356113ea565b604051808760a080838360005b83811015610b42578181015183820152602001610b2a565b5050505061ffff891692019182525060200185608080838360005b83811015610b75578181015183820152602001610b5d565b5050505090500184815260200183600560200280838360005b83811015610ba6578181015183820152602001610b8e565b5050505090500182600360200280838360005b83811015610bd1578181015183820152602001610bb9565b50505050905001965050505050505060405180910390f35b61045f60048036036020811015610bff57600080fd5b503561152e565b61045f60048036036040811015610c1c57600080fd5b508035906020013560ff16611537565b61045f60048036036060811015610c4257600080fd5b5080359060ff60208201358116916040013516611550565b6104f560048036036020811015610c7057600080fd5b5035611566565b610c9460048036036020811015610c8d57600080fd5b5035611572565b6040805161ffff9092168252519081900360200190f35b6104f560048036036020811015610cc157600080fd5b503561157c565b61045f60048036036020811015610cde57600080fd5b5035611588565b61045f60048036036040811015610cfb57600080fd5b50803590602001351515611596565b610d2760048036036020811015610d2057600080fd5b50356115c0565b60405181518152808261014080838360206105f5565b6104f560048036036020811015610d5357600080fd5b5035611616565b61041160048036036040811015610d7057600080fd5b508035906020013560ff16611622565b610d9d60048036036020811015610d9657600080fd5b5035611632565b6040518086606080838360005b83811015610dc2578181015183820152602001610daa565b5050505090500185600360200280838360005b83811015610ded578181015183820152602001610dd5565b5050505090500184600e60200280838360005b83811015610e18578181015183820152602001610e00565b5050505090500183600a60200280838360005b83811015610e43578181015183820152602001610e2b565b505050509050018260ff1660ff1681526020019550505050505060405180910390f35b61041160048036036020811015610e7c57600080fd5b50356116fa565b6104f560048036036040811015610e9957600080fd5b508035906020013560ff16611703565b61041160048036036040811015610ebf57600080fd5b5080359060200135151561172a565b61041160048036036040811015610ee457600080fd5b508035906020013560ff1661174f565b6104f560048036036020811015610f0a57600080fd5b503561175f565b61045f60048036036020811015610f2757600080fd5b503561176b565b61045f60048036036040811015610f4457600080fd5b508035906020013560ff16611775565b610f7960048036036040811015610f6a57600080fd5b5080359060200135151561177c565b6040518151815280826101e080838360206105f5565b60050260100160ff161c601f1690565b60008082610fae576000610fb1565b60035b840160020260a70190508060ff168560ff16901b8160ff166003901b19871617915050949350505050565b600060fb82610fec576000610fef565b60015b60ff16901b60fb6001901b19841617905092915050565b60b51c6207ffff1690565b600060f882611021576000611024565b60015b60ff16901b60f86001901b19841617905092915050565b60f81c60019081161490565b60040260340160ff161c600f1690565b607e1c60071690565b60ff166014021c620fffff1690565b6000808261107e576083611081565b608d5b60ff169390931c600f169392505050565b61109a6118bf565b60408051808201909152806110b78560005b6020020151856112ff565b81526020016110c78560016110ac565b90529392505050565b607b1c60071690565b603f1690565b607c0160ff161c60019081161490565b60d21c60031690565b60741c600f1690565b60cc1c60019081161490565b6000808261111c57608361111f565b608d5b90508060040160ff1684901c60031691505092915050565b600081611145576000611148565b60045b60ca0160ff168360ff16901b841790509392505050565b6001607c9190910160ff161b1790565b60cd1c60ff1690565b60ff91821660049182029091019091161b1790565b6000808261119c57600061119f565b60035b840160020260a70190508060ff1685901c6003169150509392505050565b60ec1b1790565b60fb1c60019081161490565b60006111db82611101565b6111ed576111e882611588565b6111ef565b815b92915050565b60050260b30160ff161c601f1690565b60ff91821660059190910260b3019091161b1790565b60b11c60071690565b60040260620160ff161c600f1690565b600f1690565b60d61c60019081161490565b61124e6118dd565b60005b600e8160ff161015611291578060050260100160ff1683901c601f16828260ff16600e811061127c57fe5b60ff9092166020929092020152600101611251565b50919050565b60008083600402836112aa5760976112ad565b609f5b60ff87811692909101161b8617915050949350505050565b60d41b1790565b60d41c62ffffff1690565b6000816112e55760006112e8565b60015b60040260c20160ff1683901c600f16905092915050565b60d21b60ff60d21b161790565b60ff9182166004919091026034019091161b1790565b60020260640160ff161c60031690565b6000808360040283611345576097611348565b609f5b0190508060ff1685901c600f169150509392505050565b6000808261136e576083611371565b608d5b60ff8581166004830182161b88821682841690811b6103ff90911b199a909a169990991798909817978681166006909201161b871791505095945050505050565b60f91c60031690565b4290565b6000816113cd5760006113d0565b60015b60040260c20160ff168360ff16901b841790509392505050565b6113f26118fc565b60006113fc61191a565b60006114066118fc565b61140e611938565b60005b600560ff8216101561144e576114278882611060565b878260ff166005811061143657fe5b63ffffffff9092166020929092020152600101611411565b506114588761176b565b9450611463876110f8565b60ff1684526114718761152e565b60ff166020850152611482876110d0565b60ff16604085015261149387611057565b60ff1660608501526114a4876111d0565b92506114af8761175f565b151582526114bc87611616565b151560208301526114cc87611566565b151560408301526114dc8761157c565b151560608301526114ec8761123a565b151560808301526114fc8761116f565b60ff16815261150a876116fa565b60ff16602082015261151b8761121b565b60ff166040820152949693955091939092565b60781c60071690565b60f91b607f60f91b166001607d60f91b03919091161790565b60ff9182166002919091026064019091161b1790565b60ad1c60019081161490565b60ec1c610fff1690565b60d51c60019081161490565b60811c6507ffffffffff1690565b600080826115a55760836115a8565b608d5b90508060060160ff1684901c600f1691505092915050565b6115c8611956565b60005b600a8160ff161015611291578060060160ff1683901c6001166001146115f25760006115f5565b60015b828260ff16600a811061160457fe5b911515602090920201526001016115cb565b60b41c60019081161490565b60040260560160ff161c600f1690565b61163a611938565b611642611938565b61164a6118dd565b611652611956565b600061165d866110d9565b9050611668866115c0565b915060005b60038160ff1610156116a7576116838782611622565b868260ff166003811061169257fe5b60ff909216602092909202015260010161166d565b506116b186611246565b925060005b60038160ff1610156116f0576116cc8782611224565b858260ff16600381106116db57fe5b60ff90921660209290920201526001016116b6565b5091939590929450565b60ae1c60071690565b60008160060160ff1683901c600116600114611720576000611723565b60015b9392505050565b60008161173857600061173b565b60045b60ca0160ff1683901c600f16905092915050565b60049081020160ff161c600f1690565b60ac1c60019081161490565b60641c61ffff1690565b60ff160190565b611784611975565b61178d836112cc565b63ffffffff16815261179e836110ef565b60ff1660208201526117af83611234565b60ff16604082015281156117d0576117c683611572565b61ffff1660608201525b6117da838361106f565b63ffffffff1660808201526117ef838361110d565b63ffffffff1660a08201526118048383611596565b63ffffffff1660c082015261181b83600084611332565b60ff1660e082015261182f83600184611332565b60ff166101008201526118448360008461118d565b60ff166101208201526118598360018461118d565b60ff1661014082015261186e8360028461118d565b60ff1661016082015281156111ef576118888360006111f5565b60ff1661018082015261189c8360016111f5565b60ff166101a08201526118b08360026111f5565b60ff166101c082015292915050565b60405180604001604052806002906020820280368337509192915050565b604051806101c00160405280600e906020820280368337509192915050565b6040518060a001604052806005906020820280368337509192915050565b60405180608001604052806004906020820280368337509192915050565b60405180606001604052806003906020820280368337509192915050565b604051806101400160405280600a906020820280368337509192915050565b604051806101e00160405280600f90602082028036833750919291505056fea2646970667358221220c194931211703f8206988645bff9478a7eaeda5977219a719edfd3541c79449064736f6c63430006030033",
  "source": "pragma solidity >= 0.6.3;\nimport \"../encoders/EncodingMatchLog.sol\";\nimport \"../encoders/EncodingTacticsBase3.sol\";\nimport \"../encoders/EncodingSkillsGetters.sol\";\nimport \"../storage/Constants.sol\";\n\n/**\n @title Library of pure functions used by company to compute useful data\n @author Freeverse.io, www.freeverse.io\n*/\n\ncontract Utils is EncodingMatchLog, EncodingTacticsBase3, EncodingSkillsGetters, Constants {\n\n    function fullDecodeMatchLog(uint256 log, bool is2ndHalf) public pure returns (uint32[15] memory decodedLog) {\n        decodedLog[0] = uint32(getTeamSumSkills(log));\n        decodedLog[1] = uint32(getWinner(log));\n        decodedLog[2] = uint32(getNGoals(log));\n        if (is2ndHalf) decodedLog[3] = uint32(getTrainingPoints(log));\n        \n        decodedLog[4] = uint32(getOutOfGamePlayer(log, is2ndHalf));\n        decodedLog[5] = uint32(getOutOfGameType(log, is2ndHalf));\n        decodedLog[6] = uint32(getOutOfGameRound(log, is2ndHalf));\n    \n        decodedLog[7] = uint32(getYellowCard(log, 0, is2ndHalf));\n        decodedLog[8] = uint32(getYellowCard(log, 1, is2ndHalf));\n        \n        decodedLog[9]  = uint32(getInGameSubsHappened(log, 0, is2ndHalf));\n        decodedLog[10] = uint32(getInGameSubsHappened(log, 1, is2ndHalf));\n        decodedLog[11] = uint32(getInGameSubsHappened(log, 2, is2ndHalf));\n\n        /// getHalfTimeSubs: recall that 0 means no subs, and we store here p+1 (where p = player in the starting 11 that was substituted)\n        if (is2ndHalf) {\n            decodedLog[12]  = uint32(getHalfTimeSubs(log, 0));\n            decodedLog[13]  = uint32(getHalfTimeSubs(log, 1));\n            decodedLog[14]  = uint32(getHalfTimeSubs(log, 2));\n        }\n        return decodedLog;\n    }\n    \n    function fullDecodeSkills(uint256 encodedSkills) public pure returns(\n        uint32[N_SKILLS] memory skills,\n        uint16 dayOfBirth,\n        uint8[4] memory birthTraits,\n        uint256 playerId, \n        bool[5] memory aligned1stSubst1stRedCardLastGameOutOfGame1stYellow1st,\n        uint8[3] memory generationGamesNonStopInjuryWeeks\n    ) {\n        for (uint8 sk = 0; sk < N_SKILLS; sk++) skills[sk] = uint32(getSkill(encodedSkills, sk));\n\n        dayOfBirth = uint16(getBirthDay(encodedSkills));\n\n        birthTraits[0] = uint8(getPotential(encodedSkills));\n        birthTraits[1] = uint8(getForwardness(encodedSkills));\n        birthTraits[2] = uint8(getLeftishness(encodedSkills));\n        birthTraits[3] = uint8(getAggressiveness(encodedSkills));\n        \n        playerId = getPlayerIdFromSkills(encodedSkills);\n        \n        aligned1stSubst1stRedCardLastGameOutOfGame1stYellow1st[0] = getAlignedEndOfFirstHalf(encodedSkills);\n        aligned1stSubst1stRedCardLastGameOutOfGame1stYellow1st[1] = getSubstitutedFirstHalf(encodedSkills);\n        aligned1stSubst1stRedCardLastGameOutOfGame1stYellow1st[2] = getRedCardLastGame(encodedSkills);\n        aligned1stSubst1stRedCardLastGameOutOfGame1stYellow1st[3] = getOutOfGameFirstHalf(encodedSkills);\n        aligned1stSubst1stRedCardLastGameOutOfGame1stYellow1st[4] = getYellowCardFirstHalf(encodedSkills);\n        \n        generationGamesNonStopInjuryWeeks[0] = uint8(getGeneration(encodedSkills));\n        generationGamesNonStopInjuryWeeks[1] = getGamesNonStopping(encodedSkills);\n        generationGamesNonStopInjuryWeeks[2] = getInjuryWeeksLeft(encodedSkills);\n    }\n    \n    function getNow() public view returns(uint256) {\n        return now;\n    }\n    \n    function decodeTactics(uint256 tactics) public pure returns (\n        uint8[3] memory substitutions, \n        uint8[3] memory subsRounds, \n        uint8[14] memory lineup, \n        bool[10] memory extraAttack, \n        uint8 tacticsId\n    ) {\n        tacticsId = getTacticsId(tactics);\n        extraAttack = getFullExtraAttack(tactics);\n        for (uint8 p = 0; p < 3; p++) {\n            substitutions[p] = getSubstitution(tactics, p);\n        }          \n        lineup = getFullLineUp(tactics);\n        for (uint8 p = 0; p < 3; p++) {\n            subsRounds[p] = getSubsRound(tactics, p);\n        }          \n    }\n}\n",
  "sourcePath": "/Users/jurgenkudla/proyects/laos/laos-goal-revolution/truffle-core/contracts/interfaces/Utils.sol",
  "compiler": {
    "name": "solc",
    "version": "0.6.3+commit.8dda9521.Emscripten.clang"
  },
  "schemaVersion": "3.0.23",
  "updatedAt": "2024-10-16T08:58:34.568Z",
  "networkType": "ethereum",
  "devdoc": {
    "author": "Freeverse.io, www.freeverse.io",
    "methods": {},
    "title": "Library of pure functions used by company to compute useful data"
  },
  "userdoc": {
    "methods": {
      "addHalfTimeSubs(uint256,uint8,uint8)": {
        "notice": "recall that 0 means no subs, and we store here lineUp[p]+1 (where lineUp[p] = player shirt in the 25 that was substituted)"
      },
      "getHalfTimeSubs(uint256,uint8)": {
        "notice": "recall that 0 means no subs, and we store here p+1 (where p = player in the starting 11 that was substituted)"
      }
    }
  }
}