{
  "contractName": "Utils",
  "abi": [
    {
      "anonymous": false,
      "inputs": [
        {
          "indexed": false,
          "internalType": "uint256",
          "name": "teamId",
          "type": "uint256"
        },
        {
          "indexed": false,
          "internalType": "address",
          "name": "to",
          "type": "address"
        }
      ],
      "name": "TeamTransfer",
      "type": "event"
    },
    {
      "inputs": [],
      "name": "COO",
      "outputs": [
        {
          "internalType": "address",
          "name": "",
          "type": "address"
        }
      ],
      "stateMutability": "view",
      "type": "function",
      "constant": true
    },
    {
      "inputs": [],
      "name": "_stakers",
      "outputs": [
        {
          "internalType": "contract Stakers",
          "name": "",
          "type": "address"
        }
      ],
      "stateMutability": "view",
      "type": "function",
      "constant": true
    },
    {
      "inputs": [
        {
          "internalType": "uint256",
          "name": "log",
          "type": "uint256"
        },
        {
          "internalType": "uint8",
          "name": "player",
          "type": "uint8"
        },
        {
          "internalType": "uint8",
          "name": "pos",
          "type": "uint8"
        }
      ],
      "name": "addAssister",
      "outputs": [
        {
          "internalType": "uint256",
          "name": "",
          "type": "uint256"
        }
      ],
      "stateMutability": "pure",
      "type": "function",
      "constant": true
    },
    {
      "inputs": [
        {
          "internalType": "uint256",
          "name": "log",
          "type": "uint256"
        },
        {
          "internalType": "uint8",
          "name": "player",
          "type": "uint8"
        },
        {
          "internalType": "uint8",
          "name": "pos",
          "type": "uint8"
        }
      ],
      "name": "addForwardPos",
      "outputs": [
        {
          "internalType": "uint256",
          "name": "",
          "type": "uint256"
        }
      ],
      "stateMutability": "pure",
      "type": "function",
      "constant": true
    },
    {
      "inputs": [
        {
          "internalType": "uint256",
          "name": "log",
          "type": "uint256"
        },
        {
          "internalType": "uint8",
          "name": "player",
          "type": "uint8"
        },
        {
          "internalType": "uint8",
          "name": "pos",
          "type": "uint8"
        }
      ],
      "name": "addHalfTimeSubs",
      "outputs": [
        {
          "internalType": "uint256",
          "name": "",
          "type": "uint256"
        }
      ],
      "stateMutability": "pure",
      "type": "function",
      "constant": true
    },
    {
      "inputs": [
        {
          "internalType": "uint256",
          "name": "log",
          "type": "uint256"
        },
        {
          "internalType": "uint8",
          "name": "nDefs",
          "type": "uint8"
        },
        {
          "internalType": "bool",
          "name": "is2ndHalf",
          "type": "bool"
        }
      ],
      "name": "addNGKAndDefs",
      "outputs": [
        {
          "internalType": "uint256",
          "name": "",
          "type": "uint256"
        }
      ],
      "stateMutability": "pure",
      "type": "function",
      "constant": true
    },
    {
      "inputs": [
        {
          "internalType": "uint256",
          "name": "log",
          "type": "uint256"
        },
        {
          "internalType": "uint8",
          "name": "goals",
          "type": "uint8"
        }
      ],
      "name": "addNGoals",
      "outputs": [
        {
          "internalType": "uint256",
          "name": "",
          "type": "uint256"
        }
      ],
      "stateMutability": "pure",
      "type": "function",
      "constant": true
    },
    {
      "inputs": [
        {
          "internalType": "uint256",
          "name": "log",
          "type": "uint256"
        },
        {
          "internalType": "uint8",
          "name": "nTot",
          "type": "uint8"
        },
        {
          "internalType": "bool",
          "name": "is2ndHalf",
          "type": "bool"
        }
      ],
      "name": "addNTot",
      "outputs": [
        {
          "internalType": "uint256",
          "name": "",
          "type": "uint256"
        }
      ],
      "stateMutability": "pure",
      "type": "function",
      "constant": true
    },
    {
      "inputs": [
        {
          "internalType": "uint256",
          "name": "log",
          "type": "uint256"
        },
        {
          "internalType": "uint8",
          "name": "pos",
          "type": "uint8"
        }
      ],
      "name": "addScoredPenalty",
      "outputs": [
        {
          "internalType": "uint256",
          "name": "",
          "type": "uint256"
        }
      ],
      "stateMutability": "pure",
      "type": "function",
      "constant": true
    },
    {
      "inputs": [
        {
          "internalType": "uint256",
          "name": "log",
          "type": "uint256"
        },
        {
          "internalType": "uint8",
          "name": "player",
          "type": "uint8"
        },
        {
          "internalType": "uint8",
          "name": "pos",
          "type": "uint8"
        }
      ],
      "name": "addShooter",
      "outputs": [
        {
          "internalType": "uint256",
          "name": "",
          "type": "uint256"
        }
      ],
      "stateMutability": "pure",
      "type": "function",
      "constant": true
    },
    {
      "inputs": [
        {
          "internalType": "uint256",
          "name": "log",
          "type": "uint256"
        },
        {
          "internalType": "uint256",
          "name": "extraSumSkills",
          "type": "uint256"
        }
      ],
      "name": "addTeamSumSkills",
      "outputs": [
        {
          "internalType": "uint256",
          "name": "",
          "type": "uint256"
        }
      ],
      "stateMutability": "pure",
      "type": "function",
      "constant": true
    },
    {
      "inputs": [
        {
          "internalType": "uint256",
          "name": "log",
          "type": "uint256"
        },
        {
          "internalType": "uint256",
          "name": "points",
          "type": "uint256"
        }
      ],
      "name": "addTrainingPoints",
      "outputs": [
        {
          "internalType": "uint256",
          "name": "",
          "type": "uint256"
        }
      ],
      "stateMutability": "pure",
      "type": "function",
      "constant": true
    },
    {
      "inputs": [
        {
          "internalType": "uint256",
          "name": "log",
          "type": "uint256"
        },
        {
          "internalType": "uint8",
          "name": "winner",
          "type": "uint8"
        }
      ],
      "name": "addWinner",
      "outputs": [
        {
          "internalType": "uint256",
          "name": "",
          "type": "uint256"
        }
      ],
      "stateMutability": "pure",
      "type": "function",
      "constant": true
    },
    {
      "inputs": [
        {
          "internalType": "uint256[2]",
          "name": "logs",
          "type": "uint256[2]"
        },
        {
          "internalType": "uint8",
          "name": "winner",
          "type": "uint8"
        }
      ],
      "name": "addWinnerToBothLogs",
      "outputs": [
        {
          "internalType": "uint256[2]",
          "name": "",
          "type": "uint256[2]"
        }
      ],
      "stateMutability": "pure",
      "type": "function",
      "constant": true
    },
    {
      "inputs": [
        {
          "internalType": "uint256",
          "name": "log",
          "type": "uint256"
        },
        {
          "internalType": "uint8",
          "name": "player",
          "type": "uint8"
        },
        {
          "internalType": "uint8",
          "name": "posInHaf",
          "type": "uint8"
        },
        {
          "internalType": "bool",
          "name": "is2ndHalf",
          "type": "bool"
        }
      ],
      "name": "addYellowCard",
      "outputs": [
        {
          "internalType": "uint256",
          "name": "",
          "type": "uint256"
        }
      ],
      "stateMutability": "pure",
      "type": "function",
      "constant": true
    },
    {
      "inputs": [
        {
          "internalType": "uint256",
          "name": "teamId",
          "type": "uint256"
        },
        {
          "internalType": "uint256",
          "name": "playerCreationDay",
          "type": "uint256"
        },
        {
          "internalType": "uint8",
          "name": "shirtNum",
          "type": "uint8"
        }
      ],
      "name": "computeBirthDayAndPotential",
      "outputs": [
        {
          "internalType": "uint16",
          "name": "dayOfBirth",
          "type": "uint16"
        },
        {
          "internalType": "uint8",
          "name": "potential",
          "type": "uint8"
        }
      ],
      "stateMutability": "pure",
      "type": "function",
      "constant": true
    },
    {
      "inputs": [
        {
          "internalType": "uint256",
          "name": "teamId",
          "type": "uint256"
        },
        {
          "internalType": "uint8",
          "name": "shirtNum",
          "type": "uint8"
        },
        {
          "internalType": "uint8",
          "name": "potential",
          "type": "uint8"
        }
      ],
      "name": "computeSkills",
      "outputs": [
        {
          "internalType": "uint32[5]",
          "name": "",
          "type": "uint32[5]"
        },
        {
          "internalType": "uint8[4]",
          "name": "",
          "type": "uint8[4]"
        },
        {
          "internalType": "uint32",
          "name": "",
          "type": "uint32"
        }
      ],
      "stateMutability": "pure",
      "type": "function",
      "constant": true
    },
    {
      "inputs": [
        {
          "internalType": "uint8",
          "name": "tz",
          "type": "uint8"
        }
      ],
      "name": "countCountries",
      "outputs": [
        {
          "internalType": "uint256",
          "name": "",
          "type": "uint256"
        }
      ],
      "stateMutability": "view",
      "type": "function",
      "constant": true
    },
    {
      "inputs": [
        {
          "internalType": "uint8",
          "name": "timeZone",
          "type": "uint8"
        },
        {
          "internalType": "uint256",
          "name": "countryIdxInTZ",
          "type": "uint256"
        }
      ],
      "name": "countryInTZExists",
      "outputs": [
        {
          "internalType": "bool",
          "name": "",
          "type": "bool"
        }
      ],
      "stateMutability": "view",
      "type": "function",
      "constant": true
    },
    {
      "inputs": [],
      "name": "cryptoMktAddr",
      "outputs": [
        {
          "internalType": "address",
          "name": "",
          "type": "address"
        }
      ],
      "stateMutability": "view",
      "type": "function",
      "constant": true
    },
    {
      "inputs": [
        {
          "internalType": "uint256",
          "name": "dayz",
          "type": "uint256"
        }
      ],
      "name": "daysToSecs",
      "outputs": [
        {
          "internalType": "uint256",
          "name": "",
          "type": "uint256"
        }
      ],
      "stateMutability": "pure",
      "type": "function",
      "constant": true
    },
    {
      "inputs": [
        {
          "internalType": "uint256",
          "name": "encoded",
          "type": "uint256"
        }
      ],
      "name": "decodeTZCountryAndVal",
      "outputs": [
        {
          "internalType": "uint8",
          "name": "",
          "type": "uint8"
        },
        {
          "internalType": "uint256",
          "name": "",
          "type": "uint256"
        },
        {
          "internalType": "uint256",
          "name": "",
          "type": "uint256"
        }
      ],
      "stateMutability": "pure",
      "type": "function",
      "constant": true
    },
    {
      "inputs": [
        {
          "internalType": "uint256",
          "name": "divisionId",
          "type": "uint256"
        }
      ],
      "name": "divisionIdToRound",
      "outputs": [
        {
          "internalType": "uint256",
          "name": "",
          "type": "uint256"
        }
      ],
      "stateMutability": "view",
      "type": "function",
      "constant": true
    },
    {
      "inputs": [
        {
          "internalType": "uint32[5]",
          "name": "skills",
          "type": "uint32[5]"
        },
        {
          "internalType": "uint256",
          "name": "dayOfBirth",
          "type": "uint256"
        },
        {
          "internalType": "uint8",
          "name": "generation",
          "type": "uint8"
        },
        {
          "internalType": "uint256",
          "name": "playerId",
          "type": "uint256"
        },
        {
          "internalType": "uint8[4]",
          "name": "birthTraits",
          "type": "uint8[4]"
        },
        {
          "internalType": "bool",
          "name": "alignedEndOfLastHalf",
          "type": "bool"
        },
        {
          "internalType": "bool",
          "name": "redCardLastGame",
          "type": "bool"
        },
        {
          "internalType": "uint8",
          "name": "gamesNonStopping",
          "type": "uint8"
        },
        {
          "internalType": "uint8",
          "name": "injuryWeeksLeft",
          "type": "uint8"
        },
        {
          "internalType": "bool",
          "name": "substitutedFirstHalf",
          "type": "bool"
        },
        {
          "internalType": "uint32",
          "name": "sumSkills",
          "type": "uint32"
        }
      ],
      "name": "encodePlayerSkills",
      "outputs": [
        {
          "internalType": "uint256",
          "name": "encoded",
          "type": "uint256"
        }
      ],
      "stateMutability": "pure",
      "type": "function",
      "constant": true
    },
    {
      "inputs": [
        {
          "internalType": "uint256",
          "name": "currentTeamId",
          "type": "uint256"
        },
        {
          "internalType": "uint8",
          "name": "currentShirtNum",
          "type": "uint8"
        },
        {
          "internalType": "uint256",
          "name": "prevPlayerTeamId",
          "type": "uint256"
        },
        {
          "internalType": "uint256",
          "name": "lastSaleBlock",
          "type": "uint256"
        }
      ],
      "name": "encodePlayerState",
      "outputs": [
        {
          "internalType": "uint256",
          "name": "",
          "type": "uint256"
        }
      ],
      "stateMutability": "pure",
      "type": "function",
      "constant": true
    },
    {
      "inputs": [
        {
          "internalType": "uint8",
          "name": "timeZone",
          "type": "uint8"
        },
        {
          "internalType": "uint256",
          "name": "countryIdxInTZ",
          "type": "uint256"
        },
        {
          "internalType": "uint256",
          "name": "val",
          "type": "uint256"
        }
      ],
      "name": "encodeTZCountryAndVal",
      "outputs": [
        {
          "internalType": "uint256",
          "name": "",
          "type": "uint256"
        }
      ],
      "stateMutability": "pure",
      "type": "function",
      "constant": true
    },
    {
      "inputs": [],
      "name": "gameDeployDay",
      "outputs": [
        {
          "internalType": "uint256",
          "name": "",
          "type": "uint256"
        }
      ],
      "stateMutability": "view",
      "type": "function",
      "constant": true
    },
    {
      "inputs": [
        {
          "internalType": "uint256",
          "name": "encodedSkills",
          "type": "uint256"
        }
      ],
      "name": "getAggressiveness",
      "outputs": [
        {
          "internalType": "uint256",
          "name": "",
          "type": "uint256"
        }
      ],
      "stateMutability": "pure",
      "type": "function",
      "constant": true
    },
    {
      "inputs": [
        {
          "internalType": "uint256",
          "name": "encodedSkills",
          "type": "uint256"
        }
      ],
      "name": "getAlignedEndOfFirstHalf",
      "outputs": [
        {
          "internalType": "bool",
          "name": "",
          "type": "bool"
        }
      ],
      "stateMutability": "pure",
      "type": "function",
      "constant": true
    },
    {
      "inputs": [
        {
          "internalType": "uint256",
          "name": "log",
          "type": "uint256"
        },
        {
          "internalType": "uint8",
          "name": "pos",
          "type": "uint8"
        }
      ],
      "name": "getAssister",
      "outputs": [
        {
          "internalType": "uint8",
          "name": "",
          "type": "uint8"
        }
      ],
      "stateMutability": "pure",
      "type": "function",
      "constant": true
    },
    {
      "inputs": [
        {
          "internalType": "uint256",
          "name": "encodedSkills",
          "type": "uint256"
        }
      ],
      "name": "getBirthDay",
      "outputs": [
        {
          "internalType": "uint256",
          "name": "",
          "type": "uint256"
        }
      ],
      "stateMutability": "pure",
      "type": "function",
      "constant": true
    },
    {
      "inputs": [
        {
          "internalType": "uint256",
          "name": "log",
          "type": "uint256"
        }
      ],
      "name": "getChangesAtHalfTime",
      "outputs": [
        {
          "internalType": "uint8",
          "name": "nChanges",
          "type": "uint8"
        }
      ],
      "stateMutability": "pure",
      "type": "function",
      "constant": true
    },
    {
      "inputs": [
        {
          "internalType": "uint8",
          "name": "tz",
          "type": "uint8"
        }
      ],
      "name": "getCurrentRound",
      "outputs": [
        {
          "internalType": "uint256",
          "name": "",
          "type": "uint256"
        }
      ],
      "stateMutability": "view",
      "type": "function",
      "constant": true
    },
    {
      "inputs": [
        {
          "internalType": "uint8",
          "name": "tz",
          "type": "uint8"
        },
        {
          "internalType": "uint8",
          "name": "tz1",
          "type": "uint8"
        },
        {
          "internalType": "uint256",
          "name": "verse",
          "type": "uint256"
        }
      ],
      "name": "getCurrentRoundPure",
      "outputs": [
        {
          "internalType": "uint256",
          "name": "",
          "type": "uint256"
        }
      ],
      "stateMutability": "pure",
      "type": "function",
      "constant": true
    },
    {
      "inputs": [
        {
          "internalType": "uint256",
          "name": "playerState",
          "type": "uint256"
        }
      ],
      "name": "getCurrentShirtNum",
      "outputs": [
        {
          "internalType": "uint256",
          "name": "",
          "type": "uint256"
        }
      ],
      "stateMutability": "pure",
      "type": "function",
      "constant": true
    },
    {
      "inputs": [
        {
          "internalType": "uint256",
          "name": "playerState",
          "type": "uint256"
        }
      ],
      "name": "getCurrentTeamIdFromPlayerState",
      "outputs": [
        {
          "internalType": "uint256",
          "name": "",
          "type": "uint256"
        }
      ],
      "stateMutability": "pure",
      "type": "function",
      "constant": true
    },
    {
      "inputs": [
        {
          "internalType": "uint256",
          "name": "tactics",
          "type": "uint256"
        },
        {
          "internalType": "uint8",
          "name": "p",
          "type": "uint8"
        }
      ],
      "name": "getExtraAttack",
      "outputs": [
        {
          "internalType": "bool",
          "name": "",
          "type": "bool"
        }
      ],
      "stateMutability": "pure",
      "type": "function",
      "constant": true
    },
    {
      "inputs": [
        {
          "internalType": "uint256",
          "name": "log",
          "type": "uint256"
        },
        {
          "internalType": "uint8",
          "name": "pos",
          "type": "uint8"
        }
      ],
      "name": "getForwardPos",
      "outputs": [
        {
          "internalType": "uint8",
          "name": "",
          "type": "uint8"
        }
      ],
      "stateMutability": "pure",
      "type": "function",
      "constant": true
    },
    {
      "inputs": [
        {
          "internalType": "uint256",
          "name": "encodedSkills",
          "type": "uint256"
        }
      ],
      "name": "getForwardness",
      "outputs": [
        {
          "internalType": "uint256",
          "name": "",
          "type": "uint256"
        }
      ],
      "stateMutability": "pure",
      "type": "function",
      "constant": true
    },
    {
      "inputs": [
        {
          "internalType": "uint256",
          "name": "tactics",
          "type": "uint256"
        }
      ],
      "name": "getFullExtraAttack",
      "outputs": [
        {
          "internalType": "bool[10]",
          "name": "extraAttack",
          "type": "bool[10]"
        }
      ],
      "stateMutability": "pure",
      "type": "function",
      "constant": true
    },
    {
      "inputs": [
        {
          "internalType": "uint256",
          "name": "tactics",
          "type": "uint256"
        }
      ],
      "name": "getFullLineUp",
      "outputs": [
        {
          "internalType": "uint8[14]",
          "name": "lineup",
          "type": "uint8[14]"
        }
      ],
      "stateMutability": "pure",
      "type": "function",
      "constant": true
    },
    {
      "inputs": [
        {
          "internalType": "uint256",
          "name": "encodedSkills",
          "type": "uint256"
        }
      ],
      "name": "getGamesNonStopping",
      "outputs": [
        {
          "internalType": "uint8",
          "name": "",
          "type": "uint8"
        }
      ],
      "stateMutability": "pure",
      "type": "function",
      "constant": true
    },
    {
      "inputs": [
        {
          "internalType": "uint256",
          "name": "encodedSkills",
          "type": "uint256"
        }
      ],
      "name": "getGeneration",
      "outputs": [
        {
          "internalType": "uint256",
          "name": "",
          "type": "uint256"
        }
      ],
      "stateMutability": "pure",
      "type": "function",
      "constant": true
    },
    {
      "inputs": [
        {
          "internalType": "uint256",
          "name": "log",
          "type": "uint256"
        },
        {
          "internalType": "uint8",
          "name": "pos",
          "type": "uint8"
        }
      ],
      "name": "getHalfTimeSubs",
      "outputs": [
        {
          "internalType": "uint8",
          "name": "",
          "type": "uint8"
        }
      ],
      "stateMutability": "pure",
      "type": "function",
      "constant": true
    },
    {
      "inputs": [
        {
          "internalType": "uint256",
          "name": "log",
          "type": "uint256"
        },
        {
          "internalType": "uint8",
          "name": "posInHalf",
          "type": "uint8"
        },
        {
          "internalType": "bool",
          "name": "is2ndHalf",
          "type": "bool"
        }
      ],
      "name": "getInGameSubsHappened",
      "outputs": [
        {
          "internalType": "uint8",
          "name": "",
          "type": "uint8"
        }
      ],
      "stateMutability": "pure",
      "type": "function",
      "constant": true
    },
    {
      "inputs": [
        {
          "internalType": "uint256",
          "name": "encodedSkills",
          "type": "uint256"
        }
      ],
      "name": "getInjuryWeeksLeft",
      "outputs": [
        {
          "internalType": "uint8",
          "name": "",
          "type": "uint8"
        }
      ],
      "stateMutability": "pure",
      "type": "function",
      "constant": true
    },
    {
      "inputs": [
        {
          "internalType": "uint256",
          "name": "encodedSkills",
          "type": "uint256"
        }
      ],
      "name": "getInternalPlayerId",
      "outputs": [
        {
          "internalType": "uint256",
          "name": "",
          "type": "uint256"
        }
      ],
      "stateMutability": "pure",
      "type": "function",
      "constant": true
    },
    {
      "inputs": [
        {
          "internalType": "uint256",
          "name": "log",
          "type": "uint256"
        }
      ],
      "name": "getIsCancelled",
      "outputs": [
        {
          "internalType": "bool",
          "name": "",
          "type": "bool"
        }
      ],
      "stateMutability": "pure",
      "type": "function",
      "constant": true
    },
    {
      "inputs": [
        {
          "internalType": "uint256",
          "name": "log",
          "type": "uint256"
        }
      ],
      "name": "getIsHomeStadium",
      "outputs": [
        {
          "internalType": "bool",
          "name": "",
          "type": "bool"
        }
      ],
      "stateMutability": "pure",
      "type": "function",
      "constant": true
    },
    {
      "inputs": [
        {
          "internalType": "uint256",
          "name": "state",
          "type": "uint256"
        }
      ],
      "name": "getIsInTransitFromState",
      "outputs": [
        {
          "internalType": "bool",
          "name": "",
          "type": "bool"
        }
      ],
      "stateMutability": "pure",
      "type": "function",
      "constant": true
    },
    {
      "inputs": [
        {
          "internalType": "uint256",
          "name": "encodedSkills",
          "type": "uint256"
        }
      ],
      "name": "getIsSpecial",
      "outputs": [
        {
          "internalType": "bool",
          "name": "",
          "type": "bool"
        }
      ],
      "stateMutability": "pure",
      "type": "function",
      "constant": true
    },
    {
      "inputs": [
        {
          "internalType": "uint256",
          "name": "playerState",
          "type": "uint256"
        }
      ],
      "name": "getLastSaleBlock",
      "outputs": [
        {
          "internalType": "uint256",
          "name": "",
          "type": "uint256"
        }
      ],
      "stateMutability": "pure",
      "type": "function",
      "constant": true
    },
    {
      "inputs": [
        {
          "internalType": "uint256",
          "name": "encodedSkills",
          "type": "uint256"
        }
      ],
      "name": "getLeftishness",
      "outputs": [
        {
          "internalType": "uint256",
          "name": "",
          "type": "uint256"
        }
      ],
      "stateMutability": "pure",
      "type": "function",
      "constant": true
    },
    {
      "inputs": [
        {
          "internalType": "uint256",
          "name": "tactics",
          "type": "uint256"
        },
        {
          "internalType": "uint8",
          "name": "p",
          "type": "uint8"
        }
      ],
      "name": "getLinedUp",
      "outputs": [
        {
          "internalType": "uint8",
          "name": "",
          "type": "uint8"
        }
      ],
      "stateMutability": "pure",
      "type": "function",
      "constant": true
    },
    {
      "inputs": [
        {
          "internalType": "uint8",
          "name": "timeZone",
          "type": "uint8"
        },
        {
          "internalType": "uint256",
          "name": "countryIdxInTZ",
          "type": "uint256"
        }
      ],
      "name": "getNDivisionsInCountry",
      "outputs": [
        {
          "internalType": "uint256",
          "name": "",
          "type": "uint256"
        }
      ],
      "stateMutability": "view",
      "type": "function",
      "constant": true
    },
    {
      "inputs": [
        {
          "internalType": "uint256",
          "name": "log",
          "type": "uint256"
        },
        {
          "internalType": "bool",
          "name": "is2ndHalf",
          "type": "bool"
        }
      ],
      "name": "getNGKAndDefs",
      "outputs": [
        {
          "internalType": "uint8",
          "name": "",
          "type": "uint8"
        }
      ],
      "stateMutability": "pure",
      "type": "function",
      "constant": true
    },
    {
      "inputs": [
        {
          "internalType": "uint256",
          "name": "log",
          "type": "uint256"
        }
      ],
      "name": "getNGoals",
      "outputs": [
        {
          "internalType": "uint8",
          "name": "",
          "type": "uint8"
        }
      ],
      "stateMutability": "pure",
      "type": "function",
      "constant": true
    },
    {
      "inputs": [
        {
          "internalType": "uint8",
          "name": "timeZone",
          "type": "uint8"
        },
        {
          "internalType": "uint256",
          "name": "countryIdxInTZ",
          "type": "uint256"
        }
      ],
      "name": "getNHumansInCountry",
      "outputs": [
        {
          "internalType": "uint256",
          "name": "",
          "type": "uint256"
        }
      ],
      "stateMutability": "view",
      "type": "function",
      "constant": true
    },
    {
      "inputs": [
        {
          "internalType": "uint8",
          "name": "timeZone",
          "type": "uint8"
        },
        {
          "internalType": "uint256",
          "name": "countryIdxInTZ",
          "type": "uint256"
        }
      ],
      "name": "getNLeaguesInCountry",
      "outputs": [
        {
          "internalType": "uint256",
          "name": "",
          "type": "uint256"
        }
      ],
      "stateMutability": "view",
      "type": "function",
      "constant": true
    },
    {
      "inputs": [
        {
          "internalType": "uint8",
          "name": "timeZone",
          "type": "uint8"
        },
        {
          "internalType": "uint256",
          "name": "countryIdxInTZ",
          "type": "uint256"
        }
      ],
      "name": "getNTeamsInCountry",
      "outputs": [
        {
          "internalType": "uint256",
          "name": "",
          "type": "uint256"
        }
      ],
      "stateMutability": "view",
      "type": "function",
      "constant": true
    },
    {
      "inputs": [
        {
          "internalType": "uint256",
          "name": "log",
          "type": "uint256"
        },
        {
          "internalType": "bool",
          "name": "is2ndHalf",
          "type": "bool"
        }
      ],
      "name": "getNTot",
      "outputs": [
        {
          "internalType": "uint8",
          "name": "",
          "type": "uint8"
        }
      ],
      "stateMutability": "pure",
      "type": "function",
      "constant": true
    },
    {
      "inputs": [
        {
          "internalType": "uint256",
          "name": "encodedSkills",
          "type": "uint256"
        }
      ],
      "name": "getOutOfGameFirstHalf",
      "outputs": [
        {
          "internalType": "bool",
          "name": "",
          "type": "bool"
        }
      ],
      "stateMutability": "pure",
      "type": "function",
      "constant": true
    },
    {
      "inputs": [
        {
          "internalType": "uint256",
          "name": "log",
          "type": "uint256"
        },
        {
          "internalType": "bool",
          "name": "is2ndHalf",
          "type": "bool"
        }
      ],
      "name": "getOutOfGamePlayer",
      "outputs": [
        {
          "internalType": "uint256",
          "name": "",
          "type": "uint256"
        }
      ],
      "stateMutability": "pure",
      "type": "function",
      "constant": true
    },
    {
      "inputs": [
        {
          "internalType": "uint256",
          "name": "log",
          "type": "uint256"
        },
        {
          "internalType": "bool",
          "name": "is2ndHalf",
          "type": "bool"
        }
      ],
      "name": "getOutOfGameRound",
      "outputs": [
        {
          "internalType": "uint256",
          "name": "",
          "type": "uint256"
        }
      ],
      "stateMutability": "pure",
      "type": "function",
      "constant": true
    },
    {
      "inputs": [
        {
          "internalType": "uint256",
          "name": "log",
          "type": "uint256"
        },
        {
          "internalType": "bool",
          "name": "is2ndHalf",
          "type": "bool"
        }
      ],
      "name": "getOutOfGameType",
      "outputs": [
        {
          "internalType": "uint256",
          "name": "",
          "type": "uint256"
        }
      ],
      "stateMutability": "pure",
      "type": "function",
      "constant": true
    },
    {
      "inputs": [
        {
          "internalType": "uint8",
          "name": "timeZone",
          "type": "uint8"
        },
        {
          "internalType": "uint256",
          "name": "countryIdxInTZ",
          "type": "uint256"
        },
        {
          "internalType": "uint256",
          "name": "teamIdxInCountry",
          "type": "uint256"
        }
      ],
      "name": "getOwnerTeamInCountry",
      "outputs": [
        {
          "internalType": "address",
          "name": "",
          "type": "address"
        }
      ],
      "stateMutability": "view",
      "type": "function",
      "constant": true
    },
    {
      "inputs": [
        {
          "internalType": "uint256",
          "name": "log",
          "type": "uint256"
        },
        {
          "internalType": "uint8",
          "name": "pos",
          "type": "uint8"
        }
      ],
      "name": "getPenalty",
      "outputs": [
        {
          "internalType": "bool",
          "name": "",
          "type": "bool"
        }
      ],
      "stateMutability": "pure",
      "type": "function",
      "constant": true
    },
    {
      "inputs": [
        {
          "internalType": "uint256",
          "name": "playerId",
          "type": "uint256"
        }
      ],
      "name": "getPlayerAgeInDays",
      "outputs": [
        {
          "internalType": "uint256",
          "name": "",
          "type": "uint256"
        }
      ],
      "stateMutability": "view",
      "type": "function",
      "constant": true
    },
    {
      "inputs": [
        {
          "internalType": "uint256",
          "name": "encodedSkills",
          "type": "uint256"
        }
      ],
      "name": "getPlayerIdFromSkills",
      "outputs": [
        {
          "internalType": "uint256",
          "name": "",
          "type": "uint256"
        }
      ],
      "stateMutability": "pure",
      "type": "function",
      "constant": true
    },
    {
      "inputs": [
        {
          "internalType": "uint256",
          "name": "playerId",
          "type": "uint256"
        }
      ],
      "name": "getPlayerSkillsAtBirth",
      "outputs": [
        {
          "internalType": "uint256",
          "name": "",
          "type": "uint256"
        }
      ],
      "stateMutability": "view",
      "type": "function",
      "constant": true
    },
    {
      "inputs": [
        {
          "internalType": "uint256",
          "name": "playerId",
          "type": "uint256"
        },
        {
          "internalType": "uint256",
          "name": "_gameDeployDay",
          "type": "uint256"
        },
        {
          "internalType": "uint256",
          "name": "_divisionCreationRound",
          "type": "uint256"
        }
      ],
      "name": "getPlayerSkillsAtBirthPure",
      "outputs": [
        {
          "internalType": "uint256",
          "name": "",
          "type": "uint256"
        }
      ],
      "stateMutability": "pure",
      "type": "function",
      "constant": true
    },
    {
      "inputs": [
        {
          "internalType": "uint256",
          "name": "encodedSkills",
          "type": "uint256"
        }
      ],
      "name": "getPotential",
      "outputs": [
        {
          "internalType": "uint256",
          "name": "",
          "type": "uint256"
        }
      ],
      "stateMutability": "pure",
      "type": "function",
      "constant": true
    },
    {
      "inputs": [
        {
          "internalType": "uint256",
          "name": "playerState",
          "type": "uint256"
        }
      ],
      "name": "getPrevPlayerTeamId",
      "outputs": [
        {
          "internalType": "uint256",
          "name": "",
          "type": "uint256"
        }
      ],
      "stateMutability": "pure",
      "type": "function",
      "constant": true
    },
    {
      "inputs": [
        {
          "internalType": "uint256",
          "name": "encodedSkills",
          "type": "uint256"
        }
      ],
      "name": "getRedCardLastGame",
      "outputs": [
        {
          "internalType": "bool",
          "name": "",
          "type": "bool"
        }
      ],
      "stateMutability": "pure",
      "type": "function",
      "constant": true
    },
    {
      "inputs": [
        {
          "internalType": "uint256",
          "name": "log",
          "type": "uint256"
        },
        {
          "internalType": "uint8",
          "name": "pos",
          "type": "uint8"
        }
      ],
      "name": "getShooter",
      "outputs": [
        {
          "internalType": "uint8",
          "name": "",
          "type": "uint8"
        }
      ],
      "stateMutability": "pure",
      "type": "function",
      "constant": true
    },
    {
      "inputs": [
        {
          "internalType": "uint256",
          "name": "encodedSkills",
          "type": "uint256"
        },
        {
          "internalType": "uint8",
          "name": "skillIdx",
          "type": "uint8"
        }
      ],
      "name": "getSkill",
      "outputs": [
        {
          "internalType": "uint256",
          "name": "",
          "type": "uint256"
        }
      ],
      "stateMutability": "pure",
      "type": "function",
      "constant": true
    },
    {
      "inputs": [
        {
          "internalType": "uint256",
          "name": "tactics",
          "type": "uint256"
        },
        {
          "internalType": "uint8",
          "name": "p",
          "type": "uint8"
        }
      ],
      "name": "getSubsRound",
      "outputs": [
        {
          "internalType": "uint8",
          "name": "",
          "type": "uint8"
        }
      ],
      "stateMutability": "pure",
      "type": "function",
      "constant": true
    },
    {
      "inputs": [
        {
          "internalType": "uint256",
          "name": "encodedSkills",
          "type": "uint256"
        }
      ],
      "name": "getSubstitutedFirstHalf",
      "outputs": [
        {
          "internalType": "bool",
          "name": "",
          "type": "bool"
        }
      ],
      "stateMutability": "pure",
      "type": "function",
      "constant": true
    },
    {
      "inputs": [
        {
          "internalType": "uint256",
          "name": "tactics",
          "type": "uint256"
        },
        {
          "internalType": "uint8",
          "name": "p",
          "type": "uint8"
        }
      ],
      "name": "getSubstitution",
      "outputs": [
        {
          "internalType": "uint8",
          "name": "",
          "type": "uint8"
        }
      ],
      "stateMutability": "pure",
      "type": "function",
      "constant": true
    },
    {
      "inputs": [
        {
          "internalType": "uint256",
          "name": "encodedSkills",
          "type": "uint256"
        }
      ],
      "name": "getSumOfSkills",
      "outputs": [
        {
          "internalType": "uint256",
          "name": "",
          "type": "uint256"
        }
      ],
      "stateMutability": "pure",
      "type": "function",
      "constant": true
    },
    {
      "inputs": [
        {
          "internalType": "uint256",
          "name": "tactics",
          "type": "uint256"
        }
      ],
      "name": "getTacticsId",
      "outputs": [
        {
          "internalType": "uint8",
          "name": "",
          "type": "uint8"
        }
      ],
      "stateMutability": "pure",
      "type": "function",
      "constant": true
    },
    {
      "inputs": [
        {
          "internalType": "uint256",
          "name": "playerId",
          "type": "uint256"
        }
      ],
      "name": "getTeamIdCreationDayAndShirtNum",
      "outputs": [
        {
          "internalType": "uint256",
          "name": "teamId",
          "type": "uint256"
        },
        {
          "internalType": "uint256",
          "name": "creationDay",
          "type": "uint256"
        },
        {
          "internalType": "uint8",
          "name": "shirtNum",
          "type": "uint8"
        }
      ],
      "stateMutability": "view",
      "type": "function",
      "constant": true
    },
    {
      "inputs": [
        {
          "internalType": "uint256",
          "name": "playerId",
          "type": "uint256"
        },
        {
          "internalType": "uint256",
          "name": "creationDay",
          "type": "uint256"
        }
      ],
      "name": "getTeamIdCreationDayAndShirtNumPure",
      "outputs": [
        {
          "internalType": "uint256",
          "name": "teamId",
          "type": "uint256"
        },
        {
          "internalType": "uint256",
          "name": "",
          "type": "uint256"
        },
        {
          "internalType": "uint8",
          "name": "shirtNum",
          "type": "uint8"
        }
      ],
      "stateMutability": "pure",
      "type": "function",
      "constant": true
    },
    {
      "inputs": [
        {
          "internalType": "uint256",
          "name": "log",
          "type": "uint256"
        }
      ],
      "name": "getTeamSumSkills",
      "outputs": [
        {
          "internalType": "uint256",
          "name": "",
          "type": "uint256"
        }
      ],
      "stateMutability": "pure",
      "type": "function",
      "constant": true
    },
    {
      "inputs": [
        {
          "internalType": "uint256",
          "name": "log",
          "type": "uint256"
        }
      ],
      "name": "getTrainingPoints",
      "outputs": [
        {
          "internalType": "uint16",
          "name": "",
          "type": "uint16"
        }
      ],
      "stateMutability": "pure",
      "type": "function",
      "constant": true
    },
    {
      "inputs": [
        {
          "internalType": "uint256",
          "name": "log",
          "type": "uint256"
        }
      ],
      "name": "getWinner",
      "outputs": [
        {
          "internalType": "uint8",
          "name": "",
          "type": "uint8"
        }
      ],
      "stateMutability": "pure",
      "type": "function",
      "constant": true
    },
    {
      "inputs": [
        {
          "internalType": "uint256",
          "name": "log",
          "type": "uint256"
        },
        {
          "internalType": "uint8",
          "name": "posInHaf",
          "type": "uint8"
        },
        {
          "internalType": "bool",
          "name": "is2ndHalf",
          "type": "bool"
        }
      ],
      "name": "getYellowCard",
      "outputs": [
        {
          "internalType": "uint8",
          "name": "",
          "type": "uint8"
        }
      ],
      "stateMutability": "pure",
      "type": "function",
      "constant": true
    },
    {
      "inputs": [
        {
          "internalType": "uint256",
          "name": "encodedSkills",
          "type": "uint256"
        }
      ],
      "name": "getYellowCardFirstHalf",
      "outputs": [
        {
          "internalType": "bool",
          "name": "",
          "type": "bool"
        }
      ],
      "stateMutability": "pure",
      "type": "function",
      "constant": true
    },
    {
      "inputs": [
        {
          "internalType": "uint256",
          "name": "teamId",
          "type": "uint256"
        }
      ],
      "name": "isBotTeam",
      "outputs": [
        {
          "internalType": "bool",
          "name": "",
          "type": "bool"
        }
      ],
      "stateMutability": "view",
      "type": "function",
      "constant": true
    },
    {
      "inputs": [
        {
          "internalType": "uint8",
          "name": "timeZone",
          "type": "uint8"
        },
        {
          "internalType": "uint256",
          "name": "countryIdxInTZ",
          "type": "uint256"
        },
        {
          "internalType": "uint256",
          "name": "teamIdxInCountry",
          "type": "uint256"
        }
      ],
      "name": "isBotTeamInCountry",
      "outputs": [
        {
          "internalType": "bool",
          "name": "",
          "type": "bool"
        }
      ],
      "stateMutability": "view",
      "type": "function",
      "constant": true
    },
    {
      "inputs": [],
      "name": "market",
      "outputs": [
        {
          "internalType": "address",
          "name": "",
          "type": "address"
        }
      ],
      "stateMutability": "view",
      "type": "function",
      "constant": true
    },
    {
      "inputs": [],
      "name": "nextTimeZoneToUpdate",
      "outputs": [
        {
          "internalType": "uint8",
          "name": "tz",
          "type": "uint8"
        },
        {
          "internalType": "uint8",
          "name": "day",
          "type": "uint8"
        },
        {
          "internalType": "uint8",
          "name": "turnInDay",
          "type": "uint8"
        }
      ],
      "stateMutability": "view",
      "type": "function",
      "constant": true
    },
    {
      "inputs": [
        {
          "internalType": "uint256",
          "name": "tz",
          "type": "uint256"
        }
      ],
      "name": "normalizeTZ",
      "outputs": [
        {
          "internalType": "uint8",
          "name": "",
          "type": "uint8"
        }
      ],
      "stateMutability": "pure",
      "type": "function",
      "constant": true
    },
    {
      "inputs": [],
      "name": "prevTimeZoneToUpdate",
      "outputs": [
        {
          "internalType": "uint8",
          "name": "tz",
          "type": "uint8"
        },
        {
          "internalType": "uint8",
          "name": "day",
          "type": "uint8"
        },
        {
          "internalType": "uint8",
          "name": "turnInDay",
          "type": "uint8"
        }
      ],
      "stateMutability": "view",
      "type": "function",
      "constant": true
    },
    {
      "inputs": [],
      "name": "relay",
      "outputs": [
        {
          "internalType": "address",
          "name": "",
          "type": "address"
        }
      ],
      "stateMutability": "view",
      "type": "function",
      "constant": true
    },
    {
      "inputs": [
        {
          "internalType": "uint256",
          "name": "secs",
          "type": "uint256"
        }
      ],
      "name": "secsToDays",
      "outputs": [
        {
          "internalType": "uint256",
          "name": "",
          "type": "uint256"
        }
      ],
      "stateMutability": "pure",
      "type": "function",
      "constant": true
    },
    {
      "inputs": [
        {
          "internalType": "uint256",
          "name": "log",
          "type": "uint256"
        },
        {
          "internalType": "uint8",
          "name": "nChanges",
          "type": "uint8"
        }
      ],
      "name": "setChangesAtHalfTime",
      "outputs": [
        {
          "internalType": "uint256",
          "name": "",
          "type": "uint256"
        }
      ],
      "stateMutability": "pure",
      "type": "function",
      "constant": true
    },
    {
      "inputs": [
        {
          "internalType": "uint256",
          "name": "state",
          "type": "uint256"
        },
        {
          "internalType": "uint8",
          "name": "currentShirtNum",
          "type": "uint8"
        }
      ],
      "name": "setCurrentShirtNum",
      "outputs": [
        {
          "internalType": "uint256",
          "name": "",
          "type": "uint256"
        }
      ],
      "stateMutability": "pure",
      "type": "function",
      "constant": true
    },
    {
      "inputs": [
        {
          "internalType": "uint256",
          "name": "playerState",
          "type": "uint256"
        },
        {
          "internalType": "uint256",
          "name": "teamId",
          "type": "uint256"
        }
      ],
      "name": "setCurrentTeamId",
      "outputs": [
        {
          "internalType": "uint256",
          "name": "",
          "type": "uint256"
        }
      ],
      "stateMutability": "pure",
      "type": "function",
      "constant": true
    },
    {
      "inputs": [
        {
          "internalType": "uint256",
          "name": "log",
          "type": "uint256"
        },
        {
          "internalType": "uint8",
          "name": "happenedType",
          "type": "uint8"
        },
        {
          "internalType": "uint8",
          "name": "posInHalf",
          "type": "uint8"
        },
        {
          "internalType": "bool",
          "name": "is2ndHalf",
          "type": "bool"
        }
      ],
      "name": "setInGameSubsHappened",
      "outputs": [
        {
          "internalType": "uint256",
          "name": "",
          "type": "uint256"
        }
      ],
      "stateMutability": "pure",
      "type": "function",
      "constant": true
    },
    {
      "inputs": [
        {
          "internalType": "uint256",
          "name": "log",
          "type": "uint256"
        },
        {
          "internalType": "bool",
          "name": "val",
          "type": "bool"
        }
      ],
      "name": "setIsCancelled",
      "outputs": [
        {
          "internalType": "uint256",
          "name": "",
          "type": "uint256"
        }
      ],
      "stateMutability": "pure",
      "type": "function",
      "constant": true
    },
    {
      "inputs": [
        {
          "internalType": "uint256",
          "name": "log",
          "type": "uint256"
        },
        {
          "internalType": "bool",
          "name": "val",
          "type": "bool"
        }
      ],
      "name": "setIsHomeStadium",
      "outputs": [
        {
          "internalType": "uint256",
          "name": "",
          "type": "uint256"
        }
      ],
      "stateMutability": "pure",
      "type": "function",
      "constant": true
    },
    {
      "inputs": [
        {
          "internalType": "uint256",
          "name": "state",
          "type": "uint256"
        },
        {
          "internalType": "uint256",
          "name": "lastSaleBlock",
          "type": "uint256"
        }
      ],
      "name": "setLastSaleBlock",
      "outputs": [
        {
          "internalType": "uint256",
          "name": "",
          "type": "uint256"
        }
      ],
      "stateMutability": "pure",
      "type": "function",
      "constant": true
    },
    {
      "inputs": [
        {
          "internalType": "uint256",
          "name": "log",
          "type": "uint256"
        },
        {
          "internalType": "uint8",
          "name": "player",
          "type": "uint8"
        },
        {
          "internalType": "uint8",
          "name": "round",
          "type": "uint8"
        },
        {
          "internalType": "uint8",
          "name": "typeOfOutOfGame",
          "type": "uint8"
        },
        {
          "internalType": "bool",
          "name": "is2ndHalf",
          "type": "bool"
        }
      ],
      "name": "setOutOfGame",
      "outputs": [
        {
          "internalType": "uint256",
          "name": "",
          "type": "uint256"
        }
      ],
      "stateMutability": "pure",
      "type": "function",
      "constant": true
    },
    {
      "inputs": [
        {
          "internalType": "uint256",
          "name": "state",
          "type": "uint256"
        },
        {
          "internalType": "uint256",
          "name": "value",
          "type": "uint256"
        }
      ],
      "name": "setPrevPlayerTeamId",
      "outputs": [
        {
          "internalType": "uint256",
          "name": "",
          "type": "uint256"
        }
      ],
      "stateMutability": "pure",
      "type": "function",
      "constant": true
    },
    {
      "inputs": [
        {
          "internalType": "uint8",
          "name": "timeZone",
          "type": "uint8"
        },
        {
          "internalType": "uint256",
          "name": "countryIdxInTZ",
          "type": "uint256"
        },
        {
          "internalType": "uint256",
          "name": "teamIdxInCountry",
          "type": "uint256"
        }
      ],
      "name": "teamExistsInCountry",
      "outputs": [
        {
          "internalType": "bool",
          "name": "",
          "type": "bool"
        }
      ],
      "stateMutability": "view",
      "type": "function",
      "constant": true
    },
    {
      "inputs": [
        {
          "internalType": "uint256",
          "name": "verse",
          "type": "uint256"
        },
        {
          "internalType": "uint8",
          "name": "TZForRound1",
          "type": "uint8"
        }
      ],
      "name": "timeZoneToUpdatePure",
      "outputs": [
        {
          "internalType": "uint8",
          "name": "timezone",
          "type": "uint8"
        },
        {
          "internalType": "uint8",
          "name": "day",
          "type": "uint8"
        },
        {
          "internalType": "uint8",
          "name": "turnInDay",
          "type": "uint8"
        }
      ],
      "stateMutability": "pure",
      "type": "function",
      "constant": true
    },
    {
      "inputs": [
        {
          "internalType": "uint8",
          "name": "timeZone",
          "type": "uint8"
        }
      ],
      "name": "tzExists",
      "outputs": [
        {
          "internalType": "bool",
          "name": "",
          "type": "bool"
        }
      ],
      "stateMutability": "pure",
      "type": "function",
      "constant": true
    },
    {
      "inputs": [
        {
          "internalType": "uint8",
          "name": "timeZone",
          "type": "uint8"
        },
        {
          "internalType": "uint256",
          "name": "countryIdxInTZ",
          "type": "uint256"
        },
        {
          "internalType": "uint256",
          "name": "playerIdxInCountry",
          "type": "uint256"
        }
      ],
      "name": "wasPlayerCreatedInCountry",
      "outputs": [
        {
          "internalType": "bool",
          "name": "",
          "type": "bool"
        }
      ],
      "stateMutability": "view",
      "type": "function",
      "constant": true
    },
    {
      "inputs": [
        {
          "internalType": "uint256",
          "name": "playerId",
          "type": "uint256"
        }
      ],
      "name": "wasPlayerCreatedVirtually",
      "outputs": [
        {
          "internalType": "bool",
          "name": "",
          "type": "bool"
        }
      ],
      "stateMutability": "view",
      "type": "function",
      "constant": true
    },
    {
      "inputs": [
        {
          "internalType": "uint256",
          "name": "teamId",
          "type": "uint256"
        }
      ],
      "name": "wasTeamCreatedVirtually",
      "outputs": [
        {
          "internalType": "bool",
          "name": "",
          "type": "bool"
        }
      ],
      "stateMutability": "view",
      "type": "function",
      "constant": true
    },
    {
      "inputs": [
        {
          "internalType": "uint8",
          "name": "timeZone",
          "type": "uint8"
        },
        {
          "internalType": "uint256",
          "name": "countryIdxInTZ",
          "type": "uint256"
        },
        {
          "internalType": "uint256",
          "name": "teamIdxInTZ",
          "type": "uint256"
        },
        {
          "internalType": "uint256",
          "name": "deployTimeInUnixEpochSecs",
          "type": "uint256"
        },
        {
          "internalType": "uint256",
          "name": "divisionCreationRound",
          "type": "uint256"
        }
      ],
      "name": "createTeam",
      "outputs": [
        {
          "internalType": "uint256",
          "name": "teamId",
          "type": "uint256"
        },
        {
          "internalType": "uint256[18]",
          "name": "playerIds",
          "type": "uint256[18]"
        },
        {
          "internalType": "uint256[18]",
          "name": "playerSkillsAtBirth",
          "type": "uint256[18]"
        }
      ],
      "stateMutability": "pure",
      "type": "function",
      "constant": true
    },
    {
      "inputs": [
        {
          "internalType": "uint256[18]",
          "name": "encodedSkills",
          "type": "uint256[18]"
        }
      ],
      "name": "fullDecodeSkillsForEntireTeam",
      "outputs": [
        {
          "internalType": "uint32[5][18]",
          "name": "skills",
          "type": "uint32[5][18]"
        },
        {
          "internalType": "uint16[18]",
          "name": "dayOfBirth",
          "type": "uint16[18]"
        },
        {
          "internalType": "uint8[4][18]",
          "name": "birthTraits",
          "type": "uint8[4][18]"
        },
        {
          "internalType": "uint256[18]",
          "name": "playerId",
          "type": "uint256[18]"
        },
        {
          "internalType": "bool[5][18]",
          "name": "aligned1stSubst1stRedCardLastGameOutOfGame1stYellow1st",
          "type": "bool[5][18]"
        },
        {
          "internalType": "uint8[3][18]",
          "name": "generationGamesNonStopInjuryWeeks",
          "type": "uint8[3][18]"
        }
      ],
      "stateMutability": "pure",
      "type": "function",
      "constant": true
    },
    {
      "inputs": [
        {
          "internalType": "uint256",
          "name": "log",
          "type": "uint256"
        },
        {
          "internalType": "bool",
          "name": "is2ndHalf",
          "type": "bool"
        }
      ],
      "name": "fullDecodeMatchLog",
      "outputs": [
        {
          "internalType": "uint32[15]",
          "name": "decodedLog",
          "type": "uint32[15]"
        }
      ],
      "stateMutability": "pure",
      "type": "function",
      "constant": true
    },
    {
      "inputs": [
        {
          "internalType": "uint256",
          "name": "encodedSkills",
          "type": "uint256"
        }
      ],
      "name": "fullDecodeSkills",
      "outputs": [
        {
          "internalType": "uint32[5]",
          "name": "skills",
          "type": "uint32[5]"
        },
        {
          "internalType": "uint16",
          "name": "dayOfBirth",
          "type": "uint16"
        },
        {
          "internalType": "uint8[4]",
          "name": "birthTraits",
          "type": "uint8[4]"
        },
        {
          "internalType": "uint256",
          "name": "playerId",
          "type": "uint256"
        },
        {
          "internalType": "bool[5]",
          "name": "aligned1stSubst1stRedCardLastGameOutOfGame1stYellow1st",
          "type": "bool[5]"
        },
        {
          "internalType": "uint8[3]",
          "name": "generationGamesNonStopInjuryWeeks",
          "type": "uint8[3]"
        }
      ],
      "stateMutability": "pure",
      "type": "function",
      "constant": true
    },
    {
      "inputs": [],
      "name": "getNow",
      "outputs": [
        {
          "internalType": "uint256",
          "name": "",
          "type": "uint256"
        }
      ],
      "stateMutability": "view",
      "type": "function",
      "constant": true
    },
    {
      "inputs": [
        {
          "internalType": "uint256",
          "name": "tactics",
          "type": "uint256"
        }
      ],
      "name": "decodeTactics",
      "outputs": [
        {
          "internalType": "uint8[3]",
          "name": "substitutions",
          "type": "uint8[3]"
        },
        {
          "internalType": "uint8[3]",
          "name": "subsRounds",
          "type": "uint8[3]"
        },
        {
          "internalType": "uint8[14]",
          "name": "lineup",
          "type": "uint8[14]"
        },
        {
          "internalType": "bool[10]",
          "name": "extraAttack",
          "type": "bool[10]"
        },
        {
          "internalType": "uint8",
          "name": "tacticsId",
          "type": "uint8"
        }
      ],
      "stateMutability": "pure",
      "type": "function",
      "constant": true
    }
  ],
  "bytecode": "0x608060405234801561001057600080fd5b50613bf9806100206000396000f3fe608060405234801561001057600080fd5b50600436106107165760003560e01c80638608ff43116103a8578063c73f808d116101f4578063e37528bb1161011a578063f0789df6116100b8578063f81c7a4511610087578063f81c7a4514611c43578063f9d0723d14611c69578063fc4cd37214611c8f578063fcf9b3be14611cca57610716565b8063f0789df614611bc0578063f1d6521214611be6578063f2c3576414611c09578063f2dc657f14611c2657610716565b8063e804e519116100f4578063e804e51914611b3b578063e9b6645414611b58578063eb78b7b714611b7e578063eed3142814611b9b57610716565b8063e37528bb14611a12578063e4eec4be14611a2f578063e6400ac414611a5557610716565b8063d1b3d8fd11610192578063d8f73c3c11610161578063d8f73c3c146119b2578063dcadab5c146119ba578063df1beecb146119d7578063e1b27e6b14611a0a57610716565b8063d1b3d8fd14611933578063d2f7967d14611950578063d403fabd1461196d578063d5a4d6c01461198d57610716565b8063ce506ec5116101ce578063ce506ec5146118b4578063ce968164146118da578063cebc43a61461190e578063d02254a51461191657610716565b8063c73f808d1461184c578063cbbfac6614611869578063cc7d473b1461189757610716565b8063b1c2c8a3116102d9578063c04f6d5311610277578063c395d7a811610246578063c395d7a814611617578063c3dfd0091461161f578063c566b5bc14611809578063c64818551461182657610716565b8063c04f6d53146114c8578063c0853a7c146114ee578063c2bc41cd146115d7578063c37b1c25146115f457610716565b8063ba8dfa46116102b3578063ba8dfa4614611445578063bbb1178014611462578063bbe4fd5014611492578063bf8bf7191461149a57610716565b8063b1c2c8a3146113d1578063b2a04256146113ff578063b59589d11461143d57610716565b806399dfedb411610346578063a21ef9fa11610320578063a21ef9fa1461133d578063a7d0238a1461135a578063ae59df9d14611388578063af76cd01146113ae57610716565b806399dfedb4146112d55780639e8530ff146112f25780639f7d3b7f1461131757610716565b80638b6f120f116103825780638b6f120f1461122a5780638cc9a8d51461125d578063919e27621461127a578063989aa222146112b257610716565b80638608ff43146111b25780638828a761146111e45780638a89148c1461122257610716565b8063471d6e8011610567578063658d2da5116104985780637933e883116104365780637ffa3a2e116104055780637ffa3a2e1461114157806380bac7091461115e57806380c794ce1461118a57806380f55605146111aa57610716565b80637933e883146110c457806379e76597146110e15780637a8409b3146110fe5780637d3921cd1461112457610716565b8063749028e111610472578063749028e114610fa0578063754b7cf41461104457806376c2d9601461106a57806376f96f421461109657610716565b8063658d2da514610f405780636a6cb69f14610f5d5780636f6c2ae014610f8357610716565b806356e3df97116105055780635ac78b11116104df5780635ac78b1114610e9b5780635adb40f514610ec95780635bdc6b5814610eef5780636223304514610f1d57610716565b806356e3df9714610e195780635940a77f14610e36578063595ef25b14610e5357610716565b80634bea2a69116105415780634bea2a6914610d825780634c0b044a14610d9f5780634cc3e34f14610dcd5780634db989fd14610df357610716565b8063471d6e8014610cf557806347524b6014610d40578063494dd3f414610d5d57610716565b806329d0dcfb1161064c5780633518dd1d116105ea5780633be83c0a116105b95780633be83c0a14610c525780634129b2c914610c6f578063434807ad14610c8c57806343af15ee14610ca957610716565b80633518dd1d14610bcf57806335515f7814610bec57806335b6ab7a14610c0957806337a8630214610c2f57610716565b80632eb7cfa7116106265780632eb7cfa714610ad65780633260840b14610b5f578063332b8ea314610b9e57806334ff473514610ba657610716565b806329d0dcfb146109c45780632a3328f6146109ea5780632ead055314610a0f57610716565b8063111cfab3116106b9578063190e5f8c11610693578063190e5f8c146109245780631d1e84de146109555780631fc7768f1461097b57806320748ae81461099857610716565b8063111cfab31461083d578063127f05e01461085a578063185e456f146108ff57610716565b80630abcd3e5116106f55780630abcd3e5146107a35780630ae78a39146107c35780630f14aef4146107fb5780631060c9c21461082057610716565b80620edf9b1461071b578063022da63a1461074a57806305f0bb7b14610767575b600080fd5b6107386004803603602081101561073157600080fd5b5035611cf6565b60408051918252519081900360200190f35b6107386004803603602081101561076057600080fd5b5035611d02565b61078d6004803603604081101561077d57600080fd5b508035906020013560ff16611d0d565b6040805160ff9092168252519081900360200190f35b610738600480360360208110156107b957600080fd5b503560ff16611d24565b610738600480360360808110156107d957600080fd5b5080359060ff6020820135811691604081013590911690606001351515611d3a565b6107386004803603604081101561081157600080fd5b50803590602001351515611d77565b6107386004803603602081101561083657600080fd5b5035611da1565b6107386004803603602081101561085357600080fd5b5035611dac565b6108886004803603606081101561087057600080fd5b5080359060ff60208201358116916040013516611dbf565b604051808460a080838360005b838110156108ad578181015183820152602001610895565b5050505090500183600460200280838360005b838110156108d85781810151838201526020016108c0565b505050509050018263ffffffff1663ffffffff168152602001935050505060405180910390f35b6107386004803603604081101561091557600080fd5b5080359060200135151561206e565b6109416004803603602081101561093a57600080fd5b5035612098565b604080519115158252519081900360200190f35b61078d6004803603604081101561096b57600080fd5b508035906020013560ff166120a4565b6107386004803603602081101561099157600080fd5b50356120b4565b610738600480360360608110156109ae57600080fd5b5060ff81351690602081013590604001356120bd565b610738600480360360408110156109da57600080fd5b508035906020013560ff166121db565b61073860048036036040811015610a0057600080fd5b508035906020013515156121ea565b6107386004803603610240811015610a2657600080fd5b810190808060a001906005806020026040519081016040528092919082600560200280828437600092019190915250506040805160808181018352939685359660ff6020880135169693840135959194509260e081019291606090910190600490839083908082843760009201919091525091945050508035151591506020810135151590604081013560ff90811691606081013590911690608081013515159060a0013563ffffffff1661220d565b610b2460048036036060811015610aec57600080fd5b6040805180820182529183019291818301918390600290839083908082843760009201919091525091945050503560ff1690506125ea565b6040518082600260200280838360005b83811015610b4c578181015183820152602001610b34565b5050505090500191505060405180910390f35b610b7c60048036036020811015610b7557600080fd5b5035612628565b6040805160ff9094168452602084019290925282820152519081900360600190f35b610738612644565b61073860048036036060811015610bbc57600080fd5b508035906020810135906040013561264b565b61073860048036036020811015610be557600080fd5b50356126da565b61078d60048036036020811015610c0257600080fd5b50356126e3565b61094160048036036040811015610c1f57600080fd5b508035906020013560ff166126e9565b61073860048036036040811015610c4557600080fd5b50803590602001356126f9565b61073860048036036020811015610c6857600080fd5b5035612770565b61078d60048036036020811015610c8557600080fd5b5035612779565b61073860048036036020811015610ca257600080fd5b5035612782565b610cd560048036036060811015610cbf57600080fd5b508035906020810135906040013560ff1661278b565b6040805161ffff909316835260ff90911660208301528051918290030190f35b610d1b60048036036040811015610d0b57600080fd5b508035906020013560ff16612858565b6040805160ff9485168152928416602084015292168183015290519081900360600190f35b61094160048036036020811015610d5657600080fd5b5035612922565b61073860048036036040811015610d7357600080fd5b5080359060200135151561292e565b61073860048036036020811015610d9857600080fd5b5035612958565b61073860048036036060811015610db557600080fd5b5080359060ff60208201351690604001351515612966565b61073860048036036040811015610de357600080fd5b508035906020013560ff1661298e565b61073860048036036040811015610e0957600080fd5b508035906020013560ff1661299e565b61073860048036036020811015610e2f57600080fd5b5035612a19565b61073860048036036020811015610e4c57600080fd5b5035612a22565b610e7f60048036036060811015610e6957600080fd5b5060ff8135169060208101359060400135612a4a565b604080516001600160a01b039092168252519081900360200190f35b61073860048036036060811015610eb157600080fd5b5080359060ff60208201358116916040013516612aa7565b61073860048036036040811015610edf57600080fd5b5060ff8135169060200135612abc565b61078d60048036036060811015610f0557600080fd5b5080359060ff60208201351690604001351515612b0f565b61073860048036036040811015610f3357600080fd5b5080359060200135612b3f565b61094160048036036020811015610f5657600080fd5b5035612b46565b61073860048036036040811015610f7357600080fd5b5060ff8135169060200135612b52565b61073860048036036020811015610f9957600080fd5b5035612b65565b610fd8600480360360a0811015610fb657600080fd5b5060ff8135169060208101359060408101359060608101359060800135612b86565b604051838152602081018361024080838360005b83811015611004578181015183820152602001610fec565b5050505090500182601260200280838360005b8381101561102f578181015183820152602001611017565b50505050905001935050505060405180910390f35b61078d6004803603604081101561105a57600080fd5b508035906020013560ff16612c18565b6109416004803603606081101561108057600080fd5b5060ff8135169060208101359060400135612c28565b610738600480360360608110156110ac57600080fd5b5080359060ff60208201358116916040013516612c3e565b610941600480360360208110156110da57600080fd5b5035612c54565b61078d600480360360208110156110f757600080fd5b5035612c68565b61078d6004803603604081101561111457600080fd5b508035906020013560ff16612c71565b61078d6004803603602081101561113a57600080fd5b5035612c81565b6109416004803603602081101561115757600080fd5b5035612c87565b6109416004803603606081101561117457600080fd5b5060ff8135169060208101359060400135612c93565b610738600480360360208110156111a057600080fd5b503560ff16612cb3565b610e7f612ccd565b610738600480360360808110156111c857600080fd5b5080359060ff6020820135169060408101359060600135612cdd565b611201600480360360208110156111fa57600080fd5b5035612d19565b60408051938452602084019290925260ff1682820152519081900360600190f35b610d1b612d84565b6112476004803603602081101561124057600080fd5b5035612dab565b6040518151815280826101c08083836020610b34565b6109416004803603602081101561127357600080fd5b5035612dfc565b6107386004803603608081101561129057600080fd5b5080359060ff6020820135811691604081013590911690606001351515612e2d565b610738600480360360408110156112c857600080fd5b5080359060200135612e5b565b610738600480360360208110156112eb57600080fd5b5035612e62565b61078d6004803603604081101561130857600080fd5b50803590602001351515612e6d565b6107386004803603604081101561132d57600080fd5b508035906020013560ff16612e95565b6109416004803603602081101561135357600080fd5b5035612ea2565b6107386004803603606081101561137057600080fd5b5080359060ff60208201358116916040013516612ecb565b61078d6004803603604081101561139e57600080fd5b508035906020013560ff16612ee1565b610738600480360360408110156113c457600080fd5b5080359060200135612ef1565b61078d600480360360608110156113e757600080fd5b5080359060ff60208201351690604001351515612f63565b610738600480360360a081101561141557600080fd5b5080359060ff6020820135811691604081013582169160608201351690608001351515612f90565b610e7f612fe3565b61078d6004803603602081101561145b57600080fd5b5035612ff3565b6107386004803603606081101561147857600080fd5b5060ff813581169160208101359091169060400135612ffc565b61073861305e565b610738600480360360608110156114b057600080fd5b5080359060ff60208201351690604001351515613062565b610738600480360360408110156114de57600080fd5b5060ff813516906020013561308d565b61150b6004803603602081101561150457600080fd5b50356130a3565b604051808760a080838360005b83811015611530578181015183820152602001611518565b5050505061ffff891692019182525060200185608080838360005b8381101561156357818101518382015260200161154b565b5050505090500184815260200183600560200280838360005b8381101561159457818101518382015260200161157c565b5050505090500182600360200280838360005b838110156115bf5781810151838201526020016115a7565b50505050905001965050505050505060405180910390f35b610738600480360360208110156115ed57600080fd5b50356131e7565b6107386004803603604081101561160a57600080fd5b50803590602001356131f0565b610d1b61325e565b611673600480360361024081101561163657600080fd5b8101908080610240019060128060200260405190810160405280929190826012602002808284376000920191909152509194506132969350505050565b6040516000876012835b818410156116bd576020840283015160a080838360005b838110156116ac578181015183820152602001611694565b50505050905001926001019261167d565b9250505086601260200280838360005b838110156116e55781810151838201526020016116cd565b505050509050018560126000925b818410156117335760208402830151608080838360005b8381101561172257818101518382015260200161170a565b5050505090500192600101926116f3565b9250505084601260200280838360005b8381101561175b578181015183820152602001611743565b505050509050018360126000925b818410156117a9576020840283015160a080838360005b83811015611798578181015183820152602001611780565b505050509050019260010192611769565b925050508260126000925b818410156117f45760208402830151606080838360005b838110156117e35781810151838201526020016117cb565b5050505090500192600101926117b4565b92505050965050505050505060405180910390f35b6107386004803603602081101561181f57600080fd5b50356134af565b6107386004803603604081101561183c57600080fd5b508035906020013560ff166134bc565b6107386004803603602081101561186257600080fd5b50356134d5565b6107386004803603606081101561187f57600080fd5b5080359060ff6020820135811691604001351661355b565b610941600480360360208110156118ad57600080fd5b5035613571565b610941600480360360408110156118ca57600080fd5b5060ff813516906020013561357d565b6118f7600480360360208110156118f057600080fd5b5035613597565b6040805161ffff9092168252519081900360200190f35b610e7f6135a1565b6109416004803603602081101561192c57600080fd5b50356135b1565b6109416004803603602081101561194957600080fd5b50356135d1565b6107386004803603602081101561196657600080fd5b50356135dd565b6109416004803603602081101561198357600080fd5b503560ff166135eb565b610738600480360360408110156119a357600080fd5b50803590602001351515613606565b610e7f613630565b61078d600480360360208110156119d057600080fd5b5035613640565b6119f4600480360360208110156119ed57600080fd5b5035613653565b6040518151815280826101408083836020610b34565b610e7f6136a9565b61094160048036036020811015611a2857600080fd5b50356136b9565b61078d60048036036040811015611a4557600080fd5b508035906020013560ff166136c5565b611a7260048036036020811015611a6b57600080fd5b50356136d5565b6040518086606080838360005b83811015611a97578181015183820152602001611a7f565b5050505090500185600360200280838360005b83811015611ac2578181015183820152602001611aaa565b5050505090500184600e60200280838360005b83811015611aed578181015183820152602001611ad5565b5050505090500183600a60200280838360005b83811015611b18578181015183820152602001611b00565b505050509050018260ff1660ff1681526020019550505050505060405180910390f35b61078d60048036036020811015611b5157600080fd5b503561379d565b61094160048036036040811015611b6e57600080fd5b508035906020013560ff166137a6565b61073860048036036020811015611b9457600080fd5b50356137cc565b61078d60048036036040811015611bb157600080fd5b508035906020013515156137d5565b61078d60048036036040811015611bd657600080fd5b508035906020013560ff166137fa565b61120160048036036040811015611bfc57600080fd5b508035906020013561380a565b61094160048036036020811015611c1f57600080fd5b5035613844565b61073860048036036020811015611c3c57600080fd5b5035613850565b61073860048036036040811015611c5957600080fd5b508035906020013560ff1661385a565b61073860048036036040811015611c7f57600080fd5b5060ff8135169060200135613861565b611cb460048036036040811015611ca557600080fd5b5080359060200135151561386f565b6040518151815280826101e08083836020610b34565b61094160048036036060811015611ce057600080fd5b5060ff81351690602081013590604001356139b2565b6201518081025b919050565b6507ffffffffff1690565b601f60ff601060058402011683901c165b92915050565b60ff166000908152611017602052604090205490565b60008082611d49576000611d4c565b60035b840160020260a70190508060ff168560ff16901b8160ff166003901b19871617915050949350505050565b600060fb82611d87576000611d8a565b60015b60ff16901b60fb6001901b19841617905092915050565b60b51c6207ffff1690565b6000908152611014602052604090205490565b611dc76139cb565b611dcf6139e9565b6000611dd96139cb565b611de16139cb565b6040805160208082018b905260ff8a1682840181905283518084038501815260609093019093528151910120600281811c9260009283926003909116911015611e3b57600e85526006604086015260009250829150611f03565b60078b60ff161015611e65576004855260106060860152600192506007845b066001019150611f03565b600a8b60ff161015611e84576010604086015260029250600784611e5a565b600c8b60ff161015611ea657600d604086015260078086526004935084611e5a565b600e8b60ff161015611ecc57600d60408601526007606086018190526005935084611e5a565b60108b60ff161015611ef05760108552600560608601526003925060069150611f03565b6010855260056060860152600392508291505b60039390931c926000805b600560ff82161015611fcf57868160ff1660058110611f2957fe5b6020020151611f5f57610320860661ffff16888260ff1660058110611f4a57fe5b63ffffffff9092166020929092020152611fa7565b600a878260ff1660058110611f7057fe5b602002015161032088060281611f8257fe5b0461ffff16888260ff1660058110611f9657fe5b63ffffffff90921660209290920201525b878160ff1660058110611fb657fe5b6020020151600a9690961c959190910190600101611f0e565b50600561138882900363ffffffff160460005b600560ff8216101561202b5781898260ff1660058110611ffe57fe5b602002015101898260ff166005811061201357fe5b63ffffffff9092166020929092020152600101611fe2565b506040805160808101825260ff9d8e168152958d166020870152938c169385019390935299166060830152939a9099506005909302909601965090945050505050565b600060f88261207e576000612081565b60015b60ff16901b60f86001901b19841617905092915050565b60f81c60019081161490565b60040260340160ff161c600f1690565b607e1c60071690565b600060208460ff161061210f576040805162461bcd60e51b81526020600482015260156024820152741d1a5b595e9bdb99481bdd5d081bd988189bdd5b99605a1b604482015290519081900360640190fd5b6104008310612165576040805162461bcd60e51b815260206004820152601b60248201527f636f756e747279496478496e545a206f7574206f6620626f756e640000000000604482015290519081900360640190fd5b631000000082106121bd576040805162461bcd60e51b815260206004820152601a60248201527f76616c20746f20656e636f6465206f7574206f6620626f756e64000000000000604482015290519081900360640190fd5b50601c82901b653fc000000000602685901b161781175b9392505050565b60ff166014021c620fffff1690565b600080826121f95760836121fc565b608d5b60ff169390931c600f169392505050565b8651600090600a60ff90911610612264576040805162461bcd60e51b81526020600482015260166024820152751c1bdd195b9d1a585b081bdd5d081bd988189bdd5b9960521b604482015290519081900360640190fd5b6006886001602002015160ff16106122c3576040805162461bcd60e51b815260206004820152601860248201527f666f72776172646e657373206f7574206f6620626f756e640000000000000000604482015290519081900360640190fd5b6008886002602002015160ff1610612322576040805162461bcd60e51b815260206004820152601860248201527f6c6566697473686e657373206f7574206f6620626f756e640000000000000000604482015290519081900360640190fd5b6008886003602002015160ff1610612381576040805162461bcd60e51b815260206004820152601b60248201527f616767726573736976656e657373206f7574206f6620626f756e640000000000604482015290519081900360640190fd5b604088015160ff166123d157602088015160ff16156123d15760405162461bcd60e51b815260040180806020018281038252602b815260200180613b78602b913960400191505060405180910390fd5b60088560ff1610612429576040805162461bcd60e51b815260206004820152601d60248201527f67616d65734e6f6e53746f7070696e67206f7574206f6620626f756e64000000604482015290519081900360640190fd5b620100008b1061246a5760405162461bcd60e51b8152600401808060200182810382526021815260200180613ba36021913960400191505060405180910390fd5b60008911801561247f57506508000000000089105b6124c8576040805162461bcd60e51b81526020600482015260156024820152741c1b185e595c9259081bdd5d081bd988189bdd5b99605a1b604482015290519081900360640190fd5b60005b600561ffff8216101561250a578060140261ffff168d8261ffff16600581106124f057fe5b602002015163ffffffff16901b91909117906001016124cb565b5060648b901b176074886000602002015160ff16901b176078886001602002015160ff16901b17607b886002602002015160ff16901b17607e886003602002015160ff16901b81179050608189901b8117905060ac8761256b57600061256e565b60015b60ff16901b1760ad86612582576000612585565b60015b60ff16901b8117905060ae8560ff16901b8117905060b18460ff16901b8117905060b4836125b45760006125b7565b60015b60ff16901b8117905060b58263ffffffff16901b8117905060cd8a60ff16901b811790509b9a5050505050505050505050565b6125f2613a07565b604080518082019091528061260f8560005b602002015185612e95565b815260200161261f856001612604565b90529392505050565b602681901c601f1691601c82901c6103ff1691630fffffff1690565b6110095481565b600061265684612922565b156126625750826121d4565b600782028301600080612675878461380a565b925050915060008061268884868561278b565b915061ffff1691506126986139cb565b6126a06139e9565b60006126ad878786611dbf565b9250925092506126ca838660008f8660008060008060008b61220d565b9c9b505050505050505050505050565b607b1c60071690565b603f1690565b607c0160ff161c60019081161490565b60006507ffffffffff821115612756576040805162461bcd60e51b815260206004820152601a60248201527f707265764c6561677565496478206f7574206f6620626f756e64000000000000604482015290519081900360640190fd5b5060301b6b07ffffffffff00000000000019919091161790565b62015180900490565b60d21c60031690565b60741c600f1690565b604080516020808201869052600260ff85811691909104168284015282518083038401815260609092019092528051910120600090819060018416156127d757600881066007036127dc565b600881065b9150600260ff85160660010160ff1681901c905060078260ff1610801561280557506004810615155b15612811576001820191505b600c81901c90611c8490066116d001600560ff84161180156128345750612c3381115b15612847576102da820681019003612c33015b600e90049094039590945092505050565b6000808060038516602482806002841080159061287457508289105b1561288d57506000955085945084935061291b92505050565b60028410156128ca5760046060858b0306048860ff16019150606060ff16848960ff1684036004028b0303600202816128c257fe5b049050612903565b60046060848b0306048860ff16019150606060ff16838960ff1684036004028b0303600202816128f657fe5b0460010190506002840393505b83945061290f82613640565b9650600e900694505050505b9250925092565b60cc1c60019081161490565b6000808261293d576083612940565b608d5b90508060040160ff1684901c60031691505092915050565b60301c6507ffffffffff1690565b600081612974576000612977565b60045b60ca0160ff168360ff16901b841790509392505050565b6001607c9190910160ff161b1790565b6000601f8260ff1611156129f9576040805162461bcd60e51b815260206004820152601c60248201527f63757272656e7453686972744e756d206f7574206f6620626f756e6400000000604482015290519081900360640190fd5b5065f800000000001991909116602b9190911b6607f80000000000161790565b60cd1c60ff1690565b6000611d1e612a40612a3b612a36856134d5565b613850565b611cf6565b4203600e02612770565b6000612a55846135eb565b1580612a685750612a66848461357d565b155b15612a75575060006121d4565b6110166000612a858686866120bd565b81526020810191909152604001600020546001600160a01b0316949350505050565b60ff91821660049182029091019091161b1790565b6000612ac7836135eb565b1580612ada5750612ad8838361357d565b155b15612ae757506000611d1e565b6110126000612af8858560006120bd565b815260200190815260200160002054905092915050565b60008082612b1e576000612b21565b60035b840160020260a70190508060ff1685901c6003169150509392505050565b60ec1b1790565b60fb1c60019081161490565b60006110136000612af8858560006120bd565b6000612b7082612922565b612b8257612b7d826135dd565b611d1e565b5090565b6000612b90613a25565b612b98613a25565b612ba38888886120bd565b9250601286026000612bb487612770565b905060005b6012811015612c0a576000612bd18c8c8487016120bd565b905080868360128110612be057fe5b6020020152612bf081848a61264b565b858360128110612bfc57fe5b602002015250600101612bb9565b505050955095509592505050565b60050260b30160ff161c601f1690565b6000612c34848461308d565b9091109392505050565b60ff91821660059190910260b3019091161b1790565b6000601a612c61836137cc565b1492915050565b60b11c60071690565b60040260620160ff161c600f1690565b600f1690565b60d61c60019081161490565b600080612ca1858585612a4a565b6001600160a01b031614949350505050565b61101e5461101f54600091611d1e91849160ff1690612ffc565b611005546001600160a01b031690565b600080612ceb6000876131f0565b9050612cf7818661299e565b9050612d0381856126f9565b9050612d0f8184612ef1565b9695505050505050565b600080600080600080612d2b87612628565b9194509250905060128104608081046000612d478686846120bd565b9050612d548686856120bd565b6000828152611014602052604090205461100954919a506007020197506012840696505050505050509193909250565b61101f5461101e5460009182918291612d9f9160ff16612858565b9250925092505b909192565b612db3613a44565b60005b600e8160ff161015612df6578060050260100160ff1683901c601f16828260ff16600e8110612de157fe5b60ff9092166020929092020152600101612db6565b50919050565b60006001821415612e0f57506000611cfd565b50600090815261101660205260409020546001600160a01b03161590565b6000808360040283612e40576097612e43565b609f5b60ff87811692909101161b8617915050949350505050565b60d41b1790565b60d41c62ffffff1690565b600081612e7b576000612e7e565b60015b60040260c20160ff1683901c600f16905092915050565b60d21b60ff60d21b161790565b600080600080612eb185612628565b925092509250612ec2838383612c28565b95945050505050565b60ff9182166004919091026034019091161b1790565b60020260640160ff161c60031690565b60006407ffffffff821115612f4d576040805162461bcd60e51b815260206004820152601a60248201527f6c61737453616c65426c6f636b206f7574206f6620626f756e64000000000000604482015290519081900360640190fd5b50605b1b6407ffffffff605b1b19919091161790565b6000808360040283612f76576097612f79565b609f5b0190508060ff1685901c600f169150509392505050565b60008082612f9f576083612fa2565b608d5b60ff8581166004830182161b88821682841690811b6103ff90911b199a909a169990991798909817978681166006909201161b871791505095945050505050565b611007546001600160a01b031690565b60f91c60031690565b60006102a0821015613010575060006121d4565b6102a08204600060ff808616908716101561303057848660180103613034565b8486035b60ff169050600481026102a083020184101561305657506000190190506121d4565b5090506121d4565b4290565b600081613070576000613073565b60015b60040260c20160ff168360ff16901b841790509392505050565b6000600861309b8484613861565b029392505050565b6130ab6139cb565b60006130b56139e9565b60006130bf6139cb565b6130c7613a63565b60005b600560ff82161015613107576130e088826121db565b878260ff16600581106130ef57fe5b63ffffffff90921660209290920201526001016130ca565b5061311187613850565b945061311c87612782565b60ff16845261312a876131e7565b60ff16602085015261313b876126da565b60ff16604085015261314c876120b4565b60ff16606085015261315d87612b65565b925061316887613844565b15158252613175876136b9565b1515602083015261318587613571565b15156040830152613195876135d1565b151560608301526131a587612c87565b151560808301526131b587612a19565b60ff1681526131c38761379d565b60ff1660208201526131d487612c68565b60ff166040820152949693955091939092565b60781c60071690565b60006507ffffffffff82111561324d576040805162461bcd60e51b815260206004820152601b60248201527f63757272656e745465616d496478206f7574206f6620626f756e640000000000604482015290519081900360640190fd5b506507ffffffffff19919091161790565b600080600061101f546000141561327d57506000915081905080612da6565b61101f5461101e54612d9f91600019019060ff16612858565b61329e613a81565b6132a6613a25565b6132ae613aaf565b6132b6613a25565b6132be613add565b6132c6613b0b565b60005b60128110156134a5576132da6139cb565b60006132e46139e9565b60006132ee6139cb565b6132f6613a63565b61330f8e886012811061330557fe5b60200201516130a3565b95509550955095509550955060008090505b600560ff821610156133b557868160ff166005811061333c57fe5b60200201518e896012811061334d57fe5b60200201518260ff166005811061336057fe5b63ffffffff90921660209290920201528260ff82166005811061337f57fe5b60200201518a896012811061339057fe5b60200201518260ff16600581106133a357fe5b91151560209092020152600101613321565b5060005b60048160ff16101561340d57848160ff16600481106133d457fe5b60200201518c89601281106133e557fe5b60200201518260ff16600481106133f857fe5b60ff90921660209290920201526001016133b9565b5060005b60038160ff16101561346557818160ff166003811061342c57fe5b602002015189896012811061343d57fe5b60200201518260ff166003811061345057fe5b60ff9092166020929092020152600101613411565b50848c886012811061347357fe5b61ffff9092166020929092020152828a886012811061348e57fe5b60200201525050600190940193506132c992505050565b5091939550919395565b605b1c6407ffffffff1690565b60f91b607f60f91b166001607d60f91b03919091161790565b60006134e082612922565b156134ec575080611cfd565b6134f5826135b1565b61350157506000611cfd565b600080600061350f85612628565b919450925090506012810460808104600061352b8686846120bd565b905061354f886110095461101460008581526020019081526020016000205461264b565b98975050505050505050565b60ff9182166002919091026064019091161b1790565b60ad1c60019081161490565b60ff91909116600090815261101760205260409020541190565b60ec1c610fff1690565b611008546001600160a01b031690565b6000806000806135c085612628565b925092509250612ec28383836139b2565b60d51c60019081161490565b60811c6507ffffffffff1690565b600060ff821615801590611d1e575050601960ff9091161090565b60008082613615576083613618565b608d5b90508060060160ff1684901c600f1691505092915050565b61102f546001600160a01b031681565b6000601860178301066001019050919050565b61365b613b39565b60005b600a8160ff161015612df6578060060160ff1683901c600116600114613685576000613688565b60015b828260ff16600a811061369757fe5b9115156020909202015260010161365e565b611006546001600160a01b031690565b60b41c60019081161490565b60040260560160ff161c600f1690565b6136dd613a63565b6136e5613a63565b6136ed613a44565b6136f5613b39565b6000613700866126e3565b905061370b86613653565b915060005b60038160ff16101561374a5761372687826136c5565b868260ff166003811061373557fe5b60ff9092166020929092020152600101613710565b5061375486612dab565b925060005b60038160ff1610156137935761376f8782612c71565b858260ff166003811061377e57fe5b60ff9092166020929092020152600101613759565b5091939590929450565b60ae1c60071690565b60008160060160ff1683901c6001166001146137c35760006121d4565b60019392505050565b602b1c601f1690565b6000816137e35760006137e6565b60045b60ca0160ff1683901c600f16905092915050565b60049081020160ff161c600f1690565b60008060008060008061381c88612628565b91945092509050601281046138328484836120bd565b99979850506012900695945050505050565b60ac1c60019081161490565b60641c61ffff1690565b60ff160190565b6000601061309b8484612abc565b613877613b58565b61388083612e62565b63ffffffff16815261389183612779565b60ff1660208201526138a283612c81565b60ff16604082015281156138c3576138b983613597565b61ffff1660608201525b6138cd83836121ea565b63ffffffff1660808201526138e2838361292e565b63ffffffff1660a08201526138f78383613606565b63ffffffff1660c082015261390e83600084612f63565b60ff1660e082015261392283600184612f63565b60ff1661010082015261393783600084612b0f565b60ff1661012082015261394c83600184612b0f565b60ff1661014082015261396183600284612b0f565b60ff166101608201528115611d1e5761397b836000612c18565b60ff1661018082015261398f836001612c18565b60ff166101a08201526139a3836002612c18565b60ff166101c082015292915050565b600060126139c0858561308d565b029091109392505050565b6040518060a001604052806005906020820280368337509192915050565b60405180608001604052806004906020820280368337509192915050565b60405180604001604052806002906020820280368337509192915050565b6040518061024001604052806012906020820280368337509192915050565b604051806101c00160405280600e906020820280368337509192915050565b60405180606001604052806003906020820280368337509192915050565b6040518061024001604052806012905b613a996139cb565b815260200190600190039081613a915790505090565b6040518061024001604052806012905b613ac76139e9565b815260200190600190039081613abf5790505090565b6040518061024001604052806012905b613af56139cb565b815260200190600190039081613aed5790505090565b6040518061024001604052806012905b613b23613a63565b815260200190600190039081613b1b5790505090565b604051806101400160405280600a906020820280368337509192915050565b604051806101e00160405280600f90602082028036833750919291505056fe6c6566746973686e65732063616e206f6e6c79206265207a65726f20666f7220676f616c6b6565706572736461794f664269727468496e556e697854696d65206f7574206f6620626f756e64a2646970667358221220ab9ddc5da89cab3bd4e97b0c7494aef8bce5911955cb4741d845efe18701100c64736f6c63430006030033",
  "source": "pragma solidity >=0.6.3;\nimport \"../encoders/EncodingMatchLog.sol\";\nimport \"../encoders/EncodingTacticsBase3.sol\";\nimport \"../storage/AssetsView.sol\";\n\n/**\n @title Library of pure functions used by company to compute useful data\n @author Freeverse.io, www.freeverse.io\n*/\n\ncontract Utils is AssetsView, EncodingMatchLog, EncodingTacticsBase3 {\n\n    function createTeam(\n        uint8 timeZone,\n        uint256 countryIdxInTZ,\n        uint256 teamIdxInTZ,\n        uint256 deployTimeInUnixEpochSecs,\n        uint256 divisionCreationRound\n    ) public pure returns (\n        uint256 teamId,\n        uint256[PLAYERS_PER_TEAM_INIT] memory playerIds,\n        uint256[PLAYERS_PER_TEAM_INIT] memory playerSkillsAtBirth\n    ) {\n        teamId = encodeTZCountryAndVal(timeZone, countryIdxInTZ, teamIdxInTZ);\n        uint256 playerIdxInCountry = teamIdxInTZ * PLAYERS_PER_TEAM_INIT;\n        uint256 gameDeployDay = secsToDays(deployTimeInUnixEpochSecs);\n\n        for (uint256 i = 0; i < PLAYERS_PER_TEAM_INIT; i++ ) {\n            uint256 playerId = encodeTZCountryAndVal(timeZone, countryIdxInTZ, playerIdxInCountry + i);\n            playerIds[i] = playerId;\n            playerSkillsAtBirth[i] = getPlayerSkillsAtBirthPure(playerId, gameDeployDay, divisionCreationRound);\n        }\n    }\n\n\n    function fullDecodeSkillsForEntireTeam(\n        uint256[PLAYERS_PER_TEAM_INIT] memory encodedSkills\n    )\n        public\n        pure\n        returns (\n            uint32[N_SKILLS][PLAYERS_PER_TEAM_INIT] memory skills,\n            uint16[PLAYERS_PER_TEAM_INIT] memory dayOfBirth,\n            uint8[4][PLAYERS_PER_TEAM_INIT] memory birthTraits,\n            uint256[PLAYERS_PER_TEAM_INIT] memory playerId,\n            bool[5][PLAYERS_PER_TEAM_INIT]\n                memory aligned1stSubst1stRedCardLastGameOutOfGame1stYellow1st,\n            uint8[3][PLAYERS_PER_TEAM_INIT]\n                memory generationGamesNonStopInjuryWeeks\n        )\n    {\n        for (uint256 i = 0; i < PLAYERS_PER_TEAM_INIT; i++) {\n            (\n                uint32[N_SKILLS] memory playerSkills,\n                uint16 birth,\n                uint8[4] memory traits,\n                uint256 id,\n                bool[5] memory status,\n                uint8[3] memory genGamesInjury\n            ) = fullDecodeSkills(encodedSkills[i]);\n\n            for (uint8 j = 0; j < N_SKILLS; j++) {\n                skills[i][j] = playerSkills[j];\n                aligned1stSubst1stRedCardLastGameOutOfGame1stYellow1st[i][j] = status[j];\n            }\n\n            for (uint8 j = 0; j < 4; j++) {\n                birthTraits[i][j] = traits[j];\n            }\n\n            for (uint8 j = 0; j < 3; j++) {\n                generationGamesNonStopInjuryWeeks[i][j] = genGamesInjury[j];\n            }\n\n            dayOfBirth[i] = birth;\n            playerId[i] = id;\n        }\n\n        return (\n            skills,\n            dayOfBirth,\n            birthTraits,\n            playerId,\n            aligned1stSubst1stRedCardLastGameOutOfGame1stYellow1st,\n            generationGamesNonStopInjuryWeeks\n        );\n    }\n\n    function fullDecodeMatchLog(uint256 log, bool is2ndHalf) public pure returns (uint32[15] memory decodedLog) {\n        decodedLog[0] = uint32(getTeamSumSkills(log));\n        decodedLog[1] = uint32(getWinner(log));\n        decodedLog[2] = uint32(getNGoals(log));\n        if (is2ndHalf) decodedLog[3] = uint32(getTrainingPoints(log));\n        \n        decodedLog[4] = uint32(getOutOfGamePlayer(log, is2ndHalf));\n        decodedLog[5] = uint32(getOutOfGameType(log, is2ndHalf));\n        decodedLog[6] = uint32(getOutOfGameRound(log, is2ndHalf));\n    \n        decodedLog[7] = uint32(getYellowCard(log, 0, is2ndHalf));\n        decodedLog[8] = uint32(getYellowCard(log, 1, is2ndHalf));\n        \n        decodedLog[9]  = uint32(getInGameSubsHappened(log, 0, is2ndHalf));\n        decodedLog[10] = uint32(getInGameSubsHappened(log, 1, is2ndHalf));\n        decodedLog[11] = uint32(getInGameSubsHappened(log, 2, is2ndHalf));\n\n        /// getHalfTimeSubs: recall that 0 means no subs, and we store here p+1 (where p = player in the starting 11 that was substituted)\n        if (is2ndHalf) {\n            decodedLog[12]  = uint32(getHalfTimeSubs(log, 0));\n            decodedLog[13]  = uint32(getHalfTimeSubs(log, 1));\n            decodedLog[14]  = uint32(getHalfTimeSubs(log, 2));\n        }\n        return decodedLog;\n    }\n    \n    function fullDecodeSkills(uint256 encodedSkills) public pure returns(\n        uint32[N_SKILLS] memory skills,\n        uint16 dayOfBirth,\n        uint8[4] memory birthTraits,\n        uint256 playerId, \n        bool[5] memory aligned1stSubst1stRedCardLastGameOutOfGame1stYellow1st,\n        uint8[3] memory generationGamesNonStopInjuryWeeks\n    ) {\n        for (uint8 sk = 0; sk < N_SKILLS; sk++) skills[sk] = uint32(getSkill(encodedSkills, sk));\n\n        dayOfBirth = uint16(getBirthDay(encodedSkills));\n\n        birthTraits[0] = uint8(getPotential(encodedSkills));\n        birthTraits[1] = uint8(getForwardness(encodedSkills));\n        birthTraits[2] = uint8(getLeftishness(encodedSkills));\n        birthTraits[3] = uint8(getAggressiveness(encodedSkills));\n        \n        playerId = getPlayerIdFromSkills(encodedSkills);\n        \n        aligned1stSubst1stRedCardLastGameOutOfGame1stYellow1st[0] = getAlignedEndOfFirstHalf(encodedSkills);\n        aligned1stSubst1stRedCardLastGameOutOfGame1stYellow1st[1] = getSubstitutedFirstHalf(encodedSkills);\n        aligned1stSubst1stRedCardLastGameOutOfGame1stYellow1st[2] = getRedCardLastGame(encodedSkills);\n        aligned1stSubst1stRedCardLastGameOutOfGame1stYellow1st[3] = getOutOfGameFirstHalf(encodedSkills);\n        aligned1stSubst1stRedCardLastGameOutOfGame1stYellow1st[4] = getYellowCardFirstHalf(encodedSkills);\n        \n        generationGamesNonStopInjuryWeeks[0] = uint8(getGeneration(encodedSkills));\n        generationGamesNonStopInjuryWeeks[1] = getGamesNonStopping(encodedSkills);\n        generationGamesNonStopInjuryWeeks[2] = getInjuryWeeksLeft(encodedSkills);\n    }\n    \n    function getNow() public view returns(uint256) {\n        return now;\n    }\n    \n    function decodeTactics(uint256 tactics) public pure returns (\n        uint8[3] memory substitutions, \n        uint8[3] memory subsRounds, \n        uint8[14] memory lineup, \n        bool[10] memory extraAttack, \n        uint8 tacticsId\n    ) {\n        tacticsId = getTacticsId(tactics);\n        extraAttack = getFullExtraAttack(tactics);\n        for (uint8 p = 0; p < 3; p++) {\n            substitutions[p] = getSubstitution(tactics, p);\n        }          \n        lineup = getFullLineUp(tactics);\n        for (uint8 p = 0; p < 3; p++) {\n            subsRounds[p] = getSubsRound(tactics, p);\n        }          \n    }\n}\n",
  "sourcePath": "/Users/jurgenkudla/proyects/laos/laos-goal-revolution/goalrev-ganache/contracts/interfaces/Utils.sol",
  "compiler": {
    "name": "solc",
    "version": "0.6.3+commit.8dda9521.Emscripten.clang"
  },
  "schemaVersion": "3.0.23",
  "updatedAt": "2024-10-18T06:45:39.976Z",
  "networkType": "ethereum",
  "devdoc": {
    "author": "Freeverse.io, www.freeverse.io",
    "methods": {
      "computeBirthDayAndPotential(uint256,uint256,uint8)": {
        "params": {
          "playerCreationDay": "- days since unix epoch where the player was created as part of teams of a division"
        },
        "returns": {
          "dayOfBirth": "- days since unix epoch"
        }
      },
      "encodeTZCountryAndVal(uint8,uint256,uint256)": {
        "details": "PlayerId and TeamId both serialize a total of 43 bits:     timeZone        = 5 bits     countryIdxInTZ  = 10 bits     val             = 28 bits (either  (playerIdxInCountry or teamIdxInCountry)*"
      }
    },
    "title": "Library of pure functions used by company to compute useful data"
  },
  "userdoc": {
    "methods": {
      "addHalfTimeSubs(uint256,uint8,uint8)": {
        "notice": "recall that 0 means no subs, and we store here lineUp[p]+1 (where lineUp[p] = player shirt in the 25 that was substituted)"
      },
      "computeBirthDayAndPotential(uint256,uint256,uint8)": {
        "notice": "/ Compute a random age between 16 and 35.999, with random potential in [0,...7]"
      },
      "computeSkills(uint256,uint8,uint8)": {
        "notice": "/ Compute the pseudorandom skills, sum of the skills is 5K (1K each skill on average) / skills have currently, 16bits each, and there are 5 of them / potential is a number between 0 and 9 => takes 4 bit / 0: 000, 1: 001, 2: 010, 3: 011, 4: 100, 5: 101, 6: 110, 7: 111"
      },
      "daysToSecs(uint256)": {
        "notice": "TODO: remove from this contract, expose as interface for users"
      },
      "getHalfTimeSubs(uint256,uint8)": {
        "notice": "recall that 0 means no subs, and we store here p+1 (where p = player in the starting 11 that was substituted)"
      },
      "getOwnerTeamInCountry(uint8,uint256,uint256)": {
        "notice": "returns NULL_ADDR if team is bot"
      },
      "isBotTeamInCountry(uint8,uint256,uint256)": {
        "notice": "Rest of view/pure functions "
      },
      "nextTimeZoneToUpdate()": {
        "notice": "each day has 24 hours, each with 4 verses => 96 verses per day. day = 0,..13 turnInDay = 0, 1, 2, 3 so for each TZ, we go from (day, turn) = (0, 0) ... (13,3) => a total of 14*4 = 56 turns per tz from these, all map easily to timeZones"
      },
      "timeZoneToUpdatePure(uint256,uint8)": {
        "notice": "tz0  : v = 0, V_DAY, 2 * V_DAY... tzN  : v = 4N + V_DAY * day,  day = 0,...6 tzN  : v = 4N + V_DAY * day,  day = 0,...6  => tzN - tz0 = (v - V_DAY*day)  => 4 tzN = 4 tz0 + v % VERSES_PER_DAY last : v = V_DAY + DELTA + V_DAY * 6  Imagine 2 tzs: 0:00 - tz0; 0:30 - NUL; 1:00 - tz1; 1:30 - tz0; 0:00 - tz0; 0:30 - tz1; So the last"
      }
    }
  }
}